:020000040800F2
:10000000000001204D8E00080506000807060008C4
:10001000090600080B0600080D0600080000000095
:100020000000000000000000000000000F060008B3
:10003000110600080000000013060008150600085D
:10004000918E0008918E0008918E00084D060008E0
:10005000918E0008918E0008918E0008918E000804
:10006000918E0008918E0008918E0008918E0008F4
:10007000918E0008918E0008918E0008918E0008E4
:10008000918E0008918E0008918E000845060008A8
:1000900049060008918E0008918E0008918E000894
:1000A000918E0008918E0008918E0008918E0008B4
:1000B000918E0008918E0008918E0008918E0008A4
:1000C000918E0008918E0008918E0008918E000894
:1000D000918E0008918E0008D3180008918E0008B8
:1000E000918E0008918E0008918E0008918E000874
:1000F000918E0008918E0008918E0008918E000864
:10010000918E000839520008918E0008918E0008E7
:10011000918E0008918E0008918E0008918E000843
:10012000918E0008918E0008918E0008918E000833
:1001300000000000000000000000000000000000BF
:1001400000000000000000000000000000000000AF
:10015000000000000000000000000000000000009F
:10016000000000000000000000000000000000008F
:10017000000000000000000000000000000000007F
:10018000000000000000000000000000000000006F
:10019000000000000000000000000000000000005F
:1001A000000000000000000000000000000000004F
:1001B000000000000000000000000000000000003F
:1001C000000000000000000000000000000000002F
:1001D000000000000000000000000000000000001F
:1001E0005FF8E0F12DE9F04100F0C2FA4FF47A70C7
:1001F00000F07CF903244FF4C055C4F201054FF41C
:100200007A7000F0C0F92021284606F0DFFE06468D
:100210004021284606F0DAFE304310F0FF0F4DD1A2
:1002200040F6D033C2F2000301221A6040F6D03407
:10023000C2F20004236853B940214FF4C050C4F205
:10024000010006F0C3FE00283BD00323236007F023
:100250000EFC2368012B40F6D435C2F2000541F6AE
:10026000645EC2F2000E42F2401CC2F2000C48F280
:100270001133C0F6000342F24417C2F2000742F203
:100280004816C2F2000642F24C10C2F2000042F2DE
:100290002C11C2F200011FD140F6E562C0F6000247
:1002A0002A6041F62502C0F60002CEF80020CCF804
:1002B00000303B60336003600B6033E0013C9ED153
:1002C000B4E720214FF4C050C4F2010006F07EFED6
:1002D0000028BCD00223B9E72268032A25D141F2C5
:1002E0007F52C0F600022A6041F24552C0F6000279
:1002F000CEF8002045F6A562C0F60002CCF800203A
:100300003B6045F68373C0F60003336045F6E17346
:10031000C0F60003036045F2FF73C0F600030B60F4
:1003200005F026FD2B689847FCE72268022A41F673
:100330002502C0F600021BD141F21364C0F600048E
:100340002C60CEF8002046F29172C0F60002CCF884
:10035000002046F6EB12C0F600023A6033600360FC
:1003600045F68913C0F600030B6006F0EAFCD9E7F6
:100370004FF00108C4F8008040F6E564C0F60004C0
:100380002C6092E782B04FF48053C4F202031A68E3
:1003900042F001021A6059680022CFF6FF020A40BB
:1003A0005A601A6822F0847222F480321A601A6845
:1003B00022F480221A605A6822F4FE025A604FF436
:1003C0001F029A600022009201921A6842F4803261
:1003D0001A601A6802F400320192009A0132009207
:1003E000019A1AB9009AB2F5A06FF2D11A6812F404
:1003F000003218BF01220192019A012A2FD14FF435
:100400000052C4F20202116841F01001116011683B
:1004100021F003011160116811605A685A605A682E
:100420005A605A685A605A6822F47C125A605A68B4
:1004300042F430225A601A6842F080721A601A68D8
:100440009201FCD55A6822F003025A605A6842F0C1
:1004500002025A605A6802F00C02082AFAD14FF4DC
:100460006D43CEF200034FF000629A6002B0704715
:100470004FF48052C4F20202516801F00C010429C9
:1004800040F21003C2F2000312D0082915D04FF435
:100490009051C0F27A0119605268C2F3031240F21F
:1004A0000001C2F20001895C1A68CA401A607047F4
:1004B0004FF4D851C0F2B701EDE751685068C1F36D
:1004C00083410231C00305D44FF41060C0F23D00F7
:1004D0004143E0E75068800347BF48F68050C0F2D0
:1004E0005B004FF4D850C0F2B700F1E730B587B0E9
:1004F0000190042006F010FD019A40F21004C2F2AF
:1005000000042368B3FBF2F3013BB3F1807F39D2DF
:100510004EF21002CEF2000253604FF46D43CEF261
:100520000003F02183F82310002595600723136052
:100530004FF48053C4F20203DA6942F00802DA6130
:1005400003A807F078F8236844F24022C0F20F02B3
:10055000B3FBF2F3013BADF80C30ADF80E504FF6A3
:10056000FF73049303A94FF44060C4F2000007F046
:1005700002F801214FF44060C4F2000007F064F873
:1005800007B030BDFEE782B00190019A40F6D83343
:10059000C2F200031A601A68002AFCD102B0704748
:1005A00082B0ADF80600BDF806309BB253B14FF4EF
:1005B0004063C4F2000300229A849A8CBDF80610AE
:1005C0009142FAD202B07047704708B540F6DC336A
:1005D000C2F200031A6822B942F27052C2F200025B
:1005E0001A60186801446A46914206D908F052FC24
:1005F0000C2303604FF0FF3008BD1960FCE74FF09B
:10060000FF3070477047FEE7FEE7FEE7FEE7704702
:100610007047704708B540F6D833C2F200031A6835
:1006200012B11A68013A1A6000F065F940F6D03349
:10063000C2F200031B68012B03D1BDE8084000F0A3
:1006400027BC08BD07F050BF05F0CFB87047F0B524
:1006500000234E1C1F46050FECB2092D94BF303409
:10066000373401F81340000106F813700133DCB28F
:10067000A242F0D8F0BD73B501217D2006F0CCFD7B
:100680004FF6FF73C0F20303019301A94FF400601A
:10069000C4F2010006F04DFC4FF44065C4F20105C0
:1006A00001A9284606F045FC01A94FF48050C4F288
:1006B000010006F03EFC01A94FF4A050C4F2010075
:1006C00006F037FC4FF4C054C4F2010401A92046DF
:1006D00006F02FFC00217D2006F09EFD0121482020
:1006E00006F09AFD0323C1F20303019301A92046FA
:1006F00006F01FFC4FF48076ADF8046001A928468F
:1007000006F017FC3146284606F068FC0121204619
:1007100006F064FC0221204606F060FC02B070BDC9
:1007200007B50121402006F077FD7823C2F60303C8
:10073000019301A94FF4C050C4F2010006F0F9FB87
:100740000121042006F068FD4FF48073C0F20343DA
:10075000019301A94FF40060C4F2010006F0E9FB27
:1007600003B05DF804FB00214FF0006006F0C9BB48
:1007700008B5FFF77DFEFFF7F6FFFFF77CFFFFF7F9
:10078000CFFF00F038F900F074FABDE8084000F03F
:1007900053B97FB5002006F0A8FC002006F0A0FCAD
:1007A0004FF480114FF4803006F08FFC012006F0EA
:1007B00097FC392006F052FD0028FAD04FF4005380
:1007C000C4F202031A6842F010021A601A6822F09A
:1007D00003021A601A6842F002021A60022006F050
:1007E00084FC06F08CFC0828FBD101A806F0B3FCC1
:1007F00007B05DF804FB07B50121202006F00CFDD1
:100800000823C1F20343019301A94FF4A050C4F29D
:10081000010006F08EFB03B05DF804FB08B5002074
:1008200006F075FC01214FF40000BDE8084006F019
:1008300001BD082128B14FF4A050C4F2010006F018
:10084000CDBB4FF4A050C4F2010006F0C5BB42F28C
:10085000BC43C2F200039A7A42F22413C2F20003AC
:1008600012B105221A6070470122FBE738B50D4628
:100870004FF2E873C1F6FF731B684FF2EC72C1F6DA
:10088000FF7214684FF2F072C1F6FF7212689B1883
:100890000BD0082201461846FFF7D9FE042229464C
:1008A0002046BDE83840FFF7D2BE38BD00231846C9
:1008B00040F60842C2F2000232F81310084480B237
:1008C0000533322BF8D10A23B0FBF3F0C0F30B034E
:1008D00040F6C6205843000B400040F6E433C2F215
:1008E0000003B3F90020511C0EBF00B2400800EB1A
:1008F00062001880704738B54FF480714FF4006083
:10090000C4F2010006F062FB012840F6E833C2F2AF
:10091000000315D11A6801321A6040F6B8339A42C2
:1009200010D907F09CF800F0CCFA4FF400514FF4C6
:100930008050C4F2010006F04FFB07F090F8FCE78E
:1009400000221A6040F21804C2F20004256845B182
:10095000FFF7ACFF40F6E033C2F200031860013D40
:10096000256040F6EC33C2F200031A680132B2F59A
:100970007A7F04D81A60BDE8384007F070B80022CA
:100980001A6040F6E035C2F200052C6804EB44041E
:10099000FFF78CFF204483082B6042F6E363984204
:1009A00040F6F033C2F200030CD9B0F5615F40F2BB
:1009B0001402C2F2000207D20221116043F2BB42CC
:1009C000904204D90022D5E701211160FAE71A68A4
:1009D00001321A600C2ACED907F041F800F071FA02
:1009E0004FF400514FF48050C4F2010006F0F4FAC5
:1009F00007F035F8FCE707B50121102006F00CFCE4
:100A00004FF40053C1F20103019301A94FF4805048
:100A1000C4F2010006F08DFA45F2555007F00DF8CA
:100A2000032007F010F840F2E24007F012F807F058
:100A300016F803B05DF804FB38B501214FF40470DB
:100A400006F0EAFB0121084606F0D8FB40F6984183
:100A5000C2F200010F230B8003254D804FF480501C
:100A6000C4F2010006F065FA01214FF4007006F0AF
:100A7000D3FB0820C4F2020006F0B1FC40F66C4142
:100A8000C2F2000142F24C43C4F201030B6040F693
:100A90000843C2F200034B6000248C603223CB6019
:100AA0000C6180234B614FF480738B614FF4806342
:100AB000CB6120230B624C628C620820C4F20200DE
:100AC00006F01AFD01210820C4F2020006F032FDF2
:100AD00040F6F431C2F200010C6040F201138B8049
:100AE0004FF460238B60CC6005240C744FF41050DD
:100AF000C4F2010006F0C6FB012006F063FC0723E8
:100B0000012209214FF41050C4F2010006F00BFC41
:100B10002346022210214FF41050C4F2010006F0C7
:100B200002FC07232A460A214FF41050C4F20100A8
:100B300006F0F9FB072304220C214FF41050C4F2F5
:100B4000010006F0F0FB072322460D214FF4105060
:100B5000C4F2010006F0E7FB01214FF41050C4F28B
:100B6000010006F026FC01214FF41050C4F20100F0
:100B700006F0ACFB012006F025FC4FF41050C4F247
:100B8000010006F0B5FB4FF41054C4F201042046F6
:100B900006F0B3FB0028FAD14FF41050C4F2010064
:100BA00006F0AFFB4FF41054C4F20104204606F0E7
:100BB000ADFB0028FAD101214FF41050C4F201001E
:100BC00006F08DFB01214FF41050C4F20100BDE886
:100BD000384006F09FBB73B50646CDE90023684652
:100BE00008F05EF9436903F26C73436135460446CD
:100BF0000FCC0FC50FCC0FC523682B60304602B059
:100C000070BD10B5044606F04AFD0246002320469A
:100C1000FFF7E1FF204610BD10B50446012006F0A5
:100C200007FF06F06DFD204606F04BFD06F068FD5F
:100C30000020BDE8104006F0FBBE84B030B58BB09C
:100C40000EAC84E80F0001AC0EAD0FCD0FC40FCD7C
:100C50000FC42B682360069BA3F26C73069301A854
:100C600008F018FCFFF7D8FF0BB0BDE8304004B027
:100C7000704770B586B0142006F0CBFE4AF2A5543A
:100C80000121A0424FF0C05052D006F0D3FA01200B
:100C900006F0CEFE2146142006F0ACFE06F0A1FEC2
:100CA000012006F039FA412006F0D8FA0028FAD0DF
:100CB0004FF4807006F041FA012006F046FA06F083
:100CC0001FFD0121084606F0CAFC06F019FD47F693
:100CD000FF7006F005FD06F013FD40F69C44C2F2DD
:100CE000000440F2D9736361062323610F23E3609C
:100CF0001723A3602D236360254645F8103B6E46FD
:100D00000FCD0FC62B68336094E80F00FFF795FFF7
:100D100006F0F6FC012006F08BFE4AF2A5511420E5
:100D200006F068FE002006B0BDE8704006F080BE08
:100D300006F080FA06F0ECFC0121084606F08FFC74
:100D400006B0BDE8704006F0DBBC70B5002441F68B
:100D50006C55C2F2000540F6C046C2F200062B6890
:100D6000984782B2002AFAD01CB9242A01D0002464
:100D7000F5E7631C9BB230550A2A04D0B3F5007F17
:100D8000F5D21C46EBE7D8B270BD0378303BDBB23E
:100D9000092B0AD840783038C0B2092805D803EBAF
:100DA000830300EB4300C0B270470020704740F659
:100DB000C043C2F2000310F8012B1AB113F8011B53
:100DC0009142F8D01046704740F6C043C2F200038B
:100DD00013F8012B202A07D92C2AF9D1013810F059
:100DE000FF00F5D1184670470023FBE700B5A1B01E
:100DF00002460B4691F90010B9B94CF60471C0F6E1
:100E00000001684600F0ADFE9DF90030242B14D19E
:100E10000DF101008023002210F9011B2A290DD0B9
:100E2000013B0BD04A40D2B2F6E74CF60171C0F656
:100E30000001684600F095FEE6E7002269464CF6A0
:100E40000870C0F6000000F07FFE00F05CFD002896
:100E5000FBD021B05DF804FB10B541F22014C2F2C2
:100E60000004204602F0F8FAA078E3781B0443EA75
:100E70004053607943EAC023A07943EA4013E07904
:100E800043EA50032088A0F2BC7043EA406010BDE2
:100E900010B541F21C14C2F2000423685A1C2260EF
:100EA00041F6583293420BD94CF60E71C0F6000150
:100EB0004CF65C60C0F60000FFF798FF002323604B
:100EC00010BD10B541F22813C2F200031B6843B1F4
:100ED00041F2F404C2F20004204602F02DFA002888
:100EE000FAD110BD2DE9F04F8FB00024ADF832409B
:100EF00041F67053C2F2000341F2E572C0F60002FF
:100F00001A6041F66C53C2F2000341F60702C0F6C4
:100F100000021A604FF41641022000F0C9FB4CF6A3
:100F20006561C0F600014CF66A60C0F60000FFF78C
:100F30005DFF6420FFF727FB4FF4E131022000F052
:100F4000B7FB4CF66561C0F600014CF66A60C0F66E
:100F50000000FFF74BFF6420FFF715FB4FF416511D
:100F6000022000F0A5FB4CF6AD61C0F600014CF686
:100F70007360C0F60000FFF739FF4CF6AD61C0F6B4
:100F800000014CF67C60C0F60000FFF72FFF4CF626
:100F90008561C0F600014CF68760C0F60000FFF7DF
:100FA00025FF4CF6C961C0F600014CF69060C0F612
:100FB0000000FFF71BFF4CF6AD61C0F600014CF6D8
:100FC0009960C0F60000FFF711FF4CF6AD61C0F666
:100FD00000014CF6A260C0F60000FFF707FF4CF6D8
:100FE000AB61C0F600014CF6AF60C0F60000FFF741
:100FF000FDFE4CF6AD61C0F600014CF6B860C0F6DF
:101000000000FFF7F3FE4CF6C161C0F600014CF69C
:10101000CB60C0F60000FFF7E9FE22464CF60E71E9
:10102000C0F6000140F6C060C2F2000001F0A1FF6E
:1010300000F055FC41F22817C2F20007A1464FF418
:10104000C055C4F2010500233B600221284605F08B
:10105000C3FF41F21C16C2F20006B34630BFFFF7D1
:1010600074FE0028FBD00221284605F0B7FF0121BD
:10107000284605F0B1FF4CF6D460C0F60000FFF73B
:1010800096FE30B14CF6DB60C0F60000FFF78FFE35
:1010900038B90220FFF798FE04460121284605F0E2
:1010A0009DFFC6F80090002CD8D02378412BD5D1D5
:1010B00001243C600221284605F090FF2146284685
:1010C00005F08CFF2046FFF77FFE0246FFF75DFE2E
:1010D00040F69C48C2F20008C8F80800901CFFF7D0
:1010E00054FEC8F80400101DFFF74FFEC8F80000BA
:1010F0000920FFF769FE0446FFF747FEC8F80C0019
:10110000A01CFFF742FE0138C8F81000201DFFF7B1
:101110003CFE6430C8F81400404608F0BBF947F6BE
:101120009063C0184FF0000343EB0101FFF774FD1B
:1011300002A8FFF766FDC44602AE0FCEACE80F0072
:101140000FCEACE80F003368CCF800300346D8F877
:101150001420642192FBF1F0D8F80C600096013362
:1011600001FB10224CF6E261C0F6000140F6C040DF
:10117000C2F2000000F0F5FC41F2F406C2F20006F3
:10118000122240F6C041C2F20001304601F017FFC2
:10119000A8BBF168304602F0DCF880BB4CF6F36A7D
:1011A000C0F6000A40F6C048C2F20008FFF7CDFDC5
:1011B000064600283FF447AF5046FFF7F8FD30B130
:1011C0004CF6FA60C0F60000FFF7F1FD28BB0620E0
:1011D000FFF7FAFD04460378302B33D0022128466E
:1011E00005F0FAFE0DAB3246414641F2F400C2F280
:1011F000000001F0ACFF10B90D9B9E4222D041F2DD
:10120000F406C2F200060221284605F0E5FE30464B
:1012100002F092F80028F6D115E74CF6D460C0F63B
:101220000000FFF7C4FD30B14CF6DB60C0F60000F3
:10123000FFF7BDFD30B90220FFF7C6FD0446037875
:10124000412BCBD0BDF8323001339BB2ADF83230F8
:101250005A2B07D80221284605F0C0FECBF8009093
:1012600030BFA3E70221284605F0B6FEADF8329064
:1012700041F2F400C2F2000002F026F80028E9D0A2
:10128000BDE737B541F65054C2F200044FF416538F
:101290002360002363604FF44022A260A3810121F8
:1012A000052005F0B9FF01214FF4003005F0C2FF21
:1012B0000423C1F6030301934FF40065C4F2010552
:1012C00001A9284605F035FE0823C0F20343019327
:1012D00001A9284605F02DFE4FF48845C4F200050B
:1012E0002146284606F0D3FA0121284606F02BFBBA
:1012F000012240F22551284606F030FB03B030BDF4
:1013000013B540F20413C2F20003197901291A46F9
:101310001BD048B230B102291FD0FFF7B2FF002026
:1013200002B010BD41F65053C2F20003D880537989
:10133000012B2CD059B2B9B1022BEED141F650534A
:10134000C2F200034FF4C06112E041F65053C2F202
:1013500000034FF44051D980E9E741F65053C2F2FF
:1013600000034FF40051F6E741F65053C2F2000378
:1013700019819379072B11D0082BCED141F6505308
:10138000C2F20003198971B14FF480510BE041F6AC
:101390005053C2F200034FF48061E9E741F6505325
:1013A000C2F200030021998041F65054C2F20004B9
:1013B000136823600023A3810C236381012105208E
:1013C00005F02AFF01214FF4003005F033FF04231C
:1013D000C1F60303019301A94FF40060C4F20100B8
:1013E00005F0A7FD0823C0F20343019301A94FF4C0
:1013F0000060C4F2010005F09CFD21464FF48840D6
:10140000C4F2000006F043FA01214FF48840C4F210
:10141000000006F098FA012082E7F8B507460E466C
:1014200000244FF48845C4F20005A64200D8F8BD58
:10143000395D284606F0A9FA8021284606F0ADFA63
:101440000028F9D00134F0E770B541F63913C2F243
:1014500000030021197041F63813C2F200031A7814
:10146000012A1C4612D041F63412C2F2000213685F
:10147000B3F5006F08BF1160116841F63013C2F276
:1014800000031B68994202D10023237070BD8CBFFA
:10149000C1F500635B1A41F62C10C2F20000402B2C
:1014A0001AD901F140051560403B03604026012533
:1014B000257041F22C13C2F2000388B23246C021DB
:1014C000184407F052F83146284607F0C6FA284675
:1014D000BDE8704007F02BB99EB20B4413600023A7
:1014E0000360E4E710B540F20413C2F200039B79F5
:1014F000072B41F63014C2F2000415D14FF4884096
:10150000C4F2000006F045FA41F22C13C2F20003C7
:10151000226800F07F00985423680133B3F5006F10
:1015200008BF0023236010BD082BF5D14FF488407D
:10153000C4F2000006F02DFA41F22C13C2F20003AF
:101540002268E8E708B540F225514FF48840C4F21C
:10155000000006F028FA08B1FFF7C4FF08214FF495
:101560008840C4F2000006F018FA38B14FF4884001
:10157000C4F20000BDE8084006F00BBA08BD07B58C
:10158000FFF707F94FF47A70FEF7B0FF00F084FD23
:101590004CF63471C0F6000141F67450C2F20000FE
:1015A00000F051FE41F67450C2F2000000F05BFE04
:1015B00000F057FD01234CF60F72C0F60002002127
:1015C000084600F0BDFCFFF716F90020FFF731F9DF
:1015D000FFF724F94FF4C06005F051FC4FF48A7313
:1015E000C0F20013019301A805F053FC2623ADF8C7
:1015F000043001A805F04DFC06F08BFE0120FFF73A
:1016000018F942F22413C2F200031A68052AFCD129
:10161000FEE707B5FFF7BDF84FF47A70FEF766FFF7
:1016200000F03AFD4CF63471C0F6000141F67450FA
:10163000C2F2000000F007FE41F67450C2F2000052
:1016400000F011FE00F00DFD01234CF62172C0F6F2
:1016500000020021084600F073FCFFF7CCF80020E0
:10166000FFF7E7F8002004F0D1FCFFF7D7F84FF4BC
:10167000C06005F004FC4FF48A73C0F201130193BB
:1016800001A805F006FC40F21313C0F20013019309
:1016900001A805F0FEFB06F03CFE0120FFF7C9F8AB
:1016A00042F22413C2F200031A68052AFCD1FEE7B5
:1016B00073B50E4602285BD141F63C14C2F2000419
:1016C0004FF48843C4F2000323600121052005F094
:1016D000A3FD01214FF4003005F0ACFD0423C1F659
:1016E0000303009369464FF40060C4F2010005F063
:1016F00020FC0823C0F20343009369464FF40060C6
:10170000C4F2010005F015FC4FF4C06005F0B7FB12
:101710004FF49373C0F20213019301A805F0B9FBD3
:1017200041F65055C2F20005284606F002F92E6037
:101730002946206806F0ABF841F66052C2F200027A
:1017400041F64013C2F2000313600022C3F80424E0
:10175000C3F80024C3F80C24C3F80824012240F283
:101760002551206806F0FAF80121206806F0EBF810
:1017700002B070BDD0F80834D0F80C040133C3F3C4
:101780000803181A18BF0120704710B50246FFF76A
:10179000F1FF0446A8B1D2F8083472B6D01880F828
:1017A00000120133C3F30803C2F8083462B641F6ED
:1017B0003C13C2F20003012240F22771186806F0C0
:1017C000CDF8204610BD024672B6D0F80434C05C95
:1017D000C0B2D2F804340133C3F30803C2F80434AE
:1017E00062B6704710B5014641F66052C2F200027F
:1017F00014682046FFF7BEFF0028F9D02046BDE858
:101800001040FFF7C2BF41F66053C2F200031868F0
:10181000D0F80024D0F804349A4201D0FFF7D3BFA7
:101820000020704770B540F225514FF48840C4F253
:10183000000006F0B8F8E0B141F64014C2F200042E
:10184000D4F800540135C5F30805D4F804644FF406
:101850008840C4F2000006F09CF8C0B2B54224D122
:10186000002240F225514FF48840C4F2000006F0F7
:1018700075F84FF48844C4F2000440F22771204602
:1018800006F091F820B341F64013C2F20003D3F8FA
:101890000C24D3F8081491420DD1002240F2277194
:1018A0002046BDE8704006F059B8D4F80034E05442
:1018B000C4F80054DDE7D3F80C241A4492F800224F
:1018C000A280D3F80C240132C2F30802C3F80C241E
:1018D00070BD41F66453C2F200031B68184741F61D
:1018E0006053C2F200031B680022C3F80424C3F84B
:1018F000002441F63C13C2F20003012240F22551BC
:10190000186806F02BB841F66053C2F200031B685A
:10191000D3F80C24D3F80804831A5842584170476E
:1019200010B504460A2802D10D20FFF7F9FF41F651
:101930006853C2F200031A681AB1511C196014707E
:1019400010BD41F67053C2F200031B68002BF7D0A4
:10195000E0B2BDE81040184710B5441E14F9010F5D
:1019600000B910BDFFF7DCFFF8E72DE9F04F8BB0B1
:1019700002460D464FF00A0892F90000002800F0D8
:10198000E080252804D0541CFFF7CAFF2E4660E0F3
:1019900092F90130302B26D1D41C92F90230012269
:1019A0002A2B35D155F8047B14F9013B23F0200193
:1019B0004C2904BF42F0040214F9013B002B00F053
:1019C000C080602BC6BFA3F1200149B219464F2940
:1019D00057D01FDC43294BD0442900F0A380422973
:1019E0004DD102204EE02D2B19BF941C0022D41C97
:1019F00092F9023008BF0222D2E708FB0737303FD6
:101A000014F9013BA3F13001C9B20929F5D9CDE799
:101A10000027F7E7552900F08580582900F08480D9
:101A200053292CD12E4656F8049B0025691C19F920
:101A300005308BB902F0020B05F1010ABBF1000F72
:101A400002D1BD420AD355464846FFF785FFAF4253
:101A500009D8354622468FE70D46E7E72020FFF7F5
:101A60005FFF5546E8E72020FFF75AFF0135EEE714
:101A70002E4656F8040B40B2FFF752FFE9E718462E
:101A800082E708202E1D2D68442904D1002DBCBFFB
:101A90006D4242F010022946782B0CBF4FF0270B05
:101AA0004FF0070B0DF1080C0025E246B1FBF0FEEC
:101AB00000FB1E13092B88BF5B445BB205F10109D3
:101AC00030330CF8013B884204D87146B9F1200F3D
:101AD0002CD11F25D30606D50AAB99442D2309F82E
:101AE000203C05F1020912F0010F14BF3021202122
:101AF000CB4602F002050BF1010315B9BB4517D324
:101B00009B4609F1FF391AF90900FFF709FFB9F1FE
:101B1000000FF6D15F459CD92020FFF701FF0BF1A4
:101B2000010BF7E70A20ADE71020ABE74D46BDE714
:101B3000019308460091FFF7F3FE019B9B46009935
:101B4000D9E70BB0BDE8F08F0FB407B504A951F881
:101B5000040B0191FFF709FF03B05DF804EB04B03B
:101B600070470EB417B505A951F8043B41F6685407
:101B7000C2F20004206001911846FFF7F6FE2268C9
:101B800000231370236003B0BDE8104003B070471A
:101B900070B596B001214FF4807005F02FFB012144
:101BA00040F2E11005F038FB4FF4FF43C1F60303A8
:101BB000079307A94FF4C050C4F2010005F0B9F92A
:101BC0001025ADF81C504FF4A054C4F2010407A92D
:101BD000204605F0AEF92023ADF81C3007A92046B9
:101BE00005F0A7F94FF40063ADF81C3007A92046B3
:101BF00005F09FF94023ADF81C308DF81F5007A960
:101C0000204605F096F98023ADF81C3007A9204640
:101C100005F08FF94FF48076ADF81C604FF4406406
:101C2000C4F2010407A9204605F083F93146204695
:101C300005F0D2F90223CDE9003302930523039383
:101C4000CDE9043300230424CDE906340893099335
:101C50000A950B930C930D930E930F934FF48052B0
:101C60001092119312931393CDF850D0CDF854D015
:101C700007A805F0B5F90121204605F016FA16B0BF
:101C800070BD0B460A46014600F0CAB92DE9F04F77
:101C900085B081460D469B4641F68056C2F200064D
:101CA000336893F809804FEAD80A08F007030093D5
:101CB0001078537843EA002000F0E6FA044609EB76
:101CC000CA039BB202934FF0000833689B7A4345E6
:101CD00036DD04EB0A0301934F4614E0002321781C
:101CE00099400A0609D5F8180393294680B2FFF7F0
:101CF000C8FF584600F08BF9039B0133082BEED147
:101D000001340837BFB2019B9C42E7D10027009BFA
:101D10009F4206DB03B1013408F101080135ADB281
:101D2000D3E72378BB401B0608D5029BD819294668
:101D300080B2FFF7A6FF584600F069F90137E6E7E1
:101D400005B0BDE8F08F2DE9F04F85B081460D4616
:101D50009B4641F67C56C2F20006336893F8058034
:101D60004FEAD80A08F007030093104600F081FA02
:101D7000044609EBCA039BB202934FF00008336894
:101D80009B79984536DA04EB0A0301934F4614E039
:101D90000023217899400A0609D5F81803932946AB
:101DA00080B2FFF76EFF584600F031F9039B013314
:101DB000082BEED101340837BFB2019B9C42E7D11A
:101DC0000027009BBB4206DC03B1013408F1010887
:101DD0000135ADB2D3E72378BB401B0608D5029B83
:101DE000D819294680B2FFF74CFF584600F00FF98A
:101DF0000137E6E705B0BDE8F08F2DE9F74F07465C
:101E00008B469846BDF8309041F68055C2F20005E9
:101E10002B685E7A4FEAD60A06F0070610785378E8
:101E200043EA002000F030FA04462A68937A5B44C3
:101E3000507A3844013B5A46411E384600F0F0F8CB
:101E40004FF0000B2B689B7A5B4526DD04EB0A0202
:101E50000EE001922378BB4013F0800F14BF404680
:101E6000484600F0D4F80137082F019AF1D1013427
:101E700000279442EDD1B74204DB06B101340BF1E7
:101E8000010BDFE72378BB4013F0800F14BF4046FF
:101E9000484600F0BCF80137EDE703B0BDE8F08F2D
:101EA0002DE9F74F07468B469846BDF8309041F62E
:101EB0007C55C2F200052B685E794FEAD60A06F01F
:101EC0000706107800F0D5F904462A6893795B4438
:101ED00050793844013B5A46411E384600F0A0F87C
:101EE0004FF0000B2B689B795B4526DD04EB0A0263
:101EF0000EE001922378BB4013F0800F14BF4046E0
:101F0000484600F084F80137082F019AF1D10134D6
:101F100000279442EDD1B74204DB06B101340BF146
:101F2000010BDFE72378BB4013F0800F14BF40465E
:101F3000484600F06CF80137EDE703B0BDE8F08FDC
:101F40002DE9F34704460E4615469A4640F220070F
:101F5000C2F2000741F68058C2F2000841F67C59EF
:101F6000C2F200092A781AB9012002B0BDE8F08750
:101F70007F2C34D89F2E32D839680B8882F08000AD
:101F80001F2801D9DF2A16D9BAF1000F0BD12A4632
:101F900031462046FFF77AFE0235D8F800305B7AEA
:101FA0001C44A4B2DEE74A8800922A463146204605
:101FB000FFF723FFF0E7BAF1000F08D131462046C2
:101FC000FFF7C1FE0135D9F800305B79E8E74A88B0
:101FD00000922A4631462046FFF762FFF2E70020D2
:101FE000C3E738B54FF4A054C4F20104402525617D
:101FF0006420FEF7C8FA6561802363616420FEF700
:10200000C2FA25616420BDE83840FEF7BCBA020977
:102010000023C6F602031A80000180B218807047C0
:1020200070B54FF0D0464FF4287434800024C6F6C3
:10203000020400252580C0B2000120802580C9B29D
:10204000090121804FF42C7131802580D2B2120118
:1020500022802580DBB21B0123804FF43073338054
:1020600070BD07B59F2300227F211046FFF7D8FFE0
:102070004FF4A04301930022C6F6020240F6FF701F
:102080004FF6F07110801180019B013B0193002BF2
:10209000F8D103B05DF804FB2DE9F843FFF778FDB4
:1020A000FFF79FFF4FF0D04410252580B420FEF7A6
:1020B0006AFA4FF4807323806420FEF764FA4FF4C9
:1020C000887323809620FEF75EFA4FF431632380F5
:1020D0000023C6F6020360261E80302018802022CE
:1020E0001A804FF43461218018804FF436612180CA
:1020F0001A804FF0E00EA3F800E04FF475612180E4
:102100004FF4D07119804FF4406CA4F800C01A80CD
:10211000002119804FF44167278050271F804FF41A
:10212000426727801A801A804FF4436727801D80FA
:102130001A804FF4446727801D801A804FF445674A
:1021400027804FF48E671F804FF468771F804FF40D
:102150007268A4F800801A804FF47668A4F80080B2
:102160004FF49868A3F800804FF47868A4F80080D2
:102170001E804FF46068A4F800801E804FF4E07861
:10218000A3F800804FF4F878A3F80080A3F800804B
:102190004FF4C078A3F800804FF49879A3F800902A
:1021A0001E801880188040201880702018801880A9
:1021B00019804FF461662680A0261E804FF4A07619
:1021C0001E804FF4D8761E80A3F800804FF49076DE
:1021D0001E80A3F800E01A801D8019801D808022D7
:1021E0001A80188019804FF458722280A3F800C01A
:1021F00027804FF4AA621A804FF45472228019800B
:10220000FFF72FFF4FF4247323801420BDE8F84319
:10221000FEF7B9B930B541F68053C2F20003196830
:10222000CC7A00239C4203DC4FF0FF33184630BDCC
:102230000A6802EB8302558A854202D8928A82425A
:10224000F4D20133EEE701608B7B4371CA7B82716C
:1022500013F0070F4FEAD30314BF03FB02235343CA
:10226000DBB20371704741F67C53C2F20003186081
:10227000704741F67C53C2F200031A681379584341
:10228000113013681844704710B50446FFF7C2FFB9
:10229000431C05D148F2A010FFF7BCFF48F2A01480
:1022A00041F68053C2F200031B681A6802EB8002F9
:1022B000528AA41A03EB400080890444187A5B68B0
:1022C00000FB043010BD8378C27843EA02224378D1
:1022D00043EA0223007840EA0320704701700B0AAA
:1022E00043700B0C8370090EC1707047024400F8F4
:1022F000011B9042FBD1704702398369023B8B423C
:1023000083BF4389C06A01FB03000020704710B5FA
:10231000026852B1134613F9011BCCB2202C0ED91E
:102320003A29F8D1911C8B4202D04FF0FF3005E0E2
:1023300092F90020302AF8D10360002010BD41F648
:102340008453C2F200031878F8E738B50D46044606
:1023500018B9092000232B6038BD0368002BF8D082
:102360001A78002AF5D08188DA889142F1D158781C
:1023700002F0B3FF10F00100EBD12368EBE7013866
:102380000A4411F8013B00F8013F9142F9D170472E
:10239000802808D99F2808D92030C0B21C288CBFBB
:1023A00000200120704700207047012070473F281F
:1023B00008D97E2808D980F080007C288CBF0020B6
:1023C000012070470020704701207047CA7E8B7E35
:1023D00043EA0223032801BF487D0A7D42EA002226
:1023E00043EA0243184670478A76C2F30723CB7646
:1023F0000378032B01BF120C0A75120A4A75704745
:1024000070B50446C37813B90025284670BD00F1A5
:1024100034060123026B3146407802F0B9FF0546CD
:1024200080B9E070216BE269636ACB1A9342EBD208
:10243000A378022BE8D101230A443146607802F0E8
:10244000A7FFE2E70125E0E738B505460C46036B38
:102450008B4214D0FFF7D4FF034670B90123224604
:1024600005F13401687802F04CFF034600280EBFE6
:10247000034601234FF0FF342C63184638BD002378
:10248000FBE770B504460023C3704FF0FF330363CE
:10249000FFF7DAFF002851D194F8332294F8320282
:1024A00040EA022294F83430EB2B03D01833DBB22D
:1024B000012B39D84AF655239A4210D104F18601EE
:1024C00004F18E054DF64813C0F6000311F8010B18
:1024D00013F8016B801BA9422DD00028F6D094F888
:1024E000401094F83F3043EA0123591E19421BD192
:1024F000B3F5007F18D194F84100A8B1431E1840ED
:1025000012D194F84430013B012B0DD894F84610B9
:1025100094F8453053EA012306D094F84B1094F810
:102520004A3053EA012308D14AF6552082420CBFB3
:102530000220032001E00028D1D170BD0420FCE777
:102540002DE9F04705460C461746012972D98369E3
:102550008B426FD90378022B3FD0032B50D0012B35
:1025600068D101EB5108416A01EB5821FFF76CFF7C
:10257000064638BB05F1340908F1010AC8F308081A
:1025800014F001041FBF19F8083003F00F023B01DB
:1025900003F0F00314BF1343FBB209F80830012322
:1025A000EB70696A01EB5A212846FFF74DFF06469A
:1025B00040B9CAF3080A44B1C7F3071709F80A700B
:1025C0000123EB703046BDE8F08719F80A3023F09C
:1025D0000F03C7F303271F43F0E7416A01EB142100
:1025E000FFF732FF06460028ECD105F13403640002
:1025F00004F4FF741A191F55C7F307275770DFE754
:10260000416A01EBD411FFF71FFF06460028D9D11C
:1026100005F13403A40004F4FE741C442046FFF7C3
:1026200052FE27F0704700F0704139432046FFF713
:1026300055FEC5E70226C5E7F8B505460C46012953
:1026400052D9836999424FD20378022B29D0032BA8
:1026500038D0012B48D101EB5106416A01EB5621DC
:10266000FFF7F2FE10B14FF0FF30F8BD771CC6F354
:1026700008062E4496F83460696A01EB5721284613
:10268000FFF7E2FE0028EED1C7F308073D4495F8B6
:10269000340046EA0020E3074CBF0009C0F30B00FA
:1026A000E3E7416A01EB1421FFF7CEFE0028DAD1FF
:1026B0003435640004F4FF742B195B78285D40EA1C
:1026C0000320D2E7416A01EBD411FFF7BDFE0028D9
:1026D000C9D105F13400A40004F4FE742044FFF7CE
:1026E000F2FD20F07040C0E70120BEE7F8B50546D6
:1026F0000E46046829618268DAB92378022B01D971
:10270000A36AABB92389B3EB561F01D80220F8BDE9
:10271000A36AAB616A61AB69002BF7D003EB562368
:10272000AB613434C6F308063444EC610020EEE7B4
:102730001A4667897F021146BE4204D22046FFF73F
:10274000DBFDA861E6E72868FFF776FF0246431C39
:1027500006D00128DAD9A3698342D7D9F61BEAE764
:102760000120D4E72DE9F041804605680F4649B9BC
:10277000EE68C6B1AB69B34298BF01262B69A3B915
:10278000002406E02846FFF757FF0446012803D837
:1027900001242046BDE8F081421C51D0AB69834240
:1027A000F7D83E46EAE70126E8E7BE4215D1741C99
:1027B000AB69A34298BF02242146D8F80000FFF776
:1027C0003BFF0128E4D0431C3AD0D8B1EB68012B81
:1027D00003D9AA69934238BF1E4634460134AB6917
:1027E000A34202D8012ECBD902242146D8F80000FA
:1027F000FFF722FF40B10128CAD0013020D0B442F7
:10280000ECD1BDE7002CE8D04FF0FF32214628463E
:10281000FFF796FE90B957B9EC602B69AA69023AA6
:10282000934210D92B7943F001032B71B1E7224673
:1028300039462846FFF784FE0028EDD00128A7D1AD
:102840004FF0FF34A5E7013B2B61EBE7F8B50746F6
:102850000D4611460468012D2BD9A369AB4228D936
:102860002AB14FF0FF322046FFF76AFE30B9294601
:102870003868FFF7E1FE064608B90020F8BD0128D8
:1028800017D0431C17D0002229462046FFF758FED8
:102890000028F3D12369A269911E8B4205D201332E
:1028A0002361237943F0010323713546B242DED818
:1028B000E3E70220E2E70120E0E7F8B505460E462F
:1028C000FFF79EFD0446F8B931462846FFF714FD90
:1028D0000746286305F134064FF40072214630465E
:1028E000FFF704FD6B899C4204D36889001B18BF65
:1028F0000120F8BD01233A193146687802F048FDFD
:102900000028F2D10134EDE70120F2E72DE9F84388
:1029100004468946056807692037B7F5001F24BFBC
:1029200000238361836973B1C7F30808B8F1000F0E
:1029300039D101338361416939B92B89B3EB571F11
:1029400031D80023A36104200BE06B89013B13EA1B
:10295000572328D12846FFF76FFE0646012802D8E4
:102960000220BDE8F883421C01D10120F9E7AB69E0
:10297000834212D8B9F1000FE3D061692046FFF716
:10298000F1FE0646A8B10128EAD0431CEDD001466D
:102990002846FFF792FF0028E7D1666131462846B6
:1029A000FFF7AAFCA061276134354544E5610020AA
:1029B000D7E70720D5E7F8B50446FFF721FD054620
:1029C000002842D12378032B37D12779012F34D126
:1029D00004F134064FF4007201463046FFF786FCDE
:1029E000552384F83232AA2384F83332522384F8F0
:1029F000343084F83530612384F83630412284F84D
:102A00003720722184F8181284F8191284F81A22D7
:102A100084F81B32216904F50770FFF75FFCE16859
:102A200004F50870FFF75AFC226A013222633B4624
:102A30003146607802F0ACFC2571002211466078C6
:102A400002F0EEFC003018BF0120F8BD2DE9F04384
:102A500085B00F46154600230B60FFF758FC061E95
:102A6000C0F2418141F68853C2F2000353F8264078
:102A7000002C00F03A813C6005F0FE0523786BB134
:102A8000607802F02AFCC10708D41DB110F00405DB
:102A900000D00A25284605B0BDE8F0830023237046
:102AA000F0B2607002F009FCC20700F120810DB1A4
:102AB0004307EED400212046FFF7E3FC022840F054
:102AC000FA8004F5FD716E4604F23A273546084651
:102AD000FFF7F9FB45F8040B10318F42F7D10025C1
:102AE00056F8041B002900F0DD802046FFF7C9FCE2
:102AF000012800F2D88094F8402094F83F3043EA4F
:102B00000223B3F5007F40F0DB8094F84B3094F85B
:102B10004A6056EA032604D104F15800FFF7D3FBBC
:102B20000646216BE66194F84450A5706B1E012B9C
:102B300000F2C68094F841901FFA89F36381002B5C
:102B400000F0BE8009F1FF3313EA090F40F0B880AE
:102B500094F8463094F8457047EA03273FB21FFACD
:102B600087F8A4F8088018F00F0F40F0A98094F8B7
:102B7000483094F8470050EA032003D104F1540090
:102B8000FFF7A1FB94F8432094F8423053EA022364
:102B900000F0968006FB05FC03EB1812624490429D
:102BA000C0F08E80801AB0FBF9F54845C0F08880EF
:102BB0004FF6F570C0F6FF70854200F281804FF647
:102BC000F570854240F295804FF003090235A5610A
:102BD00021620B4463620A44E262B9F1030F71D1CE
:102BE00094F85F2094F85E3043EA02231F433FB21B
:102BF000002F65D104F16000FFF765FBA062AD0016
:102C000005F2FF15B6EB552F5AD34FF0FF33236172
:102C1000E36080232371B9F1030F35D194F8652067
:102C200094F8643043EA0223012B2DD10131204670
:102C3000FFF70AFC40BB207194F8332294F832323B
:102C400043EA02234AF6552293421DD104F134008F
:102C5000FFF739FB45F25223C4F26113984213D1B6
:102C600004F50670FFF72FFB47F27223C6F24113FB
:102C7000984209D104F50770FFF725FB206104F5A0
:102C80000870FFF720FBE06084F8009041F68C525A
:102C9000C2F20002138801339BB21380E380002547
:102CA0006561F7E603200135042D7FF419AF042890
:102CB00006D10125EEE60428FBD001287FF61BAFE4
:102CC0000D25E7E6B8F1000FFAD06344A362B9F12D
:102CD000020F4FEA45030FBF1D465B1905F00105C2
:102CE00005EB53058CE70B25D4E60C25D2E603252E
:102CF000D0E640F6F5794D458CBF4FF002094FF014
:102D0000010963E738B5044605680021FFF7EEFCCA
:102D100070B9A1692846FFF797FB48B9E3691B78AA
:102D2000E52B08D03BB101212046FFF7EFFDEFE78F
:102D3000042808BF072038BD70B505460668FFF7B0
:102D4000E1FF044690B9A9693046FFF77DFB0446D0
:102D500060B920220146E869FFF7C8FA0B2205F1A5
:102D60002001E869FFF70BFB0123F370204670BDDB
:102D70002DE9F04704460D46076891F900302F2BE6
:102D800001D05C2B0AD12A46154692F90030013257
:102D90002F2BF9D05C2BF7D0002300E07B69A360D8
:102DA0002B781F2B4BD904F120060B222021304613
:102DB000FFF79CFA95F900302E2B52D184F8203081
:102DC0006B782E2B44D184F82130AB782E2B00F079
:102DD000928003222F2B3DD11544202384F82B30E1
:102DE000D4F8008000212046FFF780FC002840F046
:102DF0008F80A1694046FFF727FB002840F08880BC
:102E0000E3691A78002A00F09580DA7A02F03F022E
:102E1000A271D87A10F008000CD103F10B0C3146E6
:102E200013F8012B11F801EBA2EB0E0263456DD0F4
:102E3000002AF5D000212046FFF768FDD6E7802361
:102E400084F82B3000212046BDE8F047FFF74EBC48
:102E50000222BFE75C2BBFD0202B4CD81544242383
:102E6000BCE7002290464FF008091CE0013124E045
:102E70002E2B77D091453ED91846FFF789FA78B3C3
:102E800008F1020815F801A05046FFF790FA90B338
:102E900009F1FF318A422ED2511CB35406F801A029
:102EA00002324146884608F1010115F80830202B0E
:102EB00008D92F2B01D05C2BDAD168562F28D5D01A
:102EC0005C28D3D00D44B2B194F82020E52A04BF89
:102ED000052284F82020212B34BF042300237DE722
:102EE0004DF65110C0F6000010F901CBBCF1000FF7
:102EF00003D06345F8D106201AE0A3F16100192838
:102F00009CBF203BDBB2B3540132CBE7002A91D106
:102F100094F82B30A0B104280AD103F004029906DA
:102F20000AD5002A3FF441AF802384F82B300020DB
:102F3000BDE8F0870420EBE7002A08BF0520F7E78B
:102F40005A07F5D4A379DB060AD507F134012369C2
:102F5000C3F3080319443878FFF738FAA06024E770
:102F60000520E5E7B9F10B0FC5D008224FF00B099A
:102F700098E71FB5019000911446039103A8FFF74D
:102F8000C6F9002819DB41F68853C2F2000353F852
:102F900020200AB100211170019A0AB1002111709C
:102FA000019A43F820202CB1002201A96846FFF7BE
:102FB0004DFD0446204604B010BD0B24FAE7F0B5E1
:102FC00091B0019116460446002800F0BE8002F040
:102FD0003F052A4603A901A8FFF738FD002840F065
:102FE000AC80039B0493019904A8FFF7C1FE02463D
:102FF00020B99DF93B30002BB8BF062216F01C0FFC
:103000006BD0002A3DD0042A38D104A8FFF794FEE3
:103010000246002832D145F008050B9F3946039B34
:103020001878FFF7D3F90646FDF716FF014607F1BA
:103030000E00FFF753F90B9B2022DA7200220B9946
:103040000398FFF7D1F90B9B00221A775A779A77EA
:10305000DA77039B0121D970E6B1039B1F6B3146E0
:1030600004A8FFF7F3FB024640B939460398FFF77F
:10307000EBF9013E039BDE60024658B1002323605A
:1030800028E09DF8163013F0110F30D1720756D496
:103090003307C2D4290748BF45F04005039E336B70
:1030A00023620B9F676239463078FFF78FF901463C
:1030B000A06007F11C00FFF706F90746E0602660F4
:1030C000F388A380257400236374E3616361AA0617
:1030D0000FD40022104611B0F0BD002ACED19DF8C9
:1030E0001630DF062DD4B607D4D5D807D2D507229F
:1030F000C4E70028EDD0606175896D02BD420FD331
:103100000022A161002AB9D1C7F30803002BE0D047
:103110000398FFF7F1F8B0B100EB5720E061D9E771
:103120002068FFF789FA01467F1B012803D9431C59
:10313000E4D10122E5E70222E3E702469EE7082206
:103140009CE704229AE7022298E70922C2E72DE9C8
:10315000F04F85B00446894617469B460023CBF8BE
:10316000003003A9FFF7F1F8064610BB667C06BBEA
:10317000237C9A0740F1A6806369FB4200D3DF43BA
:103180009FB16369C3F30802002A7ED1039A528972
:10319000013A12EA532201921ED173B9A06870B9A4
:1031A00001462046FFF7DEFA48B9237C43F040038E
:1031B0002374304605B0BDE8F08FA169F1E701281E
:1031C00002D102266674F4E7431C01D10126F9E717
:1031D000A061A36803B9A0600398026BE3699A42F7
:1031E00003D1FFF70DF90028F0D1DDF80CA0A1699B
:1031F0005046FFF781F80028E3D0019B03EB00085D
:10320000B7F5007F33D37D0ABAF80A30019A2A4411
:103210009A4284BF019A9D1A2B46424649469AF823
:10322000010002F0B5F882460028CFD10398016B67
:10323000A1EB0801A94209D24FF4007209EB412128
:103240003430FFF79CF8039B83F803A06D027F1BCB
:10325000DBF800302B44CBF80030A94463691D44EF
:103260006561E368AB422CBFE360E56088E76269B3
:10327000E3689A4207D35046FFF7C2F80028A5D169
:10328000039BC3F83080C4F81C806569C5F308054A
:10329000C5F50075BD4228BF3D46E1690398FFF7BB
:1032A000D3F8002892D1039834306369C3F308033C
:1032B0002A4649461844FFF762F8039B4FF0010283
:1032C000DA70C4E7072674E7F7B5054601A9FFF7EA
:1032D0003CF8044668BB2C7C14F0400429D0FDF770
:1032E000BBFD0746296A0198FFF7AEF8044600BB0C
:1032F0006E6AF37A43F02003F372AA6831462868B5
:10330000FFF772F8E96806F11C00FEF7E7FF39469F
:1033100006F11600FEF7E2FFB474F474019B01227B
:10332000DA700198FFF747FB04462B7C23F040033B
:103330002B74204603B0F0BD13B50446FFF7C4FF5D
:1033400028B901A92046FFF700F800B9206002B0B3
:1033500010BD2DE9F34104460D4601A9FEF7F5FF26
:10336000064600284FD1667C002E4CD1E368AB4264
:1033700004D2227C12F0020F08BF1D4663690022AE
:10338000626195B900256369E268934281BFE36099
:10339000227C42F040022274C3F30803002B32D097
:1033A000E369AB4218BFE5612DE0019A57897F02BE
:1033B000FBB1013B6A1EB2FBF7F2B3FBF7F18A42A5
:1033C00017D37A4213406361ED1AA1690029D9D05D
:1033D0006369BD4222D863692B446361C5F3080366
:1033E000002BCFD00198FEF787FF50B100EB552599
:1033F000C9E7A16881B92046FFF7B4F90146012861
:1034000005D102266674304602B0BDE8F081013075
:1034100001D10126F6E7A160A161D7E7A5EB070876
:103420003B446361237C9A0706D52046FFF79AF94F
:10343000054628B90146CEE72068FFF7FDF80546A6
:103440006B1CE6D0012DDCD9019B9B69AB42D8D91E
:10345000A56129464546BBE7F0B58BB0074640F667
:103460009C46C2F200066846FDF7CBFB35466C462B
:103470000FCC0FC50FCC0FC523682B603368FB71D1
:103480007368BB71B3687B71F368FB703369013398
:10349000BB7073693B8001200BB0F0BD10B54FF4D9
:1034A0008034802004F0DBF928B140F2FF5004F0B2
:1034B000E0F9002002E0013CF3D1032010BD10B57B
:1034C0004FF40043C4F201035C6B14F0450FFBD0D2
:1034D00014F0040404D0042004F0CBF9032010BD40
:1034E00040F2FF5004F0C5F92046F8E710B54FF45C
:1034F0000043C4F201035C6B14F0450FFBD063077B
:1035000004D5042004F0B5F9032010BD14F0010423
:1035100004D0012004F0ADF90120F6E740F2FF509D
:1035200004F0A7F92046F0E737B5054600230093DD
:10353000019341F66460C2F2000041F6C052C2F24B
:1035400000021268120402600D2242604022826072
:10355000C3604FF48063036104F03AF94FF4004311
:10356000C4F201035A6B0192019A12F0450FF9D08F
:10357000019B590705D5042004F07BF9032003B013
:1035800030BD019C14F0010404D0012004F071F955
:103590000120F4E704F032F90190019B0D2B01D0DA
:1035A0001020ECE740F2FF5004F063F9204604F0ED
:1035B0002CF90090009BC3F343232B70009B4EF229
:1035C0000800CFF6FF5018400028D8D0009B002BF1
:1035D00039DB009B5A0038D4009B9B0037D4009BFA
:1035E000DD0036D4009B1C0135D4009B590134D436
:1035F000009BDA0133D4009B1B0232D4009B5D0296
:10360000CED4009B9C022ED4009BD9022DD4009BCB
:103610001A032CD4009B5B032BD4009B9D032AD45C
:10362000009BDC0329D4009B190428D4009B5A0476
:1036300027D4009B9B0426D4009B13F0080F0CBFDB
:1036400000201A209BE71C2099E7092097E70A2011
:1036500095E70B2093E70C2091E70D208FE70E20D4
:103660008DE70F208BE7112089E7122087E71320D1
:1036700085E7142083E7152081E716207FE71720D0
:103680007DE718207BE7192079E770B506460D46DF
:103690004FF47040C1F2000003F064FF40F2444474
:1036A000C4F202040021204603F044FF41F63861D1
:1036B000C2F200014E6000238B60AD08CD60204651
:1036C00003F01AFF01212046BDE8704003F032BF2D
:1036D00070B506460D464FF47040C1F2000003F08D
:1036E00041FF40F24444C4F202040021204603F0AA
:1036F00021FF41F63861C2F200014E6010238B6059
:10370000AD08CD60204603F0F7FE01212046BDE85C
:10371000704003F00FBF38B505464FF40043C4F2C4
:1037200001035C6B14F0450FFBD0610704D5042046
:1037300004F09FF8032038BD14F0010404D00120E8
:1037400004F097F80120F6E704F058F8A84201D0F9
:103750001020F0E740F2FF5004F08BF8204604F010
:1037600054F84EF20803CFF6FF5303404BB3002842
:1037700029DB420029D4830029D4C50029D40401BF
:1037800029D4410129D4C20129D4030229D44502F4
:10379000DED4840227D4C10227D4020327D44303F2
:1037A00027D4850327D4C40327D4010427D4420493
:1037B00027D4830427D410F0080F0CBF00201A2050
:1037C000B9E71846B7E71C20B5E70920B3E70A2098
:1037D000B1E70B20AFE70C20ADE70D20ABE70E20E3
:1037E000A9E70F20A7E71120A5E71220A3E71320E0
:1037F000A1E714209FE715209DE716209BE71720DF
:1038000099E7182097E7192095E72DE9F347074630
:103810000023CDE9003341F66464C2F200044FF0A6
:10382000080AC4F800A0102565604FF04009C4F8EC
:103830000890E3604FF48068C4F81080204603F0DD
:10384000C7FF2846FFF767FF0546002849D141F624
:10385000C053C2F200031B681B0423603725656058
:10386000C4F80890E060C4F81080204603F0B0FF70
:103870002846FFF750FF0646054690BB41F67860A4
:10388000C2F200006FF07F43C0E9003A302383604A
:103890000223C36006610123436103F0C3FF266076
:1038A00033256560C4F80890E660C4F810802046AF
:1038B00003F08EFF2846FFF72EFF054688B96D46B8
:1038C0004FF40044C4F2010440F22A66636B3342B1
:1038D0000BD0082003F0C3FF90B1082003F0C9FF0C
:1038E0000425284602B0BDE8F0874FF4001003F02D
:1038F000B6FF0028EAD003F0ABFF45F8040BE5E77C
:10390000022003F0ACFF20B1022003F0B2FF022539
:10391000E7E7202003F0A3FF20B1202003F0A9FF58
:103920000625DEE74FF4007003F099FF054628B145
:103930004FF4007003F09DFF0725D2E740F2FF50DF
:1039400003F097FF009B1BBA7B60019B1BBA3B6097
:10395000C7E7F7B504460020CDE9000003F055FFA6
:10396000810157D46846FFF750FF41F6C453C2F2B5
:103970000003009A1A60019A5A6050BB012C2AD1A8
:10398000520349D541F66464C2F2000441F6C053C3
:10399000C2F200031B681B042360372565604027C3
:1039A000A760E0604FF480662661204603F010FFB8
:1039B0002846FFF7B0FE60B9022323600625656044
:1039C000A760E0602661204603F002FF2846FFF76B
:1039D000A2FE03B0F0BDD3031ED541F66464C2F26B
:1039E000000441F6C053C2F200031B681B042360AD
:1039F000372565604027A760E0604FF48066266148
:103A0000204603F0E5FE2846FFF785FE0028E0D1BA
:103A10002060D3E70E20DCE72520DAE72DE9F34725
:103A200000258DF8075041F69060C2F20000B223E5
:103A30000375056045608560C560056103F089FE1A
:103A4000032003F0A3FE012003F09BFE4FF4FA6075
:103A5000FCF7A6FD41F66464C2F2000425606560CF
:103A6000A560E5604FF480662661204603F0B0FE55
:103A7000FFF714FD8DF807009DF8073003F0FF05F0
:103A80002BB19DF80700C0B202B0BDE8F0874FF43B
:103A9000D5732360082363604023A360E56026613B
:103AA000204603F095FE4FF40043C4F201035A6B25
:103AB0004FF4803112F0450F40F0828000297CD114
:103AC000042003F0D6FE03258DF807509DF807303B
:103AD000002B40F0828041F6B053C2F20003012275
:103AE0001A604FF0804500264FF03708C4E900689F
:103AF0004023A360E6604FF48067276141F664606D
:103B0000C2F2000003F064FE4046FFF704FE8DF8A9
:103B100007009DF8073003F0FF02002B40F0838080
:103B2000164641F66467C2F2000745F0114545F4B8
:103B3000801500234FF0370AC4E9003A4FF04009DE
:103B4000C4F80890E3604FF48068C4F810803846E9
:103B500003F03EFE5046FFF7DEFD8DF807009DF8AE
:103B6000073003F0FF02002B8BD12560292363600F
:103B7000C4F80890E260C4F81080384603F028FECC
:103B8000FFF79DFC8DF807009DF8073003F0FF005C
:103B9000002B7FF476AF03F038FE41F6BC53C2F23F
:103BA00000031860013600284FF6FF732FDB9E429A
:103BB000BFD11B238DF8073063E701395A6B79E7D2
:103BC00000293FF47DAF51073FF57AAF53067FF5EB
:103BD0007BAF402003F04DFE76E700232360636057
:103BE000A360E3604FF48063236141F66460C2F236
:103BF000000003F0EDFDFFF751FC8DF807009DF884
:103C0000073003F0FF05002B3FF46DAF39E79E420C
:103C1000CFD047007FF535AF41F6B053C2F2000375
:103C200002221A602DE74FF0F033C4E90036A66097
:103C3000E660276141F66460C2F2000003F0C8FD4F
:103C4000FFF72CFC8DF807009DF8072002F0FF031A
:103C5000002A7FF416AF23606360A360E3602761EE
:103C600041F66460C2F2000003F0B2FDFFF716FCFB
:103C70008DF807009DF8073003F0FF07002B7FF455
:103C800000AF4FF4004ACCF2FF0A41F6BC58C2F232
:103C90000008C4F800A0012363604023A360002350
:103CA000E3604FF48063236141F66460C2F2000078
:103CB00003F08EFDFFF703FC8DF807009DF8073039
:103CC00003F0FF09002B7FF4DCAE484603F09DFDB6
:103CD0000546C8F80000C60F013741F28830FCF7EE
:103CE0005FFC4FF6FF739EBB9F42D2D14FF4004959
:103CF000C8F2FF094FF0010A41F66467C2F20007FB
:103D0000C4E9009A4023A3600023E3604FF480637A
:103D10002361384603F05CFDFFF7D1FB8DF8070007
:103D20009DF8073003F0FF00002B7FF4AAAE03F0EC
:103D30006CFD0546C8F80000013641F28830FCF7FA
:103D40002FFC002D4FF6FF7306DB9E42D8D130E7E3
:103D50009F4204D14E46C9E79E423FF42AAF05F088
:103D6000C045B5F1804F41F6B053C2F200030CBF1D
:103D70000722032255E738B503F00EFD002800F0B6
:103D8000A98041F6B055C2F200052B68042B27D05C
:103D900041F66460C2F20000002303600222426028
:103DA000C0228260C3604FF48063036103F010FDA2
:103DB000FFF79CFB0446002868D103F026FD41F67E
:103DC0009054C2F200042060042003F01EFD6060E5
:103DD000082003F01AFDA0600C2003F016FDE0603F
:103DE0002B68032B34D9053B022B31D901232A68D8
:103DF000042A73D041F6C052C2F20002136041F6A9
:103E00006460C2F200001B04036009234360C02306
:103E100083600023C3604FF48063036103F0D8FC28
:103E2000FFF764FB044688BB03F0EFFC41F6A055A6
:103E3000C2F200052860042003F0E7FC6860082057
:103E400003F0E3FCA8600C2003F0DFFCE8601DE059
:103E500041F66460C2F20000002303600322426066
:103E600040228260C3604FF48063036103F0B0FCC2
:103E70004FF40043C4F201035C6B14F0450FFBD018
:103E8000600705D5042003F0F4FC0324204638BD68
:103E900014F0010404D0012003F0EBFC0124F5E749
:103EA00003F0ACFC032801D01024EFE740F2FF50F0
:103EB00003F0DFFC204603F0A8FC10F4604F01D1B2
:103EC000030C94E7810407D44204EDD403048DD598
:103ED0000F24DBE72524D9E71324D7E70024D5E70F
:103EE0002DE9F04141F6B053C2F20003196880F8A1
:103EF000561041F6C053C2F200031B68A0F85430BC
:103F000041F6A05CC2F2000CDCF800301C0EE2B2FC
:103F100095090570C4F38304447002F003028270B3
:103F2000C3F30742C270C3F307220271DBB24371CD
:103F3000DCF80440230E1B01C380C4F30743C2888E
:103F400042EA1312C28003F00F030372250AEAB299
:103F5000D3094372C5F380138372C5F34013C37250
:103F6000C5F30013037300234373DCF80830012901
:103F700000F2EA80AD0205F4406505610269A40023
:103F800004F47F74144304611C0EE2B2056945EA2F
:103F900092150561C4F3C204047502F0070242756C
:103FA0001A0CC2F342148475C2F38204C475520021
:103FB00002F006020276C3F30722047E44EAD2141A
:103FC0000476D0F81080057E90F808E0012404FA09
:103FD0000EFEC0F850E00235AC40E717A4FB0E45DA
:103FE0000EFB075508F1010EA4FB0E670EFB0577CB
:103FF000C0E91267C2F380144476520002F07E02D8
:104000008276DBB2827E42EAD312827603F07F03AD
:10401000C376DCF80C20130EDC090477C3F34114DB
:104020004477C3F3820484779B0003F00C03C377C7
:10403000140CE3B2C57F45EA9315C577C4F3401469
:1040400080F82040002480F8214003F0010380F82C
:104050002230130ADDB2EE0980F82360C3F3801624
:1040600080F82460C3F3401680F82560C3F300167F
:1040700080F82660C3F3810380F8273005F003053C
:1040800080F82850C2F3460380F82930012280F8D6
:104090002A20022900F2B08041F69051C2F20001BC
:1040A0000B681C0E80F82C40C3F307442402C4851F
:1040B000C58DC3F307242C43C4851B0603634B68DB
:1040C000046B1D0E44EA05440463056B1C0A04F4EA
:1040D0007F442C430463056BC3F307242C43046320
:1040E000DBB280F834308B681C0E80F835401C0C35
:1040F00024068463856B1C0204F47F042C438463D0
:10410000846B1B029BB223438363CB68816B41EAC0
:1041100013618163190C90F83C40C1F303152C43E3
:1041200080F83C40090201F47061C187C48FC3F379
:1041300007212143C187C3F3460380F8403080F84C
:1041400041200020BDE8F08102291ED1240404F49E
:104150007C14046102691C0E42EA042202610469B3
:10416000C3F3074222430261C3F307220469013407
:104170002CBF01250025ED0445EA5435E404C0E9CF
:1041800012454FF40074046534E703293FF4F2AE9E
:1041900007297FF42FAFAD0205F440650561026980
:1041A000A40004F47F74144304611C0EE2B2056998
:1041B00045EA92150561C4F3C204047502F00702D2
:1041C00042751A0CC2F342148475C2F38204C4759A
:1041D000520002F006020276C3F30722047E44EA8C
:1041E000D214047641F6D056C2F20006D6E9124542
:1041F000C0E91245346DC6E721F004010329A0D1BE
:1042000041F69051C2F200010B681D0E80F82C504F
:10421000C3F307452D02C585C68DC3F30725354376
:10422000C5851B0603634B68056B1E0E45EA0645F4
:104230000563066B1D0A05F47F4535430563056B71
:10424000C3F307232B43036380F834408B6890F853
:10425000344044EA136480F83440C3F3074480F8E0
:1042600035401C0A24068463846B1B0403F47F031B
:1042700023438363CB68816B1C0E41EA0421816375
:10428000846BC3F3074121438163190A0C0104F0D5
:10429000F004C487C48FC1F303114AE72DE9F84342
:1042A000064641F6B053C2F200031B6823F0040235
:1042B000032A02D0052B40F09180B6F5805F00F014
:1042C000A880B6F5006F77D141F6D053C2F2000353
:1042D0005B78032B64D9002003F097FA10F000708C
:1042E00003D00E242046BDE8F88341F66465C2F28F
:1042F00000054FF40063C0F2BB332B6006276F60EC
:104300004FF04009C5F80890E8604FF48068C5F8A0
:104310001080284603F05CFA41F28830FCF740F93F
:104320003846FFF7F8F904460028DBD14FF48073D4
:10433000C0F2B93385E88802E860C5F810802846E5
:1043400003F046FA41F28830FCF72AF93846FFF7C5
:10435000E2F904460028C5D14FF48073C0F2B733A8
:1043600085E88802E860C5F81080284603F030FA36
:1043700041F28830FCF714F93846FFF7CCF90446CF
:104380000028AFD141F69060C2F20000012303750E
:10439000046044608460C660046103F0DAF9A1E758
:1043A00041F69060C2F2000002230375002404600D
:1043B00044608460C460EFE7002003F026FA8301C4
:1043C0008FD43720FFF7A7F9044600288AD141F699
:1043D0009060C2F2000002230375E8E7022B16D8B2
:1043E000B0F5805F15D0B0F5006F03D10120FFF765
:1043F000B0FAC4E70020FFF7ACFA044600287FF4C7
:1044000071AF41F69060C2F200000123E4E700249E
:1044100068E7272466E710B541F66463C2F200033B
:10442000186007245C6040229A600022DA604FF432
:1044300080621A61184603F0CBF92046BDE81040AF
:10444000FFF769B92DE9F041ADF5067DFFF793FC63
:10445000014600286FD141F69060C2F200000123AE
:104460000375016041608160C160016103F071F911
:104470003123C0F20013019301A802F00AFD41F6B6
:10448000D054C2F200042046FFF72AFD014628B9A5
:10449000B4F854000004FFF7BEFF014641F6B053E4
:1044A000C2F200031B6823F00402032A02D0052B8A
:1044B00040F0A9806378032B40F2A58041F6786034
:1044C000C2F200006FF07F4303604FF4007343605B
:1044D000902383600223C3600025056101234361AB
:1044E00003F0A0F941F66460C2F2000005600826FE
:1044F000466040238360C5604FF48063036103F02E
:1045000067F93046FFF707F90146A0B909AD4FF446
:104510000047C4F2010740F22A68A5F11C067B6B34
:1045200013EA080F0CD0082003F099F9C0B1082055
:1045300003F09FF9042108460DF5067DBDE8F081E2
:104540004FF4004003F08BF90028E8D0A5F12006D5
:1045500003F07EF946F8040FB542F9D12035DCE7C7
:10456000022003F07CF920B1022003F082F902213D
:10457000E1E7202003F073F920B1202003F079F95E
:104580000621D8E74FF4007003F069F980BB06F10B
:104590008065043D4FF4001003F061F908B1AE42AC
:1045A0002CD140F2FF5003F064F9227A01239340AA
:1045B00023659DF8DF009DF8DE309DF8DD209DF835
:1045C000DC101B0443EA00630B4343EA0223DA0DC9
:1045D0005B02C4E912329DF8C82041F6B453C2F21E
:1045E00000031A704FF40060FFF758FE0146A2E77F
:1045F0004FF4007003F03DF907219CE703F028F920
:1046000046F8040BC6E7002995D1EBE707B5012171
:10461000B02002F001FE4FF4F853C1F603030193FA
:1046200001A94FF48050C4F2010002F082FC04237F
:10463000ADF804300DEB03014FF4A050C4F20100BB
:1046400002F077FC01214FF4806002F0D7FD0121D8
:10465000022002F0D3FD41F63863C2F2000348F2B3
:104660008002C4F201021A6000225A609A60DA6085
:104670001A61802159614FF4007199614FF4006112
:10468000D9611A624FF4005159629A6203F04EF8F0
:10469000FFF7C4F908B9FFF7D5FE03B05DF804FBD6
:1046A0002DE9F04F85B0009090469946BDF838B09E
:1046B00041F6F067C2F2000700200021C7E90001BF
:1046C00041F6FC66C2F200060024347041F6F8653B
:1046D000C2F200052C604FF40043C4F20103DC6217
:1046E000204603F06FF8204603F08FF810F00071B9
:1046F0000197029540F0918041F6B053C2F2000359
:104700001B68022B01D0072B07D14FEA582848EA33
:10471000C9584FF4007B5F460DE00BF1FF3398B2B0
:10472000B0F5006F02D213EA0B0FF4D0262470E02C
:10473000C7F34F070146481C012FF9D1039141F6F9
:104740006465C2F20005C5F800B010246C604FF03B
:10475000400AC5F808A00020E8604FF48069C5F859
:104760001090284603F034F82046FEF7D4FF0446A4
:1047700000284ED141F67860C2F200006FF07F430E
:10478000C0E9003B0399090101F47F6181600221C6
:10479000C1600461476103F045F81FFA8BF0002106
:1047A000019BC3E9000141F6EC61C2F200010C601B
:1047B000394640F22A3002F0F7FF384603F002F89B
:1047C00059460098FEF761FFC5F8008011276F6019
:1047D000C5F808A0EC60C5F81090284602F0F8FF74
:1047E0003846FEF798FF044698B94FF40054C1F2DA
:1047F0000004204602F0A9FE28B9029B1B6813B9E9
:104800003378002BF5D0337803F0FF040BB1347804
:10481000E4B2204605B0BDE8F08F0E24F9E72DE99B
:10482000F04F85B0019017469846BDF838A041F684
:10483000F065C2F2000500200021C5E9000141F643
:10484000FC66C2F200060024347041F6F862C2F23F
:10485000000214604FF40042C4F20102D462204608
:1048600002F0B0FF204602F0D0FF10F00072029577
:1048700040F0A08041F6B050C2F20000006802286B
:1048800001D0072806D17F0A47EAC8574FF4007ABB
:10489000D34611E00AF1FF3084B2B4F5006F04D3BF
:1048A0002625284605B0BDE8F08F10EA0A0FF7D19B
:1048B000EEE7CBF34F0B0246501CBBF1010FF8D1D2
:1048C000039241F66464C2F20004C4F800A010250B
:1048D00065604FF04009C4F808900020E0604FF494
:1048E0008068C4F81080204602F072FF2846FEF768
:1048F00012FF05460028D4D10F9800FB0AF3B3F14C
:10490000007FCDD218460021029AC2E9000141F68B
:104910007860C2F200006FF07F41C0E9001302939B
:10492000039A120102F47F6282600222C260056172
:10493000C0F814B002F076FF41F6EC62C2F2000259
:10494000C2F800B0594640F22A3002F02DFF584616
:1049500002F038FF029B19460198FEF796FE276089
:1049600012276760C4F80890E560C4F810802046FC
:1049700002F02EFF3846FEF7CEFE0546002890D105
:104980004FF40055C1F2000541F6F864C2F200048C
:10499000284602F0DAFD20B9236813B93378002BDA
:1049A000F6D0337803F0FF05002B3FF47AAF35786B
:1049B000EDB276E70E2574E72DE9F04F89B002904D
:1049C00091469846BDF8486000278DF81B70079700
:1049D00041F6FC65C2F200052F7041F6F86BC2F299
:1049E000000BCBF8007041F6F06AC2F2000A002218
:1049F0000023CAE9002341F67864C2F200046FF094
:104A00007F43C4E90037A760E760276167612046FC
:104A100002F008FF384602F0D5FE384602F0F5FEF7
:104A200010F000730193CDF80CB0CDF810A040F059
:104A3000F08041F6B053C2F200031B68022B01D094
:104A4000072B07D14FEA592949EAC8594FF4007694
:104A500033460BE0731E9AB2B2F5006F01D23342B7
:104A6000F6D02621A6E0C3F34F030192019A01324A
:104A7000012BF8D141F66467C2F200073E604FF0A7
:104A8000100BC7F804B04FF0400AC7F808A0002385
:104A9000FB604FF480623A61384602F099FE584656
:104AA000FEF739FE0146002840F0848041F6C058E8
:104AB000C2F20008D8F8001001FA0BF139604FF08B
:104AC0000D0BC7F804B0C7F808A0F8604FF4806277
:104AD0003A61384602F07CFE5846FEF71CFE01465D
:104AE000002867D102F091FE6FF07F420792CDF867
:104AF00014A0BA4610F4807002D1079A002A5DD142
:104B0000079A002A00F0878041F6EC62C2F20002A8
:104B10004FF00008C2F80080012140F21A3002F084
:104B200043FE012002F04EFE31460298FEF7D0FD12
:104B3000C7F800904FF01809C7F804904022BA60F7
:104B4000C7F80C804FF480623A6141F66460C2F2AB
:104B5000000002F03DFE4846FEF7DDFD014648BB81
:104B6000B2B200230499C1E900236FF07F43C4E986
:104B70000036019B1F0107F47F67A760E06020619A
:104B80000123636141F67860C2F2000002F04AFE40
:104B90004FF40054C1F20004204602F0D6FC28B9BC
:104BA000039B1B6813B92B78002BF5D02B78FBB136
:104BB0002978C9B2084609B0BDE8F08F079A013AD2
:104BC0000792D8F800201204C7E9002B059BBB60B0
:104BD000F8604FF480623A61504602F0F9FD0D2012
:104BE000FEF799FD01460028E4D102F00EFE81E7B0
:104BF00040F2FF5002F03DFE0DF11B00FEF794FC69
:104C000001460028D6D19DF81B30063B012BF3D975
:104C1000D0E70E21CEE72921CCE72DE9F04F87B070
:104C2000019090469946BDF8404000268DF81360EB
:104C3000059641F6FC65C2F200052E7041F6F86A51
:104C4000C2F2000ACAF8006041F6F067C2F200073B
:104C500000220023C7E9002341F67860C2F2000079
:104C60006FF07F43C0E900368660C660066146612A
:104C700002F0D8FD304602F0A5FD304602F0C5FD39
:104C800010F00076CDF808A040F00A8141F6B0534C
:104C9000C2F200031B68022B01D0072B07D14FEA99
:104CA000582848EAC9584FF4007423460EE0631EA2
:104CB0009AB2B2F5006F03D3262007B0BDE8F08F9B
:104CC0002342F9D1F1E7C3F34F031646721C012BBF
:104CD000F9D141F6646BC2F2000BCBF80040102210
:104CE000CBF804204FF0400ACBF808A00021CBF805
:104CF0000C104FF48069CBF81090584602F068FD14
:104D000010221046FEF707FD0028D6D141F6C0520A
:104D1000C2F20002116803920904CBF800100D21C1
:104D2000CBF80410CBF808A0CBF80C00CBF810900F
:104D3000584602F04DFD0D210846FEF7ECFC002818
:104D4000BBD1119B5C43B4F1007FB5D241F6B051A9
:104D5000C2F2000109680229039A58D920460021AD
:104D6000C7E9000141F6EC62C2F2000201271760B8
:104D7000394640F21A3002F017FD384602F022FDA3
:104D800021460198FEF7A4FCCBF800804FF01908EB
:104D9000CBF804804022CBF808200022CBF80C206E
:104DA0004FF48062CBF8102041F66460C2F200003C
:104DB00002F00EFD4046FEF7AEFC024600287FF4EE
:104DC0007CAF41F67860C2F200006FF07F41C0E92D
:104DD0000014360106F47F668660C2600261476196
:104DE00002F020FD4FF40054C1F20004204602F00E
:104DF000ACFB28B9029B1B6813B92B78002BF5D0AC
:104E00002B7803F0FF0483B32878C0B255E712680B
:104E10001204CBF800203722CBF80420CBF808A0EE
:104E2000CBF80C00CBF81090584602F0D1FC37229A
:104E30001046FEF770FC00287FF43FAF119BCBF8C3
:104E400000301722CBF80420CBF808A0CBF80C00D8
:104E5000CBF81090584602F0BBFC17221046FEF724
:104E60005AFC00283FF47AAF27E740F2FF5002F0E7
:104E700000FD05944FF6FE72059B93420CD90DF18F
:104E80001300FEF751FB00287FF417AF9DF8133095
:104E9000063B012BF3D910E7059B01330593EBE7A4
:104EA0000E200AE710B541F66460C2F2000000234C
:104EB0000C24C0E9003440228260C3604FF4806358
:104EC000036102F085FC2046BDE81040FEF723BCDC
:104ED00038B50546F8B141F66460C2F2000041F60B
:104EE000C053C2F200031B681B0403600D2444601E
:104EF000402383600023C3604FF48063036102F0AA
:104F000067FC2046FEF707FC044610B902F07DFC62
:104F10002860204638BD2624FBE707B5002301930F
:104F200001238DF803309DF80330012B03D0FF20BF
:104F300003B05DF804FB01A8FFF7CAFF0028F6D113
:104F40000198C0F34320F3E708B5FFF7E6FF042814
:104F500004D0FF280CBF0220012008BD0020FCE780
:104F60002DE9F8430646002002F04FFC10F00070D7
:104F700040F0B58041F66464C2F200044FF040088E
:104F8000C4F8008010256560C4F80880E0604FF424
:104F90008069C4F81090204602F01AFC2846FEF7FB
:104FA000BAFB054600284DD141F6C053C2F20003BA
:104FB0001B681B04236037256560C4F80880E06027
:104FC000C4F81090204602F003FC2846FEF7A3FB2D
:104FD00007460546B0BB41F67860C2F200006FF0AC
:104FE0007F43C0E90038602383600223C360076108
:104FF0000123436102F016FC27600D256560C4F8AB
:105000000880E760C4F81090204602F0E1FB2846D3
:10501000FEF781FB0546A8B906F11C044FF40047D2
:10502000C4F2010740F22A68A4F11C067B6B13EA64
:10503000080F0AD0082002F012FCB0B1082002F0DC
:1050400018FC04252846BDE8F8834FF4004002F020
:1050500006FC0028EAD0A4F1200502F0F9FB45F88F
:10506000040FAC42F9D12034DEE7022002F0F7FB56
:1050700020B1022002F0FDFB0225E3E7202002F030
:10508000EEFB20B1202002F0F4FB0625DAE74FF416
:10509000007002F0E4FB0546B0B906F18064043C00
:1050A0004FF4001002F0DBFB08B1A64212D140F22F
:1050B000FF5002F0DEFBA6F140031A6812BA43F873
:1050C000042B9E42F9D1BDE74FF4007002F0D1FBF2
:1050D0000725B7E702F0BCFB46F8040BE0E70E2516
:1050E000B0E738B54FF4807002F0C9FB044640B316
:1050F00041F6EC63C2F200031B68012B41F6FC642D
:10510000C2F200041AD1FFF7CDFE20704FF4807078
:1051100002F0B7FB00214CF23A3002F045FB41F6B9
:10512000F863C2F2000301221A6041F6B853C2F2DA
:10513000000300221A602078C0B238BD002323701B
:10514000E4E7022002F09BFB054698B1022002F042
:1051500098FB21464CF23A3002F026FB41F6B85358
:10516000C2F200031C6041F6FC63C2F2000302209D
:105170001870E2E7082002F082FB044690B1082094
:1051800002F07FFB29464CF23A3002F00DFB41F66B
:10519000B853C2F200031D6041F6FC63C2F2000383
:1051A0000420E5E7202002F06AFB054690B12020AC
:1051B00002F067FB21464CF23A3002F0F5FA41F674
:1051C000B853C2F200031C6041F6FC63C2F2000354
:1051D0000620CDE7102002F052FB044690B11020CB
:1051E00002F04FFB29464CF23A3002F0DDFA41F66C
:1051F000B853C2F200031D6041F6FC63C2F2000323
:105200000520B5E74FF4007002F039FB002894D078
:105210004FF4007002F035FB21464CF23A3002F0B8
:10522000C3FA41F6B853C2F200031C6041F6FC63B6
:10523000C2F2000307209BE7FFF753BF38B50446CF
:1052400041F6A865C2F200052846FFF789FE00284E
:1052500032D12B789B0923702B78C3F340136370F2
:10526000AB781B0263806288EB78134363802B79F1
:105270001B06636063686A7943EA0243636063689C
:10528000AA7943EA022363606268EB79134363609F
:105290002B7A23726B7A6372AB7A1B09A372EB7A57
:1052A0001B02A381A2892B7B1343A3816B7B9A08EA
:1052B000A27303F00303E37338BD08B558B9FFF7D1
:1052C000A5F941F6E863C2F20003187018780030BF
:1052D00018BF012008BD0120FCE710B5012370B9FB
:1052E00040F22404C2F200042370FFF72DFE18B927
:1052F000237803F0FE0323702078C0B210BD184657
:10530000FCE72DE9F7430F461646984600283DD1A5
:1053100041F6E864C2F2000420708B072AD1D30D55
:105320005202B8F1010F4FF4007129D100913846B3
:10533000FFF7B6F9207016E0AB1900925A02DB0DA8
:105340004846FFF7ADF920704FF40072494607EB6D
:10535000452003F0CFFE0135454504D0237803F006
:10536000FF02002BE8D02078003018BF012003B0E6
:10537000BDE8F083054641F60079C2F20009EBE78B
:10538000CDE900183846FFF74AFAD3E70420EEE7E4
:105390002DE9F3470F461646984600283ED141F6C0
:1053A000E864C2F2000420708B072BD1D30D5202A7
:1053B000B8F1010F4FF400712AD100913846FFF780
:1053C000FBFA207017E04FF4007207EB45214846C6
:1053D00003F090FEAB19CDF800A05A02DB0D484651
:1053E000FFF7EAFA20700135454504D0237803F031
:1053F000FF0A002BE7D02078003018BF012002B050
:10540000BDE8F087054641F60079C2F20009EBE7F6
:10541000CDE900183846FFF700FCD2E70420EEE79C
:1054200070B50D4614460646C0B941F6B053C2F2F7
:1054300000031B68022B05D841F62860C2F2000069
:10544000FFF7FCFE292D00F0CD8018D8022D49D0A1
:1054500006D8002D00F0D180012D38D0042647E079
:10546000032D47D0282DF9D141F6C453C2F20003D1
:105470005A6812BA22601B681BBA636038E0342D88
:1054800000F0A48017D8322D00F08380332DE5D1B1
:1054900041F6A053C2F200031A6812BA22605A6899
:1054A00012BA62609A6812BAA260DB6843F0010324
:1054B0001BBAE3601CE0352D00F08D80362DCDD178
:1054C0002046FFF74DFD061C18BF012610E041F6EF
:1054D000D052C2F20002D2E912325B0A43EAC2534E
:1054E000236005E041F6D053C2F200031B6D238018
:1054F000304670BD41F6D053C2F2000393F8561007
:105500004B1E012B28D841F62862C2F20002937A82
:105510000A2B134603D8927A10239340E0E7927A3D
:105520000B2A02D09A7A0C2A06D19B7A03F5FF2324
:1055300003F5FF635B03D3E79A7A0D2A02D09A7AC8
:105540000E2A06D19B7A03F57F3303F2F6339B03D1
:10555000C6E74FF40033C3E741F6A052C2F200029F
:10556000936851B9C3F3C6130133D268C2F38152B1
:10557000013A934023600E46BAE7DA0002F01802BF
:10558000C3F342110A43C3F38423013302FB033301
:10559000A6E741F6D053C2F2000393F85630072B2A
:1055A00012D8DFE803F004080B0D110D110F0222D1
:1055B00022701E469CE70423237099E70C23FBE727
:1055C0000123F9E70923F7E70023F5E741F69053B4
:1055D000C2F2000360E741F6BC53C2F200031B684D
:1055E0001BBA7DE741F6B453C2F200031B78237067
:1055F00000236370A370E3707AE72E4678E708B55E
:105600000120FBF716F945F64043C4F200030122DE
:105610001A600020186045F64442C4F2000210608F
:1056200042F2E842C2F200024FF4E05111801960E8
:1056300008BD73B50021019145F64043C4F2000353
:105640001A6892B242F20014C2F2000425468800A1
:1056500000F1804000F5B840006880B244F82100B5
:1056600001310829F3D142F48061196041F0010150
:10567000196022F0010292B242F48061196045F68D
:105680004441C4F200010C4608684605FCD54FF6BB
:10569000FF300860002155F82160880000F180404B
:1056A00000F5B840B6B2066001310829F3D142F4E2
:1056B00081621A601A6892B242F004021A604FF4D2
:1056C000E041C4F200010A6801920A6822F0030274
:1056D00042F001020A604FF46D42CEF200021069FE
:1056E00040F0040010612068C00406D430BF136984
:1056F00023F00403136102B070BD4EF6FF7020600A
:105700001C684FF6F77020401860019B0B60EEE7B5
:1057100010B545F64044C4F2000422684FF6FB730E
:1057200013402360FBF793F84FF40643236010BD4A
:1057300010B5072842F22014C2F2000418BF2070EE
:105740002378052B0CD8DFE803F003101B1F283645
:1057500042F22813C2F200031B681BB9FFF7D8FFFF
:10576000062300E00523237009E0FFF7D1FF04239F
:10577000237042F22813C2F2000301221A6010BD06
:10578000022363700323EEE76378013BDBB26370AF
:105790006378002BF3D10423E5E745F64042C4F2D9
:1057A000000213689BB243F01003136005232370BB
:1057B0000A236370E3E76378013BDBB263706378CD
:1057C00003F0FF01002BDAD145F64043C4F2000399
:1057D00018684FF6EF7202401A600623237042F2F7
:1057E0002813C2F200031960C9E780B500AF42F286
:1057F0002C13C2F200031B68984700BF80BD70B530
:1058000088B045F64444C4F2000423689BB242F2D7
:105810003C15C2F200052B802B8842F2E846C2F20A
:1058200000063288134098050CD54FF6FF532360CD
:1058300042F23012C2F2000213780133DBB213706D
:1058400000F0E0F82B8832881340190401D502F0EB
:105850007FFD2B88328813405A0508D54FF6FF3359
:10586000236040F26003C2F200035B6898472B8814
:10587000328813409B0444BF4DF6FF7323602B888E
:1058800032881340D80405D54EF6FF7323600020FC
:10589000FFF74EFF2B883288134019050BD540F2D5
:1058A0002503C2F200031B78002B67D0FFF7C1FE6F
:1058B0004FF2FF7323602B8832881340DA0561D5DD
:1058C0004FF6FF63236045F64843C4F200031B68AC
:1058D00013F4004F42F23410C2F2000046D00368C5
:1058E000013303600368032B42D945F64045C4F2F7
:1058F00000052A6812F008023AD1296889B242F2FA
:105900003813C2F200031960910001F1804606F5D8
:10591000B8463668B6B20DF1200C614441F8206CEF
:105920000132082AF0D11A6842F001021A601A689E
:1059300092B22A601A6822F001021A601B689BB2B8
:105940002B6023685B05FCD54FF6FF3323600022F4
:10595000930008A9194451F8201C03F1804303F572
:10596000B84389B219600132082AF1D100230360DB
:10597000072008B0BDE87040FFF7DABE0220FFF74D
:10598000D7FE95E708B070BD70B545F64441C4F246
:1059900000010A6892B242F23C13C2F200031A807C
:1059A000188842F2E842C2F200021488204010F443
:1059B000004F0E461C46154601D002F0C9FC238854
:1059C0002A8813405B050AD54FF6FF33336040F257
:1059D0006003C2F200035B68BDE87040184770BD09
:1059E00042F24013C2F200031B68184742F2481308
:1059F000C2F200031B68184742F24413C2F20003CC
:105A00001B68184742F24C13C2F200031B68184788
:105A100042F29813C2F200031B68184742F278134F
:105A2000C2F200031B68184742F29013C2F200034F
:105A30001B68184742F29413C2F200031B68184710
:105A400042F25413C2F200031B68184742F2741367
:105A5000C2F200031B68184742F27013C2F200033F
:105A60001B68184742F26013C2F200031B68184714
:105A700042F25813C2F200031B68184742F26C133B
:105A8000C2F200031B68184742F25C13C2F2000323
:105A90001B68184742F27C13C2F200031B681847C8
:105AA00042F26413C2F200031B68184742F28C13DF
:105AB000C2F200031B68184742F26813C2F20003E7
:105AC0001B68184742F25013C2F200031B681847C4
:105AD00042F28813C2F200031B68184742F2841393
