:020000040800F2
:1000000000000120A1910008E5050008E7050008AF
:10001000E9050008EB050008ED05000800000000F8
:10002000000000000000000000000000EF050008D4
:10003000F105000800000000F3050008F5050008C0
:10004000E5910008E5910008E59100082B060008FD
:10005000E5910008E5910008E5910008E5910008A8
:10006000E5910008E5910008E5910008E591000898
:10007000E5910008E5910008E5910008E591000888
:10008000E5910008E5910008E591000823060008C5
:1000900027060008E5910008E5910008E5910008B1
:1000A000E5910008E5910008E5910008E591000858
:1000B000E5910008E5910008E5910008E591000848
:1000C000E5910008E5910008E5910008E591000838
:1000D000E5910008E59100085F190008E591000826
:1000E000E5910008E5910008E5910008E591000818
:1000F000E5910008E5910008E5910008E591000808
:10010000E591000877510008E5910008E5910008A5
:10011000E5910008E5910008E5910008E5910008E7
:10012000E5910008E5910008E5910008E5910008D7
:1001300000000000000000000000000000000000BF
:1001400000000000000000000000000000000000AF
:10015000000000000000000000000000000000009F
:10016000000000000000000000000000000000008F
:10017000000000000000000000000000000000007F
:10018000000000000000000000000000000000006F
:10019000000000000000000000000000000000005F
:1001A000000000000000000000000000000000004F
:1001B000000000000000000000000000000000003F
:1001C000000000000000000000000000000000002F
:1001D000000000000000000000000000000000001F
:1001E0005FF8E0F12DE9F74F00230093019300F051
:1001F000BFFA4FF47A7000F07AF9019B022B1DDCF4
:100200004FF47A7000F0BFF920214FF4C050C4F2CF
:10021000010006F001FF044640214FF4C050C4F233
:10022000010006F0F9FE204310F0FF0F02D1012378
:10023000009303E0019B01330193DEE707F046FCE6
:10024000009B40F67825C2F2000541F2EC7BC2F239
:10025000000B41F6E47AC2F2000A48F2CB34C0F651
:10026000000441F6E079C2F2000941F6E878C2F2F2
:10027000000841F6EC77C2F2000741F6D476C2F2EC
:1002800000064BB140F6FD63C0F600032B6041F65B
:10029000B103C0F6000368E040214FF4C050C4F23F
:1002A000010006F0B9FE58B340F67C23C2F2000309
:1002B00002221A6041F2C553C0F600032B6041F2DE
:1002C0008B53C0F60003CBF8003045F65163C0F6FF
:1002D0000003CAF80030C9F8004045F63173C0F693
:1002E0000003C8F8003045F68F73C0F600033B608A
:1002F00045F2A973C0F60003336005F00FFD3EE040
:1003000020214FF4C050C4F2010006F085FE41F6F2
:10031000B103C0F6000318B340F67C22C2F200021B
:100320000121116041F26962C0F600022A60CBF837
:10033000003046F2AD73C0F60003CAF8003046F64E
:100340002923C0F60003C9F80030C8F800403C601B
:1003500045F63113C0F60003336006F015FD0EE0DC
:1003600040F6FD62C0F600022A60CBF80030CAF801
:100370000040C9F80040C8F800403C6034602B6879
:100380009847FCE782B04FF48053C4F202031A6826
:1003900042F001021A6059680022CFF6FF020A40BB
:1003A0005A601A6822F0847222F480321A601A6845
:1003B00022F480221A605A6822F4FE025A604FF436
:1003C0001F029A600022009201921A6842F4803261
:1003D0001A601A6802F400320192009A0132009207
:1003E000019A1AB9009AB2F5A06FF2D11A6812F404
:1003F000003218BF01220192019A012A08D04FF45D
:100400006D43CEF200034FF000629A6002B0704775
:100410004FF40052C4F20202116841F01001116061
:10042000116821F003011160116811605A685A6067
:100430005A685A605A685A605A6822F47C125A60A4
:100440005A6842F430225A601A6842F080721A6088
:100450001A689201FCD55A6822F003025A605A6861
:1004600042F002025A605A6802F00C02082AFAD1DD
:10047000C5E74FF48052C4F20202516801F00C014A
:10048000042940F21003C2F2000306D0082909D063
:100490004FF49051C0F27A011CE04FF4D851C0F2F1
:1004A000B70117E051685068C1F383410231C003BE
:1004B00004D44FF41060C0F23D000AE0506880039D
:1004C00047BF48F68050C0F25B004FF4D850C0F2EE
:1004D000B700414319605268C2F3031240F20001B1
:1004E000C2F20001895C1A68CA401A60704730B5D0
:1004F00087B00190042006F034FD019A40F2100408
:10050000C2F200042368B3FBF2F3013BB3F1807F36
:1005100038D24EF21002CEF2000253604FF46D4317
:10052000CEF20003F02183F8231000259560072305
:1005300013600121082006F09EFE03A807F09EF834
:10054000236844F24022C0F20F02B3FBF2F3013BF6
:10055000ADF80C304FF6FF73ADF81030ADF8125017
:10056000ADF80E5003A94FF44060C4F2000007F04C
:1005700025F801214FF44060C4F2000007F087F82D
:1005800007B030BDFEE782B00190019A40F68023AB
:10059000C2F200031A601A68002AFCD102B0704748
:1005A000704708B540F68423C2F200031A6822B9E6
:1005B00042F2DC32C2F200021A6040F68422C2F239
:1005C0000002186801446B46994206D908F00CFEF7
:1005D0000C2303604FF0FF3008BD116008BD4FF0E1
:1005E000FF3070477047FEE7FEE7FEE7FEE7704723
:1005F0007047704708B540F68023C2F200031A68BE
:1006000012B11A68013A1A6000F07DF940F67C23B5
:10061000C2F200031B681BB9BDE8084000F045BCEE
:1006200008BD07F0C3BF05F0B5B8704730B500236B
:100630001D46DCB2A2420CD9040F092C94BF303401
:10064000373401F81340000101EB430465700133B6
:10065000EFE730BDF7B501217D2006F000FE4FF633
:10066000FF73ADF8043003268DF8066000278DF87F
:10067000077001A94FF40060C4F2010006F07EFC8F
:100680004FF44065C4F2010501A9284606F076FC46
:1006900001A94FF48050C4F2010006F06FFC01A9DB
:1006A0004FF4A050C4F2010006F068FC4FF4C054AF
:1006B000C4F2010401A9204606F060FC39467D2001
:1006C00006F0CDFD0121482006F0C9FDADF804601B
:1006D0008DF8066010238DF8073001A9204606F03A
:1006E0004DFC4FF48076ADF8046001A9284606F071
:1006F00045FC3146284606F097FC0121204606F0CD
:1007000093FC0221204606F08FFC03B0F0BD13B528
:100710000121402006F0A3FD7823ADF80430032426
:100720008DF8064028238DF8073001A94FF4C050FA
:10073000C4F2010006F022FC0121042006F08FFD26
:100740004FF48073ADF804308DF8064004238DF823
:1007500007300DEB03014FF40060C4F2010006F016
:100760000DFC02B010BD00214FF0006006F0EEBBA2
:1007700008B5FFF77EFEFFF7F6FFFFF76BFFFFF709
:10078000C6FF00F040F900F07FFABDE8084000F035
:1007900060B97FB5002006F0CDFC002006F0C5FC56
:1007A0004FF480114FF4803006F0B4FC012006F0C5
:1007B000BCFC392006F071FD0028FAD04FF400533C
:1007C000C4F202031A6842F010021A601A6822F09A
:1007D00003021A601A6842F002021A60022006F050
:1007E000A9FC06F0B1FC0828FBD101A806F0D8FC52
:1007F00007B05DF804FB07B50121202006F02FFDAE
:100800000823ADF8043003238DF8063014238DF847
:10081000073001A94FF4A050C4F2010006F0AEFB6E
:1008200003B05DF804FB08B5002006F095FC01213B
:100830004FF40000BDE8084006F01DBD082128B1B6
:100840004FF4A050C4F2010006F0EEBB4FF4A050EC
:10085000C4F2010006F0E6BB42F24C33C2F20003E0
:100860009A7A41F6A473C2F200030AB1052200E0AD
:1008700001221A60704738B50D464FF2E873C1F691
:10088000FF731B684FF2EC72C1F6FF7214684FF2EF
:10089000F072C1F6FF7212689B180BD00822014655
:1008A0001846FFF7C3FE042229462046BDE838401B
:1008B000FFF7BCBE38BD0022134640F6DC21C2F271
:1008C000000131F8120003449BB20532322AF8D1FC
:1008D0000A22B3FBF2F3C3F30B0340F6C6225343E1
:1008E000C3F30F335B009BB240F69022C2F20002CA
:1008F000B2F90010481C1CBF5B0803EB61031380B6
:10090000B2F90000704738B54FF480714FF40060C1
:10091000C4F2010006F080FB012840F68823C2F2F1
:10092000000315D11A6801321A6040F6B8339A42B2
:1009300010D907F0C3F800F0D1FA4FF400514FF48A
:100940008050C4F2010006F06DFB07F0B7F8FCE739
:1009500000221A6040F21804C2F20004256845B172
:10096000FFF7A9FF40F69423C2F200031860013D8F
:10097000256040F68C23C2F200031A680132B2F5FA
:100980007A7F3BD900221A6040F69425C2F2000516
:10099000286800EB4004FFF78EFF204480082860A1
:1009A00040F6B833984240F69823C2F2000324D9A7
:1009B000B0F5616F40F21402C2F2000206D20221C9
:1009C000116040F62E52904203D916E001211160C9
:1009D00013E01A6801321A600C2A10D907F06EF879
:1009E00000F07CFA4FF400514FF48050C4F2010043
:1009F00006F018FB07F062F8FCE700221A60BDE879
:100A0000384007F05BB807B50121102006F027FC3D
:100A10004FF40053ADF8043001238DF80630102355
:100A20008DF8073001A94FF48050C4F2010006F0A0
:100A3000A5FA45F2555007F02FF8032007F032F8D9
:100A400040F2E24007F034F807F038F803B05DF800
:100A500004FB70B501214FF4047006F000FC012185
:100A6000084606F0F0FB40F64031C2F200010326D2
:100A70008E700F230B800025CD704FF48050C4F290
:100A8000010006F07BFA01214FF4007006F0E7FB4D
:100A90000820C4F2020006F0C2FC40F6B021C2F207
:100AA000000142F24C43C4F201030B6040F6DC2328
:100AB000C2F200034B608D603223CB600D61802356
:100AC0004B614FF480738B614FF48063CB612023C3
:100AD0000B624D628D620820C4F2020006F02BFD0D
:100AE00001210820C4F2020006F043FD40F69C21DB
:100AF000C2F200010D6001240C714C714FF46023AF
:100B00008B60CD6005250D744FF41050C4F20100C8
:100B100006F0D7FB204606F075FC07232246092184
:100B20004FF41050C4F2010006F01CFC2B460222C8
:100B300010214FF41050C4F2010006F013FC0723FB
:100B400032460A214FF41050C4F2010006F00AFCAC
:100B5000072304220C214FF41050C4F2010006F0C8
:100B600001FC07232A460D214FF41050C4F2010066
:100B700006F0F8FB21464FF41050C4F2010006F0D5
:100B800038FC21464FF41050C4F2010006F0BDFBC2
:100B9000204606F037FC4FF41050C4F2010006F076
:100BA000C6FB4FF41050C4F2010006F0C5FB00284C
:100BB000F7D14FF41050C4F2010006F0C1FB4FF41E
:100BC0001050C4F2010006F0C0FB0028F7D101214B
:100BD0004FF41050C4F2010006F0A0FB01214FF4C5
:100BE0001050C4F20100BDE8704006F0B2BB73B50E
:100BF000064602A840F8041D08F0FCFA436903F217
:100C00006C734361354604460FCC0FC50FCC0FC53E
:100C100023682B60304602B070BD10B5044606F064
:100C200064FD01462046FFF7E2FF204610BD10B5E7
:100C30000446012006F02BFF06F089FD204606F051
:100C400067FD06F084FD0020BDE8104006F01FBFE0
:100C500084B030B58BB00EAC84E80F0001AC0EADA3
:100C60000FCD0FC40FCD0FC42B682360069BA3F2DA
:100C70006C73069301A808F043FDFFF7D8FF0BB093
:100C8000BDE8304004B0704770B586B0142006F05F
:100C9000EEFE4AF2A5540121A0424FF0C05052D0BE
:100CA00006F0E9FA012006F0F2FE2146142006F0D3
:100CB000CFFE06F0C4FE012006F053FA412006F0F4
:100CC000ECFA0028FAD04FF4807006F05BFA0120AD
:100CD00006F060FA06F03BFD0121084606F0E3FC51
:100CE00006F035FD47F6FF7006F021FD06F02FFDFA
:100CF00040F64434C2F2000440F2D9736361062323
:100D000023610F23E3601723A3602D23636025462F
:100D100045F8103B6E460FCD0FC62B68336094E844
:100D20000F00FFF795FF06F012FD012006F0AFFE61
:100D30004AF2A551142006F08BFE002006B0BDE853
:100D4000704006F0A4BE06F096FA06F008FD0121F8
:100D5000084606F0A8FC06B0BDE8704006F0F7BCF7
:100D600070B5002441F61845C2F2000540F69C36E5
:100D7000C2F200062B68984782B212B923461C467D
:100D8000F8E71CB9242A01D00023F8E7631C9BB2C2
:100D900030550A2A03D0B3F5007FF5D2EFE7D8B279
:100DA00070BD0278303AD2B2092A0AD84378303B73
:100DB000DBB2092B05D802EB820003EB4000C0B286
:100DC00070470020704740F69B32C2F2000210F8D4
:100DD000013B1BB112F8011F9942F8D01846704729
:100DE00040F69C33C2F2000340B113F8012B202AD5
:100DF00006D92C2AF9D10138C0B2F5E71846704758
:100E00000020704700B5A1B002460B4691F90010D2
:100E100039B94CF6EB01C0F60001684600F0D0FE8F
:100E200006E04CF6E801C0F60001684600F0C8FE96
:100E30009DF90030242B0DD100231A460DEB030140
:100E400091F901102A2906D00133802B03D04A40A2
:100E5000D2B2F3E7002269464CF6EF00C0F600007C
:100E600000F0A1FE00F095FD0028FBD021B05DF858
:100E700004FB10B540F69034C2F20004204604F0A2
:100E800062FBA078E3781B0443EA4053607943EAAD
:100E9000C023A07943EA4013E07943EA5003208855
:100EA000A0F2BC7043EA406010BD10B540F6983423
:100EB000C2F2000423685A1C226041F28832934235
:100EC0000BD94CF6F501C0F600014CF6F600C0F661
:100ED0000000FFF797FF0023236010BD08B540F620
:100EE0009C53C2F200031B683BB140F66830C2F26B
:100EF000000002F039FA0028F7D108BD2DE9F043CF
:100F00008FB00025ADF8325041F61443C2F2000311
:100F100041F67102C0F600021A6041F61843C2F2AF
:100F2000000341F69302C0F600021A604FF4164126
:100F3000022000F0F2FB4CF6FF01C0F600014CF677
:100F40000410C0F60000FFF75DFF6420FFF71BFBF5
:100F50004FF4E131022000F0E0FB4CF6FF01C0F657
:100F600000014CF60410C0F60000FFF74BFF6420B0
:100F7000FFF709FB4FF41651022000F0CEFB4CF6B0
:100F80003E11C0F600014CF60D10C0F60000FFF750
:100F900039FF4CF63E11C0F600014CF61610C0F6B3
:100FA0000000FFF72FFF4CF61F11C0F600014CF6B2
:100FB0002110C0F60000FFF725FF4DF2C931C0F641
:100FC00000014CF62A10C0F60000FFF71BFF4CF69C
:100FD0003E11C0F600014CF63310C0F60000FFF7DA
:100FE00011FF4CF63C11C0F600014CF64010C0F663
:100FF0000000FFF707FF2A464CF6F501C0F6000196
:1010000040F6A050C2F2000001F0BAFF00F0ADFCC3
:1010100040F69838C2F20008C14640F69C54C2F22D
:1010200000040023236002214FF4C050C4F20100E9
:1010300005F0F8FF30BFFFF793FE0028FBD0022138
:101040004FF4C050C4F2010005F0EEFF01214FF44F
:10105000C050C4F2010005F0E5FF4CF64910C0F69F
:101060000000FFF7B0FE30B14CF65010C0F60000A3
:10107000FFF7A9FE50B90220FFF7B2FE0546012195
:101080004FF4C050C4F2010005F0CEFF0023C8F8B1
:101090000030002DCED02B78412BCBD101252560FF
:1010A00002214FF4C050C4F2010005F0BDFF2946F3
:1010B0004FF4C050C4F2010005F0B6FF2846FFF718
:1010C0008FFE0146FFF76DFE40F64436C2F2000681
:1010D000B060881CFFF765FE7060081DFFF761FEB9
:1010E00030600920FFF77CFE0546FFF75AFEF060EE
:1010F000A81CFFF756FE01383061281DFFF751FE8E
:1011000064307061304608F0FBFA00F5FD401030A5
:10111000FFF78DFD02A8FFF780FD374602AC0FCC2C
:101120000FC70FCC0FC723683B6003467269642169
:1011300092FBF1F0F4680094013301FB10224CF6AD
:101140005711C0F6000140F69C30C2F2000000F0DA
:1011500037FD40F66834C2F20004122240F69C319A
:10116000C2F20001204601F034FF002873D1E1688B
:10117000204602F006F900286DD1FFF7F1FD044684
:1011800000283FF44AAF4CF66810C0F60000FFF7A5
:101190001AFE30B14CF66F10C0F60000FFF713FED8
:1011A00038B90620FFF71CFE05460378302B15D111
:1011B0002BE04CF64910C0F60000FFF704FE30B1FA
:1011C0004CF65010C0F60000FFF7FDFDE8B9022014
:1011D000FFF706FE05460378412B16D102214FF496
:1011E000C050C4F2010005F01DFF0DAB224640F6D1
:1011F0009C31C2F2000140F66830C2F2000001F0FA
:10120000BFFF40BB0D9B9C4225D1BDF8323001335E
:101210009BB2ADF832305A2B0BD802214FF4C0509C
:10122000C4F2010005F000FF0023C9F8003030BF10
:10123000A3E702214FF4C050C4F2010005F0F2FE12
:101240000023ADF8323040F66830C2F2000002F000
:1012500054F80028E1D002214FF4C050C4F201003C
:1012600005F0E0FE40F66830C2F2000002F07CF8C3
:101270000028F0D1D1E6F7B541F60044C2F20004EF
:101280004FF4165323600023A380E3802381A381BE
:101290000C2363810121052005F0E1FF01214FF4BA
:1012A000003005F0E8FF0426ADF8046003278DF850
:1012B000067018238DF807304FF40065C4F201055D
:1012C0000DEB0601284605F059FE0823ADF8043061
:1012D0008DF806708DF807600DEB0601284605F0C5
:1012E0004DFE4FF48845C4F200052146284606F01D
:1012F000F3FA0121284606F050FB012240F2255165
:10130000284606F056FB03B0F0BD73B540F2041357
:10131000C2F20003197901291A4611D04FF00004D6
:1013200008D3022947D141F60043C2F200034FF42B
:1013300000510BE041F60043C2F20003DC8006E0FE
:1013400041F60043C2F200034FF44051D980537973
:10135000012B11D04FF0000408D3022B2BD141F602
:101360000043C2F200034FF4C0610BE041F60043BA
:10137000C2F200031C8106E041F60043C2F2000302
:101380004FF4806119819379072B4FF0000402D04C
:10139000082B06D00FE041F60043C2F200039C8008
:1013A0000DE041F60043C2F20003198909B14FF480
:1013B0008051998003E0FFF75EFF204641E041F64F
:1013C0000044C2F20004136823600023A3810C23AD
:1013D00063810121052005F042FF01214FF4003017
:1013E00005F049FF0425ADF8045003268DF806608A
:1013F00018238DF807300DEB05014FF40060C4F29F
:10140000010005F0BBFD0823ADF804308DF806603F
:101410008DF807500DEB05014FF40060C4F2010098
:1014200005F0ACFD21464FF48840C4F2000006F000
:1014300053FA01214FF48840C4F2000006F0ADFADF
:10144000012002B070BD70B505460E460446631B10
:101450009E4211D914F8011B4FF48840C4F20000D9
:1014600006F0BFFA80214FF48840C4F2000006F075
:10147000C0FA0028F6D0EAE770BD70B540F6D47324
:10148000C2F2000300221A7041F2D573C2F20003C7
:10149000197801291D4643D041F2DC73C2F20003E2
:1014A0001968B1F5006F08BF1A60196841F2D87267
:1014B000C2F200021068814202D100232B7070BD7D
:1014C00041F2E072C2F200028CBFC1F50060401A26
:1014D000106041F2E074C2F200041268402A88B23F
:1014E00005D940311960403A2260402604E096B2A6
:1014F0000A441A600023236001242C7040F6D5733F
:10150000C2F200033246C021184407F08CF831467D
:10151000204607F0C8FA2046BDE8704007F067B9DA
:1015200070BD38B540F20413C2F200039B79072B5B
:1015300041F2D874C2F200040DD125684FF48840FE
:10154000C4F2000006F051FA40F6D573C2F200036F
:1015500000F07F000CE0082B0BD125684FF4884089
:10156000C4F2000006F041FA40F6D573C2F200035F
:10157000585541F2D873C2F2000322680132B2F525
:10158000006F08BF00221A6038BD08B540F225512F
:101590004FF48840C4F2000006F031FA08B1FFF7BA
:1015A000C0FF08214FF48840C4F2000006F021FA81
:1015B00038B14FF48840C4F20000BDE8084006F09E
:1015C00014BA08BD07B5FFF7E4F84FF47A70FEF7D8
:1015D0008EFF00F0B0FD4CF69C11C0F6000141F604
:1015E0001C40C2F2000000F080FE41F61C40C2F236
:1015F000000000F089FE00F083FD01234CF6761216
:10160000C0F600020021084600F0E2FCFFF7F3F804
:101610000020FFF713F9FFF706F94FF4C06005F05B
:1016200051FC14238DF8043001248DF80540002569
:101630008DF806508DF8074001A805F04DFC2623D3
:101640008DF804308DF8055001A805F045FC06F032
:10165000BDFE2046FFF7F2F841F6A473C2F2000384
:101660001A68052AFCD1FEE707B5FFF792F84FF498
:101670007A70FEF73CFF00F05EFD4CF69C11C0F660
:10168000000141F61C40C2F2000000F02EFE41F6BF
:101690001C40C2F2000000F037FE00F031FD0123D3
:1016A0004CF68812C0F600020021084600F090FCBB
:1016B000FFF7A1F80020FFF7C1F8002004F07DFC3F
:1016C000FFF7B1F84FF4C06005F0FCFB14238DF870
:1016D000043001248DF805408DF806408DF8074050
:1016E00001A805F0F9FB13238DF804308DF80540AF
:1016F00000238DF806308DF8074001A805F0ECFBBB
:1017000006F064FE2046FFF799F841F6A473C2F292
:1017100000031A68052AFCD1FEE72DE9F3410546CE
:101720008846022869D141F2E874C2F200044FF4FD
:101730008843C4F2000323600121052005F08FFDDA
:1017400001214FF4003005F096FD0426ADF800604D
:1017500003278DF8027018238DF8033069464FF483
:101760000060C4F2010005F009FC0823ADF8003068
:101770008DF802708DF8036069464FF40060C4F282
:10178000010005F0FBFB4FF4C06005F09BFB262336
:101790008DF8043001268DF805608DF806508DF81F
:1017A000076001A805F098FB41F60045C2F200056C
:1017B000284606F0E7F8C5F800802946206806F0BC
:1017C0008BF841F2E472C2F2000241F2F073C2F20D
:1017D000000313600022C3F80424C3F80024C3F8F4
:1017E0000C24C3F80824324640F22551206806F044
:1017F000E0F83146206806F0D0F802B0BDE8F0818C
:10180000D0F80834D0F80C040133C3F30803181AD5
:1018100018BF0120704710B50246FFF7F1FF0446DC
:10182000A8B1D2F8083472B6D01880F8001201338B
:10183000C3F30803C2F8083462B641F2E873C2F297
:101840000003012240F22771186806F0B2F8204622
:1018500010BD024672B6D0F80434C05CC0B2D2F8F3
:1018600004340133C3F30803C2F8043462B670478A
:1018700010B5014641F2E472C2F20002146820463B
:10188000FFF7BEFF0028F9D02046BDE81040FFF763
:10189000C2BF41F2E473C2F200031868D0F800241A
:1018A000D0F804349A4201D0FFF7D3BF002070472C
:1018B00070B540F225514FF48840C4F2000006F0A4
:1018C0009EF810B341F2F074C2F20004D4F8005450
:1018D0000135C5F30805D4F804644FF48840C4F218
:1018E000000006F082F8C0B2B54209D1002240F2F1
:1018F00025514FF48840C4F2000006F05AF804E085
:10190000D4F80034E054C4F800544FF48844C4F2CE
:10191000000440F22771204606F071F8F0B141F260
:10192000F073C2F20003D3F80C14D3F808249142E8
:1019300007D1002240F227712046BDE8704006F032
:1019400038B8D3F80C241A4492F80022A280D3F8B5
:101950000C240132C2F30802C3F80C2470BD41F21A
:10196000EC73C2F200031B68184741F2E473C2F241
:1019700000031B680022C3F80424C3F8002441F2CA
:10198000E873C2F20003012240F22551186806F004
:1019900010B841F2E473C2F200031B68D3F80C04E0
:1019A000D3F80834C31A58425841704710B504465A
:1019B0000A2802D10D20FFF7F9FF41F61043C2F2C9
:1019C00000031A681AB1511C1960147010BD41F659
:1019D0001443C2F200031B681BB1E0B2BDE8104023
:1019E000184710BD10B5441E14F9010F10B1FFF7D0
:1019F000DDFFF9E710BD2DE9FF4702460D4692F9DC
:101A00000000002800F0CC80252801D0571C70E091
:101A100092F90130302B04D1D71C92F90230012603
:101A200008E02D2B19BF971C0026D71C92F9023015
:101A300008BF02264FF000080A21A3F13002D2B2FB
:101A4000092A06D801FB0838A8F1300817F9013B2C
:101A5000F3E723F020024C2A02BF46F0040697F970
:101A600000300137002B00F09B80602BC6BFA3F134
:101A7000200252B21A464F2A12D006DC432A2FD037
:101A8000442A3CD0422A38D032E0552A37D0582A4E
:101A90002CD0532A2CD12C1DD5F800904B4601E0B8
:101AA00008202DE0C9EB030513F9012B002AF9D119
:101AB000B00708D46E1C454504D22020FFF776FFFE
:101AC0003546F7E735464846FFF78CFFA84502D86C
:101AD00025463A4693E72020FFF768FF0135F5E7F2
:101AE0002C1D95F90000FFF761FFF1E7102007E0DA
:101AF0001846FFF75BFF2C46EAE7022000E00A20C9
:101B000029682C1D442A04D10029BCBF494246F053
:101B10000806782B14BF4FF0070C4FF0270C00225B
:101B2000B1FBF0FE00FB1E137146092B88BF634416
:101B30005BB2551C30330DF80230BEF1000F04D0FB
:101B4000102D01D02A46EBE70F22310705D504AB53
:101B50001D442D2305F8103C951C16F0010F14BFF1
:101B60004FF0300A4FF0200AA946B30709D409F113
:101B70000106C14504D25046FFF718FFB146F6E70B
:101B8000B146013D1DF90500FFF710FF002DF8D10A
:101B9000C8459DD92020FFF709FF09F10109F7E7A2
:101BA00004B0BDE8F0870FB407B504A951F8040BE1
:101BB0000191FFF720FF03B05DF804EB04B070471C
:101BC0000EB417B505A951F8043B41F61044C2F212
:101BD0000004206001911846FFF70DFF22680023E2
:101BE0001370236003B0BDE8104003B0704770B5B8
:101BF00096B001214FF4807005F025FB012140F2E1
:101C0000E11005F02CFB4FF4FF43ADF81C30182316
:101C10008DF81F3003238DF81E3007A94FF4C050F4
:101C2000C4F2010005F0AAF91025ADF81C504FF4DC
:101C3000A054C4F2010407A9204605F09FF920230F
:101C4000ADF81C3007A9204605F098F94FF4006361
:101C5000ADF81C3007A9204605F090F94023ADF8F7
:101C60001C308DF81F5007A9204605F087F9802306
:101C7000ADF81C3007A9204605F080F94FF48076B6
:101C8000ADF81C604FF44064C4F2010407A920467B
:101C900005F074F93146204605F0C4F9022300939B
:101CA0000193029305230393049305930023069362
:101CB00004240794089309930A950B930C930D93AE
:101CC0000E930F934FF4805210921193129313932B
:101CD000CDF850D0CDF854D007A805F0A7F90121D0
:101CE000204605F007FA16B070BD0B460A460146BD
:101CF00000F0E5B92DE9F04F87B0824689469B4652
:101D000041F62845C2F200052B685F7A4FEAD708F2
:101D100007F007071078537843EA002000F005FB2E
:101D200004460AEBC8039BB2019300262B689B7AFA
:101D30009E423FDA002309EB060292B2039243452A
:101D400005DB4444002309EB060292B22CE00AEBC7
:101D5000C30292B202920022E15C914008060CD5C7
:101D60000593029B98180492039980B2FFF7BDFF78
:101D7000584600F09BF9059B049A0132082AEBD1E2
:101D80000133DCE72178994009060CD50199C81880
:101D900003931146029280B2FFF7A7FF584600F066
:101DA00085F9039B029A0133BB42EBDB07B1013497
:101DB0000136BBE707B0BDE8F08F2DE9F04F87B0E3
:101DC000824689469B4641F62445C2F200052B68AF
:101DD0005F794FEAD70807F00707104600F09AFA34
:101DE00004460AEBC8039BB2029300262B689B793A
:101DF0009E423FDA002309EB060292B20392984515
:101E000005DC4444002309EB060292B22CE00AEB05
:101E1000C30292B201920022E15C914008060CD507
:101E20000593019B98180492039980B2FFF75DFF18
:101E3000584600F03BF9059B049A0132082AEBD181
:101E40000133DCE72178994009060CD50299C818BE
:101E500003931146019280B2FFF747FF584600F006
:101E600025F9039B019A01339F42EBDC07B1013452
:101E70000136BBE707B0BDE8F08F2DE9F74F074605
:101E80008B469946BDF830A041F62845C2F20005C0
:101E90002B685E7A4FEAD60806F0070301931078A4
:101EA000537843EA002000F040FA04462A68937A07
:101EB0005B44507AC119013B5A460139384600F05B
:101EC000FEF800262A68927A96422ADA27463A1BBA
:101ED000904512DD4FF0000B3A7802FA0BF212F047
:101EE000800F14BF4846504600F0E0F80BF1010B9C
:101EF000BBF1080FF0D10137E9E744440027019B0B
:101F00009F420ADA2278BA4012F0800F14BF484686
:101F1000504600F0CBF80137F1E703B10134013648
:101F2000D0E703B0BDE8F08F2DE9F74F07468B46A9
:101F30009946BDF830A041F62445C2F200052B6851
:101F40005E794FEAD60806F007030193107800F097
:101F5000E1F904462A6893795B445079C119013B41
:101F60005A460139384600F0AAF800262A689279C4
:101F700096422ADA27463A1B904512DD4FF0000BB5
:101F80003A7802FA0BF212F0800F14BF484650461E
:101F900000F08CF80BF1010BBBF1080FF0D1013709
:101FA000E9E744440027019B9F420ADA2278BA40BD
:101FB00012F0800F14BF4846504600F077F8013702
:101FC000F1E703B101340136D0E703B0BDE8F08F8B
:101FD0002DE9F34704460F4615469A4640F21C0683
:101FE000C2F2000641F62848C2F2000841F6244930
:101FF000C2F200092A78002A3CD07F2C3CD89F2FBF
:102000003AD882F080031F2B01D9DF2A18D9BAF100
:10201000000F07D133681B882A4639462046FFF750
:1020200069FE08E032681388528800922A463946D1
:102030002046FFF722FF0235D8F800305B7A16E021
:10204000BAF1000F06D133681B8839462046FFF7E6
:10205000B4FE08E032681388528800922A46394656
:102060002046FFF761FF0135D9F800305B791C4449
:10207000A4B2BFE7012000E0002002B0BDE8F08775
:1020800038B54FF4A054C4F2010440252561642002
:10209000FEF779FA6561802363616420FEF773FAC5
:1020A00025616420BDE83840FEF76DBA02090023BF
:1020B000C6F602031A80000180B21880704770B51E
:1020C0004FF0D0464FF4287434800024C6F6020442
:1020D00000252580C0B2000120802580C9B20901F9
:1020E00021804FF42C7131802580D2B212012280E0
:1020F0002580DBB21B0123804FF43073338070BD29
:1021000007B59F2300227F211046FFF7D8FF4FF429
:10211000A04301930022C6F6020240F6FF704FF67C
:10212000F07110801180019B013B0193002BF8D1CD
:1021300003B05DF804FB2DE9F843FFF758FDFFF706
:102140009FFF4FF0D04410252580B420FEF71BFAE6
:102150004FF4807323806420FEF715FA4FF48873E0
:1021600023809620FEF70FFA4FF43163238000237B
:10217000C6F6020360261E803020188020221A80B6
:102180004FF43461218018804FF4366121801A8029
:102190004FF0E00CA3F800C04FF4756121804FF4BC
:1021A000D07119804FF4406EA4F800E01A8000212D
:1021B00019804FF44167278050271F804FF44267F2
:1021C00027801A801A804FF4436727801D801A8069
:1021D0004FF4446727801D801A804FF4456727809D
:1021E0004FF48E671F804FF468771F804FF472683A
:1021F000A4F800801A804FF47668A4F800804FF4A9
:102200009868A3F800804FF47868A4F800801E80D6
:102210004FF46068A4F800801E804FF4E078A3F8C3
:1022200000804FF4F878A3F80080A3F800804FF402
:10223000C078A3F800804FF49879A3F800901E802E
:10224000188018804020188070201880188019800D
:102250004FF461662680A0261E804FF4A0761E8073
:102260004FF4D8761E80A3F800804FF490761E803D
:10227000A3F800C01A801D8019801D8080221A805A
:10228000188019804FF458722280A3F800E027804C
:102290004FF4AA621A804FF4547222801980FFF71B
:1022A0002FFF4FF4247323801420BDE8F843FEF77A
:1022B0006AB970B541F62843C2F200031968CD7AB5
:1022C00014220023AB420BDA0C68A61836F8026C15
:1022D000864202D8A45A844205D201330432F1E77F
:1022E0004FF0FF3070BD184670BD01608B7B4371AD
:1022F000CA7B827113F0070F4FEAD30314BF03FBAD
:10230000022353430371704741F62443C2F2000392
:102310001860704741F62443C2F200031A6813792B
:102320005843113013681844704710B50446FFF73E
:10233000C0FF431C05D148F2A010FFF7BAFF48F2D6
:10234000A01441F62843C2F200031B681A6802EB8E
:102350008002528AA41A03EB400080890444187A50
:102360005B6800FB043010BD8378C27843EA022228
:10237000437843EA0223007840EA03207047017063
:102380000B0A43700B0C8370090EC1707047024436
:1023900000F8011B9042FBD1704702398369023B70
:1023A00099423DBF4389C06A01FB0300002070478A
:1023B00030B502689AB111460B4611F9014BE5B2EE
:1023C000202D0AD93A2CF7D1511C8B4207D192F912
:1023D0000020302A03D101330360002030BD4FF0CC
:1023E000FF3030BD38B50D46044618B900232B60C8
:1023F000092038BD0368002BF8D01A78002AF5D0E0
:10240000D98882889142F1D1587802F007FF10F004
:102410000100EBD123682B6038BD01380A4411F864
:10242000013B00F8013F9142F9D17047CA7E8B7E93
:1024300043EA0223032801BF487D0A7D42EA0022C5
:1024400043EA0243184670478A76C2F30723CB76E5
:102450000378032B01BF120C0A75120A4A757047E4
:10246000F8B50446056B00F1340701232A463946C6
:10247000407802F031FFA0B9E070636AEB1AE269BC
:10248000934201D30020F8BDA678012EFAD9E36962
:102490001D4401232A463946607802F01DFF013EA3
:1024A000F3E70120F8BDC3780BB1FFF7D9BF184699
:1024B0007047F8B50446FFF7F6FF0546002842D1FD
:1024C0002378032B37D12779012F34D104F1340637
:1024D0004FF4007201463046FFF759FF552384F848
:1024E0003232AA2384F83332522384F8343084F809
:1024F0003530612384F83630412284F83720722148
:1025000084F8181284F8191284F81A2284F81B32FD
:10251000216904F50770FFF732FFE16804F50870E0
:10252000FFF72DFF226A013222633B463146607875
:1025300002F0D2FE257100221146607802F017FFEA
:10254000003018BF0120F8BD70B506460D46036B7C
:102550008B4211D0FFF7A7FF044670B901232A462A
:1025600006F13401707802F06DFE00281CBF0124D2
:102570004FF0FF35356300E00024204670BD10B5F4
:1025800004460023C3704FF0FF330363FFF7DCFF03
:1025900070BB94F8332294F8323243EA02234AF6AD
:1025A0005522934226D194F83430E92B07D0636B3F
:1025B00003F0FF13EB22C0F2900293421CD104F10E
:1025C0006A00FFF7D1FE20F07F4044F24613C0F2CC
:1025D0005403984212D004F18600FFF7C5FE44F27E
:1025E0004613C3F25433984214BF0220002010BD9A
:1025F000042010BD032010BD022010BD002010BD1E
:102600002DE9FF410F46154600230B60FFF7D0FE72
:10261000061EC0F2118141F63043C2F2000353F8A6
:102620002640002C00F00A813C6005F0FE0523786E
:1026300083B1607802F0F2FDC7070BD4002D00F0E3
:10264000FF8000F0040303F0FF00002B00F0208166
:102650000A201DE100232370F0B2607002F0CEFD6D
:10266000C10700F1EF800DB14207F1D400212046EF
:10267000FFF785FF02281ED104F5FD75002115F82E
:10268000040C10B12846FFF76FFE4DF82100013110
:1026900010350429F3D100265DF8265035B12946BE
:1026A0002046FFF76CFF012801D80CE0032001361B
:1026B000042EF1D1C8E0042800F0C980012801D916
:1026C0000D20E5E0002594F8402094F83F3043EADF
:1026D0000223B3F5007FF3D194F84B6094F84A30AD
:1026E00053EA062604D104F15800FFF73DFE0646E2
:1026F000E66194F8448084F8028008F1FF33012BEE
:10270000DED894F841108BB26381002BD8D04B1ED9
:102710000B42D5D194F8467094F8453043EA072728
:1027200027813B07CCD194F8480094F8473053EA0E
:10273000002003D104F15400FFF716FE94F8433053
:1027400094F8422052EA0323BAD006FB08FE03EBBA
:10275000171272449042B3D3801AB0FBF1F00028F4
:10276000AED04FF6F571884200F102012B442A44A5
:102770006FD840F6F57CA16125626362E262604534
:102780007ED8002F9CD07344A36201EB410301F07B
:10279000010101EB5301012701F2FF11B6EB512FAB
:1027A0008ED34FF0FF332361E36080232371032F27
:1027B00035D194F8652094F8643043EA0223012B64
:1027C0002DD1691C2046FFF7BFFE40BB207194F855
:1027D000332294F8323243EA02234AF655229342D6
:1027E0001DD104F13400FFF7BFFD45F25223C4F2BE
:1027F0006113984213D104F50670FFF7B5FD47F257
:102800007223C6F24113984209D104F50770FFF70D
:10281000ABFD206104F50870FFF7A6FDE0602770AE
:1028200041F62C42C2F20002138801339BB213809E
:10283000E380002060612BE00B2029E00C2027E0E2
:10284000284625E0032023E004287FF439AF012047
:102850001EE0A16125626362E26294F85F2094F851
:102860005E3053EA02237FF42BAF002F7FF428AFB2
:1028700004F16000FFF778FDA062890003278BE771
:10288000002F3FF41DAF7344A3624900022783E782
:1028900004B0BDE8F0812DE9F04706460C46154628
:1028A00001296ED9836999426BD20378022B3BD000
:1028B000032B4BD0012B64D101EB510A416A01EB90
:1028C0005A21FFF741FE074600285BD106F1340983
:1028D0000AF10108CAF3080A14F001041FBF19F82D
:1028E0000A3003F00F0343EA0513DBB208BFEBB273
:1028F00009F80A300123F370716A01EB5821304660
:10290000FFF722FE0746E8BBC8F3080814B1C5F379
:10291000071506E019F8081021F00F01C5F303258B
:102920000D4309F8085029E0416A01EB1421FFF733
:102930000BFE074630BB06F13403640004F4FF7459
:102940001A191D55C5F30725557017E0416A01EBAB
:10295000D411FFF7F9FD0746A0B906F13403A4002E
:1029600004F4FE741C442046FFF7FEFC25F070457D
:1029700000F0704129432046FFF701FD0123F37069
:1029800000E002273846BDE8F087F8B505460C465A
:10299000012952D9836999424FD20378022B29D059
:1029A000032B38D0012B48D101EB5106416A01EBD2
:1029B0005621FFF7C9FD10B14FF0FF30F8BD771C6D
:1029C000C6F308062E4496F83460696A01EB572175
:1029D0002846FFF7B9FD0028EED1C7F308073D44AC
:1029E00095F8340046EA0020E3074CBF0009C0F325
:1029F0000B00F8BD416A01EB1421FFF7A5FD00288B
:102A0000DAD13435640004F4FF742B1958782B5D47
:102A100043EA0020F8BD416A01EBD411FFF794FDB1
:102A20000028C9D105F13400A40004F4FE74204448
:102A3000FFF79AFC20F07040F8BD0120F8BDF8B512
:102A400005460C46B1F5001F01D30220F8BDCA06A9
:102A5000FBD106682961826862B93378022B01D9FB
:102A6000B36A33B93389B3EB541FEED9B36AAB61A0
:102A700016E01A4677897F021146BC420CD32868BB
:102A8000FFF783FF0246431C18D00128DDD9B36944
:102A90009842DAD2E41BEFE73046FFF77EFCA861EC
:102AA0006A61AB69002BD0D003EB5423AB613436A1
:102AB000C4F308043444EC610020F8BD0120F8BDE3
:102AC0002DE9F041804605680F4631B9EE68A6B1A0
:102AD000AB699E4228BF012610E02846FFF755FF4C
:102AE000012845D9431C03D14FF0FF30BDE8F081E8
:102AF000AB6998423DD33E4600E00126344601349E
:102B0000AB699C4205D3012E02D80020BDE8F081BC
:102B100002242146D8F80000FFF737FF30B1012822
:102B200026D00130E0D0B442E9D1EEE74FF0FF32D9
:102B300021462846FFF7AFFEC0B947B9EC602B69C4
:102B4000AA69023A93420AD2013B2B6107E022466E
:102B500039462846FFF79FFE0028EFD006E02B7984
:102B600043F001032B712046BDE8F0810128BBD062
:102B70000120BDE8F081F8B507460D461146012D4C
:102B800001D80220F8BD0468A3699D42F9D22AB198
:102B90004FF0FF322046FFF77EFE08BB294638681B
:102BA000FFF7F3FE064608B90020F8BD0128E8D07B
:102BB000431C14D0002229462046FFF76CFE78B94A
:102BC0002369A269911E8B4205D2013323612379C7
:102BD00043F00103237135469642DFD3E4E7012039
:102BE000F8BD2DE9F04705460F468369002B6DD0EF
:102BF000026902F12008B8F5001F67D20468C8F323
:102C00000809B9F1000F59D101338361416931B924
:102C10002389B3EB581F51D80023AB6156E0638979
:102C2000013B13EA582349D12046FFF7AEFE064682
:102C3000012802D80220BDE8F087421C02D1012001
:102C4000BDE8F087A369984232D3002FE4D06969C8
:102C50002846FFF735FF064600283AD00128E9D07C
:102C6000431CECD02046FFF71EFC07460028E6D1A7
:102C70004FF40072014604F13400FFF788FB31463F
:102C80002046FFF78AFB20634FF0010A63899F42C9
:102C90000BD284F803A02046FFF7E2FB0028CED138
:102CA0000137236B01332363F0E7236BDF1B2763BB
:102CB0006E6131462046FFF770FBA861C5F81080B1
:102CC00034344C44EC610020BDE8F0870420BDE8BA
:102CD000F0870720BDE8F0872DE9F04104460D4656
:102CE000076891F900302F2B01D05C2B01D12A46C7
:102CF00001E07B6908E0154692F9003001322F2B84
:102D0000F9D05C2BF7D00023A3602B781F2B02D9BE
:102D100004F120063EE0802384F82B300021204679
:102D2000BDE8F041FFF78BBE681E04F11F010022D1
:102D3000013210F8013F2E2B3AD02F2B3DD11544F4
:102D4000202B8CBF2023242384F82B30D4F8008040
:102D500000212046FFF773FE30B9A1694046FFF716
:102D6000F3FB002800F0928094F82B30002840F00C
:102D7000AF805A0700F1CC80A379DB0640F1BE801A
:102D800007F134012369C3F3080319443878FFF7C6
:102D90004DFBA0600B2220213046FFF7F8FA95F991
:102DA00000302E2BC0D0002210464FF0080E2BE032
:102DB000032A68D001F8013FBAE75C2BBFD0202B73
:102DC000BDD960E02F2B24D05C2B22D02E2B00F01D
:102DD0009880964557D903F17F0C5FFA8CFCBCF1C3
:102DE0001E0F22D8023015F801C0ACF140013E2977
:102DF00023D80EF1FF318A4245D2511CB35406F854
:102E000001C0023201460846411C2B5C202BD9D858
:102E100022E0681802E0BEF15C0F1DD1411B10F9E1
:102E200001EBBEF12F0FF6D1F8E703F1200C5FFAAA
:102E30008CFCBCF11C0FD5D904E08CF080017C29FE
:102E4000D7D920E04DF2AF3CC0F6000C1CF9010FC1
:102E500080B18342FAD116E0AAB194F82020E52A85
:102E600004BF052284F82020202B8CBF00230423DC
:102E70000D4469E7A3F16100192801D8203BDBB2BA
:102E8000B3540132BFE70620BDE8F081E3691A7848
:102E9000E2B1DA7A02F03F02A271DA7A110710D4B5
:102EA00003F10B0E314613F8012B11F801CBCCEBDB
:102EB0000202734502D0002AF5D002E0002A3FF456
:102EC00053AF00212046FFF78CFE45E704204BE777
:102ED00004281DD113F0200F03F0040308D0002BA9
:102EE0003FF458AF802384F82B300020BDE8F081F8
:102EF000002B14BF04200520BDE8F0810520BDE8AB
:102F0000F081BEF10B0FBED008224FF00B0E7AE716
:102F1000BDE8F08138B5044605680021FFF78FFD54
:102F200070B9A1692846FFF70FFB48B9E3691B7820
:102F3000E52B08D03BB101212046FFF752FEEFE719
:102F4000042808BF072038BD70B505460668FFF79E
:102F5000E1FF044690B9A9693046FFF7F5FA044647
:102F600060B920220146E869FFF711FA0B2205F14A
:102F70002001E869FFF751FA0123F370204670BD84
:102F80001FB501900091144604A840F8041DFFF7F6
:102F90000FFA011E18DB41F63043C2F2000353F86A
:102FA000210008B100220270019808B100220270CD
:102FB000019843F8210050B1012C07D1002201A94A
:102FC0006846FFF71DFB02E00B2000E0002004B084
:102FD00010BD2DE9F04790B0019115460446002838
:102FE00000F0BC8002F03F073A4603A901A8FFF7B2
:102FF00007FB0646002840F0BB800DF14008039B0C
:1030000048F8303D01994046FFF766FE20B99DF92A
:103010003B30002BB8BF062015F01C0F4FD040B13D
:10302000042802D14046FFF78FFF47F0080748B158
:103030009BE09DF8163013F0110F40F09580680763
:1030400000F18E80390748D5FDF713FF024601468F
:103050000B980E30FFF793F911460B981630FFF7D7
:103060008EF920220B9BDA72DDF80C90DDF82CA093
:10307000514699F80000FFF7D9F90546002251465C
:103080004846FFF7E1F90B9B00221A775A779A77A7
:10309000DA770121039BD970EDB1039BD3F830900F
:1030A00029464046FFF767FD00285ED14946039850
:1030B000FFF74AFA691E039BD96050B155E000281A
:1030C00053D19DF81630DA064CD4AD0701D5D80798
:1030D0004AD4390701D547F04007DDF80C80D8F80D
:1030E000303023620B9D6562294698F80000FFF797
:1030F0009DF90146A06005F11C00FFF735F9054672
:10310000E060C4F80080B8F80630A380277400237C
:103110006374E3616361BA062ED568B36061B8F881
:103120000A707F02AF420CD22068FFF72EFC0146E6
:103130000128A5EB070503D9431CF3D1012600E0C4
:103140000226A161A6B9C5F30803ABB10398FFF746
:1031500024F960B100EB5520E0610DE009200CE09E
:10316000082002E0042000E00720064600E00226D6
:1031700000232360304600E0002010B0BDE8F08757
:103180002DE9F74F0446894616469B460023CBF8A7
:10319000003001A9FFF726F9002840F0AB80607CE1
:1031A000002840F0A780237C9A0740F1A280636941
:1031B000F3424CD3DE434AE06369C3F30802002ABA
:1031C0007AD1019A5789013F17EA532742D00198D3
:1031D000026BE3699A425CD0DDF804A0A169504615
:1031E000FFF7DBF8002847D007EB0008750A55D039
:1031F000BAF80A307A199A4288BFDD1B2B4642463C
:1032000049469AF8010002F067F80746002837D1CE
:103210000198016BC8EB01018D4208D94FF400728F
:1032200009EB41213430FFF7F8F8019BDF706D02A4
:10323000A94463692B446361E2689A422CBFE2604F
:10324000E360DBF800302B44CBF80030761B002E17
:10325000B2D109E01BB9A06860B9014600E0A169DC
:103260002046FFF72DFC28B9237C43F0400323744C
:1032700000203FE0012801D1022002E0431C02D1DE
:103280000120607436E0A061A368002B9FD1A0608C
:103290009DE7FFF708F900289ED0F1E76269E3682F
:1032A0009A4207D35046FFF7FEF80028E8D1019B69
:1032B000C3F83080C4F81C806569C5F30805C5F5FE
:1032C0000075B54228BF3546E1690198FFF73CF922
:1032D0000028D5D1019834306369C3F308032A4626
:1032E00049461844FFF799F8019B4FF00102DA7044
:1032F0009EE7072003B0BDE8F08FF7B5044601A9AB
:10330000FFF770F8054660BB237C5B0629D5FDF707
:10331000B0FD0746216A0198FFF716F9054600BB84
:10332000666AF37A43F02003F372A268314620689C
:10333000FFF78AF8E16806F11C00FFF720F839462C
:1033400006F11600FFF71BF8B574F5740122019B16
:10335000DA700198FFF7ADF80546237C23F04003AF
:103360002374284603B0F0BD13B50446FFF7C5FF2C
:1033700028B901A92046FFF735F800B9206002B04E
:1033800010BD73B504460D4601A9FFF72BF80028C0
:1033900072D1607C00286FD1E368AB4204D2227CFA
:1033A00012F0020F08BF1D46636900226261002D02
:1033B00059D0019A568976026BB1013B6A1EB2FB65
:1033C000F6F2B3FBF6F18A4205D372421340636111
:1033D000ED1AA16910E0A16869B92046FFF770FBFA
:1033E0000146012801D1022002E0013002D1012072
:1033F000607441E0A160A161B1B900202BE0237CA1
:103400009A0714D52046FFF75BFB0146A0B14B1C81
:10341000EDD00129E7D9019B9B699942E3D2A161D3
:10342000636933446361AD1BB542E8D805E02068A9
:10343000FFF7ABFA0146EAE7354663692B4463615F
:10344000C5F30803002BD8D00198FEF7A6FF00288B
:10345000C9D000EB55206569C5F308031BB1E369CA
:10346000984218BFE061E368AB423FBFE560237C50
:1034700043F040032374002002B070BD10B54FF438
:103480008034802004F020FA18B9013CF9D10320DF
:1034900010BD40F2FF5004F007FA002010BD10B537
:1034A0004FF40043C4F20103586B10F0450FFBD0FA
:1034B00010F0040404D0042004F0F6F9032010BD39
:1034C00040F2FF5004F0F0F9204610BD10B54FF463
:1034D0000043C4F20103586B10F0450FFBD04307C3
:1034E00004D5042004F0E0F9032010BD10F001041D
:1034F00004D0012004F0D8F9012010BD40F2FF50A3
:1035000004F0D2F9204610BD37B5054600230093DC
:10351000019341F68070C2F2000041F61872C2F2C7
:1035200000021268120402600D2242604022826092
:10353000C3604FF48063036104F06FF94FF40043FC
:10354000C4F201035A6B0192019A12F0450FF9D0AF
:10355000019B590704D5042004F0A6F9032082E05A
:10356000019810F0010404D0012004F09DF901201D
:1035700079E004F068F90190019B0D2B01D0102037
:1035800071E040F2FF5004F08FF9204604F062F938
:103590000090009BC3F343232B70009B4EF2080066
:1035A000CFF6FF50184000285DD0009B002B39DB80
:1035B000009B5A0038D4009B9B0037D4009BDD0051
:1035C00036D4009B1C0135D4009B590134D4009B98
:1035D000DA0133D4009B1B0232D4009B5D02CED4AF
:1035E000009B9C022ED4009BD9022DD4009B1A0371
:1035F0002CD4009B5B032BD4009B9D032AD4009BFF
:10360000DC0329D4009B190428D4009B5A0427D436
:10361000009B9B0426D4009B13F0080F0CBF0020D6
:103620001A2020E01C201EE009201CE00A201AE0DD
:103630000B2018E00C2016E00D2014E00E2012E004
:103640000F2010E011200EE012200CE013200AE001
:10365000142008E0152006E0162004E0172002E000
:10366000182000E0192003B030BD70B506460D46A5
:103670004FF47040C1F2000003F09EFF40F244445A
:10368000C4F202040021204603F073FF41F6EC610E
:10369000C2F200014E6000238B60AD08CD60204671
:1036A00003F049FF01212046BDE8704003F061BFEF
:1036B00070B506460D464FF47040C1F2000003F0AD
:1036C0007BFF40F24444C4F202040021204603F090
:1036D00050FF41F6EC61C2F200014E6010238B6096
:1036E000AD08CD60204603F026FF01212046BDE84D
:1036F000704003F03EBF38B505464FF40043C4F2B6
:103700000103586B10F0450FFBD0410704D504208E
:1037100004F0CAF8032038BD10F0010404D00120E1
:1037200004F0C2F8012038BD04F08DF8A84201D0A1
:10373000102038BD40F2FF5004F0B6F8204604F0E7
:1037400089F84EF20803CFF6FF5303404BB300282D
:1037500029DB420029D4830029D4C50029D40401DF
:1037600029D4410129D4C20129D4030229D4450214
:10377000DED4840227D4C10227D4020327D4430312
:1037800027D4850327D4C40327D4010427D44204B3
:1037900027D4830427D410F0080F0CBF00201A2070
:1037A00038BD184638BD1C2038BD092038BD0A2058
:1037B00038BD0B2038BD0C2038BD0D2038BD0E2083
:1037C00038BD0F2038BD112038BD122038BD132060
:1037D00038BD142038BD152038BD162038BD17203F
:1037E00038BD182038BD192038BD2DE9F7430646ED
:1037F00000230093019341F68075C2F200054FF05B
:103800000809C5F8009010246C604FF04008C5F816
:103810000880EB604FF480672F61284603F0FDFFBE
:103820002046FFF768FF00287FD141F61873C2F2E7
:1038300000031B68A3402B6037246C60C5F8088028
:10384000E8602F61284603F0E8FF2046FFF753FFAA
:103850000446002868D141F63840C2F200006FF0FB
:103860007F4380E80802302383600223C360046141
:103870000123436103F0FBFF2C604FF03309C5F8CF
:103880000490C5F80880EC602F61284603F0C5FF5E
:103890004846FFF730FF002847D1ADF104054FF44B
:1038A0000044C4F20104626B40F22A63134053B92E
:1038B0004FF4001004F008F80028F4D003F0EDFFF6
:1038C00045F8040FEFE7082003F0FEFF20B10820C1
:1038D00003F0EAFF042028E0022003F0F5FF20B106
:1038E000022003F0E1FF02201FE0202003F0ECFFA4
:1038F00020B1202003F0D8FF062016E04FF400701E
:1039000003F0E2FF044628B14FF4007003F0CCFF4F
:1039100007200AE040F2FF5003F0C6FF009B1BBAED
:103920007360019B1BBA3360204603B0BDE8F0838F
:10393000F7B5044600200090019003F08BFF810151
:1039400056D46846FFF751FF41F66043C2F20003C8
:10395000009A1A60019A5A6000284CD1012C1ED19D
:10396000520347D541F68074C2F2000441F6187341
:10397000C2F200031B681B042360372565604027E3
:10398000A760E0604FF480662661204603F045FFA3
:103990002846FFF7B0FE70BB022323601CE0D30370
:1039A00028D541F68074C2F2000441F61873C2F2C1
:1039B00000031B681B042360372565604027A76050
:1039C000E0604FF480662661204603F026FF28461B
:1039D000FFF791FE78B9206006256560A760E0607A
:1039E0002661204603F019FF2846FFF784FE02E017
:1039F0000E2000E0252003B0F0BD38B5054641F6A5
:103A00008070C2F2000041F61873C2F200031B6816
:103A10001B0403600D244460402383600023C360C3
:103A20004FF48063036103F0F8FE2046FFF763FE66
:103A3000044610B903F00EFF2860204638BD07B5D4
:103A40000023019301238DF803309DF80330012BEF
:103A500001D0FF2007E001A8FFF7CFFF0028F8D131
:103A60000198C0F3432003B05DF804FB08B5FFF7ED
:103A7000E6FF042804D0FF280CBF0220012008BD67
:103A8000002008BD2DE9F34700258DF8075041F6C9
:103A9000D460C2F20000B223037505604560856002
:103AA000C560056103F07CFE032003F096FE012053
:103AB00003F08EFE41F68074C2F20004256065605A
:103AC000A560E5604FF480662661204603F0A5FE00
:103AD000FFF7D4FC8DF807009DF8073003F0FF05D1
:103AE000002B40F02D814FF4D5700823402784E847
:103AF0008900E5602661204603F08FFE4FF4004305
:103B0000C4F201035A6B4FF4803112F0450F03D118
:103B100029B101395A6BF8E709B1510704D50420DE
:103B200003F0C2FE032504E0520602D5402003F054
:103B3000BBFE8DF807509DF8073043B941F6BC63D2
:103B4000C2F2000301221A604FF0804618E0002301
:103B500023606360A360E3604FF48063236141F6F8
:103B60008070C2F2000003F058FEFFF787FC8DF86A
:103B700007009DF8073003F0FF06002B40F0E080BF
:103B800041F68075C2F2000500274FF0370984E83E
:103B900080024023A360E7604FF48068C4F810807F
:103BA000284603F03AFE4846FFF7A5FD8DF80700CA
:103BB0009DF8073003F0FF02002B56D1174646F060
:103BC000104646F4801600234FF0370A84E80804B4
:103BD0004FF04009C4F80890E3604FF48068C4F8DF
:103BE000108041F68070C2F2000003F016FE5046CD
:103BF000FFF781FD8DF807009DF8073003F0FF0205
:103C0000002B40F09D802E6029236B60C5F8089042
:103C1000EA60C5F8108041F68070C2F2000003F03F
:103C2000FCFDFFF73CFC8DF807009DF8073003F022
:103C3000FF00002B40F0848003F00CFE41F69473EB
:103C4000C2F200031860013700284FF6FF7302DB51
:103C50009F42B8D166E09F4264D0430070D541F6E0
:103C6000BC63C2F20003022269E04FF0F03385E842
:103C70008800AF60EF60C5F81080284603F0CDFDE6
:103C8000FFF7FCFB8DF807009DF8072002F0FF030B
:103C9000002A55D12B606B60AB60EB60C5F81080DB
:103CA000284603F0BAFDFFF7E9FB8DF807009DF801
:103CB000073003F0FF05002B42D14FF40048CCF24F
:103CC000FF0841F69477C2F20007C4F800804FF075
:103CD0000109C4F804904023A3600023E3604FF47B
:103CE0008063236141F68070C2F2000003F095FD0D
:103CF000FFF7D5FB8DF807009DF8073003F0FF00B4
:103D0000F3B903F0A7FD0646386001354846FCF7D5
:103D10003AFC002E4FF6FF7302DB9D42D5D101E045
:103D20009D4203D11B238DF8073009E016F0804F28
:103D300041F6BC63C2F2000314BF072203221A60DB
:103D40009DF80700C0B202B0BDE8F08738B503F0B7
:103D50004AFD002800F0A48041F6BC64C2F20004D1
:103D60002368042B27D041F68070C2F200000023A4
:103D7000036002224260C0228260C3604FF480630D
:103D8000036103F04AFDFFF7A1FB002840F08A80A1
:103D900003F060FD41F6C065C2F200052860042012
:103DA00003F058FD6860082003F054FDA8600C2063
:103DB00003F050FDE8602368032B02D9053B022B7A
:103DC0003CD841F68070C2F2000000230360032259
:103DD000426040228260C3604FF48063036103F05D
:103DE0001CFD4FF40043C4F20103586B10F0450F63
:103DF000FBD0450704D5042003F056FD032038BD51
:103E000010F0010504D0012003F04EFD012038BD63
:103E100003F019FD03284AD140F2FF5003F044FD9E
:103E2000284603F017FD10F4604F01D1030C06E0A3
:103E300081043ED442043AD403043CD401232268D2
:103E4000042A30D041F61872C2F20002136041F623
:103E50008070C2F200001B04036009234360C0238A
:103E600083600023C3604FF48063036103F0D5FCDB
:103E7000FFF72CFB0446C0B903F0ECFC41F65045BB
:103E8000C2F200052860042003F0E4FC686008200A
:103E900003F0E0FCA8600C2003F0DCFCE86004E028
:103EA000252038BD38BD002038BD204638BD102043
:103EB00038BD132038BD0F2038BD2DE9F04341F641
:103EC000BC63C2F200031D6880F8565041F61873B7
:103ED000C2F200031B68A0F8543041F65044C2F20D
:103EE00000042368190ECAB296090670C1F3830153
:103EF000417002F003028270C3F30742C270C3F341
:103F000007220271DBB243716268130E1B01C3808A
:103F1000C2F30741C3889BB243EA1113C38001F087
:103F20000F010172110ACBB2DE094672C1F380168D
:103F30008672C1F34016C672C1F3001606730026DE
:103F40004673012D23D9022D1FD1120402F47C12D5
:103F50000261A3680269190E42EA01220261026944
:103F6000C3F307410A430261C3F30723066900272D
:103F7000013647F10007FA0442EA5632C264F604F9
:103F800086644FF4007202656DE0032D41D1890211
:103F900001F4406101610369920002F47F721A43E7
:103FA0000261A368190ECAB2066946EA9216066152
:103FB000C1F3C201017502F0070242751A0CC2F387
:103FC00042118175C2F38201C175520002F00602EE
:103FD0000276C3F30723027E42EAD3120276D0F8B8
:103FE00010E0067E027A012101FA02F20265023631
:103FF00001FA06F64FEAE679A6FB026702FB0977AB
:104000000EEB0102A6FB028902FB0799C0E91289A7
:1040100029E0072D27D1890201F44061016103697C
:10402000920002F47F721A430261A368190ECAB2A9
:10403000066946EA92160661C1F3C201017502F0F3
:10404000070242751A0CC2F342118175C2F3820154
:10405000C175520002F006020276C3F30723027E06
:1040600042EAD3120276C3F3801242765B0003F079
:104070007E038376237A827E42EAD312827603F02D
:104080007F03C376E268130ED9090177C3F34111A8
:104090004177C3F3820181779B0003F00C03C37760
:1040A000110CCBB2C47F44EA9314C477C1F340111E
:1040B00080F82010002480F8214003F0010380F8EC
:1040C0002230130AD9B2CE0980F82360C3F38016D8
:1040D00080F82460C3F3401680F82560C3F300160F
:1040E00080F82660C3F3810380F8273001F00301D4
:1040F00080F82810C2F3460280F82920012180F8B8
:104100002A10022D50D841F6C062C2F20002136894
:104110001C0E80F82C40C3F307442402C485C48DD0
:10412000A5B2C3F307242C43C4851B06036353685D
:10413000046B1D0E44EA05440463056B1C0A04F479
:104140007F442C430463046BC3F307252C430463AF
:10415000DBB280F8343093681C0E80F835401C0CBC
:1041600024068463856B1C0204F47F042C4384635F
:10417000846B1B0203F47F4323438363D368826B06
:1041800042EA136282631A0C90F83C50C2F30314A3
:104190002C4380F83C40120202F47062C287C28F46
:1041A00094B2C3F3072252E025F00405032D56D143
:1041B00041F6C062C2F2000213681D0E80F82C5056
:1041C000C3F307452D02C585C58DAEB2C3F30725E0
:1041D0003543C5851B0603635368056B1E0E45EA10
:1041E00006450563066B1D0A05F47F4535430563E7
:1041F000056BC3F307232B43036380F834409368B4
:1042000090F8344044EA136480F83440C3F3074420
:1042100080F835401C0A24068463846B1B0403F475
:104220007F0323438363D368826B1C0E42EA04221C
:104230008263826BC3F30744224382631A0A140128
:1042400004F0F004C487C48FA4B2C2F30312224363
:10425000C287C3F3460380F8403080F84110002045
:10426000BDE8F0832DE9F041054641F6BC63C2F29A
:1042700000031B6823F00402032A01D0052B79D127
:10428000B5F5805F00F09F80B5F5006F61D141F614
:104290002073C2F200035B78032B49D9002003F09E
:1042A000D9FA10F0007040F0918041F68074C2F2AB
:1042B00000044FF40063C0F2BB332360062666603F
:1042C0004FF04008C4F80880E0604FF48067276131
:1042D000204603F0A2FA0120FCF755F93046FFF71B
:1042E0000AFA002873D14FF48073C0F2B93384E81E
:1042F0004801E0602761204603F08FFA0120FCF7B7
:1043000042F93046FFF7F7F9002860D14FF4807387
:10431000C0F2B73384E84801E0602761204603F02B
:104320007CFA0120FCF72FF93046FFF7E4F92CE086
:1043300041F6D460C2F20000022303750024046039
:1043400044608460C460046103F02AFA2046BDE83A
:10435000F081002003F07EFA830137D43720FFF785
:10436000CAF904460028F1D141F6D460C2F2000037
:10437000022323E0022B23D8B0F5805F23D0B0F5D1
:10438000006F10D10120FFF7D3FA04460028DDD1D9
:1043900041F6D460C2F2000001230375046044605A
:1043A0008460C560CFE70020FFF7C2FA044600280A
:1043B000CCD141F6D460C2F2000001230375BEE700
:1043C0000020BDE8F0812720BDE8F0810E20BDE887
:1043D000F08110B541F68073C2F200031860072423
:1043E0005C6040229A600022DA604FF480621A61B9
:1043F000184603F012FA2046BDE81040FFF77BB9DB
:104400002DE9F043ADF5077DFFF7A0FC0446002839
:1044100040F0C98041F6D460C2F200000125057564
:10442000046044608460C460046103F0B9F931231E
:104430008DF804308DF805408DF806408DF8075052
:1044400001A802F049FD41F62075C2F20005284698
:10445000FFF733FD044630B9B5F854000004214697
:10446000FFF7B7FF044641F6BC63C2F200031B68C6
:10447000072B40F092806B78032B40F28E8041F640
:104480003840C2F200006FF07F414FF40072902379
:10449000022680E84E00002606610123436103F0F6
:1044A000E6F941F68070C2F2000006600827476016
:1044B00040238360C6604FF48063036103F0ADF96D
:1044C0003846FFF718F900284AD10DEB07064FF4DC
:1044D0000048C4F20108D8F8342040F22A6313409F
:1044E00083B94FF4004003F0EFF90028F3D0371FF1
:1044F00006F11C0903F0D1F947F8040FB945F9D1C9
:104500002036E8E7082003F0DFF908B1082025E0AD
:10451000022003F0D9F908B102201FE0202003F0A7
:10452000D3F908B1202019E04FF4007003F0CCF962
:1045300018B906F18067043F08E04FF400700DE001
:10454000B74209D003F0A9F946F8040B4FF4001064
:1045500003F0BAF90028F3D140F2FF5003F0A4F9B8
:104560002A7A012393402B659DF8DF309DF8DE10F9
:104570009DF8DD009DF8DC20090441EA0363134344
:1045800043EA0023DA0DEA645B02AB649DF8C820BD
:1045900041F69873C2F200031A7024B94FF4006018
:1045A000FFF760FE00E020460DF5077DBDE8F083D3
:1045B00007B50121B02002F052FE4FF4F853ADF8D8
:1045C000043003238DF8063018238DF8073001A935
:1045D0004FF48050C4F2010002F0D0FC0423ADF887
:1045E00004300DEB03014FF4A050C4F2010002F0BF
:1045F000C5FC01214FF4806002F025FE012102205C
:1046000002F021FE41F6EC63C2F2000348F28002A0
:10461000C4F201021A6000225A609A60DA601A61DC
:10462000802159614FF4007199614FF40061D961A3
:104630001A624FF4005159629A6203F09EF8FFF734
:1046400021FA08B9FFF7DCFE03B05DF804FB2DE9A1
:10465000F04F85B0009090469946BDF838B041F6CD
:104660007877C2F2000700200021C7E9000141F677
:104670003446C2F200060024347041F6D065C2F21E
:1046800000052C604FF40043C4F20103DC622046B5
:1046900003F0BDF8204603F0DDF810F0007F01972D
:1046A000029540F08E8041F6BC63C2F200031B68A5
:1046B000022B01D0072B05D14FEA582848EAC958E8
:1046C0004FF4007B0BF1FF318BB2B3F5006F7AD260
:1046D00011EA0B0177D15F46481C012F03D0C7F3C5
:1046E0004F070146F8E7039141F68075C2F20005D5
:1046F000C5F800B010246C604FF0400AC5F808A05F
:104700000020E8604FF48069C5F81090284603F057
:1047100084F82046FEF7EFFF04460399002853D1A2
:1047200041F63840C2F200006FF07F4380E808088D
:10473000090101F47F6181600221C1600461476168
:1047400003F095F81FFA8BF00021019BC3E90001EB
:1047500041F69C71C2F200010C60394640F22A30E9
:1047600003F049F8384603F052F859460098FEF72E
:104770007CFFC5F8008011276F60C5F808A0EC60C9
:10478000C5F81090284603F048F83846FEF7B3FF06
:10479000D0B94FF40050C1F2000002F002FF28B976
:1047A000029B1B6813B93378002BF2D041F63443D7
:1047B000C2F20003327802F0FF002AB11878C0B2CA
:1047C00002E00E2000E0262005B0BDE8F08F2DE9C4
:1047D000F74F009090461E46BDF8309041F6787530
:1047E000C2F2000500200021C5E9000141F634476E
:1047F000C2F2000700243C7041F6D062C2F200020F
:1048000014604FF40042C4F20102D462204602F068
:10481000FEFF204603F01EF810F0007F019540F0E7
:104820009B8041F6BC62C2F200021268022A01D0EB
:10483000072A05D14FEA582848EAC6584FF40079AC
:1048400009F1FF36B2B2B2F5006F01D3262084E041
:1048500016EA0906FAD1CB46701CBBF1010F03D052
:10486000CBF34F0B0646F7E741F68075C2F2000521
:10487000C5F8009010246C604FF0400AC5F808A0FD
:104880000020E8604FF480632B61284602F0C5FFEA
:104890002046FEF730FF044600285ED10D9809FB44
:1048A00000F3B3F1007FD1D218460021019AC2E98A
:1048B000000141F63840C2F200006FF07F4180E80D
:1048C0000A000193360106F47F6686600221C1600A
:1048D0000461C0F814B002F0CAFF41F69C71C2F244
:1048E0000001C1F800B0594640F22A3002F083FFBF
:1048F000584602F08CFF019B19460098FEF7B5FE62
:10490000C5F8008012266E60C5F808A0EC604FF470
:1049100080632B61284602F080FF3046FEF7EBFEF5
:10492000D8B941F6D064C2F200044FF40050C1F28D
:10493000000002F036FE20B9236813B93B78002B43
:10494000F3D041F63443C2F200033A7802F0FF009C
:104950001AB11878C0B200E00E2003B0BDE8F08FA5
:104960002DE9F04F89B0029091469A46BDF8486013
:1049700000258DF81B50079541F63447C2F2000719
:104980003D7041F6D06BC2F2000BCBF8005041F6FF
:104990007878C2F2000800220023C8E9002341F61B
:1049A0003844C2F200046FF07F4384E82800A56019
:1049B000E56025616561204602F059FF284602F056
:1049C00026FF284602F046FF10F0007F0197CDF841
:1049D0000CB0CDF8108040F0EE8041F6BC63C2F21E
:1049E00000031B68022B01D0072B05D14FEA592980
:1049F00049EACA594FF40076751EABB2B3F5006FA1
:104A000080F0DB80354040F0D88033466A1C012BB3
:104A100003D0C3F34F031546F8E741F68078C2F29E
:104A20000008C8F800601027C8F804704FF0400B69
:104A3000C8F808B00023C8F80C304FF48062C8F8FA
:104A400010200592404602F0E8FE3846FEF753FE7D
:104A50004746059A002840F0B68041F61878C2F221
:104A60000008D8F80010090439604FF00D0AC7F8A3
:104A700004A0C7F808B0F8603A61384602F0CDFEED
:104A80005046FEF738FE0246002840F0988002F0BB
:104A9000E1FE6FF07F42079210F480701CD1079AFC
:104AA000D2B1079A013A0792D8F80020120487E899
:104AB000040CF8604FF480623A6141F68070C2F2F3
:104AC000000002F0AAFE0D20FEF715FE02460028A7
:104AD00075D102F0BFFEDFE7079A002A71D041F6D8
:104AE0009C72C2F200024FF00008C2F8008001215F
:104AF00040F21A3002F07FFE012002F088FE3146BB
:104B00000298FEF7D5FDC7F800904FF01809C7F8D6
:104B100004904022BA60C7F80C804FF480623A617A
:104B200041F68070C2F2000002F077FE4846FEF7C0
:104B3000E2FD002847D1B2B200230499C1E9002365
:104B40006FF07F4384E848002D0105F47F65A56080
:104B5000E06020610123636141F63840C2F2000049
:104B600002F085FE4FF40050C1F2000002F019FD82
:104B700030B9039B1B681BB9019B1B78002BF1D03C
:104B800041F63443C2F20003019A127802F0FF04A6
:104B900012B11C78E4B217E040F2FF5002F084FE3C
:104BA0000DF11B00FEF7B0FC68B99DF81B30063B09
:104BB000012BF5D908E00E2406E0262404E0144673
:104BC00002E0292400E00446204609B0BDE8F08F49
:104BD0002DE9F04F89B0019017469946BDF848502D
:104BE00000248DF81B40079441F63446C2F20006BB
:104BF000347041F6D06AC2F2000ACAF8004041F6A9
:104C00007878C2F2000800220023C8E9002341F6A8
:104C10003840C2F200006FF07F4380E818008460E3
:104C2000C4600461446102F022FE204602F0EFFD00
:104C3000204602F00FFE10F0007FCDF808A0CDF85E
:104C40000C8040F00F8141F6BC63C2F200031B6888
:104C5000022B01D0072B04D17F0A47EAC9574FF432
:104C600000756C1EA3B2B3F5006F01D32624FCE0DF
:104C70002C40FBD12B46621C012B03D0C3F34F0306
:104C80001446F8E741F6807BC2F2000BCBF80050E7
:104C90004FF01008CBF804804FF0400ACBF808A082
:104CA0000022CBF80C204FF48069CBF810905846C6
:104CB00002F0B3FD4046FEF71EFDD846002840F046
:104CC000D38041F61872C2F20002116805920904FD
:104CD000CBF800100D21CBF804100491CBF808A0FC
:104CE000CBF80C00CBF81090584602F096FD0499D2
:104CF0000846FEF700FD002840F0B680139B5D4398
:104D0000B5F1007F059AB1D241F6BC61C2F2000153
:104D10000968022946D92A4600230399C1E90023DC
:104D200041F69C73C2F200034FF00109C3F80090F2
:104D3000494640F21A3002F05EFD484602F067FD37
:104D400029460198FEF7B4FCC8F800701927C8F886
:104D500004704023C8F808300023C8F80C304FF422
:104D60008063C8F8103041F68070C2F2000002F093
:104D700054FD3846FEF7BFFC002875D141F6384394
:104D8000C2F200036FF07F4283E82400240104F4A0
:104D90007F649C60D8601861C3F81490184602F0D4
:104DA00066FD32E012681204CBF800203722CBF8FF
:104DB00004200492CBF808A0CBF80C00CBF810909C
:104DC000584602F02AFD049A1046FEF794FC00288B
:104DD0004AD1139BCBF800301722CBF80420049261
:104DE000CBF808A0CBF80C00CBF81090584602F096
:104DF00014FD049A1046FEF77EFC00288BD033E0A9
:104E0000029B1B684BB933783BB94FF40050C1F299
:104E1000000002F0C6FB0028F2D041F63443C2F293
:104E20000003327802F0FF0412B11878C4B21CE01B
:104E300040F2FF5002F038FD07944FF6FE72079BD8
:104E4000934208D8079B01330793F8E79DF81B307E
:104E5000063B012B09D80DF11B00FEF755FB00287E
:104E6000F4D001E00E2400E00446204609B0BDE87D
:104E7000F08F10B541F68070C2F2000000230C24C0
:104E800080E8180040228260C3604FF480630361B1
:104E900002F0C3FC2046BDE81040FEF72CBC2DE913
:104EA000F8430646002002F0D5FC10F0007040F0F8
:104EB000B38041F68075C2F2000540272F601024B0
:104EC0006C60AF60E8604FF48068C5F810802846D9
:104ED00002F0A3FC2046FEF70EFC002840F09F8065
:104EE00041F61873C2F200031B68A3402B603724FD
:104EF0006C60AF60E860C5F81080284602F08DFC59
:104F00002046FEF7F8FB0446002840F0888041F672
:104F10003840C2F200006FF07F4380E888006023D1
:104F200083600223C36004610123436102F09FFC9C
:104F30002C604FF00D09C5F80490AF60EC60C5F827
:104F40001080284602F069FC4846FEF7D4FB002892
:104F500065D14FF40045C4F201056A6B40F22A6343
:104F6000134083B94FF4004002F0AEFC0028F4D0A7
:104F7000341F06F11C0702F090FC44F8040FBC42F9
:104F8000F9D12036E9E7082002F09EFC28B108207C
:104F900002F08AFC0420BDE8F883022002F094FCB1
:104FA00028B1022002F080FC0220BDE8F883202016
:104FB00002F08AFC28B1202002F076FC0620BDE831
:104FC000F8834FF4007002F07FFC18B906F180649A
:104FD000043C0CE04FF4007002F066FC0720BDE8D2
:104FE000F883A64209D002F058FC46F8040B4FF4AF
:104FF000001002F069FC0028F3D140F2FF5002F0EB
:1050000053FCA6F140031A6812BA43F8042BB342CA
:10501000F9D10020BDE8F8830E20BDE8F883BDE893
:10502000F88338B54FF4807002F044FC044640B376
:1050300041F69C73C2F200031B68012B41F6344415
:10504000C2F2000403D1FFF714FF207001E0002337
:1050500023704FF4807002F039FC00214CF23A309A
:1050600002F0C9FB41F6D063C2F2000301221A60CC
:1050700041F6B843C2F2000300221A602078C0B2A1
:1050800038BD022002F016FC054690B1022002F065
:105090001DFC21464CF23A3002F0ADFB41F6B8431C
:1050A000C2F200031C6041F63443C2F20003022046
:1050B0005FE0082002F0FEFB044690B1082002F0F9
:1050C00005FC29464CF23A3002F095FB41F6B84314
:1050D000C2F200031D6041F63443C2F20003042013
:1050E00047E0202002F0E6FB054690B1202002F0C8
:1050F000EDFB21464CF23A3002F07DFB41F6B8431D
:10510000C2F200031C6041F63443C2F200030620E1
:105110002FE0102002F0CEFB044690B1102002F0E8
:10512000D5FB29464CF23A3002F065FB41F6B84314
:10513000C2F200031D6041F63443C2F200030520B1
:1051400017E04FF4007002F0B5FB98B14FF4007017
:1051500002F0BCFB21464CF23A3002F04CFB41F627
:10516000B843C2F200031C6041F63443C2F20003AC
:105170000720187038BDFFF754BF38B5044641F614
:105180007845C2F200052846FFF789FE002834D191
:105190002B789B0923702B78C3F340136370AB7893
:1051A0001B02638063889AB2EB78134363802B7988
:1051B0001B06636063686A7943EA0243636063685D
:1051C000AA7943EA022363606368EA791343636060
:1051D0002B7A23726B7A6372AB7A1B09A372EB7A18
:1051E0001B02A381A3899AB22B7B1343A3816B7B00
:1051F0009A08A27303F00303E37338BD08B558B9E6
:10520000FFF7D6F941F69973C2F2000318701878C7
:10521000003018BF012008BD012008BD10B50123D2
:1052200070B940F22404C2F200042370FEF71EFCA1
:1052300018B9237803F0FE0323702078C0B210BDA4
:10524000184610BD2DE9F3411C46002840D141F617
:105250009975C2F2000528708B0721D0A7180E4659
:105260001446A846BC422ED02B7803F0FF0253BB55
:1052700000926202E30D41F6BC40C2F20000FFF76B
:10528000E6F988F800004FF4007241F6BC41C2F222
:105290000001304603F07CFE013406F50076E1E7BC
:1052A000012C4FEAD2534FEA42224FF4007004D14E
:1052B00000900846FFF7CBF904E08DE8110008469E
:1052C000FFF785FA28702878003018BF012000E029
:1052D000042002B0BDE8F0812DE9F7431C46002808
:1052E00041D141F69975C2F2000528708B0722D092
:1052F000A71814460E46A946BC422FD02B7803F0BF
:10530000FF085BBB4FF40072314641F6BC40C2F26D
:10531000000003F03DFECDF800806202E30D41F68F
:10532000BC40C2F20000FFF71BFB89F8000006F545
:1053300000760134E0E7012C4FEAD2534FEA4222D3
:105340004FF4007004D100900846FFF709FB04E019
:105350008DE811000846FFF73BFC287028780030E4
:1053600018BF012000E0042003B0BDE8F08338B589
:105370000C461546002840F0E48041F6BC63C2F2BA
:1053800000031B68022B05D841F66840C2F20000FA
:10539000FFF7F3FE332C00F0AA8016D8022C48D079
:1053A0000ED8002C43D0012C40F0CB8041F6207366
:1053B000C2F20003DA6C9B6C5B0A43EAC25335E02D
:1053C000032C1FD0322C75D0BBE0362C00F0A78008
:1053D0000CD8342C00F09080352C40F0B28041F68F
:1053E0009473C2F200031B681BBA1FE0372C00F055
:1053F0009D80382C40F0A58041F69873C2F20003DE
:105400001B786AE041F62073C2F2000393F856005D
:10541000431E012B31D841F66842C2F20002937A52
:105420000A2B13460CD8927A102393402B6000204D
:1054300038BD41F62073C2F200031B6D2B80F6E7E6
:10544000927A0B2A02D09A7A0C2A06D19B7A03F51B
:10545000FF2303F5FF635B03E8E79A7A0D2A02D086
:105460009A7A0E2A06D19B7A03F57F3303F2F6333C
:105470009B03DBE74FF40033D8E741F65041C2F21B
:1054800000018B6850B9C3F3C6135A1CCB68C3F331
:105490008153013B02FA03F32B6038BDD90001F0C0
:1054A0001801C3F342121144C3F38422531C01FBBD
:1054B0000333BBE741F62073C2F2000393F8563082
:1054C000072B10D8DFE803F00406080B0F0B0F0DB5
:1054D000022302E0042300E00C232B70A7E7012342
:1054E000FBE70923F9E700232B70184638BD41F686
:1054F0005043C2F2000303E041F6C063C2F200036E
:105500001A6812BA2A605A6812BA6A609A6812BA9D
:10551000AA60DB6843F001031BBAEB6087E728460B
:10552000FFF7BDFC003018BF012038BD41F66043D5
:10553000C2F200035A6812BA2A601B681BBA6B6079
:1055400075E7042038BDF0B58BB0074640F6443609
:10555000C2F200066846FBF760FB35466C460FCC8E
:105560000FC50FCC0FC523682B603368FB717368C0
:10557000BB71B3687B71F368FB7033690133BB7037
:1055800073693B8001200BB0F0BD08B50120FBF72B
:1055900055F945F64043C4F2000301221A60002089
:1055A000186045F64442C4F20002106042F27432C0
:1055B000C2F200024FF4E0511180196008BD73B5CA
:1055C0000021019145F64043C4F200031A6892B2EB
:1055D00041F6A874C2F2000401F1805000F5B85001
:1055E0008000006880B244F821000131082941F6AA
:1055F000A876C2F20006EFD142F48061196041F052
:105600000101196022F0010292B242F48061196036
:1056100045F64441C4F20001086810F4806F45F675
:105620004444C4F20004F7D04FF6FF31216000215A
:1056300001F1805000F5B850800056F82150ADB20D
:10564000056001310829F3D142F481621A601A68B9
:1056500092B242F004021A604FF4E041C4F2000139
:105660000A6801920A6822F0030242F001020A600D
:105670004FF46D42CEF20002106940F00400106158
:105680002068C00401D430BF09E04EF6FF702060EE
:105690001C684FF6F77020401860019B0B6013697F
:1056A00023F00403136102B070BD10B545F6404409
:1056B000C4F2000422684FF6FB7313402360FBF72B
:1056C000CBF84FF40643236010BD10B5072841F610
:1056D000A074C2F2000418BF20702378052B56D89E
:1056E000DFE803F0030E191D2A3841F6C873C2F231
:1056F00000031B6813B9FFF7D8FF48E0052347E014
:10570000FFF7D3FF0423237041F6C873C2F20003EE
:1057100001221A6010BD02236370032338E041F6B2
:10572000A072C2F200026378013BDBB2637063785F
:105730007BBB0423137010BD45F64042C4F2000247
:1057400013689BB243F010031360052323700A23F0
:10575000637010BD41F6A072C2F200026378013B93
:10576000DBB26370637803F0FF0093B945F6404302
:10577000C4F200031C684FF6EF7121401960062344
:10578000137041F6C873C2F20003186010BD0623FF
:10579000237010BD80B500AF41F6D473C2F2000390
:1057A0001B68984700BF80BD70B588B045F644447B
:1057B000C4F2000423689BB241F6D875C2F200051A
:1057C0002B802A8842F27436C2F2000633881340D6
:1057D00098050CD54FF6FF53236041F6D072C2F204
:1057E000000213780133DBB2137000F0DFF82A886F
:1057F00033881340190401D502F007FE2A88338844
:1058000013405A0508D54FF6FF33236040F2880352
:10581000C2F200035B6898472A88338813409B04D0
:1058200044BF4DF6FF7323602A8833881340D804A1
:1058300005D54EF6FF7323600020FFF746FF2A8848
:105840003388134019050ED540F22503C2F2000338
:105850001B7813B1FFF7B3FE02E00220FFF735FF1C
:105860004FF2FF7323602A8833881340DA055DD531
:105870004FF6FF63236045F64843C4F200031B68FC
:1058800013F4004341F6DC70C2F200004AD0036812
:10589000013303600368032B45D945F64045C4F244
:1058A00000052A6812F008023DD1296889B241F644
:1058B000CC73C2F20003196002F1805101F5B851B6
:1058C0008900096889B208AE06EB820646F8201CFA
:1058D0000132082AF0D11A6842F001021A601A68EF
:1058E00092B22A601A6822F001021A601B689BB209
:1058F0002B6023685B05FCD54FF6FF332360002344
:1059000003F1805202F5B852920008A901EB83011D
:1059100051F8201C89B211600133082BF0D100230B
:10592000036000E003600720FFF7CFFE08B070BD02
:1059300070B545F64441C4F200010A6892B241F6DE
:10594000D873C2F200031A801C8842F27432C2F289
:1059500000021088204010F4004F0E461C461546E9
:1059600001D002F052FD22882B8813405B050AD536
:105970004FF6FF33336040F28803C2F200035B68E6
:10598000BDE87040184770BD41F6E473C2F20003F1
:105990001B68184741F6E873C2F200031B681847FA
:1059A00041F6E073C2F200031B68184741F6EC733E
:1059B000C2F200031B68184742F23403C2F200032C
:1059C0001B68184741F6F873C2F200031B681847BA
:1059D00042F22403C2F200031B68184742F2380364
:1059E000C2F200031B68184742F23003C2F2000300
:1059F0001B68184742F20003C2F200031B681847F5
:105A000041F6F073C2F200031B68184742F2080324
:105A1000C2F200031B68184742F20C03C2F20003F3
:105A20001B68184742F21003C2F200031B681847B4
:105A300042F20403C2F200031B68184742F220033B
:105A4000C2F200031B68184741F6F473C2F2000368
:105A50001B68184742F22C03C2F200031B68184768
:105A600041F6FC73C2F200031B68184742F21C03A4
:105A7000C2F200031B68184742F22803C2F2000377
:105A80001B68184742F21403C2F200031B68184750
:105A9000FFF7F8BF42F24C33C2F200039B7A2BB1FE
:105AA00041F6A473C2F2000305221A60704741F662
:105AB000A473C2F2000304221A607047704710B545
:105AC00021280BD142F26C33C2F200031B681B7811
:105AD00003F07F03212B19D0022010BD2028FBD119
