:020000040800F2
:10000000000001202D830008AB050008AD050008A5
:10001000AF050008B1050008B305000800000000A6
:10002000000000000000000000000000B50500080E
:10003000B705000800000000B9050008BB0500086E
:10004000798300087983000879830008F1050008A6
:100050007983000879830008798300087983000890
:100060007983000879830008798300087983000880
:100070007983000879830008798300087983000870
:10008000798300087983000879830008E90500086E
:10009000ED0500087983000879830008798300085A
:1000A0007983000879830008798300087983000840
:1000B0007983000879830008798300087983000830
:1000C0007983000879830008798300087983000820
:1000D00079830008798300084319000879830008B0
:1000E0007983000879830008798300087983000800
:1000F00079830008798300087983000879830008F0
:1001000079830008C14B00087983000879830008CF
:1001100079830008798300087983000879830008CF
:1001200079830008798300087983000879830008BF
:1001300000000000000000000000000000000000BF
:1001400000000000000000000000000000000000AF
:10015000000000000000000000000000000000009F
:10016000000000000000000000000000000000008F
:10017000000000000000000000000000000000007F
:10018000000000000000000000000000000000006F
:10019000000000000000000000000000000000005F
:1001A000000000000000000000000000000000004F
:1001B000000000000000000000000000000000003F
:1001C000000000000000000000000000000000002F
:1001D000000000000000000000000000000000001F
:1001E0005FF8E0F137B500230093019300F0A1FA26
:1001F0004FF47A7000F080F9019B022B1DDC4FF464
:100200007A7000F0C5F94FF4C050C4F2010020210B
:1002100006F061FB04464FF4C050C4F201004021D7
:1002200006F059FB204310F0FF0F02D10123009389
:1002300003E0019B01330193DEE7009B40F2306451
:10024000C2F2000441F2A035C2F200054BB140F603
:100250008763C0F60003236041F68D03C0F60003F8
:1002600091E04FF4C050C4F20100402106F033FB8E
:1002700000283FD040F23463C2F2000302221A6029
:1002800041F29D53C0F60003236041F26353C0F670
:1002900000032B6041F21C73C2F2000345F2197295
:1002A000C0F600021A6041F21873C2F2000347F66A
:1002B0003B42C0F600021A6041F22073C2F2000312
:1002C00045F2FB72C0F600021A6041F22473C2F2DA
:1002D000000345F66102C0F600021A6041F20C7399
:1002E000C2F2000344F6FD72C0F600021A6005F087
:1002F00079F949E04FF4C050C4F20100202106F022
:10030000EAFA41F68D03C0F60003B8B340F2346256
:10031000C2F200020121116041F24162C0F6000206
:1003200022602B6041F21C73C2F2000346F2770296
:10033000C0F600021A6041F21873C2F2000346F2DE
:10034000EF22C0F600021A6041F22072C2F20002EF
:1003500047F63B43C0F60003136041F22472C2F239
:100360000002136041F20C73C2F2000345F28112E5
:10037000C0F600021A6006F06FF905E040F68762E9
:10038000C0F6000222602B6023689847FCE782B029
:100390004FF48053C4F202031A6842F001021A605B
:1003A00059680022CFF6FF020A405A601A6822F00C
:1003B000847222F480321A601A6822F480221A6051
:1003C0005A6822F4FE025A604FF41F029A6000221B
:1003D000009201921A6842F480321A601A6802F49C
:1003E00000320192009A01320092019A1AB9009AE1
:1003F000B2F5A06FF2D11A6812F4003218BF0122D0
:100400000192019A012A08D04FF46D43CEF2000305
:100410004FF000629A6002B070474FF40052C4F28D
:100420000202116841F010011160116821F003010E
:100430001160116811605A685A605A685A605A68A7
:100440005A605A6822F47C125A605A6842F4302288
:100450005A601A6842F080721A601A689201FCD5DC
:100460005A6822F003025A605A6842F002025A6047
:100470005A6802F00C02082AFAD1C5E74FF48052FC
:10048000C4F20202516801F00C01042940F2100389
:10049000C2F2000306D0082909D04FF49051C0F2EF
:1004A0007A011CE04FF4D851C0F2B70117E051684F
:1004B0005068C1F383410231C00304D44FF410608B
:1004C000C0F23D000AE05068800347BF48F6805004
:1004D000C0F25B004FF4D850C0F2B700414319603E
:1004E0005168C1F3031140F20002C2F20002515CF4
:1004F0001A68CA401A60704730B587B0019004206E
:1005000006F094F9019A40F21004C2F20004236844
:10051000B3FBF2F2013AB2F1807F38D24EF210030F
:10052000CEF200035A604FF46D42CEF20002F02189
:1005300082F8231000259D6007221A6008200121FF
:1005400006F0F7FA03A806F0F4FC226844F2402310
:10055000C0F20F03B2FBF3F3013BADF80C304FF6E2
:10056000FF73ADF81030ADF81250ADF80E504FF4E7
:100570004060C4F2000003A906F07BFC4FF4406029
:10058000C4F20000012106F0DDFC07B030BDFEE73B
:1005900082B00190019A40F23863C2F200031A60FF
:1005A0001A68002AFCD102B070477047FEE7FEE7E8
:1005B000FEE7FEE770477047704708B540F23863C2
:1005C000C2F200031A6812B11A68013A1A6000F008
:1005D0007AF940F23463C2F200031B681BB9BDE82C
:1005E000084000F027BC08BD07F00DBC04F0FEBCBD
:1005F0007047013101EB420291420BD0030F092BEE
:1006000094BF3033373301F8013C0001002301F877
:10061000023BF1E77047F7B57D20012106F07DFA36
:100620004FF6FF73ADF8043003268DF806600027FF
:100630008DF807704FF40060C4F2010001A906F0C4
:1006400002F94FF44065C4F20105284601A906F0FD
:10065000FAF84FF48050C4F2010001A906F0F3F853
:100660004FF4A050C4F2010001A906F0ECF84FF4D9
:10067000C054C4F20104204601A906F0E4F87D202C
:10068000394606F04AFA4820012106F046FAADF84C
:1006900004608DF8066010238DF80730204601A90C
:1006A00006F0D1F84FF48076ADF80460284601A931
:1006B00006F0C9F82846314606F015F92046012112
:1006C00006F011F92046022106F00DF903B0F0BD45
:1006D00013B54020012106F020FA7823ADF804304C
:1006E00003248DF8064028238DF807304FF4C050BE
:1006F000C4F2010001A906F0A6F80420012106F0C9
:100700000CFA4FF48073ADF804308DF806400423E2
:100710008DF807304FF40060C4F201000DEB0301C7
:1007200006F091F802B010BD4FF00060002106F015
:1007300072B808B5FFF7A2FEFFF7F6FFFFF76BFFF1
:10074000FFF7C6FF00F036F900F068FABDE8084090
:1007500000F049B97FB5002006F04AF9002006F004
:1007600042F94FF480304FF4801106F031F9012046
:1007700006F039F9392006F0EEF90028FAD04FF4E6
:100780000053C4F202031A6842F010021A601A6899
:1007900022F003021A601A6842F002021A60022074
:1007A00006F026F906F02EF90828FBD101A806F07C
:1007B00055F907B05DF804FB07B52020012106F0CC
:1007C000ACF90823ADF8043003238DF80630142368
:1007D0008DF807304FF4A050C4F2010001A906F0D3
:1007E00032F803B05DF804FB08B5002006F012F9FA
:1007F0004FF400000121BDE8084006F09AB930B17D
:100800004FF4A050C4F20100082106F06CB84FF478
:10081000A050C4F20100082106F063B841F6882315
:10082000C2F200039A7A41F2E063C2F200030AB115
:10083000052200E001221A60704770B506460D4699
:100840004FF2E873C1F6FF731B684FF2EC72C1F60A
:10085000FF7214684FF2F072C1F6FF721268D0187E
:100860000AD031460822FFF7C4FE2046294604225A
:10087000BDE87040FFF7BDBE70BD00231A4640F2D0
:100880009061C2F2000131F813100A4492B20533AC
:10089000322BF4D10A23B2FBF3F2C2F30B0240F67F
:1008A000C6235A43120B520040F24C63C2F20003BB
:1008B000B3F90010481C1CBF491001EB52021A800A
:1008C000B3F90000704770B54FF40060C4F2010046
:1008D0004FF4807105F0FFFF012840F24463C2F23B
:1008E000000311D11A6801321A6040F6B8339A42F7
:1008F0000CD900F0B8FA4FF48050C4F201004FF464
:10090000005105F0EEFFFEE700221A6040F21804E5
:10091000C2F20004256845B1FFF7AFFF40F248631B
:10092000C2F200031860013D256040F24063C2F24C
:1009300000031A680132B2F57A7F37D900251D60AD
:1009400040F24864C2F20004206800EB4006FFF762
:1009500094FF30448008206040F6B833984240F25B
:100960003C63C2F2000323D9B0F5616F40F2140278
:10097000C2F2000206D20221116040F62E529042CD
:1009800003D912E0012111600FE01A6801321A60E8
:100990000C2A0ED900F067FA4FF48050C4F201001F
:1009A0004FF4005105F09DFFFEE700221A6070BD74
:1009B0001D6070BD07B51020012106F0AEF84FF4A0
:1009C0000053ADF8043001238DF8063010238DF864
:1009D00007304FF48050C4F2010001A905F033FF45
:1009E00003B05DF804FB70B54FF40470012106F00C
:1009F00094F80120014606F084F840F2F461C2F256
:100A0000000103268E700F230B800025CD704FF45C
:100A10008050C4F2010005F016FF4FF40070012170
:100A200006F07BF80820C4F2020006F057F940F205
:100A30006461C2F2000142F24C43C4F201030B6054
:100A400040F29063C2F200034B608D603223CB60B2
:100A50000D6180234B614FF480738B614FF4806391
:100A6000CB6120230B624D628D620820C4F202002C
:100A700006F0C0F90820C4F20200012106F0D8F9FE
:100A800040F25061C2F200010D6001240C714C7102
:100A90004FF460238B60CD6005250D744FF410502A
:100AA000C4F2010006F06BF8204606F00AF94FF494
:100AB0001050C4F2010009212246072306F0B0F8C5
:100AC0004FF41050C4F20100102102222B4606F010
:100AD000A7F84FF41050C4F201000A213246072350
:100AE00006F09EF84FF41050C4F201000C210422CD
:100AF000072306F095F84FF41050C4F201000D21C1
:100B00002A46072306F08CF84FF41050C4F2010077
:100B1000214606F0CDF84FF41050C4F201002146F2
:100B200006F051F8204606F0CCF84FF41050C4F20D
:100B3000010006F05AF84FF41050C4F2010006F01C
:100B400059F80028F7D14FF41050C4F2010006F014
:100B500055F84FF41050C4F2010006F054F8002884
:100B6000F7D14FF41050C4F20100012106F034F81F
:100B70004FF41050C4F201000121BDE8704006F0AE
:100B800046B873B5064602A840F8041D07F0F6FB08
:100B9000436903F26C734361344605460FCD0FC4BD
:100BA0000FCD0FC42B682360304602B070BD10B566
:100BB000044606F0F5F901462046FFF7E2FF20461D
:100BC00010BD10B50446012006F0C5FB06F01CFA66
:100BD000204606F0F8F906F017FA0020BDE81040AC
:100BE00006F0B9BB84B030B58BB00EAC84E80F0012
:100BF00001AC0EAD0FCD0FC40FCD0FC42B68236019
:100C0000069BA3F26C73069301A807F049FDFFF75A
:100C1000D8FF0BB0BDE8304004B0704770B586B067
:100C2000142006F088FB4AF2A554A0424FF0C050B1
:100C30004FF0010152D005F07CFF012006F08BFB44
:100C40001420214606F068FB06F05DFB012005F04C
:100C5000E6FE412005F07FFF0028FAD04FF48070B7
:100C600005F0EEFE012005F0F3FE06F0CDF90120BF
:100C7000014606F073F906F0C7F947F6FF7006F073
:100C8000B2F906F0C1F940F2F864C2F2000440F291
:100C9000D9736361062323610F23E3601723A360E5
:100CA0002D236360254645F8103B6E460FCD0FC6D9
:100CB0002B68336094E80F00FFF794FF06F0A4F967
:100CC000012006F048FB14204AF2A55106F024FB4F
:100CD000002006B0BDE8704006F03DBB05F029FFDE
:100CE00006F09AF90120014606F038F906B0BDE891
:100CF000704006F089B910B5002441F2C453C2F225
:100D000000031B6898470028F7D00CB92428F3D1BA
:100D1000631C9BB240F25072C2F2000210550A28C6
:100D200004D0B3F5007FE7D21C46E6E7D8B210BD89
:100D30000378303BDBB2092B0AD84278303AD2B282
:100D4000092A05D803EB830302EB4300C0B27047C6
:100D5000002070470023C25C4AB1013340F2507159
:100D6000C2F20001194411F8011C9142F3D010465F
:100D7000704740F25073C2F2000350B113F8012BD8
:100D8000202A04D92C2AF9D10138C0B2F5E7002075
:100D900070471846704700B5A1B002460B4691F95E
:100DA0000010684631B948F64F71C0F6000100F0F6
:100DB00001FF05E048F64C71C0F6000100F0FAFEB4
:100DC0009DF90030242B0AD16B4620A8002213F88D
:100DD000011F2A2904D0834202D04A40F7E70022AB
:100DE00048F65370C0F60000694600F0D6FE00F0E9
:100DF000C4FD0028FBD021B05DF804FB10B540F223
:100E00004474C2F20004204603F0D2FFE278A378D3
:100E10005B0543EA0243627943EAC223A27943EACB
:100E20004213E27943EA52032088A0F2BC7043EAFD
:100E3000406010BD10B540F24C74C2F2000423684B
:100E40005A1C226041F2883293420BD948F65A70FC
:100E5000C0F6000048F65971C0F60001FFF79BFF8D
:100E60000023236010BD08B540F65013C2F2000302
:100E70001B683BB140F21C70C2F2000002F079F92D
:100E80000028F7D108BD2DE9F0418EB00024ADF85F
:100E9000324041F2C053C2F2000341F64502C0F6AF
:100EA00000021A6041F2C453C2F2000341F66B0221
:100EB000C0F600021A6002204FF4164100F019FC3F
:100EC00048F66370C0F6000048F66C71C0F6000189
:100ED000FFF761FF6420FFF75BFB02204FF4E13175
:100EE00000F007FC48F66370C0F6000048F66C712D
:100EF000C0F60001FFF74FFF6420FFF749FB022017
:100F00004FF4165100F0F5FB48F67170C0F6000082
:100F100048F6AB71C0F60001FFF73DFF48F67A7066
:100F2000C0F6000048F6AB71C0F60001FFF733FFD2
:100F300048F68370C0F6000048F68C71C0F60001D8
:100F4000FFF729FF48F68E70C0F6000049F62D2104
:100F5000C0F60001FFF71FFF48F69770C0F60000CB
:100F600048F6AB71C0F60001FFF715FF48F6A07018
:100F7000C0F6000048F6A971C0F60001FFF70BFFAC
:100F800040F65410C2F2000048F65971C0F6000154
:100F9000224601F052FF00F0DCFC40F65015C2F290
:100FA000000500232B604FF4C050C4F20100022161
:100FB00005F097FC30BFFFF79EFE0028FBD04FF4F2
:100FC000C050C4F20100022105F08DFC4FF4C05066
:100FD000C4F20100012105F084FC48F6AD70C0F6B2
:100FE0000000FFF7B7FE30B148F6B470C0F600005D
:100FF000FFF7B0FE50B90220FFF7BBFE04464FF4E6
:10100000C050C4F20100012105F06DFC40F24C73A8
:10101000C2F2000300221A609846002CCAD023783E
:10102000412BC7D101242C604FF4C050C4F2010001
:10103000022105F058FC4FF4C050C4F201002146D3
:1010400005F051FC2046FFF794FE0446FFF770FEC2
:1010500040F2F865C2F20005A860A01CFFF768FE28
:101060006860201DFFF764FE28600920FFF781FEFD
:101070000446FFF75DFEE860A01CFFF759FE01384B
:101080002861201DFFF754FE64306861284607F090
:1010900007FB00F5FD401030FFF793FD02A8FFF7B6
:1010A00086FD2E4602AF0FCF0FC60FCF0FC63B688F
:1010B00033606A69642692FBF6F70346E96800919B
:1010C00040F25070C2F2000048F6BB71C0F6000159
:1010D00006FB1722013300F06DFD40F21C75C2F2D1
:1010E0000005284640F25071C2F20001122201F0C0
:1010F000CDFE002840F09B802846E96802F044F8C5
:10110000002840F09480FFF7F6FD054600283FF4E4
:1011100044AF48F6CC70C0F60000FFF71BFE38B9AC
:101120000620FFF726FE04460378302B0ED125E07B
:1011300048F6AD70C0F60000FFF70CFEF0B90220D3
:10114000FFF717FE04460378412B17D14FF4C05028
:10115000C4F20100022105F0C4FB40F21C70C2F28F
:10116000000040F25071C2F200012A460DAB01F0BE
:1011700015FF00285BD10D9B9D4258D148F6D370D6
:10118000C0F60000FFF7E6FD38B90620FFF7F1FDD5
:1011900004460378302B0ED124E048F6B470C0F634
:1011A0000000FFF7D7FDE8B90220FFF7E2FD044693
:1011B0000378412B16D14FF4C050C4F20100022134
:1011C00005F08FFB40F21C70C2F2000040F250713B
:1011D000C2F200012A460DAB01F0E0FE38BB0D9BC8
:1011E0009D4224D1BDF8323001339BB2ADF832308C
:1011F0005A2B10D94FF4C050C4F20100022105F05F
:1012000070FB0023ADF8323040F21C70C2F20000D7
:1012100001F084FF58B94FF4C050C4F2010002211C
:1012200005F061FB0023C8F8003030BF6BE74FF4D6
:10123000C050C4F20100022105F053FB40F21C70C3
:10124000C2F2000001F095FF0028F0D1A5E6F7B545
:1012500041F2AC54C2F200044FF416532360002351
:10126000A380E3802381A3810C23638105200121D6
:1012700005F053FC4FF40030012105F05AFC042620
:10128000ADF8046003278DF8067018238DF8073039
:101290004FF40065C4F2010528460DEB060105F088
:1012A000D2FA0823ADF804308DF806708DF8076087
:1012B00028460DEB060105F0C6FA4FF48845C4F246
:1012C00000052846214605F06CFF2846012105F05F
:1012D000C9FF284640F22551012205F0CFFF03B097
:1012E000F0BD73B540F20013C2F200031979012971
:1012F0001A4611D04FF0000408D3022947D141F219
:10130000AC53C2F200034FF400510BE041F2AC5376
:10131000C2F20003DC8006E041F2AC53C2F20003EB
:101320004FF44051D9805379012B11D04FF0000474
:1013300008D3022B2BD141F2AC53C2F200034FF47D
:10134000C0610BE041F2AC53C2F200031C8106E025
:1013500041F2AC53C2F200034FF4806119819379DA
:10136000072B4FF0000402D0082B06D00FE041F20B
:10137000AC53C2F200039C800DE041F2AC53C2F2C8
:101380000003198909B14FF48051998003E0FFF7F8
:101390005EFF204641E041F2AC54C2F20004136803
:1013A00023600023A3810C2363810520012105F024
:1013B000B4FB4FF40030012105F0BBFB0425ADF870
:1013C000045003268DF8066018238DF807304FF47B
:1013D0000060C4F201000DEB050105F034FA0823AA
:1013E000ADF804308DF806608DF807504FF40060BA
:1013F000C4F201000DEB050105F025FA4FF4884019
:10140000C4F20000214605F0CCFE4FF48840C4F23F
:101410000000012105F026FF012002B070BD70B56B
:1014200006460D460024AC4211D24FF48840C4F267
:101430000000315D05F03AFF4FF48840C4F200002F
:10144000802105F03BFF0028F6D00134EBE770BDAA
:10145000F8B540F68833C2F2000300221A7041F258
:101460008933C2F2000319780129194644D041F2A8
:101470009034C2F200042368B3F5006F08BF226005
:10148000236841F28C32C2F200021068834202D11A
:1014900000230B70F8BD41F29432C2F200028CBFFF
:1014A000C3F50060C3EB0000106041F29435C2F256
:1014B00000051668402E98B205D940332360403E9F
:1014C0002E60402704E0B7B23344236000232B6032
:1014D00001240C7040F68933C2F200031844C02185
:1014E0003A4606F0CDFC2046394606F0FFFD204680
:1014F000BDE8F84006F03EBDF8BD38B540F2001337
:10150000C2F200039B79072B41F28C34C2F2000433
:101510000DD125684FF48840C4F2000005F0CAFEE2
:1015200040F68933C2F2000300F07F000CE0082B84
:101530000BD125684FF48840C4F2000005F0BAFED4
:1015400040F68933C2F20003585541F28C33C2F29F
:10155000000322680132B2F5006F08BF00221A6052
:1015600038BD08B54FF48840C4F2000040F2255160
:1015700005F0AAFE08B1FFF7C0FF4FF48840C4F29F
:101580000000082105F09AFE38B14FF48840C4F2FB
:101590000000BDE8084005F08DBE08BD37B5FFF777
:1015A000D9F84FF47A70FEF7A7FF00F0BBFD41F2C7
:1015B000C850C2F2000049F20001C0F6000100F07C
:1015C0008BFE41F2C850C2F2000000F095FE00F020
:1015D0008EFD0020014648F6DA72C0F600020123B3
:1015E00000F0F5FCFFF7E8F80020FFF708F9FFF737
:1015F000FBF84FF4C06005F0CDF814238DF80430EB
:1016000001248DF8054000258DF806508DF807401F
:1016100001A805F0C9F826238DF804308DF805508F
:1016200001A805F0C1F806F009FB2046FFF7E7F82E
:1016300041F2E063C2F200031B68052BF8D1FEE71C
:1016400013B5FFF787F84FF47A70FEF755FF00F0F7
:1016500069FD41F2C850C2F2000049F20001C0F633
:10166000000100F039FE41F2C850C2F2000000F063
:1016700043FE00F03CFD0020014648F6EC72C0F647
:101680000002012300F0A3FCFFF796F80020FFF70B
:10169000B6F8002004F0FAF8FFF7A6F84FF4C0609F
:1016A00005F078F814238DF8043001248DF80540F6
:1016B0008DF806408DF8074001A805F075F8132352
:1016C0008DF804308DF8054000238DF806308DF834
:1016D000074001A805F068F806F0B0FA2046FFF7C9
:1016E0008EF841F2E063C2F200031B68052BF8D1CB
:1016F000FEE72DE9F34105468846022869D141F20B
:101700009C34C2F200044FF48843C4F20003236007
:101710000520012105F001FA4FF40030012105F008
:1017200008FA0426ADF8006003278DF8027018232C
:101730008DF803304FF40060C4F20100694605F0F3
:1017400082F80823ADF800308DF802708DF8036040
:101750004FF40060C4F20100694605F074F84FF4DC
:10176000C06005F017F826238DF8043001268DF8A7
:1017700005608DF806508DF8076001A805F014F893
:1017800041F2AC55C2F20005284605F060FDC5F8EF
:1017900000802068294605F004FD41F29832C2F22B
:1017A000000241F2A433C2F2000313600022A3F846
:1017B0000222A3F80022A3F80622A3F8042220683C
:1017C00040F22551324605F059FD2068314605F0BA
:1017D00049FD02B0BDE8F08110B50346B0F80442FF
:1017E000B0F80622013404F0FF04D2B2A41A18BFE4
:1017F0000124B4B1B0F8042292B272B6D2B210444D
:1018000080F800110132D2B2A3F8042262B641F28C
:101810009C33C2F20003186840F22771012205F0E0
:101820002DFD204610BD034672B6B0F8022292B2DA
:10183000805CC0B2B3F802220132D2B2A3F8022215
:1018400062B67047014641F29833C2F200031B684A
:10185000B3F80402B3F80622013000F0FF00D2B260
:101860009042F5D01846FFF7B7BF41F29833C2F265
:1018700000031868B0F80022B0F80232D2B2DBB22E
:101880009A4201D0FFF7CFBF0020704770B54FF4E8
:101890008840C4F2000040F2255105F015FD18B350
:1018A00041F2A434C2F20004B4F800520135EDB2A2
:1018B000B4F80262B6B24FF48840C4F2000005F0FA
:1018C000F9FCC0B2B54209D14FF48840C4F200001F
:1018D00040F22551002205F0D1FC05E0B4F80032B9
:1018E0009BB2E054A4F800524FF48844C4F20004C0
:1018F000204640F2277105F0E7FC08B341F2A4331B
:10190000C2F20003B3F8062292B2B3F8041289B20D
:10191000914207D1204640F227710022BDE8704075
:1019200005F0ACBCB3F8062292B21A4492F800213A
:10193000D2B2A280B3F806220132D2B2A3F80622B4
:1019400070BD08B541F2A033C2F200031B6898478E
:1019500008BD41F29833C2F200031B680022A3F8CD
:101960000222A3F8002241F29C33C2F2000318685D
:1019700040F22551012205F081BC41F29833C2F2B8
:1019800000031B68B3F8062292B2B3F8040280B2D7
:10199000831A58425841704710B504460A2802D1AC
:1019A0000D20FFF7F9FF41F2BC53C2F200031A68A1
:1019B0001AB1511C1960147010BD41F2C053C2F22B
:1019C00000031B680BB1E0B2984710BD10B5441E70
:1019D00014F8010F18B140B2FFF7DEFFF8E710BDB1
:1019E0002DE9F04F85B002460D461078002800F032
:1019F000D18040B2252801D0561C6FE0537859B2EF
:101A0000302903D1D61C9378012407E02D2902D078
:101A1000961C002402E0D61C937802240027194665
:101A2000A3F13002092A07D85BB20A2202FB07376A
:101A3000303F16F8013BF2E7324621F0200149B26F
:101A40004C2903D144F0040401361378002B00F034
:101A5000A18058B26028C4BF203BDBB25BB24F2BE1
:101A600042D006DC432B30D0442B0ED0422B39D051
:101A700034E0552B09D0582B2ED0532B2ED105F105
:101A80000408D5F80090002501E00A212DE019F99D
:101A900005304BB10135FAE705F1010ABD4206D226
:101AA0002020FFF779FF5546A10701D4F4E75546FA
:101AB0004846FFF78BFFBD4202D34546324694E7C6
:101AC0002020FFF769FF0135F5E705F1040895F9D6
:101AD0000000FFF761FFF0E7102106E0FFF75CFF71
:101AE000A846EAE7022100E008212A6805F1040877
:101AF000442B04D1002ABCBF524244F00804002306
:101B0000B2FBF1FC01FB1C225FFA82FE62464FFA37
:101B10008EF5092D06DD782814BF07252725AE444C
:101B20005FFA8EFE5D1C0EF1300E0DF803E0BCF185
:101B3000000F04D0102D01D02B46E1E70F23220720
:101B400005D504AA15442D2205F8102C9D1C14F06F
:101B5000010F0CBF4FF0200B4FF0300BA946A3072D
:101B600009D409F1010AB94504D25846FFF714FF18
:101B7000D146F4E7D146013D1DF90500FFF70CFF02
:101B8000002DF8D1B94598D22020FFF705FF09F1C3
:101B90000109F7E705B0BDE8F08F0FB407B504A958
:101BA00051F8040B0191FFF71BFF03B05DF804EB44
:101BB00004B070470EB417B505A951F8043B41F2C3
:101BC000BC54C2F20004206001911846FFF708FFE0
:101BD000226800231370236003B0BDE8104003B0F7
:101BE000704770B596B04FF48070012104F089FF02
:101BF00040F2E110012104F090FF4FF4FF43ADF8F3
:101C00001C3018238DF81F3003238DF81E304FF43D
:101C1000C050C4F2010007A904F015FE1025ADF86C
:101C20001C504FF4A054C4F20104204607A904F04C
:101C30000AFE2023ADF81C30204607A904F003FE5D
:101C40004FF40063ADF81C30204607A904F0FBFDFB
:101C50004023ADF81C308DF81F50204607A904F032
:101C6000F2FD8023ADF81C30204607A904F0EBFDFF
:101C70004FF48076ADF81C604FF44064C4F2010468
:101C8000204607A904F0DFFD2046314604F029FE76
:101C90000223009301930293052303930493059376
:101CA0000023069304240794089309930A950B9341
:101CB0000C930D930E930F934FF480521092119347
:101CC000129313936B441493159307A804F00DFE1D
:101CD0002046012104F06CFE16B070BD0A46014694
:101CE000134600F0E3B92DE9F04F85B080468946F0
:101CF0009A4641F2D455C2F200052B685F7AFE087D
:101D000007F007071078537843EA002000F006FB3D
:101D1000044608EBC6039BB203934FF0000B41F25D
:101D2000D453C2F200031A68927A93453BDA002535
:101D3000B54202DB344400252EE008EBC50C1FFA47
:101D40008CFC0022615D9140090610D50CEB02006D
:101D500009EB0B0180B289B20292CDF804C0FFF703
:101D6000BDFF504600F099F9DDF804C0029A013237
:101D7000082AE7D10135DBE72278AA4013060AD505
:101D80000398284409EB0B0180B289B2FFF7A6FF44
:101D9000504600F082F90135BD42EDDB07B1013458
:101DA0000BF1010BBBE705B0BDE8F08F2DE9F04F5B
:101DB00085B0804689469A4641F2D055C2F2000568
:101DC0002B685F79FE0807F00707104600F09AFAC3
:101DD000044608EBC6039BB203934FF0000B41F29D
:101DE000D053C2F200031A68927993453BDA00257A
:101DF000B54202DB344400252EE008EBC50C1FFA87
:101E00008CFC0022615D9140090610D50CEB0200AC
:101E100009EB0B0180B289B20292CDF804C0FFF742
:101E20005DFF504600F039F9DDF804C0029A013236
:101E3000082AE7D10135DBE72278AA4013060AD544
:101E40000398284409EB0B0180B289B2FFF746FFE3
:101E5000504600F022F90135BD42EDDB07B10134F7
:101E60000BF1010BBBE705B0BDE8F08F2DE9F74F93
:101E700083460E469946BDF830A041F2D455C2F2D1
:101E800000052B6893F809804FEAD80708F007038C
:101E900001931078537843EA002000F03FFA04469B
:101EA0002B68597A59449B7A334458460139324653
:101EB000013B00F0FBF84FF000082A68927A904549
:101EC0002BDA0026BE4202DB3C44002612E04FF033
:101ED000000BA25D02FA0BF212F0800F0CBF50460D
:101EE000484600F0DAF80BF1010BBBF1080FF0D116
:101EF0000136E7E7019B9E420ADA2278B24012F0EF
:101F0000800F0CBF5046484600F0C7F80136F1E795
:101F100003B1013408F10108CFE703B0BDE8F08F49
:101F20002DE9F74F83460E469946BDF830A041F2A1
:101F3000D055C2F200052B6893F805804FEAD80708
:101F400008F007030193107800F0DCF904462B68D1
:101F5000597959449B793344584601393246013BFB
:101F600000F0A4F84FF000082A68927990452BDA27
:101F70000026BE4202DB3C44002612E04FF0000B7C
:101F8000A25D02FA0BF212F0800F0CBF50464846D9
:101F900000F083F80BF1010BBBF1080FF0D1013613
:101FA000E7E7019B9E420ADA2278B24012F0800FE6
:101FB0000CBF5046484600F070F80136F1E703B117
:101FC000013408F10108CFE703B0BDE8F08FF7B5A1
:101FD00004460E4615461F462A78002A42D07F2C1A
:101FE00042D89F2E40D882F080031F2B40F21C0065
:101FF000C2F2000001D9DF2A19D93FB9036820468F
:1020000031462A461B88FFF76EFE08E002681388F7
:1020100052880092204631462A46FFF727FF0235B4
:1020200041F2D452C2F2000213685B7A17E037B96A
:102030000368204631461B88FFF7B8FE08E00268B7
:10204000138852880092204631462A46FFF768FFDF
:10205000013541F2D052C2F2000213685B791C4490
:10206000A4B2B9E7012000E0002003B0F0BD38B50C
:102070004FF4A054C4F20104402525616420FEF70A
:1020800087FA6561802363616420FEF781FA256128
:102090006420BDE83840FEF77BBA02090023C6F68B
:1020A00002031A80000180B21880704770B54FF0AB
:1020B000D0464FF4287434800024C6F6020400256C
:1020C0002580C0B2000120802580C9B2090121808D
:1020D0004FF42C7131802580D2B2120122802580EC
:1020E000DBB21B0123804FF43073338070BD07B522
:1020F00000207F2102469F23FFF7D8FF4FF4A04323
:1021000001930023C6F6020340F6FF721A804FF6D1
:10211000F0721A80019B013B0193002BF1D103B0B7
:102120005DF804FB2DE9F843FFF75BFDFFF79FFF28
:102130004FF0D04410252580B420FEF729FA4FF443
:10214000807323806420FEF723FA4FF48873238082
:102150009620FEF71DFA4FF4316323800023C6F664
:10216000020360261E803020188020221A804FF43F
:102170003461218018804FF4366121801A804FF03D
:10218000E00CA3F800C04FF4756121804FF4D071CA
:1021900019804FF4406EA4F800E01A8000211980E5
:1021A0004FF44167278050271F804FF442672780F4
:1021B0001A801A804FF4436727801D801A804FF4DD
:1021C000446727801D801A804FF4456727804FF4AD
:1021D0008E671F804FF468771F804FF47268A4F8F1
:1021E00000801A804FF47668A4F800804FF4986855
:1021F000A3F800804FF47868A4F800801E804FF4A4
:102200006068A4F800801E804FF4E078A3F8008096
:102210004FF4F878A3F80080A3F800804FF4C0785A
:10222000A3F800804FF49879A3F800901E801880DE
:1022300018804020188070201880188019804FF472
:1022400061662680A0261E804FF4A0761E804FF483
:10225000D8761E80A3F800804FF490761E80A3F8F5
:1022600000C01A801D8019801D8080221A8018806D
:1022700019804FF458722280A3F800E027804FF4B1
:10228000AA621A804FF4547222801980FFF72FFF40
:102290004FF4247323801420BDE8F843FEF778B987
:1022A00070B541F2D453C2F200031968CD7A1422FA
:1022B0000023AB420BDA0C68A61836F8026C864293
:1022C00002D8A45A844205D201330432F1E74FF018
:1022D000FF3070BD184670BD01608A7B4271CB7BB8
:1022E000837112F0070F4FEAD20219BF02FB0333CA
:1022F00003715A430271704741F2D053C2F2000396
:102300001860704741F2D053C2F200031B681A797B
:10231000504300F1110218681044704710B504468C
:10232000FFF7BEFF431C05D148F2A010FFF7B8FF2E
:1023300048F2A01441F2D453C2F200031B6803EB2D
:10234000400291891A6802EB8000428AA41A0C4468
:10235000187A5B6800FB043010BD10B50023D41A56
:10236000032C03D9CC58C4500433F8E702F003041B
:1023700022F0030210440A440023A34203D0D15C9C
:10238000C1540133F9E710BD0244904202D000F875
:10239000011BFAE77047436A0433490A02689278DE
:1023A000B1FBF2F1186830B1814202D3091A083347
:1023B000F8E758680844704710B5036893B11A46A7
:1023C000144612F8011B20290AD93A29F8D11A46D5
:1023D00012F8011B944205D1302903D10233036066
:1023E000002010BD4FF0FF3010BD08B580B103686C
:1023F00073B11A7862B1D9888288914208D158782D
:1024000002F031FC10F0010F0CBF0020032008BDCA
:10241000092008BDF8B504460079F8B1256B04F130
:102420003407607839462A46012302F04CFCA0B9F3
:102430002071636AEA1AE3699A4201D30020F8BD69
:10244000E678012EFAD9E3691D44607839462A46B8
:10245000012302F038FC013EF3E70120F8BDF8B596
:102460000446FFF7D7FF0546002D33D12378032B11
:1024700028D16679012E25D104F134073846294642
:102480004FF40072FFF780FF4AF65523A4F832326A
:1024900045F25223C4F26113636347F27223C6F21A
:1024A0004113C4F818322369C4F81C32E368C4F835
:1024B0002032226A0132226360783946334602F0C4
:1024C00002FC6571607800210A4602F018FC0030B9
:1024D00018BF0120F8BD70B506460D46036B994242
:1024E00012D0FFF797FF044678B9707806F13401EF
:1024F0002A46012302F0CBFB002818BF012418BF95
:102500004FF0FF35356300E00024204670BD10B564
:102510000446002303714FF0FF330363FFF7DBFF33
:10252000B8B9B4F832224AF655239A4213D1D4F8F6
:102530006A3023F07F4244F24613C0F254039A42B9
:102540000AD0D4F8860020F07F40C01A18BF0120BE
:1025500010BD032010BD022010BD2DE9FF4106462D
:102560001546002303600846FFF726FF071EC0F24A
:10257000EB8041F2DC53C2F2000353F82740002CF9
:1025800000F0E480346023786BB1607802F06BFB7C
:10259000C30708D4002D00F0DB8010F0040F0CBF3F
:1025A00000200A20DBE000232370F8B2607002F004
:1025B0004AFBC60700F1CE8015B1410700F1CC807F
:1025C00020460021FFF7A3FF01281BD1221D002375
:1025D00092F8F21109B1D2F8F6114DF80310103249
:1025E0000433102BF4D100265DF806502DB120469F
:1025F0002946FFF78CFF08B90BE002200436102EA5
:10260000F2D100E00025032800F0A88008B10D20D9
:10261000A5E0B4F83F30B3F5007FF8D1B4F84A3004
:1026200003B9A36DE36194F84460E670721E012A59
:10263000EDD894F84100A0700028E8D0421E024274
:10264000E5D1B4F8451021810A07E0D1B4F847205C
:1026500002B9626DB4F842C0BCF1000FD7D006FBDE
:1026600003F80CEB11174744BA42D0D3D21BB2FB8C
:10267000F0F2002ACBD040F6F570824206D94FF630
:10268000F576B2428CBF0326022600E00126023214
:10269000A261256205EB0C0060622F44E762032E05
:1026A00005D10029B3D1216EA16292000DE000296D
:1026B000ADD04044A062022E4FEA42010FBF0A464D
:1026C000891802F0010202EB510202F2FF12B3EB91
:1026D000522F9CD34FF0FF332361E360802363715B
:1026E000032E24D1B4F86430012B20D12046691C7C
:1026F000FFF7F1FED8B96071B4F832224AF65523DB
:102700009A4214D145F25223C4F26113626B9A4289
:102710000DD147F27223C6F24113D4F818229A421F
:1027200005D1D4F81C322361D4F82032E36026703E
:1027300041F2D853C2F200031A88013292B21A80D1
:10274000E280002060610AE00B2008E00C2006E037
:10275000284604E0032002E00A2000E0012004B043
:10276000BDE8F08102398369023B99423DBF82781E
:10277000C36A02FB013000207047F8B504460D46DD
:1027800001294BD98369994248D20378022B29D079
:10279000032B34D0012B41D101EB5106416A01EBEF
:1027A0005621FFF798FE10B14FF0FF30F8BD771CAF
:1027B000C6F30806264496F83460616A204601EBA9
:1027C0005721FFF788FE0028EED1C7F308073C44E5
:1027D00094F8340046EA0020EB074CBF0009C0F330
:1027E0000B00F8BD416A01EB1521FFF774FE0028CC
:1027F000DAD16D0005F4FF752C44A08EF8BD416A56
:1028000001EBD511FFF767FE0028CDD1AD0005F42F
:10281000FE752C44606B20F07040F8BD0120F8BDBF
:10282000F8B505460E46E9808468012C01D10220E6
:10283000F8BD03689A699442F9D254B91A78032A08
:1028400001D19A6A22B91A899642F0D2986A15E0A3
:1028500014469F783F0128682146BE420CD3FFF7FB
:102860008CFF0446431C18D00128E0D92B689B69D3
:102870009842DCD2F61BEEE7FFF774FFEC6000280D
:10288000D5D000EB1610286106F00F062B6803EB7D
:10289000461334336B610020F8BD0120F8BD2DE9EB
:1028A000F04104460D46164601295FD983699942D5
:1028B0005CD20378022B39D0032B43D0012B55D1A6
:1028C00001EB5107416A01EB5721FFF704FE002895
:1028D0004DD107F10108C7F3080715F0010527449A
:1028E000F3B206D097F8342002F00F0242EA031345
:1028F000DBB287F8343001232371616A204601EB93
:102900005821FFF7E8FD90BBC8F3080804EB080363
:1029100015B1C6F3071606E093F8342022F00F0233
:10292000C6F30326164383F834601BE0416A01EBCB
:102930001521FFF7D0FDD0B96D0005F4FF752544D2
:10294000AE860FE0416A01EBD511FFF7C4FD70B907
:10295000AD0005F4FE75303525446B6803F0704317
:102960001E436E6001232371BDE8F0810220BDE8A3
:10297000F081F8B504460F4631B9C66896B183694F
:102980009E4228BF01260EE0FFF7F7FE01283FD93F
:10299000451C02D14FF0FF30F8BDA369984238D3EF
:1029A0003E4600E0012635460135A3699D4204D329
:1029B000012E01D80020F8BD022520462946FFF748
:1029C000DCFE30B1411CE5D0012821D0B542EBD16D
:1029D000F0E7204629466FF07042FFF760FFA8B984
:1029E00057B9E56023695A1C0ED0013B2361637916
:1029F00043F00103637107E0204639462A46FFF79A
:102A00004EFF0028EDD001E02846F8BD0128C1D0D6
:102A10000120F8BD2DE9F84304460F46C68801366B
:102A2000B3B213B90420BDE8F8830369002BF9D0D1
:102A300016F00F0859D101330361C168006819B954
:102A400003899E42EED250E08278013A12EA1612D1
:102A50004BD1FFF792FE0546012802D80220BDE8BF
:102A6000F883421C02D10120BDE8F8832068836905
:102A70009D4234D3002FD5D0E168FFF77AFF054699
:102A800000283BD00128E9D0431CECD02068FFF798
:102A9000C1FC07460028E6D12068343039464FF49F
:102AA0000072FFF771FCD4F8009048462946FFF702
:102AB00059FEC9F8300023689A7897420CD2012257
:102AC0001A712068FFF7A6FC0028CCD123681A6B86
:102AD00001321A630137EEE71A6BD71B1F63E560FB
:102AE00020682946FFF73EFE2061E680236803EB5D
:102AF0004813343363610020BDE8F8830720BDE844
:102B0000F8832DE9F04104460F4691F900302F2B50
:102B100001D05C2B02D10137002301E003685B691F
:102B2000A3603B781F2B3BD820460021FFF778FE9F
:102B300000236361BDE8F081032A00F0D080B11862
:102B400001F8013C0132B91811F8013C2E2BF3D0E9
:102B50002F2B3DD10F46202B8CBF20232423F37233
:102B600020460021FFF75CFE30B920682169FFF79D
:102B7000B2FC002800F0B680A369DB7A002800F0E0
:102B8000CA80042840F0E38013F0200F03F0040310
:102B900000F0C6800022A2606261002B40F0BD8080
:102BA0003A461746137801325BB22F2BF9D05C2BD3
:102BB000F7D0A669304620210B22FFF7E5FB97F9F5
:102BC000003000222E2BBDD094460821154612E07D
:102BD0005C2BBFD0202B00F28280BBE72F2B51D083
:102BE0005C2B4FD02E2B0FD1082978D1AD00EDB240
:102BF0000A460B2184460CF1010017F80C805FFA9D
:102C000088F3202BEAD83BE08A4268D218F0800F84
:102C100018BF45F0030503F17F085FFA88F8B8F1A3
:102C20001E0F06D903F120085FFA88F8B8F11C0FCF
:102C300018D80CF1020C385CA0F14008B8F13E0F36
:102C400004D980F08008B8F17C0F48D801F1FF3832
:102C5000424544D202F10108B35406F8080002329A
:102C60006046C7E749F61328C0F6000818F801CFF8
:102C7000BCF1000F1FD04FFA8CFC9C45F6D12EE022
:102C8000042300E0002352B33278E52A04BF052272
:102C90003270082904BFAD00EDB205F00302012A2D
:102CA00008BF43F0100305F00C05042D08BF43F0E6
:102CB0000803074453E7A3F1410CBCF1190F02D8F4
:102CC00045F0020508E0A3F1610CBCF1190F03D82F
:102CD00045F00105203BDBB2B35401328AE7062000
:102CE000BDE8F081626913789BB1D37A1D070BD4DC
:102CF000A6690346D15C0133F51815F8015C8D42D5
:102D000002D10B2BF6D137E720460021FFF782FED8
:102D10002AE7042030E7590708D50020BDE8F081F4
:102D2000002B14BF04200520BDE8F0816369DA7A26
:102D3000D20609D55A8B21680978032904BF9B8ADA
:102D400042EA0342A2602BE70520BDE8F081BDE81E
:102D5000F08138B505460021FFF762FD044678B9D9
:102D600028682969FFF7B7FB044648B96B691B78E7
:102D7000E52B09D043B128460121FFF74BFEEDE7D3
:102D8000042C08BF072412E028682969FFF7A3FB79
:102D9000044660B9686921462022FFF7F5FA6869A0
:102DA000A9690B22FFF7D9FA2B6801221A71204674
:102DB00038BDF7B504460D4601293BD983699942D0
:102DC00038D20F46A3699D4205D220462946FFF717
:102DD000D4FC064608B900202DE001282AD0411C69
:102DE00026D0204629460022FFF759FD18BB23694B
:102DF0005A1C05D001332361637943F001036371E9
:102E00006B1CB34212D020463946FFF7ABFC009052
:102E100020462946FFF7A6FCA378013B1844019001
:102E2000607804216A4601F06AFF37463546C9E7F3
:102E3000012000E0022003B0F0BD1FB50190009119
:102E4000144604A840F8041DFFF7B6FA011E18DB6B
:102E500041F2DC53C2F2000353F8210008B1002212
:102E60000270019808B100220270019843F8210015
:102E700050B1012C07D101A869460022FFF76DFB74
:102E800002E00B2000E0002004B010BD2DE9F0416D
:102E90008CB0019117460546002875D000230360C9
:102EA00005A801A902F01E02FFF757FB002872D106
:102EB00002AB0B9305A80199FFF723FE0A9C10B9FA
:102EC000002C08BF062007F01F0617F01C0F35D096
:102ED00048B1042802D105A8FFF73BFF46F00806D9
:102EE0000A9C30B157E0E37A13F0110F52D17B07FF
:102EF0004CD437072BD5FDF781FFC4F80E00002313
:102F0000E372E3610598678B0278032A04BFA28A03
:102F100047EA02476383A38201230371BFB1D0F85C
:102F200030803946FFF745FF002834D10598013F2E
:102F3000C7604146FFF7CFFA48B12CE000282AD1FC
:102F4000E37AD80624D4B90701D5DA0722D43307A7
:102F500048BF46F02006059B1A6BEA612C62AE71F1
:102F60000022EA71628B1978032904BFA18A42EA20
:102F700001422A61E269EA600020A860A8616862F3
:102F80002B60DB88AB8006E0092004E0082002E02B
:102F9000042000E007200CB0BDE8F0812DE9F84FD7
:102FA00004460F46154699460023C9F80030FFF73E
:102FB0001CFA002840F0B080E079002840F0AC8096
:102FC000A3799A0740F1A780A368DD4228BF0025B6
:102FD000EDB1A168C1F30803002B6CD1206890F813
:102FE00002A00AF1FF3A0AEA512A1AF0FF0A1CD19C
:102FF00011B9216989B906E0636A1BB12046FFF760
:10300000CAF902E06169FFF7B4FC014628B9A36878
:10301000E268934278D9E36076E0012915D04B1C31
:1030200056D06161236903B921612068026BA369ED
:103030009A4203D1FFF7EEF9002849D1D4F800B045
:1030400058466169FFF78EFB08B9022041E000EBAA
:103050000A086E0A22D09BF8023006EB0A029A4256
:1030600088BFCAEB03069BF8010039464246334647
:1030700001F029FE824658BB2068016BC8EB0101B4
:10308000B14209D2343007EB41214FF40072FFF70F
:1030900064F9236883F804A076022AE0A268E36852
:1030A0009A4206D35846FFF7B5F988B92368C3F8A2
:1030B0003080C4F81880A668C6F30806C6F5007606
:1030C000B54238BF2E462068A169FFF704FA18B14F
:1030D0000120E071BDE8F88FA368C3F308022368FC
:1030E0009818343039463246FFF737F92368012201
:1030F0001A713744A3683344A360D9F800303344CD
:10310000C9F80030AD1B63E7A37943F02003A37136
:103110000020BDE8F88F0720BDE8F88F70B50446A1
:10312000FFF763F920BBA3799B0621D52068E169ED
:10313000FFF7D1F90646DEB9256AEB7A43F02003A2
:10314000EB72E368EB6123696B831B0CAB82FDF7C9
:1031500055FEC5F816006E82A37923F02003A371F3
:10316000236801221A712068BDE87040FFF777B923
:1031700070BD10B50446FFF7D1FF20B92046FFF718
:1031800034F900B9206010BD2DE9F04704460D4622
:10319000FFF72BF9002840F0D480E679002E40F0AC
:1031A000CC80636A002B58D06A1C31D11E1DD3F825
:1031B00000A02769022517B3B9464FF0000808F1AF
:1031C000010820684946FFF7D8FA012840F29C80A0
:1031D000431C00F0878009F10109484501D181466F
:1031E000EDE70235554504D8334643F8088B776040
:1031F0001E4623689B69984201D20746DCE7636A52
:103200001D60554500F29C8000203060BDE8F087CD
:10321000E3689D4228BF1D46A560002D00F08A800E
:103220006F1E20463946FFF7B6F801466061D4F8B4
:1032300000804046FFF796FA002865D098F80230E3
:10324000C5F30805002D75D0013B03EA5727074455
:10325000A3699F426ED0A7616CE0E3689D4204D9E8
:10326000A27912F0020F08BF1D46A3680022A260D7
:103270000DB900254EE02068867876026BB1013BDF
:10328000691EB1FBF6F1B3FBF6F2914205D372422F
:103290001340A360ED1A61690AE0216939B9FFF7AB
:1032A00068FB014601282FD001301BD021616161EC
:1032B0000029DED00AE0012926D923689B699942BA
:1032C00022D26161A3683344A360AD1BB54210D91B
:1032D000A37920689A0707D5FFF74BFB014638B161
:1032E0004B1CE8D1012010E0FFF747FA0146F7E751
:1032F0003546A3682B44A360C5F30803002BB8D060
:103300002068FFF72FFA18B90220E071BDE8F087B6
:1033100000EB5525A368C3F308021AB1A2699542D0
:1033200018BFA561E268934204D9E360A37943F032
:103330002003A3710020BDE8F0873046BDE8F08788
:103340001120BDE8F08708B54FF40042C4F2010235
:10335000536B13F0450FFBD05A0704D5042003F03C
:103360000AFF032008BDDB0704D5012003F003FF9B
:10337000012008BD40F2FF5003F0FDFE2A2008BDE9
:1033800037B5044600220092019241F2B460C2F2C5
:10339000000041F2AC61C2F2000109680904016059
:1033A0000D21416040218160C2604FF48062026162
:1033B00003F090FE4FF40043C4F201035A6B0192F4
:1033C000019A12F0450FF9D0019B5D0704D5042046
:1033D00003F0D1FE032084E0019B13F0010504D02B
:1033E000012003F0C8FE01207BE003F089FE01907C
:1033F000019B0D2B01D0102073E040F2FF5003F031
:10340000BAFE284603F083FE0090009BC3F34323DB
:103410002370009A4EF20803CFF6FF531340002B9F
:103420003CD0009B002B3BDB009B5C003AD4009B14
:10343000980039D4009BD90038D4009B1A0137D4A6
:10344000009B5B0136D4009BDD0135D4009B1C0240
:1034500034D4009B5802CED4009B990230D4009BF8
:10346000DA022FD4009B1B032ED4009B5D032DD4C6
:10347000009B9C032CD4009BD8032BD4009B1904E5
:103480002AD4009B5A0429D4009B9B0428D4009B77
:1034900013F0080F0CBF2A201A2022E02A2020E077
:1034A0001C201EE009201CE00A201AE00B2018E076
:1034B0000C2016E00D2014E00E2012E00F2010E08A
:1034C00011200EE012200CE013200AE0142008E086
:1034D000152006E0162004E0172002E0182000E086
:1034E000192003B030BD70B58CB005460E464FF4C0
:1034F0007040C1F2000003F0B3FC40F24444C4F257
:1035000002042046002103F093FC48F28003C4F239
:1035100001030193029500230393B60804960593D3
:10352000802206924FF4007207924FF400620892D4
:1035300009934FF400520A920B93204601A903F01D
:1035400059FC2046012103F073FC0CB070BD70B52E
:103550008CB005460E464FF47040C1F2000003F0F7
:103560007FFC40F24444C4F202042046002103F0F0
:103570005FFC48F28003C4F201030193029510231B
:103580000393B608049600230593802206924FF415
:10359000007207924FF40062089209934FF40052B0
:1035A0000A920B93204601A903F024FC2046012136
:1035B00003F03EFC0CB070BD38B505464FF4004238
:1035C000C4F20102536B13F0450FFBD0590704D529
:1035D000042003F0D0FD032038BD13F0010404D013
:1035E000012003F0C8FD012038BD03F089FDA84289
:1035F0005AD140F2FF5003F0BEFD204603F087FD94
:103600004EF20803CFF6FF5303404BB3002829DBEB
:10361000420029D4830029D4C50029D4040129D427
:10362000410129D4C20129D4030229D445023BD443
:10363000840227D4C10227D4020327D4430327D40A
:10364000850327D4C40327D4010427D4420427D4F4
:10365000830427D410F0080F0CBF2A201A2038BD8D
:103660002A2038BD1C2038BD092038BD0A2038BDAD
:103670000B2038BD0C2038BD0D2038BD0E2038BDC4
:103680000F2038BD112038BD122038BD132038BDA1
:10369000142038BD152038BD162038BD172038BD80
:1036A000182038BD192038BD102038BD2DE9F3474A
:1036B000804600250095019541F2B464C2F20004F1
:1036C0004FF008094FF0100A84E800064027A76071
:1036D000E5604FF480662661204603F0FBFC50460F
:1036E000FFF76AFF2A2840F0838041F2AC63C2F200
:1036F00000031B6803FA0AF323604FF0370AC4F88B
:1037000004A0A760E5602661204603F0E3FC504674
:10371000FFF752FF2A286BD141F2E050C2F20000BD
:103720004FF6FF72C0F20F0280E80402302282607E
:103730000222C26005610122426103F0F5FC2560AE
:103740004FF03309C4F80490A760E5602661204675
:1037500003F0C0FC4846FFF72FFF2A2848D1ADF1FF
:1037600004044FF40043C4F201035A6B40F22A638D
:10377000134053B94FF4001003F0F3FC0028F0D0CD
:1037800003F0E8FC44F8040FEBE7082003F0E9FC41
:1037900020B1082003F0EFFC042029E0022003F010
:1037A000E0FC20B1022003F0E6FC022020E0202013
:1037B00003F0D7FC20B1202003F0DDFC062017E049
:1037C0004FF4007003F0CDFC28B14FF4007003F00B
:1037D000D2FC07200CE040F2FF5003F0CCFC009B31
:1037E0001BBAC8F80430019B1BBAC8F800302A2065
:1037F00002B0BDE8F0872DE9F341044600200090B7
:10380000019003F084FC10F0007556D16846FFF774
:103810004DFF2A2854D1012C019B21D15A034ED5AA
:1038200041F2B464C2F2000441F2AC63C2F200039C
:103830001B681B042360372666604FF04008C4F8FD
:103840000880E5604FF480672761204603F042FC62
:103850003046FFF7B1FE2A2832D1022323601FE051
:10386000DB032CD541F2B464C2F2000441F2AC6334
:10387000C2F200031B681B042360372666604FF00A
:103880004008C4F80880E5604FF48067276120464F
:1038900003F020FC3046FFF78FFE2A2810D1256068
:1038A00006266660C4F80880E5602761204603F0BC
:1038B00011FC3046FFF780FE02E00E2000E02520DC
:1038C00002B0BDE8F0812DE9F84F41F29060C2F2FC
:1038D0000000B22303750025056045608560C56062
:1038E000056103F0BAFB032003F0D4FB012003F0D1
:1038F000CCFB41F2B464C2F2000425606560A560AF
:10390000E5604FF480632361204603F0E3FB4FF44E
:103910008035802003F025FC00287ED1013DF8D1C0
:1039200078E05BB1013B4FF40042C4F20102526BFC
:1039300012F0450FF5D0002B40F08B80042003F0EF
:103940001AFC0025372684E860004023A360E56068
:103950004FF48063236141F2B460C2F2000003F0CF
:10396000B9FB3046FFF728FEA8460026266037251B
:1039700065604023A360E6604FF48063236141F2F9
:10398000B460C2F2000003F0A5FB2846FFF714FE66
:103990002A2840F08B80374630464FF6FF73002EC2
:1039A0006AD19F4273D041F2B465C2F2000526602D
:1039B0004FF0370BC4F804B04FF0400AC4F808A029
:1039C000E6604FF48069C4F81090284603F082FB4B
:1039D0005846FFF7F1FD2A2868D148F0104343F418
:1039E00080132B6029236B60C5F808A0EE60C5F832
:1039F0001090284603F06EFB4FF40043C4F201031D
:103A0000586B10F0450FFBD010F004052AD00420AD
:103A100003F0B1FB0320BDE8F88F40F2FF5003F044
:103A2000AAFB4FF4D57008214022002384E80F0040
:103A30004FF48063236141F2B460C2F2000003F0EE
:103A400049FB4FF40043C4F201035A6B4FF4803337
:103A50006EE756073FF572AF55061ED5402003F0BE
:103A60008AFB1AE040F2FF5003F085FB284603F082
:103A70004EFBC60F013790E79F4208D0440009D59E
:103A800041F27463C2F2000302221A6002E01B20BA
:103A9000BDE8F88F2A20BDE8F88F41F27463C2F2C6
:103AA000000301221A604FF080485EE7BDE8F88FFE
:103AB00038B503F0F5FA002800F0A88041F27463ED
:103AC000C2F200031A68042A1D4628D041F2B460ED
:103AD000C2F200000024046002224260C022826020
:103AE000C4604FF48062026103F0F4FAFFF72BFC2C
:103AF0002A2840F09680204603F009FB41F27864C2
:103B0000C2F200042060042003F001FB6060082082
:103B100003F0FDFAA0600C2003F0F9FAE0602B68D6
:103B2000022B01D9062B3CD141F2B460C2F2000055
:103B3000002303600322426040228260C3604FF48E
:103B40008063036103F0C6FA4FF40043C4F201033B
:103B5000586B10F0450FFBD0440704D5042003F048
:103B60000AFB032038BD10F0010404D0012003F04B
:103B700002FB012038BD03F0C3FA03284CD140F208
:103B8000FF5003F0F8FA204603F0C1FA10F4604F3A
:103B900001D1000C06E0810440D442043CD403046B
:103BA0003ED401202B68042B32D041F2AC63C2F228
:103BB0000003186041F2B463C2F20003000418600D
:103BC00009225A60C0229A600024DC604FF48062AF
:103BD0001A61184603F07EFAFFF7B5FB05462A285E
:103BE00018D1204603F093FA41F2F854C2F20004CF
:103BF0002060042003F08BFA6060082003F087FA4D
:103C0000A0600C2003F083FAE06003E0252038BDBB
:103C10002A2038BD284638BD102038BD132038BDB5
:103C20000F2038BDF0B541F27463C2F200031C6886
:103C300080F8564041F2AC63C2F200031B68A0F862
:103C4000543041F2F856C2F200063368190ECAB277
:103C500095090570C1F38301417002F0030282707F
:103C6000C3F30742C270C3F307220271DBB2437190
:103C700073681A0E1201C280C3F30742C18889B269
:103C800041EA1211C18002F00F020272C3F307224F
:103C9000D1B2CD094572C2F380158572C2F34015C9
:103CA000C572C2F30015057300254573012C40D879
:103CB00002F00302920202610269DBB242EA83036C
:103CC0000361B1680A0ED3B2046944EA9314046133
:103CD000C2F3C202027503F007034375C1F3074242
:103CE000D3B25C098475C2F38202C27503F0030388
:103CF0005B000376C1F30721037E43EAD113037609
:103D0000D0F810C0027E077A012303FA07F707658F
:103D1000023203FA02F2D517A2FB072307FB053391
:103D20000CF10107A2FB074507FB0355C0E912454B
:103D300020E0022C1ED103F03F031B040361B16895
:103D400003690A0E43EA022303610369C1F30742D0
:103D500013430361C1F3072102690023013243F1D8
:103D60000003DB0443EA5233C364D20482644FF499
:103D700000730365C1F38013437601F03F014900EE
:103D80008176337A827E42EAD312827603F07F0311
:103D9000C376F268130ED9B2CC090477C3F3411489
:103DA0004477C3F38203837701F003018900C1776D
:103DB000C2F30741CBB2C47F44EA9314C477C1F382
:103DC000401180F82010002180F8211003F0010339
:103DD00080F82230C2F30723D9B2CC0980F82340FF
:103DE000C3F3801480F82440C3F3401480F82540C6
:103DF000C3F3001480F82640C3F3810380F8273012
:103E000001F0030180F82810C2F3460280F829204F
:103E1000012180F82A1041F27863C2F200031A6887
:103E2000140E80F82C40C2F307442402C485C48DCC
:103E3000A4B2C2F307252C43C485120602635A6854
:103E4000046B150E44EA05440463046BC2F3074592
:103E500044EA05240463046BC2F307252C4304637E
:103E6000D2B280F834209A68140E80F83540C2F33C
:103E7000074424068463846BC2F3072544EA05449F
:103E80008463846BD2B244EA02228263DB68826B71
:103E900042EA13628263C3F3074290F83C4044EA6B
:103EA000121480F83C4002F00F021202C287C28F47
:103EB00092B2C3F307242243C287C3F3460380F8B8
:103EC000403080F841102A20F0BD38B5054641F257
:103ED0007463C2F200031B68032B30D0022B2CD872
:103EE000B0F5805F2BD0B0F5006F11D10120FFF746
:103EF00082FC04462A2824D141F29060C2F20000DC
:103F0000062202750022026042608260C56010E0F5
:103F10000020FFF770FC04462A2812D141F290607D
:103F2000C2F2000006220275002202604260826036
:103F3000C260026103F091F803E02A2038BD272017
:103F400038BD204638BD10B541F2B463C2F200035B
:103F5000186007245C6040229A600022DA604FF407
:103F600080621A61184603F0B5F82046BDE810409B
:103F7000FFF722BB13B5B020012102F0CEFD4FF4B4
:103F8000F853ADF8003003238DF8023018238DF874
:103F900003304FF48050C4F20100694602F053FC34
:103FA0000423ADF800304FF4A050C4F2010069467C
:103FB00002F049FC4FF48060012102F0A2FD0220D2
:103FC000012102F09EFD03F035F8FFF77CFC2A2862
:103FD00033D1FFF76DFD2A282FD141F29060C2F254
:103FE0000000062303750024046044608460C460FC
:103FF000046103F032F831238DF804308DF8054068
:104000008DF8064001238DF8073001A802F0CCFBA3
:1040100041F21864C2F200042046FFF703FE2A288A
:104020000BD1B4F8540000040021FFF78CFF2A28BC
:1040300003D14FF40060FFF748FF02B010BD2DE937
:10404000F04F87B0CDE90423BDF84050074608B9CA
:104050002620D0E040F22508C2F200082A2388F882
:10406000003041F2886BC2F2000B0026CBF80060F2
:1040700041F2B063C2F200031E6041F2E054C2F2AA
:1040800000044FF6FF73C0F20F0384E84800A660F7
:10409000E66026616661204603F046F8304603F08C
:1040A00013F8304603F033F810F0007F224640F05A
:1040B000A18041F27463C2F200031B68022B09D194
:1040C000049B580A059B40EAC350590ACDE90401F4
:1040D0004FF400756B1E99B2B1F5006FB8D213EAB8
:1040E0000501B5D1AB465FFA81FC0131BBF1010F8F
:1040F00002D0CBF34F0BF6E741F2B464C2F20004F6
:104100002560102161604FF0400AC4F808A0002625
:10411000E6604FF48069C4F8109020460391019244
:10412000CDF808C002F0D6FF03990846FFF744FA1D
:104130002A28019ADDF808C05DD14FF6FF71C0F260
:104140000F0182E822004FEA0C1191600221D16038
:104150001661C2F814B041F2E050C2F2000002F061
:10416000E3FF41F2B062C2F20002156041F2D86290
:10417000C2F20002166041F28C62C2F200021760C5
:1041800040F22A30594602F093FF584602F09CFF55
:1041900038462946FFF7A7F9049A22601125656081
:1041A000C4F808A0E660C4F81090204602F092FF20
:1041B0002846FFF701FA2A281DD14FF40050C1F21A
:1041C000000002F040FE48B941F28862C2F20002EB
:1041D00013681BB998F800302A2BEED040F2250363
:1041E000C2F2000398F80000C0B22A2803D0187861
:1041F000C0B200E00E2007B0BDE8F08F2DE9F74F08
:1042000014461D46BDF830A0804608B92620D0E0EF
:1042100040F22509C2F200092A2289F8002041F261
:104220008867C2F2000700263E6041F2B062C2F227
:104230000002166041F2E050C2F200004FF6FF7239
:10424000C0F20F0280E844008660C66006614661E5
:1042500002F06AFF304602F037FF304602F057FFA7
:10426000830100F1A58041F27462C2F2000212687B
:10427000022A05D1620A42EAC55214464FF4007A76
:104280000AF1FF3291B2B1F5006FBFD212EA0A0211
:10429000BCD15746D1B20132012F02D0C7F34F072C
:1042A000F8E741F2B466C2F20006C6F800A0102397
:1042B00073604FF0400BC6F808B04FF00009C6F825
:1042C0000C904FF48062326130460191009302F00D
:1042D00001FF009B1846FFF76FF92A28019968D162
:1042E0000D9800FB0AF3B3F1007F8FD241F2B0606A
:1042F000C2F20000036041F2D860C2F20000076021
:1043000041F28C60C2F20000C0F8008041F2E0503F
:10431000C2F200004FF6FF75C0F20F050560436062
:10432000090181600221C160C0F8109047610093CB
:1043300002F0FAFE40F22A30394602F0B9FE384661
:1043400002F0C2FE4046009B1946FFF7CCF83460ED
:1043500012247460C6F808B0C6F80C904FF480635D
:104360003361304602F0B6FE2046FFF725F92A28D1
:104370001FD14FF40050C1F2000002F064FD60B99B
:1043800041F28862C2F20002136833B940F225029A
:10439000C2F2000213782A2BEBD040F22503C2F2BE
:1043A00000031878C0B22A2803D01878C0B200E001
:1043B0000E2003B0BDE8F08F2DE9F04F89B0CDE9B4
:1043C0000423BDF8485000248DF81F40074608B963
:1043D00026202DE140F22508C2F200082A2388F8A1
:1043E000003041F28869C2F20009C9F8004041F288
:1043F000B06BC2F2000BCBF8004041F2E056C2F2C3
:1044000000064FF6FF73C0F20F0386E81800B46091
:10441000F46034617461304602F086FE204602F09A
:1044200053FE204602F073FE830100F1FE8041F24C
:104430007463C2F200031B68022B09D104994A0A73
:10444000059942EAC1524B0ACDE904234FF40075A5
:104450006B1E9AB2B2F5006FBAD22B40B8D12A4681
:104460005FFA83FA0133012A02D0C2F34F02F7E761
:1044700041F2B464C2F2000425601023636040215D
:10448000A1604FF00009C4F80C904FF480622261E3
:10449000204603910192029302F01CFE029B1846F3
:1044A000FFF78AF82A280399019A40F0C18041F267
:1044B000AC60C2F200000068000420600D2363605D
:1044C000A160C4F80C9022612046029302F002FE23
:1044D000029B1846FFF770F82A2840F0A98048464A
:1044E00002F015FE4FF6FF79C0F20F0910F480724A
:1044F00027D1B9F1000F00F09A8009F1FF3941F29C
:10450000AC61C2F200010968090421600D216160FB
:104510004020A060E2604FF48060206141F2B4600E
:10452000C2F200000391019202F0D4FD0399084603
:10453000FFF742F82A28019A7AD1104602F0E7FDE7
:10454000D4E7B9F1000F72D0049A22601822626099
:104550004023A3600023E3604FF48061216141F2B6
:10456000B460C2F200000192029302F0B3FD019A1E
:104570001046FFF721F82A28029B59D1CBF80050AA
:1045800041F2D862C2F20002136041F2A862C2F2A4
:10459000000217604FF6FF72C0F20F0286E8240097
:1045A0004FEA0A12B260F36033610124746141F290
:1045B000E050C2F2000002F0B7FD40F21A3021468E
:1045C00002F076FD38462946FEF7C1FF204602F08C
:1045D0007BFD4FF40050C1F2000002F034FC48B9FA
:1045E00041F28861C2F200010B681BB998F80030F3
:1045F0002A2BEED040F22503C2F2000398F80020E7
:104600002A2A02D01878C0B212E040F2FF5002F01D
:10461000B2FD0DF11F00FEF7B3FE2A2808D19DF868
:104620001F30063B012BF4D902E00E2000E02920C8
:1046300009B0BDE8F08F2DE9F04F87B092469B4658
:10464000BDF8404000258DF813500595029008B93B
:10465000262034E140F22509C2F200092A2389F814
:10466000003041F28867C2F200073D6041F2B06657
:10467000C2F20006356041F2E050C2F200004FF68F
:10468000FF73C0F20F0380E828008560C5600561F4
:10469000456102F049FD284602F016FD284602F069
:1046A00036FD830100F10A8141F27463C2F2000316
:1046B0001B68022B06D14FEA5A2242EACB5292469D
:1046C0004FF40074631E9AB2B2F5006FC0D223405B
:1046D000BED12246D9B203910133012A02D0C2F3DE
:1046E0004F02F7E741F2B465C2F200052C604FF0CB
:1046F0001009C5F804904027AF600026EE604FF423
:104700008068C5F81080284602F0E4FC4846FEF7B1
:1047100053FF2A28A94640F0D28041F2AC61C2F290
:1047200000010868000428600D236B60AF60EE6034
:10473000C5F8108028468DE80A0002F0CBFC019BEA
:104740001846FEF739FF2A28009940F0B880119AE0
:104750005443B4F1007FBFF47BAF41F27460C2F206
:104760000000006802284AD9C9F800A01925C9F834
:1047700004504023C9F808300026C9F80C604FF4F3
:104780008063C9F8103041F2B460C2F2000002F058
:10479000A1FC2846FEF710FF2A2840F0908041F245
:1047A000B061C2F200010C6041F2D863C2F20003B2
:1047B00001251D6041F2A863C2F20003029A1A604B
:1047C00041F2E050C2F200004FF6FF72C0F20F0259
:1047D00080E81400039B1A018260C660066145618F
:1047E00002F0A2FC40F21A30294602F061FC284691
:1047F00002F06AFC02982146FEF7A9FE32E0096841
:104800000904296037216960AF60EE60C5F8108047
:104810002846009102F05EFC00990846FEF7CCFEA7
:104820002A284CD1119B2B6017216960AF60EE6084
:10483000C5F810802846009102F04CFC009908460B
:10484000FEF7BAFE2A283AD18EE741F28861C2F219
:1048500000010B6873B940F22502C2F2000213781E
:104860002A2B07D14FF40050C1F2000002F0EBFAFE
:104870000028EAD040F22503C2F200031A782A2A5F
:1048800002D01878C0B21AE040F2FF5002F073FC78
:1048900000230593059A4FF6FE739A4207D8059BAD
:1048A0000133F6E79DF81330063B012B07D80DF1D5
:1048B0001300FEF765FD2A28F4D000E00E2007B0B3
:1048C000BDE8F08F10B541F2B460C2F200000022E2
:1048D0000C2480E8140040218160C2604FF48062A3
:1048E000026102F0F7FB2046BDE81040FEF764BE0F
:1048F0002DE9F8430546002002F009FC10F000768F
:1049000040F0AC8041F2B464C2F2000440274FF0A2
:10491000100984E88002A760E6604FF48068C4F85C
:104920001080204602F0D6FB4846FEF745FE2A28B6
:1049300040F0988041F2AC63C2F200031B6803FAB6
:1049400009F323604FF03709C4F80490A760E660CC
:10495000C4F81080204602F0BDFB4846FEF72CFE4E
:104960002A287FD141F2E050C2F200004FF6FF72D8
:10497000C0F20F0280E88400602282600222C260DE
:1049800006610122426102F0CFFB26604FF00D0963
:10499000C4F80490A760E660C4F81080204602F0D6
:1049A00099FB4846FEF708FE2A285BD14FF40043E6
:1049B000C4F201035B6B40F22A641C406CB94FF4F3
:1049C000004002F0CEFB0028F0D002F0C3FB2851DB
:1049D0000434202CF9D12035E8E7082002F0C1FB8F
:1049E00028B1082002F0C7FB0420BDE8F8830220AC
:1049F00002F0B7FB28B1022002F0BDFB0220BDE8A7
:104A0000F883202002F0ADFB28B1202002F0B3FB98
:104A10000620BDE8F8834FF4007002F0A2FB30B12D
:104A20004FF4007002F0A7FB0720BDE8F8834FF4B5
:104A3000001002F096FB20B102F08CFB45F8040B4D
:104A4000F5E740F2FF5002F096FBA5F140031A682B
:104A500012BA43F8042BAB42F9D102E00E20BDE8B4
:104A6000F8832A20BDE8F88338B54FF4807002F04F
:104A700088FB044640B341F2D863C2F200031B68CE
:104A8000012B40F22504C2F2000403D1FFF71AFF04
:104A9000207001E02A2323704FF4807002F07BFB2A
:104AA0004CF23A30002102F003FB41F28863C2F27B
:104AB000000301221A6041F27063C2F20003002277
:104AC0001A602078C0B238BD022002F05AFB0546B9
:104AD00090B1022002F05FFB4CF23A30214602F026
:104AE000E7FA41F27063C2F200031C6040F2250352
:104AF000C2F2000302205FE0082002F042FB0446FD
:104B000090B1082002F047FB4CF23A30294602F0FF
:104B1000CFFA41F27063C2F200031D6040F2250338
:104B2000C2F20003042047E0202002F02AFB0546E1
:104B300090B1202002F02FFB4CF23A30214602F0D7
:104B4000B7FA41F27063C2F200031C6040F2250321
:104B5000C2F2000306202FE0102002F012FB0446F0
:104B600090B1102002F017FB4CF23A30294602F0C7
:104B70009FFA41F27063C2F200031D6040F2250308
:104B8000C2F20003052017E04FF4007002F0F9FABA
:104B9000A0B14FF4007002F0FEFA4CF23A30214618
:104BA00002F086FA41F27063C2F200031C6040F228
:104BB0002503C2F200030720187038BD2A2038BD33
:104BC000FFF752BF38B5044641F2C865C2F200058E
:104BD0002846FFF78DFE2A2834D12B789B092370B5
:104BE0002B78C3F340136370AB781B026380638838
:104BF0009BB2EA78134363802B791B06636063687A
:104C00006A7943EA024363606368AA7943EA02234C
:104C100063606368EA79134363602B7A23726B7A6B
:104C20006372AB7A1B09A372EB7A1B02A381A3897F
:104C30009BB22A7B1343A3816B7B9A08A27303F078
:104C40000303E37338BD08B558B9FFF793F940F291
:104C50002403C2F20003187018782A3818BF012004
:104C600008BD012008BD08B578B941F21860C2F24C
:104C70000000FEF7D7FF40F22403C2F200031870D1
:104C800018782A3818BF012008BD012008BD73B567
:104C90001E46A8B9012B4FEAD25003464FEA4222E2
:104CA0004FF40070009003D10846FFF7C8F903E005
:104CB00001960846FFF7A2FA2A3818BF012000E043
:104CC000042002B070BD73B51E46A8B9012B4FEA8F
:104CD000D25003464FEA42224FF40070009003D1B5
:104CE0000846FFF769FB03E001960846FFF7A3FCBF
:104CF0002A3818BF012000E0042002B070BDF8B5CA
:104D00001746002850D132292FD010D8022922D09E
:104D1000032924D0012949D141F21863C2F20003CA
:104D2000DA6C9B6C5C0A44EAC2543C603EE0342975
:104D300029D022D335292DD0362937D141F2086028
:104D4000C2F20000FFF73EFF384641F20861C2F2AE
:104D50000001402225E04FF40073138026E041F269
:104D60001863C2F200031B6D19E041F21863C2F22E
:104D7000000393F85630137018E0104641F21861A2
:104D8000C2F2000104E0104641F24461C2F20001A7
:104D9000102206E041F21863C2F200031B7D3B6063
:104DA00004E003F0F7FA01E00420F8BD0020F8BDAC
:104DB000F0B58BB0074640F2F866C2F200066846CE
:104DC000FBF7F5FE34466D460FCD0FC40FCD0FC473
:104DD0002B6823603368FB717368BB71B3687B71A8
:104DE000F368FB7033690133BB7073693B8001204A
:104DF0000BB0F0BD08B50120FBF701FD45F64043BF
:104E0000C4F2000301221A6041F6B022C2F200028D
:104E10000020186045F64441C4F2000108604FF4D8
:104E2000E0511180196008BD73B50022019245F66A
:104E30004043C4F20003186880B202F1805101F5CA
:104E4000B85189000C68A4B241F2E461C2F20001D9
:104E500041F822400132082AEFD140F480621A6002
:104E600042F001021A6020F0010085B245F4806230
:104E70001A6045F64440C4F2000002685605F8D5B1
:104E80004FF6FF320260002202F1805404F5B8545C
:104E9000A40051F82260B6B226600132082AF3D18C
:104EA00045F481651D601A6892B242F004021A60EE
:104EB0004FF4E041C4F200010A6801920A6822F04E
:104EC000030242F001020A604FF46D42CEF200028A
:104ED000146944F0040414610468E40401D430BF8C
:104EE00009E04EF6FF7404601C684FF6F77020402E
:104EF0001860019B0B60136923F00403136102B077
:104F000070BD10B545F64044C4F2000422684FF667
:104F1000FB7313402360FBF781FC4FF406432360CF
:104F200010BD10B5072841F2DC64C2F2000418BFBE
:104F300020702378052B56D8DFE803F0030E191DE7
:104F40002A3841F20473C2F200031B6813B9FFF759
:104F5000D8FF48E0052347E0FFF7D3FF0423237081
:104F600041F20473C2F2000301221A6010BD022351
:104F70006370032338E041F2DC63C2F2000362781D
:104F8000013AD2B2627062787ABB04221A7010BD04
:104F900045F64043C4F200031A6892B242F0100290
:104FA0001A60052323700A23637010BD41F2DC638D
:104FB000C2F200036278013AD2B26270627802F003
:104FC000FF0092B945F64042C4F2000214684FF661
:104FD000EF712140116006221A7041F20473C2F28F
:104FE0000003186010BD0623237010BD08B541F200
:104FF0000C73C2F200031B68984708BDF0B589B076
:1050000045F64444C4F2000423689BB241F2127690
:10501000C2F200063380328841F6B025C2F20005A4
:105020002B88134098050CD54FF6FF53236041F2AF
:105030001073C2F200031A780132D2B21A7000F073
:10504000E1F832882B881340190401D502F017FECD
:1050500032882B8813405A0508D54FF6FF3323605A
:1050600040F28403C2F200035B68984732882B88C1
:1050700013409B0444BF4DF6FF73236032882B8896
:105080001340DF0405D54EF6FF7323600020FFF7C1
:1050900048FF32882B88134018050ED540F22603AE
:1050A000C2F200031B7813B1FFF7BEFE02E002203C
:1050B000FFF737FF4FF2FF73236032882B881340CE
:1050C000D9055BD54FF6FF63236045F64843C4F22C
:1050D00000031B6813F4004F41F21473C2F2000383
:1050E00047D01A6801321A601A68032A43D945F674
:1050F0004040C4F20000016811F008013BD105688E
:10510000ADB241F20872C2F20002156001F18055A1
:1051100005F5B855AD002E68B6B208AF07EB8105AE
:1051200045F8206C01310829F0D1116841F00101E6
:105130001160116889B20160116821F001011160EC
:10514000126892B2026022685205FCD54FF6FF3217
:105150002260002202F1805101F5B851890008ACAB
:1051600004EB820050F8200C80B208600132082A5B
:10517000F0D100221A600720FFF7D3FE09B0F0BD7E
:1051800070B545F64441C4F200010A6892B241F29A
:105190001273C2F200031A801C8841F6B022C2F2D8
:1051A00000021088204010F4004F0C461E461546A1
:1051B00001D002F064FD32882B8813405B0508D5CE
:1051C0004FF6FF33236040F28403C2F200035B68B2
:1051D000984770BD08B541F21C73C2F200031B680A
:1051E000984708BD08B541F22073C2F200031B685E
:1051F000984708BD08B541F21873C2F200031B6856
:10520000984708BD08B541F22473C2F200031B6839
:10521000984708BD08B541F26C73C2F200031B68E1
:10522000984708BD08B541F23073C2F200031B680D
:10523000984708BD08B541F26073C2F200031B68CD
:10524000984708BD08B541F27073C2F200031B68AD
:10525000984708BD08B541F24C73C2F200031B68C1
:10526000984708BD08B541F23873C2F200031B68C5
:10527000984708BD08B541F22873C2F200031B68C5
:10528000984708BD08B541F24073C2F200031B689D
:10529000984708BD08B541F24473C2F200031B6889
:1052A000984708BD08B541F24873C2F200031B6875
:1052B000984708BD08B541F23C73C2F200031B6871
:1052C000984708BD08B541F25C73C2F200031B6841
:1052D000984708BD08B541F22C73C2F200031B6861
:1052E000984708BD08B541F26873C2F200031B6815
:1052F000984708BD08B541F23473C2F200031B6839
:10530000984708BD08B541F25873C2F200031B6804
:10531000984708BD08B541F26473C2F200031B68E8
:10532000984708BD08B541F25473C2F200031B68E8
:10533000984708BD08B541F25473C2F200031B68D8
:10534000984708BD41F68823C2F200039B7A2BB12F
:1053500041F2E063C2F2000305221A60704741F295
:10536000E063C2F2000304221A607047704710B570
:1053700021280BD141F6A823C2F200031B681B7839
:1053800003F07F03212B19D0022010BD2028FBD170
:1053900041F6A823C2F200031B681A7802F07F02CC
:1053A00045F23543C0F60003212A18BF002341F21D
:1053B0007472C2F20002107023B9E5E745F2194396
:1053C000C0F6000341F6A822C2F2000212689361FF
:1053D0000024548220469847204610BD41F6A82359
:1053E000C2F200031B681B7803F07F03212B07D157
:1053F000022807D02238012894BF002002207047DD
:10540000022070470020704721B9022834BF0020D5
:10541000022070470220704738B941F6A823C2F233
:1054200000031B6808221A82704740F20010C2F283
:105430000000704738B941F6A823C2F200031B6888
:1054400008221A82704740F20010C2F20000704732
:1054500010B540F2B800C2F2000000F11001FBF7F5
:10546000ECF941F6A823C2F200031B6800249C72E9
:10547000FFF7C0FC02F032FFFBF7E9FE41F2E06308
:10548000C2F200031C6010BD10B541F6A823C2F2A1
:1054900000031B6800249C7249F6C522C0F6000276
:1054A000D2795A72DC72204602F013FD20464FF486
:1054B000007102F01FFD2046102102F029FD204658
:1054C000402102F0E2FD2046802102F0CDFD204681
:1054D00002F076FD40F28403C2F20003204693F806
:1054E0002C1002F013FE204602F057FD0120214649
:1054F00002F000FD0120C02102F0B6FD01202021B4
:1055000002F006FD0120214602F01BFD02204FF4AF
:10551000C06102F0EFFC02204FF4807102F0A4FDA4
:105520000220214602F00DFD0220202102F0F0FCB5
:105530000320214602F0DEFC032002F051FD03208F
:105540004FF488714FF4B07202F001FE0320012184
:10555000402202F01AFE032002F062FD032002F056
:1055600071FD032002F04CFD03204FF4405102F086
:10557000E8FC0320214602F0CBFC204602F00AFBA7
:1055800041F2E063C2F2000301221A6010BD10B5BF
:1055900041F27474C2F200042378202B03D1FBF78C
:1055A000A0FE0023237010BD40F2D001C2F2000122
:1055B00002F0B8B840F2F801C2F2000102F0B2B84D
:1055C00041F6A823C2F200031B68D978042907D842
:1055D00040F2D803C2F2000303EBC10102F0A2B80B
:1055E0000020704740F2B403C2F2000304221A7094
:1055F00041F26C73C2F2000345F25142C0F6000260
:105600001A6041F23073C2F2000345F28942C0F6DB
:1056100000021A6041F26073C2F2000345F28F5239
:10562000C0F600021A6041F27073C2F2000345F244
:105630006D32C0F600021A6041F24C73C2F20003F0
:1056400045F26F32C0F600021A6041F23873C2F2BE
:10565000000345F2DD32C0F600021A6041F2287301
:10566000C2F2000345F20942C0F600021A6041F29C
:105670004073C2F2000345F2A952C0F600021A605C
:1056800041F24473C2F2000345F2B552C0F6000283
:105690001A6041F24873C2F2000345F2C152C0F6EB
:1056A00000021A6041F23C72C2F2000247F63B432C
:1056B000C0F60003136041F25C72C2F2000245F2D0
:1056C0004531C0F60001116041F22C72C2F20002B5
:1056D000136041F26872C2F20002136041F2347248
:1056E000C2F20002136041F25872C2F2000213606B
:1056F00041F26472C2F20002136041F25472C2F2CB
:105700000002136041F25073C2F2000345F25F32AF
:10571000C0F600021A60704770B541F28932C2F2D9
:1057200000021078012867D141F29431C2F20001E1
:105730000B680D4633B9137040F68833C2F200038C
:10574000187022E0402B41F29034C2F2000422682B
:1057500090B205D940322260403B0B60402604E005
:105760009EB21344236000230B6040F68933C2F2DB
:1057700000031844C021324602F082FB012031466A
:1057800002F0B4FC012002F0F5FB41F28C33C2F2CE
:1057900000031B6883B340F68833C2F200031B7812
:1057A000012B29D141F29434C2F200042D68402D1E
:1057B00041F29033C2F200031A6890B205D9403228
:1057C0001A60403D2560402604E0AEB215441D60DD
:1057D0000023236040F68933C2F200031844C0213D
:1057E000324602F04DFB0120314602F07FFC0120E1
:1057F000BDE8704002F0BEBB70BD10B5032002F0E2
:1058000071FB10F0400F4FF003004FF001010CD07E
:1058100002F03EFD032002F017FD044641F27570D0
:10582000C2F200004FF488710BE002F031FD03205A
:1058300002F01CFD044641F27570C2F200004FF404
:10584000B071224602F033FB41F27570C2F20000E3
:10585000E1B2FBF7E4FD0320BDE8104002F09DBB80
:1058600041F2E063C2F200031B68052B0DD141F247
:10587000B873C2F200031A68511C052A01D01960DE
:10588000704700221A60FBF7E3BD704710B504466D
:1058900040B9FEF76FFB40F22403C2F20003187018
:1058A000204610BD012010BD07B578B9BDF8141011
:1058B00000910498FEF780FD40F22403C2F2000339
:1058C000187018782A3818BF012000E0012003B0B2
:1058D0005DF804FB07B578B9BDF814100091049881
:1058E000FEF7ADFB40F22403C2F2000318701878F3
:1058F0002A3818BF012000E0012003B05DF804FB46
:1059000070B508B1012070BDFEF734FB2A28F9D12B
:1059100041F21864C2F200042046FEF783F9B4F89D
:10592000540000040021FEF70EFB237EDBB294F846
:105930005620022A214641F2CC76C2F200060ED150
:10594000226901324FF0FF344FF0FF354FF400234E
:10595000E3FB0245620A42EAC55232600FE0227A56
:1059600020690130023300FA03F3012000FA02F249
:105970004FF4007092FBF0F252089340336041F212
:10598000BC75C2F200054FF400732B60B1F85400EF
:1059900000040021FEF7D7FA40F22404C2F200040A
:1059A00020704FF40060FEF790FA207023782A2BC5
:1059B000A8D141F2C473C2F200032A6831684A4395
:1059C0001A60002070BD2DE9F74F834641F6F413AD
:1059D000C2F2000318789A4641F2E074C2F2000461
:1059E00080B941F2BC73C2F2000353F82B0041F6B8
:1059F000E413C2F2000341431960504320600123C5
:105A00008AF800309AF80030012B52D141F2D87652
:105A1000C2F20006336841F6E417C2F2000741F211
:105A2000E478C2F2000841F2D475C2F20005C3B9AD
:105A30003A68CDF8008041F2BC79C2F2000939F829
:105A40002B30019358460023FFF744FF8120414645
:105A5000402202F056FC59F82B30403B3360402383
:105A60000AE0296881204144402202F04AFC336860
:105A7000403B33602B6840332B600120402102F013
:105A800035FB0120302102F043FA3B6840333B6094
:105A90002368403B236041F67023C2F200039A68FA
:105AA000403A9A604FF4C050C4F20100012100F066
:105AB00018FF236803BB41F2D872C2F200021360E0
:105AC00041F2D472C2F20002136041F6E412C2F253
:105AD0000002136041F62422C2F200020321117079
