:020000040800F2
:10000000000001207DA40008C9060008CB060008F6
:10001000CD060008CF060008D10600080000000049
:10002000000000000000000000000000D3060008EF
:10003000D506000800000000D7060008D906000811
:10004000C5A40008C5A40008C5A400081D07000831
:10005000C5A40008C5A40008C5A40008C5A40008DC
:10006000C5A40008C5A40008C5A40008C5A40008CC
:10007000C5A40008C5A40008C5A40008C5A40008BC
:10008000C5A40008C5A40008C5A4000815070008F9
:1000900019070008C5A40008C5A40008C5A40008E5
:1000A000C5A40008C5A40008C5A40008C5A400088C
:1000B000C5A40008C5A40008C5A40008C5A400087C
:1000C000C5A40008C5A40008C5A40008C5A400086C
:1000D000C5A40008C5A40008311B0008C5A4000879
:1000E000C5A40008C5A40008C5A40008C5A400084C
:1000F000C5A40008C5A40008C5A40008C5A400083C
:10010000C5A400081F690008C5A40008C5A400080C
:10011000C5A40008C5A40008C5A40008C5A400081B
:10012000C5A40008C5A40008C5A40008C5A400080B
:1001300000000000000000000000000000000000BF
:1001400000000000000000000000000000000000AF
:10015000000000000000000000000000000000009F
:10016000000000000000000000000000000000008F
:10017000000000000000000000000000000000007F
:10018000000000000000000000000000000000006F
:10019000000000000000000000000000000000005F
:1001A000000000000000000000000000000000004F
:1001B000000000000000000000000000000000003F
:1001C000000000000000000000000000000000002F
:1001D000000000000000000000000000000000001F
:1001E0005FF8E0F12DE9F04700F03AFB4FF47A7048
:1001F00000F0B0F903264FF4C055C4F201054FF4E6
:100200007A7000F0F4F92021284608F04EFB0446ED
:100210004021284608F049FB0443E4B2082128465F
:1002200008F043FB0443E4B2002C54D140F26C23A9
:10023000C2F2000301221A6040F26C24C2F20004F0
:10024000236853B940214FF4C050C4F2010008F0B4
:100250002CFB002842D00423236009F075F82368A2
:10026000012B40F26825C2F2000541F21C2CC2F2BB
:10027000000C41F61027C2F2000749F64943C0F6C8
:10028000000341F60C26C2F2000641F60820C2F235
:10029000000041F60421C2F2000141F6F412C2F25C
:1002A000000230D140F6F174C0F600042C6041F633
:1002B0009324C0F60004CCF800403B603360036038
:1002C0000B60136040F25C33C2F2000300221A603C
:1002D0002B689847FCE7013E91D1ADE720214FF410
:1002E000C050C4F2010008F0E0FA08B10323B3E7FC
:1002F00008214FF4C050C4F2010008F0D6FA0028DB
:10030000ABD00223A8E7D4F800E0BEF1040F22D15D
:1003100041F27774C0F600042C6041F23D74C0F6DF
:100320000004CCF8004047F2BB64C0F600043C6017
:10033000336047F2BB73C0F60003036047F6330334
:10034000C0F600030B6046F62773C0F60003136087
:1003500007F019F9BCE7D4F800E0BEF1030F41F64D
:10036000932EC0F6000E1AD141F62D04C0F60004FB
:100370002C60CCF800E048F2BD04C0F600043C60FC
:1003800048F24734C0F60004346003600B6047F263
:10039000E303C0F60003136008F085F998E7D4F88A
:1003A0000080B8F1020F40F6F179C0F6000940F282
:1003B0005C38C2F200080CD1C5F80090CCF800E01F
:1003C0003B60336003600B6013600123C8F80030AA
:1003D0007EE74FF0010AC4F800A0C5F80090CCF801
:1003E00000E03B60336003600B6013600023EDE7C7
:1003F00082B04FF48053C4F202031A6842F0010243
:100400001A6059680022CFF6FF020A405A601A6843
:1004100022F0847222F480321A601A6822F4802258
:100420001A605A6822F4FE025A604FF41F029A6062
:100430000022009201921A6842F480321A601A680F
:1004400002F400320192009A01320092019A1AB924
:10045000009AB2F5A06FF2D11A6812F4003218BFF8
:1004600001220192019A012A2FD14FF40052C4F2C5
:100470000202116841F010011160116821F00701BA
:100480001160116811605A685A605A685A605A6857
:100490005A605A6822F47C125A605A6842F4302238
:1004A0005A601A6842F080721A601A689201FCD58C
:1004B0005A6822F003025A605A6842F002025A60F7
:1004C0005A6802F00C02082AFAD14FF46D43CEF2BA
:1004D00000034FF000629A6002B070474FF4805200
:1004E000C4F20202536803F00C03042B28D0082B3B
:1004F0002BD153685168C3F383430233C80313D429
:100500004FF41061C0F23D014B435268C2F3031235
:100510004DF2B401C0F60001895C40F20002C2F263
:100520000002CB40136070475168890347BF48F60B
:100530008051C0F25B014FF4D851C0F2B701E3E73C
:100540004FF4D853C0F2B703DFE74FF49053C0F233
:100550007A03DAE730B587B00190FFF7BFFF0420D8
:1005600008F04AF9019A40F20004C2F2000423683C
:10057000B3FBF2F3013BB3F1807F37D24FF0E022BF
:1005800053614FF46D43CEF20003F02183F8231042
:1005900000259561072313614FF48053C4F20203D1
:1005A000DA6942F00802DA6103A808F0ADFC2368BA
:1005B00044F24022C0F20F02B3FBF2F3013BADF86C
:1005C0000C30ADF80E504FF6FF73049303A94FF4AF
:1005D0004060C4F2000008F036FC01214FF4406096
:1005E000C4F2000008F099FC07B030BDFEE782B00D
:1005F0000190019A40F27023C2F200031A601A6857
:10060000002AFCD102B07047F8B515461E460024FA
:100610009F1EB44201D120460DE001F02BFA43B2F7
:100620000028FAD005F8010B0D2B05D1A74203D302
:100630000A232B70A01CF8BD0134EAE770B51446FC
:100640001D46D618B44201D1284670BD23780A2B26
:1006500002D10D2001F0FDF914F8010B01F0F9F9B8
:10066000F0E7704700207047002070474FF40053B8
:1006700053600020704708B540F27423C2F20003B3
:10068000186820B945F67850C2F20000186001449D
:100690006A46914206D90AF063FF0C2303604FF0CB
:1006A000FF3008BD1960FCE7012070474FF0FF30B4
:1006B0007047FEE708B50AF053FF162303604FF0BA
:1006C000FF3008BD012070477047FEE7FEE7FEE7F8
:1006D000FEE770477047704708B540F27023C2F2DA
:1006E00000031A6812B11A68013A1A6000F080F922
:1006F00040F28823C2F2000301221A6040F26C2308
:10070000C2F200031B68022B03D1BDE8084000F0D1
:100710003EBC08BD09F087BB06F0FFBB704770B553
:1007200000234D1C1E46040FB0F1204F34BF30345F
:10073000373401F81340000105F813600133DCB2CF
:10074000A242F0D870BD73B501217D2008F0D3F925
:100750004FF6FF73C0F20303019301A94FF4006049
:10076000C4F2010008F053F84FF44065C4F20105EB
:1007700001A9284608F04BF801A94FF48050C4F2B3
:10078000010008F044F801A94FF4A050C4F20100A0
:1007900008F03DF84FF4C054C4F2010401A920460A
:1007A00008F035F800217D2008F0A5F90121482046
:1007B00008F0A1F90323C1F20303019301A9204624
:1007C00008F025F84FF48076ADF8046001A92846BA
:1007D00008F01DF83146284608F06FF80121204640
:1007E00008F06BF80221204608F067F802B070BDEF
:1007F00007B50121402008F07EF97823C2F60303F3
:10080000019301A94FF4C050C4F2010007F0FFFFAB
:100810000121042008F06FF94FF48073C0F2034304
:10082000019301A94FF40060C4F2010007F0EFFF4B
:1008300003B05DF804FB08B500214FF0006007F03D
:10084000D0FF4FF46D42CEF20002D36823F4E06390
:100850001B041B0C43F0BF6343F40033D36008BD9B
:1008600008B5FFF73BFEFFF7E6FFFFF76CFFFFF76A
:10087000BFFF00F040F900F07AFABDE8084000F050
:100880005BB97FB5002008F09DF8002008F095F8CE
:100890004FF480114FF4803008F084F8012008F004
:1008A0008CF8392008F045F90028FAD04FF40053AD
:1008B000C4F202031A6842F010021A601A6822F0A9
:1008C00007021A601A6842F002021A60022008F059
:1008D00079F808F081F80828FBD101A808F0ADF8F4
:1008E00007B05DF804FB07B50121202008F003F9EB
:1008F0000823C1F20343019301A94FF4A050C4F2AD
:10090000010007F084FF03B05DF804FB08B5002088
:1009100008F06AF801214FF40000BDE8084008F033
:10092000F6B8082128B14FF4A050C4F2010007F036
:10093000C4BF4FF4A050C4F2010007F0BCBF45F69D
:10094000D433C2F200039A7A41F6F013C2F20003E4
:1009500012B105221A6070470122FBE770B5054607
:100960000C464FF47042C1F6FF72D2F8E837D2F865
:10097000EC67D2F8F00718180AD008222946FFF7CA
:10098000CEFE042221463046BDE87040FFF7C7BEC8
:1009900070BD40F28823C2F200031A68012A03D115
:1009A00000221A6008F0C8BC70470023184640F2C5
:1009B0008C21C2F2000131F8132092B210440533A9
:1009C000322BF8D10A23B0FBF3F0C0F30B0040F652
:1009D000A123584340F20403C2F20003B3F90020FC
:1009E000511C0EBFC00A000B00EB6200188070475C
:1009F00038B54FF480714FF40060C4F2010007F085
:100A000054FF40F28423C2F20003E8B11A680132B5
:100A10001A6040F6B8339A4217D908F08DFC00F0FE
:100A2000D6FA4FF480714FF44060C4F2010007F031
:100A300044FF4FF400514FF48050C4F2010007F01E
:100A40003AFF08F079FCFCE7186040F20804C2F2B3
:100A50000004256845B1FFF7A8FF40F28023C2F2E9
:100A600000031860013D256040F27C23C2F20003C0
:100A70001A680132B2F57A7F01D81A6038BD0022B7
:100A80001A6040F28024C2F20004256805EB450597
:100A9000FFF78BFF28448308236040F6A373984236
:100AA00040F27823C2F200030CD9B0F5615F40F246
:100AB0000C02C2F2000207D20221116043F2574237
:100AC000904204D90022D8E701211160FAE71A68A0
:100AD00001321A60142AD1D908F02EFC00F077FAFE
:100AE0004FF400514FF48050C4F2010007F0E3FED0
:100AF00008F022FCFCE707B50121102007F0FBFFFE
:100B00004FF40053C1F20103019301A94FF4805047
:100B1000C4F2010007F07BFE45F2555008F0FAFBE5
:100B2000042008F0FDFB40F6354008F0FFFB08F01C
:100B300003FC03B05DF804FB38B501214FF40470E9
:100B400007F0D9FF0121084607F0C9FF40F2F02164
:100B5000C2F200010F230B8003254D804FF480501B
:100B6000C4F2010007F053FE01214FF4007007F0BA
:100B7000C2FF0820C4F2020008F09BF840F2F42102
:100B8000C2F2000142F24C43C4F201030B6040F296
:100B90008C23C2F200034B6000248C603223CB60B4
:100BA0000C6180234B614FF480738B614FF4806341
:100BB000CB6120230B624C628C620820C4F20200DD
:100BC00008F004F901210820C4F2020008F01AF923
:100BD00040F22031C2F200010C6040F201138B8020
:100BE0004FF460238B60CC6005240C744FF41050DC
:100BF000C4F2010007F0B1FF012008F04DF807230F
:100C0000012209214FF41050C4F2010007F0F6FF51
:100C10002346022210214FF41050C4F2010007F0C5
:100C2000EDFF07232A460A214FF41050C4F20100B9
:100C300007F0E4FF072304220C214FF41050C4F204
:100C4000010007F0DBFF072322460D214FF410506F
:100C5000C4F2010007F0D2FF01214FF41050C4F29A
:100C6000010008F010F801214FF41050C4F2010007
:100C700007F097FF012008F00FF84FF41050C4F26E
:100C8000010007F0A0FF4FF41054C4F20104204605
:100C900007F09EFF0028FAD14FF41050C4F2010073
:100CA00007F09AFF4FF41054C4F20104204607F0F5
:100CB00098FF0028FAD101214FF41050C4F201002E
:100CC00007F078FF01214FF41050C4F20100BDE895
:100CD000384007F08ABF73B50646CDE90023684661
:100CE00009F0BEFD0446436903F26C734361354667
:100CF0000FCC0FC50FCC0FC523682B60304602B058
:100D000070BD10B5044608F036F9024600232046AF
:100D1000FFF7E1FF204610BD10B50446012008F0A2
:100D2000F4FA08F05AF9204608F038F908F055F9B5
:100D30000020BDE8104008F0E8BA84B030B58BB0B0
:100D40000EAC84E80F0001AC0EAD0FCD0FC40FCD7B
:100D50000FC42B682360A1F26C73069301A809F0FD
:100D60005DFF0BB0BDE8304004B0FFF7D5BF70B5F4
:100D700086B0142008F0B9FA4AF2A5540121A04225
:100D80004FF0C05052D007F0C2FE012008F0BDFA6B
:100D90002146142008F09AFA08F08FFA012007F093
:100DA00029FE412007F0C5FE0028FAD04FF48070DC
:100DB00007F035FE012007F03AFE08F00EF9012198
:100DC000084608F0B6F808F008F947F6FF7008F092
:100DD000F4F808F002F940F23434C2F2000440F2B0
:100DE000D9736361062323610F23E3601723A36094
:100DF0002D236360254645F8103B6E460FCD0FC688
:100E00002B68336094E80F00FFF797FF08F0E5F8D0
:100E1000012008F07AFA4AF2A551142008F056FA97
:100E2000002006B0BDE8704008F06FBA07F06FFE12
:100E300008F0DBF80121084608F07BF806B0BDE8B1
:100E4000704008F0CAB870B5002441F24865C2F29B
:100E5000000540F26436C2F200062B68984782B261
:100E600062B10CB9242A07D1631C9BB230550A2AFF
:100E700007D0B3F5806F02D3002300E023461C4661
:100E8000EBE7D8B270BD0378303BDBB2092B0AD850
:100E900040783038C0B2092805D803EB830300EB53
:100EA0004300C0B2704700207047024640F26433EE
:100EB000C2F2000312F8010B18B113F8011B8142B2
:100EC000F8D07047034640F26430C2F2000010F8D8
:100ED000012B202A06D92C2AF9D1013B13F0FF035C
:100EE000F5D170470020704700B5A1B002460B460F
:100EF00091F90010C1B94DF2C701C0F60001684672
:100F000000F0D0FFFFF745FD9DF90030242B13D1F1
:100F100068460022802310F9011F2A290DD0013BC9
:100F20000BD04A40D2B2F6E74DF2C401C0F6000140
:100F3000684600F0B7FFE5E7002269464DF2CB00B6
:100F4000C0F6000000F09CFF00F00CFE0028FBD073
:100F500021B05DF804FB10B540F60424C2F2000491
:100F6000204603F0DCFDA278E3781B0443EA4253F9
:100F7000627943EAC223A27943EA4213E27943EA5F
:100F800052032088A0F2BC7043EA406010BD10B547
:100F900040F25834C2F2000423685A1C226041F621
:100FA0005832934212D940F25C33C2F200031B68FC
:100FB000012B09D14DF2D101C0F600014DF2D20052
:100FC000C0F60000FFF790FF0023236010BD10B5AE
:100FD00040F26033C2F200031B6843B140F2687410
:100FE000C2F20004204603F007FC0028FAD110BD2D
:100FF0002DE9F04F8FB00023ADF8323041F250634D
:10100000C2F2000341F65322C0F600021A6041F218
:101010004863C2F2000341F67522C0F600021A606E
:1010200040F25C33C2F200031C68012C40F0C58121
:1010300002214FF4C050C4F2010007F03CFC2146ED
:101040004FF4C050C4F2010007F035FC4FF41641D4
:10105000022000F066FC4DF2DB01C0F600014DF20B
:10106000E000C0F60000FFF73FFF6420FFF7BFFA83
:101070004FF4E131022000F054FC4DF2DB01C0F6E8
:1010800000014DF2E000C0F60000FFF72DFF6420E4
:10109000FFF7ADFA4FF41651022000F042FC4DF27A
:1010A0002311C0F600014DF2E900C0F60000FFF781
:1010B0001BFF4DF22311C0F600014DF2F200C0F605
:1010C0000000FFF711FF4DF2FB01C0F600014DF2E9
:1010D000FD00C0F60000FFF707FF4DF23F11C0F61C
:1010E00000014DF20610C0F60000FFF7FDFE4DF2C4
:1010F0003F11C0F600014DF20F10C0F60000FFF7DF
:10110000F3FE4DF23F11C0F600014DF21810C0F68B
:101110000000FFF7E9FE4DF22111C0F600014DF28B
:101120002510C0F60000FFF7DFFE4DF22311C0F6D8
:1011300000014DF22E10C0F60000FFF7D5FE4DF273
:101140003711C0F600014DF24110C0F60000FFF764
:10115000CBFE02214FF4C050C4F2010007F0ADFBFA
:1011600021464FF4C050C4F2010007F0A6FBFFF780
:1011700010FC00224DF2D101C0F6000140F2B8701F
:10118000C2F2000003F076F800F0D8FC002440F230
:101190006037C2F20007A1464FF4C055C4F2010502
:1011A00000233B600221284607F085FBFFF7F1FB97
:1011B00040F25838C2F2000830BFFFF7EAFBFFF7F1
:1011C00042FE0646FFF7E5FB002EF8D00221284636
:1011D00007F073FB0121284607F06DFB4DF24A1022
:1011E000C0F60000FFF761FE68B14DF25110C0F685
:1011F0000000FFF75AFE30B14DF25810C0F6000063
:10120000FFF753FE38B90220FFF75CFE04460121C8
:10121000284607F052FBC8F80090002CCCD0237869
:10122000412BC9D101243C600221284607F045FB2F
:101230002146284607F041FB2046FFF743FE0246C1
:10124000FFF721FE40F2343AC2F2000ACAF8080061
:10125000901CFFF718FECAF80400101DFFF713FEDC
:10126000CAF800000920FFF72DFE0446FFF70BFE29
:10127000CAF80C00A01CFFF706FE0138CAF81000DF
:10128000201DFFF700FE6430C0B2CAF814005046BB
:1012900009F0C4FC47F69063C01841F10001FFF764
:1012A0003BFD02A8FFF72DFDD44602AE0FCEACE801
:1012B0000F000FCEACE80F003368CCF800300346C7
:1012C000DAF81420642192FBF1F0DAF80C60009651
:1012D000013301FB10224DF25F11C0F6000140F214
:1012E0006430C2F2000000F0DDFD40F26876C2F228
:1012F0000006122240F26431C2F20001304602F0D0
:10130000E1FF002840F09580D6E90423304603F041
:1013100082FA002840F08D80304603F0DDF9002885
:1013200040F087804DF2701AC0F6000A40F2643B2C
:10133000C2F2000BFFF787FD064600283FF430AFEE
:10134000FFF727FB5046FFF7B0FD68B14DF277106D
:10135000C0F60000FFF7A9FD30B14DF27E10C0F6D7
:101360000000FFF7A2FD70BB0620FFF7ABFD0446AF
:101370000378302B11D00221284607F09CFA0DABE0
:101380003246594640F26870C2F2000003F0C7F8D6
:1013900000284ED10D9B9E424BD1BDF83230013317
:1013A0009BB2ADF832305A2B35D80221284607F0CF
:1013B00084FAC8F8009030BFBCE74FF41651022001
:1013C00000F0AFFAD3E64DF24A10C0F60000FFF786
:1013D0006CFD70B14DF25110C0F60000FFF765FDD5
:1013E00038B14DF25810C0F60000FFF75EFD00283E
:1013F000D3D10220FFF766FD04460378412BCCD100
:101400000221284607F057FA0DAB324640F264310C
:10141000C2F20001B6E70221284607F04CFAADF807
:10142000329040F26870C2F2000003F055F90028D3
:10143000BBD040F26876C2F200060221284607F0CF
:101440003AFA304603F0D8F90028F6D1A8E601228E
:1014500040F225514FF48840C4F2000007F0E9BE85
:1014600037B541F23864C2F200044FF416532360DA
:10147000002363604FF44022A260A3810121052074
:1014800007F039FB01214FF4003007F040FB042343
:10149000C1F6030301934FF40065C4F2010501A9ED
:1014A000284607F0B4F90823C4F60303019301A901
:1014B000284607F0ACF94FF48845C4F200052146F0
:1014C000284607F04EFE0121284607F0A6FE03B08D
:1014D00030BD13B540F2F802C2F200021379012BBD
:1014E00007D0022B78D033B1FFF7BAFF002002B04B
:1014F00010BD4FF4405341F23861C2F20001CB807D
:101500005379012B6BD0022B6CD0002BECD10B81CB
:101510009079072869D00828E6D1003B18BF01233D
:101520001B038B8013680B6000248C810C234B8180
:101530000121052007F0DFFA01214FF4003007F008
:10154000E6FA0423C1F60303019301A94FF40060F6
:10155000C4F2010007F05BF90823C4F6030301930A
:1015600001A94FF40060C4F2010007F050F92246CF
:1015700040F225514FF48840C4F2000007F059FEB4
:1015800040F61823C2F200031C6040F61423C2F296
:1015900000031C6040F61023C2F200031C6040F6FA
:1015A0000D23C2F200031C7040F60C23C2F20003AC
:1015B0001C7041F23861C2F200014FF48840C4F25D
:1015C000000007F0CEFD01214FF48840C4F2000076
:1015D00007F023FE01208AE74FF400538BE74FF416
:1015E000806394E74FF4C06391E7002399E7F8B56F
:1015F00006460D4600244FF48847C4F20007A54272
:1016000000D8F8BD315D384607F02BFE8021384602
:1016100007F02FFE0028F9D00134F0E770B540F64E
:101620000C22C2F200020023137040F60D24C2F215
:1016300000042278012A5BD040F61421C2F2000196
:101640000868B0F5006F24BF0B60184640F61823F9
:10165000C2F200031B6883421BD10025257041F6AE
:101660006823C2F200031A78D4B2012A40D11D7057
:101670002A46A02140F61C20C2F2000008F014FC0B
:101680002946204608F06DFD2046BDE8704008F070
:1016900092BC34BFC0F500631B1A40F61022C2F2A0
:1016A0000002402B16D900F140050D60403B13604D
:1016B00040250126267040F61C23C2F200032A466C
:1016C000A021184408F0F0FB2946304608F049FDF7
:1016D0003046DAE79DB203440B6000231360402DCF
:1016E00001BF41F66823C2F2000301221A70E0E74D
:1016F00070BD38B540F2F803C2F200039B794FF495
:101700008840C4F20000072B40F61824C2F20004FF
:1017100040F61C25C2F200050CD107F0A6FD236897
:1017200000F07F00E8540133B3F5006F28BF0023B9
:10173000236038BD07F099FD2368F3E708B540F250
:1017400025514FF48840C4F2000007F099FD08B11C
:10175000FFF7CFFF08214FF48840C4F2000007F0E4
:1017600088FD38B14FF48840C4F20000BDE808405D
:1017700007F07BBD08BD08B5FFF783F84FF47A701A
:10178000FEF7E8FE00F05DFE4DF26431C0F60001A8
:1017900041F25460C2F2000000F034FF41F25460A4
:1017A000C2F2000000F03CFF00F030FE00234DF2DA
:1017B0008512C0F600021946184600F07DFD41F280
:1017C0006063C2F20003196800234DF29712C0F65D
:1017D00000028979184600F06FFDFFF784F80020B9
:1017E000FFF79FF8FFF792F84FF46143CEF2000342
:1017F000302283F814234FF480121A60202283F8D9
:10180000262340225A6008F020FA0120FFF789F8C9
:1018100041F6F014C2F200042368052B03D130BF57
:10182000FFF7B7F8FBE7FFF7B4F8F5E708B5FFF700
:1018300028F84FF47A70FEF78DFE00F002FE4DF2AC
:101840006431C0F6000141F25460C2F2000000F0C1
:10185000D9FE41F25460C2F2000000F0E1FE00F057
:10186000D5FD41F26065C2F20005296800234DF202
:101870009712C0F600028979184600F01DFD00207D
:1018800005F0EDFF044688BB03464DF2AD12C0F6ED
:101890000002014600F010FDFFF725F82046FFF793
:1018A00040F8FFF733F84FF46143CEF200033022E3
:1018B00083F814234FF480121A60202283F8132334
:1018C0004FF400221A6008F0C0F90120FFF729F850
:1018D00041F6F014C2F200042368052B03D130BF97
:1018E000FFF757F8FBE7FFF754F8F5E72B6899790E
:1018F00000234DF2C012C0F600024900184600F065
:10190000DBFC2B68997900234DF2D812C0F6000257
:1019100001EB4101184600F0CFFC30BFFFF739F86A
:10192000FBE7F7B50F4600250195022857D141F294
:101930003464C2F200044FF48843C4F2000323600D
:101940000121052007F0D7F801214FF4003007F0FE
:10195000DEF80423C1F60303019301A94FF40060EC
:10196000C4F2010006F053FF0823C4F603030193F9
:1019700001A94FF40060C4F2010006F048FF41F2F3
:101980003866C2F20006304607F03DFC376031464B
:10199000206807F0E6FB4FF46143CEF200032022FB
:1019A00083F8262340225A6041F23062C2F20002DC
:1019B00041F22023C2F200031360C3F80454C3F8B9
:1019C0000054C3F80C54C3F80854012240F22551C6
:1019D000206807F02EFC0121206807F01EFC03B0F0
:1019E000F0BDD0F80834D0F80C040133C3F3080379
:1019F000181A18BF0120704710B50246FFF7F1FF13
:101A00000446A8B1D2F8083472B6D01880F8001293
:101A10000133C3F30803C2F8083462B641F23463F9
:101A2000C2F20003012240F22771186807F001FC9E
:101A3000204610BD034672B6D0F80424805CC0B2C4
:101A4000D3F804240132C2F30802C3F8042462B6B6
:101A5000704710B5014641F23062C2F200021468CC
:101A60002046FFF7BEFF0028F9D02046BDE8104011
:101A7000FFF7C2BF41F23063C2F200031868D0F82A
:101A80000024D0F804349A4201D0FFF7D3BF0020DD
:101A90007047F8B541F23464C2F2000440F22551B7
:101AA000206807F0EDFBB0B141F22025C2F200053D
:101AB000D5F800640136C6F30806D5F8047420682A
:101AC00007F0D3FBC0B2BE421DD1002240F2255127
:101AD000206807F0AEFB40F22771206807F0D0FBCA
:101AE00028B341F22023C2F20003D3F80C24D3F828
:101AF0000814206891420CD1002240F22771BDE801
:101B0000F84007F096BBD5F80034E854C5F80064F7
:101B1000E1E7D3F80C241A4492F80022D2B2828072
:101B2000D3F80C240132C2F30802C3F80C24F8BD28
:101B300041F21C23C2F200031B68184741F23063D4
:101B4000C2F200031B680022C3F80424C3F8002477
:101B500041F23463C2F20003012240F225511868B9
:101B600007F067BB41F23063C2F200031B68D3F891
:101B70000C24D3F80804831A58425841704770B5B2
:101B800005460C460A2902D10D21FFF7F8FF25B1C1
:101B9000E0B22B46BDE87040184741F24C63C2F2F8
:101BA00000031A6812B1511C1960147070BD000056
:101BB0002DE9F04F8DB080460B46934693F9001007
:101BC000002900F05A81252905D05C1C4046FFF70A
:101BD000D6FF5F4694E093F90110302924D1DC1C34
:101BE000009193F9021000262A2937D15BF8045B93
:101BF000002DBCBF6D42022614F9011B2E2954D1C1
:101C000094F900102A292BD001344FF00009A1F1DA
:101C10003003DBB2092B28D80A2303FB0919A9F1E9
:101C2000300914F9011BF2E72D2903D09C1C202355
:101C30000093D8E7DC1C93F90210202300930226BE
:101C4000D2E70A2303FB0511A1F1300514F9011BAA
:101C5000A1F13003DBB2092BF3D9CFE70025F7E779
:101C60005BF8049B94F9011002346C290CD194F9AF
:101C700000106C2919BF46F00406013446F00C062A
:101C800094F9011008BF0234002900F0F680782989
:101C90009CDC6E290CDC63292CD025DC58295FD014
:101CA000622993D14FF002095CE04FF0FF39DCE785
:101CB000A1F16F03092B89D801A252F823F000BFCC
:101CC000911D0008CD1B0008CD1B0008CD1B00088E
:101CD000071D0008CD1B0008EF1C0008CD1B0008E5
:101CE000CD1B0008611D000864297FF46FAF4FF021
:101CF0000A0937E05F4617F9041B4046FFF73FFF2C
:101D0000BB4623465AE75F4657F804AB504609F0F6
:101D100076FC8346B1070ED4064604E0009940469F
:101D2000FFF72DFF0136B542F8D8A5EB0B025D4554
:101D300038BF00229344D1449AF9001009B1CA4532
:101D400008D15D45DCD920214046FFF718FF0BF193
:101D5000010BF6E70AF1010A4046FFF710FFEBE737
:101D60004FF0100916F0080015D00BF1070B2BF0FF
:101D7000070B5F4657F8083BDBF80420642916D1AF
:101D8000002A14DA5B4262EB420246F001060EE0E2
:101D90004FF00809E6E70BF10407DBF8003016F016
:101DA000040256D0642901D1DA17E9E702469A46BF
:101DB000019278290CBF27230723039304AB0293D6
:101DC0004FF0000B4A4600235046019908F07CFB77
:101DD00013464FFA82FC5246DDF804E08246019138
:101DE000BCF1090FC2BF03995B184FFA83FC0BF1DA
:101DF00001030CF1300C029901F801CB02914A4524
:101E00007EF1000E03D3202B26D14FF01F0BF207DB
:101E100006D530336B442D2203F8202C0BF102033E
:101E200016F0020F1E4620D00DF11009013B19F9E2
:101E3000031000934046FFF7A2FE009B002BF5D154
:101E4000B5427FF65DAF20214046FFF798FE013690
:101E5000F6E76429ABD1A7E79B46B3E70193009966
:101E60004046FFF78CFE0136019BB542F6D8EE1ACC
:101E7000AB4288BF00261E44D6E70DB0BDE8F08F08
:101E80000FB407B504AA52F8041B019241F2506343
:101E9000C2F200031868FFF78BFE03B05DF804EB95
:101EA00004B070470EB417B505AA52F8041B41F2EE
:101EB0004C64C2F20004206001920020FFF778FE1B
:101EC000226800231370236003B0BDE8104003B004
:101ED000704770B596B001214FF4807006F0FFFD99
:101EE000012140F2E11006F006FE4FF4FF43C1F677
:101EF0000303079307A94FF4C050C4F2010006F092
:101F000086FC1025ADF81C504FF4A054C4F2010417
:101F100007A9204606F07BFC2023ADF81C3007A95A
:101F2000204606F074FC4FF40063ADF81C3007A99E
:101F3000204606F06CFC4023ADF81C308DF81F5095
:101F400007A9204606F063FC8023ADF81C3007A9E2
:101F5000204606F05CFC4FF48076ADF81C604FF430
:101F60004064C4F2010407A9204606F050FC314643
:101F7000204606F0A0FC0223CDE90033029305239E
:101F80000393CDE9043300230424CDE906340893F8
:101F900009930A950B930C930D930E930F934FF4A3
:101FA00080521092119312931393CDF850D0CDF824
:101FB00054D007A806F083FC0121204606F0E0FC7F
:101FC00016B070BD0B460A46014600F0FEB92DE979
:101FD000F04F87B080468946019341F25C6AC2F2B5
:101FE000000ADAF800305E7A4FEAD60B06F00706F0
:101FF0001078537840EA032040BA80B200F021FB09
:10200000044608EBCB039BB202930025DAF80030BC
:102010009B7AAB4228DC07B0BDE8F08F0023E05D7F
:10202000984002060BD5039AD0180593049180B20C
:10203000FFF7C8FF019800F0A7F9059B0499013349
:10204000082BECD1013708EBC7039BB203935F4524
:10205000E4DB5C44002709EB050189B2B74208DBE9
:1020600006B101340135D1E7002709EB050189B23A
:10207000E9E72378BB401B0609D5029BD8190391D9
:1020800080B2FFF79FFF019800F07EF903990137B6
:10209000E4E72DE9F04F87B080468946104601936A
:1020A00041F2606AC2F2000ADAF800305E794FEA63
:1020B000D60B06F0070600F0B9FA044608EBCB038E
:1020C0009BB202930025DAF800309B799D4228DB11
:1020D00007B0BDE8F08F0023E05D984002060BD505
:1020E000039AD0180593049180B2FFF76BFF019813
:1020F00000F04AF9059B04990133082BECD1013714
:1021000008EBC7039BB20393BB45E4DC5C440027A8
:1021100009EB050189B2BE4208DC06B10134013584
:10212000D1E7002709EB050189B2E9E72378BB4035
:102130001B0609D5029BD819039180B2FFF742FF15
:10214000019800F021F903990137E4E72DE9F74FF1
:1021500082468B461F46BDF8308041F25C66C2F273
:10216000000633685D7AEB08019305F007051478E3
:10217000537844EA032464BAA0B200F062FA044639
:102180003268937A5B44517A5144013B5A46013993
:10219000504600F01AF94FF000093268927A4A4529
:1021A00030DD019B04EB030A11E04FF0000B2278B5
:1021B00002FA0BF212F0800F0CBF4046384600F0D6
:1021C000E3F80BF1010BBBF1080FF0D101345445DA
:1021D000EBD154464FF0000BAB4505DB0DB10AF1D6
:1021E000010409F10109D8E79AF8002002FA0BF27C
:1021F00012F0800F0CBF4046384600F0C5F80BF1D6
:10220000010BE9E703B0BDE8F08F2DE9F74F074672
:102210008B469846BDF8309041F26066C2F20006E7
:1022200033685D79EB08019305F00705107800F03D
:10223000FDF90446326893795B4451793944013B96
:102240005A460139384600F0C0F84FF0000A3268AB
:10225000927952452DDD019BE71811E04FF0000BFC
:10226000227802FA0BF212F0800F0CBF484640466B
:1022700000F08AF80BF1010BBBF1080FF0D101342B
:10228000BC42EBD13C464FF0000BAB4504DB05B143
:102290007C1C0AF1010ADAE73A7802FA0BF212F032
:1022A000800F0CBF4846404600F06EF80BF1010B62
:1022B000EBE703B0BDE8F08F2DE9F34704460E4687
:1022C00015461F4640F21008C2F2000841F25C6950
:1022D000C2F2000941F2606AC2F2000A2A781AB911
:1022E000012002B0BDE8F0877F2C35D89F2E33D86F
:1022F000D8F800100B8802F17F00C0B21E2804D964
:1023000002F12000C0B21C2814D85FB92A46314619
:102310002046FFF75CFE0235D9F800305B7A234493
:102320009CB2DBE74A8800922A4631462046FFF7F6
:102330000DFFF0E747B931462046FFF7AAFE013509
:10234000DAF800305B79EAE74A8800922A4631469B
:102350002046FFF75AFFF2E70020C2E738B54FF4F6
:10236000A054C4F20104402525610A20FEF73FF97C
:102370006561802363610A20FEF739F925619620A3
:10238000BDE83840FEF733B902090023C6F6020360
:102390001A80000180B21880704700014FF0D043CE
:1023A00018804FF4A053C4F2010320221A610023C5
:1023B000C6F602031A881A881888C0F30710C2F3F9
:1023C0000B1340EA032080B2704770B54FF0D04540
:1023D0004FF428742C800024C6F6020400262680C0
:1023E000C0B2000120802680C9B2090121804FF4CB
:1023F0002C7129802680D2B2120122802680DBB285
:102400001B0123804FF430732B8070BD07B59F23D1
:1024100000227F211046FFF7D8FF4FF4A04301931D
:102420000022C6F6020240F6FF704FF6F0711080EF
:102430001180019B013B0193002BF8D103B05DF8A3
:1024400004FB2DE9F843FFF744FDFFF787FFD32096
:10245000FFF7A3FFB0F5487F40F0B8804FF0D044BD
:1024600010252580B420FEF7C2F84FF48073238036
:102470006420FEF7BCF84FF4887323809620FEF7A3
:10248000B6F84FF4316323800023C6F602036026BA
:102490001E803020188020221A804FF43461218061
:1024A00018804FF4366121801A804FF0E00EA3F8B7
:1024B00000E04FF4756121804FF4D07119804FF422
:1024C000406CA4F800C01A80002119804FF44167C5
:1024D000278050271F804FF4426727801A801A8078
:1024E0004FF4436727801D801A804FF4446727808C
:1024F0001D801A804FF4456727804FF48E671F8038
:102500004FF468771F804FF47268A4F800801A8037
:102510004FF47668A4F800804FF49868A3F8008020
:102520004FF47868A4F800801E804FF46068A4F827
:1025300000801E804FF4E078A3F800804FF4F87814
:10254000A3F80080A3F800804FF4C078A3F80080BF
:102550004FF49879A3F800901E80188018804020CE
:10256000188070201880188019804FF461662680CA
:10257000A0261E804FF4A0761E804FF4D8761E80D1
:10258000A3F800804FF490761E80A3F800E01A8034
:102590001D8019801D8080221A80188019804FF4B8
:1025A00058722280A3F800C027804FF4AA621A80D4
:1025B0004FF4547222801980FFF728FF4FF42473E0
:1025C00023801420BDE8F843FEF711B8FEE770B58C
:1025D000024641F25C63C2F200031968CD7A14230B
:1025E0000020854202DC4FF0FF3070BD0C68E61819
:1025F00036F8026C964202D8E45A9442F5D2013081
:102600000433EEE701608A7B4271CB7B8371D10892
:10261000520714BF01FB03334B43DBB20371704716
:1026200041F26063C2F200031860704741F26063D8
:10263000C2F200031A681379434311331068184437
:10264000704710B50446FFF7C2FF431C05D148F29E
:10265000A010FFF7BCFF48F2A01441F25C63C2F285
:1026600000031B681A6802EB8002528AA41A03EB6B
:10267000400082891444187A5B6800FB043010BD66
:102680000378427843EA0223827843EA0243C0781F
:1026900043EA0060704710B50278437842EA0322AB
:1026A000837842EA0342C4780379417943EA0123FB
:1026B000817943EA0143C17942EA046043EA016156
:1026C00010BD01700B0A43700B0C8370090EC170B2
:1026D00070470270110A4170110C8170120EC270A5
:1026E00003711A0A42711A0C82711B0EC371704772
:1026F0000239C36A023B8B4283BF4389006C01FBF2
:10270000030000207047034600F10B010020C201C6
:1027100042EA500213F8010B024402F0FF008B4220
:10272000F5D1704710B504464278013252010020BD
:102730000346022B08BF0423C10341EA5001E05CB9
:10274000014488B201339A42F3D810BD38B505462A
:102750000C4600693430FFF793FF886028693830F1
:10276000FFF799FFC4E904012B6993F8213003F0C6
:102770000203E3710023E36138BD10B50368BBB108
:102780001A4612F9011BCCB21F2C0BD93A29F8D1E9
:1027900093F9001030290BD102339A4208D102601C
:1027A000002010BD41F26463C2F200031878F8E71C
:1027B0004FF0FF30F5E738B50D46044618B909204B
:1027C00000232B6038BD0368002BF8D01A78002A4C
:1027D000F5D08188DA889142F1D1587804F091F9E6
:1027E00010F00100EBD12368EBE738B5044603791C
:1027F000C3B100F14C050123826C2946407804F0F6
:1028000099F988B92071A16C226BA36BCB1A934202
:1028100008D2E378022B05D101230A4429466078C7
:1028200004F088F9002038BD0120FCE738B50546E2
:10283000002435F8020B08B9204638BD02F026F90D
:10284000E30343EA54039BB2C2B21344C3F34E04FE
:1028500044EAC334C0F307200444A4B2E9E7F8B55E
:102860000446FFF7C2FF0546002846D16779012FCD
:102870003BD160712378032B40D104F14C064FF417
:1028800000720146304607F0C3FF522384F84C30F3
:1028900084F84D30612384F84E30412284F84F2073
:1028A000722184F8301284F8311284F8322284F8CC
:1028B0003332A16904F50D70FFF703FF616904F578
:1028C0000E70FFF7FEFE84F8485284F849525523F3
:1028D00084F84A32AA2384F84B32626B0132A26434
:1028E0003B463146607804F025F9002211466078B5
:1028F00004F02CF9003818BF0120F8BD042BF4D1E6
:1029000004F14C05626BA2643B462946607804F0F2
:1029100005F903460028E8D1A169E26A023A91422A
:1029200010D8511A6420A1FB000107F0CDFDC0B200
:1029300094F8BC308342D8D084F8BC000123A26C48
:102940002946CFE7FF20F3E7802808D99F2808D938
:102950002030C0B21C288CBF00200120704700200E
:102960007047012070478A76C2F30723CB7603783D
:10297000032B01BF120C0A75120A4A75704738B54D
:1029800004460D46836C8B420FD0FFF72EFF58B9DB
:1029900001232A4604F14C01607804F0BFF810B11D
:1029A00001204FF0FF35A56438BD0020FCE738B5A5
:1029B0000446002303714FF0FF338364FFF7DFFF0A
:1029C000002870D194F84A0294F84B3240EA03256B
:1029D0004AF655239D4241D094F84C30EB2B4AD116
:1029E0004AF655239D4251D094F8573094F8582018
:1029F00043EA0223B3F5007F41D194F85930002B0C
:102A00003DD05A1E1A423AD194F85A3094F85B20BD
:102A100053EA022333D094F85C30013B012B2ED8CB
:102A200094F85D3094F85E2053EA022327D094F89E
:102A30005F3094F8602043EA02237F2B06D804F12C
:102A40006C00FFF71DFEB0F5803F18D394F862309C
:102A500094F8632053EA022311D022E00B224DF2B6
:102A6000F711C0F6000104F14C0007F0C1FE002888
:102A7000B2D1012009E01833DBB2012BB0D94AF6FC
:102A800055239D4214BF0320022038BD08224DF279
:102A90000321C0F6000104F19E0007F0A9FE002802
:102AA000A2D10020F1E70420EFE72DE9F047064628
:102AB00091468D1EC36A023BAB4298BF00252F464C
:102AC0002C464FF000084FF0010A716C01EB1431F5
:102AD0003046FFF754FF58BBC4F3C80104F00703A6
:102AE0000AFA03F3DBB2F26A023A701890F84C006B
:102AF00018400134A24287BF5B00DBB200231C46B2
:102B000098BF4FF4007130B908F10108C84505D1EC
:102B1000B81CBDE8F08727464FF00008A5420AD050
:102B2000002BE2D10131B1F5007FCED20123DCE7E9
:102B30004FF0FF30EDE70020EBE72DE9F0470546C9
:102B4000174698460239466C06EB1136C1F3C809A0
:102B500001F007044FF0010A0AFA04F4E4B2314626
:102B600001362846FFF70BFF10B1BDE8F087994604
:102B700005EB090191F84C3003EA0402003A18BF52
:102B80000122424513D0634081F84C3085F804A0FF
:102B9000013FEAD0640014F0FF04E9D109F1010318
:102BA00001244FF00009B3F5007FE0D3D7E70220FE
:102BB000DBE7F8B50C46012940F28F800668F36A1E
:102BC0008B4240F28A803378013B032B00F28580F0
:102BD000DFE803F002293C4F01EB5105B16B01EB3B
:102BE00055213046FFF7CBFE10B14FF0FF30F8BD56
:102BF0006F1CC5F30805354495F84C50B16B01EBDB
:102C000057213046FFF7BBFE0028EED1C7F3080777
:102C1000374497F84C3045EA0320E3074CBF0009DE
:102C2000C0F30B00E3E7B16B01EB14213046FFF773
:102C3000A6FE0028D9D1640004F4FF74344494F84B
:102C40004C0094F84D3040EA0320D0E7B16B01EB23
:102C5000D4113046FFF793FE0028C6D106F14C0090
:102C6000A40004F4FE742044FFF70AFD20F0704035
:102C7000BDE7D0E9043153EA0102C57901D0826889
:102C800002B955BB8268A21A022D0DD1013B41F158
:102C9000FF315B0A43EAC1537189B3FBF1F39A42F6
:102CA0001BD81CD0601CA2E7032D02D1836993427C
:102CB000F8D8C3699BB9B16B01EBD4113046FFF76B
:102CC0005EFE002891D14C36A00000F4FE70304426
:102CD000FFF7D6FC20F0004089E7012087E76FF07E
:102CE000004084E7F8B506460D4604682378042BB7
:102CF00014BF4FF400134FF080538B4201D80220D1
:102D0000F8BDCA06FBD1016382681ABB2378022B87
:102D100012D82389B3EB551FF1D9E06BB06372630E
:102D20000028ECD000EB5520B0634C34C5F3080507
:102D30002C44F4630020E3E7E36BC271002BE8D07E
:102D400067897F021A461146BD4205D22046FFF729
:102D5000CFFCE3E71346F3E73046FFF72AFF0246CE
:102D6000431C06D00128CAD9E36A8342C7D9ED1BA8
:102D7000E9E70120C4E72DE9F84305460C4616466D
:102D8000012908D9C36A8B4205D90378022B5DD08B
:102D900003D8012B1FD0022026E0033B012BFAD8D9
:102DA000816B01EBD411FFF7EAFDE0B9A40004F454
:102DB000FE742F4617F84C3B042B07D03819FFF749
:102DC0005FFC26F0704600F070400643314638192B
:102DD000FFF777FC2EE001EB5107816B01EB5721E8
:102DE000FFF7CDFD10B10120BDE8F88305F14C09D6
:102DF00007F10108C7F30807F3B214F001041FBF7D
:102E000019F8072002F00F0242EA0313DBB209F8B7
:102E1000073001232B71A96B01EB58212846FFF7DE
:102E2000AEFD0028DFD1C8F308083CB1C6F3071691
:102E300009F8086001232B710020D5E719F8083044
:102E400023F00F03C6F303261E43F1E7816B01EB6A
:102E50001421FFF794FD0028C5D105F14C0364004F
:102E600004F4FF741A191E55C6F307265670E1E7DD
:102E7000F8B504460E461746E3690BB91846F8BD87
:102E80002068F51A691C012B14BFAA1C3A46FFF7EB
:102E900072FF0028F3D1E369013BE361ECE770B511
:102EA0000446C379032B01D0002070BD816883697B
:102EB000CD18A94202D10023E371F5E74E1C32463A
:102EC0002068FFF758FF0028EFD13146F1E72DE9E0
:102ED000F84306460568884649B96F69C7B1EB6A89
:102EE000BB4298BF0127AB69A3B9002405E0FFF7F7
:102EF00060FE0446012803D801242046BDE8F8837B
:102F0000421C00F09980EB6A8342F6D84746EAE714
:102F10000127E8E72B78042B48D1012239462846BF
:102F2000FFF7C3FD0446431E0333E6D801231A46C8
:102F300001462846FFF701FE0228DDD001287BD09C
:102F4000B8F1000F10D10223F3716C61AB69002B53
:102F5000D3D0EA6A023A9342CFD8013BAB616B7996
:102F600043F001036B71C8E7F379022B07D17B1C97
:102F7000A342EAD0B368FB1AB3610323F371F36988
:102F800008F10102A24205D113B10133F361DCE77C
:102F90000223FBE70BB90123F36122464146304689
:102FA000FFF766FF002844D10123EFE7474515D11D
:102FB0007C1CEB6A9C4228BF022421463046FFF766
:102FC000F8FD012898D0431C36D0F8B1D5F81490FC
:102FD000B9F1010F02D9EB6A994500D3B9464C46C5
:102FE0000134EB6AA34204D8B9F1010F3FF47DAF7D
:102FF000022421463046FFF7DCFD48B101283FF4AA
:103000007BAF013018D04C45EAD16EE7002CE5D0FB
:103010004FF0FF3221462846FFF7ADFE48B9B8F120
:10302000000F92D0224641462846FFF7A4FE002812
:103030008BD001287FF460AF4FF0FF345DE72DE9BE
:10304000F84306460C4617460568012902D80220B7
:10305000BDE8F883EB6A8B42F9D97AB9A146A0465C
:1030600021463046FFF7A5FD0446B0B92B78042B66
:1030700002D1002F44D1F7710020E9E72B78042B0F
:1030800002D1C379022BE9D04FF0FF3239462846EE
:10309000FFF771FE0028E1D0DAE70128D7D0421C03
:1030A00001D10120D4E72B78042B10D1AB69EA6A57
:1030B000023A934213D308F10102A24203D02B78C3
:1030C000042B13D0A146EB6AA342C8D8CEE7002256
:1030D00041462846FFF74FFE0028E7D0B8E7013306
:1030E000AB616B7943F001036B71E4E70023A2EB62
:1030F000090249462846FFF720FD0028E2D0A7E74D
:10310000F3798BB9B468BC4202D10223F371B3E7FF
:1031100021463046FFF74DFD012898D9431CC0D009
:1031200001348442EFD0A7E7032BA5D1B368BB429B
:10313000A2D8B2691344BB42E7D29DE7F8B5054671
:103140000E46FFF752FB0446A0B931462846FFF76A
:10315000CFFA0646A86405F14C074FF400722146E9
:10316000384607F055FB6B899C4205D36B891C1BC5
:1031700018BF01242046F8BD01233219394668786A
:1031800003F0D8FC0028F1D10134ECE72DE9F84335
:10319000044689460668076B20373378042B14BF32
:1031A0004FF400134FF08053BB429CBF0023836356
:1031B000836B73B1C7F30808B8F1000F3CD101333A
:1031C0008363416B41B93389B3EB571F34D8002374
:1031D000A3630420BDE8F8837389013B13EA5723F6
:1031E0002AD1FFF7E6FC0546012801D80220F1E7C5
:1031F000421C01D10120EDE7F36A834216D8B9F1F0
:10320000000FE4D0616B2046FFF761FE0546C8B1B0
:103210000128EBD0431CEDD001463046FFF78EFF6E
:103220000028E7D1E37943F00403E371656329469D
:103230003046FFF75DFAA06327634C364644E663E9
:103240000020C7E70720C5E7F8B504460E46076823
:103250000021FFF747FDF0B90546A16B3846FFF79F
:103260008EFBC0B9E36B1B783A78042A0CD11B069D
:103270000ED5054601212046FFF788FF0028ECD037
:10328000042808BF072006E0E52B01D0002BF0D171
:103290000135B542EED1F8BD2DE9F0410546006893
:1032A0000669A96BFFF76BFB044618B101242046A1
:1032B000BDE8F081E96B0B78852B01D00224F6E79D
:1032C0002022304608F08DF9777801377F01A7F189
:1032D0006003B3F5007FF1D821462846FFF756FF7B
:1032E00004460428EAD00028E1D1A96B2868FFF73A
:1032F00046FB0028DAD1E96B0B78C02BDED1202207
:10330000B01808F06EF996F823302C330F22B3FB77
:10331000F2F3B7EB431FD1D34FF04008002128460A
:10332000FFF734FF04460428C8D00028BFD1A96B9A
:103330002868FFF724FB04460028B7D1E96B0B7817
:10334000C12BBBD1B8F5187FB1D0202206EB080005
:1033500008F047F908F120084745DFD8B8F5187F8D
:10336000A5D83046FFF7DEF9B478F37844EA0324B1
:10337000241A18BF0124640099E710B504460B68AD
:1033800003600B6A83604B6AC3714B6A23F0FF03CF
:103390000022C0E90432C261896AC164FFF7A2FC5D
:1033A00020B92046BDE81040FFF776BF10BD2DE9DB
:1033B000F84F04460F460668FF25A8460420A16B77
:1033C00011B980B1042080E03046FFF7D8FA002818
:1033D0007BD1E06B0378002BF4D03278042A14D12F
:1033E00027B1832B6AD10020BDE8F88F852B65D1EA
:1033F000236BE3642046FFF74FFF002865D1336954
:103400001B7903F03F03A371EDE7C27A02F03F029C
:10341000A271E52B5ED02E2B5CD022F02001A1F111
:10342000080CDCF1000141EB0C01B94252D10F2A2A
:1034300056D15A064CD5457B03F0BF03226BE2649C
:10344000427BAA4246D190F81AC0C27E5CEA022CA6
:1034500040D1D6F80CE0027822F04002013A0D216A
:103460004A434DF67858C0F600084FF001094FF670
:10347000FF7A18F801BB10F80B1083449BF801B0D9
:1034800041EA0B21B9F1000F27D0FF2A22D82EF8EC
:103490001210894601320CF1010CBCF10D0FE8D17C
:1034A0000178490607D5B9F1000F04D0FF2A11D8D9
:1034B00000212EF81210013B5FFA83F8002120460C
:1034C000FFF764FE00283FF47AAF0023A3638BE785
:1034D0009845B5D04FF0FF08F0E75145DBD0F9E74C
:1034E000B8F1000F04D1FFF70EF9A8423FF47BAF0B
:1034F0004FF0FF33E36476E72DE9F04105460368BA
:103500001E693046FFF70EF9B070000AF070777848
:10351000E96C2846FFF7E6FB04464FF001082CB1A2
:10352000022C28BF0224E0B2BDE8F081A96B286814
:10353000FFF725FA04460028F2D120223146E86B35
:1035400008F04FF82B6883F80480002FE8D020366D
:1035500021462846FFF71AFE0446013FDFE72DE922
:10356000F04F87B00446D0F800900021FFF7BAFB77
:10357000804600283DD199F80030042B40D1D9F87D
:103580000C00FFF753F9074600212046FFF70FFF15
:10359000054608B180462CE0D9F8103093F8242075
:1035A00093F8251042EA01229742EDD193F823B017
:1035B00040265D4514D0F10608BF0236D9F8103018
:1035C0009A5D3344587842EA002001F05FFA82465F
:1035D000D9F80C3033F8150001F058FA82450CD0B8
:1035E000EBB29B45D0D1D9F80C3033F81530002B15
:1035F000CAD1404607B0BDE8F08F02360135D8E7A2
:103600004FF0FF33E3644FF0FF0B5E4604F14003DD
:103610000293A16B4846FFF7B2F9002865D1E56B2C
:103620002F78002F00F08280EA7A02F03F03A37126
:10363000E52F03D0120766D50F2B03D04FF0FF33D1
:10364000E36459E094F84B30580648D479064ED5D7
:1036500007F0BF07236BE36495F80DB0AB7EEA7EFD
:1036600053EA022348D1D9F80C3001932E7806F0A2
:103670003F06013E0D235E434DF6785AC0F6000A20
:1036800001201AF8012BAB5C2A44527843EA02234A
:10369000002833D0FF2E2FD81846059301F0F6F9F5
:1036A0000490711C0391019B33F8160001F0EEF9B0
:1036B000049A824220D1059B184603990E464DF686
:1036C0008553C0F600039A45DBD12B785A0604D502
:1036D00018B1019B33F8163073B9013FFEB20021D7
:1036E0002046FFF753FD002893D0804681E7BE4275
:1036F00002D16B7B5B45B1D0FF26F0E74FF6FF723E
:103700009342DCD0F8E72EB92846FEF7FCFF584577
:103710003FF46FAF94F84B30DB078FD40B22029944
:10372000284607F065F8002888D162E74FF00408C2
:103730005FE72DE9F04F9BB0044690F84B5015F031
:10374000A00540F06B810668F26832F81530002B56
:1037500040F08B803378042B40F08B800E350F23A4
:10376000B5FBF3F5A91C2046FFF76EFD07460028C0
:1037700040F0E2800135236BA3EB4513E364E3796A
:103780005D0739D523F00403E3712046FFF787FB7B
:10379000002840F0D1804FF0FF32616B2046FFF7E8
:1037A00067FB002840F0C880A3682BB3214604A81B
:1037B000FFF7E3FD002840F0BF8070894FF40071EF
:1037C000D4E90423E0FB0123C4E904233069383041
:1037D000FEF77FFF3069D4E904232830FEF779FF34
:1037E0003269E37943F0010382F8213004A8FFF73E
:1037F00083FE002840F0A0803469F5684022002153
:10380000204607F005F885232370C02384F8203074
:103810000022012140234FF0C10C964604EB010821
:10382000581C04F803C004F800E0023321B135F855
:10383000171009B10137FFB2E154080A08F8030074
:103840000233D806F2D1561C35F8170078B984F83F
:103850002370023262702846FEF7E8FF84F82400E5
:10386000000A84F82500002066E001356DE7324645
:10387000D6E704F140070C22394604A807F0B1FE50
:103880009DF81B30DA0740F1D180402384F84B309B
:103890004FF0010841F22109C0F20109D6F80CA04D
:1038A0000B2204A9384607F09CFEB8F1050F54D945
:1038B000AAF10201434631F8022F002A3FD104A8A1
:1038C000072103F00F0C0CF130029E461B09392A28
:1038D00088BF0CF1370200F8012D4A1E41D0BEF11D
:1038E0000F0F3CD87E2002F168036B4403F8600C94
:1038F00000230239934202D2F85C202833D13F33AF
:10390000234404F14700072A9FBF02F1680169447C
:1039100011F8601C013288BF202103F8011F984272
:10392000F1D12046FFF71BFE002879D108F10108EC
:10393000B8F1640FB2D107201BB0BDE8F08F1020A2
:1039400002F0010C0CEB4303520813F4803F18BF44
:1039500083EA09030138F3D1ADE74346AFE71146E7
:10396000AFE70121BEE7FEF7EFFF10B19942C6D0E5
:1039700001330133BEE7216BA1EB45112046FFF770
:10398000B1F90028D8D13846FEF7BDFE01904FF6B8
:10399000FF78A16B3046FEF7F2FF86460028CBD1B8
:1039A000D6F80C90E36BE9B2019A5A734FF00F020C
:1039B000DA7218739876D8764A1E0D2042434DF677
:1039C000785CC0F6000C704640451CBF39F8120008
:1039D00001321CF801AB03EB0A0B03F80A004FEAB3
:1039E000102A8BF801A0002808BF40460EF1010EF6
:1039F000BEF10D0FE8D1404502D039F812200AB9C6
:103A000041F0400119700123337100212046FFF776
:103A1000BDFB002890D1013DBBD119E006208BE70A
:103A2000042889D19DF81B3084F84B309B0741BF97
:103A30000C350D23B5FBF3F5013558BF012529469B
:103A40002046FFF701FC00287FF476AF013D92D1BC
:103A5000A16B3046FEF793FF00287FF46DAF202264
:103A60000146E06B06F0D4FE0B223946E06B07F00E
:103A7000B8FDE26B94F84B3003F018031373012385
:103A80003371F0E62DE9FF470E46154600230B6023
:103A9000FEF773FE421C00F0E88141F26863C2F257
:103AA000000353F82040002C00F0E181346005F061
:103AB000FE0523786BB1607803F023F8C30708D4C0
:103AC0000DB1470703D4002004B0BDE8F0870A20F9
:103AD000FAE700232370607803F006F8C60700F1C8
:103AE000C8810DB14107F2D400212046FEF75FFFE7
:103AF000022840F0A18004F212216E4604F25227FF
:103B00006D460846FEF7BCFD45F8040B1031B9427E
:103B1000F7D1002556F8041B002900F084802046C8
:103B2000FEF745FF01287FD8A56C012840F0C4802E
:103B300004F156020B2312F8016F002E40F0818031
:103B40000133402BF7D194F8B43094F8B52043EA10
:103B50000223B3F5807F74D194F8B830092B70D16B
:103B600004F19400FEF797FD15EB000841F1000108
:103B70004FF0FF33434576EB010362D304F1A0001D
:103B8000FEF77EFD206394F8BA70E770012F58D1DC
:103B900094F8B9309F40BBB26381002B51D004F13F
:103BA000A800FEF76DFD82464FF6FD73C7F6FF7362
:103BB000984246D8831CE362656304F1A400FEF7D3
:103BC0005FFD00EB0509C4F8409004F19C00FEF78E
:103BD00057FD2844A063BFB20AFB07F010EB0900B1
:103BE00046EB0603804571EB03032AD304F1AC00D6
:103BF000FEF746FDE063354665B96389B34220D9D7
:103C0000E16B2046FEF774FD81192046FEF7B7FEF2
:103C100080B90136631993F84C30812B13D02035CD
:103C2000C5F30805E8E703200135042D7FF472AFE2
:103C3000042806D1012047E70428FBD001287FF69D
:103C400073AF0D2040E704F14C0605F11400304439
:103C5000FEF716FD05460128F3D9E36A8342F0D941
:103C60006189821E236C02FB01336364A16B01EB4B
:103C7000D5112046FEF783FE01460028DAD105F073
:103C80007F0006EB8000FEF7FBFC421C03D00135F1
:103C9000A842EBD0D5E7A06160616171042626706F
:103CA00041F26662C2F20002138801339BB21380B4
:103CB000E3800023E36106E794F8573094F8582036
:103CC00043EA0223B3F5007FBBD194F8621094F865
:103CD000633051EA032104D104F17000FEF7D0FCF7
:103CE0000146216394F85C8084F8038008F1FF3377
:103CF000012BA6D894F859606681002EA1D0731EBE
:103D000033429ED194F85D7094F85E3047EA032701
:103D100027813B0795D194F85F3094F8602053EAEF
:103D2000022003D104F16C00FEF7AAFC94F85A308B
:103D300094F85B2053EA022283D001FB08FE02EBD9
:103D4000171CF4446045FFF47CAFA0EB0C03B3FBFD
:103D5000F6F8B342FFF475AF4FF6F573C0F6FF7394
:103D600098453FF66EAF4FF6F57398456CD840F620
:103D7000F576B0458CBF0226012608F10208C4F88A
:103D80002C8065635019A06305EB0C022264032E9E
:103D90005CD194F8763094F8772043EA02233B43D1
:103DA0007FF44FAF04F17800FEF76AFC4FEA880811
:103DB000E06308F2FF18B1EB582FFFF442AF4FF069
:103DC000FF33A361636180236371032E7FF467AFC8
:103DD00094F87C3094F87D2043EA0223012B7FF491
:103DE0005EAF691C2046FEF7CAFD00287FF457AF7E
:103DF000607104F14C00FEF743FC45F25223C4F21B
:103E0000611398427FF44BAF04F50C70FEF738FC59
:103E100047F27223C6F2411398427FF440AF04F593
:103E20001270FEF72DFC0023CAF6552398427FF44A
:103E300036AF04F50D70FEF723FCA06104F50E709B
:103E4000FEF71EFC60612AE7032696E7002F3FF489
:103E5000F8AE7044022E4FEA48030FBF9846434421
:103E600008F0010808EB5308A2E70B202CE60C2011
:103E70002AE6032028E602468B7EC87E43EA00201D
:103E8000032A01BF0B7D4A7D43EA022340EA034037
:103E9000704738B50446026813781846FEF754FD9B
:103EA000C8B1951C517843EA01235BBA98B292F9E4
:103EB000011053783F2B02D84FF0FF3038BD7E2BD6
:103EC00003D90029F8DAFC2BF6D84FF4697100F019
:103ED000BAFD20B9F0E7551C1846002BF5D1256036
:103EE000ECE72DE9F04F9DB005468B46D0F80090E9
:103EF00091F900302F2B01D05C2B0AD15A46934602
:103F000092F9003001322F2BF9D05C2BF7D000232F
:103F100001E0D9F81C30AB600022EA6199F800207A
:103F2000042A1DD1E3B1D9F820302B62D9F824300E
:103F30006B62D9F82830AB62294606A8FFF71DFA54
:103F4000014670BBD9F810003830FEF799FBC5E97F
:103F50000401D9F8103093F8213003F00203EB711B
:103F60009BF800301F2B1FD94DF20C23C0F6000325
:103F70000293CDF818B02B68D3F80CA0002606A841
:103F8000FFF787FF0146471C0AD084B21F2C63D974
:103F90002F2C1DD05C2C1BD07F2C0FD9FF2E13D1C2
:103FA00006201DB0BDE8F08F802385F84B3000213E
:103FB00028461DB0BDE8F04FFEF794BE029806F00B
:103FC0002FFC0028EAD0EBE72AF816400136D6E7A6
:103FD000069A0023114612F9014B2F2C3AD05C2C83
:103FE00038D003B10691E4B21F2C8CBF0024012409
:103FF000A400DDF818B0012E30D1BAF800302E2B15
:1040000032D100232AF8163005F13F02B3422CBF0B
:1040100020212E2102F8011F01330B2BF6D144F091
:104020002004E4B285F84B402846FFF798FA95F84B
:104030004B30002800F0D9800428B2D103F00402EC
:10404000990640F1CE80002A93D0802385F84B302A
:104050000020A6E70123BDE70424CAE7022E03D10E
:10406000BAF802302E2BC8D00AEB460306E033F82C
:10407000022D202A01D02E2A02D1013E002EF6D197
:104080000AEB46024FF000032AF81630002E87D0C4
:1040900000213AF811000B4601312028F9D00BB964
:1040A0002E2802D144F00304E4B232F8021D2E2976
:1040B00001D0013EF9D101930B22202105F14000EE
:1040C00006F0A6FB08224FF000084746019B591C4A
:1040D00001913AF81310002900F0B680202905D08C
:1040E0002E2907D1019BB34200F0A48044F00304C1
:1040F000E4B2EBE7904580F0A080019BB34211D180
:104100000B2A08D19CE0019BB34204D044F0030485
:10411000E4B200F29980BF00FFB201960B224FF08B
:104120000808D3E77F293AD9049244F00203DBB2AE
:104130000393084600F0AAFC4FF4697100F059FCA3
:104140000146FF28039B049A16D9501E804504D3CC
:1041500044F00304E4B29046B8E705EB08000C0A0B
:1041600080F8404008F1010805EB080080F8401095
:1041700008F101081C46A9E760B105920493039178
:104180004DF21520C0F6000006F04AFB0399049B8F
:10419000059A30B143F00303DBB25F21E4E7234625
:1041A000EBE7A1F1410080B2192802D847F00207DD
:1041B000DAE7A1F1610080B219289EBF47F001073C
:1041C000203989B2D0E7A6073FF52CAF07F00103ED
:1041D00044EA0313DCB278077FF524AF44F0080407
:1041E00020E7002A08BF0520DBE65A073FF530AF7D
:1041F000AB79DB061CD599F8000004280ED1AB681A
:104200002B622B6923F0FF03EA7913436B62EB6C9B
:10421000AB6229464846FEF799FAAAE609F14C0135
:104220002B6BC3F308031944FFF725FEA860A0E633
:104230000520B6E69045FFF463AF0B2A7FF463AF29
:1042400044F00304E4B20B2295F84030E52B04BFA0
:10425000052385F84030082A04BFBF00FFB207F0ED
:104260000C030C2B03D007F00303032BABD144F05A
:104270000204D6E61FB5019000911446039103A8ED
:10428000FEF77BFA431C1BD041F26863C2F20003C5
:1042900053F820201AB1002143F820101170019A20
:1042A00022B150700021117043F820202CB100225F
:1042B00001A96846FFF7E6FB0446204604B010BD9E
:1042C0000B24FAE72DE9F047ADF5996D0DF1040ADD
:1042D000019117460446002800F01E8102F03F09B4
:1042E00003AD4A4629465046FFF7CCFB80460028DE
:1042F00040F00A81039D04AE35601AABEB609AABC7
:104300002B6101993046FFF7ECFD20B996F94B304F
:10431000002BB8BF062017F01C0F00F0CD8000283E
:1043200043D0042840F0F0803046FFF702FA00281E
:1043300040F0EA8049F008092B78042B40F08D808A
:10434000256021462846FEF701FA28691E22002131
:10435000023006F05DFA28691A220021263006F0A4
:1043600057FA2B6920221A712F690837FCF7F3FDE1
:1043700001463846FEF7A5F92B69012283F8212072
:104380003046FFF7B9F8002840F0BE80A16849B177
:1043900002462046FEF753FEA768013F6F610028E2
:1043A00040F0B28049F0400909E0B37913F0110FF1
:1043B00040F08C807B0700F1A6803F07BCD4AB6C3B
:1043C000A364F16BE1642878042840F08180B3682D
:1043D0002362336923F0FF03F27913436362F36CC2
:1043E000A36221462846FEF7B1F92560EB88A38039
:1043F00084F830904FF0000A84F831A0C4F844A04B
:1044000000220023C4E90E2319F0200F20D0D4E9A4
:10441000046756EA07031BD0C4E90E67B5F80A9093
:104420004FEA4929A168B1457AEB07035BD3002025
:104430002164002868D1C6F308034BB12846FEF773
:1044400057F9002866D0760A46EAC75630446064B9
:1044500040460DF5996DBDE8F087FCF77CFD0246FE
:10446000F06B11460E30FEF72CF9F06B114616304A
:10447000FEF727F9F16B2878FFF7FDFC07462023AC
:10448000CB720022F16B2846FEF76DFAF36B002227
:104490001A775A779A77DA7701232B71002F81D018
:1044A000D5F848A039463046FEF7C9FD60BB5146F5
:1044B0002846FEF764FA70E730BBB379D80627D4F4
:1044C000B9077FF57CAFDA077FF579AF07201BE0EE
:1044D000FFF7D1FCA06001F11C00FEF7D1F82061CC
:1044E0000023636181E72046FEF763FB0146B6EBDC
:1044F000090667F10007012803D9431C93D1012065
:1045000096E7022094E708200023236080469FE777
:104510000420F9E70220F7E74FF0090898E72DE9B2
:10452000F04F85B004468846174699460023C9F8DF
:10453000003003A9FEF73FF9002840F0C98094F845
:1045400031506DBB94F830309A0740F1C380039E20
:104550003378042B03D0A36BFB4200D3DF43CFB1EE
:10456000D4E90E31C3F30802002A40F09180B6F876
:104570000AB00BF1FF3B5A0A42EAC1521BEA020B96
:1045800022D10B4310D1A16881B92046FEF79FFCD0
:10459000014658B994F8303043F0400384F8303085
:1045A000284605B0BDE8F08F216CEEE7012903D164
:1045B000022584F83150F3E74B1C01D10125F8E7BF
:1045C0002164A36803B9A160B26C636C9A4204D100
:1045D0003046FEF70AF90028F0D1216C3046FEF78C
:1045E00087F80028E4D00BEB000AB7F5007F3ED334
:1045F0007B0A72890BEB5721914288BFA2EB0B0318
:10460000019352464146707802F094FA834600289E
:10461000D4D1B16CA1EB0A01019B99420AD24FF4AB
:10462000007208EB412106F14C0006F0DAFF86F833
:1046300004B0019B4FEA432BA7EB0B07D9F80030DE
:104640005B44C9F80030D844D4E90E321BEB0303B5
:1046500042F10002C4E90E32D4E90401984271EB40
:10466000020C3CBF18461146C4E9040177E7D4E9BF
:104670000E02D4E90413884272EB030306D33046DA
:10468000FEF7B3F8002899D1C6F848A0C4F844A0B2
:10469000A36BC3F30803C3F50073BB4228BF3B46BB
:1046A0009B46DDF80CA0616C5046FEF768F90028C7
:1046B00084D10AF14C00A36BC3F308035A46414668
:1046C000184406F08EFF4FF001038AF80430B3E778
:1046D000092565E7072563E72DE9F041ADF5986DFC
:1046E000054601AE3146FEF766F8002840F08280AC
:1046F00095F8304014F0400457D0FCF72CFC80466D
:10470000019E3378042B55D12846FEF7C8FB04469A
:1047100000284AD14FF0FF32296C2846FEF7A8FB4B
:104720000446002841D118ABF36098AB33612946A9
:1047300002A8FEF722FE0446002836D1326913791A
:1047400043F0200313713269EB7943F0010382F8DF
:1047500021303069A9683430FDF7B3FF3069D5E9FD
:1047600004233830FDF7B5FF3069D5E9042328303C
:10477000FDF7AFFF306941460C30FDF7A2FF33690A
:104780005C7533691C745C749C74DC7402A8FEF75D
:10479000B3FE044648B93046FEF761F8044695F882
:1047A000303023F0400385F8303020460DF5986D09
:1047B000BDE8F081A96C3046FEF7E1F80446002818
:1047C000F3D1EF6CFB7A43F02003FB72AA68394601
:1047D0002868FEF7C8F8296907F11C00FDF771FF8A
:1047E000414607F11600FDF76CFFBC74FC74012311
:1047F0003371D0E70924D8E713B50446FFF76CFFFF
:1048000028B901A92046FDF7D6FF10B9206002B0F3
:1048100010BD0920FBE72DE9F04F85B00446154691
:104820001E4603A9FDF7C7FF002840F0DE8094F87C
:104830003170002F40F09E80DDF80CA09AF8003017
:10484000042B0CD14FF0FF32216C2046FEF710FBF9
:10485000002840F0CC809AF80030042B04D0002EC1
:104860001CBF4FF0FF350026D4E90412A94272EBB9
:10487000060307D294F8303003F00203002B04BF84
:104880000D461646D4E90E3200200021C4E90E017F
:1048900055EA060118D10020D4E90E32D4E90451BA
:1048A0009D4291413FBFC4E9043294F8302042F068
:1048B000400284F83020C3F30803002B5AD0636C05
:1048C000834257D0606455E0BAF80A804FEA48281E
:1048D00053EA020126D013F1FF3B42F1FF39681E73
:1048E00042464FF0000366F1000105F0EDFDCDE911
:1048F0000001424600235846494605F0E5FD009B6D
:104900008342019B8B410DD3C8F1000303EA0B03E3
:10491000C4E90E39EB1A1D4666EB0906216C002925
:10492000B9D002E0A168E1B121644FF00009D4E9F7
:104930000E32A84579EB060027D3D4E90E325B1975
:1049400046EB0202C4E90E32C5F30803002BA2D0E5
:104950005046FDF7CDFE50B16D0A45EAC6552844D4
:104960009AE72046FEF7B3FA0146012806D102274E
:1049700084F83170384605B0BDE8F08F421C01D193
:104980000127F5E7A0602064C9E7B5EB080566F1EB
:10499000000618EB030342F10000C4E90E3094F85E
:1049A00030E01EF0020F12D0D4E904C29C458241CF
:1049B0003EBFC4E904304EF0400E84F830E020469B
:1049C000FEF785FA014630B905460646B5E72046AA
:1049D000FEF7EFF801464B1CD2D00129C7D9DAF80F
:1049E0002C308B42C3D92164A1E70927C2E70746CF
:1049F000C0E770B57F2801D880B270BDB0F5803FA8
:104A000018D2B1F5697F15D183B241F6DD45002199
:104A1000102045F2AC34C0F601046A1A01EB5202D0
:104A200034F822609E4207D034BF11461546013843
:104A3000F3D1E2E70020E0E745F2AE33C0F6010330
:104A400033F82200D9E770B57F2817D9B1F5697F0F
:104A500013D141F6DD45002110224EF23404C0F698
:104A600000046B1A01EB530334F82360864206D02E
:104A700034BF19461D46013AF3D1002070BD4EF2F5
:104A80003602C0F6000232F82300F7E7F0B5B0F5C1
:104A9000803F27D283B24DF68652C0F600024DF613
:104AA0004261C0F60001B3F5805F38BF0A46141DAD
:104AB000214634F8042CA2B1934212D334F8025C9C
:104AC0002E0AEDB2AF18B84223DA082E09D8DFE873
:104AD00006F0050A10131517191B1D00801A34F86B
:104AE00010301846F0BD9A1A02F001029A1A93B2D9
:104AF000F7E7103B9BB2F4E7203BFBE7303BF9E7DD
:104B00001A3BF7E70833F5E7503BF3E7A3F5E35328
:104B1000F0E70434002ECBD101EB4502C7E7F0B536
:104B20008BB0074640F23436C2F200066846FCF706
:104B3000E8F835466C460FCC0FC50FCC0FC523687F
:104B40002B603368FB717368BB71B3687B71F3686A
:104B5000FB7033690133BB7073693B8001200BB07C
:104B6000F0BD10B54FF48034802004F0E2FA28B193
:104B700040F2FF5004F0E7FA002002E0013CF3D1DC
:104B8000032010BD10B54FF40043C4F201035C6B69
:104B900014F0450FFBD014F0040404D0042004F0FA
:104BA000D2FA032010BD40F2FF5004F0CCFA2046A8
:104BB000F8E710B54FF40043C4F201035C6B14F046
:104BC000450FFBD0630704D5042004F0BCFA032092
:104BD00010BD14F0010404D0012004F0B4FA012047
:104BE000F6E740F2FF5004F0AEFA2046F0E737B5A2
:104BF000054600230093019341F6B400C2F2000081
:104C000041F6A812C2F200021268120402600D22DC
:104C1000426040228260C3604FF48063036104F00D
:104C200043FA4FF40043C4F201035A6B0192019A14
:104C300012F0450FF9D0019B590705D5042004F067
:104C400082FA032003B030BD019C14F0010404D0AB
:104C5000012004F078FA0120F4E704F039FA019019
:104C6000019B0D2B01D01020ECE740F2FF5004F027
:104C70006AFA204604F033FA0090009BC3F3432302
:104C80002B70009B4EF20800CFF6FF501840002812
:104C9000D8D0009B002B39DB009B5A0038D4009BF6
:104CA0009B0037D4009BDD0036D4009B1C0135D41B
:104CB000009B590134D4009BDA0133D4009B1B02C2
:104CC00032D4009B5D02CED4009B9C022ED4009B6C
:104CD000D9022DD4009B1A032CD4009B5B032BD448
:104CE000009B9D032AD4009BDC0329D4009B19045C
:104CF00028D4009B5A0427D4009B9B0426D4009BF5
:104D000013F0080F14BF1A2000209BE71C2099E71E
:104D1000092097E70A2095E70B2093E70C2091E7FD
:104D20000D208FE70E208DE70F208BE7112089E7FC
:104D3000122087E7132085E7142083E7152081E7F9
:104D400016207FE717207DE718207BE7192079E7F9
:104D500070B506460C464FF47040C1F2000004F0F6
:104D600069F840F24445C4F202050021284604F0E7
:104D700049F841F67001C2F200014E6000238B60D9
:104D8000A408CC60284604F021F801212846BDE89B
:104D9000704004F037B870B506460C464FF47040CA
:104DA000C1F2000004F046F840F24445C4F20205A6
:104DB0000021284604F026F841F67001C2F20001F5
:104DC0004E6010238B60A408CC60284603F0FEFFE1
:104DD00001212846BDE8704004F014B838B50546F6
:104DE0004FF40042C4F20102546B14F0450FFBD0A3
:104DF000610704D5042004F0A6F9032038BD14F09F
:104E0000010404D0012004F09EF90120F6E704F02B
:104E10005FF9854201D01020F0E740F2FF5004F026
:104E200092F9204604F05BF903464EF20800CFF6F3
:104E3000FF5018400028E1D0002B27DB5A0027D470
:104E40009D0027D4DC0027D4190127D45A0127D488
:104E5000DD0127D41C0227D45902DCD49A0225D4C0
:104E6000DD0225D41C0325D4590325D49A0325D467
:104E7000DD0325D41C0425D4590425D49A0425D453
:104E800013F0080F14BF1A200020B7E71C20B5E765
:104E90000920B3E70A20B1E70B20AFE70C20ADE70C
:104EA0000D20ABE70E20A9E70F20A7E71120A5E70B
:104EB0001220A3E71320A1E714209FE715209DE708
:104EC00016209BE7172099E7182097E7192095E708
:104ED0002DE9F34706460F460023CDE9003341F69E
:104EE000B404C2F200044FF0080AC4F800A0102570
:104EF00065604FF04009C4F80890E3604FF48068A3
:104F0000C4F81080204604F0CFF82846FFF766FF6B
:104F10000546002844D13604266037256560C4F86C
:104F20000890E060C4F81080204604F0BDF82846E0
:104F3000FFF754FF0646054690BB41F69C00C2F2BF
:104F400000006FF07F43C0E9003A30238360022302
:104F5000C36006610123436104F0CEF82660332567
:104F60006560C4F80890E660C4F81080204604F03C
:104F70009BF82846FFF732FF054688B96D464FF487
:104F80000044C4F2010440F22A66636B33420BD042
:104F9000082004F0CEF890B1082004F0D4F80425DD
:104FA000284602B0BDE8F0874FF4001004F0C1F8C5
:104FB0000028EAD004F0B6F845F8040BE5E7022033
:104FC00004F0B7F820B1022004F0BDF80225E7E7AD
:104FD000202004F0AEF820B1202004F0B4F806251B
:104FE000DEE74FF4007004F0A4F8054628B14FF452
:104FF000007004F0A8F80725D2E740F2FF5004F053
:10500000A2F8009B1BBA7B60019B1BBA3B60C7E701
:10501000F7B50446002004F062F810F0007057D194
:1050200041F6A815C2F20005CDE9000069462888BE
:10503000FFF74EFF019A41F6AC13C2F2000300994C
:10504000C3E90012002844D1012C27D1520342D5D4
:1050500041F6B404C2F200042B681B042360372518
:1050600065604027A760E0604FF4806626612046B7
:1050700004F01AF82846FFF7B1FE50BB0223236064
:1050800006256560A760E0602661204604F00CF804
:10509000284603B0BDE8F040FFF7A0BED3031AD501
:1050A00041F6B404C2F200042B681B0423603725C8
:1050B00065604027A760E0604FF480662661204667
:1050C00003F0F2FF2846FFF789FE10B92060D7E70A
:1050D0000E2003B0F0BD2520FBE713B5002003F040
:1050E000BDFF002003F0C0FF03F08DFF00214FF44F
:1050F000806003F0F4FC4FF4F853ADF8043004245E
:105100008DF807400DEB04014FF48050C4F201000C
:1051100003F07DFBADF804400DEB04014FF4A0500B
:10512000C4F2010003F073FB02B010BD2DE9F34798
:1051300000258DF8075041F6C800C2F20000B223E6
:105140000375056045608560C560056103F06EFF0D
:10515000032003F089FF012003F080FF0220FBF70A
:1051600046FA41F6B404C2F2000425606560A56009
:10517000E5604FF480662661204603F095FFFFF757
:10518000F0FC8DF807009DF8073003F0FF052BB108
:105190009DF80700C0B202B0BDE8F0874FF4D573A8
:1051A0002360082363604023A360E56026612046F6
:1051B00003F07AFF4FF40041C4F201014B6B4FF44E
:1051C000803213F0450F40F08280002A7CD1042009
:1051D00003F0B9FF03258DF807509DF80730002B29
:1051E00040F0828041F6D413C2F2000301221A601B
:1051F0004FF0804500264FF03708C4E9006840238F
:10520000A360E6604FF48067276141F6B400C2F204
:10521000000003F049FF4046FFF7E0FD8DF807006E
:105220009DF8073003F0FF02002B40F08380164604
:1052300041F6B407C2F2000745F0114545F4801568
:1052400000234FF0370AC4E9003A4FF04009C4F890
:105250000890E3604FF48068C4F81080384603F08B
:1052600023FF5046FFF7BAFD8DF807009DF8073081
:1052700003F0FF02002B8BD1256029236360C4F863
:105280000890E260C4F81080384603F00DFFFFF785
:1052900079FC8DF807009DF8073003F0FF00002B24
:1052A0007FF476AF03F01BFF41F6A413C2F20003B4
:1052B0001860013600284FF6FF732FDB9E42BFD1E6
:1052C0001B238DF8073063E7013A4B6B79E7002A1F
:1052D0003FF47DAF5A073FF57AAF5B067FF57BAFB2
:1052E000402003F030FF76E7002323606360A36073
:1052F000E3604FF48063236141F6B400C2F2000022
:1053000003F0D2FEFFF72DFC8DF807009DF8073063
:1053100003F0FF05002B3FF46DAF39E79E42CFD07D
:1053200047007FF535AF41F6D413C2F200030222E5
:105330001A602DE74FF0F033C4E90036A660E6604E
:10534000276141F6B400C2F2000003F0ADFEFFF7A2
:1053500008FC8DF807009DF8073003F0FF05002BCF
:105360007FF416AF0120FBF742F925606560A56068
:10537000E560276141F6B400C2F2000003F094FE3C
:10538000FFF7EFFB8DF807009DF8073003F0FF07EC
:10539000002B7FF4FDAE0120FBF729F94FF4004A02
:1053A000CCF2FF0A41F6A418C2F20008C4F800A02B
:1053B000012363604023A3600023E3604FF4806314
:1053C000236141F6B400C2F2000003F06DFEFFF766
:1053D000D9FB8DF807009DF8073003F0FF09002B7B
:1053E0007FF4D6AE484603F07AFE0546C8F80000C2
:1053F000C60F01370420FBF7FAF84FF6FF73A6BB80
:105400009F42D3D14FF4004AC8F2FF0A4FF001097E
:1054100041F6B407C2F20007C4F800A0C4F8049033
:105420004023A3600023E3604FF480632361384688
:1054300003F03AFEFFF7A6FB8DF807009DF8073052
:1054400003F0FF00002B7FF4A3AE03F048FE0546F7
:10545000C8F8000001360420FBF7C9F8002D4FF60C
:10546000FF7306DB9E42D7D12AE79F4204D14E4606
:10547000C8E79E423FF424AF05F0C045B5F1804F28
:1054800041F6D413C2F200030CBF072203224FE7F8
:1054900038B503F0EFFD002800F0A98041F6D415DF
:1054A000C2F200052B68042B27D041F6B400C2F2EB
:1054B00000000023036002224260C0228260C360B9
:1054C0004FF48063036103F0EFFDFFF772FB0446C6
:1054D000002868D103F003FE41F6B414C2F20004C0
:1054E0002060042003F0FBFD6060082003F0F7FD5E
:1054F000A0600C2003F0F3FDE0602B68032B34D98F
:10550000053B022B31D901232A68042A73D041F6C6
:10551000A812C2F20002136041F6B400C2F2000009
:105520001B04036009234360C02383600023C3601E
:105530004FF48063036103F0B7FDFFF73AFB0446C5
:1055400088BB03F0CCFD41F6C415C2F2000528600B
:10555000042003F0C4FD6860082003F0C0FDA860CB
:105560000C2003F0BCFDE8601DE041F6B400C2F27F
:105570000000002303600322426040228260C36077
:105580004FF48063036103F08FFD4FF40043C4F2D6
:1055900001035C6B14F0450FFBD0600705D50420B8
:1055A00003F0D1FD0324204638BD14F0010404D0DB
:1055B000012003F0C8FD0124F5E703F089FD03286D
:1055C00001D01024EFE740F2FF5003F0BCFD20466D
:1055D00003F085FD10F4604F01D1030C94E78104C2
:1055E00007D44204EDD403048DD50F24DBE7252432
:1055F000D9E71324D7E70024D5E7F0B541F6D41353
:10560000C2F200031C6880F8564041F6A813C2F2AB
:1056100000031B68A0F8543041F6C415C2F200051F
:105620002B689A0F0270C3F383624270C3F3016266
:105630008270C3F30742C270C3F307220271DBB268
:1056400043716B681A0E1201C280C28892B2C3F312
:1056500003510A43C280C3F3034202721A0AC3F31E
:105660000726C3F3C0314172C3F380318172C3F3A3
:105670004031C172C3F30031017300214173A96845
:10568000072C66D8DFE814F0270027000800270061
:105690006500650065000B011B0403F47C130361C6
:1056A00003690A0E43EA022303610269C1F3074357
:1056B00013430361C1F30726036901332CBF0122A1
:1056C0000022D20442EA5332DB04C0E912324FF422
:1056D000007303653DE0920202F4406202610269D8
:1056E0009B0003F47F7313430361036943EA9173DF
:1056F0000361C1F3C2630375C1F302634375C1F370
:1057000042538375C1F38243C375CB0B03F0060389
:105710000376C1F30726037EC1F3C0321343037639
:10572000D0F810C0027E077A012303FA07F7076555
:10573000023293404FEAE37EA3FB073207FB0E22BF
:105740000CF101070CFB0222A3FB07373A44C0E926
:105750001232C6F380134376760006F07E06867614
:10576000837EC1F3C0121343837601F07F03C376B7
:10577000EB68DA0F0277C3F341724277C3F38262B8
:1057800082779A0D02F00C02C277C27FC3F3815177
:105790000A43C277C3F3405280F82020002580F8E6
:1057A0002150C3F3004280F82220C3F3C03280F8B6
:1057B0002320C3F3803280F82420C3F3403280F8E2
:1057C0002520C3F3003280F82620C3F3812280F81D
:1057D0002720C3F3012280F82820C3F3460380F872
:1057E0002930012280F82A20022C00F2878041F61D
:1057F000B411C2F200010B681C0E80F82C40C3F3F8
:1058000007442402C485C48DA4B2C3F307252C43E6
:10581000C4851B0603634B68046B1D0E44EA0544F4
:105820000463056B1C0A04F47F442C430463056B7A
:10583000C3F307242C430463DBB280F834308B6855
:105840001C0E80F835401C0C24068463856B1C02FA
:1058500004F47F042C438463846B1B029BB22343B8
:105860008363CB68816B41EA1361816390F83C10DC
:10587000C3F30354214380F83C10190A01F470610A
:10588000C187C18F89B2C3F307242143C187C3F302
:10589000460380F8403080F841200020F0BD92029D
:1058A00002F44062026106699A0002F47F72324398
:1058B0000261036943EA91730361C1F3C263037533
:1058C000C1F302634375C1F342538375C1F382434D
:1058D000C375CB0B03F006030376C1F30726037EE3
:1058E000C1F3C0321343037641F6F007C2F200075A
:1058F000D7E91223C0E912233B6DEAE624F0040441
:10590000032CCAD141F6B411C2F200010B681C0E7F
:1059100080F82C40C3F307442402C485C48DA4B28C
:10592000C3F307263443C4851B0603634B68046B2B
:105930001E0E44EA06440463066B1C0A04F47F440A
:1059400034430463046BC3F307232343036380F8E6
:1059500034508B6890F8344044EA136480F8344043
:10596000C3F3074480F835401C0A24068463846B23
:105970001B0403F47F0323438363CB68816B1C0EFA
:1059800041EA04218163846BC3F3074121438163AE
:10599000C3F30724210101F0F001C187C18F89B24F
:1059A00041EA141172E72DE9F843064641F6D41393
:1059B000C2F200031B68072B7FD8DFE803F098983A
:1059C00098047E047E04B0F5805F00F0A680B0F5F8
:1059D000006F76D141F6F003C2F200035B78032B2F
:1059E0005DD9002003F07BFB10F0007001D00E2485
:1059F00064E041F6B405C2F200054FF40063C0F262
:105A0000BB332B6006276F604FF04009C5F8089044
:105A1000E8604FF48068C5F81080284603F044FB26
:105A20000520FAF7E4FD3846FFF7D8F904460028C8
:105A300044D14FF48073C0F2B93385E88802E8603E
:105A4000C5F81080284603F02FFB0520FAF7CFFD9C
:105A50003846FFF7C3F9044680BB4FF48073C0F2A9
:105A6000B73385E88802E860C5F81080284603F05F
:105A70001BFB0520FAF7BBFD3846FFF7AFF90446DC
:105A8000E0B941F6C800C2F20000012303750460CA
:105A900044608460C660046103F0C8FA0EE041F619
:105AA000C800C2F2000002230375002303604360B4
:105AB0008360C360036103F0B9FA00242046BDE8A7
:105AC000F883002003F00BFB830190D43720FFF70D
:105AD00085F904460028F1D141F6C800C2F2000061
