:020000040800F2
:1000000000000120D9850008AB050008AD050008F7
:10001000AF050008B1050008B305000800000000A6
:10002000000000000000000000000000B50500080E
:10003000B705000800000000B9050008BB0500086E
:10004000258600082586000825860008F105000899
:1000500025860008258600082586000825860008D4
:1000600025860008258600082586000825860008C4
:1000700025860008258600082586000825860008B4
:10008000258600082586000825860008E905000861
:10009000ED0500082586000825860008258600084D
:1000A0002586000825860008258600082586000884
:1000B0002586000825860008258600082586000874
:1000C0002586000825860008258600082586000864
:1000D00025860008258600082B19000825860008BB
:1000E0002586000825860008258600082586000844
:1000F0002586000825860008258600082586000834
:100100002586000835510008258600082586000848
:100110002586000825860008258600082586000813
:100120002586000825860008258600082586000803
:1001300000000000000000000000000000000000BF
:1001400000000000000000000000000000000000AF
:10015000000000000000000000000000000000009F
:10016000000000000000000000000000000000008F
:10017000000000000000000000000000000000007F
:10018000000000000000000000000000000000006F
:10019000000000000000000000000000000000005F
:1001A000000000000000000000000000000000004F
:1001B000000000000000000000000000000000003F
:1001C000000000000000000000000000000000002F
:1001D000000000000000000000000000000000001F
:1001E0005FF8E0F137B500230093019300F0A1FA26
:1001F0004FF47A7000F080F9019B022B1DDC4FF464
:100200007A7000F0C5F94FF4C050C4F2010020210B
:1002100006F0ADFC04464FF4C050C4F2010040218A
:1002200006F0A5FC204310F0FF0F02D1012300933C
:1002300003E0019B01330193DEE7009B40F2306451
:10024000C2F2000441F2A035C2F200054BB140F603
:100250006D63C0F60003236041F67103C0F600032E
:1002600091E04FF4C050C4F20100402106F07FFC41
:1002700000283FD040F23463C2F2000302221A6029
:1002800041F28553C0F60003236041F24B53C0F6A0
:1002900000032B6041F2EC63C2F2000345F6AD129D
:1002A000C0F600021A6041F2E863C2F2000347F6AA
:1002B000E362C0F600021A6041F2F063C2F200038A
:1002C00045F68F22C0F600021A6041F2F463C2F2D2
:1002D000000345F6F522C0F600021A6041F2E06321
:1002E000C2F2000345F2A332C0F600021A6005F024
:1002F000C3FA49E04FF4C050C4F20100202106F0D7
:1003000036FC41F67103C0F60003B8B340F2346224
:10031000C2F200020121116041F22562C0F6000222
:1003200022602B6041F2EC63C2F2000346F211320C
:10033000C0F600021A6041F2E863C2F2000346F21E
:100340008B52C0F600021A6041F2F062C2F2000263
:1003500047F6E363C0F60003136041F2F462C2F2B1
:100360000002136041F2E063C2F2000345F21B4257
:10037000C0F600021A6006F0BBFA05E040F66D62B6
:10038000C0F6000222602B6023689847FCE782B029
:100390004FF48053C4F202031A6842F001021A605B
:1003A00059680022CFF6FF020A405A601A6822F00C
:1003B000847222F480321A601A6822F480221A6051
:1003C0005A6822F4FE025A604FF41F029A6000221B
:1003D000009201921A6842F480321A601A6802F49C
:1003E00000320192009A01320092019A1AB9009AE1
:1003F000B2F5A06FF2D11A6812F4003218BF0122D0
:100400000192019A012A08D04FF46D43CEF2000305
:100410004FF000629A6002B070474FF40052C4F28D
:100420000202116841F010011160116821F003010E
:100430001160116811605A685A605A685A605A68A7
:100440005A605A6822F47C125A605A6842F4302288
:100450005A601A6842F080721A601A689201FCD5DC
:100460005A6822F003025A605A6842F002025A6047
:100470005A6802F00C02082AFAD1C5E74FF48052FC
:10048000C4F20202516801F00C01042940F2100389
:10049000C2F2000306D0082909D04FF49051C0F2EF
:1004A0007A011CE04FF4D851C0F2B70117E051684F
:1004B0005068C1F383410231C00304D44FF410608B
:1004C000C0F23D000AE05068800347BF48F6805004
:1004D000C0F25B004FF4D850C0F2B700414319603E
:1004E0005168C1F3031140F20002C2F20002515CF4
:1004F0001A68CA401A60704730B587B0019004206E
:1005000006F0E0FA019A40F21004C2F200042368F7
:10051000B3FBF2F2013AB2F1807F38D24EF210030F
:10052000CEF200035A604FF46D42CEF20002F02189
:1005300082F8231000259D6007221A6008200121FF
:1005400006F043FC03A806F040FE226844F2402374
:10055000C0F20F03B2FBF3F3013BADF80C304FF6E2
:10056000FF73ADF81030ADF81250ADF80E504FF4E7
:100570004060C4F2000003A906F0C7FD4FF44060DC
:10058000C4F20000012106F029FE07B030BDFEE7ED
:1005900082B00190019A40F23863C2F200031A60FF
:1005A0001A68002AFCD102B070477047FEE7FEE7E8
:1005B000FEE7FEE770477047704708B540F23863C2
:1005C000C2F200031A6812B11A68013A1A6000F008
:1005D0006CF940F23463C2F200031B681BB9BDE83A
:1005E000084000F01ABC08BD07F061BD04F0D1BEA0
:1005F0007047013101EB420291420BD0030F092BEE
:1006000094BF3033373301F8013C0001002301F877
:10061000023BF1E77047F7B57D20012106F0C9FBE9
:100620004FF6FF73ADF8043003268DF806600027FF
:100630008DF807704FF40060C4F2010001A906F0C4
:100640004EFA4FF44065C4F20105284601A906F0B0
:1006500046FA4FF48050C4F2010001A906F03FFAB7
:100660004FF4A050C4F2010001A906F038FA4FF48B
:10067000C054C4F20104204601A906F030FA7D20DE
:10068000394606F096FB4820012106F092FBADF8B2
:1006900004608DF8066010238DF80730204601A90C
:1006A00006F01DFA4FF48076ADF80460284601A9E3
:1006B00006F015FA2846314606F061FA2046012177
:1006C00006F05DFA2046022106F059FA03B0F0BDAB
:1006D00013B54020012106F06CFB7823ADF80430FF
:1006E00003248DF8064028238DF807304FF4C050BE
:1006F000C4F2010001A906F0F2F90420012106F07C
:1007000058FB4FF48073ADF804308DF80640042395
:100710008DF807304FF40060C4F201000DEB0301C7
:1007200006F0DDF902B010BD4FF00060002106F0C8
:10073000BEB908B5FFF7A2FEFFF7F6FFFFF76BFFA4
:10074000FFF7C6FF00F029F900F05BFABDE80840AA
:1007500000F03CB97FB5002006F096FA002006F0C4
:100760008EFA4FF480304FF4801106F07DFA0120AC
:1007700006F085FA392006F03AFB0028FAD04FF44B
:100780000053C4F202031A6842F010021A601A6899
:1007900022F003021A601A6842F002021A60022074
:1007A00006F072FA06F07AFA0828FBD101A806F0E2
:1007B000A1FA07B05DF804FB07B52020012106F07F
:1007C000F8FA0823ADF8043003238DF8063014231B
:1007D0008DF807304FF4A050C4F2010001A906F0D3
:1007E0007EF903B05DF804FB08B5002006F05EFA60
:1007F0004FF400000121BDE8084006F0E6BA30B130
:100800004FF4A050C4F20100082106F0B8B94FF42B
:10081000A050C4F20100082106F0AFB970B5064639
:100820000D464FF2E873C1F6FF731B684FF2EC728E
:10083000C1F6FF7214684FF2F072C1F6FF721268CF
:10084000D0180AD031460822FFF7D3FE20462946A9
:100850000422BDE87040FFF7CCBE70BD00231A46ED
:1008600040F29061C2F2000131F8131089B20A44DB
:1008700092B20533322BF3D10A23B2FBF3F2C2F367
:100880000B0240F6C6235A43120B520040F24C634F
:10089000C2F20003B3F90010481C1CBF491001EB61
:1008A00052021A80B3F90000704770B54FF400602F
:1008B000C4F201004FF4807106F059F9012840F2AA
:1008C0004463C2F2000311D11A6801321A6040F683
:1008D000B8339A420CD900F0B9FA4FF48050C4F200
:1008E00001004FF4005106F048F9FEE700221A60BB
:1008F00040F21804C2F20004256845B1FFF7AEFFCC
:1009000040F24863C2F200031860013D256040F2E6
:100910004063C2F200031A6801321A60B2F57A7FAE
:100920003AD900251D6040F24864C2F200042068F4
:1009300000EB4006FFF792FF30448008206040F64D
:10094000B833984240F23C63C2F2000323D9B0F5B9
:10095000616F40F21402C2F2000206D2022111605D
:1009600040F62E52904203D912E0012111600FE0AF
:100970001A6801321A600C2A0ED900F067FA4FF497
:100980008050C4F201004FF4005106F0F6F8FEE783
:1009900000221A6070BD1D6070BD07B510200121D6
:1009A00006F007FA4FF40053ADF8043001238DF838
:1009B000063010238DF807304FF48050C4F2010048
:1009C00001A906F08CF803B05DF804FB70B54FF494
:1009D0000470012106F0EDF90120014606F0DDF971
:1009E00040F2F461C2F2000103268E700F230B80E7
:1009F0000025CD704FF48050C4F2010006F06FF86E
:100A00004FF40070012106F0D4F90820C4F202006E
:100A100006F0B0FA40F26461C2F2000142F24C43C7
:100A2000C4F201030B6040F29063C2F200034B601A
:100A30008D603223CB600D6180234B614FF4807356
:100A40008B614FF48063CB6120230B624D628D621A
:100A50000820C4F2020006F019FB0820C4F20200CC
:100A6000012106F031FB40F25061C2F200010D603D
:100A700001240C714C714FF460238B60CD6005250F
:100A80000D744FF41050C4F2010006F0C4F9204672
:100A900006F063FA4FF41050C4F201000921224617
:100AA000072306F009FA4FF41050C4F20100102198
:100AB00002222B4606F000FA4FF41050C4F2010057
:100AC0000A213246072306F0F7F94FF41050C4F21A
:100AD00001000C210422072306F0EEF94FF4105018
:100AE000C4F201000D212A46072306F0E5F94FF470
:100AF0001050C4F20100214606F026FA4FF41050BF
:100B0000C4F20100214606F0AAF9204606F025FAB3
:100B10004FF41050C4F2010006F0B3F94FF4105036
:100B2000C4F2010006F0B2F90028F7D14FF41050DA
:100B3000C4F2010006F0AEF94FF41050C4F2010007
:100B400006F0ADF90028F7D14FF41050C4F20100BF
:100B5000012106F08DF94FF41050C4F2010001217B
:100B6000BDE8704006F09FB973B5064602A840F88C
:100B7000041D07F059FD436903F26C734361344669
:100B800005460FCD0FC40FCD0FC42B682360304630
:100B900002B070BD10B5044606F04EFB014620467B
:100BA000FFF7E2FF204610BD10B50446012006F015
:100BB00026FD06F076FB204606F052FB06F071FBA0
:100BC0000020BDE8104006F01ABD84B030B58BB0EF
:100BD0000EAC84E80F0001AC0EAD0FCD0FC40FCDED
:100BE0000FC42B682360069BA3F26C73069301A8C5
:100BF00007F0A0FEFFF7D8FF0BB0BDE8304004B00F
:100C0000704770B586B0142006F0E9FC4AF2A5548E
:100C1000A0424FF0C0504FF0010152D006F0D5F87D
:100C2000012006F0ECFC1420214606F0C9FC06F079
:100C3000BEFC012006F03FF8412006F0D8F800285D
:100C4000FAD04FF4807006F047F8012006F04CF817
:100C500006F027FB0120014606F0CCFA06F021FB46
:100C600047F6FF7006F00CFB06F01BFB40F2F86441
:100C7000C2F2000440F2D9736361062323610F239B
:100C8000E3601723A3602D236360254645F8103BDE
:100C90006E460FCD0FC62B68336094E80F00FFF748
:100CA00094FF06F0FEFA012006F0A9FC14204AF297
:100CB000A55106F085FC002006B0BDE8704006F0A6
:100CC0009EBC06F082F806F0F4FA0120014606F018
:100CD00091FA06B0BDE8704006F0E3BA10B5002402
:100CE00041F2C453C2F200031B6898470028F7D0B2
:100CF0000CB92428F3D1631C9BB240F25072C2F2AB
:100D0000000210550A2804D0B3F5007FE7D21C4634
:100D1000E6E7D8B210BD0378303BDBB2092B0AD826
:100D20004278303AD2B2092A05D803EB830302EBAA
:100D30004300C0B27047002070470023C25C4AB134
:100D4000013340F25071C2F20001194411F8011C44
:100D50009142F3D01046704740F25073C2F2000344
:100D600050B113F8012B202A04D92C2AF9D10138CB
:100D7000C0B2F5E7002070471846704700B5A1B033
:100D800002460B4691F90010684631B949F29B11B1
:100D9000C0F6000100F003FF05E049F29811C0F62B
:100DA000000100F0FCFE9DF90030242B0AD16B46B7
:100DB00020A8002213F8011F2A2904D0834202D060
:100DC0004A40F7E7002249F29F10C0F6000069464A
:100DD00000F0D8FE00F0C5FD0028FBD021B05DF882
:100DE00004FB10B540F24474C2F20004204604F043
:100DF00094FAE278A3785B0543EA0243627943EA16
:100E0000C223A27943EA4213E27943EA52032088DB
:100E1000A0F2BC7043EA406010BD10B540F24C74C3
:100E2000C2F2000423685A1C226041F288329342C5
:100E30000BD949F2A610C0F6000049F2A511C0F680
:100E40000001FFF79BFF0023236010BD08B540F6AB
:100E50005013C2F200031B683BB140F21C70C2F297
:100E6000000002F082F90028F7D108BD2DE9F04119
:100E70008EB00024ADF8324041F2C053C2F20003FC
:100E800041F62902C0F600021A6041F2C453C2F2D0
:100E9000000341F64F02C0F600021A6002204FF430
:100EA000164100F016FC49F2AF10C0F6000049F2FE
:100EB000B811C0F60001FFF761FF6420FFF768FB7F
:100EC00002204FF4E13100F004FC49F2AF10C0F60B
:100ED000000049F2B811C0F60001FFF74FFF64208F
:100EE000FFF756FB02204FF4165100F0F2FB49F2D7
:100EF000BD10C0F6000049F2F711C0F60001FFF77F
:100F00003DFF49F2C610C0F6000049F2F711C0F6E5
:100F10000001FFF733FF49F2CF10C0F6000049F29D
:100F2000D811C0F60001FFF729FF49F2DA10C0F628
:100F3000000049F67941C0F60001FFF71FFF49F2B2
:100F4000E310C0F6000049F2F711C0F60001FFF708
:100F500015FF49F2EC10C0F6000049F2F511C0F699
:100F60000001FFF70BFF40F65410C2F2000049F2F7
:100F7000A511C0F60001224601F05AFF00F0DDFC89
:100F800040F65015C2F2000500232B604FF4C0500C
:100F9000C4F20100022105F0F0FD30BFFFF79EFE14
:100FA0000028FBD04FF4C050C4F20100022105F02C
:100FB000E6FD4FF4C050C4F20100012105F0DDFD53
:100FC00049F2F910C0F60000FFF7B7FE30B149F260
:100FD0000020C0F60000FFF7B0FE50B90220FFF776
:100FE000BBFE04464FF4C050C4F20100012105F0DD
:100FF000C6FD40F24C73C2F2000300221A6098460C
:10100000002CCAD02378412BC7D101242C604FF487
:10101000C050C4F20100022105F0B1FD4FF4C050F0
:10102000C4F20100214605F0AAFD2046FFF794FE18
:101030000446FFF770FE40F2F865C2F20005A860B2
:10104000A01CFFF768FE6860201DFFF764FE2860A3
:101050000920FFF781FE0446FFF75DFEE860A01C53
:10106000FFF759FE01382861201DFFF754FE643058
:101070006861284607F05EFC00F5FD401030FFF780
:1010800093FD02A8FFF786FD2E4602AF0FCF0FC6D5
:101090000FCF0FC63B6833606A69642692FBF6F790
:1010A0000346E968009140F25070C2F2000049F234
:1010B0000721C0F6000106FB1722013300F06FFD87
:1010C00040F21C75C2F20005284640F25071C2F28F
:1010D0000001122201F0D5FE002840F09C80284635
:1010E000E96802F04DF8002840F09580FFF7F6FD22
:1010F000054600283FF444AF49F21820C0F600002E
:10110000FFF71BFE38B90620FFF726FE04460378DA
:10111000302B0ED125E049F2F910C0F60000FFF7A0
:101120000CFEF0B90220FFF717FE04460378412BAE
:1011300017D14FF4C050C4F20100022105F01DFD8B
:1011400040F21C70C2F2000040F25071C2F2000185
:101150002A460DAB01F01DFF00285CD10D9B9D427E
:1011600059D149F21F20C0F60000FFF7E6FD38B95B
:101170000620FFF7F1FD04460378302B0ED124E062
:1011800049F20020C0F60000FFF7D7FDE8B90220C1
:10119000FFF7E2FD04460378412B16D14FF4C0500F
:1011A000C4F20100022105F0E8FC40F21C70C2F21A
:1011B000000040F25071C2F200012A460DAB01F06E
:1011C000E8FE40BB0D9B9D4225D1BDF832309BB25D
:1011D00001339BB2ADF832305A2B10D94FF4C050C6
:1011E000C4F20100022105F0C8FC0023ADF8323042
:1011F00040F21C70C2F2000001F08CFF58B94FF4AD
:10120000C050C4F20100022105F0B9FC0023C8F867
:10121000003030BF6AE74FF4C050C4F20100022131
:1012200005F0ABFC40F21C70C2F2000001F09DFF23
:101230000028F0D1A4E6F7B541F2AC54C2F20004A4
:101240004FF4165323600023A380E3802381A381FE
:101250000C2363810520012105F0ABFD4FF4003024
:10126000012105F0B2FD0426ADF8046003278DF8D6
:10127000067018238DF807304FF40065C4F201059D
:1012800028460DEB060105F02AFC0823ADF80430D2
:101290008DF806708DF8076028460DEB060105F005
:1012A0001EFC4FF48845C4F200052846214606F08E
:1012B000CCF82846012106F029F9284640F22551AC
:1012C000012206F02FF903B0F0BD73B540F204130C
:1012D000C2F20003197901291A4611D04FF0000417
:1012E00008D3022947D141F2AC53C2F200034FF4B4
:1012F00000510BE041F2AC53C2F20003DC8006E087
:1013000041F2AC53C2F200034FF44051D9805379FB
:10131000012B11D04FF0000408D3022B2BD141F246
:10132000AC53C2F200034FF4C0610BE041F2AC5386
:10133000C2F200031C8106E041F2AC53C2F200038A
:101340004FF4806119819379072B4FF0000402D08C
:10135000082B06D00FE041F2AC53C2F200039C8090
:101360000DE041F2AC53C2F20003198909B14FF408
:101370008051998003E0FFF75EFF204641E041F293
:10138000AC54C2F20004136823600023A3810C2331
:1013900063810520012105F00CFD4FF4003001218F
:1013A00005F013FD0425ADF8045003268DF8066002
:1013B00018238DF807304FF40060C4F201000DEBE4
:1013C000050105F08CFB0823ADF804308DF80660AC
:1013D0008DF807504FF40060C4F201000DEB0501D9
:1013E00005F07DFB4FF48840C4F20000214606F072
:1013F0002CF84FF48840C4F20000012106F086F872
:10140000012002B070BD70B506460D460024AC4206
:1014100011D24FF48840C4F20000315D06F09AF812
:101420004FF48840C4F20000802106F09BF80028A9
:10143000F6D00134EBE770BDF8B540F68833C2F260
:10144000000300221A7041F28933C2F200031978B6
:101450000129194644D041F29034C2F200042368B5
:10146000B3F5006F08BF2260236841F28C32C2F2EC
:1014700000021068834202D100230B70F8BD41F2D4
:101480009432C2F200028CBFC3F50060C3EB0000CF
:10149000106041F29435C2F200051668402E98B2F1
:1014A00005D940332360403E2E60402704E0B7B2A8
:1014B0003344236000232B6001240C7040F68933F1
:1014C000C2F200031844C0213A4606F02DFE204621
:1014D000394606F05FFF2046BDE8F84006F09EBEA4
:1014E000F8BD38B540F20413C2F200039B79072B14
:1014F00041F28C34C2F200040DD125684FF48840CB
:10150000C4F2000006F02AF840F68933C2F2000364
:1015100000F07F000CE0082B0BD125684FF48840C9
:10152000C4F2000006F01AF840F68933C2F2000354
:10153000585541F28C33C2F2000322680132B2F5F1
:10154000006F08BF00221A6038BD08B54FF488400C
:10155000C4F2000040F2255106F00AF808B1FFF786
:10156000C0FF4FF48840C4F20000082105F0FAFFE4
:1015700038B14FF48840C4F20000BDE8084005F0DF
:10158000EDBF08BD37B5FFF7E5F8FEF777FF00F0D0
:10159000BFFD41F2C850C2F2000049F24C21C0F632
:1015A000000100F08FFE41F2C850C2F2000000F0CE
:1015B00099FE00F092FD0020014649F22622C0F675
:1015C0000002012300F0F8FCFFF7F6F80020FFF717
:1015D00016F9FFF709F94FF4C06005F027FA142354
:1015E0008DF8043001248DF8054000258DF8065053
:1015F0008DF8074001A805F023FA26238DF8043062
:101600008DF8055001A805F01BFA06F06BFC20468A
:10161000FFF7F5F841F2DC63C2F200031B68052B0B
:10162000F8D1FEE713B5FFF795F8FEF727FF00F0B6
:101630006FFD41F2C850C2F2000049F24C21C0F6E1
:10164000000100F03FFE41F2C850C2F2000000F07D
:1016500049FE00F042FD0020014649F23822C0F662
:101660000002012300F0A8FCFFF7A6F80020FFF716
:10167000C6F8002004F053FAFFF7B6F84FF4C06044
:1016800005F0D4F914238DF8043001248DF80540B9
:101690008DF806408DF8074001A805F0D1F9132315
:1016A0008DF804308DF8054000238DF806308DF854
:1016B000074001A805F0C4F906F014FC2046FFF726
:1016C0009EF841F2DC63C2F200031B68052BF8D1DF
:1016D000FEE72DE9F3410546884602286AD141F22A
:1016E0009C34C2F200044FF48843C4F20003236028
:1016F0000520012105F05DFB4FF40030012105F0CC
:1017000064FB0426ADF8006003278DF802701823EF
:101710008DF803304FF40060C4F20100694605F013
:10172000DEF90823ADF800308DF802708DF8036003
:101730004FF40060C4F20100694605F0D0F94FF49F
:10174000C06005F073F926238DF804308DF805503C
:1017500000258DF8065001278DF807700DEB060067
:1017600005F06EF941F2AC56C2F20006304605F0C3
:10177000C2FEC6F800802068314605F066FE41F2E0
:101780009832C2F2000241F2A433C2F200031360A5
:10179000A3F80252A3F80052A3F80652A3F8045289
:1017A000206840F225513A4605F0BCFE20683946D3
:1017B00005F0ACFE02B0BDE8F08110B50346B0F80C
:1017C0000442A4B2B0F806220134E4B2D2B2A41AA0
:1017D00018BF0124B4B1B0F8042292B272B6D2B2EA
:1017E000104480F800110132D2B2A3F8042262B68C
:1017F00041F29C33C2F20003186840F227710122C3
:1018000005F090FE204610BD034672B6B0F80222E5
:1018100092B2805CC0B2B3F8022292B20132D2B26C
:10182000A3F8022262B67047014641F29833C2F231
:1018300000031B68B3F8040280B2B3F8062201303B
:10184000C0B2D2B29042F5D01846FFF7B6BF41F20F
:101850009833C2F200031868B0F80022B0F80232E0
:10186000D2B2DBB29A4201D0FFF7CEBF0020704760
:1018700070B54FF48840C4F2000040F2255105F0E5
:1018800077FE20B341F2A434C2F20004B4F800524F
:10189000ADB20135EDB2B4F80262B6B24FF4884091
:1018A000C4F2000005F05AFEC0B2B54209D14FF4AF
:1018B0008840C4F2000040F22551002205F032FEBB
:1018C00005E0B4F800329BB2E054A4F800524FF4A3
:1018D0008844C4F20004204640F2277105F048FE17
:1018E00010B341F2A433C2F20003B3F8062292B25D
:1018F000B3F8041289B2914207D1204640F2277111
:101900000022BDE8704005F00DBEB3F8062292B289
:101910001A4492F80021D2B2A280B3F8062292B201
:101920000132D2B2A3F8062270BD08B541F2A0334D
:10193000C2F200031B68984708BD41F29833C2F217
:1019400000031B680022A3F80222A3F8002241F240
:101950009C33C2F20003186840F22551012205F0C1
:10196000E1BD41F29833C2F200031B68B3F80622CE
:1019700092B2B3F8040280B2831A584258417047B9
:1019800010B504460A2802D10D20FFF7F9FF41F2F5
:10199000BC53C2F200031A681AB1511C19601470CA
:1019A00010BD41F2C053C2F200031B680BB1E0B29C
:1019B000984710BD10B5441E14F8010F18B140B27D
:1019C000FFF7DEFFF8E710BD2DE9F04F85B00246C6
:1019D0000D461078002800F0D28040B2252801D0B2
:1019E000561C70E0537859B2302903D1D61C937835
:1019F000012407E02D2902D0961C002402E0D61C09
:101A00009378022400271946A3F13002D2B2092AA2
:101A100007D85BB20A2202FB0737303F16F8013BBA
:101A2000F1E7324621F0200149B24C2903D144F0BC
:101A3000040401361378002B00F0A18058B260280E
:101A4000C4BF203BDBB25BB24F2B42D006DC432B42
:101A500030D0442B0ED0422B39D034E0552B09D056
:101A6000582B2ED0532B2ED105F10408D5F8009019
:101A7000002501E00A212DE019F905304BB10135AF
:101A8000FAE705F1010ABD4206D22020FFF778FFF0
:101A90005546A10701D4F4E755464846FFF78AFFAB
:101AA000BD4202D34546324693E72020FFF768FF48
:101AB0000135F5E705F1040895F90000FFF760FF2F
:101AC000F0E7102106E0FFF75BFFA846EAE70221F6
:101AD00000E008212A6805F10408442B04D1002AFB
:101AE000BCBF524244F008040023B2FBF1FC01FBEE
:101AF0001C225FFA82FE62464FFA8EF5092D06DD42
:101B0000782814BF07252725AE445FFA8EFE5D1C9A
:101B10000EF1300E0DF803E0BCF1000F04D0102DD3
:101B200001D02B46E1E70F23220705D504AA15446F
:101B30002D2205F8102C9D1C14F0010F0CBF4FF046
:101B4000200B4FF0300BA946A30709D409F1010A75
:101B5000B94504D25846FFF713FFD146F4E7D14602
:101B6000013D1DF90500FFF70BFF002DF8D1B94528
:101B700098D22020FFF704FF09F10109F7E705B02B
:101B8000BDE8F08F0FB407B504A951F8040B01911B
:101B9000FFF71AFF03B05DF804EB04B070470EB412
:101BA00017B505A951F8043B41F2BC54C2F2000438
:101BB000206001911846FFF707FF22680023137089
:101BC000236003B0BDE8104003B0704770B596B015
:101BD0004FF48070012105F0E0F840F2E11001219E
:101BE00005F0E7F84FF4FF43ADF81C3018238DF8EB
:101BF0001F3003238DF81E304FF4C050C4F2010093
:101C000007A904F06CFF1025ADF81C504FF4A05448
:101C1000C4F20104204607A904F061FF2023ADF8B7
:101C20001C30204607A904F05AFF4FF40063ADF8BA
:101C30001C30204607A904F052FF4023ADF81C30A9
:101C40008DF81F50204607A904F049FF8023ADF806
:101C50001C30204607A904F042FF4FF48076ADF80F
:101C60001C604FF44064C4F20104204607A904F04C
:101C700036FF2046314604F080FF02230093019393
:101C800002930523039304930593002306930424EE
:101C90000794089309930A950B930C930D930E9355
:101CA0000F934FF4805210921193129313936B443D
:101CB0001493159307A804F064FF2046012104F053
:101CC000C3FF16B070BD0A460146134600F0E4B9E2
:101CD0002DE9F04F85B0804689469A4641F2D455A9
:101CE000C2F200052B685F7AFE0807F0070710783C
:101CF000537843EA002000F007FB044608EBC603D4
:101D00009BB203934FF0000B41F2D453C2F2000395
:101D10001A68927A93453BDA0025B54202DB3444D7
:101D200000252EE008EBC50C1FFA8CFC0022615D3B
:101D30009140090610D50CEB020009EB0B0180B2B3
:101D400089B20292CDF804C0FFF7BDFF504600F003
:101D50009AF9DDF804C0029A0132082AE7D1013568
:101D6000DBE72278AA4013060AD50398284409EB3A
:101D70000B0180B289B2FFF7A6FF504600F083F94D
:101D80000135BD42EDDB07B101340BF1010BBBE7BF
:101D900005B0BDE8F08F2DE9F04F85B0804689464B
:101DA0009A4641F2D055C2F200052B685F79FE08D1
:101DB00007F00707104600F09BFA044608EBC6033D
:101DC0009BB203934FF0000B41F2D053C2F20003D9
:101DD0001A68927993453BDA0025B54202DB344418
:101DE00000252EE008EBC50C1FFA8CFC0022615D7B
:101DF0009140090610D50CEB020009EB0B0180B2F3
:101E000089B20292CDF804C0FFF75DFF504600F0A2
:101E10003AF9DDF804C0029A0132082AE7D1013507
:101E2000DBE72278AA4013060AD50398284409EB79
:101E30000B0180B289B2FFF746FF504600F023F94C
:101E40000135BD42EDDB07B101340BF1010BBBE7FE
:101E500005B0BDE8F08F2DE9F74F83460E46994651
:101E6000BDF830A041F2D455C2F200052B6893F8BA
:101E700009804FEAD80708F00703019310785378D8
:101E800043EA002000F040FA04462B68597A59448E
:101E90009B7A3344584601393246013B00F0FCF846
:101EA0004FF000082A68927A90452BDA0026BE424D
:101EB00002DB3C44002612E04FF0000BA25D02FA68
:101EC0000BF212F0800F0CBF5046484600F0DBF8D2
:101ED0000BF1010BBBF1080FF0D10136E7E7019BD5
:101EE0009E420ADA2278B24012F0800F0CBF5046B0
:101EF000484600F0C8F80136F1E703B1013408F1B3
:101F00000108CFE703B0BDE8F08F2DE9F74F834616
:101F10000E469946BDF830A041F2D055C2F20005F8
:101F20002B6893F805804FEAD80708F00703019360
:101F3000107800F0DDF904462B68597959449B79F3
:101F40003344584601393246013B00F0A5F84FF0C2
:101F500000082A68927990452BDA0026BE4202DBFF
:101F60003C44002612E04FF0000BA25D02FA0BF297
:101F700012F0800F0CBF5046484600F084F80BF179
:101F8000010BBBF1080FF0D10136E7E7019B9E4240
:101F90000ADA2278B24012F0800F0CBF5046484651
:101FA00000F071F80136F1E703B1013408F10108DE
:101FB000CFE703B0BDE8F08FF7B504460E461546EF
:101FC0001F462A78002A43D07F2C43D89F2E41D821
:101FD000A2F18003DBB21F2B40F21C00C2F2000012
:101FE00001D9DF2A19D93FB90368204631462A466C
:101FF0001B88FFF76DFE08E0026813885288009284
:10200000204631462A46FFF726FF023541F2D452D8
:10201000C2F2000213685B7A17E037B90368204602
:1020200031461B88FFF7B7FE08E002681388528824
:102030000092204631462A46FFF767FF013541F2FC
:10204000D052C2F2000213685B791C44A4B2B8E714
:10205000012000E0002003B0F0BD38B54FF4A054DB
:10206000C4F20104402525616420FEF791FA656100
:10207000802363616420FEF78BFA25616420BDE84C
:102080003840FEF785BA02090023C6F602031A801B
:10209000000180B21880704770B54FF0D0464FF401
:1020A000287434800024C6F6020400252580C0B2BE
:1020B000000120802580C9B2090121804FF42C71D4
:1020C00031802580D2B2120122802580DBB21B0133
:1020D00023804FF43073338070BD07B500207F211B
:1020E00002469F23FFF7D8FF4FF4A043019300233C
:1020F000C6F6020340F6FF721A804FF6F0721A809D
:10210000019B013B0193002BF1D103B05DF804FB6F
:102110002DE9F843FFF75AFDFFF79FFF4FF0D0443A
:1021200010252580B420FEF733FA4FF48073238006
:102130006420FEF72DFA4FF4887323809620FEF773
:1021400027FA4FF4316323800023C6F6020360268A
:102150001E803020188020221A804FF434612180A4
:1021600018804FF4366121801A804FF0E00CA3F8FC
:1021700000C04FF4756121804FF4D07119804FF485
:10218000406EA4F800E01A80002119804FF44167E6
:10219000278050271F804FF4426727801A801A80BB
:1021A0004FF4436727801D801A804FF444672780CF
:1021B0001D801A804FF4456727804FF48E671F807B
:1021C0004FF468771F804FF47268A4F800801A807B
:1021D0004FF47668A4F800804FF49868A3F8008064
:1021E0004FF47868A4F800801E804FF46068A4F86B
:1021F00000801E804FF4E078A3F800804FF4F87858
:10220000A3F80080A3F800804FF4C078A3F8008002
:102210004FF49879A3F800901E8018801880402011
:10222000188070201880188019804FF4616626800D
:10223000A0261E804FF4A0761E804FF4D8761E8014
:10224000A3F800804FF490761E80A3F800C01A8097
:102250001D8019801D8080221A80188019804FF4FB
:1022600058722280A3F800E027804FF4AA621A80F7
:102270004FF4547222801980FFF72FFF4FF424731C
:1022800023801420BDE8F843FEF782B970B541F20F
:10229000D453C2F200031968CD7A14220023AB4252
:1022A0000BDA0C68A61836F8026C864202D8A45ADB
:1022B000844205D201330432F1E74FF0FF3070BDA4
:1022C000184670BD01608A7B4271CB7B837112F02E
:1022D000070F4FEAD20219BF02FB033303715A43BF
:1022E0000271704741F2D053C2F200031860704788
:1022F00041F2D053C2F200031B681A79504300F137
:10230000110218681044704710B50446FFF7BEFF6D
:10231000431C05D148F2A010FFF7B8FF48F2A01403
:1023200041F2D453C2F200031B6803EB40029189CF
:102330001A6802EB8000428AA41A0C44187A5B687F
:1023400000FB043010BD10B50023D41A032C03D9B0
:10235000CC58C4500433F8E702F0030422F003021F
:1023600010440A440023A34203D0D15CC15401337A
:10237000F9E710BD0244904202D000F8011BFAE7D1
:102380007047436A0433490A02689278B1FBF2F15C
:10239000186830B1814202D3091A0833F8E7586847
:1023A0000844704710B5036893B11A46144612F8F2
:1023B000011B20290AD93A29F8D11A4612F8011B23
:1023C000944205D1302903D102330360002010BDAF
:1023D0004FF0FF3010BD08B580B1036873B11A78B3
:1023E00062B1D9888288914208D1587802F0F5FE0E
:1023F00010F0010F0CBF0020032008BD092008BD0C
:10240000F8B504460079F8B1256B04F1340760781B
:1024100039462A46012302F010FFA0B92071636AF1
:10242000EA1AE3699A4201D30020F8BDE678012E4A
:10243000FAD9E3691D44607839462A46012302F03F
:10244000FCFE013EF3E70120F8BDF8B50446FFF7B6
:10245000D7FF0546002D33D12378032B28D1667989
:10246000012E25D104F13407384629464FF4007275
:10247000FFF780FF4AF65523A4F8323245F2522383
:10248000C4F26113636347F27223C6F24113C4F8C6
:1024900018322369C4F81C32E368C4F82032226A77
:1024A0000132226360783946334602F0C6FE657118
:1024B000607800210A4602F0DCFE003018BF0120DF
:1024C000F8BD70B505460E46036B99420DD0FFF777
:1024D00097FF044658B9687805F134013246012364
:1024E00002F08FFE18B92E6302E0002400E0012400
:1024F000204670BD10B50446002303714FF0FF3332
:102500000363FFF7DEFFB8B9B4F832224AF6552369
:102510009A4213D1D4F86A3023F07F4244F2461332
:10252000C0F254039A420AD0D4F8860020F07F40CB
:10253000C01A18BF012010BD032010BD022010BD1D
:102540002DE9FF4106461546002303600846FFF7C4
:1025500029FF071EC0F2EC8041F2DC53C2F20003F7
:1025600053F82740002C00F0E580346023786BB1ED
:10257000607802F032FEC30708D4002D00F0DC8042
:1025800010F0040F0CBF00200A20DCE000232370B1
:10259000F8B2607002F011FEC60700F1CF8015B1ED
:1025A000410700F1CD8020460021FFF7A3FF01285D
:1025B0001BD1221D002392F8F21109B1D2F8F611B5
:1025C0004DF8031010320433102BF4D100265DF8BF
:1025D00006502DB120462946FFF78CFF08B90BE0C5
:1025E00002200436102EF2D100E00025032800F06E
:1025F000A98008B10D20A6E0B4F83F30B3F5007F04
:10260000F8D1B4F84A3003B9A36DE36194F844609B
:10261000E670721ED2B2012AECD894F84100A07084
:102620000028E7D0421E0242E4D1B4F845102181CF
:102630000A07DFD1B4F8472002B9626DB4F842C08E
:10264000BCF1000FD6D006FB03F80CEB1117474482
:10265000BA42CFD3D21BB2FBF0F2002ACAD040F666
:10266000F570824206D94FF6F576B2428CBF03264A
:10267000022600E001260232A261256205EB0C0071
:1026800060622F44E762032E05D10029B2D1216E8A
:10269000A16292000DE00029ACD04044A062022E5D
:1026A0004FEA42010FBF0A46891802F0010202EB0D
:1026B000510202F2FF12B3EB522F9BD34FF0FF33C4
:1026C0002361E36080236371032E24D1B4F8643066
:1026D000012B20D12046691CFFF7F3FED8B96071A9
:1026E000B4F832224AF655239A4214D145F25223C5
:1026F000C4F26113626B9A420DD147F27223C6F2A3
:102700004113D4F818229A4205D1D4F81C3223611F
:10271000D4F82032E360267041F2D853C2F20003AD
:102720001A88013292B21A80E280002060610AE0C9
:102730000B2008E00C2006E0284604E0032002E01D
:102740000A2000E0012004B0BDE8F081023983696D
:10275000023B994204D28278C36A02FB013070477F
:1027600000207047F8B504460D4601294BD983690E
:10277000994248D20378022B29D0032B34D0012B65
:1027800041D101EB5106416A01EB5621FFF799FE59
:1027900010B14FF0FF30F8BDC6F30803234493F89F
:1027A00034700136616A204601EB5621FFF789FE3D
:1027B0000028EED1C6F30806344494F8340047EA02
:1027C0000020EB074CBF0009C0F30B00F8BD416AC5
:1027D00001EB1521FFF775FE0028DAD16D0005F435
:1027E000FF752C44A08EF8BD416A01EBD511FFF7AF
:1027F00068FE0028CDD1AD0005F4FE752C44606B59
:1028000020F07040F8BD0120F8BDF8B505460E4631
:10281000E9808468012C01D10220F8BD03689A691F
:102820009442F9D254B91A78032A01D19A6A22B98A
:102830001A899642F0D2986A15E014469F783F01B3
:1028400028682146BE420CD3FFF78CFF0446431C88
:1028500018D00128E0D92B689B699842DCD2F61B7E
:10286000EEE7FFF773FFEC600028D5D000EB161001
:10287000286106F00F062B6803EB461334336B61B7
:102880000020F8BD0120F8BDF8B504460D461646F7
:1028900001295ED9836999425BD20378022B37D034
:1028A000032B41D0012B50D101EB5107416A01EBC1
:1028B0005721FFF706FE002848D1C7F3080315F09B
:1028C00001052344F2B206D093F8341001F00F0151
:1028D00041EA0212D2B283F8342001370123237176
:1028E000616A204601EB5721FFF7EBFD70BBC7F390
:1028F0000807274415B1C6F3071606E097F83430E9
:1029000023F00F03C6F303261E4387F834601DE04F
:10291000416A01EB1521FFF7D4FDB8B96D0005F44C
:10292000FF752544AE8611E0416A01EBD511FFF732
:10293000C8FD58B9AD0005F4FE75303525446B6807
:1029400003F070431E436E6000E0022001232371F8
:10295000F8BD0220F8BDF8B504460F4631B9C66887
:1029600096B183699E4228BF01260EE0FFF7FAFE6A
:1029700001283FD9451C02D14FF0FF30F8BDA369B3
:10298000984238D33E4600E0012635460135A3691A
:102990009D4204D3012E01D80020F8BD0225204617
:1029A0002946FFF7DFFE30B1411CE5D0012821D0D8
:1029B000B542EBD1F0E7204629466FF07042FFF7B1
:1029C00063FFA8B957B9E56023695A1C0ED0013BD3
:1029D0002361637943F00103637107E020463946C0
:1029E0002A46FFF751FF0028EDD001E02846F8BD48
:1029F0000128C1D00120F8BD2DE9F84304460F4657
:102A0000C6880136B3B213B90420BDE8F883036960
:102A1000002BF9D016F00F0859D101330361C168BA
:102A2000006819B903899E42EED250E08278013ADB
:102A300012EA16124BD1FFF795FE0546012802D87F
:102A40000220BDE8F883421C02D10120BDE8F883D2
:102A5000206883699D4234D3002FD5D0E168FFF709
:102A60007AFF054600283BD00128E9D0431CECD072
:102A70002068FFF7C5FC07460028E6D120683430FF
:102A800039464FF40072FFF775FCD4F800904846C1
:102A90002946FFF75BFEC9F8300023689A78974211
:102AA0000CD201221A712068FFF7AAFC0028CCD1B1
:102AB00023681A6B01321A630137EEE71A6BD71BD2
:102AC0001F63E56020682946FFF740FE2061E6802D
:102AD000236803EB4813343363610020BDE8F883B7
:102AE0000720BDE8F8832DE9F04104460F4691F92F
:102AF00000302F2B01D05C2B02D10137002301E0E5
:102B000003685B69A3603B781F2B3BD820460021FC
:102B1000FFF77BFE00236361BDE8F081032A00F02C
:102B2000D980B11801F8013C0132B91811F8013C03
:102B30002E2BF3D02F2B3DD10F46202B8CBF2023E3
:102B40002423F37220460021FFF75FFE30B920688E
:102B50002169FFF7B6FC002800F0BF80A369DB7A8B
:102B6000002800F0D380042840F0EC8013F0200F00
:102B700003F0040300F0CF800022A2606261002B0A
:102B800040F0C6803A461746137801325BB22F2BCD
:102B9000F9D05C2BF7D0A669304620210B22FFF735
:102BA000E9FB97F9003000222E2BBDD09446082176
:102BB000154613E05C2BBFD0202B00F28B80BBE7C7
:102BC0002F2B56D05C2B54D02E2B10D1082940F03F
:102BD0008180AD00EDB20A460B2184460CF1010064
:102BE00017F80C805FFA88F3202BE9D83FE08A427F
:102BF00070D218F0800F18BF45F0030503F17F086D
:102C00005FFA88F8B8F11E0F06D903F120085FFAC1
:102C100088F8B8F11C0F1CD80CF1020C385CA0F13C
:102C200040085FFA88F8B8F13E0F06D9A0F1800895
:102C30005FFA88F8B8F17C0F4CD801F1FF384245B3
:102C400048D202F10108B35406F808000232604687
:102C5000C3E749F65F48C0F6000818F801CFBCF199
:102C6000000F1FD04FFA8CFC9C45F6D132E00423B4
:102C700000E0002372B33278E52A04BF05223270E7
:102C8000082904BFAD00EDB205F00302012A08BF18
:102C900043F0100305F00C05042D08BF43F00803B2
:102CA00007444EE7A3F1410C5FFA8CFCBCF1190F0D
:102CB00002D845F002050AE0A3F1610C5FFA8CFC32
:102CC000BCF1190F03D845F00105203BDBB2B3542A
:102CD000013282E70620BDE8F081626913789BB17A
:102CE000D37A1D070BD4A6690346D15C0133F518CE
:102CF00015F8015C8D4202D10B2BF6D12EE7204650
:102D00000021FFF779FE21E7042027E7590708D5BE
:102D10000020BDE8F081002B14BF04200520BDE891
:102D2000F0816369DA7AD20609D55A8B216809786D
:102D3000032904BF9B8A42EA0342A26022E70520DE
:102D4000BDE8F081BDE8F08138B505460021FFF708
:102D50005CFD044678B928682969FFF7B2FB044690
:102D600048B96B691B78E52B09D043B1284601218E
:102D7000FFF742FEEDE7042C08BF072412E02868A5
:102D80002969FFF79EFB044660B968692146202245
:102D9000FFF7F0FA6869A9690B22FFF7D4FA2B68EC
:102DA00001221A71204638BDF7B504460D460129A7
:102DB0003BD98369994238D20F46A3699D4205D217
:102DC00020462946FFF7CEFC064608B900202DE034
:102DD00001282AD0411C26D0204629460022FFF790
:102DE00053FD18BB23695A1C05D001332361637955
:102DF00043F0010363716B1CB34212D02046394685
:102E0000FFF7A4FC009020462946FFF79FFCA3781B
:102E1000013B18440190607804216A4602F029FAC7
:102E200037463546C9E7012000E0022003B0F0BD77
:102E30001FB501900091144604A840F8041DFFF747
:102E4000B1FA011E18DB41F2DC53C2F2000353F861
:102E5000210008B100220270019808B1002202701E
:102E6000019843F8210050B1012C07D101A869460F
:102E70000022FFF765FB02E00B2000E0002004B019
:102E800010BD2DE9F0418CB0019117460546002890
:102E900075D00023036005A801A902F01E02FFF708
:102EA0004FFB002872D102AB0B9305A80199FFF7E5
:102EB0001AFE0A9C10B9002C08BF062007F01F0656
:102EC00017F01C0F35D048B1042802D105A8FFF730
:102ED0003BFF46F008060A9C30B157E0E37A13F056
:102EE000110F52D17B074CD437072BD5FDF779FF53
:102EF000C4F80E000023E372E3610598678B027843
:102F0000032A04BFA28A47EA02476383A3820123FC
:102F10000371BFB1D0F830803946FFF745FF002874
:102F200034D10598013FC7604146FFF7CAFA48B15E
:102F30002CE000282AD1E37AD80624D4B90701D599
:102F4000DA0722D4330748BF46F02006059B1A6BE8
:102F5000EA612C62AE710022EA71628B1978032952
:102F600004BFA18A42EA01422A61E269EA600020C4
:102F7000A860A86168622B60DB88AB8006E009204E
:102F800004E0082002E0042000E007200CB0BDE8C7
:102F9000F0812DE9F84F04460F4615469946002367
:102FA000C9F80030FFF717FA002840F0B180E07947
:102FB000002840F0AD80A3799A0740F1A880A3686B
:102FC000DD4228BF00250DB3A168C1F30803002B23
:102FD0006DD1206890F802A00AF1FF3A0AEA512A5E
:102FE0001AF0FF0A1DD131B92169A9B9FFF7B3FC65
:102FF0000146206109E0636A1BB12046FFF7C1F971
:1030000002E06169FFF7A7FC014629B9A368E268FD
:10301000934275D9E36073E0012912D04B1C53D061
:1030200061612068026BA3699A4203D1FFF7E8F956
:10303000002849D1D4F800B058466169FFF786FBF3
:1030400008B9022041E000EB0A086E0A22D09BF882
:10305000023006EB0A029A4288BFCAEB03069BF8CD
:10306000010039464246334602F0E7F8824658BB33
:103070002068016BC8EB0101B14209D2343007EB83
:1030800041214FF40072FFF75EF9236883F804A032
:1030900076022AE0A268E3689A4206D35846FFF710
:1030A000AFF988B92368C3F83080C4F81880A668DF
:1030B000C6F30806C6F50076B54238BF2E4620682E
:1030C000A169FFF7FEF918B10120E071BDE8F88FA2
:1030D000A368C3F30802236898183430394632468F
:1030E000FFF731F9236801221A713744A36833448A
:1030F000A360D9F800303344C9F80030AD1B62E753
:10310000A37943F02003A3710020BDE8F88F0720C6
:10311000BDE8F88F70B50446FFF75DF920BBA379D1
:103120009B0621D52068E169FFF7CBF90646DEB999
:10313000256AEB7A43F02003EB72E368EB612369C5
:103140006B831B0CAB82FDF74CFEC5F816006E823C
:10315000A37923F02003A371236801221A71206848
:10316000BDE87040FFF771B970BD10B50446FFF7B8
:10317000D1FF20B92046FFF72EF900B9206010BD1D
:103180002DE9F04704460E46FFF725F9002840F0E8
:10319000D480E779002F40F0CC80636A002B58D0B0
:1031A000721C31D11E1DD3F800A02769022517B368
:1031B000B9464FF0000808F1010820684946FFF7BA
:1031C000D1FA012840F29C80431C00F0878009F16D
:1031D0000109484501D18146EDE70235554504D83E
:1031E000334643F8088B77601E4623689B699842F4
:1031F00001D20746DCE7636A1D60554500F29C80FA
:1032000000203060BDE8F087E568AE4238BF354643
:10321000A560002D00F08A806E1E20463146FFF723
:10322000B0F801466061D4F800804046FFF78EFA9E
:10323000002865D098F80230C5F30805002D75D038
:10324000013B03EA56260644A3699E426ED0A6615E
:103250006CE0E568AE4201D8354602E0A3799F07ED
:10326000FAD4A3680022A2600DB900254EE02068C0
:10327000867876026BB1013B691EB1FBF6F1B3FBB8
:10328000F6F2914205D372421340A360ED1A6169D0
:103290000AE0216939B9FFF75EFB014601282FD00A
:1032A00001301BD0216161610029DED00AE00129D3
:1032B00026D923689B69994222D26161A36833446D
:1032C000A360AD1BB54210D9A37920689A0707D532
:1032D000FFF741FB014638B14B1CE8D1012010E05B
:1032E000FFF740FA0146F7E73546A3682B44A36091
:1032F000C5F30803002BB8D02068FFF727FA18B9E8
:103300000220E071BDE8F08700EB5525A368C3F308
:1033100008021AB1A269954218BFA561E2689342FA
:1033200004D9E360A37943F02003A3710020BDE832
:10333000F0873846BDE8F0871120BDE8F08708B572
:103340004FF40042C4F20102536B13F0450FFBD05F
:103350005A0704D5042004F062F8032008BDDB07F7
:1033600004D5012004F05BF8012008BD40F2FF50B5
:1033700004F055F82A2008BD37B504460022009213
:10338000019241F2C460C2F2000041F2BC61C2F29B
:1033900000010968090401600D214160402181603C
:1033A000C2604FF48062026103F0E1FF4FF400431A
:1033B000C4F201035A6B0192019A12F0450FF9D041
:1033C000019B5D0704D5042004F029F8032084E064
:1033D000019B13F0010504D0012004F020F8012026
:1033E0007BE003F0DAFF0190019B0D2B01D0102050
:1033F00073E040F2FF5004F012F8284603F0D4FFC7
:103400000090009BC3F343232370009A4EF20803FD
:10341000CFF6FF531340002B3CD0009B002B3BDB2F
:10342000009B5C003AD4009B980039D4009BD900E3
:1034300038D4009B1A0137D4009B5B0136D4009B23
:10344000DD0135D4009B1C0234D4009B5802CED43D
:10345000009B990230D4009BDA022FD4009B1B03FF
:103460002ED4009B5D032DD4009B9C032CD4009B89
:10347000D8032BD4009B19042AD4009B5A0429D4C6
:10348000009B9B0428D4009B13F0080F0CBF2A203C
:103490001A2022E02A2020E01C201EE009201CE047
:1034A0000A201AE00B2018E00C2016E00D2014E092
:1034B0000E2012E00F2010E011200EE012200CE090
:1034C00013200AE0142008E0152006E0162004E08E
:1034D000172002E0182000E0192003B030BD70B5BD
:1034E0008CB005460E464FF47040C1F2000003F068
:1034F00003FE40F24444C4F202042046002103F0DB
:10350000E3FD48F28003C4F2010301930295002316
:103510000393B60804960593802206924FF4007236
:1035200007924FF40062089209934FF400520A92F6
:103530000B93204601A903F0A9FD2046012103F0C9
:10354000C3FD0CB070BD70B58CB005460E464FF48F
:103550007040C1F2000003F0CFFD40F24444C4F2D9
:1035600002042046002103F0AFFD48F28003C4F2BC
:1035700001030193029510230393B60804960023D8
:103580000593802206924FF4007207924FF4006276
:10359000089209934FF400520A920B93204601A916
:1035A00003F074FD2046012103F08EFD0CB070BDC8
:1035B00038B505464FF40042C4F20102536B13F0D4
:1035C000450FFBD0590704D5042003F028FF032042
:1035D00038BD13F0010404D0012003F020FF0120C6
:1035E00038BD03F0DAFEA8425AD140F2FF5003F092
:1035F00016FF204603F0D8FE4EF20803CFF6FF5325
:1036000003404BB3002829DB420029D4830029D48E
:10361000C50029D4040129D4410129D4C20129D4E7
:10362000030229D445023BD4840227D4C10227D403
:10363000020327D4430327D4850327D4C40327D404
:10364000010427D4420427D4830427D410F0080FA0
:103650000CBF2A201A2038BD2A2038BD1C2038BDB6
:10366000092038BD0A2038BD0B2038BD0C2038BDDC
:103670000D2038BD0E2038BD0F2038BD112038BDBB
:10368000122038BD132038BD142038BD152038BD98
:10369000162038BD172038BD182038BD192038BD78
:1036A000102038BD2DE9F3470746002003F07CFECB
:1036B00010F0007540F0FC800095019541F2C46463
:1036C000C2F200044FF008094FF0100A84E8000627
:1036D0004FF04008C4F80880E5604FF4806626612A
:1036E000204603F044FE5046FFF762FF2A287ED1B1
:1036F00041F2BC63C2F200031B6803FA0AF32360C1
:103700004FF0370AC4F804A0C4F80880E5602661C9
:10371000204603F02CFE5046FFF74AFF2A2866D1C8
:1037200041F2E050C2F200004FF6FF72C0F20F0209
:1037300080E80402302282600222C2600561012218
:10374000426103F03EFE25604FF03309C4F8049057
:10375000C4F80880E5602661204603F008FE48466C
:10376000FFF726FF2A2842D1ADF104054FF40043AC
:10377000C4F201035A6B40F22A63134053B94FF469
:10378000001003F042FE0028F0D003F030FE45F8B0
:10379000040FEBE7082003F038FE20B1082003F007
:1037A0003EFE042087E0022003F02FFE20B102201D
:1037B00003F035FE02207EE0202003F026FE20B13B
:1037C000202003F02CFE062075E04FF4007003F07B
:1037D0001CFE28B14FF4007003F021FE07206AE0C0
:1037E00040F2FF5003F01BFE009D2DBA01E02A2895
:1037F00061D1012F2AD16A035CD541F2C465C2F2BE
:10380000000541F2BC63C2F200031B681B04236085
:103810004FF03709C4F804904FF04008C4F808800E
:103820000027E7604FF480662661284603F09FFD7D
:103830004846FFF7BDFE2A283DD10223062485E82D
:103840001800C5F80880EF602E6128E0EB0331D541
:1038500041F2C465C2F2000541F2BC63C2F200034A
:103860001B681B0423604FF03709C4F804904FF025
:103870004008C4F808800026E6604FF4806727619E
:10388000284603F074FD4846FFF792FE2A2812D11D
:103890002E6006246C60C5F80880EE602F61284613
:1038A00003F065FD204602B0BDE8F047FFF780BE9B
:1038B0000E2000E0252002B0BDE8F0872DE9F84F8A
:1038C00041F2A060C2F20000B2230375002505603A
:1038D00045608560C560056103F00CFD032003F0C1
:1038E00026FD012003F01EFD41F2C464C2F2000473
:1038F00025606560A560E5604FF480632361204624
:1039000003F035FD4FF48035802003F07EFD002864
:103910007ED1013DF8D178E05BB1013B4FF400422C
:10392000C4F20102526B12F0450FF5D0002B40F0AB
:103930008B80042003F073FD0025372684E86000A7
:103940004023A360E5604FF48063236141F2C460CB
:10395000C2F2000003F00BFD3046FFF729FEA84637
:1039600000262660372565604023A360E6604FF49B
:103970008063236141F2C460C2F2000003F0F7FCEF
:103980002846FFF715FE2A2840F08B803746304640
:103990004FF6FF73002E6AD19F4273D041F2C46587
:1039A000C2F2000526604FF0370BC4F804B04FF0A8
:1039B000400AC4F808A0E6604FF48069C4F810908B
:1039C000284603F0D4FC5846FFF7F2FD2A2868D1B8
:1039D00048F0104343F480132B6029236B60C5F833
:1039E00008A0EE60C5F81090284603F0C0FC4FF424
:1039F0000043C4F20103586B10F0450FFBD010F0E8
:103A000004052AD0042003F00AFD0320BDE8F88F46
:103A100040F2FF5003F003FD4FF4D570082140221F
:103A2000002384E80F004FF48063236141F2C460F7
:103A3000C2F2000003F09BFC4FF40043C4F2010308
:103A40005A6B4FF480336EE756073FF572AF550659
:103A50001ED5402003F0E3FC1AE040F2FF5003F0D3
:103A6000DEFC284603F0A0FCC60F013790E79F421A
:103A700008D0440009D541F28463C2F20003022257
:103A80001A6002E01B20BDE8F88F2A20BDE8F88FFD
:103A900041F28463C2F2000301221A604FF08048B1
:103AA0005EE7BDE8F88F38B503F047FC002800F06A
:103AB000A88041F28463C2F200031A68042A1D46FA
:103AC00028D041F2C460C2F2000000240460022247
:103AD0004260C0228260C4604FF48062026103F0E1
:103AE00046FCFFF72CFC2A2840F09680204603F085
:103AF0005BFC41F28864C2F200042060042003F001
:103B000053FC6060082003F04FFCA0600C2003F021
:103B10004BFCE0602B68022B01D9062B3CD141F213
:103B2000C460C2F20000002303600322426040220E
:103B30008260C3604FF48063036103F018FC4FF4AC
:103B40000043C4F20103586B10F0450FFBD044074B
:103B500004D5042003F063FC032038BD10F00104F9
:103B600004D0012003F05BFC012038BD03F015FCFC
:103B700003284CD140F2FF5003F051FC204603F0E3
:103B800013FC10F4604F01D1000C06E0810440D416
:103B900042043CD403043ED401202B68042B32D0D1
:103BA00041F2BC63C2F20003186041F2C463C2F286
:103BB00000030004186009225A60C0229A600024A1
:103BC000DC604FF480621A61184603F0D0FBFFF707
:103BD000B6FB05462A2818D1204603F0E5FB41F242
:103BE000F854C2F200042060042003F0DDFB6060A2
:103BF000082003F0D9FBA0600C2003F0D5FBE060A7
:103C000003E0252038BD2A2038BD284638BD1020C5
:103C100038BD132038BD0F2038BDF0B541F28463A4
:103C2000C2F200031C6880F8564041F2BC63C2F245
:103C300000031B68A0F8543041F2F856C2F20006A7
:103C40003368190ECAB295090570C1F3830141703A
:103C500002F003028270C3F30742C270C3F307226B
:103C60000271DBB2437173681A0E1201C280C3F392
:103C70000742C18889B241EA1211C18002F00F02E5
:103C80000272C3F30722D1B2CD094572C2F3801587
:103C90008572C2F34015C572C2F300150573002585
:103CA0004573012C40D802F00302920202610269BE
:103CB000DBB242EA83030361B1680A0ED3B204693E
:103CC00044EA93140461C2F3C202027503F00703CD
:103CD0004375C1F30742D3B25C098475C2F3820213
:103CE000C27503F003035B000376C1F30721037E73
:103CF00043EAD1130376D0F810C0027E077A01237D
:103D000003FA07F70765023203FA02F2D517A2FB9E
:103D1000072307FB05330CF10107A2FB074507FB4F
:103D20000355C0E9124520E0022C1ED103F03F03E9
:103D30001B040361B16803690A0E43EA02230361AD
:103D40000369C1F3074213430361C1F30721026909
:103D50000023013243F10003DB0443EA5233C3641E
:103D6000D20482644FF400730365C1F38013437679
:103D700001F03F0149008176337A827E42EAD31214
:103D8000827603F07F03C376F268130ED9B2CC09B2
:103D90000477C3F341144477C3F38203837701F0BC
:103DA00003018900C177C2F30741CBB2C47F44EA63
:103DB0009314C477C1F3401180F82010002180F8DB
:103DC000211003F0010380F82230C2F30723D9B297
:103DD000CC0980F82340C3F3801480F82440C3F357
:103DE000401480F82540C3F3001480F82640C3F344
:103DF000810380F8273001F0030180F82810C2F316
:103E0000460280F82920012180F82A1041F28863B7
:103E1000C2F200031A68140E80F82C40C2F3074463
:103E20002402C485C48DA4B2C2F307252C43C485E3
:103E3000120602635A68046B150E44EA05440463D3
:103E4000046BC2F3074544EA05240463046BC2F320
:103E500007252C430463D2B280F834209A68140EEC
:103E600080F83540C2F3074424068463846BC2F3B0
:103E7000072544EA05448463846BD2B244EA0222F3
:103E80008263DB68826B42EA13628263C3F3074298
:103E900090F83C4044EA121480F83C4002F00F02D3
:103EA0001202C287C28F92B2C3F307242243C28791
:103EB000C3F3460380F8403080F841102A20F0BD5B
:103EC00038B5054641F28463C2F200031B68032B38
:103ED00030D0022B2CD8B0F5805F2BD0B0F5006F1E
:103EE00011D10120FFF7DEFB04462A2824D141F23C
:103EF000A060C2F20000012202750022026042604E
:103F00008260C56010E00020FFF7CCFB04462A2841
:103F100012D141F2A060C2F200000122027500221B
:103F2000026042608260C260026103F0E3F903E074
:103F30002A2038BD272038BD204638BD022806D8A3
:103F400040F22803C2F2000318602A20704726209E
:103F5000704710B541F2C463C2F200031860072431
:103F60005C6040229A600022DA604FF480621A613D
:103F7000184603F0FCF92046BDE81040FFF718BBD7
:103F800037B5B020012102F014FF4FF4F853ADF81B
:103F9000003003238DF8023018238DF803304FF4DE
:103FA0008050C4F20100694602F099FD0423ADF887
:103FB00000304FF4A050C4F20100694602F08FFDBA
:103FC0004FF48060012102F0E8FE0220012102F09E
:103FD000E4FE03F07CF9FFF771FC2A2839D1FFF7E2
:103FE00062FD2A2835D141F2A060C2F2000001250D
:103FF00005750024046044608460C460046103F0BB
:1040000079F931238DF804308DF805408DF806409C
:104010008DF8075001A802F013FD41F21865C2F2B5
:1040200000052846FFF7F9FD2A2812D1B5F85400FB
:1040300000040021FFF78DFF2A280AD14FF4006009
:10404000FFF73EFF2A2804D140F22803C2F2000302
:104050001C6003B030BD2DE9F04F85B092469B4601
:10406000BDF83850064608B926203BE140F2250845
:10407000C2F200082A2388F8003041F29869C2F29F
:1040800000090027C9F8007041F2C063C2F20003C2
:104090001F6041F2E054C2F200044FF6FF73C0F219
:1040A0000F0384E88800A760E76027616761204606
:1040B00003F087F9384603F054F9384603F074F9F1
:1040C00010F0007F234640F00C8141F28462C2F27E
:1040D00000021268022A06D14FEA5A2040EACB5069
:1040E00082464FF400756A1E91B2B1F5006FBBD2E3
:1040F0002A40B9D12F465FFA82FC0132012F02D04B
:10410000C7F34F07F7E741F2C464C2F20004256029
:10411000102161604022A2604FF00009C4F80C90A9
:104120004FF480622261204603910193CDF808C0CC
:1041300003F01DF903990846FFF73AFA2A28019B74
:10414000DDF808C040F0CE804FF6FF71C0F20F01DD
:1041500083E822004FEA0C1199600221D960C3F86C
:1041600010905F6141F2E050C2F2000003F029F9C3
:1041700041F2C063C2F200031D6041F2D863C2F293
:104180000003C3F8009041F29C63C2F200031E607A
:10419000C4F800A0112363604022A260C4F80C9010
:1041A0004FF4806222612046019303F0E0F8019B06
:1041B0001846FFF7FDF92A2840F0948040F22803C2
:1041C000C2F200031B68022B4BD14FF40043C4F230
:1041D00001035B6B40F22A641C406CB94FF4004051
:1041E00003F013F90028F0D003F001F93051043442
:1041F000202CF9D12036E8E7082003F006F920B199
:10420000082003F00CF904206CE0022003F0FDF814
:1042100020B1022003F003F9022063E0202003F024
:10422000F4F820B1202003F0FAF806205AE04FF409
:10423000007003F0EAF828B14FF4007003F0EFF8D3
:1042400007204FE04FF4001003F0DFF820B103F037
:10425000CEF846F8040BF5E740F2FF5003F0DFF824
:1042600018E0012B18D148F22A30394603F06DF8D6
:1042700041F29862C2F2000213681BB998F800304C
:104280002A2BF5D040F22503C2F2000398F8002053
:104290002A2A23D12A2025E0002BFBD140F22A3004
:1042A000394603F052F8384603F05BF830462946A9
:1042B000FFF715F94FF40050C1F2000002F00FFFB4
:1042C0000028DFD141F29862C2F200021368002B8D
:1042D000D8D198F800302A2BECD0D3E71878C0B2A8
:1042E00000E00E2005B0BDE8F08F2DE9F74F9246B3
:1042F0009B46BDF83070054608B9262058E140F2CB
:104300002508C2F200082A2388F8003041F2986696
:10431000C2F200060024346041F2C063C2F200031E
:104320001C6041F2E050C2F200004FF6FF73C0F291
:104330000F0380E818008460C4600461446103F0E6
:1043400040F8204603F00DF8204603F02DF88301D5
:1043500000F12D8141F28463C2F200031B68022B3D
:1043600006D14FEA5A2242EACB5292464FF40077E6
:104370007B1E9AB2B2F5006FBFD23B40BDD13E4624
:10438000D9B20133012E02D0C6F34F06F8E741F24D
:10439000C464C2F200042760102262604023A3605C
:1043A0004FF00009C4F80C904FF48063236120465D
:1043B0000191009202F0DBFF009A1046FFF7F8F837
:1043C0002A28019940F0F4800D9A012A40F2958044
:1043D0000D9B5F43B7F1007F8FD241F2C062C2F202
:1043E0000002176041F2D862C2F20002166041F288
:1043F0009C62C2F20002156041F2E050C2F200007D
:104400004FF6FF72C0F20F0280E88400090181605C
:104410000222C260C0F81090466102F0D2FFC4F8D8
:1044200000A0122262604023A360C4F80C904FF4F5
:10443000806323612046009202F099FF009A1046A3
:10444000FFF7B6F82A2840F0B38040F22803C2F202
:1044500000031B68022B6ED14FF40043C4F201032A
:104460005B6B40F22A341C406CB94FF4004002F000
:10447000CCFF0028F0D002F0BAFF28510434202CE1
:10448000F9D12035E8E7082002F0BFFF20B108206D
:1044900002F0C5FF04208BE0022002F0B6FF20B13D
:1044A000022002F0BCFF022082E0202002F0ADFFDB
:1044B00020B1202002F0B3FF062079E04FF4007015
:1044C00002F0A3FF28B14FF4007002F0A8FF07200C
:1044D0006EE04FF4001002F098FF044620B102F0A5
:1044E00086FF45F8040BF4E74FF4807002F08DFF6F
:1044F00028B940F2FF5002F092FF2A2058E041F222
:104500008463C2F200031B68022BF2D841F2C4603C
:10451000C2F2000004600C25456040228260C46045
:104520004FF48062026102F022FF2846FFF740F854
:104530002A283DD1DDE7012B0FD148F22A30314640
:1045400002F003FF41F29862C2F2000213681BBB43
:1045500098F800302A2BF5D01EE0002BCDD140F288
:104560002A30314602F0F1FE304602F0FAFE2846CB
:104570003946FEF7B4FF4FF40050C1F2000002F0DC
:10458000AEFD48B941F29862C2F2000213681BB94D
:1045900098F800302A2BEED040F22503C2F2000337
:1045A00098F800202A2AA8D01878C0B200E00E207F
:1045B00003B0BDE8F08F2DE9F04F8BB0CDE90423B7
:1045C000BDF8505000248DF82740064608B9262033
:1045D0009FE140F22508C2F200082A2388F8003043
:1045E00041F29869C2F20009C9F8004041F2C06A7C
:1045F000C2F2000ACAF8004041F2E057C2F20007D6
:104600004FF6FF73C0F20F0387E81800BC60FC6030
:104610003C617C61384602F0D4FE204602F0A1FEE7
:10462000204602F0C1FE830100F1708141F28463F3
:10463000C2F200031B68022B09D104994A0A0599AA
:1046400042EAC1524B0ACDE904234FF400756B1EB8
:104650009AB2B2F5006FBAD22B40B8D12A46D9B27D
:1046600007910133012A02D0C2F34F02F7E741F26A
:10467000C464C2F200042560102363604021A1607D
:104680004FF0000BC4F80CB04FF48062226120465A
:1046900002910192039302F06AFE039B1846FEF713
:1046A00087FF2A280299019A40F0338141F2BC60C9
:1046B000C2F200000068000420600D236360A16066
:1046C000C4F80CB022612046039302F050FE039B15
:1046D0001846FEF76DFF2A2840F01B81584602F06D
:1046E00063FE4FF6FF7BC0F20F0B10F4807228D1EF
:1046F000BBF1000F00F00C810BF1FF3B41F2BC61FC
:10470000C2F200010968090421600D2161604020A6
:10471000A060E2604FF48060206141F2C460C2F2A8
:1047200000000291019202F022FE02990846FEF773
:104730003FFF2A28019A40F0EC80104602F034FE38
:10474000D3E7BBF1000F00F0E380049B2360182245
:1047500062604023A3604FF0000BC4F80CB04FF42C
:104760008061216141F2C460C2F20000019202F056
:10477000FEFD019A1046FEF71BFF2A2840F0C98073
:10478000CAF8005041F2D862C2F20002C2F800B08A
:1047900041F2B862C2F2000216604FF6FF72C0F238
:1047A0000F0287E8240007990A01BA60C7F80CB025
:1047B000C7F810B001247C6141F2E050C2F2000061
:1047C00002F0FFFD40F22802C2F200021168022945
:1047D00057D15C464FF40043C4F201035B6B40F2D7
:1047E0001A651D403DBB4FF4804002F00EFE0028CC
:1047F000F0D0DAF800301B1B1F2B13D813F0030F77
:104800004FEA930718BF01370025BD424FEA8503E1
:1048100005D056F8250002F0F1FD0135F5E71C44FE
:104820001E44D7E7705902F0E9FD0435202DF9D177
:1048300020362034CEE7082002F0E7FD20B1082022
:1048400002F0EDFD042064E0022002F0DEFD20B164
:10485000022002F0E4FD02205BE0102002F0D5FD12
:1048600020B1102002F0DBFD052052E04FF4007073
:1048700002F0CBFDC8B34FF4007002F0D0FD07206A
:1048800047E001290BD144F21A3002F05EFDD9F85D
:104890000030FBB998F800302A2BF8D01AE021BB81
:1048A00040F21A30214602F050FD30462946FEF70C
:1048B0004AFE204602F055FD4FF40050C1F20000C0
:1048C00002F00DFC30B9D9F800301BB998F800306F
:1048D0002A2BF1D040F22503C2F2000398F8002001
:1048E0002A2A02D01878C0B213E040F2FF5002F03A
:1048F00096FD0DF12700FEF73FFD2A2809D19DF80E
:104900002730063BDBB2012BF3D902E00E2000E09A
:1049100029200BB0BDE8F08F2DE9F04F89B0CDE92B
:104920000223BDF8486000278DF81B7007970446E6
:1049300008B92620EAE140F22505C2F200052A2343
:104940002B7041F2986BC2F2000BCBF8007041F271
:10495000C068C2F20008C8F8007041F2E050C2F22C
:1049600000004FF6FF73C0F20F0380E888008760F5
:10497000C7600761476102F024FD384602F0F1FC90
:10498000384602F011FD830100F1BF8141F28463DA
:10499000C2F200031B68022B09D102994A0A03994B
:1049A00042EAC1524B0ACDE902234FF40076731E4E
:1049B0009AB2B2F5006FBCD23340BAD13246D9B206
:1049C00005910133012A02D0C2F34F02F7E741F209
:1049D000C465C2F200052E604FF0100AC5F804A0AD
:1049E0004FF04009C5F808904FF00008C5F80C805A
:1049F0004FF480672F61284602F0B9FC5046FEF75D
:104A0000D7FD2A2840F0828141F2BC6AC2F2000A36
:104A1000DAF80010090429600D216960C5F80890D2
:104A2000C5F80C802F612846019102F0A0FC019985
:104A30000846FEF7BDFD2A2840F06881139A012A36
:104A400040F248815643B6F1007FBFF472AF41F2A5
:104A50008461C2F20001096802291AD941F2C467CF
:104A6000C2F20007029B3B6019257D604023BB60BA
:104A70004FF00009C7F80C904FF480633B61384653
:104A800002F075FC2846FEF793FD2A2840F03E818F
:104A90002AE0DAF8002012042A604FF0370AC5F83D
:104AA00004A0C5F80890C5F80C802F61284602F0D4
:104AB0005EFC5046FEF77CFD2A2840F027811399C2
:104AC00029604FF0170AC5F804A0C5F80890C5F88A
:104AD0000C802F61284602F04AFC5046FEF768FD24
:104AE0002A2840F01381B9E741F2C062C2F2000205
:104AF000166041F2D863C2F200034FF00108C3F818
:104B0000008041F2B863C2F200031C6041F2E05041
:104B1000C2F200004FF6FF72C0F20F0280E84400BC
:104B2000059B1A018260C0F80C90C0F81090C0F884
:104B3000148002F046FC40F22803C2F20003196818
:104B4000022940F08E804E464FF40043C4F2010328
:104B50005B6B40F21A351D40002D39D14FF4804077
:104B600002F053FC0028EFD041F2C063C2F2000310
:104B70001B689B1B1F2B11D90795079B072B08D878
:104B8000079B54F8230002F039FC079B013307937D
:104B9000F3E704F1200506F1200316E013F0030FFC
:104BA0004FEA930818BF08F1010800230793254630
:104BB000331B2B44079A424507D255F8040B02F0E9
:104BC0001DFC079B01330793F2E72C461E46BBE70B
:104BD000082002F01AFC20B1082002F020FC04207A
:104BE00094E0022002F011FC20B1022002F017FC38
:104BF00002208BE0102002F008FC20B1102002F00F
:104C00000EFC052082E04FF4007002F0FEFB04462B
:104C100028B14FF4007002F002FC072076E04FF458
:104C2000807002F0F2FB002854D041F28463C2F29B
:104C300000031B68022B4DD83C600C257D6040238F
:104C4000BB60FC604FF480633B6141F2C460C2F220
:104C5000000002F08CFB2846FEF7AAFC2A2855D15A
:104C600038E001290ED144F21A3002F06EFBDBF875
:104C700000302BBB40F22501C2F200010B782A2B39
:104C8000F5D01DE031BB40F21A30414602F05DFB29
:104C9000404602F066FB20463146FEF754FC4FF4D6
:104CA0000050C1F2000002F01AFA48B9DBF80030F7
:104CB00033B940F22502C2F2000213782A2BEED05B
:104CC00040F22503C2F200031A782A2A02D018788B
:104CD000C0B21BE040F2FF5002F0A1FB002307939B
:104CE000079A4FF6FE739A4208D8079B0133F6E7FE
:104CF0009DF81B30063BDBB2012B07D80DF11B00E2
:104D0000FEF73AFB2A28F3D000E00E2009B0BDE8F8
:104D1000F08F10B541F2C460C2F2000000220C24F2
:104D200080E8140040218160C2604FF4806202611B
:104D300002F01DFB2046BDE81040FEF739BC2DE90E
:104D4000F8430546002002F02FFB10F0007640F0FB
:104D5000AC8041F2C464C2F2000440274FF0100955
:104D600084E88002A760E6604FF48068C4F8108091
:104D7000204602F0FCFA4846FEF71AFC2A2840F0CA
:104D8000988041F2BC63C2F200031B6803FA09F386
:104D900023604FF03709C4F80490A760E660C4F8B8
:104DA0001080204602F0E3FA4846FEF701FC2A286C
:104DB0007FD141F2E050C2F200004FF6FF72C0F224
:104DC0000F0280E88400602282600222C2600661D5
:104DD0000122426102F0F5FA26604FF00D09C4F895
:104DE0000490A760E660C4F81080204602F0BFFA85
:104DF0004846FEF7DDFB2A285BD14FF40043C4F29E
:104E000001035B6B40F22A641C406CB94FF4004014
:104E100002F0FBFA0028F0D002F0E9FA285104343D
:104E2000202CF9D12035E8E7082002F0EEFA28B16D
:104E3000082002F0F4FA0420BDE8F883022002F012
:104E4000E4FA28B1022002F0EAFA0220BDE8F88371
:104E5000202002F0DAFA28B1202002F0E0FA062041
:104E6000BDE8F8834FF4007002F0CFFA30B14FF490
:104E7000007002F0D4FA0720BDE8F8834FF4001068
:104E800002F0C3FA20B102F0B2FA45F8040BF5E7DC
:104E900040F2FF5002F0C3FAA5F140031A6812BABB
:104EA00043F8042BAB42F9D102E00E20BDE8F883B1
:104EB0002A20BDE8F8832DE9F04140F22807C2F22C
:104EC00000073B68012B63D14FF4004002F0ADFABC
:104ED0000646B0B1002541F29C64C2F20004266887
:104EE00002F085FA70510435202DF4D12368203367
:104EF000236041F27063C2F200031A6820321A6024
:104F000046E04FF4804002F090FA002840D041F291
:104F1000C063C2F200031B6841F27064C2F2000475
:104F200022689A1A1F2A22D822689A1A12F0030FAE
:104F3000226803D19B1A4FEA930805E0C2EB0308ED
:104F40004FEA980808F101080026464520D041F2B2
:104F5000B865C2F200052B68186802F04FFA0136F6
:104F60002B6804332B60236804332360EDE741F2A0
:104F7000B865C2F200052B68985902F03FFA043672
:104F8000202EF4D12B6820332B602368203323603C
:104F90004FF4807002F049FA044600284CD03B6878
:104FA00041F27065C2F2000543BB41F2D863C2F220
:104FB00000031B68012B40F22504C2F2000424D137
:104FC000FFF7A7FE207022E041F27066C2F20006F1
:104FD0002A6841F2C063C2F200031B689A42E4D21D
:104FE00041F29C64C2F20004276802F000FA3860C3
:104FF0002368043323603368043333604FF40010B4
:1050000002F003FA0028DFD1CFE72A2323704FF400
:10501000807002F014FA4CF23A30002102F095F957
:1050200041F29863C2F2000301221A6000232B6050
:105030002078C0B2BDE8F081022002F0F6F9054602
:1050400090B1022002F0FBF94CF23A30214602F016
:105050007CF941F27063C2F200031C6040F2250348
:10506000C2F2000302205FE0082002F0DEF90446ED
:1050700090B1082002F0E3F94CF23A30294602F0F0
:1050800064F941F27063C2F200031D6040F225032F
:10509000C2F20003042047E0202002F0C6F90546D2
:1050A00090B1202002F0CBF94CF23A30214602F0C8
:1050B0004CF941F27063C2F200031C6040F2250318
:1050C000C2F2000306202FE0102002F0AEF90446E1
:1050D00090B1102002F0B3F94CF23A30294602F0B8
:1050E00034F941F27063C2F200031D6040F22503FF
:1050F000C2F20003052017E04FF4007002F095F9AA
:10510000A8B14FF4007002F09AF94CF23A302146FF
:1051100002F01BF941F27063C2F200031C6040F21E
:105120002503C2F2000307201870BDE8F0812A2091
:10513000BDE8F081FFF7BFBE38B5044641F27465A3
:10514000C2F200052846FFF7FAFD2A2834D12B7851
:105150009B0923702B78C3F340136370AB781B0259
:10516000638063889BB2EA78134363802B791B06C4
:10517000636063686A7943EA024363606368AA799B
:1051800043EA022363606368EA79134363602B7A1E
:1051900023726B7A6372AB7A1B09A372EB7A1B02E0
:1051A000A381A3899BB22A7B1343A3816B7B9A08BB
:1051B000A27303F00303E37338BD08B558B9FEF7D3
:1051C000DFFE40F22403C2F20003187018782A3878
:1051D00018BF012008BD012008BD08B578B941F20B
:1051E0001860C2F20000FEF718FD40F22403C2F27C
:1051F0000003187018782A3818BF012008BD012054
:1052000008BD73B51E46A8B9012B4FEAD25003461C
:105210004FEA42224FF40070009003D10846FEF797
:105220001AFF03E001960846FFF75FF82A3818BF17
:10523000012000E0042002B070BD73B51E46A8B97D
:10524000012B4FEAD25003464FEA42224FF400703E
:10525000009003D10846FFF7AEF903E00196084637
:10526000FFF75AFB2A3818BF012000E0042002B0E3
:1052700070BD70B5164600284BD101390D294AD8AA
:10528000DFE801F00B07164949494949491C242A1E
:1052900031384FF4007313803DE041F21863C2F2DD
:1052A0000003DA6C9B6C5C0A44EAC254346032E05E
:1052B00041F21863C2F200031B6D19E041F218635A
:1052C000C2F2000393F85630137024E0104641F206
:1052D0001861C2F2000104E0104641F24461C2F2DA
:1052E0000001102212E041F21863C2F200031B7D9C
:1052F000336010E041F20860C2F20000FFF71CFFCB
:10530000304641F20861C2F20001402203F098F9F0
:1053100001E0042070BD002070BDF0B58BB00746E1
:1053200040F2F866C2F200066846FBF733FC3446EA
:105330006D460FCD0FC40FCD0FC42B6823603368AB
:10534000FB717368BB71B3687B71F368FB70336981
:105350000133BB7073693B8001200BB0F0BD08B511
:105360000120FBF74CFA45F64043C4F2000301224A
:105370001A6041F68422C2F200020020186045F64D
:105380004441C4F2000108604FF4E05111801960FB
:1053900008BD08B541F2E063C2F200031B689847FC
:1053A00008BD70B545F64441C4F200010A6892B2E6
:1053B00041F2E663C2F200031A801C8841F684229F
:1053C000C2F200021088204010F4007F0C461E46F6
:1053D00015460CD04FF6FF530B6041F2E461C2F268
:1053E00000010B780133DBB20B7000F058F8328803
:1053F0002B8813401A0401D502F095FD32882B88C2
:1054000013405B0508D54FF6FF33236040F2880355
:10541000C2F200035B68984770BD70B545F6444121
:10542000C4F200010A6892B241F2E663C2F20003DC
:105430001A801C8841F68422C2F2000210882040A3
:1054400010F4004F0C461E46154601D002F06BFDCD
:1054500032882B8813405B0508D54FF6FF33236055
:1054600040F28803C2F200035B68984770BD08B53C
:1054700041F2EC63C2F200031B68984708BD08B50F
:1054800041F2F063C2F200031B68984708BD08B5FB
:1054900041F2E863C2F200031B68984708BD08B5F3
:1054A00041F2F463C2F200031B68984708BD08B5D7
:1054B00041F23C73C2F200031B68984708BD08B56F
:1054C00041F20073C2F200031B68984708BD08B59B
:1054D00041F23073C2F200031B68984708BD08B55B
:1054E00041F24073C2F200031B68984708BD08B53B
:1054F00041F21C73C2F200031B68984708BD08B54F
:1055000041F20873C2F200031B68984708BD08B552
:1055100041F2F863C2F200031B68984708BD08B562
:1055200041F21073C2F200031B68984708BD08B52A
:1055300041F21473C2F200031B68984708BD08B516
:1055400041F21873C2F200031B68984708BD08B502
:1055500041F20C73C2F200031B68984708BD08B5FE
:1055600041F22C73C2F200031B68984708BD08B5CE
:1055700041F2FC63C2F200031B68984708BD08B5FE
:1055800041F23873C2F200031B68984708BD08B5A2
:1055900041F20473C2F200031B68984708BD08B5C6
:1055A00041F22873C2F200031B68984708BD08B592
:1055B00041F23473C2F200031B68984708BD08B576
:1055C00041F22473C2F200031B68984708BD08B576
:1055D00041F22473C2F200031B68984708BD41F6EC
:1055E0005C23C2F200039B7A2BB141F2DC63C2F26E
:1055F000000305221A60704741F2DC63C2F2000327
:1056000004221A607047704710B521280BD141F66B
:105610007C23C2F200031B681B7803F07F03212B5D
:1056200019D0022010BD2028FBD141F67C23C2F204
:1056300000031B681A7802F07F0245F2C963C0F6C6
:105640000003212A18BF002341F24472C2F2000273
:10565000107023B9E5E745F2AD63C0F6000341F6EB
:105660007C22C2F200021268936100245482204618
:105670009847204610BD41F67C23C2F200031B6808
:105680001B7803F07F03212B07D1022801D10020D2
:1056900070472238C0B20128F9D90220704709B1F9
:1056A000022070470128FBD80846704738B941F6F8
:1056B0007C23C2F200031B6808221A82704740F262
:1056C0000410C2F20000704738B941F67C23C2F2E0
:1056D00000031B6808221A82704740F20410C2F2CD
:1056E0000000704710B540F2BC00C2F2000000F1AB
:1056F0001001FBF793F841F67C23C2F200031B680C
:1057000000249C72FFF72BFE02F03FFFFBF793FD96
:1057100041F2DC63C2F200031C6010BD10B541F61B
:105720007C23C2F200031B6800249C7249F61152CC
:10573000C0F60002D2795A72DC72204602F01DFDDA
:1057400020464FF4007102F029FD2046102102F09E
:1057500033FD2046402102F0ECFD2046802102F07E
:10576000D7FD204602F080FD40F28803C2F200031C
:10577000204693F82C1002F01DFE204602F061FD39
:105780000120214602F00AFD0120C02102F0C0FDE7
:105790000120202102F010FD0120214602F025FD0C
:1057A00002204FF4C06102F0F9FC02204FF4807136
:1057B00002F0AEFD0220214602F017FD022020215A
:1057C00002F0FAFC0320214602F0E8FC032002F07C
:1057D0005BFD03204FF488714FF4B07202F00CFEB1
:1057E00003200121402202F025FE032002F06CFD7F
:1057F000032002F07BFD032002F056FD03204FF44E
:10580000405102F0F2FC0320214602F0D5FC204674
:1058100002F014FB41F2DC63C2F2000301221A60C1
:1058200010BD10B541F24474C2F200042378202B5D
:1058300003D1FBF74AFD0023237010BD40F2D401D1
:10584000C2F2000102F0C2B840F2FC01C2F2000153
:1058500002F0BCB841F67C23C2F200031B68D97881
:10586000042907D840F2DC03C2F2000303EBC101B4
:1058700002F0ACB80020704740F2B803C2F2000357
:1058800004221A7041F23C73C2F2000345F2E56251
:10589000C0F600021A6041F20073C2F2000345F242
:1058A0001D72C0F600021A6041F23073C2F20003AA
:1058B00045F62302C0F600021A6041F24073C2F2BC
:1058C000000345F20762C0F600021A6041F21C7341
:1058D000C2F2000345F20962C0F600021A6041F20A
:1058E0000873C2F2000345F27762C0F600021A6044
:1058F00041F2F863C2F2000345F29F62C0F6000273
:105900001A6041F21073C2F2000345F63D02C0F680
:1059100000021A6041F21473C2F2000345F6490214
:10592000C0F600021A6041F21873C2F2000345F695
:105930005502C0F600021A6041F20C72C2F2000277
:1059400047F6E363C0F60003136041F22C72C2F223
:10595000000245F2DF51C0F60001116041F2FC6225
:10596000C2F20002136041F23872C2F20002136008
:1059700041F20472C2F20002136041F22872C2F2D4
:105980000002136041F23472C2F20002136041F26D
:105990002472C2F20002136041F22073C2F20003CB
:1059A00045F2F952C0F600021A60704770B541F234
:1059B0008932C2F200021078012867D141F2943195
:1059C000C2F200010B680D4633B9137040F68833FC
:1059D000C2F20003187022E0402B41F29034C2F270
:1059E0000004226890B205D940322260403B0B602F
:1059F000402604E09EB21344236000230B6040F66F
:105A00008933C2F200031844C021324602F08CFBF5
:105A10000120314602F0BEFC012002F0FFFB41F202
:105A20008C33C2F200031B6883B340F68833C2F2A2
:105A300000031B78012B29D141F29434C2F20004F7
:105A40002D68402D41F29033C2F200031A6890B2E3
:105A500005D940321A60403D2560402604E0AEB2D0
:105A600015441D600023236040F68933C2F2000311
:105A70001844C021324602F057FB0120314602F0A3
:105A800089FC0120BDE8704002F0C8BB70BD10B5B4
:105A9000032002F07BFB10F0400F4FF003004FF0AB
:105AA00001010CD002F04BFD032002F024FD04465E
:105AB00041F24570C2F200004FF488710BE002F031
:105AC0003EFD032002F029FD044641F24570C2F27A
:105AD00000004FF4B071224602F03DFB41F24570E8
