:020000040800F2
:100000000000012071C600085508000859080008C2
:100010005D0800086108000865080008000000008D
:100020000000000000000000000000006908000857
:100030006D0800080000000071080008750800083D
:10004000B9C60008B9C60008B9C60008B908000852
:10005000B9C60008B9C60008B9C60008B9C6000884
:10006000B9C60008B9C60008B9C60008B9C6000874
:10007000B9C60008B9C60008B9C60008B9C6000864
:10008000B9C60008B9C60008B9C60008B10800081A
:10009000B5080008B9C60008B9C60008B9C6000806
:1000A000B9C60008B9C60008B9C60008B9C6000834
:1000B000B9C60008B9C60008B9C60008B9C6000824
:1000C000B9C60008B9C60008B9C60008B9C6000814
:1000D000B9C60008B9C60008E91F0008B9C600087B
:1000E000B9C60008B9C60008B9C60008B9C60008F4
:1000F000B9C60008B9C60008B9C60008B9C60008E4
:10010000B9C60008B57F0008B9C60008B9C600081E
:10011000B9C60008B9C60008B9C60008B9C60008C3
:10012000B9C60008B9C60008B9C60008B9C60008B3
:1001300000000000000000000000000000000000BF
:1001400000000000000000000000000000000000AF
:10015000000000000000000000000000000000009F
:10016000000000000000000000000000000000008F
:10017000000000000000000000000000000000007F
:10018000000000000000000000000000000000006F
:10019000000000000000000000000000000000005F
:1001A000000000000000000000000000000000004F
:1001B000000000000000000000000000000000003F
:1001C000000000000000000000000000000000002F
:1001D000000000000000000000000000000000001F
:1001E0005FF8E0F12DE9F04700F0E2FB4FF47A70A0
:1001F00000F05EFA4FF4C0550326C4F201054FF437
:100200007A7000F0A5FA202128460AF0B5FA0446D3
:10021000402128460AF0B0FA0346082128461C432C
:10022000E4B20AF0A9FA0443E4B2002C00F0108111
:10023000013EE4D140F26C25C2F200052B68002B90
:1002400000F086800BF078F82B68012B45D02B68E6
:10025000042B00F004812B68032B00F086802B68B0
:1002600040F26824022B00F0C18041F2112141F2DA
:10027000183341F649720120286041F61037C2F266
:100280000004C0F60001C2F20003C0F600022160C3
:100290001A604BF6C15341F60C3641F6083541F66B
:1002A000043041F6F42140F26032C2F20007C0F699
:1002B0000003C2F20006C2F20005C2F20000C2F260
:1002C0000001C2F200023B6033602B60036000203B
:1002D0000B60106023689847FCE740F2682441F205
:1002E000112841F2183E41F6497741F6103C4BF691
:1002F000C15341F60C3641F6083541F6043041F65B
:10030000F42140F260324FF00009C2F20004C0F65E
:100310000008C2F2000EC0F60007C2F2000CC0F6E0
:100320000003C2F20006C2F20005C2F20000C2F2EF
:100330000001C2F20002C4F80080CEF80070CCF8D0
:10034000003033602B6003600B60C2F80090C1E79F
:100350004FF4C0504021C4F201000AF00DFA002809
:1003600000F0C28004232B606CE740F2682441F661
:10037000D54A41F2183841F6497941F6103C49F620
:10038000E12E41F60C364AF2910741F608354BF65C
:10039000C15341F6043041F6F42248F63D21C2F241
:1003A0000004C0F6000AC2F20008C0F60009C2F25A
:1003B000000CC0F6000EC2F20006C0F60007C2F242
:1003C0000005C0F60003C2F20000C2F20002C0F64F
:1003D0000001C4F800A0C8F80090CCF800E0376035
:1003E0002B60036011600AF0ADF873E741F2112849
:1003F00041F2183C41F6497E41F610374BF6C153A5
:1004000041F60C3641F6083541F6043041F6F42148
:1004100040F260324FF00109C2F20004C0F6000859
:10042000C2F2000CC0F6000EC2F20007C0F60003D4
:10043000C2F20006C2F20005C2F20000C2F20001E0
:10044000C2F20002C4F80080CCF800E03B6078E71C
:1004500040F26C250123C2F200052B60EEE640F26B
:10046000682441F6154A41F2183841F6D93941F667
:10047000103C49F2650E41F60C364BF6C15741F679
:10048000083249F2691541F6043149F2E51041F6A6
:10049000F423C2F20004C0F6000AC2F20008C0F65B
:1004A0000009C2F2000CC0F6000EC2F20006C0F64F
:1004B0000007C2F20002C0F60005C2F20001C0F659
:1004C0000000C2F20003C4F800A0C8F80090CCF805
:1004D00000E03760156048F65D020860C0F6000273
:1004E0001A6008F019FDF5E64FF4C0502021C4F25F
:1004F00001000AF041F910B103232B60A2E64FF48A
:10050000C0500821C4F201000AF036F900283FF477
:1005100099AE02232B6095E610B483B04FF480525D
:10052000002318464FF41F04C4F202021168CFF6EC
:10053000FF0341F00101116051680B4053601368E3
:1005400023F0847323F480331360136823F480232F
:100550001360536823F4FE0353609460009001908D
:10056000136843F48033136003E0009BB3F5A06F7E
:1005700009D0136803F400330193009B0133009307
:10058000019B002BF1D04FF48053C4F202031B688F
:1005900013F4003318BF01230193019B012B09D0F1
:1005A0004FF46D434FF00062CEF200039A6003B047
:1005B00010BC70474FF400524FF48053C4F2020253
:1005C0001168C4F2020341F010011160116821F0BA
:1005D00007011160116811605A685A605A685A60C0
:1005E0005A685A605A6822F47C125A605A6842F477
:1005F00030225A601A6842F080721A601A689201BA
:10060000FCD54FF48052596821F0030159605968B4
:1006100041F002015960C4F20202536803F00C0376
:10062000082BFAD1BCE700BF4FF48052C4F202029B
:10063000536803F00C03042B26D0082B16D04FF47C
:100640009053C0F27A034FF480514FF2AC2040F245
:100650000002C4F202014968C0F60000C1F30311B0
:10066000415CC2F20002CB4013607047536851688E
:10067000C3F383430233C9030BD44FF41062C0F2B7
:100680003D0202FB03F3DEE74FF4D853C0F2B70399
:10069000D9E75268920347BF48F68052C0F25B0226
:1006A0004FF4D852C0F2B70202FB03F3CBE700BF0E
:1006B00070B586B00190FFF7B7FF042009F0F8FF8E
:1006C00040F20004019AC2F200042368B3FBF2F383
:1006D000013BB3F1807F39D24FF46D4C4FF0E021F4
:1006E0004FF0F00E002507264FF4805203A8CEF2FB
:1006F000000C4B618CF823E08D610E61C4F20202A4
:10070000D36943F00803D3610AF0D2FB4DF683624C
:100710004FF440604FF6FF7304932368C4F21B321A
:10072000A2FB032303A9C4F20000ADF80E509B0CFA
:10073000013BADF80C300AF045FB4FF4406001215D
:10074000C4F200000AF0BEFB06B070BDFEE700BFB9
:1007500082B040F270220190019BC2F2000213604D
:100760001368002BFCD102B0704700BFF8B51E46DD
:100770006BB1154600249F1E01F0CAFB0028FBD078
:1007800005F8010B0D2804D00134A642F4D13046FF
:10079000F8BDA742F8D30A23A01C2B70F8BD00BFF8
:1007A00070B51E469BB1013B541ED51803E001F005
:1007B0009DFBAC420BD014F8010F0A28F7D10D2095
:1007C00001F094FB207801F091FBAC42F3D130466C
:1007D00070BD00BF704700BF002070470020704709
:1007E0004FF4005300205360704700BF08B540F23B
:1007F0007423C2F20003186828B101446A4691428A
:100800000BD8196008BD45F67862C2F200021046A6
:100810001A6001446A469142F3D90CF09BFF0346EB
:100820000C224FF0FF301A6008BD00BF0120704756
:100830004FF0FF30704700BFFEE700BF08B50CF077
:1008400089FF034616224FF0FF301A6008BD00BF33
:1008500001207047704700BFFEE700BFFEE700BF02
:10086000FEE700BFFEE700BF704700BF704700BF54
:10087000704700BF08B540F27023C2F200031A6847
:1008800012B11A68013A1A6000F092F940F2882217
:10089000012140F26C23C2F200021160C2F2000397
:1008A0001B68022B00D008BDBDE8084000F07ABCF0
:1008B0000BF084BB07F0CCBF704700BF70B582B0AF
:1008C00001217D200AF094F84FF6FF734FF4006089
:1008D000C0F2030301A9C4F20100019309F0F4FE80
:1008E0004FF4406501A9C4F20105284609F0ECFE69
:1008F00001A94FF48050C4F2010009F0E5FE01A9FE
:100900004FF4A050C4F2010009F0DEFE4FF4C054D1
:1009100001A9C4F20104204609F0D6FE00217D2081
:100920000AF066F8012148200AF062F8032301A9C1
:10093000C1F203030193204609F0C6FE4FF480760E
:1009400001A92846ADF8046009F0BEFE31462846EC
:1009500009F01AFF0121204609F016FF0221204666
:1009600009F012FF02B070BD00B583B00121402034
:100970000AF03EF878234FF4C050C2F6030301A9F1
:10098000C4F20100019309F09FFE012104200AF046
:100990002FF84FF480734FF4006001A9C0F20343B5
:1009A000C4F20100019309F08FFE03B05DF804FB6F
:1009B00008B5FFF739FE00214FF0006009F06CFE2A
:1009C0004FF46D424FF6FF01CEF20002D3680B40A8
:1009D00043F0BF6343F40033D360FFF76FFFFFF7CB
:1009E000C3FF00F07DF900F0CFFABDE8084000F049
:1009F00099B900BF00B587B0002009F053FF00206F
:100A000009F04AFF4FF480114FF4803009F038FFAD
:100A1000012009F041FF39200AF00CF80028FAD033
:100A20004FF400530220C4F202031A6842F010028D
:100A30001A601A6822F007021A601A6802431A60E4
:100A400009F030FF09F038FF0828FBD101A809F0B0
:100A500065FF07B05DF804FB00B583B001212020DD
:100A600009F0C6FF08234FF4A05001A9C1F20343C7
:100A7000C4F20100019309F027FE03B05DF804FB06
:100A800008B5002009F020FF01214FF40000BDE867
:100A9000084009F0BBBF00BF30B14FF4A05008219F
:100AA000C4F2010009F070BE4FF4A0500821C4F256
:100AB000010009F067BE00BF45F6D443C2F200034F
:100AC0009B7A33B141F6F0230522C2F200031A608B
:100AD000704741F6F0230122C2F200031A6070470A
:100AE00010B54FF4704CC1F6FF7CDCF8E837DCF849
:100AF000EC27DCF8F0471B1900D110BD002400F1F1
:100B0000100E4FEA137CB3F1204F34BF0CF1300CC0
:100B10000CF1370C80F800C0447002301B017045A6
:100B2000EFD1002301F1010E9C46100FB2F1204FCE
:100B300034BF3030373001F813000EF813C00133E2
:100B40001201042BF1D110BD40F28823C2F2000340
:100B50001A68012A00D0704700221A600AF0E4BB2C
:100B6000002340F28C201946C2F2000030F8132016
:100B7000053392B21144322BF8D14CF6CD4240F2FB
:100B8000040340F6A12CCCF6CC42A2FB0120C2F219
:100B90000003B3F90020C0F3CB000CFB00F0511CA4
:100BA0000FBFC012000B00EB620000B2188070474C
:100BB00038B54FF400604FF48071C4F2010009F0C1
:100BC000DBFDD8B140F2842240F6B831C2F2000217
:100BD0001368013313608B426BD840F20804C2F2F1
:100BE00000042568B5B940F27C23C2F200031A68FC
:100BF0000132B2F57A7F17D81A6038BD40F28423EB
:100C0000C2F20003186040F20804C2F20004256832
:100C1000002DE8D0FFF7A4FF40F28023013D2560BE
:100C2000C2F200031860DEE740F280240021C2F225
:100C300000042568196005EB4505FFF791FF28447E
:100C400003460028B8BFC31C40F6A3729B10236064
:100C5000904228DD40F20C03B0F5615F1FDA0221FB
:100C600043F25742C2F20003196090421BDC40F28B
:100C70007822C2F20002136801331360142BBCD92E
:100C80000AF052FB00F0B2FA4FF480504FF40051DA
:100C9000C4F2010009F076FD0AF046FBFCE70122F0
:100CA000C2F200031A6040F278230022C2F200036D
:100CB000A2E70AF039FB00F099FA4FF440604FF4D4
:100CC0008071C4F2010009F05FFD4FF480504FF4D1
:100CD0000051C4F2010009F055FD0AF025FBFCE7C4
:100CE00000B583B00121102009F082FE4FF40053BB
:100CF0004FF4805001A9C1F20103C4F20100019335
:100D000009F0E2FC45F255500AF0FCFA04200AF022
:100D1000FFFA40F635400AF001FB0AF005FB03B08C
:100D20005DF804FBF8B501214FF4047009F060FE92
:100D30000121084609F04EFE40F2F0210F234FF446
:100D40008050C2F20001C0F20303C4F201000B6044
:100D500009F0BAFC01214FF4007009F049FE0820A7
:100D6000C4F2020009F042FF40F2F42142F24C4288
:100D700040F28C23082000244FF0320E4FF0800CFC
:100D80004FF480774FF480662025C2F20001C1F84D
:100D90000CE0C1F814C08F61CE610D62C4F2010293
:100DA000C2F20003C4F2020081E81C000C614C6234
:100DB0008C6209F0C5FF08200121C4F2020009F08D
:100DC000DDFF40F220314FF4105040F201124FF499
:100DD00060230525C2F20001C4F201000C608A8084
:100DE0008B60CC600D7409F043FE012009F0F0FE29
:100DF0004FF41050072301220921C4F2010009F029
:100E000091FE2B464FF4105002221021C4F2010033
:100E100009F088FE4FF41050072303220A21C4F280
:100E2000010009F07FFE4FF41050072304220C212B
:100E3000C4F2010009F076FE4FF4105007230D2193
:100E40002A46C4F2010009F06DFE4FF41050012152
:100E5000C4F2010009F0B2FE4FF410500121C4F2B7
:100E6000010009F02DFE012009F0B2FE4FF41050F0
:100E7000C4F2010009F038FE4FF41050C4F2010032
:100E800009F038FE0028F7D14FF41050C4F20100E9
:100E900009F034FE4FF41050C4F2010009F034FEA2
:100EA0000028F7D14FF410500121C4F2010009F0DD
:100EB00011FE4FF410500121C4F20100BDE8F840CA
:100EC00009F026BE10B582B004460AF017F80246B3
:100ED00000236846CDE900230BF0BCFDA4468646FE
:100EE000436903F26C734361BEE80F00ACE80F0086
:100EF000BEE80F00ACE80F00DEF800302046CCF86A
:100F0000003002B010BD00BF10B5044601200AF049
:100F1000F3F90AF031F820460AF004F80AF02CF848
:100F20000020BDE810400AF0E7B900BF84B010B55A
:100F30008AB00DF1300E8EE80F000DF1040CBEE802
:100F40000F00ACE80F00BEE80F00ACE80F00DEF8C1
:100F5000002001A8CCF80020A1F26C7306930BF0DE
:100F600057FF044601200AF0C7F90AF005F82046A9
:100F700009F0D8FF0AF000F800200AB0BDE81040E0
:100F800004B00AF0B9B900BF10B586B014200AF059
:100F9000A3F94AF2A5540121A0424FF0C05057D006
:100FA00009F034FD01200AF0A7F9214614200AF0C7
:100FB00083F90AF077F9012009F08CFC412009F04F
:100FC00039FD0028FAD04FF4807009F099FC012017
:100FD00009F09EFC09F0D0FF0121084609F080FFCE
:100FE00009F0CAFF47F6FF7009F0B0FF09F0C4FF2F
:100FF00040F2383C062040F2D9712D230F221724ED
:10100000C2F2000CCCF80840CCE90401CCF80C206A
:10101000E6466C46CCF804304EF8103BBEE80F00B4
:101020000FC4DEF8003023609CE80F00FFF77EFF5E
:1010300009F0A2FF01200AF05FF94AF2A55114203D
:101040000AF03AF9002006B0BDE810400AF054B9A1
:1010500009F0DCFC09F098FF0121084609F040FF87
:1010600006B0BDE8104009F087BF00BF70B541F27F
:10107000447440F268350026C2F20004C2F2000552
:101080002368984710F0FF03FAD066B1701CAB5587
:1010900080B20A2B13D0B0F5806F26D3236898470F
:1010A00010F0FF030CD0242BF8D122682B7090474E
:1010B00010F0FF000BD068700A280FD1022070BD1D
:1010C0002368984710F0FF03EDD11E46D8E7236848
:1010D0009847012610F0FF03D8D1D1E7236898473D
:1010E000022610F0FF03D1D1CAE70646C8E700BFC9
:1010F00010B5A0B00B46024691F9001061BB4FF24B
:10110000BC216C466846C0F6000101F0BDFAFFF74D
:101110001BFD9DF90030242B1CD19DF901300022CC
:101120002A2B0AD00DF101015A4011F9013FD2B228
:101130002A2B02D020A88142F6D14FF2C8202146A6
:10114000C0F6000001F08CFA00F06AFF0028FBD026
:1011500020B010BD0022F0E74FF2C0216C46684677
:10116000C0F6000101F090FAD1E700BF10B540F6DB
:101170000834C2F20004204604F0B6FFE378A078F9
:1011800062791B04A17943EA405343EAC223E2791E
:10119000208843EA411343EA5203A0F2BC7043EAB9
:1011A000406010BD10B540F25C3441F65832C2F2D6
:1011B00000042368591C2160934208D940F260332F
:1011C000C2F200031B68012B02D00023236010BD74
:1011D0004FF258414FF2D020C0F60001C0F6000097
:1011E000FFF786FF00232360F1E700BF40F264337E
:1011F000C2F200031B6853B110B540F26874C2F22A
:101200000004204604F068FD0028FAD110BD7047A4
:101210002DE9F04F8FB0002540F2603441F24C735D
:1012200041F6ED6241F2447141F61170ADF8325071
:10123000C2F200042468C2F20003C0F60002C2F247
:101240000001C0F6000008601A60012C00F08282E4
:101250004FF41651022000F0BFFDFFF775FC4FF26E
:10126000584140F2B8700022C0F60001C2F20000FE
:1012700004F08EF900F0BEFE40F2643840F25C37B4
:101280004FF4C05648F21F590024C2F20008C2F2BF
:101290000007C4F20106C5F2EB1900230221304613
:1012A000C8F8003009F06EFAFFF74EFC30BFFFF7C8
:1012B0004BFCFFF7DBFE0546FFF746FC002DF8D0A0
:1012C0000221304609F060FA0121304609F05AFA4D
:1012D0004FF2DC2240F26831C0F60002C2F2000197
:1012E00004E011F8010B984240F0718112F8013BC3
:1012F000002BF6D140F26834C2F2000402E02C2B3D
:1013000000F0608114F8013B202BF8D80024012163
:10131000304609F039FA00233B60002CC6D0237810
:10132000412BC3D1012402213046C8F8004009F006
:101330002BFA2146304609F027FA40F26832C2F211
:10134000000212F8013B202B40F2A6822C2BF8D190
:1013500011783039C9B2092900F2E5815378303B60
:10136000DBB2092B00F2DF8101EB810103EB4103CA
:10137000D9B240F238359378303BDBB2C2F2000587
:10138000A960092B00F2B681D1783039C9B2092998
:1013900000F2B08103EB830301EB4301C9B213797F
:1013A0006960303BDBB2092B00F2A2815279303AFE
:1013B000D2B2092A00F29C8103EB830302EB4303C0
:1013C000DBB240F2683409222B60C2F2000414F848
:1013D000013B202B40F260822C2BF8D1013A12F015
:1013E000FF02F4D121783039C9B2092900F29D8178
:1013F0006378303BDBB2092B00F2978101EB81016E
:1014000003EB4103DBB2A278EB60303AD2B2092A97
:1014100000F27481E378303BDBB2092B00F26E817D
:1014200002EB820203EB4202D2B2013A23792A6133
:10143000303BDBB2092B00F25F816279A2F130010F
:10144000092900F2598103EB8303343202EB430391
:10145000DBB240F238306B61C2F200000BF0D8FC16
:1014600047F69063C01841F10001FFF74DFD02A857
:10147000FFF728FD40F2383E4FF0640A0DF1080CEA
:10148000C2F2000EBCE80F00AEE80F00BCE80F008F
:10149000DCF800C0AEE80F004FF2A43140F2683033
:1014A000EB686A6900932B69CEF800C089FB025C87
:1014B000D5170133C5EB6C150AFB1522C0F60001E8
:1014C000C2F2000001F0E0F840F2687A40F26831C0
:1014D0001222C2F2000A5046C2F2000104F084F85F
:1014E000002840F0F7805046DAE9042304F008FCB5
:1014F000002840F0EF80504604F0F4FA002840F055
:10150000E98040F2683BC2F2000BFFF7AFFD0546F1
:1015100000283FF4C2AEFFF717FB4FF2F42240F26F
:101520006831C0F60002C2F2000103E011F8010BBD
:1015300098425ED112F8013B002BF7D140F268349B
:101540000622C2F2000414F8013B202B40F2A481D1
:101550002C2BF8D1013A12F0FF02F4D12378302B72
:1015600010D00221304609F00DF92A46594650465E
:101570000DAB04F0A7F9002840F0AC800D9B9D4214
:1015800040F0A880BDF8323001339BB2ADF8323064
:101590005A2B0CD90221304609F0F4F800235046AA
:1015A000ADF8323004F09EFA002840F0938002211A
:1015B000304609F0E9F800233B6030BFA5E72C2B4B
:1015C0003FF4A5AE14F8013B202BF8D89EE64FF26D
:1015D000E42240F26831C0F60002C2F2000103E0EA
:1015E00011F8010B984216D112F8013B002BF7D1EC
:1015F00080E64FF2FC2240F26831C0F60002C2F2EF
:10160000000103E011F8010B984217D112F8013BD9
:10161000002BF7D192E74FF2EC2240F26831C0F68E
:101620000002C2F2000104E011F8010B98427FF4BD
:1016300072AE12F8013B002BF6D15BE64FF204329A
:1016400040F26831C0F60002C2F2000103E011F876
:10165000010B984204D112F8013B002BF7D16DE742
:101660004FF2DC2240F26831C0F60002C2F2000103
:1016700003E011F8010B984243D112F8013B002B13
:10168000F7D140F26834C2F2000414F8013B202B79
:1016900040F202812C2BF8D114F8013B202B40F2B0
:1016A000FB802C2BF8D12378412B7FF46BAF0221E8
:1016B000304609F067F840F2683140F268702A4617
:1016C0000DABC2F20001C2F2000004F0FBF80028EA
:1016D0003FF454AF40F26875C2F200050221304673
:1016E00009F050F8284604F0F7FA0028F6D1D4E5BE
:1016F000002366E6002152E66423AAE64FF0FF329B
:1017000094E64FF2E42240F26831C0F60002C2F2E1
:10171000000103E011F8010B984208D112F8013BD7
:10172000002BF7D1ADE7002123E613466BE64FF21D
:10173000EC2240F26831C0F60002C2F2000104E07F
:1017400011F8010B98427FF41DAF12F8013B002BFA
:10175000F6D196E74FF4C0500221C4F2010009F01F
:1017600011F821464FF4C050C4F2010009F00AF804
:101770004FF41641022000F02FFB4FF20C314FF2D4
:101780001430C0F60001C0F60000FFF7B1FC642081
:10179000FEF7DEFF4FF4E131022000F01DFB4FF2B7
:1017A0000C314FF21430C0F60001C0F60000FFF714
:1017B0009FFC6420FEF7CCFF4FF41651022000F08E
:1017C0000BFB4FF220314FF22430C0F60001C0F67F
:1017D0000000FFF78DFC4FF220314FF23030C0F6A1
:1017E0000001C0F60000FFF783FC4FF23C314FF2DE
:1017F0004030C0F60001C0F60000FFF779FC4FF260
:1018000094314FF24C30C0F60001C0F60000FFF7F3
:101810006FFC4FF294314FF25830C0F60001C0F621
:101820000000FFF765FC4FF294314FF26430C0F6D0
:101830000001C0F60000FFF75BFC4FF270314FF281
:101840007430C0F60001C0F60000FFF751FC4FF203
:1018500020314FF28030C0F60001C0F60000FFF7E3
:1018600047FC4FF28C314FF29830C0F60001C0F6C1
:101870000000FFF73DFC4FF4C0500221C4F201000C
:1018800008F082FF21464FF4C050C4F2010008F076
:101890007BFFFFF759F9E2E400231B78FFDE00BF6E
:1018A0004FF48840012240F22551C4F2000009F0B3
:1018B000B1BC00BF30B583B041F2347400234FF4A3
:1018C00016554FF4402201210520C2F20004A381E5
:1018D00025606360A26009F08BF801214FF40030AD
:1018E00009F094F84FF400650423C4F20105C1F631
:1018F000030301A90193284608F0E6FE082301A985
:10190000C4F603032846019308F0DEFE4FF4884531
:101910002146C4F20005284609F006FC01212846AC
:1019200009F06AFC03B030BD30B583B040F2F80373
:10193000C2F200031A79012A00F08180022A05D040
:1019400032B1FFF7B7FF002003B030BD4FF40052B3
:1019500041F2347C5979C2F2000CACF8062001291E
:101960007DD002296ED00029EBD19A79ACF808100D
:10197000072A01D0082AE4D1002100240C221B6888
:10198000ACF80410CCF8003001210520ACF80C4074
:10199000ACF80A2009F02CF801214FF4003009F0CE
:1019A00035F804234FF40060C1F6030301A9C4F223
:1019B0000100019308F088FE08234FF4006001A99C
:1019C000C4F60303C4F20100019308F07DFE224631
:1019D0004FF4884040F22551C4F2000009F01AFC8F
:1019E00040F6163E40F6143C40F6123240F61133F3
:1019F00040F6103541F234714FF48840C2F2000EC7
:101A0000C2F2000CC2F20002C2F20003C2F20005F0
:101A10002C70C2F20001C4F20000AEF80040ACF835
:101A2000004014801C7009F07FFB4FF488400121B6
:101A3000C4F2000009F0E0FB012003B030BD4FF418
:101A4000405285E74FF4C0619A79ACF80810072A34
:101A500092D0082A7FF475AF4FF480518DE74FF490
:101A60008061F1E7A1B170B505464FF4884446188E
:101A7000C4F20004204615F8011B09F0E5FB8021A3
:101A8000204609F0E9FB0028F9D0B542F2D170BD3B
:101A9000704700BF38B540F6113340F610324FF0B2
:101AA000000CC2F200031978C2F2000282F800C0F2
:101AB000012957D040F6143140F61630C2F2000129
:101AC0000A88C2F200000488B2F5006F25D2A24253
:101AD0003ED040F61830C2F20000104494BFA41A61
:101AE000C2F50064A4B240F61235C2F20005402CE3
:101AF00021D9403C2C8040320A80402401252246D6
:101B0000A0211D700AF09EFA214628460AF0FCFB2F
:101B10002846BDE838400AF023BBA1F800C0BCB19C
:101B200040F618306246C2F2000040F61235C2F2AA
:101B30000005402CDDD822440A804FF000022A80A4
:101B4000DCD141F668320121C2F200021170D5E702
:101B500041F668310024C2F2000108781C70C5B259
:101B6000012800D038BD40F6183022460C70A02164
:101B7000C2F20000C6E700BF08B540F2F803C2F2A7
:101B800000039B794FF48840C4F20000072B13D068
:101B900009F05EFB40F6163240F61831C2F2000240
:101BA0001388C2F20001C85401339BB2B3F5006F31
:101BB00028BF0023138008BD09F04AFB40F6163207
:101BC00040F6183100F07F00C2F200021388C2F222
:101BD0000001C854E8E700BF08B54FF4884040F260
:101BE0002551C4F2000009F03DFB40B94FF4884094
:101BF0000821C4F2000009F02FFB18B908BDFFF757
:101C0000BBFFF3E74FF48840C4F20000BDE8084092
:101C100009F01EBB08B5FEF7EDFE4FF47A70FEF733
:101C200047FD01F0A7F84FF25C4141F25070C0F659
:101C30000001C2F2000001F0C5F941F25070C2F299
:101C4000000001F0CDF901F063F800234FF2B83243
:101C500001201946C0F6000200F0C4FF41F25C7199
:101C60004FF2CC3200230120C2F200010968C0F615
:101C70000002C97900F0B6FFFEF7EEFE0020FEF785
:101C80000BFFFEF7FDFE4FF461432022CEF200036E
:101C900083F8262340225A60302283F814234FF41D
:101CA00080121A600AF08EF80120FEF7F5FE41F668
:101CB000F024C2F200042368052B04D0FEF744FF91
:101CC0002368052BFAD130BFFEF73EFF30BFFEF789
:101CD0003BFFF8E708B5FEF78DFE4FF47A70FEF78C
:101CE000E7FC01F047F84FF25C4141F25070C0F65A
:101CF0000001C2F2000001F065F941F25070C2F239
:101D0000000001F06DF901F003F841F25C754FF24B
:101D1000CC3200230120C2F200052968C0F600027F
:101D2000C97900F05FFF002007F072FAC0BB0446DB
:101D30004FF2E432034601460120C0F6000200F0F3
:101D400051FFFEF789FE2046FEF7A6FEFEF798FE3D
:101D50004FF461432022CEF2000383F813234FF4A3
:101D600000221A60302283F814234FF480121A6084
:101D70000AF028F80120FEF78FFE41F6F024C2F2A7
:101D800000042368052B04D0FEF7DEFE2368052B34
:101D9000FAD130BFFEF7D8FE30BFFEF7D5FEF8E728
:101DA0004FF2F83229680023C97901208140C0F63A
:101DB000000200F017FF4FF21042002301202968B3
:101DC000C0F60002C97901EB410100F00BFF30BF02
:101DD000FEF7BAFEFBE700BFF0B583B00025019522
:101DE000022801D003B0F0BD0C4641F230764FF42A
:101DF000884301210520C2F20006C4F200033360CB
:101E000008F0F6FD01214FF4003008F0FFFD042337
:101E10004FF40060C1F60303C4F20100019301A96D
:101E200008F052FC08234FF4006001A9C4F6030334
:101E3000C4F20100019308F047FC41F23477C2F28A
:101E40000007384609F0CEF939463C60306809F0A1
:101E50006BF94FF461432022CEF2000383F826236E
:101E600040225A6041F22C7441F21C33012240F2AC
:101E700025513068C2F20004C2F20003C3F80454D2
:101E80002360C3F80054C3F80C54C3F8085409F095
:101E9000C1F90121306809F0AFF903B0F0BD00BF0E
:101EA00010B5D0F80834D0F80C240133C3F308037C
:101EB000934214BF0124002415D0D0F8083472B620
:101EC000C2180133C3F3080382F80012C0F80834C3
:101ED00062B641F23073012240F22771C2F2000370
:101EE000186809F097F9204610BD00BF41F22C7325
:101EF0000146C2F200031868D0F80834D0F80C2468
:101F00000133C3F308039342F6D0FFF7C9BF00BF04
:101F100041F22C73C2F200031B68D3F80014D3F80B
:101F2000042491420DD072B6D3F80424985CD3F8FF
:101F30000424C0B20132C2F30802C3F8042462B61A
:101F400070470020704700BFF8B541F2307440F28E
:101F50002551C2F20004206809F084F9F8B940F272
:101F60002771206809F07EF9C0B141F21C33206866
:101F7000C2F20003D3F80C24D3F80814914225D000
:101F8000D3F80C241A4492F80022D2B28280D3F8FB
:101F90000C240132C2F30802C3F80C24F8BD41F24C
:101FA0001C352068C2F20005D5F80064D5F8047429
:101FB0000136C6F3080609F04BF9C0B2BE420CD098
:101FC000D5F80034E854C5F80064C8E7002240F2B0
:101FD0002771BDE8F84009F01DB9002240F22551F3
:101FE000206809F017F9BAE741F21833C2F200038A
:101FF0001B68184730B441F22C7041F23073002551
:10200000012240F22551C2F200000468C2F200032E
:10201000C4F804541868C4F8005430BC09F0FAB885
:1020200041F22C73C2F200031B68D3F80C24D3F8DE
:102030000804801AB0FA80F0400970472DE9F04F8B
:1020400091B000920D4615F9014B002C67D041F27A
:1020500048734FF2584EC2F200030693C0F6000ECA
:1020600006460B46CDF81CE0252C40F0788193F90C
:102070000110302900F09F81202201922D2900F0CB
:10208000A081002202332A2940F07181009951F881
:10209000040B0028BCBF022240428346009113F982
:1020A000011B2E2900F07B814FF0FF356C2939D0C0
:1020B000A9B3A1F15800202822D8DFE810F0510080
:1020C0002100210021002100210021002100210008
:1020D00021006000DF003C002100210021002100E0
:1020E00021002100210021002100210041012100C7
:1020F00021002100EE0021003C00210021005100C0
:102100000A2900F07282002E00F0618201930846D5
:10211000B047019B1D4615F9014B002CA4D111B00D
:10212000BDE8F08F93F900106C2900F0648142F053
:1021300004020133BCE7170700F19781009C201DC2
:10214000550740F13282642940F08882246800906B
:10215000E517002DC0F29781002002900A2719E0B0
:10216000150740F17E810098073020F00700456890
:1021700000240294102750F8084B00900AE0100742
:1021800000F16381022700980430009C24680090CD
:102190000025029578290DF1200A0CBF272107217F
:1021A000D0464FF000090392CDF810B005960E46C8
:1021B0009B4603E0202800F0B48181463A46002384
:1021C000204629460AF07AFAA4462B4604460D46D4
:1021D00051B20929C8BF9219D2B2303209F10100B7
:1021E00008F8012BBC4573F10003E3D2039A059E66
:1021F0005B46DDF810B0029931B10DEB000109F139
:1022000002002D2481F82040920700F18481584576
:1022100080F08181002E00F099810546019C0746DF
:1022200098462046B04701355D45FAD138464346C9
:102230000AEB0004069F14F9011D08460A2900F064
:102240006681002E40F04F8138460268002A00F077
:10225000EC80117001320260A245ECD16C1CAB45E0
:102260007FF658AF002E00F064811D462020B04755
:10227000A34504F10104F9D12B464BE7009C14F966
:10228000045B0A2D00F0B981002E00F092810093CA
:102290002846B047009B00943CE703930292009CC1
:1022A00054F8047B079B002F08BF1F4638460BF0ED
:1022B000A0FA8046002D029A039B02DBA84228BFA9
:1022C000A846920740F1EC8097F90090B9F1000F11
:1022D00026D041F2487A3D44C2F2000A2A464D46D1
:1022E000009434461E46914604E02846A04717F95C
:1022F000015F95B1B94510D00A2D00F00E81002C78
:10230000F3D1DAF800205146002AF0D015700132DE
:102310000A6017F9015F002DECD133462646009C78
:1023200008F10105C345B6D9002E00F02C811F46E7
:102330002020B047AB4505F10105F9D13B46AAE79E
:10234000140740F1A9800098073020F00700456885
:1023500000240294082750F8084B00901AE70A2C32
:102360005ED0002E4DD02046B0472B46D2E6A1F1DC
:102370003000C0B24FF0000B09283FF692AE0BEBD5
:102380008B0B01EB4B0B13F9011BABF1300BA1F1E4
:102390003000C0B20928F2D92E297FF485AE93F916
:1023A00000102A2912D1009893F90110023350F835
:1023B000045B00907AE60191002293F90210033346
:1023C00061E6022293F9021003335CE60133A1F1C6
:1023D0003000C0B2002509283FF668AE05EB850540
:1023E00001EB450513F9011B303DA1F13000C0B2EE
:1023F0000928F3D95AE642F00C0293F9011002338E
:1024000056E641F2487CC2F2000CDCF80030002BAA
:102410003FF432AF1C700133CCF800302B4679E624
:10242000002E53D00D20B0479DE7A2453FF416AFD4
:1024300014F9011D0A297FF408AF0268002AF4D0BC
:102440000D2102F8011B0A2103E70098073020F054
:102450000700456800240294022750F8084B0090BA
:1024600098E61027009804308FE60098073020F097
:102470000700456850F8084B009064297FF46CAE63
:10248000002DBFF669AE644265EB450542F00102DE
:10249000012002900A277DE608270098043074E6A0
:1024A000D8450CD2002E00F0AE80DDF804909A469C
:1024B0004846B04708F10108C345F9D1534697F99A
:1024C0000090B9F1000F7FF404AFE4E641F2487CDC
:1024D000C2F2000CDCF80030002B3FF4CDAE0D2230
:1024E00003F8012B96E71F46B047A2450DD014F91B
:1024F000010D0A28F8D13B4601930D20B0470A2070
:10250000019B1F46B047A245F1D13B46A6E6002EEF
:10251000F2D1384691E705468AE644B30D20A0473C
:10252000E3E6039A059E5B46DDF810B04FF01F0905
:1025300061E62025069800E00C460268611C571CE5
:102540000AB107601570A345F6D1E3E541F2487C76
:102550000546C2F2000CDCF80020511C01351AB10E
:10256000CCF8001001991170AB45F4D160E641F24E
:102570004871C2F200010A68002A3FF4B8AE0D208B
:1025800002F8010BC2E641F2487C2027C2F2000C9F
:1025900000E00D46DCF80020691C501C12B1CCF89C
:1025A00000001770AB45F4D175E6642956D1009C44
:1025B000CCE541F2487CC2F2000CDCF80020002A95
:1025C0003FF469AE15700132CCF8002063E641F2A9
:1025D000487CC2F2000CDCF80020002A3FF49AADDF
:1025E00011700132CCF8002094E5EEB10293019114
:1025F0000D20B0470199029B88E516B300930D208A
:10260000B047009B43E641F2487CC2F2000CDCF884
:102610000020511C08F101081AB1CCF800100199F2
:102620001170C345F3D14AE741F2487CC2F2000C75
:10263000DCF80020002A3FF46DAD0D2002F8010BFC
:10264000CEE741F2487CC2F2000CDCF80020002A00
:102650003FF421AE0D2102F8011BB3E70A2794E5F0
:102660000FB400B583B004AA41F24C7352F8041BB6
:10267000C2F2000318680192FFF7E0FC03B05DF8B6
:1026800004EB04B0704700BF0EB410B583B005AAC8
:1026900041F248740346002052F8041BC2F20004C1
:1026A00023600192FFF7CAFC0023226823601370A5
:1026B00003B0BDE8104003B0704700BF70B596B0DE
:1026C00001214FF4807008F085F9012140F2E110FA
:1026D00008F08EF94FF4FF434FF4C050C1F60303E6
:1026E00007A9C4F20100079307F0EEFF4FF4A054CE
:1026F000102507A9C4F201042046ADF81C5007F0CC
:10270000E3FF202307A9ADF81C30204607F0DCFFCB
:102710004FF4006307A9ADF81C30204607F0D4FF42
:10272000402307A9ADF81C308DF81F50204607F054
:10273000CBFF802307A92046ADF81C3007F0C4FF6B
:102740004FF440644FF4807607A9C4F20104ADF859
:102750001C60204607F0B8FF3146204608F012F80A
:102760000023022105220A954FF4805507A8CDE9E0
:102770000011CDE90212CDE9042204240693089346
:1027800009930B930C930D930E930F931193129344
:102790001393CDF850D0CDF854D01095079407F08E
:1027A000F5FF0121204608F057F816B070BD00BFB4
:1027B0002DE9F04F85B0154641F25872C2F2000281
:1027C00001900E461F461368009293F80A902878ED
:1027D0006B7840EA032040BA80B200F013FC009A04
:1027E0001368DB7A002B66D04FEAD90409F0070999
:1027F00080464FF0000A019B03EBC40B1FFA8BF3DA
:10280000039302925CB3DDF804B04546A044009403
:102810005C46C3464FF0000804E008F10108B8F137
:10282000080F14D0297801FA08F10A06F5D504EB4F
:10283000080189B233463246084600F03BFA384672
:1028400000F02EFA08F10108B8F1080FEAD104F1FE
:102850000802013594B25D45DCD1009CA846B9F16F
:10286000000F1DD00025DDF80CB003E00135ABB240
:10287000994513D998F80010A9400B06F6D50BEB33
:10288000050189B233463246084600F013FA38464D
:1028900000F006FA0135ABB29945EBD808F1010812
:1028A000029B1B680AF1010ADA7A01361FFA8AF3E1
:1028B000B6B29A42A6D805B0BDE8F08F2DE9F04F28
:1028C00085B041F25C7425460446C2F2000510460C
:1028D00002940E461F462B6893F806904FEAD903E0
:1028E000019300F083FB2B68DB79002B6AD009F0A1
:1028F000070980464FF0000A029B019A03EBC203CE
:102900009CB203944C46019B6BB3DDF80890C34620
:10291000984400944C46C1464FF0000804E008F18A
:102920000108B8F1080F15D09BF8001001FA08F162
:102930000A06F4D504EB080189B23346324608464C
:1029400000F0B8F9384600F0ABF908F10108B8F129
:10295000080FE9D104F108020BF1010B94B2CB4549
:10296000DAD1009CD8461CB34FF0000BDDF80C9078
:1029700005E00BF1010B1FFA8BF39C4216D998F876
:10298000001001FA0BF10B06F3D509EB0B0189B22C
:1029900033463246084600F08DF9384600F080F99B
:1029A0000BF1010B1FFA8BF39C42E8D808F10108E8
:1029B0002B680AF1010ADA7901361FFA8AF3B6B2F6
:1029C0009A42A0D805B0BDE8F08F00BF2DE9F04FC6
:1029D00083B0BDF8306041F2587B81460C461D46FD
:1029E000C2F2000BDBF8003093F80A804FEAD803FC
:1029F00001931078537840EA032040BA80B200F087
:102A000001FB0746DBF800102246CB7A897A013BAE
:102A100023440139494448469BB289B200F04AF93F
:102A2000DBF80030DB7A002B48D008F007084FF0C5
:102A30000009019B002B35D03C46019B1F444FF001
:102A4000000A227802FA0AF212F0800F0CBF304618
:102A5000284600F025F90AF1010ABAF1080FF0D171
:102A60000134A742EBD1B8F1000F2AD000243B7803
:102A7000A34013F0800F0CBF3046284600F010F939
:102A80000134A3B29845F2D8DBF8003009F101090E
:102A9000DA7A1FFA89F301379A420FD9019B002B8A
:102AA000CAD1E3E7B8F1000FE0D1DBF8003009F15B
:102AB0000109DA7A1FFA89F39A42F3D803B0BDE824
:102AC000F08F09F10109DBF80030DA7A1FFA89F397
:102AD0009A42B1D803B0BDE8F08F00BF2DE9F04FA6
:102AE00083B08146BDF8306041F25C7B10780C46C3
:102AF0001D46C2F2000BDBF8003093F806804FEA67
:102B0000D803019300F072FA0746DBF80010224662
:102B1000CB798979013B23440139494448469BB22A
:102B200089B200F0C7F8DBF80030DB79002B49D020
:102B300008F007084FF00009019B002B36D03C46F7
:102B4000019B1F444FF0000A227802FA0AF212F0A9
:102B5000800F0CBF3046284600F0A2F80AF1010AA7
:102B6000BAF1080FF0D10134BC42EBD12746B8F1DD
:102B7000000F2AD000243B78A34013F0800F0CBF35
:102B80003046284600F08CF80134A3B24345F2D316
:102B9000DBF8003009F10109DA791FFA89F301370E
:102BA0009A420FD9019B002BC9D1E3E7B8F1000F7E
:102BB000E0D1DBF8003009F10109DA791FFA89F375
:102BC0009A42F3D803B0BDE8F08F09F10109DBF8B0
:102BD0000030DA791FFA89F39A42B0D803B0BDE821
:102BE000F08F00BF2DE9F04782B015461278002A19
:102BF0003ED004467F284FD80E469F294CD81F460A
:102C000040F2100841F2587941F25C7AC2F20008B1
:102C1000C2F20009C2F2000A13E002F12000C0B2C1
:102C20001C2816D987BB31462046FFF747FEDAF845
:102C3000003001359B7923449CB22A78C2B17F2CA5
:102C40002AD8D8F8001002F17F00C0B20B881E28E5
:102C5000E3D88FB92A4631462046FFF7A9FDD9F8B7
:102C6000003002359B7A23449CB22A78002AE6D1B0
:102C7000012002B0BDE8F08748882A46314600901E
:102C80002046FFF7A3FEEAE74A8800922A4631462B
:102C90002046FFF723FFCAE7002002B0BDE8F08717
:102CA0000023C6F602030201000992B218801A80BE
:102CB000704700BF30B54FF0D0444FF0000CE646EF
:102CC0004FF4287525800001090112011B01C6F689
:102CD000020C00F47F6001F47F6102F47F6203F470
:102CE0007F63ACF800E0ACF80000ACF800E0ACF8B2
:102CF00000104FF42C712180ACF800E0ACF80020FB
:102D00004FF43072ACF800E0ACF80030228030BDF7
:102D10002DE9F04182B0002213464FF0D04C4FF421
:102D200028784FF4FE674FF42C764FF41F654FF46C
:102D3000307E4FF4A04440F6FF704FF6F071C6F6B7
:102D40000202ACF800801380138013801780ACF867
:102D500000601380138013801580ACF800E00194AC
:102D600010801180019B013B0193002BF8D102B030
:102D7000BDE8F0812DE9F04F83B0FFF79FFC4FF4E1
:102D8000A05440274FF0100820260A20C4F2010466
:102D90002761C4F810802661FDF7DAFC4FF0800946
:102DA0000A206761C4F81490FDF7D2FC96202761D1
:102DB000FDF7CEFC4FF0D0454FF453632B802661D6
:102DC0000024C6F6020423882288C2F30B1223884B
:102DD000C3F3071343EA02239BB2B3F5487F00D045
:102DE000FEE7A5F80080B420FDF7B2FC4FF4807335
:102DF0002B806420FDF7ACFC4FF488732B80962069
:102E0000FDF7A6FC00236021302270204FF0E00C7B
:102E10004FF4F87A4FF4C07E4FF4316BA5F800B050
:102E20002180228026804FF4346BA5F800B02280E8
:102E30004FF4366BA5F800B02680A4F800C04FF41C
:102E4000756BA5F800B04FF4D07BA4F800B04FF438
:102E5000406BA5F800B0268023804FF4416BA5F8A5
:102E600000B04FF0500BA4F800B04FF4426BA5F83F
:102E700000B0268026804FF4436BA5F800B0A4F87C
:102E8000008026804FF4446BA5F800B0A4F80080C1
:102E900026804FF4456BA5F800B04FF48E6BA4F874
:102EA00000B04FF4687BA4F800B04FF4726BA5F843
:102EB00000B026804FF4766BA5F800B04FF4986B05
:102EC000A4F800B04FF4786BA5F800B021804FF45F
:102ED000606BA5F800B021804FF4E07BA4F800B04F
:102EE000A4F800A0A4F800A0A4F800E04FF4987A99
:102EF000A4F800A0218022802280278020802080CA
:102F000023804FF461622A80A02222804FF4A072B5
:102F100022804FF4D8722280A4F800E04FF490721F
:102F20002280A4F800C02680A4F800802380A4F8A2
:102F30000080A4F80090208023804FF458722A80EB
:102F40004FF4406BA4F800B04FF4AA6A4FF4687BCA
:102F5000A5F800B04FF454794FF428784FF4FE6E82
:102F60004FF42C7C4FF41F674FF430764FF4A040A1
:102F700040F6FF714FF6F072A4F800A0A5F800909B
:102F80002380A5F80080238023802380A4F800E01C
:102F9000A5F800C023802380238027802E80019005
:102FA00021802280019B013B0193002BF8D14FF03F
:102FB000D0434FF4247214201A8003B0BDE8F04FC0
:102FC000FDF7C6BB01608A7B8271CB7BD108C371E0
:102FD000520714BF01FB03334B438380704700BF8C
:102FE00041F25C73C2F200031860704741F25C73F7
:102FF000C2F200031A689388126800FB03F31133CE
:10300000D0187047F0B541F25873C2F200031C6843
:10301000217B256809B3002305F1120C05F1140E7C
:103020003CF82320824203D83EF8232082421AD261
:1030300001339942F4D1002348F2A01048F29F17BF
:1030400005F114063CF82320824203D836F823E029
:10305000BE4515D801339942F4D148F2A0104FF083
:10306000FF33EA8902E005EB83056A8A04EB430338
:10307000D98925896368801A0A1805FB0230F0BDDA
:1030800048F2A010F2E700BF10B40468E4B184462F
:10309000224601E03A2B0BD012F9013BD9B21F298D
:1030A000F8D841F26073C2F20003187810BC704780
:1030B00094F90030302B07D10234A24204D1002011
:1030C000CCF8002010BC70474FF0FF30EEE700BF97
:1030D00038B50D4640B1044603682BB11A781AB1D1
:1030E0008188DA88914203D0092000232B6038BD03
:1030F000587805F063F910F00100F5D12368F5E781
:1031000003790BB90020704770B5044600F5A87527
:1031100001232946426A407805F06AF958B9666A7F
:10312000226A2071E36AF31A934202D2E378022BF7
:1031300003D0002070BD012070BD012329466078B6
:10314000324405F055F9F4E738B5044602681546EF
:1031500015F8010B802815D99F2804D900F1200308
:10316000DBB21C2B14D892F90110951CCBB23F2B6B
:1031700005D97E2B09D9002901DAFC2B0FD94FF094
:10318000FF3038BD20B9256038BD01EB002398B26F
:103190004FF4697102F014FF0028F4D1EFE71378BF
:1031A000527843EA02235BBA98B2F1E7F8B50546D4
:1031B0000C46FFF7A5FF30BBEB69A11E023B99420D
:1031C0003DBF6B896E6B01FB0366064605F5A8776C
:1031D0004FF4007200216E62384609F013FC6B89CF
:1031E0001C466BB1002402E001349C4208D201234A
:1031F00039466878321905F0FBF86B890028F3D05E
:10320000E01A18BF0120F8BD30B4046849B18B68DA
:1032100003620B69CA7923F0FF0313434362CB6C4B
:103220008362E26B92F8343092F8351043EA01235E
:1032300092F8361092F8372043EA014343EA0263DA
:103240008360E36B93F8381093F8392041EA022148
:1032500093F83A2041EA024193F83B2041EA0261A7
:1032600093F83C20002593F83DC042EA0C2293F8E5
:103270003EC042EA0C4293F83F30016142EA0363E8
:103280004361E36B93F8213003F00203C371C5611E
:1032900030BC7047426A8A4201D10020704770B545
:1032A00004460D46037900F5A8765BB901232A464A
:1032B0003146607805F092F810B101204FF0FF35EB
:1032C000656270BD01233146407805F091F880B900
:1032D000616A2071E36ACB1A226A9342E6D2E378EC
:1032E000022BE3D10A4431460123607805F080F8CF
:1032F000DCE7012070BD00BF2DE9F04700254FF04D
:10330000010807468E1E9146C369023BB34298BF2F
:103310002E46B246344605E0C3BB0135A9453BD035
:103320008EB31C46B96B01EB14313846FFF7B2FF80
:10333000B8BBC4F3C800F969023904F0070308FAFE
:1033400003F3DBB23A1892F850C101345A0003EA91
:103350000C03A142E0D9013583B94D451CD0A642EA
:1033600010D012F0FF03F0D10130B0F5007F07EB71
:103370000002D7D2012392F850C1E6E7A246002509
:10338000A642EED100263046BDE8F087002EFAD0E6
:103390000025AA462C46C5E70AF102063046BDE8DC
:1033A000F0874FF0FF36EEE72DE9F8430124814620
:1033B00015461F46023901F007039C40E4B2C1F3F1
:1033C000C806836B03EB113841464846FFF762FF9E
:1033D00050BB09EB060393F850C104EA0C02003A13
:1033E00018BF0122974215D123E014F0FF0408D141
:1033F0000136B6F5007F09EB06031CD2012493F8D1
:1034000050C104EA0C0EBEF1000E18BF4FF0010EC1
:10341000BE450BD08CEA040C640083F850C1013D1A
:10342000E3D1012389F80430BDE8F883012389F84A
:1034300004300220F8E7264608F10108012489F843
:103440000440C1E72DE9F04704460D469046067852
:10345000022E39D00DD8012E4DD1C16A05EB55078A
:1034600001EB5721FFF716FF002847D00120BDE8E8
:10347000F087033E012E3ED8C16A01EBD511FFF75C
:1034800009FF0028F2D12378AD0005F4FE75042B66
:1034900009D0631993F8533128F070421B0603F0EA
:1034A000704343EA020804F5A872531902F8058034
:1034B00001214FEA18225A704FEA18404FEA186269
:1034C0009870DA70217113E0C16A01EB1521FFF7E2
:1034D000E1FE0028CAD16D0004F5A87305F4FF755C
:1034E000591903F805800123C8F307224A70237194
:1034F0000020BDE8F0870220BDE8F08707F1010950
:10350000C7F3080704F5A87A5FFA88F14FEA592251
:10351000EB0715D51AF8073003F00F0343EA011340
:103520000AF807302671E16A11442046FFF7B2FE1F
:1035300000289BD1C9F308015144C8F3071314E0D4
:103540000AF807102671E16A11442046FFF7A2FE2F
:1035500000288BD1C9F30809C8F303220AEB09013B
:103560001AF8093023F00F03134301220B70227164
:10357000BEE700BFC369DBB170B504460E46154611
:103580000AE02068C36999420ED2FFF75BFF60B979
:10359000E369013BE3614BB1F21A511C012B14BFEB
:1035A00002322A460129ECD8022070BD002070BDED
:1035B00000207047C379032B01D00020704770B5FD
:1035C000054686698168A6B1012901D8022070BD2F
:1035D0000E4407E02246FFF735FF0028F7D1B4423A
:1035E00007D021464C1C2868C3699942F2D30220B7
:1035F000EDE70023EB71002070BD00BF01290FD95A
:10360000F8B50C460668F2698A4201D80120F8BD77
:103610003278013A032AF9D8DFE802F04D3B1F0463
:1036200001207047D0E90432C17953EA02054ED037
:103630008568002D4BD0651B022940F08580013B39
:10364000718942F1FF325B0A43EAC253B3FBF1F3E3
:103650009D42DBD87ED0601CF8BDF16A304601EB9C
:10366000D411FFF717FE78BBA30003F4FE733344B5
:1036700093F8500193F8511193F8522193F8533174
:1036800040EA012040EA024040EA036020F0704036
:10369000F8BDF16A304601EB1421FFF7FBFD98B944
:1036A000630003F4FF73334493F8500193F85131EE
:1036B00040EA0320F8BDF16A04EB5405304601EB03
:1036C0005521FFF7E7FD20B34FF0FF30F8BD00298B
:1036D0009CD1C369002B3DD1F16A304601EBD41176
:1036E000FFF7D8FD0028EFD1A30003F4FE733344A5
:1036F00093F8500193F8511193F8522193F85331F4
:1037000040EA012040EA024040EA036020F0004025
:10371000F8BD6F1CC5F30805354495F85051F16AA2
:1037200001EB57213046FFF7B5FD0028CCD1C7F398
:103730000807374497F8503145EA0320E3074CBFA8
:103740000009C0F30B00F8BD0329C2D18369AB4265
:1037500081D8BEE76FF00040F8BD00BFF8B507683C
:103760003B78042B14BF4FF400134FF080538B426F
:103770001FD90D46CA061CD1064681680563D1B122
:103780007B895C02B5EB432F07D231E0012810D9C9
:10379000FB6983420DD9AC422BD83046FFF72EFF90
:1037A0002D1B0146431CF1D10120F8BD002371639C
:1037B000B3630220F8BD3B78022B13D83B89B3EBEF
:1037C000551FF6D93B6BB3637163002BF1D007F53E
:1037D000A877C5F3080203EB552317440020C6E978
:1037E0000E37F8BD3B6BC171002BE7D01946C7E718
:1037F000FB69023B8A1E9A42D8D278897B6B02FB16
:103800000033E0E72DE9F0410546884606680029C7
:1038100056D13769726917BB002A4DD0337801271A
:10382000042B23D0F3693C4607E0012813D0013074
:1038300000F08980BC423FD0F36901349C4202D33E
:10384000012F39D0022428462146FFF7D7FE002851
:10385000EBD1012C7ED801242046BDE8F081F3692C
:10386000BB42D9D942B33278042ADCD1012239468D
:103870003046FFF741FD0446431E03331DD80123A4
:10388000014630461A46FFF78FFD0228E3D0012893
:1038900059D0B8F1000F61D10223EB717369346123
:1038A0005BB1F269023A934207D87279013B42F068
:1038B00001027361727100E000242046BDE8F081CE
:1038C000FFF79CFE04460128C5D9421C3BD0F36992
:1038D0008342F2D87269002AEED03278042A3BD0B3
:1038E00008F10104A34298BF022428462146FFF7AD
:1038F00085FE0128AFD0431C25D0F269134630B1B4
:103900003769012F24D9974228BF47468BE7FCB17E
:10391000A242A0D94FF0FF3221463046FFF792FD78
:1039200078B9B8F1000FB9D0B8F1010F93D0F369AD
:10393000984590D2224641463046FFF783FD002845
:10394000ACD0012887D14FF0FF342046BDE8F0818C
:10395000474668E7F269DBE7474687E7EB79022BE2
:1039600014D0EB6908F10102A2420CD00BB901237B
:10397000EB61224641462846FFF7FCFD0028E0D1D6
:103980000123EB618AE753B10133FAE77B1CA342C1
:1039900084D00323EB71AB68FB1AAB61E1E7022330
:1039A000EFE700BF2DE9F843056801294BD90C4624
:1039B000EB698B4247D907469146002A3DD1A04684
:1039C00002E0A046944233D2214638462646FFF70D
:1039D00015FE044660B3012835D0421C5FD02B7819
:1039E000042B08D0EB699E422DD200223146284696
:1039F000FFF728FD40BBEA696B69911E8B4205D237
:103A00006979013341F001016B6169710136A642A8
:103A1000D8D02B78042BD4D1A6EB08024146002342
:103A20002846FFF7C1FC78B9EA69A0469442CBD397
:103A30002B78042B1CD0002006E02A78042A10D012
:103A4000B9F1010F02D10220BDE8F8834B45FAD944
:103A50004FF0FF3249462846FFF7F4FC0028AED06D
:103A6000F2E7C279022AAAD0B9F1010FEED1EAE752
:103A7000B9F1000F16D0FB79BBB9BC680AE021464A
:103A80003846FFF7BBFD01340128DCD9431C06D0C2
:103A90008442D0D14C45F2D10223FB71CBE7012007
:103AA000BDE8F88387F80790C5E7032BC3D1BB684F
:103AB0004B45C0D8BA6913444B45EDD2BBE700BFB4
:103AC0002DE9F04704460668056B20353378042B52
:103AD00014BF4FF400134FF08053AB4204D80023BF
:103AE000A3630420BDE8F087836B002BF9D0C5F3F6
:103AF0000807002F3AD1884601338363416B0029C0
:103B00003CD07389013B13EA55292FD1FFF776FD8D
:103B10008246012839D9B0F1FF3F34D0F36983429E
:103B200016D8B8F1000FDAD02046616BFFF76AFEB5
:103B3000824660B3012828D0B0F1FF3F23D0014670
:103B40003046FFF733FBF0B9E37943F00403E37148
:103B5000C4F834A0AAF1020AF369023B9A4503D2E1
:103B60007289736B0AFB0239C4F8389006F5A8769F
:103B70003E4400202563E663BDE8F0873389B3EB5C
:103B8000551FF3D8ABE70120ACE70220AAE70720D6
:103B9000A8E700BF2DE9F8430F4600210446066858
:103BA000FFF7DCFD58B9054606F5A878D4F838903B
:103BB000736A99450ED03046FFF7A2FA08B1BDE806
:103BC000F88301234A464146707804F007FCE0B9C7
:103BD000C6F82490E36B32781B78042A0DD0E52BCD
:103BE0000DD063B1002501212046FFF769FF0028B1
:103BF000DCD0042808BF0720E1E71B06F2D401351A
:103C0000BD42F0D10020BDE8F8834FF0FF33012022
:103C10007362BDE8F88300BF2DE9F0470021044638
:103C20000B460268D56B6E7801367001022B08BF17
:103C30000423CA0342EA5102E95C01330A4491B207
:103C40009842F3D80B0AA970EB702046E16CFFF79D
:103C500085FD814668B94FF001082768D4F838A07F
:103C60007B6A9A450AD03846FFF74AFAF8B14FF016
:103C700001094846BDE8F087C7F824A0202229465C
:103C8000E06B09F0A8FD2035236883F80480013E2D
:103C9000EFD000212046FFF713FF0028DDD00228D7
:103CA00028BF02205FFA80F94846BDE8F08701236B
:103CB000524607F5A871787804F090FB0028DBD015
:103CC0004FF0FF337B62D2E72DE9F04104460068F4
:103CD000A16BC76BFFF7DEFA002876D1E16B0B789A
:103CE000852B03D002252846BDE8F0810546202219
:103CF000384609F070FD7E7801367601A6F1600342
:103D0000B3F5007FEED829462046FFF7D9FE0546D9
:103D10000428E7D00028E6D1A16B2068FFF7BAFAA3
:103D2000002852D1E16B0B78C02BDBD12022B818D0
:103D300009F051FD48F6890297F82330C8F6880249
:103D40002C33A2FB0323DB08B6EB431FCAD34FF08F
:103D5000400800212046FFF7B3FE05460428C1D0E5
:103D60000028C0D1A16B2068FFF794FA054660BB1C
:103D7000E16B0B78C12BB5D1B8F5187FB3D02022F9
:103D800007EB080009F027FD08F120084645E0D8B8
:103D9000B8F5187FA7D829467878013040012B461E
:103DA000022B08BF0423CA0342EA5102F95C013323
:103DB0000A4491B29842F3D8BD78FB7845EA0325CE
:103DC0006D1A18BF01256D008DE701252846BDE855
:103DD000F08100BF2DE9F04F83B004464FF0FF099A
:103DE000CDF8049004200E46256805F5A878A76B49
:103DF0007FB36B6A9F420AD02846FFF781F90028FB
:103E00003ED00023A36303B0BDE8F08F6F62E26B86
:103E10001378FBB1297804291ED0D17A01F03F0133
:103E2000A171E52B0AD02E2B08D021F02000A0F1A3
:103E30000800B0FA80F04009B0422ED04FF0FF09E0
:103E400000212046FFF73CFE0028DAD1A76B002FA7
:103E5000CFD198B10420D4E716B1832BF0D10DE077
:103E6000852BEDD1236B2046E364FFF72DFF00285F
:103E7000C7D1EB6B1B7903F03F03A3710020C2E7AE
:103E800001233A464146687804F0A8FA0028BDD0DC
:103E90004FF0FF3301206B62B3E70F294DD1590674
:103EA00035D503F0BF03216B507B0190E164517B5A
:103EB00001988142C2D1917ED07E51EA0021BDD1CC
:103EC0004FF67060177827F04007013F07EB470176
:103ED00007EB81070121D5F80CA0C0F6000000F126
:103EE0000D0E9C460B4610F8011B07F1010902EB71
:103EF000010B515C9BF801B041EA0B2153B1FF2F3C
:103F00009CD82AF8171070452ED04F46EAE79945FD
:103F100094D1CCE763464FF6FF7C06E010F8011B16
:103F2000575C1144497847EA0121614586D17045C3
:103F3000F4D1013B5FFA83F982E7B9F1000F0FD1A9
:103F400002F10B014FEAC91343EA590312F8010BBE
:103F5000034403F0FF098A42F4D1019B4B458DD005
:103F60004FF0FF33E36489E7634612785206E0D5E9
:103F70000029DED0B9F5807F3FF460AF00222AF837
:103F80001920D6E72DE9F04F87B000210646D0F87A
:103F90000080FFF7E3FB054658BB98F80030042B80
:103FA00000F0BC804FF0FF0B4FF0FF3906F1400AE4
:103FB000C6F84C905C464046B16BFFF76BF9B8B958
:103FC000F76B3978002900F0A480FB7A03F03F02F8
:103FD000B271E52903D018070FD50F2A1BD0C6F8F8
:103FE0004C90FF2400213046FFF76AFD0028E2D004
:103FF0000546284607B0BDE8F08F002C6FD096F834
:104000004B30DB07EBD438460B22514608F0EAFC74
:104010000028E4D1EDE796F84B305B06E2D4480681
:104020006FD501F0BF01336BF36497F80DB0BB7E21
:10403000FA7E53EA0223D4D14FF670623B7803F044
:104040003F03013B03EB430003EB80030124D8F85B
:104050000C000590C0F60002CDF800800491904657
:1040600001953D4627461C4602960646CDF80CA013
:10407000384618F8011B05EB010C6F5C9CF8011029
:1040800047EA0127002800F0A680FF2C00F2C0803C
:10409000384601F0D5FF824636F81400013401F0AD
:1040A000CFFF824540F0B4804FF67D63C0F6000339
:1040B0009845DDD1DDF80080049923463C462F4623
:1040C00001AD95E860043A78520605D524B1059A09
:1040D00032F81330002B84D10139CCB282E73A4652
:1040E00007F10B002346DC0112F8011B44EA5304DC
:1040F0000C4404F0FF038242F5D19B457FF47FAF6F
:1041000077E78C427FF46DAF7B7B5B457FF469AFD3
:104110008DE70425284607B0BDE8F08FD8F80C409D
:1041200034F8020BA946A8B101F08AFF4FEAC9335F
:1041300043EA59039BB2C2B21344C0F30720C3F34E
:104140004E0949EAC33981441FFA89F934F8020B50
:104150000028E9D100213046FFF73CFE00287FF41B
:1041600047AFD8F83C3093F8242093F8251042EA62
:1041700001224A45EED193F823A0BAF1000F28D0CE
:104180000746402404E01AF0FF0A1BD0D8F83C3060
:10419000E20608BF02341A191B5D507843EA00207A
:1041A00001F04EFFD8F80C30834633F8170001F0C9
:1041B00047FF0AF1FF3A834504F1020407F10107C2
:1041C000E1D0C7E77F00D8F80C30DB5B002BC1D112
:1041D0000FE75746F7E704993C462F464246DDF87D
:1041E000008001AD95E860044FF6FF7006E012F81C
:1041F000013BFC5C3B445B7844EA032484427FF44B
:10420000F0AE4FF67D63C0F600039A42EFD163E74C
:10421000DDF8008001AD95E86004E2E62DE9F04F9D
:1042200087B00D46074691F90030D0F800A02F2B3B
:104230003AD05C2B38D00024DAF818308360C4619F
:104240009AF80020042A00F092812B781F2B44D981
:104250004FF2304BC0F6000B009500243A68009BEB
:104260000593D2F80C90A9F1020604E0FF2C17D0B8
:10427000013426F8025F05A8FEF766FF85B2411CEF
:104280000ED01F2D40F26F812F2D30D05C2D2ED0FF
:104290007F2DEBD80146584608F0BCFB0028E5D03E
:1042A000062007B0BDE8F08F2A46154692F9003087
:1042B00001322F2BF9D05C2BF7D00023BB60FB61C0
:1042C0009AF80030042BC0D1882200210AF1C800DE
:1042D00008F098FB2B781F2BBAD880230021384692
:1042E00087F84B3007B0BDE8F04FFFF737BA059BB2
:1042F0000093009A002500E00125104612F9011BE9
:104300002F29F9D05C29F7D00DB105900090CEB2DD
:104310001F2E8CBF00260126B600012C13D0022CC4
:1043200040F01D81B9F802202E2A0CD009EB44017F
:1043300031F8023D202B01D02E2B31D1013CF7D199
:10434000A9F80040ACE7B9F800202E2AEED10022EF
:1043500029F814202E25202007F13F01A242C0F0A9
:104360006381013201F8010F0B2AF7D146F02002D8
:1043700087F84B209AF80010042940F0F281DAF80F
:104380000C1049882E2900F09C8162F07F0287F88A
:104390004B20BA7942F01002BA71002E6FD15CE75F
:1043A000002109EB440029F81410B9F80020202A54
:1043B00008BF09F1020240F0CB8015468846013162
:1043C00032F8023B202BF8D008F1020846F0030631
:1043D000024632F8023D2E2B01D0013CF9D10B22CE
:1043E000202107F1400008F00DFB2988002900F08A
:1043F000E181002308221D4653465846BB464F46DE
:10440000A14614460246AA46202950D02E2976D02D
:10441000AC4200F281800B2C00F0B281C84573D011
:1044200046F0030670D951469A465F4693460B46BE
:1044300097F84010E52904BF052187F84010082CA3
:1044400021D003F00C020C2A03D003F00302032A4C
:1044500021D146F0020687F84B603846FFF792FDFF
:1044600070B304287FF41DAF06F00402B60640F1D5
:10447000B481002A3FF4F1AE802387F84B3000204E
:1044800007B0BDE8F08F4FEA830C0CF00C025FFA26
:104490008CF30C2ADDD0B207DDD403F0010246EA2A
:1044A00002165B0744BF46F00806F6B2D3E746F0B3
:1044B000030637F8181008F101080029A4D1B2E763
:1044C0009AF80000042800F0B3807207D7D4BA79B4
:1044D000D30640F13D813A6BC2F308010AF5A87298
:1044E0000A44917ED47E41EA0421032805D1107D3F
:1044F000527D40EA022241EA0241B960ADE6C84578
:10450000D5D10B2C00F03C814FEA8A0A5FFA8AFA77
:10451000C8460B240825CCE7C845F2D07F2963D8CC
:10452000039202934FF23C400191C0F6000008F064
:1045300071FA0199029B039A002800F0188146F055
:1045400003065F210BEB050080F840100135B0E752
:104550004D464FF001082E2A7FF43AAF36E7002C83
:104560007FF4E4AEECE60426059B0093D5E6002B31
:104570003FF4AAAE88220AF140010AF1C80009F00E
:104580002AF9DAF8C83003EB43030AEB8303D3F8C4
:10459000D030FB71DAF8C83003EB43030AEB830336
:1045A000D3F8D0307C6123F0FF033B61DAF8C830E8
:1045B00003EB43030AEB8303D3F8C0303B62DAF822
:1045C000C83003EB43030AEB8303D3F8C43023F072
:1045D000FF037B62DAF8C83003EB43030AEB830383
:1045E000D3F8C830BB6230E602920193084646F029
:1045F0000203039301F024FD4FF4697101F0AEFC56
:104600000146FF28019B029A40F2A680601EA84244
:1046100040F2A980039E0BEB050001354FEA112CF7
:1046200080F840C0C9B28DE701F8015F013295E61C
:10463000BA79D50640F18980DAF8C820F86C02EB27
:1046400042010AEB8101C1F8D4000132CAF8C82046
:104650000A2A00F2C68002EB42020AEB8202DAF872
:104660003C1091F8340091F8354040EA042091F86C
:10467000364040EA044091F8374040EA0460C2F80E
:10468000CC0091F83A4091F83B0044EA002491F8BC
:10469000210000F0020091F83850284391F83910B9
:1046A00041EA042140EA0121C2F8D01074073FF525
:1046B000E6AEBA79D0064BD539463846FEF7A4FDAA
:1046C000CBE5DAF8C81000293FF45FAE0139CAF82B
:1046D000C81001EB41010AEB8102D2F8CC20BA608C
:1046E0000021DAF8C82002EB42020AEB8202D2F87B
:1046F000D020FA71DAF8C82002EB42020AEB8202FB
:10470000D2F8D020796122F0FF023A61DAF8C820AD
:10471000C2B102EB42020AEB8202D2F8C0203A6236
:10472000DAF8C82002EB42020AEB8202D2F8C42077
:104730007A62DAF8C82002EB42020AEB8202D2F86F
:10474000C820BA6297F84B201FE671073FF597AE75
:10475000052007B0BDE8F08F039E00283FF4EFAEC0
:10476000DEE6164679E646F003062546A1E6A1F107
:10477000410080B2192826D84AF0020AC9B2E1E6FF
:1047800051469A465F46934646F0030697F8402006
:10479000E52A7FF460AE052287F8402001F00C0284
:1047A0000C2A3FF456AE01F0030CBCF1030F3FF4AA
:1047B00050AE50E697F84020E52A7FF44CAE052233
:1047C00087F8402047E6A1F1610080B219289CBF1C
:1047D00020394AF0010AC9B2B4E6002A7FF461AD7B
:1047E000B6E711205DE500BFF8B5044603795BB973
:1047F0006579012D23D000226078114603F002FE76
:10480000003818BF0120F8BD00F5A875012329461E
:10481000426A407803F0ECFD00283CD1666A226AC7
:104820002071E36AF31A9342E2D2E378022BDFD1DC
:10483000012329463244607803F0DAFDD8E70026E8
:1048400023786671032B28D0042BD4D1A26A04F5F7
:10485000A8762B4662623146607803F0BFFD0028DF
:10486000C9D1E2696169023A91425FD8511A03469F
:104870006420A1FB000107F021FFC0B294F8C03111
:104880008342B8D001233146626A84F8C00160785F
:1048900003F0AEFDAFE70120F8BD04F5A8774FF4B3
:1048A00000723146384608F0ADF84FF0520E4FF026
:1048B000610C41207222552384F84E332B46394631
:1048C00084F850E184F851E184F852C184F837C388
:1048D00084F8530184F8360384F8342384F83523AC
:1048E000656984F84C6384F84D6384F83853AA26CC
:1048F000206984F83C03A26A013262622F0A84F8BC
:10490000397384F84F632E0C84F83A632D0E84F8C3
:104910003B53050A84F83D53050C84F83E53000EC2
:1049200084F83F03607803F063FD64E7FF20A5E7A8
:1049300070B500234FF0FF36044603714662B14262
:1049400038D14AF6552394F84E5394F84F2345EA4C
:1049500002259D423CD094F85031EB2B05D0183302
:10496000DBB2012B01D9032070BD94F85B3194F8C0
:104970005C2143EA02235A1E1A42F4D1B3F5007FA8
:10498000F1D194F85D31002BEDD05A1E1A42EAD1D4
:1049900094F85E3194F85F2153EA022304D094F82E
:1049A0006031013B012B46D94AF655239D42DAD1AD
:1049B000022070BD0D4601230A46407804F5A87117
:1049C00003F00CFD10B10420666270BD6562B8E7AB
:1049D0004FF244410B2204F5A870C0F6000108F024
:1049E00001F830B394F85031EB2B03D01833DBB21D
:1049F000012BDDD84FF25041082204F5D170C0F6EA
:104A0000000107F0EFFF00283CD094F85B3194F8E8
:104A10005C2143EA02235A1E1A42C9D1B3F5007F32
:104A2000C6D194F85D31002BC2D05A1E1A42BFD1B4
:104A3000AEE7012070BD94F8613194F8622153EA29
:104A40000223B1D094F8633194F8642143EA02233D
:104A50007F2B10D894F8703194F8711194F872216A
:104A600043EA012343EA024394F8732143EA0263D1
:104A7000B3F5803F98D394F8663194F8672153EAF0
:104A8000022391D0002070BDF0B585B000230E4602
:104A900015460B60FEF7F8FA471C00F0278141F23B
:104AA0006473C2F2000353F82040002C00F024810C
:104AB0003460237805F0FE055BB1607803F07EFC7E
:104AC000C60706D415B1410700F11381002005B0D7
:104AD000F0BD00236078237003F056FCC20700F19C
:104AE000A88015B1430700F1048100212046FFF79B
:104AF0001FFF022800F0AE80042800F00181012889
:104B000000F2A580616A012800F0968094F85B317C
:104B100094F85C2143EA0223B3F5007F40F09780CC
:104B200094F8663194F8672153EA022500F0EA8090
:104B300094F8603125625A1EE370012A00F28780E2
:104B400094F85D216281002A00F08180501E10429D
:104B50007DD194F8616194F8620146EA00262681CD
:104B6000300774D194F8630194F864C150EA0C20C2
:104B70000DD194F8700194F8717140EA072094F80F
:104B8000727140EA074094F8737140EA076094F844
:104B90005EC194F85FE15CEA0E2E58D005FB03F38A
:104BA0000EEB161C9C44604551D3A0EB0C00B0FBEF
:104BB000F2F790424BD34FF6F572C0F6FF72974270
:104BC00045D801EB0C020EEB01004FF6F57E07F124
:104BD000020C774500F2838140F6F57EA1626263A4
:104BE000C4F81CC0E062774540F260817EB34FEAB2
:104BF0004C02034402F2FF122363B5EB522F26D37B
:104C00004FF0FF338022022663612361627141F21B
:104C1000627500218822267004F14000C2F200056E
:104C20002B88A16101339BB2E3802B8007F0EAFE61
:104C30004CE7032005B0F0BD0B2304F5AD7001E097
:104C4000402B6ED010F8012F0133002AF8D00D2030
:104C500005B0F0BD94F8162394F8170394F82633A2
:104C600094F8181342EA002242EA014294F8191318
:104C700042EA016294F82713009243EA012394F870
:104C8000362394F8370394F8281342EA002243EAC3
:104C9000014394F8291343EA0163019394F84633DE
:104CA00094F8471343EA012394F8481343EA014375
:104CB00094F8491343EA016303936D4694F838333B
:104CC00042EA034394F8392343EA0263029303E080
:104CD000032004AB9D4211D055F8041B0029F7D0E6
:104CE0002046FFF725FE0128F3D80BE70B2005B07F
:104CF000F0BD0A2005B0F0BD0C20E8E60428A6D1DE
:104D00000120E4E694F8743194F8750194F8762162
:104D100043EA002343EA024394F8772143EA026519
:104D200006E794F8B83194F8B90143EA0023B3F5E3
:104D3000807F8CD194F8BC31092B88D194F89831BC
:104D400094F8990143EA002394F89A0143EA004356
:104D500094F89B0143EA006394F89C5158184FF073
:104D6000FF3694F89D3145EA032394F89E5143EAB7
:104D7000054394F89F5143EA056343F100038642DB
:104D800072EB0305FFF463AF94F8A45194F8A561A6
:104D900045EA062594F8A66145EA064594F8A76118
:104DA00045EA0665256294F8BE51E570012D7FF451
:104DB0004EAF94F8BD61B540AEB26681002E3FF4AF
:104DC00046AF4FF6FD7794F8AC6194F8ADC146EA72
:104DD0000C2694F8AEC146EA0C4694F8AFC146EAF8
:104DE0000C66C7F6FF77BE423FF631AFADB206FBA9
:104DF00005F50236E661A16294F8A86194F8A971FC
:104E000046EA072694F8AA7146EA074694F8A0C134
:104E100094F8A1714CEA072C94F8AB7146EA076646
:104E20000E44AD19666394F8A2614CEA064694F804
:104E3000A37146EA07660E44E66242EB0201A8420D
:104E400073EB0101FFF403AF154694F8B03194F809
:104E5000B11194F8B22143EA012343EA024394F8E2
:104E6000B32143EA026323632E46ADB96189B1429F
:104E70007FF6EDAE226BE369023A023B9A423DBFF8
:104E8000636B02FB0133991931462046FEF702FAA3
:104E9000013600287FF434AF631993F8503105F1DF
:104EA0002002812B50D0C2F30805DEE7002E3FF42C
:104EB000CEAE18440CF001030CEB4C0203F2FF13CE
:104EC00003EB52032063B5EB532FFFF4C0AE4FF05A
:104ED000FF338022012663612361627197E6E062FD
:104EE0006263C4F81CC0A16294F87A3194F87B2103
:104EF00043EA022333437FF4AAAE94F87C314FEAAD
:104F00008C0202F2FF1294F87D0143EA002394F828
:104F10007E0143EA004394F87F0143EA0063236380
:104F2000B5EB522FFFF493AE4FF0FF32802094F890
:104F3000803194F8815143EA0523626122616071F6
:104F4000012B3AD0032662E604F5A8767219157D86
:104F5000537D45EA0325917DD37D45EA014545EA28
:104F60000365012D7FF673AEE369AB427FF66FAE4A
:104F70006189AA1E636B02FB0133A36311E006EB98
:104F8000830216F82330517843EA0123917843EAEB
:104F90000143D27843EA02635F1C58D09D427FF4FC
:104FA00056AEE16A204601EBD511FEF773F905F024
:104FB0007F0301350028E2D0A2E620460131FEF74A
:104FC00069F902460028BDD145F2522194F85031CA
:104FD00094F85101627143EA002394F8520194F865
:104FE000532143EA004343EA0263C4F261118B4256
:104FF000A8D147F2722294F8343394F8350394F828
:10500000361343EA002343EA014394F8371343EA93
:105010000163C6F24112934294D1002294F84C33BA
:1050200094F84D0394F84E1343EA002343EA0143F6
:1050300094F84F1343EA0163CAF65522934281D193
:10504000D4F83823D4F83C33626123617AE704262C
:10505000636123616071DAE52DE9F04F9BB090F850
:105060004B3013F0A00940F01C8206460368009301
:10507000DB681A88002A00F0478233F8022F09F112
:105080000109002AF9D1009B1B78042B00F027812D
:1050900006F140050C22294604A808F09CFB9DF867
:1050A0001B30DC076FD5402386F84B3041F22107D7
:1050B0004FF0010A06F14708C0F20107DDF800B021
:1050C000CDF804900B2204A92846DBF80C401FFA07
:1050D0008AF908F080FBBAF1050F13D922888AB14A
:1050E0005346102102F0010000EB43035208D8039D
:1050F00048BF7B400139F5D134F8022F002AF0D1A6
:105100001FFA83F904AC072104E0BCF10F0F40F251
:10511000C880114609F00F0000F13002CC464FEA7A
:105120001919392A88BF00F1370204F8012D4A1EE7
:10513000EBD17E2113468DF808103F333344072A04
:1051400002F1680169449ABF11F8601C0132202104
:1051500003F8011F4345F2D13046FEF713FF48B96B
:105160000AF1010ABAF1640FACD1072420461BB042
:10517000BDE8F08FDDF8049004460428F6D19DF8D0
:105180001B3086F84B309B0740F190814EF64F4321
:1051900009F10C093046C4F6C463A3FB09234FEAA6
:1051A000930A0AF10101FEF7F5FC04460028DDD15F
:1051B000B9F10C0F00F08281316BA1EB4A1130463E
:1051C000FEF7CCFA04460028D0D12A4606F14B015E
:1051D000E30143EA540312F8010B034403F0FF0414
:1051E0008A42F5D12F46DDF800B05846B16BFEF784
:1051F00051F803460246002840F0C5814FF6706220
:105200004FF0010C01465FFA8AF9F06B09F1FF35A6
:1052100005EB450E05EB8E05DBF80C8044734FF073
:105220000F0E80F80BE003738376C376C0F600029E
:1052300002F10C0E0194444663464FF6FF78414557
:1052400000F0A38134F815104FEA112800F80C1073
:10525000034483F80180002940F08281019C964537
:105260000AD012F8013FFF2101E012F8013FC518F2
:10527000C15469707245F8D149F0400980F8009036
:105280004FF001038BF8043000213046FEF718FC84
:105290000246002840F07781BAF1010AA5D13D46C7
:1052A0000CE18C1E7E210DEB02031972002312E02B
:1052B00080290CD901F12000C0B29F2903F101011E
:1052C00001D91C2803D89C423FF437AF0B46013369
:1052D0009A427FF632AFE95C2029E9D12DE748F602
:1052E000890309F10E053046C8F68803A3FB05358E
:1052F000ED08A91CFEF74EFC044600287FF436AFEB
:10530000336B0135A3EB4515F379F5645F0740F185
:10531000918023F004033046F371FEF74BF9034606
:10532000002840F0E7804FF0FF32716B3046FEF707
:1053300021F90346002840F0DD80B368002B79D0C6
:10534000736A32688DF8173023F0FF030492326AD3
:105350000893B16A069209940B94179104A8FEF77A
:10536000FDF90346002840F0C58004A8FEF7ACFC18
:105370000346002840F0BE80009F7D8904A84FF4BA
:105380000071D6E90432E5FB0132C6E90432F96B5B
:1053900081F8383081F83C201D0A81F839501D0C05
:1053A00081F83A501B0E81F83B30130A81F83D30EA
:1053B000130C81F83E30120E81F83F20FB6BD6E9CA
:1053C000041283F8281083F82C200D0A83F8295042
:1053D0000D0C83F82A50090E83F82B10110A83F85C
:1053E0002D10110C83F82E10120E83F82F20FA6B5B
:1053F000F37943F0010382F82130FEF70DFC0346F8
:10540000002877D13A6CAAB1B0683946012302E08E
:10541000013393420ED80D6D0C31A842F8D193425E
:1054200008D8F17932690A4303EB4303009901EB91
:1054300083039A64009BDE6B40220021DD683046C6
:1054400007F0E0FA00278523C02286F82020337079
:10545000BC4601214022BE464FF0C10ABB46C6F100
:10546000040906F802A0B31883F801B0009611E011
:1054700035F80E107A1C89B1D7B2CEB2080A4FEABD
:10548000470E05EB470809EB03029E70D870023304
:10549000D60631D005EB0E080029E9D108460E46A4
:1054A000F1E7062420461BB0BDE8F08F012130460D
:1054B000FEF770FB044600287FF458AE0098B16BED
:1054C000FDF7E8FE044600287FF450AE2022014696
:1054D000F06B07F097FA0B222946F06B08F07BF986
:1054E000012296F84B30F16B03F018030B73009B0D
:1054F0001A7133E01C4639E6009EB8F800300CF112
:1055000001001BB18446ACE79146BCE5984686F89D
:1055100023700CF1020C86F801C035F8020BC8B1FB
:1055200000F08EFD4FEAC83242EA580292B2C3B28E
:105530001A44C2F34E0343EAC233C0F3072235F8DC
:10554000020B13441FFA83F80028E9D15FFA88F4AC
:105550004FEA182086F8244086F82500002405E646
:105560000135964502D012F801CF65E6A046019CB0
:105570004FF6FF7399423FF47FAE38F81530002B99
:105580007FF47CAE78E61446F0E5019C6BE600BF44
:1055900010B584B0019003A8009114460391FDF763
:1055A00073FD431C1CD041F26473C2F2000353F834
:1055B00020201AB1002143F820101170019A22B165
:1055C0000021507043F82020117014B9204604B017
:1055D00010BD002201A96846FFF756FA04B010BDBD
:1055E0000B2004B010BD00BF2DE9F04FADF2CC4D43
:1055F0000191002800F0998001AE0446174602F0A0
:105600003F08424603A93046FFF73EFA054630B14F
:105610000023236028460DF2CC4DBDE8F08FDDF865
:105620000C900199C4F8009004AEC6F800901AAB33
:10563000C9F80C309AABC9F83C303046FEF7EEFDA5
:1056400007F01C03002862D196F94B20002A72DB78
:10565000002B61D07B0770D4B37913F0110F62D1A6
:105660003F0775D4D9F82430A364F36BE36499F849
:105670000010042900F0B2809A7ED87E42EA00220F
:10568000032905D1197D587D41EA002142EA0142F2
:10569000A26000211A7F587F42EA0022987F42EAE6
:1056A0000042DB7F42EA0363C4E90431B9F8063003
:1056B00084F83080A3804FF0000A84F831A0C4F849
:1056C00044A000220023C4E90E2318F0200FA1D02B
:1056D000D4E9046756EA07039CD0C4E90E67B9F819
:1056E0000A804FEA4828A168B0457AEB07037AD2CE
:1056F0002046FDF783FF014601286CD9B6EB08066A
:1057000067F10007431CEFD12064012580E70BB14E
:10571000042816D005467BE7B379D8060FD4B9071D
:10572000A0D5DA079ED5072572E7092528460DF290
:10573000CC4DBDE8F08F06256AE7082568E704250B
:1057400066E73046FFF788FC48F008080028E1D1FA
:10575000FBF70CFD99F800205FFA80FBC0F3072AE5
:10576000C0F30747030E042A6AD0F26B82F80EB02A
:1057700082F80FA017745374F26B82F816B082F897
:1057800017A017765376F36B99F800209F7ED97E89
:1057900047EA0127032A05D11A7D597D42EA0122F1
:1057A00047EA02472022DA720022F36B9A76DA7611
:1057B00099F80010032904BF1A755A7500220121B7
:1057C000F36B1A775A779A77DA7789F8041027BB40
:1057D00048F0400846E72064022519E73146204694
:1057E000FDF712FD62E72164C6F30803002B3FF4C6
:1057F00011AF0239D9F81C30023B9942ECD2B9F80A
:105800000A20D9F8343001FB0233002BE4D0760AA9
:1058100046EAC75633446364FCE639463046D9F855
:1058200024A0FEF7BFF800287FF474AF5146484625
:10583000FDF730FD013FC9F810700028C8D064E7BB
:10584000009300212046FDF7DFFC1E220021D9F83D
:105850003C00023007F0D6F81A220021D9F83C00AB
:10586000263007F0CFF820200121D9F83C20107114
:10587000D9F83C2082F808B082F809A09772009B02
:10588000D372D9F83C2082F80CB082F80DA097733F
:10589000D373D9F83C3083F821103046FEF7BCF9B9
:1058A000024668B9A168002992D02046FEF77AF82E
:1058B000A368013BC9F81030002889D00546A7E647
:1058C0000546A5E62DE9F04F85B08846002503A9D9
:1058D0001F46044616461D60FDF7FAFB00286CD1F2
:1058E00094F831B0BBF1000F69D194F830309907CA
:1058F00040F1D480DDF80C9099F80020042A03D000
:10590000A26BF24228BFD643002E00F095804FF0E4
:10591000010AD4E90E50CDF800B02946C1F30802BF
:10592000002A50D1B9F80A30013B4A0A42EAC05273
:1059300013400FD1014340F09780A068002800F089
:10594000B08001287DD0421C00F0A0802064A268B5
:1059500002B9A060D9F82410626C914200F08E80E8
:10596000216C0239D9F81C20023A914269D2B9F867
:105970000A20D9F8345002FB0155002D61D01D4496
:10598000B6F5007F65D303EB56214FEA562B9142C3
:1059900088BFA2EB030B5B462A46414699F80100FB
:1059A00002F026FD002871D1D9F82410491B594571
:1059B000C0F08A804FEA4B2B1FE04FF0090B58468E
:1059C00005B0BDE8F08F656CC2F500722946B242A1
:1059D00028BF32469346039D2846FDF75BFC00280E
:1059E00054D1A06BC0F3080005F5A87318445A46BB
:1059F000414607F0F0FE85F804A0A6EB0B06D8445C
:105A00003B685B443B60A16B1BEB0101A163E06B56
:105A100040F10000E063D4E904238A4273EB0005FF
:105A20003CBF0A460346C4E90423002E7FF476AF48
:105A3000DDF800B094F8303043F0400384F83030A3
:105A4000BDE702239B4684F83130584605B0BDE8D7
:105A5000F08FA16B2269E06B6369914298412AD271
:105A60006564C1F30802AFE701932046216CFDF79E
:105A7000C9FE019B00287FF464AFD9E70193484633
:105A8000FDF73EFB019B00283FF46AAF01239B46D4
:105A900084F83130584605B0BDE8F08F4FF0070B61
:105AA0008DE7019301462046FDF7ACFE019B0028DF
:105AB0007FF447AFBCE74846FDF722FB0028E5D15D
:105AC000C9F82450A16BCBE7019008EB41214FF4BA
:105AD000007209F5A87007F07EFE019B89F804307A
