:020000040800F2
:1000000000000120E18B0008DD050008DF05000885
:10001000E1050008E3050008E50500080000000010
:10002000000000000000000000000000E7050008DC
:10003000E905000800000000EB050008ED050008D8
:10004000258C0008258C0008258C00082306000854
:10005000258C0008258C0008258C0008258C0008BC
:10006000258C0008258C0008258C0008258C0008AC
:10007000258C0008258C0008258C0008258C00089C
:10008000258C0008258C0008258C00081B0600081C
:100090001F060008258C0008258C0008258C000808
:1000A000258C0008258C0008258C0008258C00086C
:1000B000258C0008258C0008258C0008258C00085C
:1000C000258C0008258C0008258C0008258C00084C
:1000D000258C0008258C0008A7190008258C00082D
:1000E000258C0008258C0008258C0008258C00082C
:1000F000258C0008258C0008258C0008258C00081C
:10010000258C00088F4C0008258C0008258C0008E1
:10011000258C0008258C0008258C0008258C0008FB
:10012000258C0008258C0008258C0008258C0008EB
:1001300000000000000000000000000000000000BF
:1001400000000000000000000000000000000000AF
:10015000000000000000000000000000000000009F
:10016000000000000000000000000000000000008F
:10017000000000000000000000000000000000007F
:10018000000000000000000000000000000000006F
:10019000000000000000000000000000000000005F
:1001A000000000000000000000000000000000004F
:1001B000000000000000000000000000000000003F
:1001C000000000000000000000000000000000002F
:1001D000000000000000000000000000000000001F
:1001E0005FF8E0F12DE9F74F00230093019300F051
:1001F000BBFA4FF47A7000F07AF9019B022B1DDCF8
:100200004FF47A7000F0BFF94FF4C050C4F201000F
:10021000202106F05BFC04464FF4C050C4F20100FC
:10022000402106F053FC204310F0FF0F02D10123C0
:10023000009303E0019B01330193DEE707F0A4F98B
:10024000009B40F67825C2F2000541F2E87BC2F23D
:10025000000B41F6CC7AC2F2000A47F67964C0F688
:10026000000441F6C879C2F2000941F6D078C2F222
:10027000000841F6D477C2F2000741F6B876C2F220
:1002800000064BB140F6ED63C0F600032B6041F66B
:10029000F903C0F6000368E04FF4C050C4F2010057
:1002A000402106F013FC58B340F67C23C2F2000351
:1002B00002221A6041F20963C0F600032B6041F28A
:1002C000CF53C0F60003CBF8003045F6FB03C0F671
:1002D0000003CAF80030C9F8004045F6E313C0F641
:1002E0000003C8F8003045F64923C0F600033B6020
:1002F00045F23723C0F60003336005F064FA3EE0B0
:100300004FF4C050C4F20100202106F0DFFB41F69B
:10031000F903C0F6000318B340F67C22C2F20002D3
:100320000121116041F2AD62C0F600022A60CBF8F3
:10033000003046F26723C0F60003CAF8003046F2E8
:10034000DF43C0F60003C9F80030C8F800403C6045
:1003500045F2BB33C0F60003336006F075FA0EE0D9
:1003600040F6ED62C0F600022A60CBF80030CAF811
:100370000040C9F80040C8F800403C6034602B6879
:100380009847FCE782B04FF48053C4F202031A6826
:1003900042F001021A6059680022CFF6FF020A40BB
:1003A0005A601A6822F0847222F480321A601A6845
:1003B00022F480221A605A6822F4FE025A604FF436
:1003C0001F029A600022009201921A6842F4803261
:1003D0001A601A6802F400320192009A0132009207
:1003E000019A1AB9009AB2F5A06FF2D11A6812F404
:1003F000003218BF01220192019A012A08D04FF45D
:100400006D43CEF200034FF000629A6002B0704775
:100410004FF40052C4F20202116841F01001116061
:10042000116821F003011160116811605A685A6067
:100430005A685A605A685A605A6822F47C125A60A4
:100440005A6842F430225A601A6842F080721A6088
:100450001A689201FCD55A6822F003025A605A6861
:1004600042F002025A605A6802F00C02082AFAD1DD
:10047000C5E74FF48052C4F20202516801F00C014A
:10048000042940F21003C2F2000306D0082909D063
:100490004FF49051C0F27A011CE04FF4D851C0F2F1
:1004A000B70117E051685068C1F383410231C003BE
:1004B00004D44FF41060C0F23D000AE0506880039D
:1004C00047BF48F68050C0F25B004FF4D850C0F2EE
:1004D000B700414319605268C2F3031240F20001B1
:1004E000C2F20001895C1A68CA401A60704730B5D0
:1004F00087B00190042006F094FA019A40F21004AB
:10050000C2F200042368B3FBF2F3013BB3F1807F36
:1005100038D24EF21002CEF2000253604FF46D4317
:10052000CEF20003F02183F8231000259560072305
:1005300013600820012106F0FAFB03A806F0F1FD84
:10054000236844F24022C0F20F02B3FBF2F3013BF6
:10055000ADF80C304FF6FF73ADF81030ADF8125017
:10056000ADF80E504FF44060C4F2000003A906F04D
:1005700078FD4FF44060C4F20000012106F0DAFD7E
:1005800007B030BDFEE782B00190019A40F68023AB
:10059000C2F200031A601A68002AFCD102B0704748
:1005A00008B540F68423C2F200031A6822B942F269
:1005B000C832C2F200021A6040F68422C2F200027F
:1005C000186801446B46994206D908F02DFB0C23AC
:1005D00003604FF0FF3008BD116008BD7047FEE7B3
:1005E000FEE7FEE7FEE770477047704708B540F644
:1005F0008023C2F200031A6812B11A68013A1A6025
:1006000000F07EF940F67C23C2F200031B681BB9A0
:10061000BDE8084000F041BC08BD07F011BD04F082
:1006200001BE704730B50024E3B293420DD2030FF0
:10063000092B94BF3033373301F81430000101EB3C
:10064000440300255D700134EEE730BDF7B57D2031
:10065000012106F060FB4FF6FF73ADF8043003266E
:100660008DF8066000278DF807704FF40060C4F223
:10067000010001A906F0E2F94FF44065C4F201055A
:10068000284601A906F0DAF94FF48050C4F20100BF
:1006900001A906F0D3F94FF4A050C4F2010001A95A
:1006A00006F0CCF94FF4C054C4F20104204601A96D
:1006B00006F0C4F97D20394606F02DFB48200121C3
:1006C00006F029FBADF804608DF8066010238DF864
:1006D0000730204601A906F0B1F94FF48076ADF855
:1006E0000460284601A906F0A9F92846314606F01B
:1006F000F5F92046012106F0F1F92046022106F025
:10070000EDF903B0F0BD13B54020012106F003FB65
:100710007823ADF8043003248DF8064028238DF8A3
:1007200007304FF4C050C4F2010001A906F086F969
:100730000420012106F0EFFA4FF48073ADF8043085
:100740008DF8064004238DF807304FF40060C4F2A2
:1007500001000DEB030106F071F902B010BD4FF07E
:100760000060002106F052B908B5FFF782FEFFF7DE
:10077000F6FFFFF76BFFFFF7C6FF00F041F900F04F
:1007800080FABDE8084000F061B97FB5002006F0AE
:100790002DFA002006F025FA4FF480304FF4801136
:1007A00006F014FA012006F01CFA392006F0D1FAFE
:1007B0000028FAD04FF40053C4F202031A6842F042
:1007C00010021A601A6822F003021A601A6842F0D6
:1007D00002021A60022006F009FA06F011FA08284F
:1007E000FBD101A806F038FA07B05DF804FB07B5A5
:1007F0002020012106F08FFA0823ADF804300323EE
:100800008DF8063014238DF807304FF4A050C4F251
:10081000010001A906F012F903B05DF804FB08B568
:10082000002006F0F5F94FF400000121BDE8084072
:1008300006F07DBA30B14FF4A050C4F20100082197
:1008400006F04CB94FF4A050C4F20100082106F0A4
:1008500043B942F23833C2F200039A7A41F69073F8
:10086000C2F200030AB1052200E001221A607047BB
:1008700038B502460C464FF2E873C1F6FF731868AC
:100880004FF2EC73C1F6FF731D684FF2F073C1F6BF
:10089000FF731B6818180AD011460822FFF7C2FE22
:1008A000284621460422BDE83840FFF7BBBE38BDCC
:1008B0000022134640F6DC21C2F2000131F812108A
:1008C0000B449BB20532322AF4D10A22B3FBF2F375
:1008D000C3F30B0340F6C6225343C3F30F335B004D
:1008E0009BB240F69422C2F20002B2F90010481CFA
:1008F0001CBF491001EB53031380B2F9000070478D
:1009000038B54FF40060C4F201004FF4807106F076
:10091000DDF8012840F68C23C2F2000315D11A68D5
:1009200001321A6040F6B8339A4210D906F024FE1C
:1009300000F0CCFA4FF48050C4F201004FF40051A3
:1009400006F0CAF806F018FEFCE700221A6040F232
:100950001404C2F20004256845B1FFF7A9FF40F670
:100960009823C2F200031860013D256040F69023F1
:10097000C2F200031A680132B2F57A7F3BD9002235
:100980001A6040F69825C2F20005286800EB400482
:10099000FFF78EFF20448008286040F6B833984265
:1009A00040F68823C2F2000324D9B0F5616F40F20B
:1009B0001802C2F2000206D20221116040F62E5245
:1009C000904203D916E00121116013E01A68013248
:1009D0001A600C2A10D906F0CFFD00F077FA4FF418
:1009E0008050C4F201004FF4005106F075F806F093
:1009F000C3FDFCE700221A60BDE8384006F0BCBD2C
:100A000007B51020012106F086F94FF40053ADF828
:100A1000043001238DF8063010238DF807304FF491
:100A20008050C4F2010001A906F008F845F25550C3
:100A300006F090FD032006F093FD40F2E24006F040
:100A400095FD06F099FD03B05DF804FB70B54FF419
:100A50000470012106F05FF90120014606F04FF90C
:100A600040F64031C2F2000103268E700F230B8046
:100A70000025CD704FF48050C4F2010005F0DEFF78
:100A80004FF40070012106F046F90820C4F202007C
:100A900006F01CFA40F6B021C2F2000142F24C43CB
:100AA000C4F201030B6040F6DC23C2F200034B608A
:100AB0008D603223CB600D6180234B614FF48073D6
:100AC0008B614FF48063CB6120230B624D628D629A
:100AD0000820C4F2020006F085FA0820C4F20200E1
:100AE000012106F09DFA40F69C21C2F200010D6042
:100AF00001240C714C714FF460238B60CD6005258F
:100B00000D744FF41050C4F2010006F036F920467F
:100B100006F0CFF94FF41050C4F20100092122462B
:100B2000072306F07BF94FF41050C4F201001021A6
:100B300002222B4606F072F94FF41050C4F2010065
:100B40000A213246072306F069F94FF41050C4F227
:100B500001000C210422072306F060F94FF4105025
:100B6000C4F201000D212A46072306F057F94FF47D
:100B70001050C4F20100214606F092F94FF41050D3
:100B8000C4F20100214606F01CF9204606F091F956
:100B90004FF41050C4F2010006F025F94FF4105044
:100BA000C4F2010006F024F90028F7D14FF41050E8
:100BB000C4F2010006F020F94FF41050C4F2010015
:100BC00006F01FF90028F7D14FF41050C4F20100CD
:100BD000012106F0FFF84FF41050C4F2010001218A
:100BE000BDE8704006F011B973B5064602A840F89A
:100BF000041D08F01FF8436903F26C734361354626
:100C000004460FCC0FC50FCC0FC523682B603046B0
:100C100002B070BD10B5044606F0BAFA014620468F
:100C2000FFF7E2FF204610BD10B50446012006F094
:100C30008CFC06F0E1FA204606F0BDFA06F0DCFA7C
:100C40000020BDE8104006F080BC84B030B58BB009
:100C50000EAC84E80F0001AC0EAD0FCD0FC40FCD6C
:100C60000FC42B682360069BA3F26C73069301A844
:100C700008F066FAFFF7D8FF0BB0BDE8304004B0CB
:100C8000704770B586B0142006F04FFC4AF2A554A8
:100C9000A0424FF0C0504FF0010152D006F047F88B
:100CA000012006F052FC1420214606F02FFC06F02D
:100CB00024FC012005F0B1FF412006F04AF800288D
:100CC000FAD04FF4807005F0B9FF012005F0BEFFA7
:100CD00006F092FA0120014606F038FA06F08CFA86
:100CE00047F6FF7006F077FA06F086FA40F64434CD
:100CF000C2F2000440F2D9736361062323610F231B
:100D0000E3601723A3602D236360254645F8103B5D
:100D10006E460FCD0FC62B68336094E80F00FFF7C7
:100D200094FF06F069FA012006F00FFC14204AF245
:100D3000A55106F0EBFB002006B0BDE8704006F0C0
:100D400004BC05F0F4FF06F05FFA0120014606F04E
:100D5000FDF906B0BDE8704006F04EBA10B50024AB
:100D600041F61443C2F200031B68984782B2002A7E
:100D7000F6D00CB9242AF2D1631C9BB240F698310C
:100D8000C2F2000108550A2A04D0B3F5007FE6D26A
:100D90001C46E5E7D8B210BD0278303AD2B2092A33
:100DA0000AD84378303BDBB2092B05D802EB82002E
:100DB00003EB4000C0B270470020704740F6973206
:100DC000C2F2000210F8013B1BB112F8011F994258
:100DD000F8D01846704740F69833C2F2000340B18D
:100DE00013F8012B202A06D92C2AF9D10138C0B2D8
:100DF000F5E7184670470020704700B5A1B00246DD
:100E00000B4691F90010684631B94CF24B41C0F6DF
:100E1000000100F0FDFE05E04CF24841C0F6000183
:100E200000F0F6FE9DF90030242B0BD100231A466A
:100E30000DEB030149782A2905D00133802B02D01C
:100E40004A40F5E700224CF24F40C0F600006946E8
:100E500000F0D1FE00F0C1FD0028FBD021B05DF80C
:100E600004FB10B540F68C34C2F20004204604F0B6
:100E7000BAF8E078A3785B0543EA0043607943EA77
:100E8000C023A07943EA4013E07943EA5003208865
:100E9000A0F2BC7043EA406010BD10B540F6943437
:100EA000C2F2000423685A1C226041F28832934245
:100EB0000BD94CF25640C0F600004CF25541C0F63A
:100EC0000001FFF79AFF0023236010BD08B540F62C
:100ED0009853C2F200031B683BB140F66830C2F27F
:100EE000000002F04EFA0028F7D108BD2DE9F041CC
:100EF0008EB00024ADF8324041F61043C2F2000338
:100F000041F6B702C0F600021A6041F61443C2F27D
:100F1000000341F6DB02C0F600021A6002204FF423
:100F2000164100F01CFC4CF25F40C0F600004CF291
:100F30006841C0F60001FFF760FF6420FFF723FB64
:100F400002204FF4E13100F00AFC4CF25F40C0F6A1
:100F500000004CF26841C0F60001FFF74EFF64202C
:100F6000FFF711FB02204FF4165100F0F8FB4CF292
:100F70006D40C0F600004CF2A741C0F60001FFF73B
:100F80003CFF4CF27640C0F600004CF2A741C0F6A0
:100F90000001FFF732FF4CF27F40C0F600004CF238
:100FA0008841C0F60001FFF728FF4CF28A40C0F6E6
:100FB00000004CF63971C0F60001FFF71EFF4CF23D
:100FC0009340C0F600004CF2A741C0F60001FFF7C5
:100FD00014FF4CF29C40C0F600004CF2A541C0F654
:100FE0000001FFF70AFF40F69C50C2F200004CF2ED
:100FF0005541C0F60001224601F0F8FF00F0D9FC8F
:1010000040F69855C2F2000500232B604FF4C05003
:10101000C4F20100022105F05FFD30BFFFF79EFE24
:101020000028FBD04FF4C050C4F20100022105F0AB
:1010300055FD4FF4C050C4F20100012105F04CFDF4
:101040004CF2A940C0F60000FFF7B8FE30B14CF2F8
:10105000B040C0F60000FFF7B1FE50B90220FFF724
:10106000BAFE04464FF4C050C4F20100012105F05D
:1010700035FD40F69438C2F200080023C8F800306D
:10108000002CCAD02378412BC7D101242C604FF407
:10109000C050C4F20100022105F020FD4FF4C05001
:1010A000C4F20100214605F019FD2046FFF793FE2A
:1010B0000446FFF771FE40F64436C2F20006B06007
:1010C000A01CFFF769FE7060201DFFF765FE306011
:1010D0000920FFF780FE0446FFF75EFEF060A01CCB
:1010E000FFF75AFE01383061201DFFF755FE6430CE
:1010F0007061304608F024F800F5FD401030FFF72D
:1011000093FD02A8FFF786FD374602AD0FCD0FC74E
:101110000FCD0FC72B683B607269642592FBF5F712
:101120000346F168009140F69830C2F200004CF29C
:10113000B741C0F6000105FB1722013300F068FD3E
:1011400040F66835C2F20005284640F69831C2F2F2
:101150000001122201F073FF002840F09B80284616
:10116000E96802F019F9002840F09480FFF7F6FDD5
:10117000054600283FF444AF4CF2C840C0F60000DA
:10118000FFF71CFE38B90620FFF725FE044603785A
:10119000302B0ED125E04CF2A940C0F60000FFF73D
:1011A0000DFEF0B90220FFF716FE04460378412B2E
:1011B00017D14FF4C050C4F20100022105F08CFC9D
:1011C00040F66830C2F2000040F69831C2F20001E9
:1011D0002A460DAB01F0DAFF00285BD10D9B9D4242
:1011E00058D14CF2CF40C0F60000FFF7E7FD38B908
:1011F0000620FFF7F0FD04460378302B0ED124E0E3
:101200004CF2B040C0F60000FFF7D8FDE8B902206C
:10121000FFF7E1FD04460378412B16D14FF4C0508F
:10122000C4F20100022105F057FC40F66830C2F21A
:10123000000040F69831C2F200012A460DAB01F0E1
:10124000A5FF38BB0D9B9D4224D1BDF83230013340
:101250009BB2ADF832305A2B10D94FF4C050C4F2C3
:101260000100022105F038FC0023ADF8323040F6D1
:101270006830C2F2000002F045F858B94FF4C0508F
:10128000C4F20100022105F029FC0023C8F8003057
:1012900030BF6BE74FF4C050C4F20100022105F0EB
:1012A0001BFC40F66830C2F2000002F06AF8002829
:1012B000F0D1A5E6F7B541F6FC34C2F200044FF4D4
:1012C000165323600023A380E3802381A3810C2392
:1012D00063810520012105F01EFD4FF4003001213E
:1012E00005F025FD0426ADF8046003278DF806708F
:1012F00018238DF807304FF40065C4F20105284625
:101300000DEB060105F09AFB0823ADF804308DF8CB
:1013100006708DF8076028460DEB060105F08EFB80
:101320004FF48845C4F200052846214606F031F8FE
:101330002846012106F090F8284640F22551012266
:1013400006F096F803B0F0BD73B540F20013C2F298
:101350000003197901291A4611D04FF0000408D36F
:10136000022947D141F6FC33C2F200034FF4005189
:101370000BE041F6FC33C2F20003DC8006E041F6EC
:10138000FC33C2F200034FF44051D9805379012B52
:1013900011D04FF0000408D3022B2BD141F6FC33BF
:1013A000C2F200034FF4C0610BE041F6FC33C2F21D
:1013B00000031C8106E041F6FC33C2F200034FF447
:1013C000806119819379072B4FF0000402D0082B1C
:1013D00006D00FE041F6FC33C2F200039C800DE022
:1013E00041F6FC33C2F20003198909B14FF4805170
:1013F000998003E0FFF75EFF204641E041F6FC34B0
:10140000C2F20004136823600023A3810C236381CC
:101410000520012105F07FFC4FF40030012105F08B
:1014200086FC0425ADF8045003268DF806601823C9
:101430008DF807304FF40060C4F201000DEB050198
:1014400005F0FCFA0823ADF804308DF806608DF83D
:1014500007504FF40060C4F201000DEB050105F0E8
:10146000EDFA4FF48840C4F20000214605F091FFE8
:101470004FF48840C4F20000012105F0EDFF012087
:1014800002B070BD70B505460E460446631BB342FC
:1014900011D24FF48840C4F2000014F8011B05F08B
:1014A000FFFF4FF48840C4F20000802106F000F8EE
:1014B0000028F6D0EAE770BDF8B540F6D073C2F266
:1014C000000300221A7041F2D173C2F200031978AE
:1014D00001291E4646D041F2D871C2F200010B68C4
:1014E000B3F5006F08BF0A600B6841F2D472C2F214
:1014F00000021068834202D100233370F8BD41F22C
:10150000DC72C2F200028CBFC3F50060C01A10602A
:1015100041F2DC75C2F200051468402C98B281BF1C
:1015200003F140020A60A4F140032B608FBF402703
:10153000A7B21B190B609CBF00232B6001243470E1
:1015400040F6D173C2F200031844C0213A4606F0B7
:10155000B4FD2046394607F02FF82046BDE8F84094
:1015600006F08FBEF8BD38B540F20013C2F200039A
:101570009B79072B41F2D474C2F200040DD1256887
:101580004FF48840C4F2000005F08EFF40F6D1739E
:10159000C2F2000300F07F000CE0082B0BD125689D
:1015A0004FF48840C4F2000005F07EFF40F6D1738E
:1015B000C2F20003585541F2D473C2F2000322680C
:1015C0000132B2F5006F08BF00221A6038BD08B5BD
:1015D0004FF48840C4F2000040F2255105F06EFF40
:1015E00008B1FFF7C0FF4FF48840C4F200000821A3
:1015F00005F05EFF38B14FF48840C4F20000BDE84A
:10160000084005F051BF08BD07B5FFF7BEF84FF41D
:101610007A70FEF76CFF00F0ACFD41F61840C2F2A4
:1016200000004CF2FC41C0F6000100F07CFE41F6E7
:101630001840C2F2000000F085FE00F07FFD00209F
:1016400001464CF2D642C0F60002012300F0E6FC4F
:10165000FFF7CDF80020FFF7EDF8FFF7E0F84FF4C3
:10166000C06005F08FF914238DF8043001248DF843
:10167000054000258DF806508DF8074001A805F0BB
:101680008BF926238DF804308DF8055001A805F05C
:1016900083F906F0F2FB2046FFF7CCF841F6907391
:1016A000C2F200031B68052BF8D1FEE707B5FFF770
:1016B0006CF84FF47A70FEF71AFF00F05AFD41F60D
:1016C0001840C2F200004CF2FC41C0F6000100F0EC
:1016D0002AFE41F61840C2F2000000F033FE00F08E
:1016E0002DFD002001464CF2E842C0F60002012325
:1016F00000F094FCFFF77BF80020FFF79BF8002038
:1017000004F0B8F9FFF78BF84FF4C06005F03AF930
:1017100014238DF8043001248DF805408DF806401F
:101720008DF8074001A805F037F913238DF8043030
:101730008DF8054000238DF806308DF8074001A88C
:1017400005F02AF906F099FB2046FFF773F841F6F9
:101750009073C2F200031B68052BF8D1FEE72DE958
:10176000F34105468846022869D141F2E474C2F289
:1017700000044FF48843C4F20003236005200121D4
:1017800005F0C9FA4FF40030012105F0D0FA042623
:10179000ADF8006003278DF8027018238DF8033030
:1017A0004FF40060C4F20100694605F047F90823D0
:1017B000ADF800308DF802708DF803604FF40060D2
:1017C000C4F20100694605F039F94FF4C06005F034
:1017D000D9F826238DF8043001268DF805608DF8A0
:1017E00006508DF8076001A805F0D6F841F6FC35E3
:1017F000C2F20005284605F024FEC5F800802068E6
:10180000294605F0C6FD41F2E072C2F2000241F243
:10181000EC73C2F2000313600022C3F80424C3F87F
:101820000024C3F80C24C3F80824206840F2255192
:10183000324605F01DFE2068314605F00DFE02B06F
:10184000BDE8F081D0F80834D0F80C040133C3F3BC
:101850000803181A18BF0120704770B504460E46D9
:10186000FFF7F0FF0546A8B1D4F8083472B6E218C5
:1018700082F800620133C3F30803C4F8083462B687
:1018800041F2E473C2F20003186840F227710122AA
:1018900005F0EEFD284670BD024672B6D0F804345D
:1018A000C05CC0B2D2F804340133C3F30803C2F8F9
:1018B000043462B6704738B5054641F2E073C2F2AF
:1018C00000031C682046FFF7BDFF0028F5D0204626
:1018D0002946BDE83840FFF7C0BF41F2E073C2F2CD
:1018E00000031868D0F80024D0F804349A4201D0DC
:1018F000FFF7D2BF0020704770B54FF48840C4F2A4
:10190000000040F2255105F0D9FD10B341F2EC740E
:10191000C2F20004D4F800540135C5F30805D4F828
:1019200004644FF48840C4F2000005F0BDFDC0B26D
:10193000B54209D14FF48840C4F2000040F225516D
:10194000002205F095FD04E0D4F80034E054C4F81A
:1019500000544FF48844C4F20004204640F227713A
:1019600005F0ACFDF0B141F2EC73C2F20003D3F824
:101970000C24D3F80814914207D1204640F2277175
:101980000022BDE8704005F073BDD3F80C241A4462
:1019900092F80022A280D3F80C240132C2F308028C
:1019A000C3F80C2470BD41F2E873C2F200031B6857
:1019B000184741F2E073C2F200031B680022C3F82B
:1019C0000424C3F8002441F2E473C2F2000318684F
:1019D00040F22551012205F04BBD41F2E073C2F205
:1019E00000031B68D3F80C24D3F80804831A584268
:1019F0005841704710B504460A2802D10D20FFF760
:101A0000F9FF41F60C43C2F200031A681AB1511CE7
:101A10001960147010BD41F61043C2F200031B6838
:101A20001BB1E0B2BDE81040184710BD10B5441E10
:101A300014F8010F18B140B2FFF7DCFFF8E710BD52
:101A40002DE9F04F85B002460E461078002800F0D0
:101A5000CF8040B2252801D0541C70E0537859B291
:101A6000302903D1D41C9378012707E02D2919BF11
:101A7000941C0027D41C937808BF02270025A3F1EB
:101A80003002092A08D85BB20A2202FB0533A3F10F
:101A9000300514F8013BF2E7214623F0200252B250
:101AA0004C2A02BF47F0040701340B78002B00F0EA
:101AB0009F8058B26028C4BF203BDBB25BB24F2B83
:101AC00013D006DC432B31D0442B3ED0422B3AD0EE
:101AD00035E0552B39D0582B2FD0532B2FD106F171
:101AE0000408D6F800904B4601E008222EE0C9EB2E
:101AF000030613F8012B002AF9D1B90709D406F11E
:101B0000010AAE4204D22020FFF774FF5646F4E7E4
:101B100056464846FFF78AFFAE4202D34646224663
:101B200093E72020FFF766FF0136F5E706F104088A
:101B300096F90000FFF75EFFF0E7102206E0FFF7DE
:101B400059FFB046EAE7022200E00A22316806F1B6
:101B50000408442B04D10029BCBF494247F00807C0
:101B60000026B1FBF2FE02FB1E137146092BDBB20D
:101B700007D978280CBF4FF0270C4FF0070C6344AF
:101B8000DBB201360DEB060C30330CF8013CBEF134
:101B9000000F01D0102EE4D13A0741BF04AB9B19CE
:101BA0002D2203F8102C48BF013617F0010F14BF87
:101BB0004FF0300B4FF0200BB146BB0709D409F1B1
:101BC000010AA94504D25846FFF714FFD146F4E7AD
:101BD000D146013E1DF90600FFF70CFF002EF8D19B
:101BE000A9459BD22020FFF705FF09F10109F7E77E
:101BF00005B0BDE8F08F0FB407B504A951F8040B88
:101C00000191FFF71DFF03B05DF804EB04B07047CE
:101C10000EB417B505A951F8043B41F60C44C2F2C5
:101C20000004206001911846FFF70AFF2268002394
:101C30001370236003B0BDE8104003B0704770B567
:101C400096B04FF48070012105F059F840F2E11090
:101C5000012105F060F84FF4FF43ADF81C30182364
:101C60008DF81F3003238DF81E304FF4C050C4F29E
:101C7000010007A904F0E2FE1025ADF81C504FF456
:101C8000A054C4F20104204607A904F0D7FE202383
:101C9000ADF81C30204607A904F0D0FE4FF40063D5
:101CA000ADF81C30204607A904F0C8FE4023ADF86B
:101CB0001C308DF81F50204607A904F0BFFE80237A
:101CC000ADF81C30204607A904F0B8FE4FF480762A
:101CD000ADF81C604FF44064C4F20104204607A92B
:101CE00004F0ACFE2046314604F0F6FE02230093D9
:101CF0000193029305230393049305930023069312
:101D000004240794089309930A950B930C930D935D
:101D10000E930F934FF480521092119312931393DA
:101D2000CDF850D0CDF854D007A804F0D9FE204605
:101D3000012104F03BFF16B070BD0A460146134670
:101D400000F0DBB92DE9F04F85B081468A469B460D
:101D500041F62444C2F2000423685F7A4FEAD708B0
:101D600007F007071078537843EA002000F0FBFAE9
:101D7000054609EBC8039BB20093002623689B7AB3
:101D80009E423EDA0022424520DA09EBC20C1FFADD
:101D90008CFC0023A95C9940090612D503920CEB38
:101DA00003000293CDF804C00AEB060180B289B2A9
:101DB000FFF7C3FF584600F097F9039A029BDDF83E
:101DC00004C00133082BE5D10132DCE74544002390
:101DD000BB4212DA2A789A4012060CD5009AD01823
:101DE00001930AEB060180B289B2FFF7A6FF5846BD
:101DF00000F07AF9019B0133EAE707B101350136BA
:101E0000BCE705B0BDE8F08F2DE9F04F85B0814605
:101E10008A469B4641F62044C2F2000423685F795B
:101E20004FEAD70807F00707104600F091FA054679
:101E300009EBC8039BB20093002623689B799E425E
:101E40003EDA0022424520DA09EBC20C1FFA8CFC74
:101E50000023A95C9940090612D503920CEB0300FC
:101E60000293CDF804C00AEB060180B289B2FFF7F5
:101E700064FF584600F038F9039A029BDDF804C06D
:101E80000133082BE5D10132DCE745440023BB4296
:101E900012DA2A789A4012060CD5009AD0180193CB
:101EA0000AEB060180B289B2FFF747FF584600F0FF
:101EB0001BF9019B0133EAE707B101350136BCE7A5
:101EC00005B0BDE8F08F2DE9F74F83460F469946E0
:101ED000BDF830A041F62445C2F200052B685E7AB9
:101EE0004FEAD60806F0070301931078537843EAC7
:101EF000002000F038FA04462B68597A59449B7A3E
:101F00003B44584601393A46013B00F0F6F80026BA
:101F10002A68927A96422ADA27463A1B424512DA12
:101F20004FF0000B3A7802FA0BF212F0800F14BF58
:101F30004846504600F0D8F80BF1010BBBF1080FF2
:101F4000F0D10137E9E744440027019B9F420ADAB8
:101F50002278BA4012F0800F14BF4846504600F075
:101F6000C3F80137F1E703B101340136D0E703B01C
:101F7000BDE8F08F2DE9F74F83460F469946BDF82F
:101F800030A041F62045C2F200052B685E794FEA89
:101F9000D60806F007030193107800F0D9F904463B
:101FA0002B68597959449B793B44584601393A4644
:101FB000013B00F0A2F800262A68927996422ADABC
:101FC00027463A1B424512DA4FF0000B3A7802FAE4
:101FD0000BF212F0800F14BF4846504600F084F810
:101FE0000BF1010BBBF1080FF0D10137E9E74444D5
:101FF0000027019B9F420ADA2278BA4012F0800F34
:1020000014BF4846504600F06FF80137F1E703B1BE
:1020100001340136D0E703B0BDE8F08FF7B50446D0
:102020000E4615461F462A78002A42D07F2C42D8F9
:102030009F2E40D882F080031F2B40F21C03C2F277
:10204000000301D9DF2A19D93FB91B682046314660
:102050002A461B88FFF776FE08E01A681388528824
:102060000092204631462A46FFF72DFF023541F601
:102070002443C2F200031B685B7A17E037B91B6880
:10208000204631461B88FFF7BFFE08E01A68138818
:1020900052880092204631462A46FFF76BFF0135F1
:1020A00041F62043C2F200031B685B791C44A4B2D2
:1020B000B9E7012000E0002003B0F0BD38B54FF4CF
:1020C000A054C4F20104402525616420FEF75BFAA8
:1020D0006561802363616420FEF755FA2561642001
:1020E000BDE83840FEF74FBA02090023C6F60203E6
:1020F0001A80000180B21880704770B54FF0D0464A
:102100004FF4287434800024C6F60204002525808C
:10211000C0B2000120802580C9B2090121804FF49E
:102120002C7131802580D2B2120122802580DBB251
:102130001B0123804FF43073338070BD07B500203E
:102140007F2102469F23FFF7D8FF4FF4A04301935E
:102150000023C6F6020340F6FF721A804FF6F072B3
:102160001A80019B013B0193002BF1D103B05DF874
:1021700004FB2DE9F843FFF762FDFFF79FFF4FF0E7
:10218000D04410252580B420FEF7FDF94FF480736C
:1021900023806420FEF7F7F94FF48873238096209C
:1021A000FEF7F1F94FF4316323800023C6F60203F2
:1021B00060261E803020188020221A804FF434615F
:1021C000218018804FF4366121801A804FF0E00C96
:1021D000A3F800C04FF4756121804FF4D0711980CD
:1021E0004FF4406EA4F800E01A80002119804FF4EB
:1021F0004167278050271F804FF4426727801A804D
:102200001A804FF4436727801D801A804FF444677B
:1022100027801D801A804FF4456727804FF48E6712
:102220001F804FF468771F804FF47268A4F8008015
:102230001A804FF47668A4F800804FF49868A3F8E9
:1022400000804FF47868A4F800801E804FF4606826
:10225000A4F800801E804FF4E078A3F800804FF4CB
:10226000F878A3F80080A3F800804FF4C078A3F8B2
:1022700000804FF49879A3F800901E801880188091
:102280004020188070201880188019804FF46166F3
:102290002680A0261E804FF4A0761E804FF4D876AC
:1022A0001E80A3F800804FF490761E80A3F800C033
:1022B0001A801D8019801D8080221A801880198044
:1022C0004FF458722280A3F800E027804FF4AA62EE
:1022D0001A804FF4547222801980FFF72FFF4FF4B9
:1022E000247323801420BDE8F843FEF74CB970B581
:1022F00041F62443C2F200031968CD7A1422002368
:10230000AB420BDA0C68A61836F8026C864202D88B
:10231000A45A844205D201330432F1E74FF0FF3072
:1023200070BD184670BD01608B7B4371CA7B8271A2
:1023300013F0070F4FEAD30314BF03FB02235343E9
:102340000371704741F62043C2F2000318607047E2
:1023500041F62043C2F200031A6813795843113042
:1023600013681844704710B50446FFF7C0FF431CBC
:1023700005D148F2A010FFF7BAFF48F2A01441F6C9
:102380002443C2F200031B6803EB400291891A68E0
:1023900002EB8000408A241A0C44187A5B6800FB28
:1023A000043010BD01380A44914204D011F8013BB9
:1023B00000F8013FF8E770470244904202D000F86D
:1023C000011BFAE7704710B5036893B11A4614462B
:1023D00012F8011B20290AD93A29F8D11A4612F815
:1023E000011B944205D1302903D102330360002040
:1023F00010BD4FF0FF3010BD08B580B1036873B158
:102400001A7862B1D9888288914208D1587802F04E
:1024100091FC10F0010F0CBF0020092008BD09201D
:1024200008BDCA7E8B7E43EA0223032801BF487D94
:102430000A7D42EA002243EA024318467047F8B593
:102440000446056B00F13407407839462A460123DB
:1024500002F0D2FCA0B92071636AEB1AE2699342E0
:1024600001D30020F8BDE678012EFAD9E3691D44B6
:10247000607839462A46012302F0BEFC013EF3E7AC
:102480000120F8BD03790BB1FFF7D9BF184670479B
:10249000F8B50446FFF7F6FF0546002D52D1237824
:1024A000032B47D16679012E44D104F13407384615
:1024B00029464FF40072FFF77FFF552384F832322C
:1024C000AA2384F83332522384F8343084F8353028
:1024D000612384F83630412284F83720722184F851
:1024E000181284F8191284F81A2284F81B3222690F
:1024F00084F81C22C2F3072384F81D32130C84F8DD
:102500001E32120E84F81F22E26884F82022C2F3E1
:10251000072384F82132130C84F82232120E84F837
:102520002322226A0132226360783946334602F060
:1025300063FC6571607800210A4602F0ABFC003054
:1025400018BF0120F8BD70B506460D46036B9942D1
:1025500011D0FFF797FF044670B9707806F1340187
:102560002A46012302F0FAFB00281CBF01244FF089
:10257000FF35356300E00024204670BD10B50446E9
:10258000002303714FF0FF330363FFF7DCFF98BBB9
:1025900094F8332294F8323243EA02234AF6552261
:1025A00093422BD194F86D2094F86C301B0443EACD
:1025B000026394F86A20134394F86B2043EA0223E1
:1025C00023F07F4344F24612C0F25402934216D0E5
:1025D00094F8890094F888301B0443EA006094F86A
:1025E0008630034394F8870043EA002020F07F40C0
:1025F000801A18BF012010BD032010BD022010BD9D
:10260000F0B585B007461546002303600846FFF77E
:10261000DAFE061EC0F26F8141F62C43C2F20003BF
:1026200053F82640002C00F068813C60237883B189
:10263000607802F07FFBC7070BD4002D00F05F81AC
:1026400000F0040303F0FF00002B00F060810A207B
:102650005DE100232370F0B2607002F05BFBC607FF
:1026600000F14F810DB14107F1D420460021FFF761
:1026700085FF012827D12146002091F8F6316BB162
:1026800091F8FD2191F8FC311B0443EA026391F8B3
:10269000FA21134391F8FB2143EA02234DF820303D
:1026A000013010310428E8D100265DF826502DB104
:1026B00020462946FFF762FF08B90BE002200136E9
:1026C000042EF2D11FE10025032800F01F8108B17C
:1026D0000D201CE194F8402094F83F3043EA022397
:1026E000B3F5007FF4D194F84B0094F84A3053EAE4
:1026F00000200DD194F85B0094F85A301B0443EA93
:10270000006394F85800034394F8590043EA00200A
:10271000E06194F84460E670731E012BD8D894F8F9
:102720004130A370002BD3D05A1E1A42D0D194F856
:10273000467094F8452042EA072727813A07C7D117
:1027400094F8481094F8472052EA01220DD194F8E9
:10275000571094F85620120442EA016294F854107B
:102760000A4394F8551042EA012294F843E094F8A1
:10277000421051EA0E21ABD006FB00FE01EB171C04
:10278000F4446245A4D3CCEB0202B2FBF3F3002B7A
:102790009ED040F6F572934206D94FF6F576B342D5
:1027A0008CBF0326022600E001260233A3612562C6
:1027B0006A1862620CEB0501E162032E12D1002F50
:1027C00086D194F8631094F86220120442EA016200
:1027D00094F860100A4394F8611042EA0122A26260
:1027E0009B000EE0002F3FF473AF7244A262022EF2
:1027F0004FEA43020FBF1346D21803F0010303EB65
:10280000520303F2FF13B0EB532FFFF461AF4FF00D
:10281000FF332361E36080236371032E5ED194F85C
:10282000652094F8643043EA0223012B56D12046F8
:10283000691CFFF788FE002850D1607194F833229C
:1028400094F8323243EA02234AF65522934245D1A4
:1028500094F8372094F836301B0443EA026394F866
:102860003420134394F8352043EA022345F25222E0
:10287000C4F26112934231D194F81B2294F81A32B7
:102880001B0443EA026394F81822134394F81922B4
:1028900043EA022347F27222C6F2411293421DD14B
:1028A00094F81F2294F81E321B0443EA026394F842
:1028B0001C22134394F81D2243EA0223236194F857
:1028C000232294F822321B0443EA026394F8202264
:1028D000134394F8212243EA0223E360267041F671
:1028E0002842C2F20002138801339BB21380E380B6
:1028F000002060610BE00B2009E00C2007E0284677
:1029000005E0032003E003287FF4E2AE012005B0D8
:10291000F0BD02398369023B99423DBF8278C36AA8
:1029200002FB013000207047F8B506460C4601292D
:102930005FD9836999425CD20378022B29D0032B9B
:102940003AD0012B55D101EB5105416A01EB5521DC
:10295000FFF7F9FD10B14FF0FF30F8BD6F1CC5F364
:102960000805354495F83450716A304601EB57211B
:10297000FFF7E9FD0028EED1C7F308073E4496F8BB
:10298000340045EA0020E3074CBF0009C0F30B0008
:10299000F8BD416A01EB1421FFF7D5FD0028DAD11B
:1029A000640004F4FF74331993F83430344494F819
:1029B000350043EA0020F8BD416A01EBD411FFF76E
:1029C000C2FD0028C7D1A30003F4FE74331993F8A5
:1029D000362093F837003433000640EA02405B7833
:1029E00040EA0320344494F83430184320F0704017
:1029F000F8BD0120F8BDF8B505460E46E9808468AB
:102A0000012C01D10220F8BD03689A699442F9D2E1
:102A100054B91A78032A01D19A6A22B91A899642BE
:102A2000F0D2986A17E014469F783F012146BE42D3
:102A30000DD32868FFF778FF0146431C1AD0012800
:102A4000E0D92B689B699842DCD2F61BEFE70C4675
:102A50002868FFF75EFFEC600028D3D000EB16106B
:102A6000286106F00F062B6803EB461634366E61BC
:102A70000020F8BD0120F8BD2DE9F04106460C46C6
:102A80001546012970D9836999426DD20378022BCA
:102A900039D0032B48D0012B66D101EB5107416A95
:102AA00001EB5721FFF74FFD00285ED107F1010828
:102AB000C7F3080714F001043744EBB21FBF97F8BF
:102AC000342002F00F0242EA0313DBB287F83430FD
:102AD00001233371716A304601EB5821FFF733FD52
:102AE000002842D1C8F30803334414B1C5F30715D5
:102AF00006E093F8342022F00F02C5F303251543B6
:102B000083F834502CE0416A01EB1421FFF71BFDE0
:102B100058BB640004F4FF74331983F83450C5F3D0
:102B2000072583F835501BE0416A01EBD411FFF70C
:102B30000AFDD0B9A40004F4FE74331993F83720C9
:102B4000120602F07042154383F83450C5F3072291
:102B500083F835202A0C83F836202D0E83F8375061
:102B600001233371BDE8F0810220BDE8F081F8B5A2
:102B700005460F4631B9C66896B183699E4228BFA3
:102B800001260EE0FFF7D0FE01283FD9441C02D1F8
:102B90004FF0FF30F8BDAB69984238D33E4600E0B5
:102BA000012634460134AB699C4204D3012E01D87E
:102BB0000020F8BD022428462146FFF7B5FE30B1BB
:102BC000411C24D0012822D0B442EBD1F0E72846A2
:102BD00021466FF07042FFF74FFFA8B957B9EC607C
:102BE0002B695A1C0ED0013B2B616B7943F001031A
:102BF0006B7107E0284639462246FFF73DFF002863
:102C0000EDD001E02046F8BD0128C1D00120F8BD7B
:102C10002DE9F84304460F46C6880136B3B213B90E
:102C20000420BDE8F8830369002BF9D016F00F08E3
:102C300059D101330361C168006819B903899E4203
:102C4000EED250E08378013B13EA16134BD1FFF725
:102C50006BFE0546012802D80220BDE8F883421C1D
:102C600002D10120BDE8F883206883699D4234D3F6
:102C7000002FD5D0E168FFF77AFF054600283BD04A
:102C80000128E9D0431CECD02068FFF7FBFB074686
:102C90000028E6D12068343039464FF40072FFF73F
:102CA0008BFBD4F8009048462946FFF732FEC9F85E
:102CB000300023689A7897420CD201221A7120685A
:102CC000FFF7E0FB0028CCD12268136B01331363BC
:102CD0000137EEE71A6BD71B1F63E56020682946B2
:102CE000FFF717FE2061E680236803EB48133433B7
:102CF00063610020BDE8F8830720BDE8F883F8B5DC
:102D000005460C4691F900302F2B01D05C2B02D1E7
:102D10000134002301E003685B69AB6023781F2B5B
:102D200008D828460021FFF766FE00236B61F8BD36
:102D30005C2B06D12746237801345BB22F2BF7D1C9
:102D4000F8E7AE69304620210B22FFF735FB97F9F3
:102D500000302E2B1BD1791E721E0024013411F875
:102D6000013F2E2B05D1032C00F0BF8002F8013F5C
:102D7000F4E72F2B04D05C2B02D0202B00F2B5807F
:102D80003C44212B34BF24232023F37267E000242A
:102D900022464FF0080E2146531C17F802C05FFA76
:102DA0008CF0202840F2BE802F283DD05C283BD0FC
:102DB0002E2800F09C80744580F097801CF0800FD6
:102DC00018BF41F0030100F17F0C5FFA8CFCBCF1ED
:102DD0001E0F06D900F1200C5FFA8CFCBCF11C0F11
:102DE00016D8023217F803C0ACF140033E2B03D9CA
:102DF0008CF080037C2B78D80EF1FF339C4274D288
:102E0000631C305506F803C0023413461A46C3E764
:102E10004CF60F7CC0F6000C1CF8012F002A6FD076
:102E200052B28242F8D160E00022002C5DD03078AE
:102E3000E52804BF05203070BEF1080F04BF8900EB
:102E4000C9B201F00300012808BF42F0100201F0EE
:102E50000C01042908BF42F00802FC18F27228464F
:102E60000021FFF7C8FDD8B928682969FFF76BFB77
:102E7000B0B96B691A7892B1DA7A11070AD4AA69E3
:102E800003F10B07BB420BD013F8016B12F8011BC7
:102E90008E42F7D028460021FFF7BAFEE3E7042070
:102EA000AB69DB7A98B104283ED113F0200F03F010
:102EB000040307D00022AA606A61002B3FF43AAFF6
:102EC0000020F8BD002B14BF04200520F8BD5A07D0
:102ED000F6D46969CB7ADB0605D52B681878FFF73D
:102EE000A0FAA86026E70520F8BD0620F8BDBEF1CF
:102EF000080FFAD18900C9B274464FF00B0E85E76E
:102F0000A0F14102192A02D841F0020107E0A0F124
:102F10006102192A9EBF41F001012038C0B230552C
:102F2000013473E7042280E7F8BD10B504460021A0
:102F3000FFF761FD70B920682169FFF704FB48B90C
:102F400063691B78E52B08D03BB120460121FFF7D0
:102F50005FFEEFE7042808BF072010BD38B5044620
:102F6000FFF7E3FF054690B920682169FFF7EBFA08
:102F7000054660B9606929462022FFF71DFA60699D
:102F8000A1690B22FFF70EFA236801221A71284665
:102F900038BD70B504460D46012901D8022070BD28
:102FA00083699942FAD2A3699D4205D220462946F7
:102FB000FFF7BAFC064608B9002070BD0128EDD025
:102FC000411C11D0204629460022FFF755FD60B96B
:102FD00023695A1C1FBF01332361637943F0010346
:102FE00018BF63713546DEE7012070BD1FB5019043
:102FF0000091144604A840F8041DFFF7E4F9011EEF
:1030000018DB41F62C43C2F2000353F8210008B14B
:1030100000220270019808B100220270019843F862
:10302000210050B1012C07D101A869460022FFF709
:10303000E7FA02E00B2000E0002004B010BD2DE90B
:10304000F0438DB0019114460646002800F09480AC
:103050000023036005A801A902F01E02FFF7D0FAC1
:10306000002840F0908002AB0B9305A80199FFF770
:1030700046FE0A9D10B9002D08BF062004F01F0768
:1030800014F01C0F48D048B1042802D105A8FFF75E
:1030900065FF47F008070A9D30B174E0EB7A13F042
:1030A000110F6FD1630769D43C073ED5FDF7D9FEF8
:1030B000C1B2A973C0F30722EA73C0F307432B74AC
:1030C000000E6874A975EA752B7668760024EC7298
:1030D0002C776C77AC77EC77DDF8148098F80000EB
:1030E0002946FFF79EF9AC76EC762C756C750123BA
:1030F00088F804300446C0B1D8F8309040462146E4
:10310000FFF747FF00283ED10598013CC4604946BF
:10311000FFF719FA48B136E0002834D1EB7AD80627
:103120002ED4A10701D5DA072CD43B0748BF47F0BE
:103130002007DDF81480D8F83030F3613562B771BC
:103140000024F47198F800002946FFF76AF930610D
:10315000EA7FAB7F1B0443EA02632A7F13436A7F43
:1031600043EA0223F360B460B461C6F80080B8F8A3
:103170000630B380204606E0092004E0082002E083
:10318000042000E007200DB0BDE8F0832DE9F84FE2
:1031900004460F46164698460023C8F80030FFF74D
:1031A0002BF9002840F0AC80E079002840F0A8809E
:1031B000A3799A0740F1A380A368DE4228BF0026C6
:1031C000AEB1A268C2F30803002B6BD120688378EC
:1031D000013B03EA522313F0FF0A1CD112B9216903
:1031E00059B900E06169FFF7C2FC014628B9A3683C
:1031F000E26893427CD9E3607AE0012901D10220A0
:1032000002E04B1C03D10120E071BDE8F88F616141
:10321000236903B921612068026BA3699A4203D133
:10322000FFF730F90028EED1D4F800B058466169B4
:10323000FFF76FFB0028E2D000EB0A09750A23D0E4
:103240009BF8023005EB0A029A4288BFCAEB0305DD
:103250009BF8010039464A462B4601F0CDFD8246D7
:103260000028D0D12068016BC9EB0101A94209D225
:10327000343007EB41214FF40072FFF793F82368D5
:1032800083F804A06D0228E0A268E3689A4207D39D
:103290005846FFF7F7F80028B5D12368C3F83090F7
:1032A000C4F81890A568C5F30805C5F50075B542C2
:1032B00028BF35462068A169FFF745F90028A2D14B
:1032C000A068C0F3080023681844343039462A4601
:1032D000FFF768F8236801221A712F44A3682B4472
:1032E000A360D8F800302B44C8F80030761B67E79D
:1032F000A37943F02003A3710020BDE8F88F0720D5
:10330000BDE8F88F70B50546FFF776F8002837D18D
:10331000AB799B0634D52868E969FFF714F90646AE
:1033200076BB2C6AE37A43F02003E372EB682377E1
:10333000AB891B0A6377EB89A377EB7BE3772B6978
:10334000A376C3F30722E2761B0C23751B0A637571
:10335000FDF787FDA075C0F30723E375030C237603
:10336000000E6076A674E674AB7923F02003AB718F
:103370002B6801221A712868BDE87040FFF788B8F1
:1033800070BD10B50446FFF7BDFF20B92046FFF71A
:1033900033F800B9206010BD70B504460D46FFF744
:1033A0002BF8002870D1E07900286DD1E3689D42A8
:1033B00004D9A27912F0020F08BF1D46A3680022AB
:1033C000A2600DB900254EE02068867876026BB1C8
:1033D000013B6A1EB2FBF6F2B3FBF6F18A4205D35B
:1033E00072421340A360ED1A61690FE0216961B96F
:1033F000FFF7BDFB0146012801D1022002E00130A8
:1034000002D10120E07170BD216161610029D9D034
:10341000B5421AD9A37920689A0704D5FFF7A7FB0C
:10342000014618B910E0FFF77FFA01464B1CE8D0BF
:103430000129E2D923689B699942DED26161A368C0
:103440003344A360AD1BE3E73546A3682B44A36078
:10345000C5F30803002BB5D02068FFF75AFA0028FF
:10346000CBD000EB5525A368C3F308021AB1A269BB
:10347000954218BFA561E268934281BFE360A379DA
:1034800043F02003A371002070BD08B54FF4004342
:10349000C4F201035A6B12F0450FFBD0510704D55B
:1034A000042003F060FF032008BDD30704D50120EA
:1034B00003F059FF012008BD40F2FF5003F053FF15
:1034C0002A2008BD37B5054600230093019341F635
:1034D0003070C2F2000041F62872C2F20002126897
:1034E000120402600D22426040228260C3604FF4E9
:1034F0008063036103F0E6FE4FF40043C4F201036E
:103500005A6B0192019A12F0450FF9D0019B5907AD
:1035100004D5042003F027FF032084E0019810F075
:10352000010404D0012003F01EFF01207BE003F022
:10353000DFFE0190019B0D2B01D0102073E040F2C3
:10354000FF5003F010FF204603F0D9FE0090009BCF
:10355000C3F343232B70009A4EF20803CFF6FF53B8
:103560001340002B3CD0009B002B3BDB009B5A0000
:103570003AD4009B9B0039D4009BDD0038D4009BDB
:103580001C0137D4009B590136D4009BDA0135D495
:10359000009B1B0234D4009B5D02CED4009B9C0296
:1035A00030D4009BD9022FD4009B1A032ED4009B49
:1035B0005B032DD4009B9D032CD4009BDC032BD4F8
:1035C000009B19042AD4009B5A0429D4009B9B0415
:1035D00028D4009B13F0080F14BF1A202A2022E0E1
:1035E0002A2020E01C201EE009201CE00A201AE00E
:1035F0000B2018E00C2016E00D2014E00E2012E045
:103600000F2010E011200EE012200CE013200AE041
:10361000142008E0152006E0162004E0172002E040
:10362000182000E0192003B030BD70B506460D46E5
:103630004FF47040C1F2000003F00AFD40F2444430
:10364000C4F202042046002103F0EAFC41F6FC61CA
:10365000C2F200014E6000238B60AD08CD602046B1
:1036600003F0C0FC20460121BDE8704003F0D8BC47
:1036700070B506460D464FF47040C1F2000003F0ED
:10368000E7FC40F24444C4F202042046002103F067
:10369000C7FC41F6FC61C2F200014E6010238B6052
:1036A000AD08CD60204603F09DFC20460121BDE819
:1036B000704003F0B5BC38B505464FF40043C4F282
:1036C0000103586B10F0450FFBD0410704D50420CF
:1036D00003F049FE032038BD10F0010404D001209E
:1036E00003F041FE012038BD03F002FEA84201D0E4
:1036F000102038BD40F2FF5003F035FE204603F0A5
:10370000FEFD4EF20803CFF6FF5303404BB30028F3
:1037100029DB420029D4830029D4C50029D404011F
:1037200029D4410129D4C20129D4030229D4450254
:10373000DED4840227D4C10227D4020327D4430352
:1037400027D4850327D4C40327D4010427D44204F3
:1037500027D4830427D410F0080F14BF1A202A207E
:1037600038BD2A2038BD1C2038BD092038BD0A20AC
:1037700038BD0B2038BD0C2038BD0D2038BD0E20C3
:1037800038BD0F2038BD112038BD122038BD1320A0
:1037900038BD142038BD152038BD162038BD17207F
:1037A00038BD182038BD192038BD2DE9F34707462C
:1037B0004FF00009CDF80090CDF8049041F6307438
:1037C000C2F200044FF008084FF0100A84E8000528
:1037D0004026A660C4F80C904FF480652561204611
:1037E00003F070FD5046FFF766FF2A2840F0858001
:1037F00041F62873C2F200031B6803FA0AF3236040
:103800004FF0370AC4F804A0A660C4F80C902561F4
:10381000204603F057FD5046FFF74DFF2A286CD194
:1038200041F63040C2F200004FF6FF73C0F20F03C2
:1038300080E80801302383600223C360C0F8109041
:103840000123436103F068FDC4F800904FF0330892
:10385000C4F80480A660C4F80C902561204603F0EB
:1038600031FD4046FFF727FF2A2846D1ADF1040479
:103870004FF40043C4F201035A6B40F22A63134031
:1038800053B94FF4001003F064FD0028F0D003F0AA
:1038900059FD44F8040FEBE7082003F05AFD20B16E
:1038A000082003F060FD042027E0022003F051FD12
:1038B00020B1022003F057FD02201EE0202003F07B
:1038C00048FD20B1202003F04EFD062015E04FF406
:1038D000007003F03EFD28B14FF4007003F043FD8B
:1038E00007200AE040F2FF5003F03DFD009B1BBAA9
:1038F0007B60019B1BBA3B602A2002B0BDE8F087C9
:103900002DE9F341044600200090019003F0F7FCFC
:1039100010F000755DD16846FFF747FF41F6584348
:10392000C2F20003009A1A60019A5A602A2853D101
:10393000012C21D152034ED541F63074C2F200045D
:1039400041F62873C2F200031B681B04236037266C
:1039500066604FF04008C4F80880E5604FF4806767
:103960002761204603F0AEFC3046FFF7A4FE2A286C
:1039700032D1022323601FE0D3032CD541F63074EB
:10398000C2F2000441F62873C2F200031B681B0454
:103990002360372666604FF04008C4F80880E56071
:1039A0004FF480672761204603F08CFC3046FFF718
:1039B00082FE2A2810D1256006266660C4F8088099
:1039C000E5602761204603F07DFC3046FFF773FE7B
:1039D00002E00E2000E0252002B0BDE8F0812DE9D4
:1039E000F84F41F6E460C2F20000B22303750025EF
:1039F000056045608560C560056103F026FC032015
:103A000003F040FC012003F038FC41F63074C2F2B0
:103A1000000425606560A560E5604FF48063236164
:103A2000204603F04FFC4FF48035802003F091FCDA
:103A3000002878D1013DF8D172E05BB1013B4FF431
:103A40000042C4F20102526B12F0450FF5D0002B78
:103A500040F08580042003F086FC0027276037258E
:103A600065604023A360E7604FF48063236141F603
:103A70003070C2F2000003F025FC2846FFF71BFE61
:103A800000262660372565604023A360E6604FF47A
:103A90008063236141F63070C2F2000003F012FC33
:103AA0002846FFF708FE2A2840F0908041F630753E
:103AB000C2F200054FF000084FF0370B84E8000910
:103AC0004FF0400AC4F808A0C4F80C804FF4806995
:103AD000C4F81090284603F0F5FB5846FFF7EBFDBD
:103AE0002A2873D147F0104343F480132B60292315
:103AF0006B60C5F808A0C5F80C80C5F81090284682
:103B000003F0E0FB4FF40043C4F20103586B10F0E4
:103B1000450FFBD010F004052AD0042003F023FC4D
:103B20000320BDE8F88F40F2FF5003F01CFC4FF477
:103B3000D57008214022002384E80F004FF48063F1
:103B4000236141F63070C2F2000003F0BBFB4FF47A
:103B50000043C4F201035A6B4FF4803374E75607F5
:103B60003FF578AF550628D5402003F0FCFB24E054
:103B700040F2FF5003F0F7FB284603F0C0FB41F68C
:103B80004473C2F200031860013600284FF6FF7339
:103B900002DB9E428AD10AE09E4208D0440009D549
:103BA00041F6CC63C2F2000302221A6002E01B203D
:103BB000BDE8F88F2A20BDE8F88F41F6CC63C2F249
:103BC000000301221A604FF0804759E7BDE8F88FE3
:103BD00038B503F05DFB002800F0A68041F6CC6408
:103BE000C2F200042368042B28D041F63070C2F2E0
:103BF00000000025056002234360C0238360C56088
:103C00004FF48063036103F05DFBFFF73EFC2A285D
:103C100040F09580284603F072FB41F6D065C2F271
:103C200000052860042003F06AFB6860082003F0A8
:103C300066FBA8600C2003F062FBE8602368022B9F
:103C400001D9062B3CD141F63070C2F200000023AE
:103C500003600322426040228260C3604FF48063AD
:103C6000036103F02FFB4FF40043C4F20103586BD0
:103C700010F0450FFBD0450704D5042003F073FB7B
:103C8000032038BD10F0010504D0012003F06BFBC8
:103C9000012038BD03F02CFB03284BD140F2FF502C
:103CA00003F061FB284603F02AFB10F4604F01D1BA
:103CB000030C06E081043FD442043BD403043DD40A
:103CC00001232268042A31D041F62872C2F2000290
:103CD000136041F63070C2F200001B040360092338
:103CE0004360C02383600025C5604FF48063036197
:103CF00003F0E8FAFFF7C9FB04462A2818D1284642
:103D000003F0FDFA41F64845C2F2000528600420A0
:103D100003F0F5FA6860082003F0F1FAA8600C20BF
:103D200003F0EDFAE86003E0252038BD2A2038BD15
:103D3000204638BD102038BD132038BD0F2038BDB7
:103D4000F0B541F6CC63C2F200031D6880F856500E
:103D500041F62873C2F200031B68A0F8543041F604
:103D60004841C2F200010B681C0EE2B296090670CF
:103D7000C4F38304447002F003028270C3F3074269
:103D8000C270C3F307220271DBB243714A68130E9B
:103D90001B01C380C2F30744C3889BB243EA1413D8
:103DA000C38004F00F040472C2F30724E3B2DE09F7
:103DB0004672C4F380168672C4F34016C672C4F30A
:103DC0000016067300264673012D3ED804F0030446
:103DD000A40204610369D2B243EA820202618B68E1
:103DE0001C0EE2B2056945EA92150561C4F3C204EE
:103DF000047502F007024275C3F30744E2B25509A5
:103E00008575C4F38204C47502F003025200027681
:103E1000C3F30723027E42EAD31202760269057ECB
:103E2000067A012404FA06FEC0F850E00235AC40E0
:103E3000E717A4FB0E450EFB07550132A4FB0267F2
:103E400002FB0577C0E9126720E0022D1ED102F0C7
:103E50003F02120402618B6802691C0E42EA0422CE
:103E600002610269C3F3074422430261C3F30723DB
:103E700004690025013445F10005EA0442EA5432A0
:103E8000C264E40484644FF400720265C3F38012D8
:103E9000427603F03F035B0083760B7A827E42EA30
:103EA000D312827603F07F03C376CC68210ECAB2A8
:103EB000D3090377C1F341134377C1F382018177BB
:103EC00002F003029200C277C4F30742D3B2C17F6B
:103ED00041EA9311C177C2F3401280F820200022FA
:103EE00080F8212003F0010380F82230C4F3072377
:103EF000DAB2D10980F82310C3F3801180F82410BE
:103F0000C3F3401180F82510C3F3001180F8261088
:103F1000C3F3810380F8273002F0030280F82820E1
:103F2000C4F3460380F82930012180F82A1041F6B5
:103F3000D062C2F2000213681C0E80F82C40C3F35A
:103F400007442402C485C48DA5B2C3F307242C43BF
:103F5000C4851B0603635368046B1D0E44EA0544C5
:103F60000463046BC3F3074544EA05240463046B4C
:103F7000C3F307252C430463DBB280F83430936825
:103F80001C0E80F83540C3F3074424068463846B19
:103F9000C3F3072544EA05448463846BDBB244EA37
:103FA00003238363D368826B42EA13628263C3F3A1
:103FB000074290F83C4044EA121480F83C4002F07A
:103FC0000F021202C287C28F94B2C3F307222243A8
:103FD000C287C3F3460380F8403080F841102A209E
:103FE000F0BD38B5054641F6CC63C2F200031B684C
:103FF000032B30D0022B2CD8B0F5805F2BD0B0F53E
:10400000006F11D10120FFF77BFC04462A2824D140
:1040100041F6E460C2F2000001230375002303604F
:1040200043608360C56010E00020FFF769FC044630
:104030002A2812D141F6E460C2F200000123037580
:104040000023036043608360C360036103F0FDF8F5
:1040500003E02A2038BD272038BD204638BD10B5E2
:1040600041F63073C2F20003186007245C604022FE
:104070009A600022DA604FF480621A61184603F0F9
:1040800021F92046BDE81040FFF715BB73B5B020FD
:10409000012102F040FE4FF4F853ADF80030032345
:1040A0008DF8023018238DF803304FF48050C4F29D
:1040B0000100694602F0C2FC0423ADF800304FF461
:1040C000A050C4F20100694602F0B8FC4FF48060D1
:1040D000012102F014FE0220012102F010FE41F63F
:1040E000FC63C2F2000348F28002C4F201021A60CB
:1040F00000245C609C60DC601C6180225A614FF48B
:1041000000729A614FF40066DE611C624FF4005247
:104110005A629C6203F086F8FFF761FC2A2830D1CE
:10412000FFF756FD2A282CD141F6E460C2F20000C8
:1041300001250575046044608460C460046103F077
:1041400084F831238DF804308DF805408DF8064051
:104150008DF8075001A802F01FFC41F67045C2F22D
:1041600000052846FFF7ECFD2A280AD1B5F85400CF
:1041700000042146FFF773FF2A2802D13046FFF7DB
:1041800030FF02B070BD2DE9F04F87B001901746A7
:104190009946BDF840B041F62C76C2F200060024E4
:1041A000346040F22505C2F200052A232B7041F647
:1041B000E068C2F20008C8F800404FF40043C4F2BF
:1041C0000103DC62204603F077F8204603F097F8FD
:1041D00010F0007F0296CDF80C8040F08E8041F602
:1041E000CC61C2F200010B68022B02BF7F0A47EAD2
:1041F000C9574FF4007B0BF1FF3083B2B3F5006F6A
:104200007DD210EA0B007AD15E46C1B20130012E98
:1042100002D0C6F34F06F8E7059141F63074C2F2BA
:104220000004C4F800B01023636004934FF0400A08
:10423000C4F808A04FF00008C4F80C804FF480695F
:10424000C4F81090204603F03DF8049B1846FFF791
:1042500032FA2A28059953D141F63040C2F20000C3
:104260004FF6FF73C0F20F0380E808080901816070
:104270000221C160C0F81080466103F04DF8029B36
:10428000C3F800B041F68871C2F20001C1F80080A5
:1042900040F22A30314603F003F8304603F00CF8C0
:1042A00001985946FFF7C1F9276011266660C4F8E6
:1042B00008A0C4F80C80C4F81090204603F002F85F
:1042C0003046FFF7F8F92A281AD14FF40050C1F20E
:1042D000000002F0B0FE28B9039B1B6813B92B78CD
:1042E0002A2BF2D040F22503C2F200032878C0B294
:1042F0002A2805D01878C0B202E00E2000E026205F
:1043000007B0BDE8F08F2DE9F04F87B001909046DF
:104310009A46BDF8407041F62C79C2F2000900249B
:10432000C9F8004040F22505C2F200052A232B708F
:1043300041F6E066C2F2000634604FF40043C4F276
:104340000103DC62204602F0B7FF204602F0D7FFEF
:1043500010F0007F4A46029640F0938041F6CC610F
:10436000C2F200010B68022B02BF4FEA582848EA4C
:10437000CA584FF400777B1E99B2B1F5006F01D394
:1043800026207FE03B40FBD13E46D9B20133012ECF
:1043900002D0C6F34F06F8E70592049141F6307457
:1043A000C2F2000427601023636003934FF0400AB9
:1043B000C4F808A04FF0000BC4F80CB04FF48069AB
:1043C000C4F81090204602F07DFF039B1846FFF7CB
:1043D00072F92A280499059A54D111984743B7F1E4
:1043E000007FCDD2176041F63040C2F200004FF698
:1043F000FF72C0F20F0280E884000901816002228E
:10440000C260C0F810B0466102F086FF41F68872C3
:10441000C2F20002166040F22A30314602F040FF3C
:10442000304602F049FF01983946FFF7FEF8C4F81C
:10443000008012266660C4F808A0C4F80CB0C4F866
:104440001090204602F03EFF3046FFF734F92A284C
:1044500018D14FF40050C1F2000002F0ECFD28B971
:10446000029B1B6813B92B782A2BF2D040F225034C
:10447000C2F200032878C0B22A2803D01878C0B24C
:1044800000E00E2007B0BDE8F08F2DE9F04F89B0B5
:10449000834692460193BDF8486000248DF81B4086
:1044A000079440F22507C2F200072A223A7041F62B
:1044B000E069C2F20009C9F8004041F62C78C2F266
:1044C0000008C8F8004041F63045C2F200054FF63A
:1044D000FF72C0F20F0285E81400AC60EC602C6142
:1044E0006C61284602F018FF204602F0E5FE2046E7
:1044F00002F005FF10F0007FCDF80890CDF80C8099
:10450000019B40F0F38041F6CC62C2F200021268D7
:10451000022A02BF4FEA5A2A4AEAC35A4FF40076E7
:10452000731E9AB2B2F5006F80F0E280334040F023
:10453000DF803246D9B201910133012A02D0C2F3A1
:104540004F02F7E741F63074C2F2000426604FF0E4
:104550001009C4F804904023A36005934FF00008AD
:10456000C4F80C804FF4806121610491204602F070
:10457000A9FE4846FFF79FF82A280499059B40F0BA
:10458000BA8041F62879C2F20009D9F80020120455
:1045900022600D2262600492A360C4F80C80216145
:1045A000204602F08FFE049A1046FFF784F82A286E
:1045B00040F0A180404602F0A2FE4FF6FF73C0F229
:1045C0000F03079310F4807323D1079A0AB3079A55
:1045D000013A0792D9F80020120422600D2262608D
:1045E00005924021A160E36004934FF48061216152
:1045F00041F63070C2F2000002F064FE059A1046E7
:10460000FFF759F82A2876D1049B184602F077FE66
:10461000D8E7079B002B6DD041F68873C2F20003E8
:104620004FF00009C3F8009040F21A30012102F067
:1046300037FE012002F040FE58463146FFF718F8D9
:10464000C4F800A04FF0180AC4F804A04023A360E7
:10465000C4F80C904FF48063236141F63070C2F2CD
:10466000000002F02FFE5046FFF725F82A2842D11D
:10467000039B1E604FF6FF73C0F20F0385E84800EE
:10468000019B1B01AB60C5F80C90C5F8109001238D
:104690006B6141F63040C2F2000002F03DFE4FF483
:1046A0000050C1F2000002F0C6FC28B9029B1B6852
:1046B00013B93B782A2BF2D040F22503C2F2000353
:1046C0003A782A2A02D01878C0B214E040F2FF509B
:1046D00002F049FE0DF11B00FEF7F4FE2A280AD174
:1046E0009DF81B30063B012BF4D904E00E2002E0BC
:1046F000262000E0292009B0BDE8F08F2DE9F04F19
:1047000089B0019016469A46BDF8484000278DF8BA
:104710001B70079740F22505C2F200052A232B7073
:1047200041F6E069C2F20009C9F8007041F62C7840
:10473000C2F20008C8F8007041F63040C2F2000032
:104740004FF6FF73C0F20F0380E888008760C760F0
:104750000761476102F0E0FD384602F0ADFD3846E2
:1047600002F0CDFD10F0007FCDF80890CDF80C8060
:1047700040F0088141F6CC63C2F200031B68022BB3
:1047800002BF760A46EACA564FF40074631E9AB214
:10479000B2F5006F01D32620F5E02340FBD122467D
:1047A000D9B200910133012A02D0C2F34F02F7E7D8
:1047B00041F6307BC2F2000BCBF800401027CBF85B
:1047C00004704FF0400ACBF808A04FF00009CBF876
:1047D0000C904FF48068CBF81080584602F072FDC0
:1047E0003846FEF768FF2A285F4640F0CC8041F645
:1047F0002872C2F20002116805920904CBF8001079
:104800000D21CBF804100491CBF808A0CBF80C9044
:10481000CBF81080584602F055FD04990846FEF783
:104820004AFF2A28059A40F0AE80139B5C43B4F1FE
:10483000007FB0D241F6CC61C2F2000109680229C2
:1048400040D9039B1C6041F68873C2F200034FF00D
:104850000108C3F8008040F21A30414602F020FD02
:10486000404602F029FD01982146FEF701FF3E6017
:104870004FF01909C7F804904023BB600026FE6082
:104880004FF480633B6141F63070C2F2000002F0E9
:1048900019FD4846FEF70FFF2A2874D141F6304033
:1048A000C2F200004FF6FF73C0F20F0380E8180059
:1048B000009B1B018360C6600661C0F8148002F093
:1048C0002BFD33E012681204CBF800203722CBF81E
:1048D00004200492CBF808A0CBF80C90CBF8108001
:1048E000584602F0EFFC049A1046FEF7E4FE2A2830
:1048F00049D1139BCBF800301722CBF80420049247
:10490000CBF808A0CBF80C90CBF81080584602F0FA
:10491000D9FC049A1046FEF7CEFE2A2833D190E740
:10492000029B1B6853B92B782A2B07D14FF40050F8
:10493000C1F2000002F07FFB0028F1D040F2250315
:10494000C2F200032A782A2A02D01878C0B21AE0EC
:1049500040F2FF5002F007FD00230793079A4FF63D
:10496000FE739A4207D8079B0133F6E79DF81B3088
:10497000063B012B07D80DF11B00FEF7A3FD2A28EB
:10498000F4D000E00E2009B0BDE8F08F10B541F67C
:104990003070C2F2000000230C2480E8180040228E
:1049A0008260C3604FF48063036102F08BFC204699
:1049B000BDE81040FEF77FBE2DE9F8430546002014
:1049C00002F09DFC10F0007640F0B28041F63074A9
:1049D000C2F2000440274FF0100984E88002A7606B
:1049E000E6604FF48068C4F81080204602F06AFC4C
:1049F0004846FEF760FE2A2840F09B8041F6287367
:104A0000C2F200031B6803FA09F323604FF0370971
:104A1000C4F80490A760E660C4F81080204602F055
:104A200051FC4846FEF747FE2A2840F0828041F6B6
:104A30003040C2F200004FF6FF73C0F20F0380E86F
:104A40008800602383600223C36006610123436101
:104A500002F062FC26604FF00D09C4F80490A760D4
:104A6000E660C4F81080204602F02CFC4846FEF7B1
:104A700022FE2A285DD14FF40043C4F201035A6B91
:104A800040F22A63134083B94FF4004002F061FC06
:104A90000028F0D02C1F05F11C0602F053FC44F84E
:104AA000040FB442F9D12035E5E7082002F051FCAB
:104AB00028B1082002F057FC0420BDE8F88302204A
:104AC00002F047FC28B1022002F04DFC0220BDE8B4
:104AD000F883202002F03DFC28B1202002F043FCA6
:104AE0000620BDE8F8834FF4007002F032FC30B1CC
:104AF0004FF4007002F037FC0720BDE8F8834FF454
:104B0000001002F026FC20B102F01CFC45F8040B5A
:104B1000F5E740F2FF5002F026FCA5F140031A68C9
:104B200012BA43F8042BAB42F9D12A20BDE8F8832E
:104B30000E20BDE8F88338B54FF4807002F019FC00
:104B4000044640B341F68873C2F200031B68012B90
:104B500040F22504C2F2000403D1FFF717FF2070D2
:104B600001E02A2323704FF4807002F00CFC4CF219
:104B70003A30002102F094FB41F6E063C2F20003F8
:104B800001221A6041F6C843C2F2000300221A60F3
:104B90002078C0B238BD022002F0EBFB054690B190
:104BA000022002F0F0FB4CF23A30214602F078FB92
:104BB00041F6C843C2F200031C6040F22503C2F272
:104BC000000302205FE0082002F0D3FB044690B10E
:104BD000082002F0D8FB4CF23A30294602F060FB84
:104BE00041F6C843C2F200031D6040F22503C2F241
:104BF0000003042047E0202002F0BBFB054690B1F3
:104C0000202002F0C0FB4CF23A30214602F048FB73
:104C100041F6C843C2F200031C6040F22503C2F211
:104C2000000306202FE0102002F0A3FB044690B101
:104C3000102002F0A8FB4CF23A30294602F030FB7B
:104C400041F6C843C2F200031D6040F22503C2F2E0
:104C50000003052017E04FF4007002F08AFBA0B1BA
:104C60004FF4007002F08FFB4CF23A30214602F014
:104C700017FB41F6C843C2F200031C6040F2250353
:104C8000C2F200030720187038BD2A2038BDFFF794
:104C900052BF38B5044641F64875C2F200052846B1
:104CA000FFF78AFE2A2834D12B789B0923702B78B2
:104CB000C3F340136370AB781B02638063889AB2BE
:104CC000EB78134363802B791B06636063686A7912
:104CD00043EA024363606368AA7943EA022363609C
:104CE0006368EA79134363602B7A23726B7A637289
:104CF000AB7A1B09A372EB7A1B02A381A3899AB238
:104D00002B7B1343A3816B7B9A08A27303F00303ED
:104D1000E37338BD08B558B9FFF7B8F940F224037A
:104D2000C2F20003187018782A3818BF012008BD95
:104D3000012008BD08B578B941F67040C2F2000004
:104D4000FEF7FEFF40F22403C2F200031870187849
:104D50002A3818BF012008BD012008BD2DE9F743FE
:104D60000E4691461F46002842D140F22404C2F26A
:104D700000042A2323708B0723D00546BD4232D07E
:104D800040F22408C2F2000823782A2B2BD105EB2D
:104D900009030022009241F6CC40C2F200005A0200
:104DA000DB0DFFF7F0F988F8000006EB452041F62F
:104DB000CC41C2F200014FF4007203F009FE01354C
:104DC000DCE7012F4FEAD2534FEA42224FF4007141
:104DD000009103D13046FFF7D6F903E00197304642
:104DE000FFF791FA207020782A3818BF012000E0E0
:104DF000042003B0BDE8F0832DE9F7430E46914649
:104E00001F46002842D140F22404C2F200042A23A3
:104E100023708B0723D00546BD4232D040F22408D0
:104E2000C2F2000823782A2B2BD141F6CC40C2F2E3
:104E3000000006EB45214FF4007203F0C9FD05EBBD
:104E400009030022009241F6CC40C2F200005A024F
:104E5000DB0DFFF71AFB88F800000135DCE7012FB6
:104E60004FEAD2534FEA42224FF40071009103D12E
:104E70003046FFF70AFB03E001973046FFF73EFCA0
:104E8000207020782A3818BF012000E0042003B0E9
:104E9000BDE8F0832DE9F0410E4615460446002892
:104EA00040F09E8041F67047C2F200073846FEF798
:104EB00047FF41F66048C2F200084046FFF7E9FEAE
:104EC000322E54D007D8012E20D05ED3022E23D00C
:104ED000032E24D084E0352E73D008D8332E5DD035
:104EE000342E7DD141F6D063C2F200035AE0362E53
:104EF0006ED0372E74D141F65843C2F200035A687F
:104F000012BA2A601B681BBA6B603EE0FA6CBB6C7D
:104F10005B0A43EAC2530BE03B6D2B8035E097F808
:104F20005600431E012B05D898F80A201023934001
:104F30002B602AE041F64842C2F20002936850B961
:104F4000C3F3C6130133D268C2F38152013A9340CE
:104F50002B60BDE8F081C3F3842103F00300C3F3A9
:104F6000421202EBC002531C01FB0333E0E797F847
:104F70005630072B10D8DFE803F004060B0D0F0D99
:104F80000F0D022300E004232B700020BDE8F08108
:104F90000C23F9E70123F7E72C70F6E741F64843C5
:104FA000C2F200031A6812BA2A605A6812BA6A601A
:104FB0009A6812BAAA60DB6843F001031BBAEB607F
:104FC000E3E741F64473C2F200031B681BBAAFE784
:104FD0002846FFF7F1FC2A3818BF0120BDE8F08110
:104FE0000420BDE8F081F0B58BB0074640F64436AA
:104FF000C2F200066846FBF70DFE35466C460FCC44
:105000000FC50FCC0FC523682B603368FB71736825
:10501000BB71B3687B71F368FB7033690133BB709C
:1050200073693B8001200BB0F0BD08B50120FBF790
:1050300001FC45F64043C4F2000301221A6042F22B
:105040006032C2F200020020186045F64441C4F20A
:10505000000108604FF4E0511180196008BD73B57C
:105060000021019145F64043C4F200031A6892B250
:1050700001F1805000F5B85080000468A4B241F6F8
:105080009470C2F2000040F8214001310829054621
:10509000EED142F48061196041F00101196022F003
:1050A000010292B242F48061196045F64441C4F2B3
:1050B000000108684605F8D54FF6FF30086000206B
:1050C00000F1805404F5B854A40055F82060B6B23D
:1050D000266001300828F3D142F481621A601A6810
:1050E00092B242F004021A604FF4E040C4F20000B1
:1050F00002680192026822F0030242F0010202609B
:105100004FF46D42CEF20002146944F004041461BD
:105110000C68E40401D430BF09E04EF6FF740C6063
:105120001C684FF6F77121401960019B03601369F9
:1051300023F00403136102B070BD10B545F640447E
:10514000C4F2000422684FF6FB7313402360FBF7A0
:1051500080FB4FF40643236010BD10B5072841F6CD
:105160008C74C2F2000418BF20702378052B56D827
:10517000DFE803F0030E191D2A3841F6B473C2F2BA
:1051800000031B6813B9FFF7D8FF48E0052347E089
:10519000FFF7D3FF0423237041F6B473C2F2000378
:1051A00001221A6010BD02236370032338E041F628
:1051B0008C72C2F200026378013BDBB263706378E9
:1051C0007BBB0423137010BD45F64042C4F20002BD
:1051D00013689BB243F010031360052323700A2366
:1051E000637010BD41F68C72C2F200026378013B1D
:1051F000DBB26370637803F0FF0093B945F6404378
:10520000C4F200031C684FF6EF71214019600623B9
:10521000137041F6B473C2F20003186010BD062388
:10522000237010BD80B500AF41F6B873C2F2000321
:105230001B68984780BD70B588B045F64444C4F2F9
:10524000000423689BB241F6C275C2F200052B80B0
:105250002A8842F26036C2F200063388134098056D
:105260000CD54FF6FF53236041F6C072C2F2000224
:1052700013780133DBB2137000F0DDF82A8833882D
:105280001340190401D502F017FE2A883388134011
:105290005A0508D54FF6FF33236040F28403C2F26B
:1052A00000035B6898472A88338813409B0444BFF7
:1052B0004DF6FF7323602A8833881340D80405D540
:1052C0004EF6FF7323600020FFF747FF2A883388DC
:1052D000134019050ED540F22603C2F200031B78D5
:1052E00013B1FFF7BCFE02E00220FFF736FF4FF2DA
:1052F000FF7323602A8833881340DA055BD54FF6A5
:10530000FF63236045F64843C4F200031B6813F4AF
:10531000004F41F6C470C2F2000047D00368013369
:1053200003600368032B43D945F64045C4F20005EA
:105330002B6813F008033BD12A6892B241F6BC7186
:10534000C2F200010A6003F1805202F5B8529200E5
:10535000126892B208AE06EB830646F8202C0133A1
:10536000082BF0D10B6843F001030B600B689BB274
:105370002B600B6823F001030B600B689BB22B6062
:1053800023685B05FCD54FF6FF332360002303F150
:10539000805202F5B852920008A901EB830151F83E
:1053A000201C89B211600133082BF0D10023036067
:1053B0000720FFF7D2FE08B070BD70B545F6444136
:1053C000C4F200010A6892B241F6C273C2F200034D
:1053D0001A801C8842F26032C2F20002108820401B
:1053E00010F4004F0E461C46154601D002F064FD35
:1053F00022882B8813405B050AD54FF6FF333360B4
:1054000040F28403C2F200035B68BDE870401847B5
:1054100070BD41F6CC73C2F200031B68184741F619
:10542000D073C2F200031B68184741F6C873C2F27A
:1054300000031B68184741F6D473C2F200031B68CF
:10544000184742F21C03C2F200031B68184741F6DA
:10545000E073C2F200031B68184742F21003C2F265
:1054600000031B68184742F22003C2F200031B68C6
:10547000184741F6FC73C2F200031B68184741F657
:10548000E873C2F200031B68184741F6D873C2F2F2
:1054900000031B68184741F6F073C2F200031B6853
:1054A000184741F6F473C2F200031B68184741F62F
:1054B000F873C2F200031B68184741F6EC73C2F29E
:1054C00000031B68184742F20C03C2F200031B687A
:1054D000184741F6DC73C2F200031B68184742F21A
:1054E0001803C2F200031B68184741F6E473C2F2C6
:1054F00000031B68184742F20803C2F200031B684E
:10550000184742F21403C2F200031B68184742F224
:105510000403C2F200031B68184742F20403C2F2FC
:1055200000031B68184742F23833C2F200039B7A2B
:105530002BB141F69073C2F2000305221A60704746
:1055400041F69073C2F2000304221A60704770475C
:1055500010B521280BD142F25833C2F200031B6868
:105560001B7803F07F03212B19D0022010BD2028C7
:10557000FBD142F25833C2F200031B681A7802F0E2
:105580007F0245F21763C0F60003212A18BF0023EB
:1055900042F22402C2F20002107023B9E5E745F29C
:1055A000FB53C0F6000342F25832C2F20002126806
:1055B00093610024548220469847204610BD42F251
:1055C0005833C2F200031B681B7803F07F03212BC2
:1055D00007D1022807D0223801288CBF02200020E2
:1055E0007047022070470020704721B901288CBF06
:1055F0000220002070470220704738B942F2583329
:10560000C2F200031B6808221A82704740F20010A1
:10561000C2F20000704738B942F25833C2F20003B8
:105620001B6808221A82704740F20010C2F2000084
:10563000704710B540F2B800C2F2000000F110014E
:10564000FBF716F942F25833C2F200031B6800243C
:105650009C72FFF7EAFC03F083F9FBF72BFE41F69F
:105660009073C2F200031C6010BD10B542F25833B3
:10567000C2F200031B6800249C724CF6D172C0F683
:105680000002D2795A72DC72204602F03FFD2046B9
:105690004FF4007102F060FD2046102102F081FD00
:1056A0002046402102F02CFF2046802102F006FF18
:1056B000204602F038FE40F28403C2F20003204686
:1056C00093F82C1002F098FF204602F003FE012010
:1056D000214602F041FD0120C02102F0EFFE012031
:1056E000202102F05EFD0120214602F092FD022001
:1056F0004FF4C06102F030FD02204FF4807102F0DF
:10570000DDFE0220214602F084FD0220202102F06D
:1057100048FD0320214602F01FFD032002F02BFE6E
:1057200003204FF488714FF4B07202F0A9FF0320F8
:105730000121402202F0DDFF032002F065FE03207C
:1057400002F08FFE032002F03EFE03204FF4405192
:1057500002F05FFD0320214602F023FD204602F007
:1057600038FB41F69073C2F2000301221A6010BDAB
:1057700010B542F22404C2F200042378202B03D196
:10578000FBF7E2FD0023237010BD40F2D001C2F20E
:10579000000102F0E3B840F2F801C2F2000102F0A9
:1057A000DDB842F25833C2F200031B68D9780429ED
:1057B00007D840F2D803C2F2000303EBC10102F0A4
:1057C000CDB80020704740F2B403C2F200030422B7
:1057D0001A7042F21C03C2F2000345F23362C0F6B3
:1057E00000021A6041F6E073C2F2000345F26B62F8
:1057F000C0F600021A6042F21003C2F2000345F242
:105800007172C0F600021A6042F22003C2F2000375
:1058100045F24F52C0F600021A6041F6FC73C2F224
:10582000000345F25152C0F600021A6041F6E873D7
:10583000C2F2000345F2BF52C0F600021A6041F600
:10584000D873C2F2000345F2EB52C0F600021A60B0
:1058500041F6F073C2F2000345F28B72C0F600020B
:105860001A6041F6F473C2F2000345F29772C0F673
:1058700000021A6041F6F873C2F2000345F2A37207
:10588000C0F600021A6041F6EC72C2F2000247F65E
:105890007963C0F60003136042F20C02C2F2000208
:1058A00045F22751C0F60001116041F6DC72C2F2E8
:1058B0000002136042F21802C2F20002136041F6C5
:1058C000E472C2F20002136042F20802C2F2000265
:1058D000136042F21402C2F20002136042F20402A8
:1058E000C2F20002136042F20003C2F2000345F26A
:1058F0004152C0F600021A60704738B541F2D172C9
:10590000C2F20002107801286AD141F2DC71C2F2C1
:1059100000010B680C4633B9137040F6D073C2F225
:105920000003187023E0402B41F2D872C2F200024B
:10593000116888B281BF40311160403B23608FBF46
:1059400040259DB25B1813609CBF0023236040F686
:10595000D173C2F200031844C0212A4602F0ADFB05
:105960000120294602F028FE012002F08AFC41F2C3
:10597000D473C2F200031B6893B340F6D073C2F233
:1059800000031B78012B2BD141F2DC71C2F2000124
:105990002368402B41F2D872C2F2000207D9146882
:1059A000A0B240341460403B0B60402406E0156810
:1059B000A8B29CB22B44136000230B6040F6D17355
:1059C000C2F200031844C021224602F076FB0120F7
:1059D000214602F0F1FD0120BDE8384002F051BC43
:1059E00038BD10B5032002F0A4FB10F0400F4FF0BB
:1059F00003004FF001010CD002F06BFF032002F016
:105A000028FF044642F22500C2F200004FF48871DC
:105A10000BE002F05EFF032002F03BFF044642F27F
:105A20002500C2F200004FF4B071224602F05CFB88
:105A300042F22500C2F20000E1B2FBF723FD032091
:105A4000BDE8104002F046BC41F69073C2F200037C
:105A50001B68052B0DD142F26803C2F200031A68DD
:105A6000511C052A01D01960704700221A60FBF70B
:105A700023BD704710B5044640B9FEF707FB40F25E
:105A80002403C2F200031870204610BD012010BD8F
:105A900007B578B9BDF8141000910498FEF7F5FC2D
:105AA00040F22403C2F20003187018782A3818BF95
:105AB000012000E0012003B05DF804FB07B578B9D0
:105AC000BDF8141000910498FEF75DFB40F224032A
:105AD000C2F20003187018782A3818BF012000E0BD
