:020000040800F2
:100000000000012091C90008C9070008CD070008B9
:10001000D1070008D5070008D90700080000000034
:10002000000000000000000000000000DD070008E4
:10003000E107000800000000E5070008E9070008E4
:10004000D9C90008D9C90008D9C900082D08000875
:10005000D9C90008D9C90008D9C90008D9C90008F8
:10006000D9C90008D9C90008D9C90008D9C90008E8
:10007000D9C90008D9C90008D9C90008D9C90008D8
:10008000D9C90008D9C90008D9C90008250800083D
:1000900029080008D9C90008D9C90008D9C9000829
:1000A000D9C90008D9C90008D9C90008D9C90008A8
:1000B000D9C90008D9C90008D9C90008D9C9000898
:1000C000D9C90008D9C90008D9C90008D9C9000888
:1000D000D9C90008D9C90008B91F0008D9C9000842
:1000E000D9C90008D9C90008D9C90008D9C9000868
:1000F000D9C90008D9C90008D9C90008D9C9000858
:10010000D9C900083D820008D9C90008D9C900082A
:10011000D9C90008D9C90008D9C90008D9C9000837
:10012000D9C90008D9C90008D9C90008D9C9000827
:1001300000000000000000000000000000000000BF
:1001400000000000000000000000000000000000AF
:10015000000000000000000000000000000000009F
:10016000000000000000000000000000000000008F
:10017000000000000000000000000000000000007F
:10018000000000000000000000000000000000006F
:10019000000000000000000000000000000000005F
:1001A000000000000000000000000000000000004F
:1001B000000000000000000000000000000000003F
:1001C000000000000000000000000000000000002F
:1001D000000000000000000000000000000000001F
:1001E0005FF8E0F170B500F09DFB4FF47A7000F01D
:1001F0001BFA03264FF4C055C4F201054FF47A7080
:1002000000F062FA202128460AF022FC0446402130
:1002100028460AF01DFC0443082128460AF018FC71
:100220000443E4B2002C00F0D480013EE6D140F259
:100230006C24C2F200042368002B49D00BF0DEF9D5
:100240002368012B0CD02368042B00F0C98023689D
:10025000032B4AD02368022B00F085800123236002
:1002600040F26824C2F2000441F2B913C0F6000360
:10027000236041F21833C2F2000341F60972C0F65E
:1002800000021A6041F61032C2F200024CF2D103B1
:10029000C0F60003136041F60C32C2F20002136094
:1002A00041F60832C2F20002136041F60432C2F293
:1002B0000002136041F6F422C2F20002136040F221
:1002C0006033C2F2000300221A6023689847FCE7FB
:1002D00040214FF4C050C4F201000AF0B9FB0028DD
:1002E00000F0C08004232360A8E740F26824C2F233
:1002F000000441F68D43C0F60003236041F2183339
:10030000C2F2000341F60972C0F600021A6041F61B
:100310001033C2F2000349F6A152C0F600021A607F
:1003200041F60C33C2F200034AF26D32C0F600020D
:100330001A6041F60832C2F200024CF2D103C0F654
:100340000003136041F60432C2F20002136041F66A
:10035000F423C2F2000348F60D52C0F600021A6000
:100360000AF062FAB1E740F26824C2F2000441F2F6
:10037000B913C0F60003236041F21833C2F2000340
:1003800041F60972C0F600021A6041F61032C2F25C
:1003900000024CF2D103C0F60003136041F60C32A8
:1003A000C2F20002136041F60832C2F2000213608A
:1003B00041F60432C2F20002136041F6F422C2F2A6
:1003C0000002136040F26033C2F2000301221A609F
:1003D0007BE740F26C24C2F20004012323602AE789
:1003E00040F26824C2F2000441F6CD33C0F60003A7
:1003F000236041F21833C2F2000341F69132C0F695
:1004000000021A6041F61033C2F2000349F21532BD
:10041000C0F600021A6041F60C33C2F200034CF23F
:10042000D102C0F600021A6041F60833C2F200039E
:1004300049F22542C0F600021A6041F60433C2F2C6
:10044000000349F2AD42C0F600021A6041F6F423FF
:10045000C2F2000348F63132C0F600021A6008F01A
:10046000BFFE32E720214FF4C050C4F201000AF071
:10047000EFFA10B103232360E0E608214FF4C050E7
:10048000C4F201000AF0E4FA00283FF4D7AE0223D8
:100490002360D3E682B04FF48052C4F202021368A4
:1004A00043F00103136051680023CFF6FF030B40B4
:1004B0005360136823F0847323F48033136013684C
:1004C00023F480231360536823F4FE0353604FF436
:1004D0001F039360002300930193136843F4803358
:1004E000136003E0009BB3F5A06F09D0136803F419
:1004F00000330193009B01330093019B002BF1D04B
:100500004FF48053C4F202031B6813F4003318BF86
:1005100001230193019B012B08D04FF46D43CEF2D0
:1005200000034FF000629A6002B070474FF400532E
:10053000C4F202031A6842F010021A601A6822F02C
:1005400007021A601A681A604FF48053C4F202035B
:100550005A685A605A685A605A685A605A6822F44F
:100560007C125A605A6842F430225A601A6842F08B
:1005700080721A601A689201FCD55A6822F0030250
:100580005A605A6842F002025A604FF48052C4F234
:100590000202536803F00C03082BFAD1BDE700BF39
:1005A0004FF48052C4F20202536803F00C03042B90
:1005B00026D0082B16D04FF49053C0F27A034FF494
:1005C0008052C4F202025268C2F303124FF2C851C1
:1005D000C0F60001895C40F20002C2F20002CB408A
:1005E0001360704753685168C3F383430233C903F0
:1005F0000BD44FF41062C0F23D0202FB03F3DEE7BE
:100600004FF4D853C0F2B703D9E75268920347BFFB
:1006100048F68052C0F25B024FF4D852C0F2B702E3
:1006200002FB03F3CBE700BF10B586B00190FFF7E4
:10063000B7FF04200AF0A2F9019940F20002C2F2C9
:1006400000021368B3FBF1F3013BB3F1807F3AD2B0
:1006500000924FF0E0214B614FF46D43CEF2000366
:10066000F02083F8230000248C6107230B614FF4F2
:100670008053C4F20203D96941F00801D96103A88B
:100680000AF08EFD009A13684DF68362C4F21B32A5
:10069000A2FB03239B0C013BADF80C30ADF80E40E0
:1006A0004FF6FF73049303A94FF44060C4F20000B7
:1006B0000AF004FD01214FF44060C4F200000AF08A
:1006C00079FD06B010BDFEE782B00190019B40F2BB
:1006D0007022C2F2000213601368002BFCD102B03A
:1006E000704700BFBBB1F8B515461E4600249F1EDB
:1006F00001F0EEFB0028FBD005F8010B0D2804D01B
:100700000134A642F4D13046F8BDA742F8D30A23FB
:100710002B70A01CF8BD1846704700BF70B51E4670
:100720009BB1541E013BD51803E001F0BFFBAC4266
:100730000BD014F8010F0A28F7D10D2001F0B6FBF9
:10074000207801F0B3FBAC42F3D1304670BD00BF5E
:10075000704700BF00207047002070474FF40053DF
:1007600053600020704700BF08B540F27423C2F206
:100770000003186828B101446A4691420AD81960FA
:1007800008BD45F67860C2F20000186001446A4670
:100790009142F4D90DF07CF90C2303604FF0FF3047
:1007A00008BD00BF012070474FF0FF30704700BF09
:1007B000FEE700BF08B50DF06BF9162303604FF09C
:1007C000FF3008BD01207047704700BFFEE700BF43
:1007D000FEE700BFFEE700BFFEE700BF704700BFB7
:1007E000704700BF704700BF08B540F27023C2F2E7
:1007F00000031A6812B11A68013A1A6000F0A6F9EB
:1008000040F28823C2F2000301221A6040F26C23F6
:10081000C2F200031B68022B00D008BDBDE80840EF
:1008200000F090BC0BF05CBD08F07CB9704700BFD5
:1008300070B582B001217D200AF04AFA4FF6FF73AD
:10084000C0F20303019301A94FF40060C4F2010058
:100850000AF0A0F84FF44065C4F2010501A928464A
:100860000AF098F801A94FF48050C4F201000AF090
:1008700091F801A94FF4A050C4F201000AF08AF8DF
:100880004FF4C054C4F2010401A920460AF082F8D2
:1008900000217D200AF01CFA012148200AF018FAF4
:1008A0000323C1F20303019301A920460AF072F861
:1008B0004FF48076ADF8046001A928460AF06AF882
:1008C000314628460AF0CCF8012120460AF0C8F843
:1008D000022120460AF0C4F802B070BD00B583B012
:1008E000012140200AF0F4F97823C2F603030193B2
:1008F00001A94FF4C050C4F201000AF04BF80121E5
:1009000004200AF0E5F94FF48073C0F20343019329
:1009100001A94FF40060C4F201000AF03BF803B0F3
:1009200000BD00BF08B5FFF73BFE00214FF000609F
:100930000AF018F84FF46D42CEF20002D36823F4A7
:10094000E0631B041B0C43F0BF6343F40033D3602C
:10095000FFF76EFFFFF7C2FF00F098F900F0EAFA28
:10096000BDE8084000F0B4B900B587B000200AF037
:1009700005F900200AF0FCF84FF40053C4F202031A
:100980001A6842F010021A601A6822F007021A6010
:100990001A6842F002021A604FF48053C4F2020354
:1009A0005A6822F0F0025A605A685A605A6822F473
:1009B00060525A605A685A605A6822F4E0625A607B
:1009C0005A6842F480625A604FF480114FF48030CC
:1009D0000AF0C2F801200AF0CBF839200AF09AF99F
:1009E0000028FAD002200AF0C9F80AF0D1F8082845
:1009F000FBD101A80AF0FEF807B000BD00B583B036
:100A0000012120200AF064F90823C1F20343019375
:100A100001A94FF4A050C4F2010009F0BBFF03B0DC
:100A200000BD00BF08B500200AF0BAF801214FF45C
:100A30000000BDE808400AF059B900BF082128B1FC
:100A40004FF4A050C4F201000AF00AB84FF4A050CD
:100A5000C4F201000AF002B845F6D443C2F2000322
:100A60009B7A33B141F6F023C2F2000305221A60EB
:100A7000704741F6F023C2F2000301221A6070476A
:100A80004FF47043C1F6FF73D3F8E827D3F8ECC7EF
:100A9000D3F8F037D21800D1704710B500F1100428
:100AA0004FF0000E130F092B94BF30333733037010
:100AB000120180F801E00230A042F3D1002301F1DD
:100AC000010E18464FEA1C72092A94BF30323732A1
:100AD00001F813204FEA0C1C0EF813000133042B0D
:100AE000F0D110BD40F28823C2F200031A68012A37
:100AF00000D0704700221A600AF078BD0023194622
:100B000040F28C20C2F2000030F8132092B211445F
:100B10000533322BF8D14CF6CD43CCF6CC43A3FBB6
:100B20000130C0F3CB0040F6A12303FB00F040F2FC
:100B30000403C2F20003B3F90020511C0FBFC0121E
:100B4000000B00EB620000B21880704700B583B064
:100B50004FF480714FF40060C4F2010009F078FF97
:100B6000E0B140F28422C2F2000213680133136044
:100B700040F6B832934272D840F20803C2F2000342
:100B80001A68BAB940F27C23C2F200031A68013233
:100B9000B2F57A7F1CD81A6003B000BD40F28423FE
:100BA000C2F20003186040F20803C2F200031A68A0
:100BB000002AE7D0CDE90023FFF7A0FF40F2802113
:100BC000C2F200010860009A013A019B1A60D9E75D
:100BD00000221A6040F28023C2F200031A680193D7
:100BE00002EB42020092FFF789FF009A104402468E
:100BF0000028019BB8BFC21C92101A6040F6A37374
:100C0000984226DD40F20C03C2F20003B0F5615FAA
:100C10001DDA02221A6043F25743984219DC40F26F
:100C20007822C2F20002136801331360142BB3D987
:100C30000AF0DCFC00F0AEFA4FF400514FF48050A3
:100C4000C4F2010009F00AFF0AF0D0FCFCE701221F
:100C50001A6040F27823C2F2000300229BE70AF0F8
:100C6000C5FC00F097FA4FF480714FF44060C4F275
:100C7000010009F0F5FE4FF400514FF48050C4F22A
:100C8000010009F0EBFE0AF0B1FCFCE700B583B00F
:100C9000012110200AF01CF84FF40053C1F20103A7
:100CA000019301A94FF48050C4F2010009F072FED3
:100CB00045F255500AF088FC04200AF08BFC40F6FF
:100CC00035400AF08DFC0AF091FC03B000BD00BF76
:100CD00010B501214FF4047009F0FAFF0121084614
:100CE00009F0E8FF40F2F021C2F200010F23C0F248
:100CF00003030B604FF48050C4F2010009F04AFE78
:100D000001214FF4007009F0E3FF0820C4F2020053
:100D10000AF0E0F840F2F421C2F2000142F24C4342
:100D2000C4F201030B6040F28C23C2F200034B605B
:100D300000248C603223CB600C6180234B614FF424
:100D400080738B614FF48063CB6120230B624C6214
:100D50008C620820C4F202000AF06EF9012108201A
:100D6000C4F202000AF086F940F22031C2F200011A
:100D70000C6040F201138B804FF460238B60CC60D9
:100D800005240C744FF41050C4F2010009F0E0FF88
:100D900001200AF091F80723012209214FF4105095
:100DA000C4F201000AF02CF82346022210214FF46D
:100DB0001050C4F201000AF023F8072303220A218D
:100DC0004FF41050C4F201000AF01AF8072304226D
:100DD0000C214FF41050C4F201000AF011F807235F
:100DE00022460D214FF41050C4F201000AF008F819
:100DF00001214FF41050C4F201000AF053F8012110
:100E00004FF41050C4F2010009F0C8FF01200AF0AD
:100E100053F84FF41050C4F2010009F0D3FF4FF41F
:100E20001054C4F20104204609F0D2FF0028FAD180
:100E30004FF41050C4F2010009F0CEFF4FF41054EB
:100E4000C4F20104204609F0CDFF0028FAD10121A7
:100E50004FF41050C4F2010009F0AAFF01214FF431
:100E60001050C4F20100BDE8104009F0BFBF00BF40
:100E700010B582B004460AF0B5F900900023019342
:100E800068460BF089FF436903F26C734361A64621
:100E90008446BCE80F00AEE80F00BCE80F00AEE8E7
:100EA0000F00DCF80030CEF80030204602B010BD54
:100EB00010B5044601200AF081FB0AF0C9F920466A
:100EC0000AF0A4F90AF0C4F90020BDE810400AF0C5
:100ED00075BB00BF84B010B58AB00DF1300C8CE842
:100EE0000F000DF1040C0DF1300EBEE80F00ACE860
:100EF0000F00BEE80F00ACE80F00DEF80030CCF8C1
:100F00000030A1F26C73069301A80CF023F904469B
:100F100001200AF053FB0AF09BF920460AF076F90B
:100F20000AF096F900200AB0BDE8104004B00AF0BB
:100F300045BB00BF10B586B014200AF02FFB4AF263
:100F4000A5540121A0424FF0C05055D009F0CEFE6B
:100F500001200AF033FB214614200AF00FFB0AF0AF
:100F600003FB012009F022FE412009F0D3FE0028F6
:100F7000FAD04FF4807009F02FFE012009F034FE02
:100F80000AF066F9012108460AF01EF90AF060F934
:100F900047F6FF700AF04AF90AF05AF940F2383C75
:100FA000C2F2000C062240F2D973CCE904231723C5
:100FB0000F22CCE902322D23CCF80430E6464EF85D
:100FC000103B6C46BEE80F000FC4DEF80030236013
:100FD0009CE80F00FFF77EFF0AF03AF901200AF0C3
:100FE000EDFA4AF2A55114200AF0C8FA002006B022
:100FF000BDE810400AF0E2BA09F078FE0AF030F9D4
:10100000012108460AF0E0F806B0BDE810400AF0F9
:101010001FB900BF70B5002641F24474C2F200044B
:1010200040F26835C2F200052368984710F0FF03CC
:10103000FAD096B9242B18D12B702368984710F05A
:10104000FF0004D068700A281BD1022070BD2368FD
:101050009847012610F0FF03E6D0701C80B2AB5514
:101060000A2BF3D0B0F5806F12D32368984710F0A5
:10107000FF03DFD12368984710F0FF03DAD11E4643
:10108000D2E723689847022610F0FF03E5D1CBE7AB
:101090000646C9E710B5A0B0024691F900306C468B
:1010A0005BBB4FF2D851C0F60001684601F01CFB53
:1010B000FFF718FD9DF90030242B1CD19DF901305C
:1010C00000222A2B0AD00DF101015A40D2B211F9A7
:1010D000013F2A2B02D020A88142F6D121464FF2AF
:1010E000E450C0F6000001F0EBFA00F07FFF0028AA
:1010F000FBD020B010BD0022F0E70B464FF2DC51D0
:10110000C0F60001684601F0EFFAD1E710B540F6ED
:101110000834C2F20004204605F05AF8A278E378B9
:101120001B0443EA4253627943EAC223A27943EAA9
:101130004213E27943EA52032088A0F2BC7043EAEA
:10114000406010BD40F25C33C2F200031A68511CCB
:10115000196041F658318A4209D940F26032C2F230
:1011600000021268012A03D000221A6070477047FB
:1011700000B583B001934FF27471C0F600014FF2D5
:10118000EC50C0F60000FFF785FF019B00221A60BB
:1011900003B000BD40F26433C2F200031B6853B1D8
:1011A00010B540F26874C2F20004204604F024FE38
:1011B0000028FAD110BD70472DE9F04F91B00023FF
:1011C000ADF83A3041F24C73C2F2000341F6AD6221
:1011D000C0F600021A6041F24473C2F2000341F605
:1011E000D162C0F600021A6040F26033C2F200031E
:1011F0001C68012C00F088824FF41651022000F088
:10120000C9FDFFF76FFC00224FF27471C0F60001B8
:1012100040F2B870C2F2000004F05EFA00F0D2FEB4
:10122000002440F26433C2F20003039340F25C36C0
:10123000C2F200064FF4C055C4F2010548F21F582F
:10124000C5F2EB180023039A13600221284609F027
:1012500005FCFFF747FC30BFFFF744FCFFF7DAFE61
:101260000746FFF73FFC002FF8D00221284609F07F
:10127000F7FB0121284609F0F1FB4FF29063C0F61D
:10128000000340F26831C2F2000105E0013311F8B9
:10129000010B904240F075811A78002AF6D140F295
:1012A0006833C2F2000303E001332C2A00F06581A9
:1012B0001A78202AF8D800240121284609F0D0FB0A
:1012C00000233360002CC6D02378412BC3D10124E6
:1012D000039B1C600221284609F0C2FB21462846D8
:1012E00009F0BEFB40F26832C2F2000212F8013B84
:1012F000202B40F2AB822C2BF8D111783039C9B2B7
:10130000092900F2EC815378303BDBB2092B00F263
:10131000E68101EB810103EB4103DBB240F2383996
:10132000C2F20009C9F808309378303BDBB2092BD0
:1013300000F2BA81D1783039C9B2092900F2B481FA
:1013400003EB830301EB4303DBB2C9F804301379E9
:10135000303BDBB2092B00F2A9815279303AD2B28C
:10136000092A00F2A38103EB830302EB4303DBB200
:10137000C9F80030092240F26834C2F2000414F8BF
:10138000013B202B40F262822C2BF8D1013A12F063
:10139000FF02F4D121783039C9B2092909D863781C
:1013A000303BDBB2092B04D801EB810103EB410395
:1013B000DAB2C9F80C20A278303AD2B2092A00F287
:1013C0007981E378303BDBB2092B00F2738102EBC9
:1013D000820203EB4203DBB2013BC9F810302379F0
:1013E000303BDBB2092B00F263816279A2F130015C
:1013F000092900F25D8103EB8303343202EB4303DE
:10140000DBB2C9F8143040F23830C2F200000BF001
:10141000A1FE47F69063C01841F10001FFF748FDB7
:1014200004A8FFF725FD40F2383EC2F2000E0DF190
:10143000100CBCE80F00AEE80F00BCE80F00AEE8EF
:101440000F00DCF80030CEF80030D9F81030D9F8B1
:10145000142088FB0210D117C1EB6011D9F80C00E1
:1014600000900133642000FB11224FF2A861C0F606
:10147000000140F26830C2F2000001F035F940F29C
:10148000687AC2F2000A122240F26831C2F2000108
:10149000504604F051F9002840F0F880DAE90423BE
:1014A000504604F0BDFC002840F0F080504604F0A7
:1014B00095FB002840F0EA8040F2683BC2F2000B46
:1014C000FFF7A8FD814600283FF4BCAEFFF70AFBFA
:1014D0004FF2BC63C0F6000340F26831C2F2000173
:1014E00004E0013311F8010B90425CD11A78002A14
:1014F000F7D1062240F26834C2F2000414F8013B2E
:10150000202B40F2A3812C2BF8D1013A12F0FF02DC
:10151000F4D12378302B10D00221284609F09EFA0E
:101520000FAB4A465946504604F060FA002840F096
:10153000AD800F9B994540F0A980BDF83A3001334A
:101540009BB2ADF83A305A2B0CD90221284609F04B
:1015500085FA0023ADF83A30504604F03FFB0028EE
:1015600040F094800221284609F07AFA0023336083
:1015700030BFA5E701332C2A3AD01A78202AF9D8AF
:1015800099E64FF29863C0F6000340F26831C2F268
:10159000000104E0013311F8010B904215D11A78D3
:1015A000002AF7D17BE64FF2C463C0F6000340F295
:1015B0006831C2F2000104E0013311F8010B9042DE
:1015C00018D11A78002AF7D193E74FF2A063C0F63A
:1015D000000340F26831C2F2000105E0013311F866
:1015E000010B90427FF46CAE1A78002AF6D156E6D1
:1015F0001C4661E64FF2CC63C0F6000340F268314E
:10160000C2F2000104E0013311F8010B904203D152
:101610001A78002AF7D16CE74FF29063C0F6000306
:1016200040F26831C2F2000104E0013311F8010B0D
:10163000904242D11A78002AF7D140F26834C2F2BF
:10164000000414F8013B202B40F200812C2BF8D130
:1016500014F8013B202B40F2F9802C2BF8D1237891
:10166000412B7FF46AAF0221284609F0F7F90FAB4E
:101670004A4640F26831C2F2000140F26870C2F29C
:10168000000004F0B3F900283FF453AF40F268794A
:10169000C2F200090221284609F0E0F9484604F0A8
:1016A000ABFB0028F6D1CDE500234EE600235FE634
:1016B0006423A6E64FF0FF338FE64FF29863C0F63F
:1016C000000340F26831C2F2000104E0013311F876
:1016D000010B904205D11A78002AF7D1ADE700231B
:1016E0001CE64FF2A063C0F6000340F26831C2F27C
:1016F000000105E0013311F8010B90427FF41DAFAA
:101700001A78002AF6D198E702214FF4C050C4F2AB
:10171000010009F0A3F921464FF4C050C4F20100C2
:1017200009F09CF94FF41641022000F033FB4FF210
:10173000F851C0F600014FF20060C0F60000FFF75C
:10174000A9FC6420FEF7C0FF4FF4E131022000F055
:1017500021FB4FF2F851C0F600014FF20060C0F6D5
:101760000000FFF797FC6420FEF7AEFF4FF4165120
:10177000022000F00FFB4FF20C61C0F600014FF2A7
:101780001060C0F60000FFF785FC4FF20C61C0F658
:1017900000014FF21C60C0F60000FFF77BFC4FF227
:1017A0002861C0F600014FF22C60C0F60000FFF780
:1017B00071FC4FF28061C0F600014FF23860C0F654
:1017C0000000FFF767FC4FF28061C0F600014FF2A6
:1017D0004460C0F60000FFF75DFC4FF28061C0F688
:1017E00000014FF25060C0F60000FFF753FC4FF2CB
:1017F0005C61C0F600014FF26060C0F60000FFF7C8
:1018000049FC4FF20C61C0F600014FF26C60C0F66B
:101810000000FFF73FFC4FF27861C0F600014FF285
:101820008460C0F60000FFF735FC02214FF4C05081
:10183000C4F2010009F014F921464FF4C050C4F27B
:10184000010009F00DF9FFF74DF9DCE400231B78E6
:10185000FFDE00BF012240F225514FF48840C4F260
:10186000000009F037BE00BF10B584B041F23474F7
:10187000C2F200044FF4165323600023A381636077
:101880004FF44023A3600121052009F021FA012132
:101890004FF4003009F02AFA0423C1F6030303933E
:1018A0004FF40060C4F2010003A9019009F072F83E
:1018B0000823C4F60303039303A9019809F06AF807
:1018C0004FF48840C4F200002146019009F096FDD3
:1018D0000121019809F0F4FD04B010BD00B583B0FA
:1018E00040F2F803C2F200031A79012A79D0022AE1
:1018F00005D032B1FFF7B8FF002003B000BD4FF4B0
:10190000005241F23471C2F20001CA805A79012AB0
:1019100076D0022A68D0002AECD10A819A79072A67
:1019200001D0082AE6D100228A801B680B600022C1
:101930008A810C234B810121052009F0C9F901217D
:101940004FF4003009F0D2F90423C1F603030193E8
:1019500001A94FF40060C4F2010009F01BF808234C
:10196000C4F60303019301A94FF40060C4F201001F
:1019700009F010F8002240F225514FF48840C4F2DB
:10198000000009F0A7FD40F61633C2F20003002262
:101990001A8040F61433C2F200031A8040F6123364
:1019A000C2F200031A8040F61133C2F200031A702B
:1019B00040F61033C2F200031A7041F23471C2F2E1
:1019C00000014FF48840C4F2000009F017FD012126
:1019D0004FF48840C4F2000009F072FD012003B00A
:1019E00000BD4FF440528CE74FF4C0620A819A79EF
:1019F000072A98D0082A7FF47DAF4FF4805293E7EE
:101A00004FF48062F2E700BFA1B170B505464618F9
:101A10004FF48844C4F2000415F8011B204609F075
:101A200073FD8021204609F077FD0028F9D0B542EA
:101A3000F2D170BD704700BF10B582B040F61033D0
:101A4000C2F200034FF0000E83F800E040F61133BD
:101A5000C2F200031A78012A5ED040F6143CC2F2AA
:101A6000000CBCF8001040F61632C2F200021288D8
:101A7000B1F5006F28D2914245D040F61830C2F23D
:101A80000000084494BF521AC1F5006292B2402A85
:101A900024D94031ACF8001040F61231C2F20001F6
:101AA000403A0A8040224FF0010119700192A021B2
:101AB0000AF05AFC019901200AF0C6FD012002B08B
:101AC000BDE810400AF0E8BCACF800E0DAB140F63E
:101AD0001830C2F200007146402ADAD81144ACF83E
:101AE000001040F61231C2F200014FF0000CA1F8D4
:101AF00000C0D8D141F66831C2F200014FF0010CAC
:101B000081F800C0CFE700221A7041F66833C2F2B4
:101B100000031978012901D002B010BD1A70A0216C
:101B200040F61830C2F200000AF01EFC0021C2E7A5
:101B300008B540F2F803C2F200039B794FF48840E5
:101B4000C4F20000072B13D009F0E2FC40F6163275
:101B5000C2F20002138840F61831C2F20001C854E4
:101B600001339BB2B3F5006F28BF0023138008BD7B
:101B700009F0CEFC40F61632C2F20002138840F69D
:101B80001831C2F2000100F07F00C854E8E700BF3E
:101B900008B540F225514FF48840C4F2000009F026
:101BA000C1FC40B908214FF48840C4F2000009F09C
:101BB000B3FC18B908BDFFF7BBFFF3E74FF488404B
:101BC000C4F20000BDE8084009F0A2BC08B5FEF769
:101BD000CBFE4FF47A70FEF727FD01F0FDF84FF2CF
:101BE0007871C0F6000141F25070C2F2000001F0BD
:101BF00011FA41F25070C2F2000001F019FA01F03E
:101C0000BFF800234FF2D462C0F60002194601204B
:101C100001F01EF841F25C73C2F200031968002360
:101C20004FF2E862C0F60002C979012001F010F815
:101C3000FEF7E4FE0020FEF701FFFEF7F3FE4FF48F
:101C40006143CEF20003202283F8262340225A600B
:101C5000302283F814234FF480121A600AF03AFA03
:101C60000120FEF7EBFE41F6F024C2F200042368E7
:101C7000052B04D0FEF736FF2368052BFAD130BFC1
:101C8000FEF730FF30BFFEF72DFFF8E700B583B059
:101C9000FEF76AFE4FF47A70FEF7C6FC01F09CF87E
:101CA0004FF27871C0F6000141F25070C2F20000AC
:101CB00001F0B0F941F25070C2F2000001F0B8F941
:101CC00001F05EF841F25C74C2F200042168002366
:101CD0004FF2E862C0F60002C979012000F0B8FFB7
:101CE000002007F0F9FB002838D103464FF20072BC
:101CF000C0F6000201460190012000F0A9FFFEF7A6
:101D00007DFE0198FEF79AFEFEF78CFE4FF46143CC
:101D1000CEF20003202283F813234FF400221A602E
:101D2000302283F814234FF480121A600AF0D2F99B
:101D30000120FEF783FE41F6F024C2F2000423687E
:101D4000052B04D0FEF7CEFE2368052BFAD130BF59
:101D5000FEF7C8FE30BFFEF7C5FEF8E72368D97965
:101D600000234FF21472C0F600024900012000F077
:101D70006FFF2368D97900234FF22C72C0F600025E
:101D800001EB4101012000F063FF30BFFEF7AAFE26
:101D9000FBE700BF10B584B000230393022801D0F5
:101DA00004B010BD019141F23074C2F200044FF44E
:101DB0008841C4F2000121600121052008F088FF5C
:101DC00001214FF4003008F091FF0421C1F6030116
:101DD000039103A94FF40060C4F2010008F0DAFD9A
:101DE0000821C4F60301039103A94FF40060C4F273
:101DF000010008F0CFFD41F23471C2F20001084643
:101E0000009109F053FBDDE900120A60206809F037
:101E1000F5FA4FF46142CEF20002202182F8261337
:101E20004021516041F22C71C2F2000141F21C329A
:101E3000C2F200020A600023C2F80434C2F800347F
:101E4000C2F80C34C2F80834012240F2255120684F
:101E500009F040FB0121206809F032FB04B010BDFD
:101E600010B5D0F808340133C3F30803D0F80C24BC
:101E7000934214BF0124002415D0D0F8083472B660
:101E8000C21882F800120133C3F30803C0F8083403
:101E900062B641F23073C2F20003012240F22771B0
:101EA000186809F017FB204610BD00BF41F22C73E3
:101EB000C2F200031A68D2F80834D2F80C140133C5
:101EC000C3F308038B42F6D001461046FFF7C8BFA4
:101ED00041F22C73C2F200031B68D3F80014D3F84C
:101EE000042491420DD072B6D3F80424985CC0B299
:101EF000D3F804240132C2F30802C3F8042462B602
:101F000070470020704700BF10B584B041F23074B4
:101F1000C2F2000440F22551206809F003FB00BB27
:101F200040F22771206809F0FDFAC0B141F21C337C
:101F3000C2F20003D3F80C24D3F8081420689142AD
:101F40002BD0D3F80C241A4492F80022D2B282800B
:101F5000D3F80C240132C2F30802C3F80C2404B0F5
:101F600010BD41F21C33C2F20003D3F80024013249
:101F7000C2F308020392D3F804140293019120687B
:101F800009F0C6FA0199039A8A42029B0DD0D3F850
:101F900000145854C3F80024C2E7002240F227710D
:101FA00004B0BDE8104009F095BA002240F2255176
:101FB000206809F08FFAB3E741F21833C2F2000348
:101FC0001B68184741F22C73C2F200031B68002201
:101FD000C3F80424C3F8002441F23073C2F20003B2
:101FE000012240F22551186809F074BA41F22C73AD
:101FF000C2F200031B68D3F80C24D3F80804801A3B
:10200000B0FA80F0400970472DE9F04F91B091F996
:102010000040002C6AD001924D1C41F24873C2F27C
:10202000000303934FF2747CC0F6000C0B46CDF80E
:102030001CC00646252C40F0988193F90170302F82
:1020400000F0BF812D2F00F0C28102334FF0200B32
:1020500000222A2F40F09181019951F8040B0028A9
:10206000BCBF40420222824613F9017B01912E2F10
:1020700000F09B814FF0FF356C2F3AD0002F35D008
:10208000A7F15801202922D8DFE811F051002100E2
:102090002100210021002100210021002100210038
:1020A0006100F8003C0021002100210021002100F6
:1020B000210021002100210021005F0121002100D9
:1020C0002100070121003C002100210051000A2FBE
:1020D00000F0B882002E00F0978202933846B04795
:1020E000029B1D4615F9014B002CA3D111B0BDE890
:1020F000F08F93F900706C2F00F0868142F004029B
:102100000133BBE7150700F1B9810198011D5407A0
:1021100040F17682642F40F0B3820568EC1701919C
:10212000002CC0F2BA8100204FF00A081BE014070F
:1021300040F19F810199073121F00701084650F8CD
:10214000085B01904C6800204FF010080BE011076D
:1021500000F182814FF0020801990431019805686D
:10216000002401912046782F08AF4FF00009029219
:10217000CDF810B0CDF814A082469B4606960CBF51
:102180002726072607E0013705460C46BCF1200F3D
:1021900000F0D881E14642460023284621460AF055
:1021A0001DFC53B2092BC8BF921909F1010C303242
:1021B0003A70454574F10004E5D2029A5046DDF8C4
:1021C00014A05B46DDF810B0069E28B1EC442D212A
:1021D0008CF8201009F1020C920700F1AD81D44572
:1021E00080F0AA81002E00F0BF81644665461F463C
:1021F00004E05846B0470234A24504D05846B047E0
:10220000631C9A45F5D1AC463B4654460CF120027E
:102210000DEB0205DDF80CC015F9012D10460A2A58
:1022200000F08681002E40F06E8160460168002932
:1022300000F001814F1C07600A7008AAAA42EBD186
:10224000A2457FF64EAF01340AF10105002E40F0A1
:10225000B181202003990A684AB1571C0F601070A1
:10226000A2453FF43EAF01340A68002AF5D1A245E9
:102270003FF437AF0234A542EDD132E7019C14F9A7
:10228000045B0A2D00F0D881002E00F0C981019373
:102290002846B047019B019423E704930292019CD6
:1022A00054F8048B079BB8F1000F08BF98464046CE
:1022B0000BF03DFC0746002D029A049B02DBA8426E
:1022C00028BF2F46920740F1F68098F90090B9F1A7
:1022D000000F26D041F2487BC2F2000B05EB08024A
:1022E0004D46019434461E46914604E02846A047D8
:1022F00018F9015F95B1C14510D00A2D00F01E817B
:10230000002CF3D15946DBF80020002AF0D0501CF5
:102310000860157018F9015F002DECD13346264690
:10232000019CBA45B7D901370AF10105002E00F02A
:102330004D8198462020B047BA4504D02020B047B0
:102340000237BD42F6D14346A5E7100740F1AE8003
:102350000199073121F00701084650F8085B019008
:102360004C6800204FF00808FDE60A2C5ED0002ED5
:1023700050D02046B0472B46B3E6A7F13001C9B292
:102380004FF0000A09293FF672AE0AEB8A0A07EB02
:102390004A07A7F1300A13F9017BA7F13001C9B24E
:1023A0000929F2D92E2F7FF465AE93F900702A2FF8
:1023B00014D1019951F8045B93F901700191023332
:1023C0005AE6BB4693F902700333002241E693F9C3
:1023D000027003334FF0200B02223AE60133A7F1DB
:1023E0003001C9B2002509293FF646AE05EB850547
:1023F00007EB4507A7F1300513F9017BA7F1300181
:10240000C9B20929F2D937E642F00C0293F90170FA
:10241000023333E641F24872C2F200021368002B25
:10242000A9D0591C11601C702B465AE6002E5ED0B4
:102430000D20B0479DE708AAAA423FF401AF15F965
:10244000012D0A2A7FF4F2AE01680029F3D00D2293
:1024500001F8012B0A22EDE60199073121F007016D
:10246000084650F8085B01904C6800204FF00208C5
:1024700079E64FF01008019904316FE601990731B0
:1024800021F00701084650F8085B01904C68642F62
:102490007FF449AE002CBFF646AE6D4264EB4404B7
:1024A00042F0010201204FF00A085CE64FF00808F4
:1024B0000199043152E6574580F0E580002E40F046
:1024C000E98041F24872C2F200021168002944D04A
:1024D000481C106081F800B00137BA45F5D198F971
:1024E00000905746B9F1000F7FF4F4AED3E641F205
:1024F0004872C2F200021368002B3FF43CAF0D217A
:1025000003F8011B8DE71F46B04708ABAB420DD067
:1025100015F9010D0A28F7D13B4602930D20B0476B
:102520000A20029FB04708ABAB42F1D13B4687E699
:10253000002EF2D1604687E7644667E674B30D204B
:10254000A047D3E6029A5046DDF814A05B46DDF8BA
:1025500010B0069E4FF01F0937E6791C5145BED0DA
:102560000237BA45B1D1BAE7604641F24872C2F2C9
:102570000002116851B14C1C146081F800B00130A8
:1025800082453FF442AE11680029F4D1411C8A45CE
:102590003FF43BAE02308245EBD136E641F2487162
:1025A000C2F200010A68002A3FF4A2AE0D2002F830
:1025B000010BACE61F462020B047A24504D02020E6
:1025C000B0470234A542F6D13B468AE541F2487253
:1025D000C2F200024FF0200C116851B1481C10608B
:1025E00081F800C0BA453FF456AE013711680029A2
:1025F000F4D1BA453FF44FAE0237BD42ECD14AE6C2
:10260000642F3DD1019888E541F24872C2F2000280
:10261000116800293FF465AD481C10600F7060E53B
:1026200041F24872C2F20002116800293FF433AE51
:10263000481C10600D702EE656B101930D20B04776
:10264000019B24E686B102930D20B047029B44E52E
:1026500041F24872C2F20002116800293FF41BAE39
:102660000D2001F8010BE3E741F24872C2F20002CB
:10267000116800293FF435AD0D2001F8010BCBE7BF
:102680004FF00A086AE598F90090B9F1000F7FF45D
:1026900021AE00E6994604E05846B0470237BA45F5
:1026A00004D05846B0477B1C9A45F5D14B4698F963
:1026B00000905746B9F1000F7FF40CAEEBE500BF78
:1026C0000FB400B583B004AA52F8041B019241F282
:1026D0004C73C2F200031868FFF796FC03B05DF874
:1026E00004EB04B0704700BF0EB410B583B005AA68
:1026F00052F8041B41F24874C2F2000420600192B7
:102700000020FFF781FC226800231370236003B0D0
:10271000BDE8104003B0704770B596B001214FF48A
:10272000807008F0C7FA012140F2E11008F0D0FAF9
:102730004FF4FF43C1F60303079307A94FF4C050BA
:10274000C4F2010008F026F91025ADF81C504FF432
:10275000A054C4F2010407A9204608F01BF9202365
:10276000ADF81C3007A9204608F014F94FF40063B7
:10277000ADF81C3007A9204608F00CF94023ADF84D
:102780001C308DF81F5007A9204608F003F980235C
:10279000ADF81C3007A9204608F0FCF84FF480760D
:1027A000ADF81C604FF44064C4F2010407A9204650
:1027B00008F0F0F83146204608F050F90223CDE940
:1027C0000033029305230393CDE90433002304244B
:1027D000CDE90634089309930A950B930C930D9356
:1027E0000E930F934FF48052109211931293139300
:1027F000CDF850D0CDF854D007A808F033F9012116
:10280000204608F095F916B070BD00BF2DE9F04FD5
:1028100085B0834603900E461F4641F25873C2F2BC
:1028200000031968009391F80A801178527841EA00
:10283000022148BA80B200F00DFC009B1A68D27ADF
:10284000002A66D005464FEAD80408F007094FF081
:10285000000A08F0F8080BEB08020292019344B357
:1028600005EB0408DDF80CB000945C46C3464FF05D
:10287000000804E008F10108B8F1080F14D0297825
:1028800001FA08F10A06F5D504EB080189B23346CE
:102890003246084600F042FA384600F037FA08F1AE
:1028A0000108B8F1080FEAD1013508345D45DED1E1
:1028B000009CB9F1000F21D04FF00008DDF808B0FE
:1028C00005E008F101081FFA88F3994515D9297820
:1028D00001FA08F10B06F4D50BEB080189B2334677
:1028E0003246084600F01AFA384600F00FFA08F1AE
:1028F00001081FFA88F39945E9D801350AF1010A60
:102900000136B6B2019B1B68DA7A1FFA8AF39A4243
:10291000A5D805B0BDE8F08F2DE9F04F85B083460E
:1029200003900E461F4641F25C73C2F20003196821
:10293000009391F80680104600F080FB009B1A6817
:10294000D279002A66D005464FEAD80408F0070974
:102950004FF0000A08F0F8080BEB0802029201930E
:1029600044B305EB0408DDF80CB000945C46C346A4
:102970004FF0000804E008F10108B8F1080F14D086
:10298000297801FA08F10A06F5D504EB080189B2A5
:1029900033463246084600F0C1F9384600F0B6F931
:1029A00008F10108B8F1080FEAD1013508345D4596
:1029B000DED1009CB9F1000F21D04FF00008DDF806
:1029C00008B005E008F101081FFA88F3994515D908
:1029D000297801FA08F10B06F4D50BEB080189B24E
:1029E00033463246084600F099F9384600F08EF931
:1029F00008F101081FFA88F39945E9D801350AF171
:102A0000010A0136B6B2019B1B68DA791FFA8AF314
:102A10009A42A5D805B0BDE8F08F00BF2DE9F04F70
:102A200083B0074689461E46BDF8305041F2587BB8
:102A3000C2F2000BDBF8003093F80A80137852786A
:102A400043EA022358BA80B200F004FB0446DBF8E4
:102A50000020D37A013B4B44907A013838449BB232
:102A60004A4681B2384600F059F9DBF80030DB7A8B
:102A7000002B3BD04FEAD803019308F007084FF032
:102A80000009019B002B3ED0019BE7184FF0000A84
:102A9000227802FA0AF212F0800F0CBF2846304664
:102AA00000F034F90AF1010ABAF1080FF0D101344B
:102AB000A742EBD13C46B8F1000F1AD0002723788B
:102AC000BB4013F0800F0CBF2846304600F01EF9C3
:102AD0000137BBB29845F2D8013409F10109DBF89E
:102AE0000030DA7A1FFA89F39A42CAD803B0BDE8F7
:102AF000F08F09F10109DBF80030DA7A1FFA89F367
:102B00009A42C1D8F2E7B8F1000FD7D109F1010913
:102B1000DBF80030DA7A1FFA89F39A42E6D909F134
:102B20000103DBF80020D27A9BB29A42DED909F188
:102B300002091FFA89F39A42F1D8D7E72DE9F04F3D
:102B400083B0074689461E46BDF8305041F25C7B93
:102B5000C2F2000BDBF8003093F80680107800F02A
:102B60006DFA0446DBF80020D379013B4B449079A1
:102B7000013838449BB24A4681B2384600F0CEF85C
:102B8000DBF80030DB79002B3AD04FEAD803019311
:102B900008F007084FF00009019B002B3DD0019B76
:102BA000E7184FF0000A227802FA0AF212F0800FBA
:102BB0000CBF2846304600F0A9F80AF1010ABAF124
:102BC000080FF0D10134BC42EBD1B8F1000F1AD09C
:102BD00000272378BB4013F0800F0CBF28463046F7
:102BE00000F094F80137BBB24345F2D3013409F148
:102BF0000109DBF80030DA791FFA89F39A42CBD861
:102C000003B0BDE8F08F09F10109DBF80030DA7993
:102C10001FFA89F39A42C2D8F2E7B8F1000FD7D170
:102C200009F10109DBF80030DA791FFA89F39A42D9
:102C3000E6D909F10103DBF80020D2799BB29A4270
:102C4000DED909F102091FFA89F39A42F1D8D7E7D0
:102C50002DE9F04782B015461278002A3ED004468E
:102C60007F284FD89F294DD81F460E4640F21008A6
:102C7000C2F2000841F25879C2F2000941F25C7ACE
:102C8000C2F2000A13E002F12000C0B21C2816D9DB
:102C900087BB31462046FFF73FFE0135DAF80030AA
:102CA0009B7923449CB22A78C2B17F2C2AD8D8F8C9
:102CB00000100B8802F17F00C0B21E28E3D88FB944
:102CC0002A4631462046FFF7A1FD0235D9F80030EB
:102CD0009B7A23449CB22A78002AE6D1012002B0D4
:102CE000BDE8F0874A8800922A4631462046FFF721
:102CF00095FEEAE74A8800922A4631462046FFF7C9
:102D00001DFFCAE7002002B0BDE8F08702090023DA
:102D1000C6F602031A8000011880704710B54FF004
:102D2000D04E4FF42874AEF800404FF0000CC6F6B9
:102D3000020C0024ACF80040000100F47F60ACF805
:102D40000000ACF80040090101F47F61ACF800100C
:102D50004FF42C71AEF80010ACF80040120102F4F0
:102D60007F62ACF80020ACF800401B0103F47F63E5
:102D7000ACF800304FF43073AEF8003010BD00BF37
:102D800082B04FF0D0414FF428730B800022C6F67A
:102D9000020200231380138013804FF4FE60108022
:102DA0004FF42C7008801380138013804FF41F633E
:102DB00013804FF430730B804FF4A043019340F61F
:102DC000FF704FF6F07110801180019B013B019361
:102DD000002BF8D102B070472DE9F04F85B0FFF716
:102DE0009BFC4FF4A054C4F20104402525614FF030
:102DF0001008C4F81080202727610A20FDF764FC22
:102E00006561802666610A20FDF75EFC25619620DB
:102E1000FDF75AFC4FF0D0414FF453630B8027610C
:102E20000023C6F602031A8818881A88C2F307120C
:102E3000000942EA002292B2B2F5487F00D0FEE7D4
:102E40000193A1F80080B420FDF73EFC4FF480729E
:102E50004FF0D0410A806420FDF736FC4FF48872B1
:102E60004FF0D0410A809620FDF72EFC4FF43162DE
:102E70004FF0D0410A806024019B1C8030201880D4
:102E80001F804FF434620A8018804FF436620A8043
:102E90001F804FF0E009A3F800904FF475620A809C
:102EA0004FF4D0721A804FF4406EA1F800E01F80FA
:102EB00000221A804FF4416CA1F800C04FF0500C72
:102EC000A3F800C04FF4426CA1F800C01F801F801F
:102ED0004FF4436CA1F800C0A3F800801F804FF4AA
:102EE000446CA1F800C0A3F800801F804FF4456C2B
:102EF000A1F800C04FF48E6CA3F800C04FF4687CBA
:102F0000A3F800C04FF4726AA1F800A01F804FF42C
:102F1000766AA1F800A04FF4986AA3F800A04FF4D5
:102F2000786AA1F800A01C804FF4606AA1F800A0A4
:102F30001C804FF4E07AA3F800A04FF4F87AA3F8CD
:102F400000A0A3F800A04FF4C07AA3F800A04FF4AB
:102F5000987BA3F800B01C80188018801D8070201A
:102F6000188018801A804FF461640C80A0241C80A3
:102F70004FF4A0741C804FF4D8741C80A3F800A0F8
:102F80004FF490741C80A3F800901F80A3F8008079
:102F90001A80A3F800801E8018801A804FF45870A1
:102FA0000880A3F800E0A1F800C04FF4AA601880E0
:102FB0004FF4547008801A804FF4287008801A80EB
:102FC0001A801A804FF4FE6018804FF42C7008802D
:102FD0001A801A801A804FF41F621A804FF43072E0
:102FE0000A804FF4A042039240F6FF704FF6F07152
:102FF00018801980039A013A0392002AF8D14FF001
:10300000D0434FF424721A80142005B0BDE8F04F6D
:10301000FDF75ABB01608A7B8271CB7BC371D108FB
:10302000520714BF01FB03334B438380704700BF3B
:1030300041F25C73C2F200031860704741F25C73A6
:10304000C2F200031A68938800FB03F3113310687F
:1030500018447047F0B541F25873C2F200031C687F
:10306000217B256809B3002305F1120C05F1140E2C
:103070003CF82320824203D83EF8232082421AD211
:1030800001339942F4D1002348F2A01005F114074E
:1030900048F29F163CF82320824203D837F823E0F9
:1030A000B64515D801339942F4D1EA8948F2A01007
:1030B0004FF0FF3302E005EB83056A8A04EB43031C
:1030C000DB89801A03442289606802FB0300F0BD9B
:1030D00048F2A010F2E700BF84460068C8B102467B
:1030E00001E03A2B0AD012F9013BD9B21F29F8D8D6
:1030F00041F26073C2F200031878704790F9003013
:10310000302B06D1831C9A4203D1CCF8002000203A
:1031100070474FF0FF30704748B10346026832B144
:10312000107820B1B3F804C0D088844503D00920BA
:1031300000230B60704700B583B0CDE900135078D1
:1031400005F094FA10F00100009904D1019B1B686E
:103150000B6003B000BD092000230B6003B000BD6D
:1031600003790BB90020704710B582B0044600F512
:10317000A8710123426A0191407805F095FA68B977
:103180002071606A226AE36AC31A934203D2E37829
:10319000022B019905D0002002B010BD012002B021
:1031A00010BD01230244607805F07EFAF3E700BF0A
:1031B00010B582B004460268134613F8010B80284C
:1031C00020D99F280CD900F12001C9B21C2907D9A8
:1031D00001934FF4697102F069FF78B1019B13E02C
:1031E000931C92F901C05FFA8CF13F2906D97E2920
:1031F0000DD9BCF1000F01DAFC290CD94FF0FF30DA
:1032000002B010BD0028E3D1236002B010BD0CEB6A
:10321000002080B2DCE71078527840EA022040BA01
:1032200080B2D5E7F8B505460C46FFF799FF30BBED
:10323000A11EEB69023B99423DBF6B896E6B01FB9E
:10324000036606466E6205F5A8774FF4007200210A
:10325000384609F079FD6B891C466BB1002402E009
:1032600001349C4208D2012332193946687805F0AE
:103270001BFA6B890028F3D0E01A18BF0120F8BDB3
:1032800000B5D0F800C049B18B6803620B6923F028
:10329000FF03CA7913434362CB6C8362DCF83C20A2
:1032A00092F8343092F8351043EA012392F8361040
:1032B00043EA014392F8372043EA02638360DCF873
:1032C0003C3093F8381093F8392041EA022193F802
:1032D0003A2041EA024193F83B2041EA026193F827
:1032E0003C2093F83DE042EA0E2293F83EE042EAA9
:1032F0000E4293F83F3042EA0363C0E90413DCF85E
:103300003C3093F8213003F00203C3710023C36102
:1033100000BD00BF426A8A4201D10020704730B52B
:1033200083B00D460446037900F5A87163B9012303
:103330002A46607805F0AEF910B9656203B030BD79
:1033400001204FF0FF35F8E701230191407805F0A7
:10335000ABF988B92071606A226AE36AC31A9342A2
:103360000199E4D2E378022BE1D101230244607891
:1033700005F09AF90199DAE70120DFE72DE9F04736
:10338000814692468E1EC369023BB34298BF002617
:103390003746344600254FF0010805E0DABB013519
:1033A000AA453ED0A6B31446D9F8381001EB143123
:1033B0004846FFF7AFFFC0BBC4F3C80004F00703E3
:1033C00008FA03F3D9F81C20A2F1020C09EB000261
:1033D00092F8501103EA01020134A445DED992B9F2
:1033E000013555451DD0A64211D05B0013F0FF03F7
:1033F000F0D10130B0F5007FD6D209EB000393F88D
:1034000050110123E6E727460025A642EDD100260C
:103410003046BDE8F087002EFAD000252F462C4616
:10342000C2E7BE1C3046BDE8F0874FF0FF36EFE73D
:103430002DE9F8430746154699460239836B03EB9D
:103440001138C1F3C80601F0070101248C40414640
:103450003846FFF75FFF38BBBA1992F850C114EA3B
:103460000C0F14BF01230346994513D120E06400DB
:1034700014F0FF0407D10136B6F5007F1AD2BA194D
:1034800092F850C1012414EA0C0F14BF0123002349
:103490004B450BD08CEA040C5FFA8CFC82F850C1CF
:1034A000013DE4D101233B71BDE8F88301233B7169
:1034B0000220F9E708F1010801233B7126461C466A
:1034C000C5E700BFF0B583B005460B460478022C73
:1034D0003DD012D8012C53D1019201EB5102009141
:1034E0001646C16A01EB5221FFF714FF009B019AB7
:1034F000002848D0012003B0F0BD033C012C3FD888
:103500000192C16A01EBD3110093FFF703FF00287A
:10351000F0D1009B9B0003F4FE7329780429019AE3
:1035200008D022F07042E91891F85311090601F011
:1035300070410A4305F5A870C118C254130A4B70B4
:10354000130C8B70120ECA7001232B7115E00192BF
:10355000C16A01EB13210093FFF7DCFE0028C9D1FB
:1035600005F5A871009B5B0003F4FF73C818019A6E
:10357000CA54120A427001232B71002003B0F0BD1F
:10358000022003B0F0BD05F5A87C6746711CC6F3A8
:1035900008000E46490ADB0716D51CF8003003F078
:1035A0000F0343EA021300920CF800302C71EB6A0F
:1035B00019442846FFF7AEFE00289BD1009AC6F3B7
:1035C00008017918130914E00CF8002000922C71FE
:1035D000EB6A19442846FFF79DFE00288AD1009A1D
:1035E000C6F30803F918FB5C23F00F03C2F30322B0
:1035F00013430B7001232B71BFE700BFC369DBB11D
:1036000070B504460E4615460AE02068C369994223
:103610000ED2FFF757FF60B9E369013BE3614BB19D
:10362000F21A511C012B14BF02322A460129ECD890
:10363000022070BD184670BD18467047C379032B31
:1036400001D00020704770B505468669AEB181682B
:10365000012901D8022070BD0E4408E04C1C22460E
:10366000FFF730FF0028F6D1B44206D02146286883
:10367000C3699942F2D30220EDE70023EB710020E9
:1036800070BD00BF012911D970B582B00468E2692C
:103690008A4202D8012002B070BD0B462278013A5E
:1036A000032AF7D8DFE802F05743250401207047CA
:1036B000D0E9042190F807C052EA010E5BD0D0F89F
:1036C00008E0BEF1000F56D0A3EB0E0EBCF1020FC6
:1036D00040F09380013A41F1FF31520A42EAC1526F
:1036E0006189B2FBF1F29645D4D800F08E80581C67
:1036F000D1E7E16A01EBD31100932046FFF70AFE00
:10370000B0BB009B9B0003F4FE73234493F850016D
:1037100093F8512140EA022093F8522140EA0240F6
:1037200093F8533140EA036020F07040B3E7E16A58
:1037300001EB132100932046FFF7ECFDC0B9009B7D
:103740005B0003F4FF73234493F8500193F8513165
:1037500040EA03209FE703EB53020193E16A01EB88
:10376000522100922046FFF7D5FDDDE9002338B352
:103770004FF0FF308FE7BCF1000F8BD1C269002AF8
:1037800043D1E16A01EBD31100932046FFF7C2FD5C
:103790000028EDD1009B9B0003F4FE72A31893F860
:1037A000500193F8512140EA022093F8522140EA57
:1037B000024093F8533140EA036020F000406AE78A
:1037C0000093551CC2F30802224492F85061E16A4A
:1037D00001EB55212046FFF79DFD0028C8D1C5F318
:1037E0000802224492F8502146EA0220009BDB079F
:1037F0004CBF0009C0F30B004DE7BCF1030FBDD176
:10380000826972453FF673AFB8E76FF0004042E758
:10381000F8B506683378042B14BF4FF400134FF04B
:1038200080538B421FD90C46CA061CD10546016342
:103830008168D1B173895F02B4EB432F08D231E0C4
:10384000012810D9F36983420DD9E41BA7422AD875
:103850002846FFF717FF0146431CF1D10120F8BDB0
:103860000023AB6369630220F8BD3378022B13D8C1
:103870003389B3EB541FF6D9336BAB636963002B09
:10388000F1D003EB5423AB6306F5A876C4F308012B
:103890000E44EE630020F8BD336BC171002BE7D0FE
:1038A0001946C7E7F3698A1E023B9A42D8D270894B
:1038B000736B02FB0033E0E72DE9F04107468846D1
:1038C0000568002956D12E696A6916BB002A4DD0B9
:1038D0002B78042B75D0EB690126344607E00128CC
:1038E00013D0013000F08B80B4423FD0EB6901343B
:1038F0009C4202D3012E39D0022421463846FFF7DC
:10390000C1FE0028EBD1012C7ED801242046BDE861
:10391000F081EB69B342D9D942B32A78042ADCD1C9
:10392000012231462846FFF729FD0446431E033392
:103930001DD801231A4601462846FFF779FD0228C3
:10394000E3D001285BD0B8F1000F61D10223FB71F5
:103950002C616B695BB1EA69023A934207D8013B7B
:103960006B616B7943F001036B7100E0002420462A
:10397000BDE8F081FFF786FE04460128C5D9421C48
:103980003DD0EB698342F2D86A69002AEED02A78EA
:10399000042A3BD008F10104A34298BF0224214627
:1039A0003846FFF76FFE0128AFD0431C27D0EA69E5
:1039B000134640B12E69012E24D9964228BF4646AF
:1039C0008BE70126ACE7ECB1A2429ED94FF0FF3263
:1039D00021462846FFF776FD78B9B8F1000FB7D039
:1039E000B8F1010F91D0EB6998458ED2224641463D
:1039F0002846FFF767FD0028AAD0012885D14FF09F
:103A0000FF34B4E7464668E7EA69DDE7464687E7FC
:103A1000FB79022B14D0FB6908F10102A2420CD001
:103A20000BB90123FB61224641463846FFF7E6FD0C
:103A30000028E2D10123FB618AE753B10133FAE7A1
:103A4000731CA34284D0BB68F31ABB610323FB71D0
:103A5000E1E70223EFE700BF012951D92DE9F8433F
:103A60000C460568EB698B4247D991460746002A08
:103A70003DD1A04602E0A046944233D226462146DC
:103A80003846FFF7FFFD044660B3012835D0421CDD
:103A900061D02B78042B08D0EB699E422DD20022F6
:103AA00031462846FFF70EFD40BB6B69EA69911E5F
:103AB0008B4205D201336B616B7943F001036B716B
:103AC0000136A642D8D02B78042BD4D10023A6EB04
:103AD000080241462846FFF7ABFC78B9EA69A046E0
:103AE0009442CBD32B78042B1ED0002006E02A78FA
:103AF000042A12D0B9F1010F04D10220BDE8F883E5
:103B0000022070474B45F8D94FF0FF32494628460E
:103B1000FFF7D8FC0028ACD0F0E7C279022AA8D081
:103B2000B9F1010FEED1E8E7B9F1000F16D0FB793A
:103B3000BBB9BC680AE021463846FFF7A3FD01285F
:103B4000DBD9431C07D001348442CED14C45F2D19D
:103B50000223FB71C9E70120BDE8F88387F80790CD
:103B6000C3E7032BC1D1BB684B45BED8BA69134428
:103B70004B45EDD2B9E700BFF0B585B003460E4620
:103B80000568016B01F120022978042914BF4FF464
:103B900000114FF08051914204D800229A63042012
:103BA00005B0F0BD816B0029F9D0C2F30804002CE8
:103BB00040D101318163416B002943D0B5F80AC07F
:103BC0000CF1FF3C1CEA522C674633D10290019263
:103BD000FFF758FD01460128019A029B39D9481C7C
:103BE00035D0E869884219D8002ED6D0596B1846CE
:103BF00001930292FFF760FE014660B3012828D0CE
:103C0000431C24D003902846FFF70CFBF8B9019B16
:103C1000D87940F00400D871029A039959630239A7
:103C2000E8690238814204D2B5F80AC0686B01FB2A
:103C30000C079F631A6305F5A8722244DA6300201B
:103C400005B0F0BD2989B1EB521FF3D8A5E70120DB
:103C5000A6E70220A4E70720A2E700BF2DE9F8436A
:103C60000546884606680021FFF7D2FD40B90446A4
:103C7000AF6B736A9F420ED03046FFF771FA08B1FE
:103C8000BDE8F88301233A4606F5A871707804F080
:103C900001FDD8B97762EB6B1B783278042A0DD01E
:103CA000E52B0DD063B1002401212846FFF764FF06
:103CB0000028DDD0042808BF0720E1E71B06F2D466
:103CC00001344445F0D10020BDE8F8834FF0FF33C4
:103CD00073620120BDE8F8832DE9F04704460368CC
:103CE000DD6B6E780136700100231A46022A06D178
:103CF000DA0302EB53032A7913449BB20522D9035A
:103D000001EB5303A95C0B449BB201329042EDD806
:103D1000AB701B0AEB70E16C2046FFF779FD824621
:103D200068B94FF001092768D4F838807B6A984554
:103D30000AD03846FFF714FAF8B14FF0010A50469E
:103D4000BDE8F087C7F8248020222946E06B09F0FF
:103D5000E0FE236883F80490013EF0D02035002176
:103D60002046FFF709FF0028DDD0022828BF0220E7
:103D70005FFA80FA5046BDE8F0870123424607F516
:103D8000A871787804F086FC0028DBD04FF0FF3370
:103D90007B62D2E7F0B583B004460068C36B1F4670
:103DA000A16BFFF7B7FA00287DD1E16B0A78852A6D
:103DB00003D00223184603B0F0BD019020223846FC
:103DC00009F0A7FE7A7801325601A6F16002B2F539
:103DD000007FEED801992046FFF7CEFE0346042867
:103DE000E7D00028E6D1A16B2068FFF793FA0028FE
:103DF00059D1E16B0B78C02BDBD12022B81809F028
:103E000088FE97F823302C3348F68902C8F68802DA
:103E1000A2FB0323DB08B6EB431FCAD340250021D6
:103E20002046FFF7A9FE03460428C2D00028C1D1CE
:103E3000A16B2068FFF76EFA0346002833D1E16BCF
:103E40000A78C12AB5D1B5F5187FB3D001902022E8
:103E5000781909F05EFE05F120031D469E42019B84
:103E6000DDD8B5F5187FA5D87878013040011A461D
:103E7000022A06D1DA0302EB53033A7913449BB2C8
:103E80000522D90301EB5303B95C0B449BB2013209
:103E90009042EDD8BA78F97842EA0122D31A18BFD5
:103EA00001235B0086E70123184603B0F0BD00BF85
:103EB0002DE9F84F04460F4605684FF0FF084646C7
:103EC0000420D4F838A0BAF1000F30D06B6A9A45BC
:103ED0000AD02846FFF744F900283FD00023A36307
:103EE000BDE8F88FC5F824A0E16B0B7803B32A78FE
:103EF000042A1FD0CA7A02F03F02A271E52B0AD031
:103F00002E2B08D022F02000A0F10800B0FA80F09B
:103F10004009B84230D0FF2600212046FFF72CFE92
:103F20000028DBD1D4F838A0BAF1000FCED198B177
:103F30000420D3E717B1832BEED10DE0852BEBD115
:103F4000236BE3642046FFF725FF0028C6D1EB6B07
:103F50001B7903F03F03A3710020C1E70123524600
:103F600005F5A871687804F095FB0028BAD04FF0E9
:103F7000FF336B620120B1E70F2A4BD1580635D5CC
:103F800091F80D8003F0BF03226BE2644A7B424547
:103F9000C1D18A7EC87E52EA0022BCD1EA6893462B
:103FA0000E7826F04006013E06EB460206EB82063E
:103FB00040F28C10C0F6010000F10D0A012210F849
:103FC00001CB964611F80C208C449CF801C042EAC3
:103FD0000C22BEF1000F0CD0FF2E9CD806F1010C74
:103FE0002BF81620824527D06646E8E79E4292D1FC
:103FF000CCE74FF6FF7C06E010F8016B8A5D0E44BB
:10400000767842EA0622624585D18245F4D1013BA9
:10401000DEB281E766B901F10B00F30103EB560351
:1040200011F8012B1344DEB28142F6D1B04593D092
:104030004FF0FF33E3648FE709784906E7D5002A9C
:10404000E5D0BCF5807F3FF466AF00222BF81C2042
:10405000DDE700BF2DE9F04F87B005460668002177
:10406000FFF7D6FB8146002837D13378042B00F0C8
:10407000C4804FF0FF37EF644FF0FF0A544605F15C
:1040800040080AE00F2A2CD0EF64FF2400212846C4
:10409000FFF772FD002840F09D80A96B3046FFF7C6
:1040A00039F9002840F09680E86B0178002900F08B
:1040B0009E80C37A03F03F02AA71E529E4D01B0772
:1040C000E0D4002C75D095F84B30DB07DCD40B2204
:1040D000414608F029FE0028D6D1484607B0BDE881
:1040E000F08F95F84B305A06D0D44B0677D501F0B7
:1040F000BF012B6BEB6490F80DA0837EC27E53EA68
:104100000223C2D1D6F80CC0CDF814C0027802F058
:104110003F02013A02EB420302EB8302D3460096D0
:1041200006460491012440F28C1AC0F6010ACDF82B
:1041300004909146CDF80880E04603951AF8010BEB
:104140002546345C3044407844EA0024002D00F0D9
:10415000A980B9F1FF0F00F2C680204601F0E4FF0C
:10416000054638F8190001F0DFFF854240F0BB80BA
:1041700009F1010940F29913C0F601039A45DDD116
:104180003046DA46009E04994A46DDF80490DDF890
:104190000880039D0078400606D52CB1059B33F8B6
:1041A0001230002B7FF471AF01F1FF3C5FFA8CF409
:1041B0006CE700F10B0102462346DC0104EB5304DB
:1041C00012F8013B1C44E3B28A42F6D19A457FF4CF
:1041D0007AAF82E78146484607B0BDE8F08F8C424F
:1041E0007FF453AF437B53457FF44FAF85E74FF0E8
:1041F0000409484607B0BDE8F08FF468208800281D
:104200006FD00234C84601F08FFF4FEAC83303EB8A
:104210005803C2B21344C3F34E0808EBC338C0F3CB
:10422000072080441FFA88F834F8020B0028EAD1EE
:1042300000212846FFF73CFE0028CBD1F36B93F812
:10424000242093F8251042EA01224245F0D193F848
:1042500023A0BAF1000F23D00746402407E00AF15B
:10426000FF33013713F0FF0A14D00234F36BE20678
:1042700008BF02341A5D2344587842EA002001F056
:1042800053FF8346F36833F8170001F04DFF834571
:10429000E5D0CDE77F00F368DB5B002BC8D11CE7DE
:1042A0005746F8E73046009E04992346D646DA463C
:1042B000DDF80490DDF80880039D4FF6FF7406E0FA
:1042C0001EF8013BC25C03445B7842EA0323A3422D
:1042D0007FF4DBAE40F29913C0F601039E45EFD1A7
:1042E00062E7C846A4E7DA46DDE90069DDF8088040
:1042F000039DCAE62DE9F04F87B007460D46D0F87A
:10430000009091F900302F2B3AD05C2B38D0D9F89F
:10431000183083600024C46199F80020042A00F05A
:1043200096812B781F2B44D94FF24C7AC0F6000AA5
:104330000095009B05933B68D3F80C80A8F102061A
:10434000002404E0FF2C17D0013426F8025F05A8F2
:10435000FEF72EFF411C0FD085B21F2D40F2738156
:104360002F2D30D05C2D2ED07F2DEBD8014650461E
:1043700008F0F2FC0028E5D0062007B0BDE8F08F79
:104380002A46154692F9003001322F2BF9D05C2BCA
:10439000F7D00023BB60FB6199F80030042BC0D13B
:1043A0008822002109F1C80008F0CEFC2B781F2BD1
:1043B000BAD8802387F84B300021384607B0BDE8D3
:1043C000F04FFFF725BA059B0093009A002500E007
:1043D0000125104612F9011B2F29F9D05C29F7D0CD
:1043E0000DB105900090CEB21F2E8CBF0026012685
:1043F000B600012C13D0022C40F02181B8F8022025
:104400002E2A0CD008EB440131F8023D202B01D0BC
:104410002E2B38D1013CF7D1A8F80040ACE7B8F812
:1044200000202E2AEED1002228F8142007F13F01A7
:104430002E25202002E001F8015F0132A242FAD3CA
:1044400048700A2A04D001F8020F02320B2AF5D173
:1044500046F02002D2B287F84B2099F800100429C8
:1044600040F0E881D9F80C1049882E2900F092819B
:10447000B97941F01001B97162F07F0287F84B20E1
:10448000002E6DD155E76000002128F81410B8F80F
:104490000020202A08BF08F1020240F0C9808B46A4
:1044A0000131154632F8023B202BF8D00BF1020BFC
:1044B00046F0030608EB000232F8023D2E2B01D035
:1044C000013CF9D10B22202107F1400008F03CFC0F
:1044D0002988002900F0D88108254B4638464746F0
:1044E000A0460024524682464FF0000920294ED0B3
:1044F0002E2975D0A5427ED80B2D00F0AB81C34587
:1045000073D046F0030670D94946994657469246FD
:104510000B4697F84020E52A04BF052287F8402083
:10452000082D21D001F00C020C2A03D001F0030267
:10453000032A1ED146F0020687F84B603846FFF783
:1045400089FD70B304287FF418AF06F00402B606A4
:1045500040F1AD81002A3FF4ECAE802387F84B3068
:10456000002007B0BDE8F08F8B0003F00C020C2A8E
:10457000E0D0B207E0D403F0010246EA0212D6B25C
:1045800046F0080213F0040F18BF1646D4E746F0B1
:104590000306594601F1010B37F811100029A5D186
:1045A000B2E799F80040042C00F0AB807207D7D432
:1045B000BA79D30640F1358109F5A872396BC1F398
:1045C00008010A44917ED07E41EA0021032C05D1E6
:1045D000107D527D40EA022241EA0241B960A8E61C
:1045E000C345D4D10B2D00F035814FEA89094146EE
:1045F0000B250824CEE7C345F4D07F2964D8039265
:10460000029301914FF25870C0F6000008F0A4FB2D
:104610000199029B039A002800F0138146F00306DB
:1046200020465F21441C504480F840105946B1E7B1
:1046300045464FF0010B2E2A7FF43CAF38E7002CA3
:104640007FF4E0AEE8E6059B00930426D1E6002B5C
:104650003FF4A6AE882209F1400109F1C80009F033
:1046600058FAD9F8C83003EB430309EB8303D3F8B6
:10467000D030FB71D9F8C83003EB430309EB830357
:10468000D3F8D03023F0FF03C7E90434D9F8C83099
:1046900003EB430309EB8303D3F8C0303B62D9F843
:1046A000C83003EB430309EB8303D3F8C43023F092
:1046B000FF037B62D9F8C83003EB430309EB8303A4
:1046C000D3F8C830BB622CE60292019346F0020395
:1046D0000393084601F028FD4FF4697101F0B4FC22
:1046E0000146FF28019B029A40F29F80681EA0426B
:1046F00040F2A280601C54440E0A84F84060039E7D
:1047000090E7BA79D50640F18980D9F8C820F86CCD
:1047100002EB420109EB8101C1F8D4000132C9F872
:10472000C8200A2A00F2C780D9F83C1091F834005A
:1047300091F8354040EA042091F8364040EA0440C0
:1047400091F8374040EA046002EB420209EB820232
:10475000C2F8CC0091F83A4091F83B0044EA0024BA
:1047600091F8210000F0020091F83850284391F8A8
:10477000391041EA042140EA0121C2F8D01074073F
:104780003FF5EEAEBA79D0064BD539463846FEF73E
:1047900077FDCEE5D9F8C81000293FF469AE01399C
:1047A000C9F8C81001EB410109EB8102D2F8CC2015
:1047B000BA60D9F8C82002EB420209EB8202D2F8B3
:1047C000D020FA71D9F8C82002EB420209EB82022C
:1047D000D2F8D02022F0FF023A6100227A61D9F8A3
:1047E000C820C2B102EB420209EB8202D2F8C0201B
:1047F0003A62D9F8C82002EB420209EB8202D2F8F1
:10480000C4207A62D9F8C82002EB420209EB820286
:10481000D2F8C820BA6297F84B2029E671073FF515
:104820009FAE052007B0BDE8F08F039E00283FF43F
:10483000F5AEE4E6164681E646F0030659462C46F8
:10484000A8E6A1F1410080B2192826D849F0020952
:104850002046E7E6494699465746924646F0030603
:1048600097F84020E52A7FF467AE052287F84020BC
:1048700001F00C020C2A3FF45DAE01F0030CBCF118
:10488000030F3FF457AE57E697F84020E52A7FF430
:1048900053AE052287F840204EE6A1F1610080B2B8
:1048A00019289CBF49F0010920392046BAE6002AA0
:1048B0007FF463ADB5E711205FE500BF30B583B08D
:1048C0000446037963B96379012B24D00022114691
:1048D000607803F0F3FE003818BF012003B030BD4C
:1048E00000F5A8710123426A0191407803F0DCFED3
:1048F00000283CD12071606A226AE36AC31A93429D
:10490000E1D2E378022B0199DDD1012302446078E2
:1049100003F0CAFED7E7002161712278032A29D06B
:10492000042AD3D104F5A8710D46A26A62626078A8
:1049300003F0B0FE0028C9D16169E269023A9142F0
:1049400061D8511A4FF0640C0346A1FB0C0108F02A
:1049500045F8C3B294F8C0219A42B7D084F8C03168
:104960000123626A2946607803F09EFEAEE70120CB
:1049700003B030BD019304F5A8704FF400720546F2
:1049800008F0E2F9522284F8502184F85121612282
:1049900084F85221412084F853014FF0720C84F8BE
:1049A00034C384F835C384F8360384F83723626946
:1049B00084F83823100A84F83903100C84F83A0379
:1049C000120E84F83B23226984F83C23100A84F8F1
:1049D0003D03100C84F83E03120E84F83F2300219F
:1049E00084F84C1384F84D13552284F84E23AA22E0
:1049F00084F84F23A26A01326262019B29466078E3
:104A000003F052FE62E7FF23A4E700BF30B583B096
:104A10000446002303714FF0FF354562A9423AD1A5
:104A200094F84E3394F84F2343EA02254AF655236F
:104A30009D4240D094F85031EB2B06D01833DBB2B6
:104A4000012B02D9032003B030BD94F85B3194F8F8
:104A50005C2143EA02235A1E1A42F3D1B3F5007FC8
:104A6000F0D194F85D31002BECD05A1E1A42E9D1F6
:104A700094F85E3194F85F2153EA022304D094F84D
:104A80006031013B012B49D94AF655239D42D9D1CA
:104A9000022003B030BD0A460123019100F5A87140
:104AA000407803F0F7FD019A18B16562042003B065
:104AB00030BD6262B4E70B224FF26071C0F60001B4
:104AC00004F5A87008F030F930B394F85031EB2BAE
:104AD00003D01833DBB2012BDAD808224FF26C7105
:104AE000C0F6000104F5D17008F01EF900283CD092
:104AF00094F85B3194F85C2143EA02235A1E1A426F
:104B0000C6D1B3F5007FC3D194F85D31002BBFD07F
:104B10005A1E1A42BCD1ABE7012094E794F86131E8
:104B200094F8622153EA0223AED094F8633194F8EA
:104B3000642143EA02233F2B10D894F8703194F893
:104B4000712143EA022394F8722143EA024394F864
:104B5000732143EA0263B3F5803F95D394F866313D
:104B600094F8672153EA02238ED000206BE700BF40
:104B7000F0B587B0154600230B600191FEF7ACFA43
:104B8000421C00F0488141F26473C2F2000353F802
:104B90002040002C00F0458101990C6005F0FE05D5
:104BA00023785BB1607803F061FDC30706D415B1CB
:104BB000470700F13381002007B0F0BD00232370C8
:104BC000607803F031FDC60700F1C68015B14007DB
:104BD00000F1248100212046FFF718FF022800F091
:104BE000CC80042800F02181012800F2C380616A92
:104BF000012800F0B48094F85B3194F85C2143EA1A
:104C00000223B3F5007F40F0B58094F8663194F844
:104C1000672153EA022300F00A81236294F860C1FD
:104C200084F803C00CF1FF32012A00F2A38094F84B
:104C30005DE1A4F80AE0BEF1000F00F09B800EF1E8
:104C4000FF3212EA0E0F40F0958094F8610194F85B
:104C5000622140EA02202081020740F08B8094F814
:104C6000632194F8645152EA05220DD194F8702121
:104C700094F8715142EA052294F8725142EA0542D1
:104C800094F8735142EA056294F85E5194F85F61BA
:104C900055EA06256ED003FB0CF605EB101CB44458
:104CA000624567D3A2EB0C02724563D3B2FBFEF2FE
:104CB0004FF6F57EC0F6FF7E72455BD84FF6F57E67
:104CC000724540F292810232E261A16205EB010E6F
:104CD000C4F82CE08C44C4F834C094F87AC194F839
:104CE0007BE14CEA0E2C50EA0C0C43D194F87C0189
:104CF00094F87DC140EA0C2094F87EC140EA0C4053
:104D000094F87FC140EA0C602063920002F2FF1227
:104D1000B3EB522F2ED34FF0FF3363612361802317
:104D2000637194F8803194F8812143EA0223012BC6
:104D300000F0E5810323237041F26272C2F20002A7
:104D4000138801331380E3800021A161882204F1DC
:104D5000400007F0F9FF2EE7032007B0F0BD04F58F
:104D6000AD700B2302E00133402B6FD010F8012F00
:104D7000002AF8D00D2007B0F0BD94F8163394F84F
:104D8000172343EA022394F8182343EA024394F8D2
:104D9000192343EA0263029394F8263394F82723F5
:104DA00043EA022394F8282343EA024394F8292390
:104DB00043EA0263039394F8363394F8372343EAC3
:104DC000022394F8382343EA024394F8392343EA50
:104DD0000263049394F8463394F8472343EA02238A
:104DE00094F8482343EA024394F8492343EA0263D0
:104DF000059302AB04E00320043306AA934212D0C9
:104E000019680029F7D001932046FFF7FFFD01281C
:104E1000019BF1D8EBE60B2007B0F0BD0A2007B0EC
:104E2000F0BD0C20C8E60428A4D10120C4E694F803
:104E3000743194F8752143EA022394F8762143EA09
:104E4000024394F8772143EA0263E6E694F8B83126
:104E500094F8B90143EA0023B3F5807F8AD194F82E
:104E6000BC31092B86D194F8980194F8993140EA25
:104E7000032094F89A3140EA034094F89B3140EAC9
:104E8000036094F89C3194F89DC143EA0C2394F894
:104E90009EC143EA0C4394F89FC143EA0C63401857
:104EA00043F100034FF0FF3C844572EB030CFFF429
:104EB00061AF94F8A4C194F8A5E14CEA0E2C94F8E3
:104EC000A6E14CEA0E4C94F8A7E14CEA0E6CC4F84B
:104ED00020C094F8BEC184F803C0BCF1010F7FF478
:104EE00049AF94F8BDE10CFA0EF61FFA86FCA4F85F
:104EF0000AC0BCF1000F3FF43DAF94F8ACC194F888
:104F0000ADE14CEA0E2C94F8AEE14CEA0E4C94F86C
:104F1000AFE14CEA0E6E4FF6FD7CC7F6FF7CE6452E
:104F20003FF628AF0EF1020CC4F81CC0A16294F841
:104F3000A8C194F8A9514CEA052C94F8AA514CEA5E
:104F4000054C94F8AB514CEA056C0CEB010565631C
:104F500094F8A0C194F8A1714CEA072C94F8A271BE
:104F60004CEA074C94F8A3714CEA076C6144E16287
:104F7000B1B20EFB01F1491942EB020C884273EB0E
:104F80000C0CFFF4F7AE94F8B03194F8B11143EA89
:104F9000012394F8B21143EA014394F8B31143EAB0
:104FA000016323631546BAB96089A8427FF6E2AE71
:104FB000216B0239E369023B99423DBF636B01FB00
:104FC00000335919294601922046FEF7A3F900281B
:104FD0007FF42BAF0135019AA31893F85031812B40
:104FE0004BD02032C2F30802DDE740F6F57E724571
:104FF0001DD90232E261A16205EB010EC4F82CE07A
:105000006144616300283FF4B5AE06EB0E012163F5
:10501000520002F2FF12B3EB522FFFF4ABAE4FF08F
:10502000FF336361236180236371022383E6202AB7
:105030007FF6A0AE0232E261A16205EB010EC4F878
:105040002CE06144616300283FF494AE06EB0E014E
:10505000216302F0010101F2FF1102EB420201EBB8
:105060005202B3EB522FFFF485AE4FF0FF33636172
:1050700023618023637101235DE604F5A8731E4656
:105080001A44137D517D43EA0123917D43EA014394
:10509000D27D43EA02621046012A7FF66BAEE369D5
:1050A00093427FF667AE6189023A636B02FB01337C
:1050B000A36315E005F07F0216F8223006EB8202AA
:1050C000517843EA0123917843EA0143D27843EAD5
:1050D0000263591C0ED06A1C10469A427FF44AAEF5
:1050E000E16A054601EBD0112046FEF713F90028CE
:1050F000E0D09AE663612361607104231BE601310D
:105100002046FEF707F900287FF414AE607194F88A
:10511000503194F8512143EA022394F8522143EA92
:10512000024394F8532143EA026345F25222C4F247
:10513000611293427FF4FEAD94F8343394F8352332
:1051400043EA022394F8362343EA024394F83723D0
:1051500043EA026347F27222C6F2411293427FF49D
:10516000E9AD94F84C3394F84D2343EA022394F8C4
:105170004E2343EA024394F84F2343EA0263024674
:10518000CAF6552293427FF4D5ADD4F83833D4F81B
:105190003C2322616361CDE52DE9F04F9DB090F88D
:1051A0004B3013F0A00840F01D82D0F800A0DAF8D0
:1051B0000C301A88002A00F04F8208F1010833F8F9
:1051C000022F002AF9D183469AF80030042B00F010
:1051D0001A8100F1400602960C22314606A808F01A
:1051E00098FC9DF82330DA076FD540238BF84B30BD
:1051F0004FF001090BF13F0301930BF1470741F217
:105200002105C0F20105CDF80C80DAF80C801FFAF8
:1052100089F40B2206A9304608F07BFCB9F1050F92
:1052200016D9B8F800209AB14C46102302F00101BB
:1052300001EB4404520884EA050114F4803F18BFCE
:105240000C46013BF2D138F8022F002AEDD1A4B26E
:105250000DF1180C072003E0240900F0B88008467F
:1052600004F00F0202F130033732392B88BF1346A6
:105270000CF8013D411EEFD17E228DF810200C4626
:10528000019B1C4400E00131082900F0DA810DEB9C
:1052900001031B7C04F8013FA742F4D15846FEF7F6
:1052A000D9FE48B909F10109B9F1640FADD107245C
:1052B00020461DB0BDE8F08FDDF80C8004460428C0
:1052C000F6D19DF823308BF84B309B0740F18F814E
:1052D00008F10C084EF64F43C4F6C463A3FB082341
:1052E0004FEA930909F101015846FEF7B7FC04465D
:1052F0000028DDD1B8F10C0F00F08181DBF830100F
:10530000A1EB49115846FEF783FA04460028CFD195
:105310000BF14B01029AE30103EB540312F8010B6A
:105320000344DCB28A42F6D1DBF838105046FDF770
:10533000F1FF0346002840F0CD81DAF80CE0DBF8FD
:105340003C505FFA89F86C734FF00F03EB722873CF
:10535000A876E87608F1FF3606EB460306EB8306EF
:1053600040F28C11C0F6010101F10C0C012702463C
:105370004FF6FF703B4682420CD03EF816202B447D
:10538000EA55170A5F70002A40F095818C450AD0D3
:1053900011F8013FFF2201E011F8013FE818EA543B
:1053A00042708C45F8D148F0400885F800804FF0F5
:1053B00001038AF8043000215846FEF7DDFB03465E
:1053C000002840F08781B9F10109ADD117E14FF014
:1053D0007E0C0DEB010282F810C002380FE0802B2A
:1053E00009D99F2B03D92033DBB21C2B03D8A04251
:1053F0003FF446AF01340134A1427FF641AF335D43
:10540000202BECD13CE708F10E0548F68903C8F6DD
:105410008803A3FB0535ED08A91CFEF71FFC044615
:1054200000287FF445AF0135DBF83030A3EB45139E
:10543000CBF84C309BF807305A0740F19B8023F0A3
:1054400004038BF807305846FEF7F8F8002840F0C0
:10545000F6804FF0FF32DBF834105846FEF7CEF8F6
:10546000002840F0EC80DBF80830002B00F0828050
:10547000DBF800300693DBF820300893DBF82430AB
:105480008DF81F3023F0FF03CDE90A340D94DBF8CB
:105490002810199106A8FEF7BBF9002840F0CF802C
:1054A00006A8FEF777FC002840F0C980BAF80A0089
:1054B0004FF40071DBE90432E0FB0132CBE9043246
:1054C000DAF83C1081F83830180A81F83900180CE5
:1054D00081F83A001B0E81F83B3081F83C20130A1A
:1054E00081F83D30130C81F83E30120E81F83F20D8
:1054F000DAF83C30DBE9041283F82810080A83F854
:105500002900080C83F82A00090E83F82B1083F871
:105510002C20110A83F82D10110C83F82E10120E76
:1055200083F82F20DAF83C209BF8073043F0010382
:1055300082F8213006A8FEF7CFFB00287FD1DAF8E9
:105540004020BAB1DBF808005146012303E00133E3
:105550000C3193420ED80D6DA842F8D1934209D870
:1055600003EB43030AEB83039BF80710DBF81020DF
:105570000A439A64DAF83C60DAF80C5040220021C1
:10558000304607F0E1FB85233370C02386F82030D6
:105590000027BE46012140223846C6F1040C4FF0D8
:1055A000C10AB94606F802A0324482F801901346B7
:1055B00011E0295A99B18B460A0A0137FFB27800E7
:1055C00005EB470883F802B0DA700CEB03020233F4
:1055D00012F01F0F42D005EB00080029E9D10A465E
:1055E0008B46EFE7062420461DB0BDE8F08F012171
:1055F0005846FEF733FB044600287FF459AEDBF82B
:1056000038105046FDF786FE044600287FF450AE61
:1056100020220146DBF83C0007F096FB0B220299A2
:10562000DBF83C0008F075FADBF83C209BF84B30C7
:1056300003F01803137301238AF8043039E0044699
:1056400036E62021631C61709F423FF427AE04F8C8
:10565000021FA742F6D121E69046B4E5B8F8003023
:1056600013B10EF1010E9DE7984686F823700EF1F6
:10567000020E86F801E02888B8B1023500F054FD2A
:105680004FEAC83202EB5802C3B21A44C2F34E03C7
:1056900003EBC233C0F3072003441FFA83F835F845
:1056A000020B0028EAD14446200A86F8244086F8F6
:1056B00025000024FCE501368C4502D011F8017F5D
:1056C00058E682423FF46FAE3EF81630002B7FF46E
:1056D0006CAE68E61C46EBE500B587B0039002911E
:1056E0000192059105A8FDF7F7FC431C21D041F27A
:1056F0006473C2F2000353F82010019A29B14FF0ED
:10570000000C43F820C081F800C0039931B1487003
:105710004FF0000C81F800C043F8201012B9104679
:1057200007B000BD002203A902A8FFF721FA07B0C5
:1057300000BD0B2007B000BD2DE9F047ADF5996D18
:105740000191002800F096801546044602F03F08BB
:1057500002F03F0203A901A8FFF70AFA034630B19D
:105760000022226018460DF5996DBDE8F087009083
:10577000039B1F46236004931AAADA609AAADA638D
:10578000019904A8FEF7B6FD05F01C02009B002855
:1057900061D19DF95B10814272DB002A60D06E07F7
:1057A00070D49DF8162012F0110F61D1280776D41D
:1057B0007A6AA264139AE2643878042800F0AC8014
:1057C000917ED57E41EA0521032805D1107D557DC6
:1057D00040EA052041EA0041A160117F507F41EA83
:1057E0000021907F41EA0041D27F41EA02622261BA
:1057F00000226261FA88A28084F83080002284F856
:105800003120626400200021C4E90E0118F0200F4D
:10581000A8D0D4E9045655EA0601A3D0C4E90E562F
:10582000A16878894FEA4028A84572EB06007AD231
:1058300000932046FDF726FF01460128009B4FF00C
:10584000000266D9B5EB080566F10006481CEBD1ED
:105850002164012384E70AB1042817D003467FE7B7
:105860009DF81620D1060FD4AE07A1D5D5079FD538
:10587000072375E7092318460DF5996DBDE8F087F4
:1058800006236DE708236BE7042369E7009304A868
:10589000FFF782FC0028E1D148F00808009B009344
:1058A000FBF734FC0546060E3A78042A009B64D0C8
:1058B000139A9073010AD173000C10745674139AE2
:1058C0009575D17510765676139A957ED17E45EAF8
:1058D00001253978032905D1117D507D41EA002148
:1058E00045EA01452021D172139A00219176D176A3
:1058F0003878032804BF11755175139900220A776F
:105900004A778A77CA77012139711DBB48F0400870
:105910004EE72064022323E7009304A92046FDF705
:10592000AFFC009B66E72164C5F30802002A3FF440
:1059300019AF0239FA69023A9142EBD278897A6B4F
:1059400001FB0022002AE5D06D0A45EAC6552A442B
:10595000626407E700937E6A294604A8FEF77CF894
:1059600000287FF47BAF31463846FDF7D3FC013D7C
:105970003D61009B0028C9D06BE700212046FDF760
:105980007FFCF86B1E220021023007F0DDF9F86B76
:105990001A220021263007F0D7F9FA6B2021117165
:1059A000FA6B15722B0A5372290C9172D672FA6B2C
:1059B000157353739173D673FA6B012182F821101A
:1059C00004A8FEF789F900287FF448AFA168009B7E
:1059D00000299BD002462046FEF73EF8A268013A15
:1059E0003A61009B002891D00346B9E62DE9F04FBB
:1059F00085B004460E46154698460023C8F8003088
:105A000003A9FDF789FB002861D194F83100002833
:105A10005ED194F830309A0740F1C180039F3A7804
:105A2000042A03D0A26BEA4228BFD543002D00F020
:105A30008E80D4E90E3C8346B1462E461D46604614
:105A4000C246C5F30803002B45D17A89013A6B0A97
:105A500043EAC05312EA03080FD1284340F08B8079
:105A6000A068002800F09D80012875D0431C00F03C
:105A700090802064A36803B9A0607A6A636C9A423C
:105A800000F08180236C023BFA69023A934263D2B0
:105A900079897A6B01FB0322002A5DD04244750AA2
:105AA00060D008EB05038B4288BFA1EB08052B46AD
:105AB00001924946787802F0F7FD8046002868D1C7
:105AC000796A019A891AA9427DD36D0221E00920E1
:105AD00005B0BDE8F08F626CDDF80C8011464046E1
