:020000040800F2
:10000000000001201D8F00080506000807060008F3
:10001000090600080B0600080D0600080000000095
:100020000000000000000000000000000F060008B3
:10003000110600080000000013060008150600085D
:10004000618F0008618F0008618F00084B0600086F
:10005000618F0008618F0008618F0008618F0008C0
:10006000618F0008618F0008618F0008618F0008B0
:10007000618F0008618F0008618F0008618F0008A0
:10008000618F0008618F0008618F00084306000837
:1000900047060008618F0008618F0008618F000823
:1000A000618F0008618F0008618F0008618F000870
:1000B000618F0008618F0008618F0008618F000860
:1000C000618F0008618F0008618F0008618F000850
:1000D000618F0008618F00086B190008618F0008AC
:1000E000618F0008618F0008618F0008618F000830
:1000F000618F0008618F0008618F0008618F000820
:10010000618F000899520008618F0008618F000814
:10011000618F0008618F0008618F0008618F0008FF
:10012000618F0008618F0008618F0008618F0008EF
:1001300000000000000000000000000000000000BF
:1001400000000000000000000000000000000000AF
:10015000000000000000000000000000000000009F
:10016000000000000000000000000000000000008F
:10017000000000000000000000000000000000007F
:10018000000000000000000000000000000000006F
:10019000000000000000000000000000000000005F
:1001A000000000000000000000000000000000004F
:1001B000000000000000000000000000000000003F
:1001C000000000000000000000000000000000002F
:1001D000000000000000000000000000000000001F
:1001E0005FF8E0F12DE9874800230093019300F0C8
:1001F000CFFA4FF47A7000F076F94FF4C054C4F29D
:100200000104019B022B12DC4FF47A7000F0BBF961
:100210002021204606F017FF05464021204606F023
:1002200012FF284310F0FF0F39D10123009307F08C
:1002300053FC009B40F6D435C2F2000541F6645BE6
:10024000C2F2000B42F2401AC2F2000A48F27934BC
:10025000C0F6000442F24419C2F2000942F2481802
:10026000C2F2000842F24C17C2F2000742F23C16FA
:10027000C2F20006BBB140F61B73C0F600032B6050
:1002800041F6BD03C0F60003CBF80030CAF80040C9
:10029000C9F80040C8F800403C60346036E0019B7B
:1002A00001330193ADE740214FF4C050C4F2010087
:1002B00006F0C9FE68B340F6D033C2F20003022252
:1002C0001A6041F2DD53C0F600032B6041F2A353E4
:1002D000C0F60003CBF8003045F6F363C0F6000328
:1002E000CAF80030C9F8004045F6D173C0F60003E3
:1002F000C8F8003046F22F03C0F600033B6045F615
:100300004D03C0F60003336005F059FD2B68984794
:10031000FCE720214FF4C050C4F2010006F093FE28
:1003200041F6BD03C0F6000318B340F6D032C2F266
:1003300000020121116041F27B62C0F600022A60D6
:10034000CBF8003046F60B03C0F60003CAF80030C5
:1003500046F65F23C0F60003C9F80030C8F8004035
:100360003C6045F6D913C0F60003336006F024FD67
:10037000CCE740F61B72C0F600022A6084E782B028
:100380004FF48053C4F202031A6842F001021A606B
:1003900059680022CFF6FF020A405A601A6822F01C
:1003A000847222F480321A601A6822F480221A6061
:1003B0005A6822F4FE025A604FF41F029A6000222B
:1003C000009201921A6842F480321A601A6802F4AC
:1003D00000320192009A01320092019A1AB9009AF1
:1003E000B2F5A06FF2D11A6812F4003218BF0122E0
:1003F0000192019A012A2FD14FF40052C4F2020255
:10040000116841F010011160116821F003011160C1
:10041000116811605A685A605A685A605A685A607E
:100420005A6822F47C125A605A6842F430225A60A8
:100430001A6842F080721A601A689201FCD55A68F4
:1004400022F003025A605A6842F002025A605A6867
:1004500002F00C02082AFAD14FF46D43CEF20003E9
:100460004FF000629A6002B070474FF48052C4F2BD
:100470000202516801F00C01042940F21003C2F29B
:10048000000312D0082915D04FF49051C0F27A0120
:1004900019605268C2F3031240F20001C2F2000177
:1004A000895C1A68CA401A6070474FF4D851C0F28C
:1004B000B701EDE751685068C1F383410231C003D1
:1004C00005D44FF41060C0F23D004143E0E75068AE
:1004D000800347BF48F68050C0F25B004FF4D8500D
:1004E000C0F2B700F1E730B587B00190042006F004
:1004F0004EFD019A40F21004C2F200042368B3FBDF
:10050000F2F3013BB3F1807F3CD24EF21002CEF207
:10051000000253604FF46D43CEF20003F02183F8E4
:10052000231000259560072313604FF48053C4F215
:100530000203DA6942F00802DA6103A807F0B2F8B0
:10054000236844F24022C0F20F02B3FBF2F3013BF6
:10055000ADF80C304FF6FF73ADF81030ADF8125017
:10056000ADF80E5003A94FF44060C4F2000007F04C
:1005700039F801214FF44060C4F2000007F09BF805
:1005800007B030BDFEE782B00190019A40F6D83343
:10059000C2F200031A601A68002AFCD102B0704748
:1005A00082B0ADF80600BDF806309BB253B14FF4EF
:1005B0004063C4F2000300229A849A8CBDF80610AE
:1005C0009142FAD202B07047704708B540F6DC336A
:1005D000C2F200031A6822B942F27052C2F200025B
:1005E0001A60186801446A46914206D908F0BAFCBC
:1005F0000C2303604FF0FF3008BD1960FCE74FF09B
:10060000FF3070477047FEE7FEE7FEE7FEE7704702
:100610007047704708B540F6D833C2F200031A6835
:1006200012B11A68013A1A6000F07BF940F6D03333
:10063000C2F200031B681BB9BDE8084000F043BCD0
:1006400008BD07F085BF05F0F7B8704770B5002307
:100650001E46050FECB2092D94BF3034373401F833
:100660001340000101EB430466700133DCB2A24287
:10067000EFD870BDF7B501217D2006F008FE4FF6DA
:10068000FF73ADF8043003268DF8066000278DF85F
:10069000077001A94FF40060C4F2010006F084FC69
:1006A0004FF44065C4F2010501A9284606F07CFC20
:1006B00001A94FF48050C4F2010006F075FC01A9B5
:1006C0004FF4A050C4F2010006F06EFC4FF4C05489
:1006D000C4F2010401A9204606F066FC39467D20DB
:1006E00006F0D5FD0121482006F0D1FDADF80460EB
:1006F0008DF8066010238DF8073001A9204606F01A
:1007000053FC4FF48076ADF8046001A9284606F04A
:100710004BFC3146284606F09EFC0121204606F09F
:100720009AFC0221204606F096FC03B0F0BD13B5FA
:100730000121402006F0ABFD7823ADF804300324FE
:100740008DF8064028238DF8073001A94FF4C050DA
:10075000C4F2010006F028FC0121042006F097FDF8
:100760004FF48073ADF804308DF8064004238DF803
:1007700007300DEB03014FF40060C4F2010006F0F6
:1007800013FC02B010BD00214FF0006006F0F4BB76
:1007900008B5FFF76AFEFFF7F6FFFFF76BFFFFF7FD
:1007A000C6FF00F03CF900F07EFABDE8084000F01A
:1007B0005CB97FB5002006F0D5FC002006F0CDFC2A
:1007C0004FF480114FF4803006F0BCFC012006F09D
:1007D000C4FC392006F079FD0028FAD04FF400530C
:1007E000C4F202031A6842F010021A601A6822F07A
:1007F00003021A601A6842F002021A60022006F030
:10080000B1FC06F0B9FC0828FBD101A806F0E0FC19
:1008100007B05DF804FB07B50121202006F037FD85
:100820000823ADF8043003238DF8063014238DF827
:10083000073001A94FF4A050C4F2010006F0B4FB48
:1008400003B05DF804FB08B5002006F09DFC012113
:100850004FF40000BDE8084006F025BD082128B18E
:100860004FF4A050C4F2010006F0F5BB4FF4A050C5
:10087000C4F2010006F0EDBB42F2BC43C2F2000339
:100880009A7A42F22413C2F2000312B105221A60CE
:1008900070470122FBE738B50D464FF2E873C1F609
:1008A000FF731B684FF2EC72C1F6FF7214684FF2CF
:1008B000F072C1F6FF7212689B180BD00822014635
:1008C0001846FFF7C3FE042229462046BDE83840FB
:1008D000FFF7BCBE38BD0022134640F60841C2F205
:1008E000000131F8120003449BB20532322AF8D1DC
:1008F0000A22B3FBF2F3C3F30B0240F6C6235343C1
:100900001B0B5B0040F6E432C2F20002B2F90010A9
:10091000481C1CBF5B0803EB61031380B2F90000A5
:10092000704738B54FF480714FF40060C4F2010095
:1009300006F089FB012840F6E833C2F2000315D126
:100940001A6801321A6040F6B8339A4210D907F09B
:10095000BBF800F0D1FA4FF400514FF48050C4F2CC
:10096000010006F076FB07F0AFF8FCE700221A6002
:1009700040F21804C2F20004256845B1FFF7ABFF4E
:1009800040F6E033C2F200031860013D256040F6F6
:10099000EC33C2F200031A680132B2F57A7F04D850
:1009A0001A60BDE8384007F08FB800221A6040F6A0
:1009B000E035C2F200052C6804EB4404FFF78BFF1E
:1009C00020448008286040F6B833984240F6F0335F
:1009D000C2F2000321D9B0F5616F40F21402C2F2F5
:1009E000000234BF02210121116040F62E529042D4
:1009F00013D81A6801321A600C2AD2D907F064F8A9
:100A000000F07AFA4FF400514FF48050C4F2010024
:100A100006F01FFB07F058F8FCE70022C0E707B517
:100A20000121102006F033FC4FF40053ADF80430E0
:100A300001238DF8063010238DF8073001A94FF4FB
:100A40008050C4F2010006F0AFFA45F2555007F0AD
:100A500029F8032007F02CF840F2E24007F02EF8C6
:100A600007F032F803B05DF804FB70B501214FF4D4
:100A7000047006F00CFC0121084606F0FCFB40F671
:100A80009841C2F2000103268E700F230B800025CF
:100A9000CD704FF48050C4F2010006F085FA0121B8
:100AA0004FF4007006F0F3FB0820C4F2020006F0D9
:100AB000CDFC40F66C41C2F2000142F24C43C4F25C
:100AC00001030B6040F60843C2F200034B608D60E7
:100AD0003223CB600D6180234B614FF480738B61B7
:100AE0004FF48063CB6120230B624D628D6208203E
:100AF000C4F2020006F037FD01210820C4F2020012
:100B000006F04FFD40F6F431C2F200010D60012401
:100B10000C714C714FF460238B60CD6005250D7412
:100B20004FF41050C4F2010006F0E3FB204606F03B
:100B300080FC0723224609214FF41050C4F2010023
:100B400006F028FC2B46022210214FF41050C4F26C
:100B5000010006F01FFC072332460A214FF4105013
:100B6000C4F2010006F016FC072304220C214FF406
:100B70001050C4F2010006F00DFC07232A460D2197
:100B80004FF41050C4F2010006F004FC21464FF46B
:100B90001050C4F2010006F043FC21464FF41050FF
:100BA000C4F2010006F0C9FB204606F042FC4FF4F7
:100BB0001050C4F2010006F0D2FB4FF41054C4F2FE
:100BC0000104204606F0D0FB0028FAD14FF4105063
:100BD000C4F2010006F0CCFB4FF41054C4F201043F
:100BE000204606F0CAFB0028FAD101214FF410502C
:100BF000C4F2010006F0AAFB01214FF41050C4F228
:100C00000100BDE8704006F0BCBB73B5064602A803
:100C100060E9022308F0ACF9436903F26C734361A5
:100C2000354604460FCC0FC50FCC0FC523682B608B
:100C3000304602B070BD10B5044606F067FD0246AE
:100C400000232046FFF7E1FF204610BD10B5044603
:100C5000012006F022FF06F08AFD204606F068FD1E
:100C600006F085FD0020BDE8104006F016BF84B0F8
:100C700030B58BB00EAC84E80F0001AC0EAD0FCDDB
:100C80000FC40FCD0FC42B682360069BA3F26C73B7
:100C9000069301A808F05CFCFFF7D8FF0BB0BDE895
:100CA000304004B0704770B586B0142006F0E6FE00
:100CB0004AF2A5540121A0424FF0C05052D006F094
:100CC000F2FA012006F0E9FE2146142006F0C7FEE4
:100CD00006F0BCFE012006F05CFA412006F0F5FAB1
:100CE0000028FAD04FF4807006F064FA012006F074
:100CF00069FA06F03CFD0121084606F0E7FC06F023
:100D000036FD47F6FF7006F022FD06F030FD40F696
:100D10009C44C2F2000440F2D9736361062323614C
:100D20000F23E3601723A3602D236360254645F856
:100D3000103B6E460FCD0FC62B68336094E80F0052
:100D4000FFF795FF06F013FD012006F0A6FE4AF21C
:100D5000A551142006F083FE002006B0BDE87040C7
:100D600006F09BBE06F09FFA06F009FD0121084639
:100D700006F0ACFC06B0BDE8704006F0F8BC70B5FB
:100D8000002441F66C55C2F2000540F6C046C2F29E
:100D900000062B68984782B2002AFAD01CB9242A90
:100DA00001D00024F5E7631C9BB230550A2A04D019
:100DB000B3F5007FF5D21C46EBE7D8B270BD0378DF
:100DC000303BDBB2092B0AD840783038C0B2092852
:100DD00005D803EB830300EB4300C0B2704700204B
:100DE000704740F6BF42C2F2000210F8013B1BB14F
:100DF00012F8011F9942F8D01846704740F6C043D8
:100E0000C2F2000313F8012B202A07D92C2AF9D1AA
:100E1000013810F0FF00F5D1184670470023FBE7BA
:100E200000B5A1B002460B4691F90010C1B94DF2D0
:100E30007A01C0F60001684600F0D0FE9DF900304E
:100E4000242B15D100231A460DEB030191F9011053
:100E50002A290ED00133802B0BD04A40D2B2F3E7BF
:100E60004DF27701C0F60001684600F0B7FEE5E7F5
:100E7000002269464DF27E00C0F6000000F0A1FE9F
:100E800000F08DFD0028FBD021B05DF804FB10B50B
:100E900041F22014C2F20004204602F003FBA078C5
:100EA000E3781B0443EA4053607943EAC023A07906
:100EB00043EA4013E07943EA50032088A0F2BC7073
:100EC00043EA406010BD10B541F21C14C2F20004A8
:100ED00023685A1C226041F6583293420BD94DF2D6
:100EE0008401C0F600014CF6D470C0F60000FFF794
:100EF00097FF0023236010BD10B541F22813C2F202
:100F000000031B6843B141F2F404C2F2000420461E
:100F100002F03CFA0028FAD110BD2DE9F04F8FB055
:100F20000024ADF8324041F67053C2F2000341F69E
:100F30007D02C0F600021A6041F66C53C2F2000353
:100F400041F69F02C0F600021A604FF416410220DB
:100F500000F0EAFB4CF6DD71C0F600014CF6E270E1
:100F6000C0F60000FFF75CFF6420FFF70CFB4FF4B6
:100F7000E131022000F0D8FB4CF6DD71C0F6000133
:100F80004CF6E270C0F60000FFF74AFF6420FFF75E
:100F9000FAFA4FF41651022000F0C6FB4DF223017D
:100FA000C0F600014CF6EB70C0F60000FFF738FF0A
:100FB0004DF22301C0F600014CF6F470C0F60000BB
:100FC000FFF72EFF4DF6C821C0F600014CF6FD706C
:100FD000C0F60000FFF724FF4DF23F01C0F600010C
:100FE0004DF20600C0F60000FFF71AFF4DF2230194
:100FF000C0F600014DF20F00C0F60000FFF710FF31
:101000004DF22301C0F600014DF21800C0F60000B9
:10101000FFF706FF4DF22101C0F600014DF2250059
:10102000C0F60000FFF7FCFE4DF22301C0F6000100
:101030004DF22E00C0F60000FFF7F2FE4DF2370130
:10104000C0F600014DF24100C0F60000FFF7E8FED7
:1010500022464DF28401C0F6000140F6C060C2F2A3
:10106000000001F0ACFF00F086FC41F22817C2F24C
:101070000007A1464FF4C055C4F2010500233B60B0
:101080000221284605F0E5FF41F21C16C2F20006D7
:10109000B34630BFFFF773FE0028FBD0022128467D
:1010A00005F0D9FF0121284605F0D3FF4DF24A0093
:1010B000C0F60000FFF795FE30B14DF25100C0F6CA
:1010C0000000FFF78EFE38B90220FFF797FE0446B6
:1010D0000121284605F0BFFFC6F80090002CD8D0AB
:1010E0002378412BD5D101243C600221284605F00C
:1010F000B2FF2146284605F0AEFF2046FFF77EFEF0
:101100000246FFF75CFE40F69C48C2F20008C8F8B1
:101110000800901CFFF753FEC8F80400101DFFF7ED
:101120004EFEC8F800000920FFF768FE0446FFF7EE
:1011300046FEC8F80C00A01CFFF741FE0138C8F8B5
:101140001000201DFFF73BFE6430C8F81400404635
:1011500008F0FEF947F69062002380185941FFF726
:1011600075FD02A8FFF767FDC44602AE0FCEACE8DE
:101170000F000FCEACE80F003368CCF80030034608
:10118000D8F81420642192FBF1F0D8F80C60009696
:10119000013301FB10224DF25801C0F6000140F668
:1011A000C040C2F2000000F019FD41F2F406C2F2A4
:1011B0000006122240F6C041C2F20001304601F0A2
:1011C00025FFA8BBF168304602F0EDF880BB4DF278
:1011D000690AC0F6000A40F6C048C2F20008FFF7EC
:1011E000CEFD064600283FF449AF5046FFF7F9FD13
:1011F00030B14DF27000C0F60000FFF7F2FD28BBE1
:101200000620FFF7FBFD04460378302B33D0022184
:10121000284605F01EFF0DAB3246414641F2F40070
:10122000C2F2000001F0C0FF10B90D9B9E4222D017
:1012300041F2F406C2F200060221284605F009FF39
:10124000304602F0A3F80028F6D117E74DF24A0025
:10125000C0F60000FFF7C5FD30B14DF25100C0F6F9
:101260000000FFF7BEFD30B90220FFF7C7FD0446BE
:101270000378412BCBD0BDF8323001339BB2ADF8AF
:1012800032305A2B07D80221284605F0E4FECBF86D
:10129000009030BFA3E70221284605F0DAFEADF842
:1012A000329041F2F400C2F2000002F038F8002857
:1012B000E9D0BDE7F7B541F65054C2F200044FF44F
:1012C00016532360002363604FF44022A260A38181
:1012D0000121052005F0DBFF01214FF4003005F06E
:1012E000E2FF0426ADF8046003278DF8067018238A
:1012F0008DF807304FF40065C4F201050DEB0601CF
:10130000284605F051FE0823ADF804308DF806702C
:101310008DF807600DEB0601284605F045FE4FF4F9
:101320008845C4F200052146284606F0E5FA012169
:10133000284606F03DFB012240F22551284606F0E2
:1013400042FB03B0F0BD73B540F20413C2F20003D8
:10135000197901291A461AD006D302291ED0FFF79F
:10136000A9FF002002B070BD41F65053C2F2000345
:101370000021D9805379012B2BD016D3022BEED12B
:1013800041F65053C2F200034FF4C06112E041F63F
:101390005053C2F200034FF44051EAE741F6505374
:1013A000C2F200034FF40051E3E741F65053C2F29A
:1013B0000003002119819379072B11D0082BCED17E
:1013C00041F65053C2F20003198971B14FF48051B4
:1013D0000BE041F65053C2F200034FF48061E9E79D
:1013E00041F65053C2F200030021998041F6505457
:1013F000C2F20004136823600023A3810C236381DD
:101400000121052005F043FF01214FF4003005F0D4
:101410004AFF0425ADF8045003268DF80660182312
:101420008DF807300DEB05014FF40060C4F20100A8
:1014300005F0BAFD0823ADF804308DF806608DF88C
:1014400007500DEB05014FF40060C4F2010005F0F8
:10145000ABFD21464FF48840C4F2000006F04CFA80
:1014600001214FF48840C4F2000006F0A1FA0120E7
:1014700078E7F8B506460F4604464FF48845C4F2AF
:101480000005A31B9F4200D8F8BD14F8011B284695
:1014900006F0B0FA8021284606F0B4FA0028F9D008
:1014A000EFE770B541F63913C2F2000300221A705B
:1014B00041F63813C2F20003197801291C4612D0F4
:1014C00041F63413C2F200031968B1F5006F08BF8A
:1014D0001A601A6841F63011C2F2000109688A42A6
:1014E00002D10023237070BD41F62C10C2F200001F
:1014F0008CBFC2F50061891A0160016840291AD9C0
:1015000002F140051D60403901604026012525702B
:1015100041F22C13C2F2000390B23246C0211844AB
:1015200007F057F83146284607F0E3FA2846BDE8A9
:10153000704007F030B98EB2114419600023036087
:10154000E4E710B540F20413C2F200039B79072BC5
:1015500041F63014C2F2000415D14FF48840C4F2B1
:10156000000006F04BFA41F22C13C2F2000322688D
:1015700000F07F00985423680133B3F5006F08BF73
:101580000023236010BD082BF5D14FF48840C4F22E
:10159000000006F033FA41F22C13C2F20003226875
:1015A000E8E708B540F225514FF48840C4F2000046
:1015B00006F02EFA08B1FFF7C4FF08214FF4884067
:1015C000C4F2000006F01EFA38B14FF48840C4F2AD
:1015D0000000BDE8084006F011BA08BD07B5FFF7E6
:1015E000E8F84FF47A70FEF77EFF00F0B3FD4DF29D
:1015F000AC01C0F6000141F67450C2F2000000F0E8
:1016000080FE41F67450C2F2000000F089FE00F046
:1016100086FD01234DF28502C0F600020021084636
:1016200000F0ECFCFFF7F7F80020FFF717F9FFF7E1
:101630000AF94FF4C06005F05DFC4FF48A73ADF811
:10164000043000238DF8063001248DF8074001A8EE
:1016500005F05AFC2623ADF8043001A805F054FC2F
:1016600006F08BFE2046FFF7F9F842F22413C2F28F
:1016700000031A68052AFCD1FEE707B5FFF799F8C1
:101680004FF47A70FEF72FFF00F064FD4DF2AC01CD
:10169000C0F6000141F67450C2F2000000F031FEC5
:1016A00041F67450C2F2000000F03AFE00F037FD3F
:1016B00001234DF29702C0F600020021084600F017
:1016C0009DFCFFF7A8F80020FFF7C8F8002004F001
:1016D000C4FCFFF7B8F84FF4C06005F00BFC4FF402
:1016E0008A73ADF8043001248DF806408DF8074068
:1016F00001A805F009FC40F21313ADF804300023F3
:101700008DF806308DF8074001A805F0FDFB06F0C6
:1017100034FE2046FFF7A2F842F22413C2F200037F
:101720001A68052AFCD1FEE72DE9F34105468846F3
:10173000022868D141F63C14C2F200044FF48843F9
:10174000C4F2000323600121052005F0A0FD012162
:101750004FF4003005F0A7FD0426ADF80060032724
:101760008DF8027018238DF8033069464FF400603D
:10177000C4F2010005F018FC0823ADF800308DF824
:1017800002708DF8036069464FF40060C4F20100F6
:1017900005F00AFC4FF4C06005F0ACFB4FF4937306
:1017A000ADF804308DF8065001268DF8076001A8C9
:1017B00005F0AAFB41F65055C2F20005284606F096
:1017C000EDF8C5F800802946206806F095F841F646
:1017D0006052C2F2000241F64013C2F200031360ED
:1017E0000022C3F80424C3F80024C3F80C24C3F86F
:1017F0000824324640F22551206806F0E4F83146CC
:10180000206806F0D5F802B0BDE8F081D0F80834C1
:10181000D0F80C040133C3F30803181A18BF0120D1
:10182000704710B50246FFF7F1FF0446A8B1D2F8A1
:10183000083472B6D01880F800120133C3F30803DD
:10184000C2F8083462B641F63C13C2F2000301222A
:1018500040F22771186806F0B6F8204610BD02461F
:1018600072B6D0F80434C05CC0B2D2F8043401338C
:10187000C3F30803C2F8043462B6704710B50146DA
:1018800041F66052C2F2000214682046FFF7BEFF24
:101890000028F9D02046BDE81040FFF7C2BF41F64E
:1018A0006053C2F200031868D0F80024D0F8043462
:1018B0009A4201D0FFF7D3BF0020704770B540F2C5
:1018C00025514FF48840C4F2000006F0A1F8E0B1C1
:1018D00041F64014C2F20004D4F800540135C5F3B7
:1018E0000805D4F804644FF48840C4F2000006F000
:1018F00085F8C0B2B54224D1002240F225514FF400
:101900008840C4F2000006F05EF84FF48844C4F248
:10191000000440F22771204606F07AF820B341F621
:101920004013C2F20003D3F80C24D3F808149142F8
:101930000DD1002240F227712046BDE8704006F02C
:1019400042B8D4F80034E054C4F80054DDE7D3F8CA
:101950000C241A4492F80022A280D3F80C240132FD
:10196000C2F30802C3F80C2470BD41F66453C2F2FE
:1019700000031B68184741F66053C2F200031B685E
:101980000022C3F80424C3F8002441F63C13C2F239
:101990000003012240F22551186806F014B841F600
:1019A0006053C2F200031B68D3F80C24D3F8080478
:1019B000831A58425841704710B504460A2802D18C
:1019C0000D20FFF7F9FF41F66853C2F200031A68D1
:1019D0001AB1511C1960147010BD41F67053C2F257
:1019E00000031B68002BF7D0E0B2BDE81040184799
:1019F00010B5441E14F9010F00B910BDFFF7DCFF4C
:101A0000F8E72DE9F04F85B002460C4692F9000048
:101A1000002800F0D380252804D0561CFFF7CCFF07
:101A2000A0465CE092F90130302B2AD1D61C92F905
:101A30000230012200270A25A3F13001C9B2092989
:101A400029D923F020014C2902BF42F0040296F963
:101A500000300136002B00F0B180602BC6BFA3F12F
:101A6000200040B218464F2800F09E8019DC432821
:101A700000F08D80442835D0422800F0928018462E
:101A8000CCE72D2B19BF961C0022D61C92F90230F0
:101A900008BF0222CEE705FB0737303F16F9013BAE
:101AA000CAE755281ED0582878D05328E7D104F12A
:101AB000040825682B465C1B13F9011B0029FAD189
:101AC00002F0020A04F10109BAF1000F02D1BC428E
:101AD00053D34C462846FFF78BFFA74252D84446C3
:101AE000324693E74FF00A0C04F1040821684428B9
:101AF00004D10029BCBF494242F00802782B0CBF38
:101B00004FF0270E4FF0070E0020B1FBFCF40CFB4A
:101B100014132146092B88BF73445BB2451C303334
:101B20000DF8003014B1102D41D10F20130705D549
:101B300004AB1D442D2305F8103C851C12F0010F49
:101B40000CBF4FF0200B4FF0300BA94602F00204FF
:101B500009F1010A14B9B9452BD3D146013D1DF94C
:101B60000500FFF729FF002DF8D14F45B7D92020F8
:101B7000FFF722FF09F10109F7E72020FFF71CFF1B
:101B80004C469FE72020FFF717FF0134A5E704F13B
:101B9000040894F90000FFF70FFFA0E74FF0100CC6
:101BA000A2E74FF0020C9FE74FF0080C9CE7284695
:101BB000ABE75846FFF700FFD146C9E705B0BDE8DF
:101BC000F08F0FB407B504A951F8040B0191FFF78A
:101BD00018FF03B05DF804EB04B070470EB417B5FE
:101BE00005A951F8043B41F66854C2F20004206094
:101BF00001911846FFF705FF226800231370236048
:101C000003B0BDE8104003B0704770B596B0012135
:101C10004FF4807005F02FFB012140F2E11005F038
:101C200036FB4FF4FF43ADF81C3018238DF81F30FE
:101C300003238DF81E3007A94FF4C050C4F20100F1
:101C400005F0B2F91025ADF81C504FF4A054C4F2C1
:101C5000010407A9204605F0A7F92023ADF81C30A0
:101C600007A9204605F0A0F94FF40063ADF81C3039
:101C700007A9204605F098F94023ADF81C308DF8EF
:101C80001F5007A9204605F08FF98023ADF81C30BE
:101C900007A9204605F088F94FF48076ADF81C605E
:101CA0004FF44064C4F2010407A9204605F07CF912
:101CB0003146204605F0CDF90223CDE900330293E9
:101CC00005230393CDE9043300230424CDE906342E
:101CD000089309930A950B930C930D930E930F930E
:101CE0004FF480521092119312931393CDF850D069
:101CF000CDF854D007A805F0B0F90121204605F031
:101D000011FA16B070BD0B460A46014600F0E6B95E
:101D10002DE9F04F85B000900E469B4641F6805568
:101D2000C2F200052B685F7A4FEAD70907F0070770
:101D30001078537843EA002000F003FB0446009B30
:101D400003EBC9039BB202934FF0000A2B689B7A06
:101D500053452FDC05B0BDE8F08F4FF0000819782F
:101D600001FA08F10A060BD50393019B03EB080067
:101D7000314680B2FFF7C7FF584600F0A6F9039B33
:101D800008F10108B8F1080FE9D10133191B009AD5
:101D900002EBC10082B201928945DEDC4C444FF077
:101DA0000008B84508DB07B101340AF1010A013621
:101DB000B6B2CBE72346E9E7237803FA08F31B061C
:101DC00009D5029B03EB0800314680B2FFF79BFF69
:101DD000584600F07AF908F10108E2E72DE9F04FE2
:101DE00085B000900E469B4641F67C55C2F2000538
:101DF0002B685F794FEAD70907F00707104600F014
:101E000095FA0446009B03EBC9039BB202934FF083
:101E1000000A2B689B799A452FDB05B0BDE8F08F4F
:101E20004FF00008197801FA08F10A060BD5039360
:101E3000019B03EB0800314680B2FFF764FF584670
:101E400000F043F9039B08F10108B8F1080FE9D14C
:101E50000133191B009A02EBC10082B2019289453D
:101E6000DEDC4C444FF00008474508DC07B1013484
:101E70000AF1010A0136B6B2CBE72346E9E7237837
:101E800003FA08F31B0609D5029B03EB0800314651
:101E900080B2FFF738FF584600F017F908F1010843
:101EA000E2E72DE9F74F07468B469946BDF830A08B
:101EB00041F68054C2F2000423685E7AF30801936D
:101EC00006F007061078537843EA002000F039FA4C
:101ED00005462268937A5B44507A3844013B5A465F
:101EE000411E384600F0FAF84FF000082268927A56
:101EF000424521DC03B0BDE8F08F4FF0000B3A788B
:101F000002FA0BF212F0800F14BF4846504600F060
:101F1000DCF80BF1010BBBF1080FF0D101377A1B94
:101F2000019B9342E9DC1D440027B74206DB06B162
:101F3000013508F10108D9E72F46F0E72A78BA40C1
:101F400012F0800F14BF4846504600F0BEF801372B
:101F5000EBE72DE9F74F07468B469946BDF830A0D1
:101F600041F67C54C2F2000423685E79F3080193C1
:101F700006F00706107800F0D9F905462268937933
:101F80005B4450793844013B5A46411E384600F0C4
:101F9000A5F84FF0000822689279424521DC03B091
:101FA000BDE8F08F4FF0000B3A7802FA0BF212F016
:101FB000800F14BF4846504600F087F80BF1010B24
:101FC000BBF1080FF0D101377A1B019B9342E9DC8A
:101FD0001D440027B74206DB06B1013508F10108B0
:101FE000D9E72F46F0E72A78BA4012F0800F14BFE5
:101FF0004846504600F069F80137EBE72DE9F34712
:1020000004460E4615469A4640F22007C2F20007E3
:1020100041F68058C2F2000841F67C59C2F200092C
:102020002A781AB9012002B0BDE8F0877F2C34D895
:102030009F2E32D839680B8882F080001F2801D982
:10204000DF2A16D9BAF1000F0BD12A4631462046B5
:10205000FFF75EFE0235D8F800305B7A1C44A4B26C
:10206000DEE74A8800922A4631462046FFF719FFEC
:10207000F0E7BAF1000F08D131462046FFF7AEFE77
:102080000135D9F800305B79E8E74A8800922A46A2
:1020900031462046FFF75DFFF2E70020C3E738B581
:1020A0004FF4A054C4F20104402525616420FEF7DA
:1020B0006AFA6561802363616420FEF764FA256132
:1020C0006420BDE83840FEF75EBA02090023C6F678
:1020D00002031A80000180B21880704770B54FF07B
:1020E000D0464FF4287434800024C6F6020400253C
:1020F0002580C0B2000120802580C9B2090121805D
:102100004FF42C7131802580D2B2120122802580BB
:10211000DBB21B0123804FF43073338070BD07B5F1
:102120009F2300227F211046FFF7D8FF4FF4A043E2
:1021300001930022C6F6020240F6FF704FF6F071DE
:1021400010801180019B013B0193002BF8D103B05B
:102150005DF804FB2DE9F843FFF757FDFFF79FFFFC
:102160004FF0D04410252580B420FEF70CFA4FF430
:10217000807323806420FEF706FA4FF4887323806F
:102180009620FEF700FA4FF4316323800023C6F651
:10219000020360261E803020188020221A804FF40F
:1021A0003461218018804FF4366121801A804FF00D
:1021B000E00EA3F800E04FF4756121804FF4D07178
:1021C00019804FF4406CA4F800C01A8000211980D7
:1021D0004FF44167278050271F804FF442672780C4
:1021E0001A801A804FF4436727801D801A804FF4AD
:1021F000446727801D801A804FF4456727804FF47D
:102200008E671F804FF468771F804FF47268A4F8C0
:1022100000801A804FF47668A4F800804FF4986824
:10222000A3F800804FF47868A4F800801E804FF473
:102230006068A4F800801E804FF4E078A3F8008066
:102240004FF4F878A3F80080A3F800804FF4C0782A
:10225000A3F800804FF49879A3F800901E801880AE
:1022600018804020188070201880188019804FF442
:1022700061662680A0261E804FF4A0761E804FF453
:10228000D8761E80A3F800804FF490761E80A3F8C5
:1022900000E01A801D8019801D8080221A8018801D
:1022A00019804FF458722280A3F800C027804FF4A1
:1022B000AA621A804FF4547222801980FFF72FFF10
:1022C0004FF4247323801420BDE8F843FEF75BB974
:1022D00030B541F68053C2F200031968CC7A00236E
:1022E0009C4203DC4FF0FF33184630BD0A6802EB16
:1022F0008302558A854202D8928A8242F4D20133FF
:10230000EEE701608B7B4371CA7B827113F0070F8C
:102310004FEAD30314BF03FB0223534303717047F7
:1023200041F67C53C2F200031860704741F67C53BB
:10233000C2F200031A681379584311301368184425
:10234000704710B50446FFF7C3FF431C05D148F2A0
:10235000A010FFF7BDFF48F2A01441F68053C2F26F
:1023600000031B681A6802EB8002528AA41A03EB6E
:10237000400080890444187A5B6800FB043010BD7B
:102380008378C27843EA0222437843EA0223007842
:1023900040EA0320704701700B0A43700B0C8370F6
:1023A000090EC1707047024400F8011B9042FBD136
:1023B000704710B5024410F8013B11F8014B1B1B8C
:1023C000904201D0002BF6D0184610BD802808D9C5
:1023D0009F2808D92030C0B21C288CBF00200120C3
:1023E000704700207047012070473F2808D97E2899
:1023F00008D980F080007C288CBF00200120704725
:10240000002070470120704702398369023B8B42EC
:1024100083BF4389C06A01FB03000020704710B5E9
:10242000036873B11A4612F9011BCCB2202C13D9E0
:102430003A29F8D193F90040A4F13001C9B2092931
:1024400002D94FF0FF3006E002339A42F9D1302C26
:10245000F7D10260002010BD41F68453C2F20003A0
:102460001878F8E738B50D46044618B90920002356
:102470002B6038BD0368002BF8D01A78002AF5D0FD
:102480008188DA889142F1D1587802F056FF10F035
:102490000100EBD12368EBE701380A4411F8013B56
:1024A00000F8013F9142F9D17047CA7E8B7E43EA22
:1024B0000223032801BF487D0A7D42EA002243EA45
:1024C0000243184670478A76C2F30723CB76037817
:1024D000032B01BF120C0A75120A4A75704770B5BA
:1024E0000446C3780BB9002070BD00F13406012307
:1024F000026B3146407802F07BFF80B9E070216BBF
:10250000E269636ACB1A9342EDD2A378022BEAD137
:1025100001230A443146607802F06AFFE3E70120B4
:10252000E2E770B506460D46036B8B4212D0FFF70B
:10253000D6FF044660B901232A4606F134017078BB
:1025400002F00FFF00281CBF01244FF0FF35356358
:10255000204670BD0024FBE710B504460023C3707D
:102560004FF0FF330363FFF7DCFF48BB94F83322DF
:1025700094F8323243EA02234AF65522934221D19B
:1025800094F83430EB2B03D01833DBB2012B1BD87B
:1025900003224DF6C021C0F6000104F16A00FFF7E6
:1025A00008FF60B105224DF6C421C0F6000104F118
:1025B0008600FFF7FEFE002814BF0220002010BD99
:1025C0000420FCE70320FAE70220F8E72DE9F043B6
:1025D00085B00F46154600230B60FFF720FF061E4F
:1025E000C0F2C48041F68853C2F2000353F826407B
:1025F000002C00F0BD803C6005F0FE05237873B12F
:10260000607802F09AFEC10709D4002D00F0B28074
:1026100010F0040000D00A2005B0BDE8F0830023CC
:102620002370F0B2607002F078FEC20700F1A4805F
:102630000DB14307EFD400212046FFF78DFF02289C
:102640007CD104F5FD75002115F8040C10B1284665
:10265000FFF796FE4DF82100013110350429F3D122
:1026600000255DF82560002E60D031462046FFF73A
:1026700073FF01285BD894F8402094F83F3043EA78
:102680000223B3F5007F5DD194F84B3094F84A50A3
:1026900055EA032504D104F15800FFF771FE054601
:1026A000E56194F8449084F8029009F1FF33012B1E
:1026B00048D894F84170BBB26381002B42D07B1E96
:1026C0003B423FD194F8463094F8458048EA0328CD
:1026D000A4F8088018F00F0F34D194F8481094F83B
:1026E000470050EA012003D104F15400FFF748FEEF
:1026F00094F8432094F8423053EA022322D005FB99
:1027000009F903EB18124A4490421BD3811AB1FB1A
:10271000F7F1B9B14FF6F570C0F6FF70814211D8EC
:102720004FF6F570814229D903272DE003200135AA
:10273000042D96D1042805D101206DE70428FBD093
:10274000012801D90D2067E7002694E7B8F1000FB2
:10275000F8D04B44A362022F4FEA41000FBF01465D
:10276000401801F0010101EB500126E00B2053E776
:102770000C2051E728464FE703204DE740F6F57758
:10278000B94294BF012702270231A1612662334476
:1027900063623244E262032FD8D194F85F2094F848
:1027A0005E3053EA0223CDD1B8F1000FCAD104F153
:1027B0006000FFF7E5FDA062890001F2FF11B5EBB3
:1027C000512FBFD34FF0FF332361E3608023237188
:1027D000032F35D194F8652094F8643043EA02233E
:1027E000012B2DD1711C2046FFF79BFE40BB2071B1
:1027F00094F8332294F8323243EA02234AF65522FF
:1028000093421DD104F13400FFF7BAFD45F2522383
:10281000C4F26113984213D104F50670FFF7B0FDBE
:1028200047F27223C6F24113984209D104F50770AA
:10283000FFF7A6FD206104F50870FFF7A1FDE06039
:10284000277041F68C52C2F20002138801339BB20A
:102850001380E38000206061DEE62DE9F047054645
:102860000C461746012972D983698B426FD90378C8
:10287000022B3FD0032B50D0012B68D101EB510824
:10288000416A01EB5821FFF74CFE064638BB05F1C3
:10289000340908F1010AC8F3080814F001041FBF45
:1028A00019F8083003F00F023B0103F0F00314BFE6
:1028B0001343FBB209F808300123EB70696A01EB9E
:1028C0005A212846FFF72DFE064640B9CAF3080AEA
:1028D00044B1C7F3071709F80A700123EB703046BB
:1028E000BDE8F08719F80A3023F00F03C7F3032778
:1028F0001F43F0E7416A01EB1421FFF712FE064681
:102900000028ECD105F13403640004F4FF741A19B3
:102910001F55C7F307275770DFE7416A01EBD41152
:10292000FFF7FFFD06460028D9D105F13403A400C6
:1029300004F4FE741C442046FFF722FD27F0704784
:1029400000F0704139432046FFF725FDC5E7022618
:10295000C5E7F8B505460C46012952D98369994265
:102960004FD20378022B29D0032B38D0012B48D12A
:1029700001EB5106416A01EB5621FFF7D2FD10B180
:102980004FF0FF30F8BD771CC6F308062E4496F8CA
:102990003460696A01EB57212846FFF7C2FD002821
:1029A000EED1C7F308073D4495F8340046EA00200D
:1029B000E3074CBF0009C0F30B00E3E7416A01EBFA
:1029C0001421FFF7AEFD0028DAD13435640004F499
:1029D000FF742B195B78285D40EA0320D2E7416A37
:1029E00001EBD411FFF79DFD0028C9D105F134009A
:1029F000A40004F4FE742044FFF7C2FC20F07040F1
:102A0000C0E70120BEE7F8B505460E460468296117
:102A10008268D2B92378022B01D9A36AB3B923897A
:102A2000B3EB561F01D80220F8BDA36AAB616A61FF
:102A3000AB69002BF7D003EB5623AB613434C6F3FC
:102A400008063444EC610020EEE7134667897F02F4
:102A50001A461146BE4204D22046FFF7D5FCA861B3
:102A6000E5E72868FFF775FF0246431C06D00128FA
:102A7000D9D9A3698342D6D9F61BEAE70120D3E767
:102A80002DE9F041804605680F4649B9EE68CEB1A0
:102A9000AB69B34298BF01262B69ABB9002409E0AA
:102AA0002846FFF756FF0446012858D9421C04D196
:102AB0004FF0FF342046BDE8F081AB698342F9D87E
:102AC0003E46E9E70126E7E7BE4215D1741CAB6933
:102AD0009C4228BF02242146D8F80000FFF739FFA6
:102AE00001283CD0431CE3D0D8B1EB68012B03D9BB
:102AF000AA69934238BF1E4634460134AB69A342EB
:102B000002D8012ECAD902242146D8F80000FFF7C6
:102B100020FF40B1012822D00130C9D0B442ECD10D
:102B2000BCE7002CE8D04FF0FF3221462846FFF7E3
:102B300094FE90B957B9EC602B69AA69023A9342A6
:102B40000FD92B7943F001032B71B3E722463946A5
:102B50002846FFF782FE0028EDD00128A8D00124E6
:102B6000A8E7013B2B61ECE7F8B507460D46114697
:102B7000012D2CD90468A369AB4228D92AB14FF0A2
:102B8000FF322046FFF769FE30B929463868FFF763
:102B9000E0FE064608B90020F8BD012817D0431C06
:102BA00017D0002229462046FFF757FE0028F3D110
:102BB0002369A269911E8B4205D2013323612379D7
:102BC00043F0010323713546B242DED8E3E7022029
:102BD000E2E70120E0E7F8B505460E46FFF77FFC87
:102BE0000446F8B931462846FFF70EFC074628632D
:102BF00005F134064FF4007221463046FFF7D3FB4F
:102C00006B899C4204D36889001B18BF0120F8BD62
:102C100001233A193146687802F0EAFB0028F2D124
:102C20000134EDE70120F2E72DE9F8430446894637
:102C3000056807692037B7F5001F24BF00238361AB
:102C4000836973B1C7F30808B8F1000F39D10133B4
:102C50008361416939B92B89B3EB571F31D8002300
:102C6000A36104200BE06B89013B13EA572328D1B1
:102C70002846FFF76EFE0646012802D80220BDE86E
:102C8000F883421C01D10120F9E7AB69834212D8D5
:102C9000B9F1000FE3D061692046FFF7F1FE064667
:102CA000A8B10128EAD0431CEDD001462846FFF721
:102CB00092FF0028E7D1666131462846FFF7A4FB62
:102CC000A061276134354544E5610020D7E707203E
:102CD000D5E72DE9F04704460D46D0F8008091F97C
:102CE00000302F2B01D05C2B0AD12A46154692F9D1
:102CF000003001322F2BF9D05C2BF7D0002301E0FC
:102D0000D8F81430A3602B781F2B42D904F1200788
:102D10000B2220213846FFF746FB95F900302E2B79
:102D200049D184F820306B782E2B3BD184F82130A8
:102D3000AB782E2B00F0858003222F2B34D1154445
:102D4000202384F82B30D4F8009000212046FFF790
:102D50005AFE0646002877D1A1694846FFF7E1FBF5
:102D60000646002870D1E0690378002B6BD0C37A47
:102D700003F03F03A371C37A1B0705D40B22394626
:102D8000FFF717FB00285FD000212046FFF74CFF1C
:102D9000DFE7802384F82B3000212046BDE8F04790
:102DA000FFF731BE0222C8E75C2BC8D0202B48D8E1
:102DB00015442423C5E7002216464FF0080919E000
:102DC0002E2B6BD091453CD91846FFF7FFFA78B30C
:102DD000023615F801A05046FFF707FB88B309F14A
:102DE000FF318A422DD2511CBB5407F801A0023298
:102DF00031460E46711CAB5D202B0BD92F2B01D019
:102E00005C2BDDD16818411B10F9016B2F2EFAD015
:102E10005C2EF8D0AAB194F82020E52A04BF052240
:102E200084F82020202B8CBF002304230D4488E746
:102E30004DF6C926C0F6000616F9010FA8B3834265
:102E4000FAD1062610E0042694F82B309EB1042E09
:102E50000AD103F00402990609D5002A3FF458AFBD
:102E6000802384F82B3000263046BDE8F087002A06
:102E700008BF0526F8E75A07F6D4A379DB060BD579
:102E800008F134012369C3F30803194498F80000DA
:102E9000FFF70BFBA0603BE70526E5E7B9F10B0F59
:102EA000CFD008224FF00B09A3E7A3F16100192846
:102EB00001D8203BDBB2BB5401329AE7F8B5044697
:102EC000FFF70DFB0546002842D12378032B37D1AD
:102ED0002779012F34D104F134064FF400720146F2
:102EE0003046FFF760FA552384F83232AA2384F87B
:102EF0003332522384F8343084F83530612384F837
:102F00003630412284F83720722184F8181284F870
:102F1000191284F81A2284F81B32216904F507700B
:102F2000FFF739FAE16804F50870FFF734FA226A0E
:102F3000013222633B463146607802F059FA25712E
:102F400000221146607802F09BFA003018BF012081
:102F5000F8BD38B5044605680021FFF754FD70B987
:102F6000A1692846FFF7DDFA48B9E3691B78E52B2C
:102F700008D03BB101212046FFF756FEEFE70428B9
:102F800008BF072038BD70B505460668FFF7E1FFAA
:102F9000044690B9A9693046FFF7C3FA044660B900
:102FA00020220146E869FFF7FEF90B2205F1200116
:102FB000E869FFF771FA0123F370204670BD1FB571
:102FC00001900091144604A840F8041DFFF727FA69
:102FD000002817DB41F68853C2F2000353F8202083
:102FE0000AB100211170019A0AB100211170019AF1
:102FF00043F8202044B1002201A96846FFF7E6FA11
:1030000004B010BD0B20FBE72046F9E72DE9F041A5
:1030100090B0019116460446002800F0C38002F0EB
:103020003F052A4603A901A8FFF7D0FA002840F07F
:10303000B18010AF039B47F8303D01993846FFF748
:1030400048FE024620B99DF93B30002BB8BF06224E
:1030500016F01C0F4CD0002A41D0042A3CD138462F
:10306000FFF791FF0246002836D145F008052B07EF
:1030700048D5DDF82C804146039B1878FFF715FAF8
:103080000646FDF704FF014608F10E00FFF783F93D
:103090000B9B2022DA7200220B990398FFF713FA98
:1030A0000B9B00221A775A779A77DA77039B0121D4
:1030B000D9703EB3039BD3F8308031463846FFF7D2
:1030C00053FD024640B941460398FFF72AFA013EF4
:1030D000039BDE600246A8B10023236032E09DF826
:1030E000163013F0110F59D17207C0D50822F3E73B
:1030F000002AF1D19DF81630DF064DD4B60701D570
:10310000D8074BD4290748BF45F04005039F3B6BC8
:1031100023620B9E666231463878FFF7C6F9014696
:10312000A06006F11C00FFF72BF90646E06027605F
:10313000FB88A380257400236374E3616361AA069E
:1031400004D40022104610B0BDE8F0810028F8D069
:1031500060617D896D02B5420FD30022A161002A12
:10316000BAD1C6F30803002BEBD00398FFF74CF954
:10317000B0B100EB5620E061E4E72068FFF7E9FB1F
:103180000146761B012803D9431CE4D10122E5E75F
:103190000222E3E702469FE704229DE707229BE71E
:1031A000022299E70922CDE72DE9F04F85B00446C8
:1031B000894617469B460023CBF8003003A9FFF74A
:1031C00051F9064610BB667C06BB237C9A0740F18A
:1031D000A4806369FB4200D3DF439FB16369C3F3FB
:1031E0000802002A7CD1039A5289013A12EA53223A
:1031F00001921ED173B9A06870B901462046FFF74D
:103200003FFC48B9237C43F040032374304605B0AB
:10321000BDE8F08FA169F1E7012802D102266674AA
:10322000F4E7431C01D10126F9E7A061A36803B9C3
:10323000A0600398026BE3699A4203D1FFF74FF94C
:103240000028F0D1DDF80CA0A1695046FFF7DCF8AA
:103250000028E3D0019B03EB00087D0A32D0BAF8C6
:103260000A30019A2A449A4284BF019A9D1A2B4639
:10327000424649469AF8010002F0BAF88246002810
:10328000D1D10398016BA1EB0801A94209D24FF4F7
:10329000007209EB41213430FFF7FEF8039B83F8FD
:1032A00003A06D027F1BDBF800302B44CBF800300D
:1032B000A94463691D446561E368AB422CBFE360C8
:1032C000E5608AE76269E3689A4207D35046FFF7F0
:1032D00006F90028A7D1039BC3F83080C4F81C80EE
:1032E0006569C5F30805C5F50075BD4228BF3D46B3
:1032F000E1690398FFF715F9002894D10398343059
:103300006369C3F308032A4649461844FFF7C4F823
:10331000039B4FF00102DA70C4E7072676E7F7B5A2
:10332000044601A9FFF79EF8054660BB237C5B06B7
:1033300029D5FDF7ACFD0746216A0198FFF7F1F8A2
:10334000054600BB666AF37A43F02003F372A26875
:1033500031462068FFF7B7F8E16806F11C00FFF777
:103360001AF8394606F11600FFF715F8B574F5742A
:10337000019B0122DA700198FFF7A0FD0546237C2E
:1033800023F040032374284603B0F0BD13B5044670
:10339000FFF7C5FF28B901A92046FFF763F800B978
:1033A000206002B010BDF7B504460D4601A9FFF735
:1033B00059F8064600283FD1667C002E3CD1E368D0
:1033C000AB4204D2227C12F0020F08BF1D46636993
:1033D000002262610DB928461CE0019A57897F02DC
:1033E00003B3013B6A1EB2FBF7F2B3FBF7F18A426B
:1033F00018D37A4213406361ED1AA16900293FD1C5
:1034000000206569E3689D4281BFE560237C43F04D
:1034100040032374C5F3080575B1E36983420BD0FB
:10342000E06109E0A16879B92046FFF729FB014670
:10343000012804D102266674304603B0F0BD013085
:1034400001D10126F7E7A160A161D7E7ED1B3B445D
:103450006361237C9A0706D52046FFF711FB0146DE
:1034600028B905460FE02068FFF773FA01464B1CA8
:10347000E7D00129DED9019B9B698B42DAD9A16192
:103480006369BD42E2D863692B446361C5F30803F5
:10349000002BB5D00198FEF7B7FF0028CAD000EB8B
:1034A0005520AEE7F0B58BB0074640F69C46C2F219
:1034B00000066846FDF7BFFB35466C460FCC0FC5CE
:1034C0000FCC0FC523682B603368FB717368BB7129
:1034D000B3687B71F368FB7033690133BB70736948
:1034E0003B8001200BB0F0BD10B54FF4803480203C
:1034F00004F0EAF928B140F2FF5004F0EFF900209F
:1035000002E0013CF3D1032010BD10B54FF400439D
:10351000C4F201035C6B14F0450FFBD014F00404FB
:1035200004D0042004F0DAF9032010BD40F2FF506B
:1035300004F0D4F92046F8E710B54FF40043C4F284
:1035400001035C6B14F0450FFBD0630704D5042026
:1035500004F0C4F9032010BD14F0010404D00120CC
:1035600004F0BCF90120F6E740F2FF5004F0B6F990
:103570002046F0E737B5054600230093019341F656
:103580006460C2F2000041F6C052C2F2000212684A
:10359000120402600D22426040228260C3604FF438
:1035A0008063036104F049F94FF40043C4F201035E
:1035B0005A6B0192019A12F0450FF9D0019B5907FD
:1035C00005D5042004F08AF9032003B030BD019C26
:1035D00014F0010404D0012004F080F90120F4E784
:1035E00004F041F90190019B0D2B01D01020ECE774
:1035F00040F2FF5004F072F9204604F03BF90090CD
:10360000009BC3F343232B70009B4EF20800CFF6C0
:10361000FF5018400028D8D0009B002B39DB009BBE
:103620005A0038D4009B9B0037D4009BDD0036D471
:10363000009B1C0135D4009B590134D4009BDA0156
:1036400033D4009B1B0232D4009B5D02CED4009B7E
:103650009C022ED4009BD9022DD4009B1A032CD49B
:10366000009B5B032BD4009B9D032AD4009BDC03AF
:1036700029D4009B190428D4009B5A0427D4009B0A
:103680009B0426D4009B13F0080F0CBF00201A20C7
:103690009BE71C2099E7092097E70A2095E70B2074
:1036A00093E70C2091E70D208FE70E208DE70F2088
:1036B0008BE7112089E7122087E7132085E7142084
:1036C00083E7152081E716207FE717207DE7182084
:1036D0007BE7192079E770B506460D464FF4704038
:1036E000C1F2000003F075FF40F24444C4F202044A
:1036F0000021204603F055FF41F63861C2F2000177
:103700004E6000238B60AD08CD60204603F02BFF98
:1037100001212046BDE8704003F043BF70B5064666
:103720000D464FF47040C1F2000003F052FF40F22A
:103730004444C4F202040021204603F032FF41F663
:103740003861C2F200014E6010238B60AD08CD607D
:10375000204603F008FF01212046BDE8704003F039
:1037600020BF38B505464FF40043C4F201035C6B3B
:1037700014F0450FFBD0610704D5042004F0AEF827
:10378000032038BD14F0010404D0012004F0A6F891
:103790000120F6E704F067F8A84201D01020F0E716
:1037A00040F2FF5004F09AF8204604F063F84EF21D
:1037B0000803CFF6FF5303404BB3002829DB420038
:1037C00029D4830029D4C50029D4040129D4410176
:1037D00029D4C20129D4030229D44502DED48402AB
:1037E00027D4C10227D4020327D4430327D4850357
:1037F00027D4C40327D4010427D4420427D4830444
:1038000027D410F0080F0CBF00201A20B9E7184683
:10381000B7E71C20B5E70920B3E70A20B1E70B2082
:10382000AFE70C20ADE70D20ABE70E20A9E70F2096
:10383000A7E71120A5E71220A3E71320A1E7142092
:103840009FE715209DE716209BE7172099E7182092
:1038500097E7192095E72DE9F34706460023CDE9C0
:10386000003341F66464C2F200044FF00809C4F862
:103870000090102565604FF04008C4F80880E360B0
:103880004FF480672761204603F0D7FF2846FFF7F3
:1038900068FF054600284CD141F6C053C2F2000330
:1038A0001B681B0423604FF0370AC4F804A0C4F857
:1038B0000880E0602761204603F0BFFF5046FFF715
:1038C00050FF0546A8BB41F67860C2F200006FF0D9
:1038D0007F43C0E90039302383600223C360056160
:1038E0000123436103F0D3FF25604FF03309C4F88F
:1038F0000490C4F80880E5602761204603F09DFF2E
:103900004846FFF72EFF054698B9ADF104074FF47E
:103910000044C4F2010440F22A68636B13EA080F02
:103920000BD0082003F0D0FF90B1082003F0D6FFA1
:103930000425284602B0BDE8F0874FF4001003F0DC
:10394000C3FF0028E9D003F0B8FF47F8040FE4E70D
:10395000022003F0B9FF20B1022003F0BFFF0225CF
:10396000E7E7202003F0B0FF20B1202003F0B6FFEE
:103970000625DEE74FF4007003F0A6FF28B14FF4F0
:10398000007003F0ABFF0725D3E740F2FF5003F0D0
:10399000A5FF009B1BBA7360019B1BBA3360C8E78D
:1039A000F7B504460020CDE9000003F063FF810174
:1039B00057D46846FFF74FFF41F6C453C2F20003E5
:1039C000009A1A60019A5A6050BB012C2AD1520306
:1039D00049D541F66464C2F2000441F6C053C2F214
:1039E00000031B681B042360372565604027A76020
:1039F000E0604FF480662661204603F01EFF2846F3
:103A0000FFF7AFFE60B90223236006256560A7605B
:103A1000E0602661204603F010FF2846FFF7A1FE74
:103A200003B0F0BDD3031ED541F66464C2F20004B6
:103A300041F6C053C2F200031B681B042360372504
:103A400065604027A760E0604FF4806626612046ED
:103A500003F0F3FE2846FFF784FE0028E0D1206043
:103A6000D3E70E20DCE72520DAE72DE9F347002530
:103A70008DF8075041F69060C2F20000B223037542
:103A8000056045608560C560056103F099FE03200F
:103A900003F0B3FE012003F0ABFE4FF4FA60FCF735
:103AA0007FFD41F66464C2F2000425606560A56094
:103AB000E5604FF480652561204603F0BEFEFFF708
:103AC00013FD8DF807009DF8073003F0FF022BB1BE
:103AD0009DF80700C0B202B0BDE8F0874FF4D5737F
:103AE0002360082363604023A360E26025612046D1
:103AF00003F0A3FE4FF40042C4F20102536B4FF4F3
:103B0000803113F0450F40F0828000297CD10420E1
:103B100003F0E4FE03238DF807309DF80730002BF7
:103B200040F0858041F6B053C2F2000301221A60D2
:103B30004FF0804600254FF03708C4E90058402375
:103B4000A360E5604FF48067276141F66460C2F2CC
:103B5000000003F072FE4046FFF703FE8DF80700F9
:103B60009DF8073003F0FF02002B40F086801546D9
:103B700041F66467C2F2000746F0114646F480162B
:103B800000234FF0370AC4E9003A4FF04009C4F867
:103B90000890E3604FF48068C4F81080384603F062
:103BA0004CFE5046FFF7DDFD8DF807009DF807300D
:103BB00003F0FF02002B8BD1266029236360C4F839
:103BC0000890E260C4F81080384603F036FEFFF734
:103BD0009CFC8DF807009DF8073003F0FF00002BD8
:103BE0007FF476AF03F046FE41F6BC53C2F2000309
:103BF0001860013500284FF6FF7332DB9D42BFD1BC
:103C00001B238DF8073063E70139536B79E70029EF
:103C10003FF47DAF13F004057FF479AF13F0400358
:103C20003FF479AF402003F059FE2B4673E70023A1
:103C300023606360A360E3604FF48063236141F617
:103C40006460C2F2000003F0F8FDFFF74DFC8DF850
:103C500007009DF8073003F0FF06002B3FF46AAF22
:103C600036E79D42CCD047007FF532AF41F6B053E6
:103C7000C2F2000302221A602AE74FF0F033C4E9CF
:103C80000035A560E560276141F66460C2F200007E
:103C900003F0D3FDFFF728FC8DF807009DF80720FF
:103CA00002F0FF03002A7FF413AF23606360A36078
:103CB000E360276141F66460C2F2000003F0BDFDDD
:103CC000FFF712FC8DF807009DF8073003F0FF079F
:103CD000002B7FF4FDAE4FF40049CCF2FF0941F612
:103CE000BC58C2F20008C4F800900123636040236E
:103CF000A3600023E3604FF48063236141F66460B6
:103D0000C2F2000003F099FDFFF7FFFB8DF80700FA
:103D10009DF8073003F0FF06002B7FF4D9AE304644
:103D200003F0A8FD0546C8F80000013741F28830CD
:103D3000FCF736FCEA0F4FF6FF7336D19F42D2D123
:103D400016464FF4004AC8F2FF0A4FF0010941F647
:103D50006467C2F20007C4F800A0C4F804904023CE
:103D6000A3600023E3604FF480632361384603F0CF
:103D700064FDFFF7CAFB8DF807009DF8073003F0DC
:103D8000FF00002B7FF4A4AE03F074FD0546C8F8D5
:103D90000000013641F28830FCF702FC002D4FF69E
:103DA000FF7310DB9E42D6D12AE79F42C9D005F0AF
:103DB000C045B5F1804F41F6B053C2F200030CBFCD
:103DC0000722032257E79E42F1D119E738B503F0E5
:103DD0001AFD002800F0A98041F6B055C2F2000596
:103DE0002B68042B27D041F66460C2F20000002348
:103DF000036002224260C0228260C3604FF480638D
:103E0000036103F01AFDFFF797FB0446002868D111
:103E100003F030FD41F69054C2F20004206004200B
:103E200003F028FD6060082003F024FDA0600C2052
:103E300003F020FDE0602B68032B34D9053B022BF7
:103E400031D901232A68042A73D041F6C052C2F244
:103E50000002136041F66460C2F200001B040360BC
:103E600009234360C02383600023C3604FF4806351
:103E7000036103F0E2FCFFF75FFB044688BB03F03D
:103E8000F9FC41F6A055C2F200052860042003F0B9
:103E9000F1FC6860082003F0EDFCA8600C2003F042
:103EA000E9FCE8601DE041F66460C2F20000002316
:103EB00003600322426040228260C3604FF480634B
:103EC000036103F0BAFC4FF40043C4F201035C6BDE
:103ED00014F0450FFBD0600705D5042003F0FEFC6D
:103EE0000324204638BD14F0010404D0012003F05F
:103EF000F5FC0124F5E703F0B6FC032801D01024FB
:103F0000EFE740F2FF5003F0E9FC204603F0B2FC7B
:103F100010F4604F01D1030C94E7810407D44204EC
:103F2000EDD403048DD50F24DBE72524D9E7132432
:103F3000D7E70024D5E72DE9F04141F6B053C2F2AE
:103F40000003196880F8561041F6C053C2F200030E
:103F50001B68A0F8543041F6A05CC2F2000CDCF8FB
:103F600000301C0EE2B295090570C4F3830444705E
:103F700002F003028270C3F30742C270C3F3072248
:103F80000271DBB24371DCF80440230E1B01C380D5
:103F9000C4F30743C28842EA1312C28003F00F033E
:103FA0000372250AEAB2D3094372C5F38013837200
:103FB000C5F34013C372C5F30013037300234373A7
:103FC000DCF80830012900F2EA80AD0205F4406512
:103FD00005610269A40004F47F74144304611C0E9B
:103FE000E2B2056945EA92150561C4F3C20404759D
:103FF00002F0070242751A0CC2F342148475C2F330
:104000008204C475520002F006020276C3F307224E
:10401000047E44EAD2140476D0F81080057E90F82D
:1040200008E0012404FA0EFEC0F850E00235AC406E
:10403000E717A4FB0E450EFB075508F1010EA4FB84
:104040000E670EFB0577C0E91267C2F38014447651
:10405000520002F07E028276DBB2827E42EAD31206
:10406000827603F07F03C376DCF80C20130EDC09A4
:104070000477C3F341144477C3F3820484779B002D
:1040800003F00C03C377140CE3B2C57F45EA931524
:10409000C577C4F3401480F82040002480F8214004
:1040A00003F0010380F82230130ADDB2EE0980F834
:1040B0002360C3F3801680F82460C3F3401680F8B1
:1040C0002560C3F3001680F82660C3F3810380F8EF
:1040D000273005F0030580F82850C2F3460380F826
:1040E0002930012280F82A20022900F2B08041F60E
:1040F0009051C2F200010B681C0E80F82C40C3F3F3
:1041000007442402C485C58DC3F307242C43C4850A
:104110001B0603634B68046B1D0E44EA05440463ED
:10412000056B1C0A04F47F442C430463056BC3F342
:1041300007242C430463DBB280F834308B681C0EF8
:1041400080F835401C0C24068463856B1C0204F443
:104150007F042C438463846B1B029BB223438363E1
:10416000CB68816B41EA13618163190C90F83C4084
:10417000C1F303152C4380F83C40090201F470613F
:10418000C187C48FC3F307212143C187C3F346030B
:1041900080F8403080F841200020BDE8F0810229FD
:1041A0001ED1240404F47C14046102691C0E42EA4A
:1041B000042202610469C3F3074222430261C3F38C
:1041C000072204690025661C45F10007FD0445EA45
:1041D0005635F404C0E912454FF40074046534E721
:1041E00003293FF4F2AE07297FF42FAFAD0205F4A7
:1041F000406505610269A40004F47F7414430461FE
:104200001C0EE2B2056945EA92150561C4F3C204C9
:10421000047502F0070242751A0CC2F34214847549
:10422000C2F38204C475520002F006020276C3F3A0
:104230000722047E44EAD214047641F6D056C2F234
:104240000006D6E91245C0E91245346DC6E721F0F3
:1042500004010329A0D141F69051C2F200010B687C
:104260001D0E80F82C50C3F307452D02C585C68D61
:10427000C3F307253543C5851B0603634B68056BF0
:104280001E0E45EA06450563066B1D0A05F47F45CB
:1042900035430563056BC3F307232B43036380F8A2
:1042A00034408B6890F8344044EA136480F834401A
:1042B000C3F3074480F835401C0A24068463846BEA
:1042C0001B0403F47F0323438363CB68816B1C0EC1
:1042D00041EA04218163846BC3F307412143816375
:1042E000190A0C0104F0F004C487C48FC1F3031150
:1042F0004AE72DE9F843064641F6B053C2F20003FF
:104300001B6823F00402032A02D0052B40F09180A1
:10431000B6F5805F00F0A880B6F5006F77D141F662
:10432000D053C2F200035B78032B64D9002003F062
:10433000A1FA10F0007003D00E242046BDE8F883E7
:1043400041F66465C2F200054FF40063C0F2BB336E
:104350002B6006276F604FF04009C5F80890E860B1
:104360004FF48068C5F81080284603F066FA41F2E1
:104370008830FCF715F93846FFF7F3F904460028B2
:10438000DBD14FF48073C0F2B93385E88802E8606E
:10439000C5F81080284603F050FA41F28830FCF747
:1043A000FFF83846FFF7DDF904460028C5D14FF481
:1043B0008073C0F2B73385E88802E860C5F81080E2
:1043C000284603F03AFA41F28830FCF7E9F838461B
:1043D000FFF7C7F904460028AFD141F69060C2F25A
:1043E000000001230375046044608460C6600461BA
:1043F00003F0E6F9A1E741F69060C2F20000022363
:1044000003750024046044608460C460EFE700200A
:1044100003F030FA83018FD43720FFF7A2F9044666
:1044200000288AD141F69060C2F200000223037591
:10443000E8E7022B16D8B0F5805F15D0B0F5006F15
:1044400003D10120FFF7ACFAC4E70020FFF7A8FA78
:10445000044600287FF471AF41F69060C2F200007C
:104460000123E4E7002468E7272466E710B541F656
:104470006463C2F20003186007245C6040229A6003
:104480000022DA604FF480621A61184603F0D5F911
:104490002046BDE81040FFF764B92DE9F047ADF5BF
:1044A000067DFFF793FC0446002873D141F6906027
:1044B000C2F2000001250575046044608460C46098
:1044C000046103F07DF93123ADF804308DF8064026
:1044D0008DF8075001A802F017FD41F6D055C2F241
:1044E00000052846FFF727FD044630B9B5F854000B
:1044F00000042146FFF7BAFF044641F6B053C2F26A
:1045000000031B6823F00402032A02D0052B40F0AD
:10451000AA806B78032B40F2A68041F67860C2F245
:1045200000006FF07F4303604FF4007343609023FB
:1045300083600223C360002404610123436103F00C
:10454000A6F941F66460C2F20000046008264660E5
:1045500040238360C4604FF48063036103F06DF90E
:104560003046FFF7FEF80446A0B96E4434464FF4D7
:104570000048C4F2010840F22A69D8F8343013EA3E
:10458000090F0CD0082003F09FF9C8B1082003F0F0
:10459000A5F9042420460DF5067DBDE8F0874FF40B
:1045A000004003F091F90028E7D0371F06F11C0AFC
:1045B00003F083F947F8040F5745F9D12036DCE7BB
:1045C000022003F081F920B1022003F087F90224D0
:1045D000E0E7202003F078F920B1202003F07EF9F5
:1045E0000624D7E74FF4007003F06EF980BB06F1A4
:1045F0008067043F4FF4001003F066F908B1B7423A
:104600002CD140F2FF5003F069F92A7A012393403C
:104610002B6594F8D70094F8D63094F8D52094F808
:10462000D4101B0443EA00630B4343EA0223DA0D70
:104630005B02C5E9123294F8C02041F6B453C2F2CD
:1046400000031A704FF40060FFF753FE0446A1E721
:104650004FF4007003F042F907249BE703F02DF9B3
:1046600046F8040BC6E7002C94D1EBE707B501210F
:10467000B02002F00CFE4FF4F853ADF804300323E1
:104680008DF8063018238DF8073001A94FF48050BB
:10469000C4F2010002F088FC0423ADF804300DEBF5
:1046A00003014FF4A050C4F2010002F07DFC01218F
:1046B0004FF4806002F0DFFD0121022002F0DBFDFB
:1046C00041F63863C2F2000348F28002C4F20102EC
:1046D0001A6000225A609A60DA601A61802159617A
:1046E0004FF4007199614FF40061D9611A624FF47F
:1046F000005159629A6203F050F8FFF7B6F908B911
:10470000FFF7CBFE03B05DF804FB2DE9F04F85B059
:10471000009090469946BDF838B041F6F067C2F275
:10472000000700200021C7E9000141F6FC66C2F243
:1047300000060024347041F6F865C2F200052C60D2
:104740004FF40043C4F20103DC62204603F06FF82B
:10475000204603F08FF810F0007F0197029540F09B
:104760008F8041F6B053C2F200031B68022B01D0C8
:10477000072B05D14FEA582848EAC9584FF4007B67
:104780000BF1FF318BB2B3F5006F02D211EA0B01CE
:1047900074D026256EE0C7F34F070146481C012F51
:1047A000F9D1039141F66464C2F20004C4F800B088
:1047B000102565604FF0400AC4F808A00020E060B2
:1047C0004FF48069C4F81090204603F036F828466C
:1047D000FEF7C7FF0546039900284BD141F67860E4
:1047E000C2F200006FF07F43C0E9003B090101F411
:1047F0007F6181600221C1600561476103F047F874
:104800001FFA8BF00021019BC3E9000141F6EC6126
:10481000C2F200010D60394640F22A3002F0FBFF7F
:10482000384603F004F859460098FEF754FFC4F8E0
:10483000008011276760C4F808A0E560C4F81090F4
:10484000204602F0FAFF3846FEF78BFF054688B98E
:104850004FF40054C1F20004204602F0ADFE28B926
:10486000029B1B6813B93378002BF5D033780BB15A
:104870003578EDB2284605B0BDE8F08F5F468DE78C
:104880000E25F7E72DE9F74F009090469946BDF8C1
:10489000306041F6F065C2F2000500220023C5E950
:1048A000002341F6FC67C2F2000700243C7041F689
:1048B000F862C2F2000214604FF40043C4F2010334
:1048C000DC62204602F0B3FF204602F0D3FF10F076
:1048D000007F294640F09E8041F6B052C2F20002AD
:1048E0001368022B01D0072B05D14FEA582848EA5C
:1048F000C9584FF40076751EABB2B3F5006F05D3FF
:104900004FF0260B584603B0BDE8F08F3540F7D185
:10491000B14602E0C9F34F091D466B1CB9F1010F06
:10492000F8D1019141F66464C2F2000426604FF0B0
:10493000100BC4F804B04FF0400AC4F808A00020DF
:10494000E0604FF480632361204602F076FF584612
:10495000FEF707FF83460028D4D10D984643B6F1F1
:10496000007FCDD2324600230199C1E9002341F6F0
:104970007860C2F200006FF07F41C0E900162D019F
:1049800005F47F6585600221C160C0F810B0C0F8F1
:10499000149002F07CFF41F6EC61C2F20001C1F814
:1049A0000090494640F22A3002F035FF484602F0B6
:1049B0003EFF31460098FEF78EFEC4F800801225B7
:1049C0006560C4F808A0C4F80CB04FF4806323619C
:1049D000204602F032FF2846FEF7C3FE8346002839
:1049E00090D14FF40055C1F2000541F6F864C2F2CF
:1049F0000004284602F0E0FD20B9226812B93A7896
:104A0000002AF6D03A78002A3FF47CAF3B785FFA70
:104A100083FB77E74FF00E0B74E72DE9F04F89B079
:104A2000029091469A46BDF8486000258DF81B50CB
:104A3000079541F6FC67C2F200073D7041F6F86B3E
:104A4000C2F2000BCBF8005041F6F068C2F2000849
:104A500000220023C8E9002341F67864C2F2000472
:104A60006FF07F43C4E90035A560E56025616561AD
:104A7000204602F00CFF284602F0D9FE284602F03C
:104A8000F9FE10F0007F0197CDF80CB0CDF8108042
:104A900040F0F28041F6B053C2F200031B68022BD3
:104AA00001D0072B05D14FEA592949EACA594FF4D9
:104AB0000076751EABB2B3F5006F02D2354000F040
:104AC000AE802621A7E0C3F34F0315466A1C012BD5
:104AD000F9D141F66467C2F200073E604FF0100B57
:104AE000C7F804B04FF0400AC7F808A00023FB60E5
:104AF0004FF480623A610592384602F09EFE5846B5
:104B0000FEF72FFE0146059A002840F0848041F60A
:104B1000C058C2F20008D8F8001001FA0BF1396051
:104B20004FF00D0BC7F804B0C7F808A0F8603A6161
:104B3000384602F082FE5846FEF713FE0146002872
:104B400069D102F097FE6FF07F420792CDF814A072
:104B5000BA4610F4807002D1079A002A61D1079AF0
:104B6000002A00F08B8041F6EC62C2F200024FF0A6
:104B70000008C2F80080012140F21A3002F04BFE1A
:104B8000012002F054FE31460298FEF7C7FDC7F837
:104B900000904FF01809C7F804904022BA60C7F897
:104BA0000C804FF480623A6141F66460C2F200000A
:104BB00002F043FE4846FEF7D4FD014658BBB2B2B0
:104BC00000230499C1E900236FF07F43C4E9003654
:104BD0002D0105F47F65A560E0602061012363611C
:104BE00041F67860C2F2000002F051FE4FF400542A
:104BF000C1F20004204602F0DFFC30B9039B1B68C1
:104C00001BB9019B1B78002BF4D0019B1B7813B3BD
:104C1000019B1978C9B2084609B0BDE8F08F334648
:104C200054E7079A013A0792D8F800201204C7E91E
:104C3000002B059BBB60F8604FF480623A615046E0
:104C400002F0FBFD0D20FEF78CFD01460028E2D1AD
:104C500002F010FE7DE740F2FF5002F03FFE0DF142
:104C60001B00FEF787FC01460028D4D19DF81B30BD
:104C7000063B012BF3D9CEE70E21CCE72921CAE769
:104C80002DE9F04F87B0009090469946BDF840500E
:104C900000248DF81340059441F6FC66C2F200062C
:104CA000347041F6F86AC2F2000ACAF8004041F6D0
:104CB000F067C2F2000700220023C7E9002341F693
:104CC0007860C2F200006FF07F43C0E90034846076
:104CD000C4600461446102F0DAFD204602F0A7FDE1
:104CE000204602F0C7FD10F0007FCDF804A040F090
:104CF0000D8141F6B053C2F200031B68022B01D0B4
:104D0000072B05D14FEA582848EAC9584FF40075D7
:104D10006C1EA3B2B3F5006F03D3262007B0BDE825
:104D2000F08F2C40F9D12B4602E0C3F34F03144619
:104D3000621C012BF9D141F6646BC2F2000BCBF877
:104D400000501022CBF8042002924FF0400ACBF81A
:104D500008A00021CBF80C104FF48069CBF810901C
:104D6000584602F06AFD029A1046FEF7FAFC002847
:104D7000D4D141F6C052C2F2000211680392090474
:104D8000CBF800100D21CBF804100291CBF808A04D
:104D9000CBF80C00CBF81090584602F04EFD02996B
:104DA0000846FEF7DEFC0028B8D1119B5D43B5F143
:104DB000007FB2D241F6B051C2F200010968022967
:104DC000039A58D928460021C7E9000141F6EC6250
:104DD000C2F2000201271760394640F21A3002F091
:104DE0001AFD384602F023FD29460098FEF796FC8E
:104DF000CBF800804FF01908CBF804804022CBF8A4
:104E000008200022CBF80C204FF48062CBF8102051
:104E100041F66460C2F2000002F00FFD4046FEF76A
:104E2000A0FC024600287FF479AF41F67860C2F218
:104E300000006FF07F41C0E90015240104F47F6495
:104E40008460C2600261476102F021FD4FF40054AA
:104E5000C1F20004204602F0AFFB28B9019B1B6899
:104E600013B93378002BF5D0337803F0FF0493B3F4
:104E70003078C0B252E712681204CBF80020372213
:104E8000CBF804200292CBF808A0CBF80C00CBF8AA
:104E90001090584602F0D1FC029A1046FEF761FCD1
:104EA00000287FF43BAF119BCBF800301722CBF8E2
:104EB00004200292CBF808A0CBF80C00CBF810909D
:104EC000584602F0BAFC029A1046FEF74AFC002847
:104ED0003FF478AF22E740F2FF5002F0FFFC059468
:104EE0004FF6FE72059B93420CD90DF11300FEF7AD
:104EF00041FB00287FF412AF9DF81330063B012BD5
:104F0000F3D90BE7059B01330593EBE70E2005E78B
:104F100010B541F66460C2F2000000230C24C0E921
:104F2000003440228260C3604FF48063036102F06A
:104F300084FC2046BDE81040FEF713BC38B505469A
:104F4000F8B141F66460C2F2000041F6C053C2F20B
:104F500000031B681B0403600D244460402383602E
:104F60000023C3604FF48063036102F066FC2046B7
:104F7000FEF7F7FB044610B902F07CFC28602046DF
:104F800038BD2624FBE707B50023019301238DF8E4
:104F900003309DF80330012B03D0FF2003B05DF8F0
:104FA00004FB01A8FFF7CAFF0028F6D10198C0F35F
:104FB0004320F3E708B5FFF7E6FF042804D0FF28F5
:104FC0000CBF0220012008BD0020FCE72DE9F843BA
:104FD0000646002002F04EFC10F0007040F0AF805A
:104FE00041F66464C2F20004402727601025656022
:104FF000A760E0604FF48068C4F81080204602F09B
:105000001CFC2846FEF7ADFB054600284AD141F6B8
:10501000C053C2F200031B681B0423604FF0370922
:10502000C4F80490A760E060C4F81080204602F045
:1050300004FC4846FEF795FB054698BB41F67860B0
:10504000C2F200006FF07F43C0E900376023836045
:105050000223C36005610123436102F018FC25604F
:105060004FF00D09C4F80490A760E560C4F8108003
:10507000204602F0E2FB4846FEF773FB054688B97E
:105080004FF40047C4F2010740F22A687B6B13EA31
:10509000080F0AD0082002F017FCB8B1082002F06F
:1050A0001DFC04252846BDE8F8834FF4004002F0BB
:1050B0000BFC0028EAD0341F06F11C0902F0FDFBAE
:1050C00044F8040FA145F9D12036DFE7022002F0B1
:1050D000FBFB20B1022002F001FC0225E2E72020C8
:1050E00002F0F2FB20B1202002F0F8FB0625D9E700
:1050F0004FF4007002F0E8FBB0B906F18064043CA4
:105100004FF4001002F0E0FB08B1A64212D140F2C9
:10511000FF5002F0E3FBA6F140031A6812BA43F80D
:10512000042B9E42F9D1BDE74FF4007002F0D6FB8C
:105130000725B7E702F0C1FB46F8040BE0E70E25B0
:10514000B0E738B54FF4807002F0CEFB044640B3B0
:1051500041F6EC63C2F200031B68012B41F6FC64CC
:10516000C2F200041AD1FFF7D3FE20704FF4807012
:1051700002F0BCFB00214CF23A3002F04CFB41F64D
:10518000F863C2F2000301221A6041F6B853C2F27A
:10519000000300221A602078C0B238BD00232370BB
:1051A000E4E7022002F0A0FB054698B1022002F0DD
:1051B0009DFB21464CF23A3002F02DFB41F6B853EC
:1051C000C2F200031C6041F6FC63C2F2000302203D
:1051D0001870E2E7082002F087FB044690B108202F
:1051E00002F084FB29464CF23A3002F014FB41F6FF
:1051F000B853C2F200031D6041F6FC63C2F2000323
:105200000420E5E7202002F06FFB054690B1202046
:1052100002F06CFB21464CF23A3002F0FCFA41F607
:10522000B853C2F200031C6041F6FC63C2F20003F3
:105230000620CDE7102002F057FB044690B1102065
:1052400002F054FB29464CF23A3002F0E4FA41F6FF
:10525000B853C2F200031D6041F6FC63C2F20003C2
:105260000520B5E74FF4007002F03EFB002894D013
:105270004FF4007002F03AFB21464CF23A3002F053
:10528000CAFA41F6B853C2F200031C6041F6FC634F
:10529000C2F2000307209BE7FFF753BF38B504466F
:1052A00041F6A865C2F200052846FFF78FFE0028E8
:1052B00032D12B789B0923702B78C3F34013637092
:1052C000AB781B0263806288EB78134363802B7991
:1052D0001B06636063686A7943EA0243636063683C
:1052E000AA7943EA022363606268EB79134363603F
:1052F0002B7A23726B7A6372AB7A1B09A372EB7AF7
:105300001B02A381A2892B7B1343A3816B7B9A0889
:10531000A27303F00303E37338BD08B558B9FFF770
:10532000A5F941F6E863C2F200031870187800305E
:1053300018BF012008BD0120FCE710B5012370B99A
:1053400040F22404C2F200042370FFF733FE18B9C0
:10535000237803F0FE0323702078C0B210BD1846F6
:10536000FCE72DE9F7430F461646984600283DD145
:1053700041F6E864C2F2000420708B072AD1D30DF5
:105380005202B8F1010F4FF4007129D10091384653
:10539000FFF7BBF9207016E0AB1900925A02DB0D43
:1053A0004846FFF7B2F920704FF40072494607EB08
:1053B000452003F007FF0135454504D0237803F06D
:1053C000FF02002BE8D02078003018BF012003B086
:1053D000BDE8F083054641F60079C2F20009EBE72B
:1053E000CDE900183846FFF74DFAD3E70420EEE781
:1053F0002DE9F3470F461646984600283ED141F660
:10540000E864C2F2000420708B072BD1D30D520246
:10541000B8F1010F4FF400712AD100913846FFF71F
:10542000FCFA207017E04FF4007207EB4521484664
:1054300003F0C8FEAB19CDF800A05A02DB0D4846B8
:10544000FFF7EBFA20700135454504D0237803F0CF
:10545000FF0A002BE7D02078003018BF012002B0EF
:10546000BDE8F087054641F60079C2F20009EBE796
:10547000CDE900183846FFF703FCD2E70420EEE739
:1054800038B50C461546C0B941F6B053C2F2000318
:105490001B68022B05D841F62860C2F20000FFF716
:1054A000FDFE292C00F0CA8018D8022C49D006D85D
:1054B000002C00F0C980012C38D004208AE0032C95
:1054C00047D0282CF9D141F6C453C2F200035A68E0
:1054D00012BA2A601B681BBA6B6038E0342C00F0EB
:1054E000A18017D8322C00F08280332CE5D141F610
:1054F000A053C2F200031A6812BA2A605A6812BA9C
:105500006A609A6812BAAA60DB6843F001031BBAAA
:10551000EB601CE0352C00F08A80362CCDD128467B
:10552000FFF754FD003018BF012053E041F6D05280
:10553000C2F20002D2E912325B0A43EAC2532B6084
:1055400005E041F6D053C2F200031B6D2B80002012
:1055500040E041F6D053C2F2000393F85600431ED8
:10556000012B28D841F62862C2F20002937A0A2B56
:10557000134603D8927A10239340E0E7927A0B2ADD
:1055800002D09A7A0C2A06D19B7A03F5FF2303F501
:10559000FF635B03D3E79A7A0D2A02D09A7A0E2A28
:1055A00006D19B7A03F57F3303F2F6339B03C6E7FC
:1055B0004FF40033C3E741F6A052C2F200029368F1
:1055C00048B9C3F3C6130133D268C2F38152013A1A
:1055D00093402B6038BDDA0002F01802C3F3421189
:1055E0000A43C3F38423013302FB0333A7E741F6E5
:1055F000D053C2F2000393F85630072B10D8DFE8DF
:1056000003F00407090B0F0B0F0D02232B709EE70D
:105610000423FBE70C23F9E70123F7E70923F5E768
:105620000023F3E741F69053C2F2000363E741F62B
:10563000BC53C2F200031B681BBA80E741F6B453A7
:10564000C2F200031B78E1E72046C3E708B501205A
:10565000FBF704F945F64043C4F2000301221A6047
:105660000020186045F64442C4F20002106042F285
:10567000E842C2F200024FF4E0511180196008BD07
:1056800073B50021019145F64043C4F200031A6846
:1056900092B242F20014C2F20004254601F1805099
:1056A00000F5B8508000006880B244F82100013154
:1056B0000829F3D142F48061196041F001011960B9
:1056C00022F0010292B242F48061196045F6444131
:1056D000C4F200010C4608684605FCD54FF6FF30C1
:1056E0000860002155F8216001F1805000F5B850A4
:1056F0008000B6B2066001310829F3D142F481621C
:105700001A601A6892B242F004021A604FF4E04143
:10571000C4F200010A6801920A6822F0030242F012
:1057200001020A604FF46D42CEF20002106940F0AF
:10573000040010612068C00406D430BF136923F050
:105740000403136102B070BD4EF6FF7020601C6848
:105750004FF6F77020401860019B0B60EEE710B524
:1057600045F64044C4F2000422684FF6FB73134030
:105770002360FBF781F84FF40643236010BD10B59A
:10578000072842F22014C2F2000418BF20702378C8
:10579000052B0CD8DFE803F003101B1F283642F25C
:1057A0002813C2F200031B681BB9FFF7D8FF0623BA
:1057B00000E00523237009E0FFF7D1FF04232370E5
:1057C00042F22813C2F2000301221A6010BD022324
:1057D00063700323EEE76378013BDBB263706378A9
:1057E000002BF3D10423E5E745F64042C4F2000262
:1057F00013689BB243F010031360052323700A2340
:105800006370E3E76378013BDBB26370637803F0B6
:10581000FF01002BDAD145F64043C4F200031868BB
:105820004FF6EF7202401A600623237042F22813EB
:10583000C2F200031960C9E780B500AF42F23C1321
:10584000C2F200031B68984700BF80BD70B588B0E6
:1058500045F64444C4F2000423689BB242F2381572
:10586000C2F200052B802B8842F2E846C2F2000605
:105870003288134098050CD54FF6FF53236042F24F
:105880002C12C2F2000213780133DBB2137000F065
:10589000E1F82B8832881340190401D502F08CFD01
:1058A0002B88328813405A0508D54FF6FF33236002
:1058B00040F26003C2F200035B6898472B8832888D
:1058C00013409B0444BF4DF6FF7323602B8832883E
:1058D0001340D80405D54EF6FF7323600020FFF770
:1058E0004EFF2B883288134019050BD540F2250353
:1058F000C2F200031B78002B68D0FFF7C1FE4FF205
:10590000FF7323602B8832881340DA0562D54FF687
:10591000FF63236045F64843C4F200031B6813F499
:10592000004F42F23010C2F2000047D0036801334A
:1059300003600368032B43D945F64045C4F20005D4
:105940002A6812F008023BD1296889B242F2341366
:10595000C2F20003196002F1805101F5B8518900CB
:10596000096889B208AE06EB820646F8201C0132AF
:10597000082AF0D11A6842F001021A601A6892B23D
:105980002A601A6822F001021A601B689BB22B6021
:1059900023685B05FCD54FF6FF332360002308AA7C
:1059A00002EB830252F8201C03F1805202F5B85238
:1059B000920089B211600133082BF0D100230360FB
:1059C000072008B0BDE87040FFF7D9BE0220FFF7FE
:1059D000D6FE94E708B070BD70B545F64441C4F2F8
:1059E00000010A6892B242F23813C2F200031A8030
:1059F000188842F2E842C2F200021488204010F4F3
:105A0000004F0E461C46154601D002F0D5FC2388F7
:105A10002A8813405B050AD54FF6FF33336040F206
:105A20006003C2F200035B68BDE87040184770BDB8
:105A300042F24013C2F200031B68184742F24813B7
:105A4000C2F200031B68184742F24413C2F200037B
:105A50001B68184742F24C13C2F200031B68184738
:105A600042F29813C2F200031B68184742F27813FF
:105A7000C2F200031B68184742F29013C2F20003FF
:105A80001B68184742F29413C2F200031B681847C0
:105A900042F25413C2F200031B68184742F2741317
:105AA000C2F200031B68184742F27013C2F20003EF
:105AB0001B68184742F26013C2F200031B681847C4
:105AC00042F25813C2F200031B68184742F26C13EB
:105AD000C2F200031B68184742F25C13C2F20003D3
