:020000040800F2
:1000000000000120B17C0008590500085B050008CC
:100010005D0500085F05000861050008000000009C
:100020000000000000000000000000006305000860
:100030006505000800000000670500086905000864
:10004000FD7C0008FD7C0008FD7C00089D05000883
:10005000FD7C0008FD7C0008FD7C0008FD7C00089C
:10006000FD7C0008FD7C0008FD7C0008FD7C00088C
:10007000FD7C0008FD7C0008FD7C0008FD7C00087C
:10008000FD7C0008FD7C0008FD7C0008950500084B
:1000900099050008FD7C0008FD7C0008FD7C000837
:1000A000FD7C0008FD7C0008FD7C0008FD7C00084C
:1000B000FD7C0008FD7C0008FD7C0008FD7C00083C
:1000C000FD7C0008FD7C0008FD7C0008FD7C00082C
:1000D000FD7C0008FD7C000859160008FD7C000826
:1000E000FD7C0008FD7C0008FD7C0008FD7C00080C
:1000F000FD7C0008FD7C0008FD7C0008FD7C0008FC
:10010000FD7C0008714B0008FD7C0008FD7C0008A8
:10011000FD7C0008FD7C0008FD7C0008FD7C0008DB
:10012000FD7C0008FD7C0008FD7C0008FD7C0008CB
:1001300000000000000000000000000000000000BF
:1001400000000000000000000000000000000000AF
:10015000000000000000000000000000000000009F
:10016000000000000000000000000000000000008F
:10017000000000000000000000000000000000007F
:10018000000000000000000000000000000000006F
:10019000000000000000000000000000000000005F
:1001A000000000000000000000000000000000004F
:1001B000000000000000000000000000000000003F
:1001C000000000000000000000000000000000002F
:1001D000000000000000000000000000000000001F
:1001E0005FF8E0F113B500230093019300F073FA78
:1001F0004FF47A7000F046F90198022817DC4FF4AA
:100200007A7000F083F93048202106F0A7F8044600
:100210002D48402106F0A2F8204310F0FF0F02D134
:100220000123009303E001994A1C0192E4E700983E
:1002300028B12648264A1060264A274B3FE022482C
:10024000402106F08BF8224CC8B10220234B1860E5
:10025000234A2260234C20490C602348234B18601A
:10026000234A244C2260244924480160244A254B17
:100270001A60254C25490C6004F0EEFF20E012487E
:10028000202106F06BF8144B124AB0B1012013493B
:1002900008601F4820601A601E4C144B1C601E4AE8
:1002A00014490A601248154C2060164B18601B4A0E
:1002B00016490A6005F036FF02E0044921601A6021
:1002C000034B1C68A047FBE700180140550D0008D0
:1002D00008070020C1150008801400200C0700202A
:1002E0000D130008E11200084D530008CC17002040
:1002F00009760008C81700200D540008D017002008
:1003000069540008D4170020AD4D0008C017002024
:10031000A1130008AD5B0008FD5D0008294E000830
:1003200082B0384B1A6842F0010018605968364AAA
:100330000A405A60186820F0847121F480321A60F3
:10034000186820F4802119605A6822F4FE00586071
:100350004FF41F019960002200920192186840F446
:1003600080311960274B1A6802F40030019000991F
:100370004A1C0092019818B90099B1F5A06FF1D10B
:100380001B6813F4003218BF012201920198012862
:1003900005D04FF000601D4A906002B070471C49C4
:1003A0000B6843F010020A60086820F003030B603A
:1003B0000A680A60A1F58050416841604368436063
:1003C00042684260416821F47C134360426842F411
:1003D00030214160036843F080720260094A01687D
:1003E0008901FBD5506820F003035360516841F048
:1003F00002005060034A536803F00C010829F9D148
:10040000C7E700BF001002400000FFF800ED00E069
:1004100000200240144A516801F00C000428134BDC
:1004200003D0082804D0124800E0124818600FE0FA
:1004300051685068C1F383410231C00301D40E4AB0
:1004400004E0526890034CBF0C4A0A4A51431960B9
:10045000054B5968C1F30310094A115C034B186836
:1004600020FA01F0186070470010024010000020D0
:1004700000127A00001BB70000093D00808D5B0070
:100480000000002030B587B00190042005F00EFF79
:10049000019A194D2B68B3FBF2F0411EB1F1807F38
:1004A00029D2164B5960F024154A82F823400024C3
:1004B0009C60072018600820012106F075F803A849
:1004C00006F052FA29680F4BB1FBF3F2501EADF85B
:1004D0000C004FF6FF71ADF81010ADF81240ADF8FA
:1004E0000E40094803A906F0F5F90748012106F076
:1004F00044FA07B030BDFEE71000002010E000E035
:1005000000ED00E040420F00000C004082B001907E
:10051000019A034B1A6018680028FCD102B070479A
:100520001007002008B50A4B1A680AB90948186074
:10053000186841186B46994206D907F0E1FB0C2177
:1005400001604FF0FF3008BD014A116008BD00BFD7
:1005500014070020A41B00207047FEE7FEE7FEE71B
:10056000FEE770477047704708B5084B1A6812B12C
:100570001868411E196000F05FF9054B1A681AB936
:10058000BDE8084000F0C2BB08BD00BF1007002056
:100590000C07002007F01EB904F000BC704710B52E
:1005A0000131002393420ED0040F092C01D83034BE
:1005B00000E0373401F8014C0001002401F8024B3F
:1005C0000133DBB2EEE710BDF7B57D20012105F068
:1005D000DFFF4FF6FF73ADF8043003268DF8066099
:1005E00000278DF807701F4801A905F06BFE1E4D0E
:1005F000284601A905F066FE1C4801A905F062FE27
:100600001B4801A905F05EFE1A4C204601A905F021
:1006100059FE7D20394605F0BBFF4820012105F039
:10062000B7FFADF804608DF8066010208DF8070064
:10063000204601A905F046FE4FF48076ADF804602F
:10064000284601A905F03EFE2846314605F08EFEFB
:100650002046012105F08AFE2046022105F086FE93
:10066000FEBD00BF00080140000C01400010014029
:10067000001401400018014013B54020012105F08D
:1006800087FF7823ADF8043003248DF80640282036
:100690008DF807000B4801A905F014FE0420012184
:1006A00005F076FF4FF48071ADF804108DF8064028
:1006B00004228DF8072004480DEB020105F002FE2C
:1006C0001CBD00BF00180140000801404FF0006051
:1006D000002105F0E1BD08B5FFF79CFEFFF7F6FF2E
:1006E000FFF772FFFFF7C8FF00F010F900F00CFAF7
:1006F000BDE8084000F020B97FB5002005F0B8FE45
:10070000002005F0AFFE4FF480304FF4801105F06B
:100710009FFE012005F0A6FE392005F057FF0028B6
:10072000FAD00C4B1A6842F010001860196821F0DA
:1007300003021A60186840F002011960022005F0F7
:1007400097FE05F09FFE0828FBD101A805F0C6FE24
:1007500007B000BD0020024007B52020012105F0B0
:1007600017FF0823ADF8043003208DF8060014218C
:100770008DF80710024801A905F0A4FD0EBD00BFC9
:100780000014014008B5002005F084FE4FF400007D
:100790000121BDE8084005F007BF000018B104487A
:1007A000082105F0E3BD0248082105F0DDBD00BFCA
:1007B0000014014070B506460D460A4B18680A4AF7
:1007C0001468111D0B6818180AD031460822FFF76B
:1007D000E6FE204629460422BDE87040FFF7DFBE52
:1007E00070BD00BFE8F7FF1FECF7FF1F00231A469C
:1007F0000F4931F81300121892B20533322BF7D19A
:100800000A21B2FBF1F00205110D40F6C62359434F
:10081000C1F30F30420092B2064BB3F90010481CEE
:1008200002D0481000EB52021A80B3F90000704762
:100830006C0700202407002070B52C484FF480710D
:1008400005F08CFD01282A4B0ED11868411C196057
:1008500040F6B834A14209D900F06EFA25484FF4A9
:10086000005105F081FDFEE700221A60224C256848
:100870002DB1FFF7BBFF214B1860013D25602048DB
:100880000268511C0160B1F57A7F2ED90024046002
:100890001A4D2B6803265E43FFF7A8FF80198008D6
:1008A000286040F6B8329042164B1DD9B0F5616F02
:1008B000154A06D20221116040F62E52904203D909
:1008C0000FE0012111600CE019684A1C1A600C2A23
:1008D0000BD900F031FA07484FF4005105F044FD00
:1008E000FEE70020186070BD1C6070BD000801406C
:1008F00018070020001001401400002028070020E5
:10090000200700201C0700201800002007B5102039
:10091000012105F03DFE4FF40053ADF804300120F5
:100920008DF8060010218DF80710024801A905F086
:10093000C9FC0EBD0010014070B54FF404700121D8
:1009400005F026FE0120014605F016FE404903266B
:100950008E700F230B800025CD703E4805F0B2FC51
:100960004FF40070012105F013FE3B4805F0F6FE40
:100970003A493B4808603B4A4A608D603224CC606B
:100980000D6180234B614FF4807088614FF4806269
:10099000CA6120240C624D628D622F4805F056FF1B
:1009A0002D48012105F072FF2F490D6001240C71C3
:1009B0004C714FF460238B60CD6005250D742B487E
:1009C00005F018FE204605F0BDFE28480921224604
:1009D000072305F060FE2548102102222B4605F072
:1009E0005AFE22480A213246072305F054FE1F48CA
:1009F0000C210422072305F04EFE1C480D212A4637
:100A0000072305F048FE1948214605F091FE1748D6
:100A1000214605F013FE204605F094FE134805F02C
:100A20001FFE124805F021FE0028FAD10F4805F0FC
:100A300020FE0E4805F022FE0028FAD10B480121C5
:100A400005F005FE09480121BDE8704005F01ABE19
:100A5000D00700200010014008000240400700209D
:100A60004C2401406C0700202C070020002401408A
:100A700073B5064602A840F8041D07F047F943691C
:100A800003F26C714161344605460FCD0FC40FCDA2
:100A90000FC42868206030467CBD10B5044605F0C0
:100AA00099FF01462046FFF7E3FF204610BD10B531
:100AB0000446012006F076F905F0C0FF204605F057
:100AC0009DFF05F0BBFF0020BDE8104006F06AB9AD
:100AD00084B030B58BB00EAC84E80F0001AC0EAD25
:100AE0000FCD0FC40FCD0FC42B6823600698A0F262
:100AF0006C71069101A807F075FDFFF7D8FF0BB0E8
:100B0000BDE8304004B0704770B586B0142006F0E0
:100B100039F94AF2A554A0424FF0C0504FF00101FC
:100B20004FD005F041FD012006F03CF9142021468C
:100B300006F01AF906F00FF9012005F0B1FC41208A
:100B400005F044FD0028FAD04FF4807005F0B8FCA1
:100B5000012005F0BDFC05F071FF0120014605F004
:100B600019FF05F06BFF47F6FF7005F057FF05F022
:100B700065FF1A4C40F2D9736361062020610F2192
:100B8000E1601722A2602D266660254645F8106BAD
:100B90006E460FCD0FC62B68336094E80F00FFF749
:100BA00097FF05F04BFF012006F0FCF814204AF2F5
:100BB000A55106F0D9F8002006B0BDE8704006F057
:100BC000F1B805F0F1FC05F043FF0120014605F006
:100BD000E1FE06B0BDE8704005F030BFD40700204C
:100BE00010B50024094B186880470028FAD00CB9CA
:100BF0002428F6D1064908550134A4B20A2803D0A6
:100C0000B4F5007FEDD2EDE7E0B210BDA4160020F0
:100C1000640A00200278303AD1B2092909D8437811
:100C2000303BDAB2092A04D80A2000FB0121C8B2FD
:100C300070470020704700000023C25C22B10349C6
:100C4000595C01338A42F8D010467047640A00208C
:100C5000074B58B11A4612F8011B1346202904D934
:100C60002C29F8D10138C0B2F3E7002318467047A9
:100C7000640A002000B5A1B002460B4691F90010AD
:100C8000684619B9104900F01BFE02E00F4900F058
:100C900017FE9DF90030242B0AD16B4620A80022B4
:100CA00013F8011F2A2904D0834202D04A40F7E7F3
:100CB00000220748694600F0F7FD00F0E7FC002835
:100CC000FBD021B000BD00BFEF910008EC910008FF
:100CD000F391000810B50C4C204604F025F8E2789A
:100CE000A378580540EA0241627941EAC223A0791B
:100CF00043EA4011E27941EA52032088A0F2BC7134
:100D000043EA416010BD00BF580A002010B5074CEF
:100D100023685A1C226041F28830834205D9044876
:100D20000449FFF7A7FF0021216010BD600A0020E1
:100D3000FA910008F991000808B5044B186820B131
:100D4000034802F085F80028FAD108BD640C0020A1
:100D5000F8070020F0B58FB00024ADF83240A04A6B
:100D6000A04B1A60A048A149086002204FF4164128
:100D700000F066FB9E489F49FFF77CFF6420FFF769
:100D8000C5FB02204FF4E13100F05AFB9848994925
:100D9000FFF770FF6420FFF7B9FB02204FF41651F4
:100DA00000F04EFB94489549FFF764FF944893493F
:100DB000FFF760FF93489449FFF75CFF934894491D
:100DC000FFF758FF93488D49FFF754FF9248934926
:100DD000FFF750FF2046924901F09CFE00F044FCD2
:100DE0000025904E35609048022105F0BDFA30BFD5
:100DF000FFF7F6FE0028FBD08B48022105F0B6FA7B
:100E00008948012105F0B0FA8848FFF715FF18B1AD
:100E10008748FFF711FF38B90220FFF719FF044692
:100E20008148012105F0A2FA0027824A1760002CB0
:100E3000DDD02378412BDAD101247A4804607A4846
:100E4000022105F093FA7848214605F08FFA2046F2
:100E5000FFF7FEFE0546FFF7DDFE774FB860A81CE2
:100E6000FFF7D8FE7860281DFFF7D4FE3860092010
:100E7000FFF7EEFE0446FFF7CDFEF860A01CFFF77B
:100E8000C9FE411E3961201DFFF7C4FE6430786140
:100E9000384607F0A7FB00F5FD401030FFF707FECE
:100EA00002A8FFF7FAFD3D4602AE0FCE0FC50FCEEA
:100EB0000FC532682A607A69642592FBF5F603460D
:100EC000F86800905D485E4905FB1622013300F08A
:100ED000F7FC5C4F38465949122201F02BFE0028DE
:100EE00073D13846F96801F0BAFF00286DD1FFF7D9
:100EF00077FE054600283FF473AF5348FFF79CFE8A
:100F000038B90620FFF7A4FE04460278302A0BD138
:100F100019E04648FFF790FEA8B90220FFF798FEB7
:100F20000446017841290ED13F48022105F01CFA00
:100F3000444842492A460DAB01F094FE002844D1B2
:100F40000D9EB54241D14148FFF776FE38B90620E3
:100F5000FFF77EFE0446007830280BD118E03448B5
:100F6000FFF76AFEA0B90220FFF772FE044603787D
:100F7000412B0DD12C48022105F0F6F931482F49BB
:100F80002A460DAB01F06EFEF8B90D9FBD421CD193
:100F9000BDF83250691C8AB2ADF832205A2A08D8FE
:100FA0002148022105F0E2F90020224B186030BFF1
:100FB0009DE71D48022105F0D7F90026ADF8326003
:100FC000204801F016FF0028EAD01748022105F05A
:100FD000CBF91C4801F03CFF0028F6D100E700BF28
:100FE0007D150008A0160020A1150008A4160020F9
:100FF000039200080C920008119200084B9200081E
:101000001A920008239200082C9200082E920008E1
:10101000D99C0008379200084092000849920008C5
:1010200020080020640C0020001801404D920008A8
:1010300054920008600A0020D4070020640A0020AF
:101040005B920008F80700206C9200087392000879
:10105000F7B51F4C4FF4165323600020A080E080AA
:101060002081A0810C2161810520012105F090FAE9
:101070004FF40030012105F097FA04221746ADF82D
:10108000042003268DF8066018258DF80750114DB1
:10109000284601A905F016F90823ADF804308DF8AB
:1010A00006608DF80770284601A905F00BF9A5F533
:1010B00044452846214605F097FD2846012105F0C4
:1010C000F6FD284640F22551012205F0FCFDFEBD4B
:1010D0008C1600200008014073B5384A1379012BA3
:1010E0000AD04FF0000404D3022B2ED14FF400514C
:1010F00004E03348C48003E04FF44051304CE180B9
:101100005279012A0AD04FF0000404D3022A1CD1DC
:101110004FF4C06104E02A4B1C8103E04FF480616E
:1011200027480181254CA279072A4FF0000402D0FC
:10113000082A0AD102E022498C800AE0204D2E893B
:101140000EB14FF48056AE8003E0FFF781FF2046DA
:1011500032E01B4C194B186820600022A2810C253C
:1011600065810520012105F013FA4FF400300121BB
:1011700005F01AFA04210E46ADF8041003258DF887
:10118000065018238DF807300E4801A905F09AF88B
:101190000820ADF804008DF806508DF80760094866
:1011A00001A905F08FF80848214605F01DFD064805
:1011B000012105F07CFD01207CBD00BF080100205D
:1011C0008C160020000801400044004070B506461F
:1011D0000D460024AC420BD20648315D05F08DFD72
:1011E0000448802105F091FD0028F9D00134F1E791
:1011F00070BD00BF0044004038B500221F4B1A707C
:101200001F480178012938D01E4B1868B0F5006FCF
:1012100008BF1A601B681C4A11688B4203D100206A
:10122000174B187038BD194C8CBFC3F50061C3EB68
:101230000101216015492468402C124A98B205D951
:1012400040331360403C0C60402504E0A5B2E31835
:10125000136000240C60012409490C700C4A10181A
:10126000C0212A4606F0F0FA2046294606F01CFC6A
:101270002046BDE8384006F067BB38BD680C00204A
:1012800069140020701400206C14002074140020D5
:10129000690C002010B50E4B9A79072A0D4806D12B
:1012A00004680D4805F02DFD00F07F0005E0082AD8
:1012B00005D10468084805F024FD08490855054B88
:1012C0001A68501CB0F5006F08BF0020186010BDF0
:1012D000080100206C14002000440040690C00202C
:1012E00008B5094840F2255105F015FD08B1FFF792
:1012F000D1FF0548082105F008FD20B10248BDE8EE
:10130000084005F0FEBC08BD0044004037B5FFF7BB
:10131000F3F9FFF77FF800F087FD1D481D4900F045
:101320005BFE1B4800F06AFE00F064FD00200146F1
:10133000194A012300F0D0FCFFF70EFA0020FFF756
:101340002DFAFFF71FFA4FF4C06004F067FF142373
:101350008DF8043001248DF8054000258DF80650E5
:101360008DF8074001A804F063FF26208DF80400E3
:101370008DF8055001A804F05BFF06F047F9204600
:10138000FFF70CFA05490A68052AFBD1FEE700BF02
:10139000A81600209F9200087A920008BC1700202F
:1013A00013B5FFF7A9F9FFF735F800F03DFD204828
:1013B000204900F011FE1E4800F020FE00F01AFD4A
:1013C000002001461C4A012300F086FCFFF7C4F907
:1013D0000020FFF7E3F9002004F05AF8FFF7D2F9F4
:1013E0004FF4C06004F01AFF14238DF80430012478
:1013F0008DF805408DF806408DF8074001A804F0EF
:1014000017FF13208DF804008DF8054000218DF89A
:1014100006108DF8074001A804F00AFF06F0F6F860
:101420002046FFF7BBF9054A1368052BFBD1FEE701
:10143000A81600209F9200088C920008BC1700207C
:101440002DE9F34104468846022855D12B4D2C4BFB
:101450002B600520012105F09BF84FF4003001219D
:1014600005F0A2F804200746ADF8000003268DF829
:10147000026018218DF803102248694604F022FF0B
:101480000822ADF800208DF802608DF803701D4829
:10149000694604F017FF4FF4C06004F0BFFE262336
:1014A0008DF804308DF8054000248DF806400126A3
:1014B0008DF8076001A804F0BBFE134F384605F015
:1014C000EBFBC7F800802868394605F08DFB0F4814
:1014D0000F490860A0F80242A0F80042A0F80642B6
:1014E000A0F80442286840F22551324605F0EBFB93
:1014F0002868314605F0DBFBBDE8FC817C14002048
:1015000000440040000801408C1600208414002094
:101510007814002010B50346B0F80442B0F8062253
:10152000601C00F0FF04D2B2A41A18BF01249CB1C1
:10153000B3F8040282B272B6D2B2981880F80011E1
:10154000511CCAB2A3F8042262B6044B186840F2D8
:101550002771012205F0B7FB204610BD7C14002046
:10156000034672B6B0F8022290B2185CB3F80212C9
:101570004A1CD1B2A3F8021262B670470146074B6B
:101580001B68B3F80402B3F80622013000F0FF0034
:10159000D2B29042F5D01846FFF7BCBF78140020B5
:1015A000064B1868B0F80022B0F80212D2B2CBB2E3
:1015B0009A4201D0FFF7D4BF002070477814002072
:1015C00070B5234840F2255105F0A5FBD0B1214C60
:1015D000B4F80052681CC5B2B4F80262B6B21C4836
:1015E00005F08FFBC1B2B54206D1194840F2255132
:1015F000002205F068FB05E0B4F800329AB2A1546D
:10160000A4F80052124C204640F2277105F083FBEB
:10161000E8B11048B0F806128BB2B0F8042291B2CB
:10162000994207D1204640F227710022BDE8704060
:1016300005F049BBB0F806329AB2811891F8003132
:10164000A380B0F80622511CCBB2A0F8063270BDC0
:10165000004400408414002008B5024B18688047FD
:1016600008BD00BF80140020064B18680022A0F8B7
:101670000222A0F800220449086840F22551012204
:1016800005F021BB781400207C140020064B18685C
:10169000B0F8062291B2B0F8043298B2421A514220
:1016A00051EB0200704700BF7814002010B50446CB
:1016B0000A2802D10D20FFF7F9FF064A13681BB173
:1016C00003F8014B136010BD0348016809B1E0B293
:1016D000884710BD9C160020A016002010B5441E9F
:1016E00014F8010F18B140B2FFF7E0FFF8E710BDA2
:1016F0002DE9F04F85B004460E462078002800F012
:10170000D08040B2252801D001346EE0607843B229
:10171000302B03D1A0780334012507E02D2B02D014
:101720000234002502E0A078033402254FF00008BF
:10173000A0F13001092943B207D80A2202FB083878
:10174000A8F1300814F8010BF2E76C2B01D04C2BF8
:1017500003D145F0040514F8010B002800F0A18026
:1017600047B2602FC6BFA0F12002D2B2024651B2EA
:101770004F2940D006DC43292ED044290DD04229E0
:1017800032D136E0552908D058292BD053292BD1F6
:10179000371DD6F80090002601E00A212CE019F947
:1017A00006204AB10136FAE706F1010A464506D29B
:1017B0002020FFF77BFF5646A80701D4F4E75646E2
:1017C0004846FFF78BFF464501D33E4695E720206C
:1017D000FFF76CFF0136F6E7371D96F90000FFF7BB
:1017E00065FFF2E7102107E040B2FFF75FFF3746E1
:1017F000EBE7022100E00821336852B2371D442A8A
:1018000004D1002B02DA5B4245F008050022B3FB4D
:10181000F1FE01FB1E33DEB273464FFA86FCBCF1CB
:10182000090F07DD782814BF4FF007094FF027098B
:101830004E44F6B230360DF80260561CBEF1000F71
:1018400004D0102E01D03246E1E70F22290705D53A
:1018500004A881192D2301F8103C961C15F0010FE6
:101860000CBF4FF0200B4FF0300BB146AB0709D443
:1018700009F1010AC14504D25846FFF717FFD146C6
:10188000F4E7D146013E1DF90600FFF70FFF002ED9
:10189000F8D1C14599D22020FFF708FF09F10109CD
:1018A000F7E705B0BDE8F08F0FB407B504A951F80C
:1018B000040B0191FFF71CFFBDE80E4004B0704718
:1018C0000EB417B505A951F8043B074C20600191EF
:1018D0001846FFF70DFF2268002010702060BDE859
:1018E0001E4003B0704700BF9C16002070B596B034
:1018F0004FF48070012104F03FFE40F2E11001211D
:1019000004F046FE4FF4FF43ADF81C3018208DF86C
:101910001F0003218DF81E102F4807A904F0D2FCE8
:101920001025ADF81C502D4C204607A904F0CAFC28
:101930002022ADF81C20204607A904F0C3FC4FF478
:101940000063ADF81C30204607A904F0BBFC402022
:10195000ADF81C008DF81F50204607A904F0B2FC1A
:101960008021ADF81C10204607A904F0ABFC4FF411
:101970008074ADF81C401A4E304607A904F0A2FC52
:101980003046214604F0F0FC0222009201920292BD
:1019900005230393049305930020069004240794E1
:1019A000089009900A950B900C900D900E900F9056
:1019B0004FF4805110911190129013900DEB000292
:1019C0001492159207A804F0D3FC2046012104F0DC
:1019D0002DFD16B070BD00BF00180140001401407D
:1019E000000C01400A460146134600F0E1B9000030
:1019F0002DE9F04F85B0804689469A462D4B1868F0
:101A0000477AFE0807F007071178527842EA01206A
:101A100000F006FB044608EBC60B1FFA8BFB002503
:101A2000244B1868817A8D4240DA0022B24221DAD2
:101A300008EBC20C1FFA8CFC0023A05C00FA03F038
:101A4000010612D50CEB030009EB050180B289B247
:101A500003920193CDF808C0FFF7C4FF504600F091
:101A60009DF9DDF808C0019B039A0133082BE4D1EE
:101A70000132DBE7A4190023BB4213DA207800FA15
:101A800003F002060CD50BEB030209EB050190B243
:101A900089B20193FFF7A6FF504600F07FF9019B42
:101AA0000133E9E707B101340135B9E705B0BDE815
:101AB000F08F00BFB41600202DE9F04F85B08046AE
:101AC00089469A462B4B18684779FE0807F00707A6
:101AD000104600F099FA044608EBC60B1FFA8BFB80
:101AE000002524490A6893799D4240DA0022B242D7
:101AF00021DA08EBC20C1FFA8CFC0023A05C00FA70
:101B000003F0010612D50CEB030009EB050180B2CE
:101B100089B203920193CDF808C0FFF763FF5046E6
:101B200000F03CF9DDF808C0019B039A0133082B53
:101B3000E4D10132DBE7A4190023BB4213DA207899
:101B400000FA03F000060CD50BEB030209EB0501CC
:101B500090B289B20193FFF745FF504600F01EF99D
:101B6000019B0133E9E707B101340135B9E705B05D
:101B7000BDE8F08FB01600202DE9F84F06460D465F
:101B80009946BDF828A0DFF8A0B0DBF8003093F844
:101B900009804FEAD80708F007081078517841EA21
:101BA000002000F03DFA0446DBF80020537AF118DB
:101BB000907A2B18304601392A46013B00F0F8F89C
:101BC0004FF0000B184A1168887A834529DA0025FE
:101BD000BD420FDA0026625D02FA06F212F0800FB3
:101BE0000CBF5046484600F0D9F80136082EF2D115
:101BF0000135EDE7E419002545450BDA237803FAB2
:101C000005F313F0800F0CBF5046484600F0C6F8AD
:101C10000135F1E7B8F1000F00D001340BF1010BF1
:101C2000D0E7BDE8F88F00BFB41600202DE9F84FCB
:101C300006460D469946BDF828A0DFF898B0DBF8B7
:101C4000003093F805804FEAD80708F007081078AD
:101C500000F0DAF90446DBF8000041797218837964
:101C6000EB183046511E2A46013B00F0A1F84FF018
:101C7000000B184801688A79934529DA0025BD428E
:101C80000FDA0026605D00FA06F010F0800F0CBF3E
:101C90005046484600F082F80136082EF2D1013550
:101CA000EDE7E419002545450BDA237803FA05F33F
:101CB00013F0800F0CBF5046484600F06FF8013516
:101CC000F1E7B8F1000F00D001340BF1010BD0E7C0
:101CD000BDE8F88FB0160020F7B504460E4615464D
:101CE0001F462A78002A39D07F2C39D89F2E37D822
:101CF00082F080031F2B1B4901D9DF2A16D93FB977
:101D00000B68204631462A461B88FFF771FE08E023
:101D100009680B884A880092204631462A46FFF718
:101D20002BFF023510480168487A14E037B90B6878
:101D3000204631461B88FFF7BFFE08E00A6813887B
:101D400050880090204631462A46FFF76FFF013544
:101D500006490A6850792418A4B2C2E7012000E0BD
:101D60000020FEBD1C000020B4160020B01600208C
:101D700038B5094C402525616420FEF7C7FB656135
:101D8000802363616420FEF7C1FB25616420BDE808
:101D90003840FEF7BBBB00BF001401400209034BF3
:101DA0001A80000181B21980704700BF00000268EC
:101DB00070B54FF0D0464FF4287434800C4C002599
:101DC0002580C0B2000120802580C9B20801208092
:101DD0004FF42C7131802580D2B2100120802580F3
:101DE000DBB2190121804FF43072328070BD00BF28
:101DF0000000026807B500207F2102469F23FFF7FD
:101E0000D7FF4FF4A0430193064840F6FF720280CB
:101E10004FF6F0710180019B581E01900028F3D10C
:101E20000EBD00BF000002682DE9F843FFF75EFD1C
:101E3000FFF79EFF4FF0D04410252580B420FEF719
:101E400065FB4FF4807323806420FEF75FFB4FF443
:101E5000887020809620FEF759FB4FF43161218075
:101E60004F4B60261E803020188020221A804FF4AD
:101E70003467278018804FF4366121801A804FF034
:101E8000E00CA3F800C04FF4756727804FF4D071C1
:101E900019804FF4406EA4F800E01A8000211980E8
:101EA0004FF44167278050271F804FF442672780F7
:101EB0001A801A804FF4436727801D801A804FF4E0
:101EC000446727801D801A804FF4456727804FF4B0
:101ED0008E671F804FF468771F804FF47268A4F8F4
:101EE00000801A804FF47669A4F800904FF4986847
:101EF000A3F800804FF47869A4F800901E804FF496
:101F00006068A4F800801E804FF4E079A3F8009088
:101F10004FF4F878A3F80080A3F800804FF4C0785D
:101F2000A3F800804FF49879A3F800901E801880E1
:101F3000188040261E8070201880188019804FF469
:101F400061662680A0261E804FF4A0761E804FF486
:101F5000D8761E80A3F800804FF490761E80A3F8F8
:101F600000C01A801D8019801D8080221A80188070
:101F700019804FF458702080A3F800E027804FF4B8
:101F8000AA621A804FF4547020801980FFF732FF44
:101F90004FF4247323801420BDE8F843FEF7B6BA4B
:101FA0000000026870B50B4B1968CD7A142200232B
:101FB000AB420BDA0C68A61836F8026C864202D8DF
:101FC000A45A844204D201330432F1E74FF0FF33C4
:101FD000184670BDB416002010B50160D1F80E404F
:101FE000E2B24271CB7B837114F0070F4FEAD2014A
:101FF00018BF01314B43037110BD0000014B186045
:10200000704700BFB0160020044B19680A7950438E
:1020100000F111030868C018704700BFB016002017
:1020200010B50446FFF7BEFF431C05D148F2A010CF
:10203000FFF7B8FF48F2A014074B1B6803EB400200
:1020400091891A6802EB8000428AA41A0C19197A45
:102050005B6801FB043010BDB416002010B50023EE
:10206000D41A032C03D9CC58C4500433F8E702F037
:10207000030422F0030280188A180023A34203D02D
:10208000D15CC1540133F9E710BD8218904202D0EF
:1020900000F8011BFAE77047436A0433490A0268F3
:1020A0009078B1FBF0F1186830B1814202D3091A7F
:1020B0000833F8E75B68C818704708B580B1036853
:1020C00073B11A7862B1D9888088814208D1587872
:1020D00002F0A2FD10F0010F0CBF0020032008BD8C
:1020E000092008BDF8B50446007908B3656B04F112
:1020F0003807607839462A46012302F0B9FDB0B9A5
:102100002071A36A9D4201D20020F8BD226A98186E
:102110008542F9D2E678012EF6D9216A6D186078E9
:1021200039462A46012302F0A3FD013EF3E70120D0
:10213000F8BD000070B50446FFF7D4FF05465DBB4F
:102140002378032B20D16079F0B1656304F1380660
:10215000304629464FF40072FFF797FF4AF65521A3
:10216000A4F836120D4AA2630D4BC4F81C32206944
:10217000C4F82002E168C4F824126078314662692C
:10218000012302F075FD6571607800210A4602F0B6
:1021900089FD003018BF012070BD00BF525261415F
:1021A0007272416138B504460D46436B99420CD0BA
:1021B000FFF798FF58B9607804F138012A460123E7
:1021C00002F03CFD18B9656338BD002038BD012020
:1021D00038BD000010B504460A46407804F13801C5
:1021E000012302F02BFDA0B9B4F836224AF655239C
:1021F0009A4210D1D4F86E1021F07F42074B9A42D8
:102200000AD0D4F88A0020F07F41C81A18BF0120F4
:1022100010BD032010BD022010BD00BF4641540078
:102220002DE9F0411546026892F90030303B092B48
:1022300006D892F901403A2C02D10232026001E044
:10224000784B1B7800200860002B40F0D880764C3B
:102250002468002C00F0D6800C60217881B1607871
:1022600002F0DAFCC3070BD4002D00F0CE8000F0A2
:102270000402D3B2002B14BF0A200020BDE8F08175
:1022800000202070607002F0B7FCC10700F1C08030
:102290002DB100F00403DAB2002A40F0BC802046E1
:1022A0000021FFF797FF01280CD194F8FA0110B92B
:1022B0000D20BDE8F081D4F8FE5120462946FFF7F5
:1022C00089FF00E00025032800F0A8800028EFD156
:1022D000B4F84310B1F5007FEAD1B4F84E3003B939
:1022E000E36D236294F84860E670721E012ADFD81D
:1022F00094F84500A0700028DAD0411E0142D7D1E1
:10230000B4F8491021810A07D2D1B4F84B2002B9A0
:10231000A26DB4F846C0BCF1000FC9D006FB03F8AB
:102320000CEB11174744BA42C2D3D21BB2FBF0F2F6
:10233000002ABDD040F6F576B24206D94FF6F570C8
:1023400082428CBF0326022600E001260232E261AF
:10235000656205EB0C00A0627F192763032E05D18F
:102360000029A5D1606EE06291000EE000299FD0A7
:1023700008EB0001E162022E01D1510005E00320CB
:10238000504302F0010202EB500101F2FF12B3EBE5
:10239000522F8DD34FF0FF3323610021E160032ED4
:1023A00020D16171B4F868002A186261607804F184
:1023B0003801012302F042FCA0B9B4F836224AF6F3
:1023C00055239A420ED1A16B184881420AD1D4F804
:1023D0001C32174A934205D1D4F82412E160D4F894
:1023E000200220612670134A1388591C88B210807D
:1023F000E080002060632071A061BDE8F0810B20C7
:10240000BDE8F0810C20BDE8F0812846BDE8F081F0
:102410000320BDE8F0810A20BDE8F0810120BDE87D
:10242000F08100BFB8160020BC1600205252614156
:1024300072724161BA1600200239C3699A1E914234
:1024400004D28278006B02FB0100704700207047C5
:10245000F8B504460D46012948D9C369994245D2C9
:102460000178022927D0032930D001293BD105EB7F
:102470005506826A02EB5621FFF794FE002832D1FE
:10248000F00504EBD05797F838700136A36A204660
:1024900003EB5621FFF786FE28BBF60504EBD65466
:1024A00094F8381047EA0120EA0701D50009F8BD81
:1024B0000205100DF8BD826A02EB1521FFF772FECE
:1024C00088B92D0604EBD554208FF8BD836A03EB41
:1024D000D511FFF767FE30B96D0604EBD554A16B3B
:1024E00021F07040F8BD4FF0FF30F8BD0120F8BD7D
:1024F00070B504460D46E1808168012901D10220B2
:1025000070BD0368DA699142F9D271B9187803286D
:1025100001D1D96A49B90020E0601989A942EED9F0
:10252000DB6A03EB1512226119E09E783601B54291
:102530000ED32068FFF78CFF0146013018D0012927
:10254000DDD92368DA699142D9D2AD1BADB2EEE78D
:10255000E1602068FFF770FF00EB1511216105F0C5
:102560000F056D013835206841196161002070BD8B
:10257000012070BDF8B504460D46164601295DD907
:10258000C36999425AD20178022939D0032942D02D
:1025900001294FD105EB5507826A02EB5721FFF75E
:1025A00001FE002847D1F805C20D15F00105F3B270
:1025B00007D0A11891F8380000F00F0141EA031389
:1025C000DBB2A21882F83830013701202071A16AED
:1025D000204601EB5721FFF7E5FD60BBFF05FA0D33
:1025E00015B1C6F3071607E0A31893F8381021F0C9
:1025F0000F07C6F303263E43A71887F838601AE092
:10260000826A02EB1521FFF7CDFDA0B92D0604EB80
:10261000D5552E870FE0826A02EBD511FFF7C2FD78
:1026200048B96D06ED0D3835635903F070410E431E
:10263000665100E0022001232371F8BD0220F8BD9D
:10264000F8B505460F4631B9C6686EB1C069864215
:1026500028BF012609E0FFF7FBFE01283BD9EB6903
:10266000984239D33E4600E0012634460134E969F8
:102670008C4204D3012E01D80020F8BD0224284644
:102680002146FFF7E5FE48B1411C02D14FF0FF3073
:10269000F8BD01281FD0B442E8D1EDE72846214615
:1026A0006FF07042FFF766FF98B947B9EC602B698D
:1026B0005A1C0CD05A1E2A610120687107E0284676
:1026C00039462246FFF756FF0028EFD001E02046AA
:1026D000F8BD0128DAD00120F8BD2DE9F843044601
:1026E0000F46C688701C86B216B90420BDE8F88370
:1026F0002369002BF9D016F00F085AD1591C21611B
:10270000E168206819B90189B142EED951E08278B7
:10271000531E13EA16124CD1FFF79AFE0546012804
:1027200002D80220BDE8F883431C02D10120BDE895
:10273000F8832068C1698D4235D3002FD5D0E16878
:10274000FFF77EFF054600283FD00128E9D0013081
:10275000ECD02068FFF7C6FC07460028E6D12068C9
:10276000383039464FF40072FFF78FFCD4F80090F0
:1027700048462946FFF760FEC9F834002068827891
:10278000BA420DD9012101712068FFF7ABFC002886
:10279000CCD12068426B531C43630137FFB2EDE795
:1027A000436BDF1B4763E56020682946FFF744FE63
:1027B0002061E6804FEA481808F13808206800EBED
:1027C000080262610020BDE8F8830720BDE8F883B5
:1027D0002DE9F04104460F4691F900302F2B01D02E
:1027E0005C2B02D10137002101E000688169A16002
:1027F0003A781F2A4AD820460021FFF779FE0022A6
:102800006261BDE8F08107460678013073B22F2B74
:10281000F9D05C2BF7D0A669304620210B22FFF7B8
:1028200034FC97F900102E293AD1317078782E288F
:102830002ED17070B87803232F282BD1FF182028B1
:102840008CBF20232423F37220460021FFF750FE83
:1028500030B920682169FFF7A5FC002800F0A680A8
:10286000A169CB7A002800F0BA80042840F0D88013
:1028700003F02002D1B203F00400002900F0B6807A
:102880000023A3606361002840F0AD803846BAE7BA
:102890000223D1E75C28D1D0202800F2C080CDE708
:1028A000002294460821154617F80C805FFA88F339
:1028B0000CF10100202B42D92F2B42D05C2B40D0B1
:1028C0002E2B6CD08A4280F0AA8018F0800F18BF9F
:1028D00045F0030503F17F085FFA88FEBEF11E0F85
:1028E00006D903F120085FFA88FEBEF11C0F1AD842
:1028F00017F800800CF10200A8F1400EBEF13E0F67
:1029000005D988F0800CBCF17C0F00F2888001F1C1
:10291000FF3E724580F08380B354B31883F8018082
:1029200002328446C0E7DFF8FC8018F801CFBCF122
:10293000000F20D04FFA8CFC9C45F6D16FE00423A9
:1029400000E00023002A6AD03278E52A01D105226E
:102950003270082901D1A900CDB205F00302012A85
:1029600008BF43F0100305F00C05042D08BF43F029
:1029700008033F1867E7A3F14108B8F1190F02D81F
:1029800045F0020508E0A3F1610EBEF1190F03D86E
:1029900045F00105203BDBB2B3540132C1E7082901
:1029A0003DD1AD00EDB20A460B21BAE7626911785C
:1029B00099B1D37A03F00801CBB24BB9A6690346AB
:1029C000D55CF15C01338D4202D10B2BF8D147E786
:1029D00020460021FFF781FE3AE7042040E703F09C
:1029E0000400C2B242B10020BDE8F081002814BF4B
:1029F00004200520BDE8F0816369D97A01F0100058
:102A0000C2B24AB15E8B21680878032804BF9B8A52
:102A100046EA0346A66039E70520BDE8F0810620B6
:102A2000BDE8F081AF9C000810B504460021FFF717
:102A30005FFD70B920682169FFF7B4FB48B963698D
:102A40001978E52908D039B120460121FFF745FE64
:102A5000EFE7042808BF072010BD38B50446FFF78C
:102A6000E3FF054690B920682169FFF79BFB054607
:102A700060B9606929462022FFF707FB6069A169F8
:102A80000B22FFF7EBFA236801221A71284638BDA2
:102A9000F7B504460F46012939D9C369994236D2A0
:102AA0000D46E069854205D220462946FFF7D0FC55
:102AB000064608B900202BE0012828D0013024D098
:102AC000204629460022FFF755FD08BB2269511C0C
:102AD00003D0511C216101236371681CB04212D0E4
:102AE00020463946FFF7A8FC009020462946FFF70C
:102AF000A3FCA5786F1E3A180192607804216A46FB
:102B000002F0D0F837463546CBE7012000E002203E
:102B1000FEBD000048B9064A136803B1187009B138
:102B2000002008701160002070470B20704700BF24
:102B3000BC1600202DE9F0438DB0019117460546E3
:102B4000002800F082800023036001A805A902F09C
:102B50001E02FFF765FB804600287FD102A80B907C
:102B600005A80199FFF734FE0A9C18B9002C0CBF88
:102B70000620002007F01F0617F01C0F3BD048B1BD
:102B8000042802D105A8FFF768FF46F008060A9C52
:102B900048B162E0E07A10F0110F5DD107F0040156
:102BA000CFB2002F54D106F00802D3B2002B2FD0A1
:102BB000FEF790F8C4F80E000021E172E16105987B
:102BC000678B0278032A04BFA28A47EA024761831F
:102BD000A18201230371DFB1D0F834903946FFF7A9
:102BE00057FF002839D10598013FC7604946FFF7D4
:102BF000D9FA68B131E000282FD1E17A01F0100252
:102C0000D3B23BBB07F00207FFB20FB1CB0723D40F
:102C100006F00800C1B209B146F02006059B5A6BC8
:102C2000EA612C62AE71608B1978032904BFA18A16
:102C300040EA01402861E269EA600020A860A861DA
:102C400068622B60DB88AB8008E04FF0090805E084
:102C5000082002E0042000E00720804640460DB036
:102C6000BDE8F0832DE9F74F04468846174699469C
:102C70000023C9F80030FFF720FA0546002840F08D
:102C8000B580A079020600F1AE8000F00201CAB260
:102C9000002A00F0AA80A368DF4228BF0027FFB106
:102CA000A168CB056FD1206890F802A00AF1FF322D
:102CB00002EA512313F0FF0A1DD131B92169A9B9E4
:102CC000FFF7BEFC0146206109E0626A1AB12046A6
:102CD000FFF7E2F902E06169FFF7B2FC014629B9AA
:102CE000A068E168884279D9E06077E0012913D0D3
:102CF0004B1C55D061612068416BA369994203D197
:102D0000FFF7F0F900284BD1226810466169019263
:102D1000FFF792FB019B20B9A37963F07F02A271B8
:102D200061E000EB0A0B7E0A20D0987806EB0A01DE
:102D3000814288BFCAEB0006587841465A46F3B232
:102D400001F096FF824658BB2068436BCBEB030231
:102D5000B24209D2383008EB42214FF40072FFF73B
:102D60007DF9206880F804A076022CE0A068E16874
:102D7000884206D31846FFF7B5F988B92668C6F821
:102D800034B0C4F818B0A268D305D80DC0F50076E9
:102D9000B74238BF3E462068A169FFF703FA28B161
:102DA000A57965F07F01A17101251FE0A168CA0521
:102DB000D00D38302368181841463246FFF74EF9D7
:102DC000216801220A71B044A1688B19A360D9F867
:102DD00000209019C9F80000BF1B60E7A37943F0F9
:102DE0002002A27102E0022500E007252846BDE886
:102DF000FE8F70B50446FFF760F9002827D1A3794C
:102E000003F02001CAB2002A21D02068E169FFF74F
:102E1000C9F90646DEB9256AE87A40F02003EB726C
:102E2000E168E96122696A83100CA882FDF752FF0C
:102E3000C5F816006E82A37923F02001A1712068E5
:102E4000012202712068BDE87040FFF773B970BDC0
:102E500010B50446FFF7CDFF00B9206010BD2DE985
:102E6000F84F04460D46FFF728F90646002840F0C3
:102E7000DA80A779380600F1D380636A002B5CD032
:102E8000691C32D11D4655F804BBD4F810800227C6
:102E9000B8F1000F21D0C1464FF0000A0AF1010A33
:102EA00020684946FFF7D4FA012840F2A280421C6C
:102EB00000F08B8009F1010281469042EED002378A
:102EC0005F4504D8C5F800A0C5F80480083521681E
:102ED000CB69984201D28046DDE7606A07605F45B2
:102EE00000F2A08000222A609DE0E068854228BFB1
:102EF0000546A560002D00F0968005F1FF382046BC
:102F00004146FFF7C9F801466061D4F80090484691
:102F1000FFF792FA18B967F07F07A77180E099F878
:102F20000220ED057FD0551E05EA582800EB080168
:102F3000A369994277D0A16175E0E068854205D91F
:102F400007F00207FFB2002F08BF0546A168002264
:102F5000A2600DB9002553E0206883785F0269B153
:102F60004B1E691EB1FBF7F1B3FBF7F2914205D39B
:102F700078420340A360ED1A61690AE0216939B91A
:102F8000FFF75EFB0146012833D0431C1DD02061B2
:102F900061610029DED00AE001292AD92068C269CE
:102FA000914226D26161A368D819A060ED1BBD4291
:102FB00016D9A37903F00202D3B220685BB1FFF700
:102FC0003FFB014658B1481CE6D1A67966F07F0167
:102FD000A171012627E0FFF73BFA0146F3E73D46E2
:102FE000A2685319A360EA05B4D02068FFF724FA59
:102FF00020B9A37963F07F00A07111E000EB5525A3
:10300000A168CA0503D0A069854218BFA561E2681E
:10301000914208D9E160A37943F02001A17102E057
:10302000022600E011263046BDE8F88F08B50C4AAC
:10303000536B13F0450FFBD05A0704D5042003F05F
:10304000BDFD032008BDDB0704D5012003F0B6FD5C
:10305000012008BD40F2FF5003F0B0FD2A2008BD5A
:103060000080014037B5044600220092019250488A
:1030700050490B68190401600D23436040218160B1
:10308000C2604FF48062026103F044FD4A48436B22
:103090000193019911F0450FF9D0019A500704D519
:1030A000042003F08BFD032081E0019D15F0010554
:1030B00004D0012003F082FD012078E003F040FD00
:1030C000019001980D2801D0102070E040F2FF50CF
:1030D00003F074FD284603F039FD0090009BC3F314
:1030E00043212170009A3548104000283CD0009BB5
:1030F000002B3BDB009949003AD4009A920039D466
:103100000098C30038D4009B180137D400994901B6
:1031100036D4009AD20135D40098030234D4009BEF
:103120005802D1D40099890230D4009AD2022FD407
:10313000009803032ED4009B58032DD400998903D3
:103140002CD4009AD2032BD4009803042AD4009BD9
:10315000580429D40099890428D4009A12F0080F41
:103160000CBF2A201A2022E02A2020E01C201EE08A
:1031700009201CE00A201AE00B2018E00C2016E0C1
:103180000D2014E00E2012E00F2010E011200EE0C0
:1031900012200CE013200AE0142008E0152006E0BD
:1031A000162004E0172002E0182000E019203EBDA0
:1031B000941700208C1700200080014008E0FFFDDC
:1031C00070B58CB005460E46134803F079FB134CDE
:1031D0002046002103F05AFB114B01930295102069
:1031E0000390B608049600210591802206924FF4C0
:1031F000007307934FF40060089009914FF4005258
:103200000A920B91204601A903F020FB20460121E0
:1032100003F03CFB0CB070BD00F000104404024011
:103220008080014070B58CB005460E46134803F00F
:1032300047FB134C2046002103F028FB114B019360
:10324000029500200390B60804960590802206920D
:103250004FF4007107914FF40063089309904FF405
:1032600000520A920B90204601A903F0EFFA204683
:10327000012103F00BFB0CB070BD00BF00F000108B
:10328000440402408080014038B50546394A536BFA
:1032900013F0450FFBD0590704D5042003F08EFC32
:1032A000032038BD13F0010404D0012003F086FC94
:1032B000012038BD03F044FCA84258D140F2FF5031
:1032C00003F07CFC204603F041FC2B49014000291F
:1032D00029D0002829DB420029D4830029D4C10049
:1032E00029D4020129D4430129D4C10129D40202DD
:1032F00029D443023BD4810227D4C20227D403033A
:1033000027D4410327D4820327D4C30327D401043D
:1033100027D4420427D4830427D410F0080F0CBF0D
:103320002A201A2038BD2A2038BD1C2038BD09208B
:1033300038BD0A2038BD0B2038BD0C2038BD0D200B
:1033400038BD0E2038BD0F2038BD112038BD1220E9
:1033500038BD132038BD142038BD152038BD1620C7
:1033600038BD172038BD182038BD192038BD1020B1
:1033700038BD00BF0080014008E0FFFD2DE9F347A4
:103380008046002003F0E2FB10F0007540F0DE8084
:1033900000950195704C4FF008094FF0100A84E831
:1033A00000064027A760E5604FF48066266120464E
:1033B00003F0B0FB5046FFF767FF2A2870D1674B38
:1033C000186800FA0AF121604FF0370AC4F804A027
:1033D000A760E5602661204603F09CFB5046FFF79E
:1033E00053FF2A285CD15E485E4A80E804023022FE
:1033F00082600223C36005610121416103F0B2FBD9
:1034000025604FF03309C4F80490A760E560266199
:10341000204603F07FFB4846FFF736FF2A283FD1BE
:10342000ADF104045048426B40F22A63134053B993
:103430004FF4001003F0B8FB0028F3D003F0A8FB12
:1034400044F8040FEEE7082003F0AEFB20B108209B
:1034500003F0B4FB04207CE0022003F0A5FB20B1C4
:10346000022003F0ABFB022073E0202003F09CFB62
:1034700020B1202003F0A2FB06206AE04FF4007088
:1034800003F092FB28B14FF4007003F097FB072084
:103490005FE040F2FF5003F091FB009D2DBA01E088
:1034A0002A2856D1B8F1010F26D16B0350D52A4CEA
:1034B0002A48026813042360372565604FF04008EE
:1034C000C4F808800027E7604FF480662661204634
:1034D00003F020FB2846FFF7D7FE2A2839D1022324
:1034E000062584E82800C4F80880E76026612046A5
:1034F00003F010FB284624E0E80329D5164C174EAC
:10350000376839042160372666604FF04008C4F8F8
:1035100008800025E5604FF480672761204603F0AE
:10352000F9FA3046FFF7B0FE2A2812D125600626A8
:103530006660C4F80880E5602761204603F0EAFA77
:10354000304602B0BDE8F047FFF79EBE0E2000E017
:10355000252002B0BDE8F087941700208C170020CA
:10356000C0160020FFFF0F00008001402DE9F84F3A
:103570006548B22303750024046044608460C4601D
:10358000046103F089FA032003F0A4FA012003F098
:103590009BFA5E48046044608460C4604FF48061BC
:1035A000016103F0B7FA4FF48034802003F0FCFA95
:1035B000002846D1013CF8D141E040F2FF5003F031
:1035C000FDFA204603F0C2FAC60F01374FF6FF712D
:1035D000002E40F08B808F4200F092804B4C266092
:1035E0004FF0370BC4F804B04FF0400AC4F808A0FD
:1035F000E6604FF48069C4F81090204603F08AFA20
:103600005846FFF741FE2A2878D148F0104343F48A
:103610008011216029206060C4F808A0E660C4F829
:103620001090204603F076FA394C626B12F0450F89
:10363000FBD012F00404C0D0042003F0BFFA03252D
:103640005FE040F2FF5003F0B9FA30484FF4D57113
:1036500008224023002480E81E004FF480620261AB
:1036600003F058FA2A48456B4FF4803615F0450FA1
:1036700004D136B1013E264D6D6BF7E70EB16907F7
:1036800014D5042003F09AFA20480024372580E856
:10369000300040218160C4604FF48062026103F019
:1036A00039FA2846FFF7F0FDA04609E06A0602D580
:1036B000402003F083FA0124164B1C604FF0804831
:1036C0001248002606603724446040258560C660A5
:1036D0004FF48063036103F01DFA2046FFF7D4FD29
:1036E00005462A280DD1374630466FE78F4207D06E
:1036F000430006D50220074A106002E0054600E0BC
:103700001B252846BDE8F88F70170020941700206D
:10371000008001405417002038B503F0E1F900287B
:1037200000F094804F4B1868042823D04E480025A1
:10373000056002224260C0218160C5604FF4806450
:10374000046103F0E7F9FFF771FC04462A2840F012
:103750008680284603F0FAF9444C2060042003F0E8
:10376000F5F96060082003F0F1F9A0600C2003F087
:10377000EDF9E0603B4B1868012803D9062801D019
:10378000022836D1384800210160032242604024DB
:103790008460C1604FF48063036103F0BBF9344976
:1037A000486B10F0450FFBD0420704D5042003F00E
:1037B00005FA032453E010F0010404D0012003F0C3
:1037C000FDF901244BE003F0BBF9032842D140F29C
:1037D000FF5003F0F3F9204603F0B8F910F4604FFE
:1037E00001D1020C06E0830436D4440432D4000430
:1037F00034D401221B4B1968042929D01D4D2A609D
:10380000194C1004206009226260C023A3600025C7
:10381000E5604FF480612161204603F07BF9FFF7FA
:1038200005FC04462A281AD1284603F08FF9124DC8
:103830002860042003F08AF96860082003F086F904
:10384000A8600C2003F082F9E86008E0252406E077
:103850002A2404E0102402E0132400E00F24204670
:1038600038BD00BF541700209417002058170020BF
:10387000008001408C170020D816002070B5A14BA5
:103880001D6880F85650A0490A68A0F854209F4C43
:103890002668330E99090170C3F38302427003F066
:1038A00003038370C6F30741C170C6F30722027198
:1038B000F6B246716368190E0A01C280C3F3074667
:1038C000C1888AB242EA1611C18006F00F0606725C
:1038D000C3F30722D1B2CE094672C2F380168672B4
:1038E000C2F34016C672C2F3001606730026467372
:1038F000012D3CD802F00306B10201610569DBB27B
:1039000045EA83020261A468260E016941EA961520
:103910000561C6F3C203037506F007024275C4F3DE
:10392000074671098175C6F38205C57506F0030364
:103930005A000276C4F30721047E44EAD1160676C3
:103940000669057E027A012303FA02F40465023552
:1039500003FA05F2D517A2FB042304FB0533013655
:10396000A2FB064506FB0355C0E9124522E0022DE5
:1039700020D103F03F052B040361A4680169220EE6
:1039800041EA022505610369C4F3074141EA0302E4
:103990000261C4F307210469012500232A1943F1B8
:1039A0000004E50445EA5233C364D20482644FF450
:1039B00000740465C1F38014447601F03F014A00AD
:1039C0008276524DAB68847EC3F3C01144EA010293
:1039D000827603F07F03C376ED682C0EE109017750
:1039E000C4F341124277C4F38203837704F00304E3
:1039F000A100C177C5F30742C37F43EA9214C4779D
:103A0000C2F3401180F82010002380F8213002F02A
:103A1000010280F82220C5F30724E10980F8231071
:103A2000C4F3801380F82430C4F3401280F82520BA
:103A3000C4F3001180F82610C4F3810380F8273006
:103A400004F0030480F82840C5F3460580F82950A7
:103A5000012180F82A102E4B1A68140E80F82C4091
:103A6000C2F307452C02C485C58DACB2C2F307254D
:103A70002C43C485120602635A68046B150E44EA8F
:103A800005440463046BC2F3074544EA0524046358
:103A9000046BC2F307252C430463D2B280F83420B0
:103AA0009A68150E80F83550C2F3074425068563E1
:103AB000846BC2F3072544EA05448463846BD2B265
:103AC00044EA02248463DB68826B42EA1364846301
:103AD000C3F3074290F83C4044EA121480F83C409B
:103AE00002F00F021402C487C28F92B2C3F30724FC
:103AF0002243C287C3F3460380F8403080F8411068
:103B00002A2070BD541700208C170020D8160020E2
:103B10005817002038B50546194B186803282BD0D4
:103B2000022827D8B5F5805F26D0B5F5006F0FD1F4
:103B30000120FFF723FC04462A281ED11148012347
:103B400003750021016041608160C56001610EE084
:103B50000020FFF713FC04462A280ED10948012152
:103B600001750022026042608260C260026102F060
:103B700093FF02E02A2400E02724204638BD00BF3E
:103B80005417002070170020022803D8024B186039
:103B90002A207047262070472800002010B5094BC6
:103BA000186007245C6040229A600020D8604FF4BF
:103BB00080611961184602F0ADFF2046BDE8104053
:103BC000FFF762BB9417002073B5B020012102F00B
:103BD000DFFC4FF4F853ADF8003003208DF80200FD
:103BE00018218DF803102B48694602F06BFB042264
:103BF000ADF800202848694602F064FB4FF40065E8
:103C0000ADF8005048238DF803302448694602F08F
:103C100059FB4FF48060012102F0AEFC022001212B
:103C200002F0AAFC02F026FFFFF7A0FC2A282FD101
:103C3000FFF772FD2A282BD11948012606750024AA
:103C4000046044608460C460046102F025FF312098
:103C50008DF804008DF805408DF806408DF807605A
:103C600001A802F0E5FA0F4E3046FFF707FE2A28BA
:103C70000ED1B6F8541008042146FFF78FFF2A280A
:103C800006D12846FFF746FF2A2804BF064A1460DB
:103C90007CBD00BF0010014000140140001C014029
:103CA00070170020E8160020280000202DE9F74FAB
:103CB00091461D46BDF83060804608B92624F4E0E0
:103CC0002A227B4B1A7000247A4804607A490C60DF
:103CD0007A487B4B80E818008460C46004614461CA
:103CE00002F040FF204602F00FFF204602F02EFFB8
:103CF000830100F1D980734C2268022A05D14FEA72
:103D0000592949EAC5594FF40076701E83B2B3F5BC
:103D1000006FD3D210EA0601D0D13746012F04D06C
:103D2000C7F34F074D1CE9B2F8E7674D2E6010242A
:103D30006C604FF0400BC5F808B04FF0000AC5F8B2
:103D40000CA04FF480622A612846019102F0E2FE45
:103D50002046FFF799FA04462A28019B40F0A580E7
:103D60005648574980E84200190181600224C46026
:103D7000C0F810A0476102F0F5FE4F480660534AB4
:103D8000C2F800A0524BC3F80080C5F8009011247F
:103D90006C60C5F808B0C5F80CA04FF480612961CB
:103DA000284602F0B7FE2046FFF76EFA04462A289E
:103DB0007BD148480268022A49D14546464E736B7A
:103DC00040F22A661E406EB94FF4004002F0ECFE4D
:103DD0000028F3D002F0DCFEA8510436202EF9D1E1
:103DE0002035EBE7082002F0DFFE20B1082002F0CA
:103DF000E5FE042459E0022002F0D6FE20B10220A4
:103E000002F0DCFE022450E0202002F0CDFE20B1C2
:103E1000202002F0D3FE062447E04FF4007002F0A9
:103E2000C3FE28B14FF4007002F0C8FE07243CE046
:103E30004FF4001002F0B8FE20B102F0A9FE45F8E0
:103E4000040BF5E740F2FF5002F0B8FE2DE0012A26
:103E50000CD148F22A30394602F04AFE154B196857
:103E6000134BD9B918782A28F8D017E0EAB940F2EC
:103E70002A30394602F03CFE384602F045FE404604
:103E80003146FFF7CFF9154802F00CFD084B28B971
:103E90000849086810B91A782A2AF4D01A782A2A08
:103EA00003D0034C247800E00E242046BDE8FE8FAA
:103EB000240000206817002090170020C016002062
:103EC000FFFF0F005417002094170020A8170020B0
:103ED0006C17002028000020008001400020001006
:103EE0002DE9F74F90461D46BDF830A0074608B9AA
:103EF000262422E12A22924B1A7000249148046061
:103F000091490C609148924B80E818008460C4602D
:103F10000461446102F026FE204602F0F5FD2046D1
:103F200002F014FE820100F105818A4C2268022A07
:103F300005D14FEA582848EAC5584FF4007A0AF1EB
:103F4000FF3083B2B3F5006FD2D210EA0A01CFD1AD
:103F50005646012E04D0C6F34F064D1CE9B2F8E7D1
:103F60007D4DC5F800A010246C604FF0400BC5F8E3
:103F700008B04FF00009C5F80C904FF480622A6138
:103F80002846019102F0C6FD2046FFF77DF9044660
:103F90002A28019A40F0D1800D98012840F2CD8066
:103FA00000FB0AFABAF1007FA2D2674BC3F800A067
:103FB0006A490E606A4807606448654980E80204FF
:103FC000120182600223C360C0F81090466102F0C3
:103FD000C9FDC5F800804FF01208C5F80480C5F887
:103FE00008B0C5F80C904FF480612961284602F0B2
:103FF00091FD4046FFF748F92A2840F09D80594836
:104000000268022A69D1584B596B40F22A340C409D
:104010006CB94FF4004002F0C7FD0028F3D002F065
:10402000B7FD38510434202CF9D12037EBE70820B4
:1040300002F0BAFD20B1082002F0C0FD04247CE0AB
:10404000022002F0B1FD20B1022002F0B7FD0224EF
:1040500073E0202002F0A8FD20B1202002F0AEFD88
:1040600006246AE04FF4007002F09EFD28B14FF480
:10407000007002F0A3FD07245FE04FF4001002F08F
:1040800093FD20B102F084FD47F8040BF5E74FF4EF
:10409000807002F089FD28B940F2FF5002F08EFDD9
:1040A0002A244AE02B4802681AB1022A01D0012AC8
:1040B000F2D1294800220C2480E8140040238360B8
:1040C000C2604FF48061016102F024FD2046FFF7D9
:1040D000DBF804462A2830D1DEE7012A0CD148F269
:1040E0002A30314602F004FD164B1968144BD9B939
:1040F00018782A28F8D017E0FAB940F22A30314669
:1041000002F0F6FC304602F0FFFC38465146FFF75D
:1041100089F8164802F0C6FB094B28B90949086816
:1041200010B91A782A2AF4D01A782A2A05D0044C11
:10413000247802E00E2400E004462046BDE8FE8F0D
:10414000240000206817002090170020C0160020CF
:10415000FFFF0F005417002094170020A81700201D
:104160006C17002028000020008001400020001073
:104170002DE9F04F85B017469846BDF83850002419
:104180008DF80F40064608B9262052E12A22AA4B94
:104190001A70AA480460AA490C60AA48AA4B80E891
:1041A00018008460C4600461446102F0DBFC2046B6
:1041B00002F0AAFC204602F0C9FC810100F1368120
:1041C000A24A1368022B04D17F0A47EAC8574FF46A
:1041D000007505F1FF381FFA88F0B0F5006FD3D2F3
:1041E00018EA0508D0D12C46012C06D0C4F34F04A0
:1041F00008F101085FFA88F8F6E7954C25604FF062
:10420000100AC4F804A04021A1604FF00009C4F8CE
:104210000C904FF4806BC4F810B02046019102F06E
:1042200079FC5046FFF730F82A28019B40F00181C5
:10423000884A106800FA0AF121604FF00D0AC4F8AC
:1042400004A0A360C4F80C90C4F810B0204602F09B
:1042500061FC5046FFF718F82A2840F0EA804846EB
:1042600002F074FC784C10F480791FD1002C00F01F
:10427000DF80013C7648774A1368190401604FF0EB
:104280000D0AC0F804A040228260C0F80C904FF4E0
:104290008063036102F03EFC5046FEF7F5FF2A28DA
:1042A00040F0C780484602F051FCDCE7002C00F0EB
:1042B000BF80674807601824446040278760002754
:1042C000C7604FF48063036102F024FC2046FEF7D0
:1042D000DBFF2A2840F0AD80594C25605E4A17600C
:1042E0005E4806605748584A80E824004FEA0811A3
:1042F0008160C76007610124446102F033FC584BC0
:104300001968022956D134463D46564E726B40F22A
:104310001A6616403EBB4FF4804002F045FC002870
:10432000F3D047480268531B1F2B13D813F0030F19
:104330004FEA930718BF01370026BE424FEA8601B5
:1043400005D054F8260002F029FC0136F5E76D1877
:104350006418DAE7A05902F021FC0436202EF9D1C6
:1043600020342035D1E7082002F01EFC20B10820BF
:1043700002F024FC04205CE0022002F015FC20B1D5
:10438000022002F01BFC022053E0102002F00CFC83
:1043900020B1102002F012FC05204AE04FF400701A
:1043A00002F002FC002831D04FF4007002F006FC4D
:1043B00007203EE001290BD144F21A3002F098FBAD
:1043C0001E490A681C49DAB908782A28F8D017E08B
:1043D000E1B940F21A30214602F08AFB3046294604
:1043E000FEF7EEFE204602F08FFB1F4802F05AFA5D
:1043F000114928B9114A106810B90B782A2BF4D04A
:104400000B782A2B02D00C49087812E040F2FF50BA
:1044100002F0D4FB0DF10F00FEF724FE2A2808D18C
:104420009DF80F30991F0129F4D902E00E2000E019
:10443000292005B0BDE8F08F240000206817002077
:1044400090170020C0160020FFFF0F005417002017
:10445000941700208C170020A81700208817002030
:104460002800002000800140002000102DE9F04FBE
:1044700085B092461F46BDF8384000268DF80B6087
:104480000396019008B92620A9E12A22AB4B1A70A5
:10449000AB480660AB490E60AB48AC4B80E84800C7
:1044A0008660C6600661466102F05CFB304602F041
:1044B0002BFB304602F04AFB800100F18F81A44AB9
:1044C0001368022B05D14FEA5A2A4AEAC75A4FF419
:1044D000007404F1FF391FFA89F0B0F5006FD2D2F1
:1044E00019EA0409CFD12546012D06D0C5F34F05A1
:1044F00009F101095FFA89F9F6E7964D2C604FF052
:10450000100BC5F804B04FF04008C5F8088000272C
:10451000EF604FF480662E61284602F0FBFA5846A1
:10452000FEF7B2FE2A2840F05A81DFF83CB2DBF8F1
:1045300000100A042A600D236B60C5F80880EF6044
:104540002E612846009302F0E5FA0098FEF79CFEE3
:104550002A2840F044810F99012940F225814C43DB
:10456000B4F1007F8FD27A4A1368022B14D97948AC
:10457000C0F800A019274760402686600026C66064
:104580004FF48063036102F0C5FA3846FEF77CFE03
:104590002A2840F0248128E0DBF80000010429608B
:1045A0004FF0370BC5F804B0C5F80880EF602E61F6
:1045B000284602F0AFFA5846FEF766FE2A2840F079
:1045C0000E810F9A2A604FF0170BC5F804B0C5F89A
:1045D0000880EF602E61284602F09CFA5846FEF7EC
:1045E00053FE2A2840F0FB80C1E7564F3C6001276C
:1045F000594807605949019A0A605348534A80E86C
:1046000014004FEA09138360C6600661476102F037
:10461000A9FA53480168022940F08180019D514C5C
:10462000626B40F21A341440002C35D14FF48040B4
:1046300002F0BAFA0028F2D042490A68901B1F28FB
:1046400011D903940399072908D8039A55F8220031
:1046500002F0A4FA039C601C0390F3E705F1200428
:1046600006F1200115E010F0030F4FEA900718BF84
:104670000137002403942C46731BE118039ABA42B5
:1046800007D254F8040B02F089FA0398431C0393F1
:10469000F2E725460E46C2E7082002F085FA20B16F
:1046A000082002F08BFA042099E0022002F07CFA44
:1046B00020B1022002F082FA022090E0102002F0E5
:1046C00073FA20B1102002F079FA052087E04FF448
:1046D000007002F069FA044628B14FF4007002F04D
:1046E0006DFA07207BE04FF4807002F05DFA00283D
:1046F0005AD0174B1868022856D8164804600C2563
:10470000456040218160C4604FF48062026102F024
:1047100001FA2846FEF7B8FD2A2860D144E00129B5
:1047200024D144F21A3002F0E3F905490A6803493A
:10473000002A33D10B782A2BF7D02FE02400002059
:104740006817002090170020C0160020FFFF0F0000
:104750005417002094170020A81700208817002065
:1047600028000020008001408C170020E1B940F2B1
:104770001A30394602F0BCF9384602F0C5F9019802
:104780002146FEF71DFD174802F08CF8164928B99E
:10479000164A136813B908782A28F4D008782A280A
:1047A00002D0114908781AE040F2FF5002F006FAF0
:1047B0000023039303984FF6FE73984207D803989B
:1047C000431CF6E79DF80B108A1F012A07D80DF14C
:1047D0000B00FEF747FC2A28F4D000E00E2005B0BD
:1047E000BDE8F08F00200010240000206817002092
:1047F00010B5094800220C2480E814004021816093
:10480000C2604FF48062026102F084F92046BDE884
:104810001040FEF739BD00BF941700202DE9F84382
:104820000646002002F092F910F0007740F09B80DD
:104830004F4C4FF04008C4F8008010256560C4F864
:104840000880E7604FF48069C4F81090204602F0B9
:1048500061F92846FEF718FD05462A2840F08480B5
:10486000444B18680104216037256560C4F808804E
:10487000E760C4F81090204602F04CF92846FEF795
:1048800003FD05462A286FD13B483C4B80E80801D0
:10489000602282600223C36007610121416102F04E
:1048A00061F927600D256560C4F80880E760C4F8E9
:1048B0001090204602F02EF92846FEF7E5FC05464A
:1048C0002A2851D12E4C606B40F22A6404406CB906
:1048D0004FF4004002F068F90028F3D002F058F9D4
:1048E00030510434202CF9D12036EBE7082002F0B7
:1048F0005BF920B1082002F061F9042534E00220C0
:1049000002F052F920B1022002F058F902252BE002
:10491000202002F049F920B1202002F04FF90625AD
:1049200022E04FF4007002F03FF928B14FF400701C
:1049300002F044F9072517E04FF4001002F034F9B3
:1049400020B102F025F946F8040BF5E740F2FF50DC
:1049500002F034F9A6F140031A6811BA43F8041BB7
:10496000B342F9D100E00E252846BDE8F88300BF28
:10497000941700208C170020C0160020FFFF0F00A6
:104980000080014070B5724B1868012847D14FF480
:10499000004002F019F9044648B100246D4D2E681C
:1049A00002F0F6F830510434202CF7D130E04FF407
:1049B000804002F009F9002831D067490B68674A46
:1049C0001068191A1F291BD81668981B12688107CE
:1049D00002D19C1AA60802E0991A8B085E1C0024DA
:1049E000B4421CD05E4D2868006802F0D7F801344C
:1049F0002A68111D2960594B1868021D1A60EFE7DB
:104A0000574D2B68185902F0C9F80434202CF7D1FF
:104A1000296820312960514B1868203018604FF404
:104A2000807002F0D1F80446002837D0484C236843
:104A3000CBB94C4B1C68012C4B4C1BD1FFF7D8FE5B
:104A4000207019E0454C2068434A11688842F0D232
:104A5000404D2E6802F09CF830602968081D2860DF
:104A600023681A1D22604FF4001002F09DF8002800
:104A7000E8D1DEE72A2020704FF4807002F0AEF813
:104A80004CF23A30002102F033F8012237490A6033
:104A90000020324B1860344A107870BD022002F0BA
:104AA00093F8054658B1022002F098F84CF23A30DB
:104AB000214602F01DF8294A1460022043E0082034
:104AC00002F082F8044658B1082002F087F84CF250
:104AD0003A30294602F00CF820480560042032E004
:104AE000202002F071F8054658B1202002F076F837
:104AF0004CF23A30214601F0FBFF184B1C600620B7
:104B000021E0102002F060F8044658B1102002F0B5
:104B100065F84CF23A30294601F0EAFF0F490D6082
:104B2000052010E04FF4007002F04EF870B14FF421
:104B3000007002F053F84CF23A30214601F0D8FFF1
:104B4000064A146007200849087070BD2A2070BD0D
:104B5000280000206C17002090170020401700202C
:104B600088170020A81700202400002068170020C4
:104B7000FFF708BF38B504461E4D2846FFF74EFE26
:104B80002A2835D12B78990921702A78C2F340134D
:104B90006370A9780A026280638899B2EA78114347
:104BA00061802B791906616063686A7943EA024182
:104BB00061606368AA7943EA022161606368EA7907
:104BC00042EA030161602B7A23726A7A6272A97ADF
:104BD0000B09A372EA7A1102A181A38999B22A7BF7
:104BE0001143A1816B7B9908A17303F00302E27367
:104BF00038BD00BF4417002008B540B9FEF7E4FFF8
:104C0000044B187018782A3818BF012008BD0120FD
:104C100008BD00BF2C00002008B548B90548FEF7C4
:104C20002DFE054B187018782A3818BF012008BDD2
:104C3000012008BDE81600202C00002013B51C46FA
:104C4000A0B9012B4FEAD2534FEA42224FF4007031
:104C5000009003D10846FFF729F803E001940846C5
:104C6000FFF73EF92A3818BF012000E004201CBDE0
:104C700013B51C46A0B9012B4FEAD2534FEA42228A
:104C80004FF40070009003D10846FFF771FA03E07B
:104C900001940846FFF7EAFB2A3818BF012000E01C
:104CA00004201CBD10B51446002832D101390D294D
:104CB00031D8DFE801F00B071230303030303015DA
:104CC0001A1D21254FF40070108024E01349CA6C8E
:104CD0008B6C580A40EAC25010E0104B186D0DE082
:104CE0000E4A92F85610217015E010460B4901E06B
:104CF00010460B49102209E0084B187D20600AE09D
:104D00000848FFF737FF20460649402203F0B6FA6D
:104D100001E0042010BD002010BD00BFE8160020F7
:104D200014170020AC170020F0B58BB007460E4ECC
:104D30006846FBF7B2FE34466D460FCD0FC40FCD6B
:104D40000FC42B6823603068F8717168B971B2685C
:104D50007A71F368FB703069411CB97072693A80EE
:104D600001200BB0F0BD00BFD407002008B5012022
:104D7000FBF714FD064B01221A600020186005495C
:104D800008604FF4E05204490A801A6008BD00BF71
:104D9000405C0040445C0040601B002008B5024BB2
:104DA0001868804708BD00BFC017002038B5194BF0
:104DB000196888B2184A10801488184D2988214033
:104DC00001F4007082B24AB14FF6FF541C60144BDC
:104DD0001D78691CC8B2187000F068F80E4A148873
:104DE0000E4B1D88254005F4004188B215461C462F
:104DF00008B102F027FC2A882388134003F480615D
:104E000088B230B14FF6FF32024B1A60054948684C
:104E1000804738BD445C0040C6170020601B00205E
:104E2000C41700208C00002038B5104B1A6890B2CF
:104E30000F4C208025880F4B1988294001F400422F
:104E400090B225461C4608B102F0FCFB2988238855
:104E50000B4003F4806290B230B14FF6FF31034B48
:104E60001960054A5068804738BD00BF445C004067
:104E7000C6170020601B00208C00002008B5024BE4
:104E80001868804708BD00BFCC17002008B5024B4A
:104E90001868804708BD00BFD017002008B5024B36
:104EA0001868804708BD00BFC817002008B5024B2E
:104EB0001868804708BD00BFD417002008B5024B12
:104EC0001868804708BD00BF1C18002008B5024BB9
:104ED0001868804708BD00BFE017002008B5024BE6
:104EE0001868804708BD00BF1018002008B5024BA5
:104EF0001868804708BD00BF2018002008B5024B85
:104F00001968884708BD00BFFC17002008B5024B90
:104F10001968884708BD00BFE817002008B5024B94
:104F20001A68904708BD00BFD817002008B5024B8B
:104F30001968884708BD00BFF017002008B5024B6C
:104F40001968884708BD00BFF417002008B5024B58
:104F50001968884708BD00BFF817002008B5024B44
:104F60001868804708BD00BFEC17002008B5024B49
:104F70001868804708BD00BF0C18002008B5024B18
:104F80001868804708BD00BFDC17002008B5024B39
:104F90001868804708BD00BF1818002008B5024BEC
:104FA0001868804708BD00BFE417002008B5024B11
:104FB0001868804708BD00BF0818002008B5024BDC
:104FC0001868804708BD00BF1418002008B5024BC0
:104FD0001868804708BD00BF0418002008B5024BC0
:104FE0001868804708BD00BF04180020034B987A5A
:104FF00010B1052202490A60704700BF381B00202B
:10500000BC1700200422014B1A607047BC17002017
:105010007047000010B5212808D11148036819789D
:1050200001F07F02212A11D0022010BD2028FBD1DF
:105030000B4B19680A7802F07F030A49212B0CBF39
:105040000B460023084A10700BB9EDE7074B044CE0
:10505000206883610024448220469847204610BD82
:10506000581B0020BD50000824180020A55000083F
:10507000074B19680A7802F07F03212B05D102281B
:1050800001D1002070472228FBD00220704700BFCA
:10509000581B002009B1022070470128FBD80846A0
:1050A0007047000020B9034B196808220A82704734
:1050B00001487047581B00200801002020B9034B0D
:1050C000196808220A82704701487047581B00205F
:1050D00008010020054B1968CA78042A04D8044B3B
:1050E00003EBC20102F02CB800207047581B0020CF
:1050F000E0000020014902F023B800BF00010020B9
:10510000014902F01DB800BFD800002010B5044CC2
:105110002378202B03D1FBF7DFFF0020207010BD88
:105120002418002010B53B4B1868002484723A4ABA
:10513000D1794172C472204602F0B0FB20464FF490
:10514000007102F0BBFB2046102102F0C3FB204699
:10515000402102F07DFC2046802102F069FC2046BF
:1051600002F014FC20462D4B93F82C1002F0AAFC00
:10517000204602F0FAFB0120214602F09FFB0120AD
:10518000C02102F055FC0120202102F0A3FB0120E8
:10519000214602F0BCFB02204FF4C06102F08EFBFE
:1051A00002204FF4807102F043FC0220214602F0FD
:1051B000AEFB0220202102F08DFB0320214602F0ED
:1051C0007DFB032002F0F1FB03204FF488714FF4C4
:1051D000B07202F095FC03200121402202F0ACFCE9
:1051E000032002F000FC032002F00FFC032002F079
:1051F000EBFB03204FF4405102F089FB03202146D2
:1052000002F068FB204602F0AFF90120044A10606A
:1052100010BD00BF581B0020719D00088C000020AD
:10522000BC17002010B5094800F11001FBF7C2FAC5
:10523000074B186800248472FFF798FD02F014FDF4
:10524000FBF706FF03490C6010BD00BFC000002043
:10525000581B0020BC17002004221B4B1A701B484F
:105260001B4908601B4A1C4B1A601C481C490860FB
:105270001C4A1D4B1A601D481D4908601D4A1E4BE3
:105280001A601E481E4908601E4A1F4B1A601F48BC
:105290001F4908601F4A204B1A60204820490860B7
:1052A000204B214A136021490860214B1860214A94
:1052B000106021490860214B1860214A1060214884
:1052C00021490860704700BFBC000020255200083B
:1052D0001C18002025510008E01700200D5100087F
:1052E0001018002011500008201800201550000848
:1052F000FC17002071500008E817002095500008A6
:10530000D817002001510008F0170020F5500008C0
:10531000F4170020D5500008F8170020097600087F
:10532000EC170020ED4F00080C180020DC170020BF
:1053300018180020E4170020081800201418002076
:1053400004180020055000080018002038B529482E
:10535000017801294CD1284A13681BB90370274BE7
:1053600019701CE0402B264C206881B205D94030D2
:105370002060403B1360402504E09DB2C3182360C9
:10538000002010601F4A5018C0212A4602F05CFA23
:105390000120294602F088FB012002F0D5FA1A49C3
:1053A0000868002824D0154A1378012B20D1124A0E
:1053B0001468402C124B186881B205D9403018602F
:1053C000403C1460402504E0A5B204191C60002391
:1053D00013600C4A5018C0212A4602F035FA012009
:1053E000294602F061FB0120BDE8384002F0ACBA6A
:1053F00038BD00BF6914002074140020680C002020
:1054000070140020690C00206C14002010B50320DB
:1054100002F04CFA00F0400081B259B103200121A2
:1054200002F0FCFB032002F0D9FB04460D484FF4C8
:1054300088710AE00320012102F0F0FB032002F052
:10544000DDFB044607484FF4B071224602F013FA20
:105450000448E1B2FBF7BAFE0320BDE8104002F0B9
:1054600084BA00BF25180020074B1868052809D109
:10547000064B1A68511C1960052A03D100201860D8
:10548000FBF7BABE704700BFBC17002068180020A9
:1054900010B5044628B9FEF797FB034B1870204659
:1054A00010BD012010BD00BF2C00002013B51C460C
:1054B000034658B9009410460A46FEF759FE044BBD
:1054C000187018782A3818BF012000E001201CBD90
:1054D0002C00002013B51C46034658B90094104612
:1054E0000A46FEF7E3FB044B187018782A3818BFF9
:1054F000012000E001201CBD2C00002038B505462D
:1055000008B1012038BDFEF75FFB2A28F9D1294CEC
:105510002046FEF7B3F9B4F8540000042946FEF71C
:105520003DFB237E94F85620022A23490DD124699D
:10553000651C4FF0FF324FF0FF334FF40020E0FBCB
:105540000523520A42EAC3540FE0257A2469601CFD
:10555000023300FA03F4012202FA05F54FF4007059
:1055600095FBF0F35A0804FA02F40C60134D4FF463
:10557000007129600F4BB3F8544020040021FEF75E
:105580000DFB0F4C20704FF40060FEF7C3FA207043
:1055900020782A28B5D10020FEF7F6FA207022786C
:1055A0002A2AAED12968044B18684843054A10607E
:1055B000002038BDE81600207C1800206C18002060
:1055C0002C0000207418002070B50546324B187866
:1055D00050B9324C54F825004143314C21605043BE
:1055E0003049086001221A702B4B187801283ED1EF
:1055F0002D4C2168A9B9294E2846294A11682B4A01
:1056000036F82530FFF766FF81202849402202F056
:105610003BFB56F82530403B23604020244908607E
:105620000DE0234D2A688120204B9918402202F07A
:105630002BFB206840382060296840312960012018
:10564000402102F031FA0120302102F043F9144BDD
:105650001A6840321A601348016840390160154BDE
:105660009A68403A9A601448012100F07DFE0D4886
:10567000036883B90C490B600D4A13600848036046
:1056800003210E4A1170044803700B480121BDE844
:10569000704000F06BBE70BDA41A00206C18002092
:1056A0009C1A0020981A00208C18002094180020C2
:1056B00088180020201B002000180140D41A002068
:1056C00070B5334B1D68334B1C7854B9324C54F8C9
:1056D00020406143314E3160544331490C60012216
:1056E0001A702C4B197801293BD100232D4C2360D3
:1056F000274A146805F140018C4209D211682A4EEC
:105700009E5D2A4C6654013311684C1C1460EFE70F
:10571000244D2B60264B1C88204D29686118296078
:105720001F4B1D682C1B1C601B4B53F82030B4FB17
:10573000F3F503FB15442CB91460C91A1B4A9BB23C
:10574000FFF7B4FE1B481A4A118883685A1A826010
:1057500002204FF4405102F0DAF81748012100F01E
:1057600003FE0F48016819B1144B1A78042A0ED1B0
:105770000024074804602046012100F0F9F905499A
:105780000C700D480121BDE8704000F0EFBD70BD08
:1057900090180020A41A00206C180020A01A0020E5
:1057A00084180020941A0020DC1A0020941800208D
:1057B000B21A0020201B002000180140D41A00203B
:1057C000064B1A7CD20705D4D97C242928BF242172
:1057D000034801E00521034800F0B0B9B41A0020E5
:1057E0003A010020AD1A002010B50446FFF786FEEE
:1057F00068B11348022383703A22027301200146E4
:1058000000F0B6F90020BDE8104000F0E5BA0D4BFD
:1058100053F824100C480A0E02710B0C43710A0A4B
:105820008271C171094951F824301A0C4272190A67
:105830008172C3720C21BDE8104000F07FB900BF37
:10584000180100207C1800202E0100206C18002078
:1058500010B50446FFF752FE68B114480223837066
:105860003A2101730120014600F082F90020BDE8D1
:10587000104000F0B1BA0E4B53F82400411E0D4801
:105880000A0E02700B0C43700A0A8270C1700A493A
:1058900051F824301A0E0271190C41711A0A8271E2
:1058A000C3710821BDE8104000F048B9180100207C
:1058B0007C180020A51A00206C1800200148042143
:1058C00000F03CB92A0100200148082100F036B957
:1058D00010010020034BD97C0348122928BF122154
:1058E00000F02CB9B41A002018010020014B997067
:1058F0001A737047180100200020012100F038B908
:1059000008B50C4B9A6832B9187C00F00401C8B293
:1059100008B9012109E0022000F05EFA064B0522D9
:105920009A702420187301200021BDE8084000F07F
:105930001FB900BFB41A00201801002008B5FFF7F6
:10594000DDFD68B1094B02229A703A2018730120DC
:10595000014600F00DF90020BDE8084000F03CBA17
:105960000121BDE8084000F003B900BF1801002084
:1059700008B5FFF7C3FD68B1074B02229A703A20C1
:1059800018730120014600F0F3F80020BDE808403C
:1059900000F022BA08BD00BF1801002008B50B4B6B
:1059A0009A680AB9002004E093F90C000028F9DB9A
:1059B000022000F011FA064905238B7020220A7399
:1059C00001200021BDE8084000F0D2B8B41A002040
:1059D0001801002010B59A18164C54F82040A24225
:1059E0000CD92A2902D1022000F0F6F9002000F09B
:1059F000F3F9114B05209870212212E00F4A52F85A
:105A0000200043430E4A9068984211D02A2901D1C0
:105A1000022000E0002000F0DFF9074B052199701B
:105A200024221A730120002100F0A2F8002010BDEA
:105A3000012010BD7C180020180100206C180020E7
:105A4000B41A0020F8B50F461346174D2C78002CD9
:105A500022D1164E707B2A213A46FFF7BBFF002861
:105A600020D096F90C30002B08DB01232B7002208C
:105A70004FF44051BDE8F84001F049BF204600F026
:105A8000ABF90B48052282702421017301202146C5
:105A9000BDE8F84000F06CB8012C03D1BDE8F84037
:105AA000FFF70EBEF8BD00BFD41A0020B41A0020C4
:105AB000180100202DE9F04180460D461446164E8F
:105AC000337803BB154F787B28212A462346FFF7FE
:105AD00081FF00281DD097F90C00002805DA02206C
