:020000040800F2
:1000000000000120AD870008A1050008A305000835
:10001000A5050008A7050008A905000800000000C4
:10002000000000000000000000000000AB05000818
:10003000AD05000800000000AF050008B10500088C
:10004000F1870008F1870008F1870008E70500083C
:10005000F1870008F1870008F1870008F1870008A0
:10006000F1870008F1870008F1870008F187000890
:10007000F1870008F1870008F1870008F187000880
:10008000F1870008F1870008F1870008DF05000804
:10009000E3050008F1870008F1870008F1870008F0
:1000A000F1870008F1870008F1870008F187000850
:1000B000F1870008F1870008F1870008F187000840
:1000C000F1870008F1870008F1870008F187000830
:1000D000F1870008F18700086D190008F187000812
:1000E000F1870008F1870008F1870008F187000810
:1000F000F1870008F1870008F1870008F187000800
:10010000F1870008D54B0008F1870008F187000847
:10011000F1870008F1870008F1870008F1870008DF
:10012000F1870008F1870008F1870008F1870008CF
:1001300000000000000000000000000000000000BF
:1001400000000000000000000000000000000000AF
:10015000000000000000000000000000000000009F
:10016000000000000000000000000000000000008F
:10017000000000000000000000000000000000007F
:10018000000000000000000000000000000000006F
:10019000000000000000000000000000000000005F
:1001A000000000000000000000000000000000004F
:1001B000000000000000000000000000000000003F
:1001C000000000000000000000000000000000002F
:1001D000000000000000000000000000000000001F
:1001E0005FF8E0F12DE9F74F00230093019300F051
:1001F0009DFA4FF47A7000F07AF9019B022B1DDC16
:100200004FF47A7000F0BFF94FF4C050C4F201000F
:10021000202106F047FB04464FF4C050C4F2010011
:10022000402106F03FFB204310F0FF0F02D10123D5
:10023000009303E0019B01330193DEE707F090F8A0
:10024000009B40F23065C2F2000541F2A03BC2F2D1
:10025000000B41F21C7AC2F2000A47F65144C0F684
:10026000000441F21879C2F2000941F22078C2F28A
:10027000000841F22477C2F2000741F20876C2F288
:1002800000064BB140F6B163C0F600032B6041F6A7
:10029000B903C0F6000368E04FF4C050C4F2010097
:1002A000402106F0FFFA58B340F23463C2F2000373
:1002B00002221A6041F2CD53C0F600032B6041F2D6
:1002C0009353C0F60003CBF8003045F2D363C0F679
:1002D0000003CAF80030C9F8004045F2BB73C0F60D
:1002E0000003C8F8003045F62103C0F600033B6068
:1002F00045F20F03C0F60003336005F050F93EE00D
:100300004FF4C050C4F20100202106F0CBFA41F6B0
:10031000B903C0F6000318B340F23462C2F200021F
:100320000121116041F27162C0F600022A60CBF82F
:10033000003046F23F03C0F60003CAF8003046F230
:10034000B723C0F60003C9F80030C8F800403C608D
:1003500045F29313C0F60003336006F061F90EE036
:1003600040F6B162C0F600022A60CBF80030CAF84D
:100370000040C9F80040C8F800403C6034602B6879
:100380009847FCE782B04FF48053C4F202031A6826
:1003900042F001021A6059680022CFF6FF020A40BB
:1003A0005A601A6822F0847222F480321A601A6845
:1003B00022F480221A605A6822F4FE025A604FF436
:1003C0001F029A600022009201921A6842F4803261
:1003D0001A601A6802F400320192009A0132009207
:1003E000019A1AB9009AB2F5A06FF2D11A6812F404
:1003F000003218BF01220192019A012A08D04FF45D
:100400006D43CEF200034FF000629A6002B0704775
:100410004FF40052C4F20202116841F01001116061
:10042000116821F003011160116811605A685A6067
:100430005A685A605A685A605A6822F47C125A60A4
:100440005A6842F430225A601A6842F080721A6088
:100450001A689201FCD55A6822F003025A605A6861
:1004600042F002025A605A6802F00C02082AFAD1DD
:10047000C5E74FF48052C4F20202516801F00C014A
:10048000042940F21003C2F2000306D0082909D063
:100490004FF49051C0F27A011CE04FF4D851C0F2F1
:1004A000B70117E051685068C1F383410231C003BE
:1004B00004D44FF41060C0F23D000AE0506880039D
:1004C00047BF48F68050C0F25B004FF4D850C0F2EE
:1004D000B700414319605268C2F3031240F20001B1
:1004E000C2F20001895C1A68CA401A60704730B5D0
:1004F00087B00190042006F080F9019A40F21004C0
:10050000C2F200042368B3FBF2F3013BB3F1807F36
:1005100038D24EF21002CEF2000253604FF46D4317
:10052000CEF20003F02183F8231000259560072305
:1005300013600820012106F0E6FA03A806F0DDFCAE
:10054000236844F24022C0F20F02B3FBF2F3013BF6
:10055000ADF80C304FF6FF73ADF81030ADF8125017
:10056000ADF80E504FF44060C4F2000003A906F04D
:1005700064FC4FF44060C4F20000012106F0C6FCA8
:1005800007B030BDFEE782B00190019A40F23863B7
:10059000C2F200031A601A68002AFCD102B0704748
:1005A0007047FEE7FEE7FEE7FEE7704770477047DB
:1005B00008B540F23863C2F200031A6812B11A6833
:1005C000013A1A6000F07EF940F23463C2F200038F
:1005D0001B681BB9BDE8084000F041BC08BD07F02E
:1005E0001BBC04F00BBD704730B50024E3B293424E
:1005F0000DD2030F092B94BF3033373301F8143079
:10060000000101EB440300255D700134EEE730BDCD
:10061000F7B57D20012106F06AFA4FF6FF73ADF8B9
:10062000043003268DF8066000278DF807704FF41C
:100630000060C4F2010001A906F0ECF84FF4406537
:10064000C4F20105284601A906F0E4F84FF48050F1
:10065000C4F2010001A906F0DDF84FF4A050C4F285
:10066000010001A906F0D6F84FF4C054C4F2010409
:10067000204601A906F0CEF87D20394606F037FA6B
:100680004820012106F033FAADF804608DF80660C9
:1006900010238DF80730204601A906F0BBF84FF46F
:1006A0008076ADF80460284601A906F0B3F8284624
:1006B000314606F0FFF82046012106F0FBF82046FF
:1006C000022106F0F7F803B0F0BD13B54020012178
:1006D00006F00DFA7823ADF8043003248DF80640B7
:1006E00028238DF807304FF4C050C4F2010001A94F
:1006F00006F090F80420012106F0F9F94FF4807318
:10070000ADF804308DF8064004238DF807304FF41F
:100710000060C4F201000DEB030106F07BF802B0AB
:1007200010BD4FF00060002106F05CB808B5FFF77F
:10073000A0FEFFF7F6FFFFF76BFFFFF7C6FF00F025
:1007400041F900F080FABDE8084000F061B97FB5DA
:10075000002006F037F9002006F02FF94FF4803022
:100760004FF4801106F01EF9012006F026F9392019
:1007700006F0DBF90028FAD04FF40053C4F202036C
:100780001A6842F010021A601A6822F003021A6016
:100790001A6842F002021A60022006F013F906F00D
:1007A0001BF90828FBD101A806F042F907B05DF853
:1007B00004FB07B52020012106F099F90823ADF8C4
:1007C000043003238DF8063014238DF807304FF4DE
:1007D000A050C4F2010001A906F01CF803B05DF8B6
:1007E00004FB08B5002006F0FFF84FF400000121DB
:1007F000BDE8084006F087B930B14FF4A050C4F20C
:100800000100082106F056B84FF4A050C4F20100D0
:10081000082106F04DB841F68823C2F200039A7A07
:1008200041F2E063C2F200030AB1052200E00122B6
:100830001A60704738B502460C464FF2E873C1F6AD
:10084000FF7318684FF2EC73C1F6FF731D684FF227
:10085000F073C1F6FF731B6818180AD011460822FE
:10086000FFF7C2FE284621460422BDE83840FFF7C4
:10087000BBBE38BD0022134640F29061C2F20001B7
:1008800031F812100B449BB20532322AF4D10A22FD
:10089000B3FBF2F3C3F30B0340F6C6225343C3F397
:1008A0000F335B009BB240F24C62C2F20002B2F91D
:1008B0000010481C1CBF491001EB53031380B2F910
:1008C0000000704738B54FF40060C4F201004FF4E7
:1008D000807105F0E7FF012840F24463C2F2000393
:1008E00015D11A6801321A6040F6B8339A4210D90D
:1008F00006F02EFD00F0CCFA4FF48050C4F2010057
:100900004FF4005105F0D4FF06F022FDFCE7002271
:100910001A6040F21804C2F20004256845B1FFF7DE
:10092000A9FF40F24863C2F200031860013D256050
:1009300040F24063C2F200031A680132B2F57A7FD6
:100940003BD900221A6040F24865C2F200052868CF
:1009500000EB4004FFF78EFF20448008286040F63B
:10096000B833984240F23C63C2F2000324D9B0F598
:10097000616F40F21402C2F2000206D2022111603D
:1009800040F62E52904203D916E00121116013E087
:100990001A6801321A600C2A10D906F0D9FC00F04E
:1009A00077FA4FF48050C4F201004FF4005105F083
:1009B0007FFF06F0CDFCFCE700221A60BDE838405E
:1009C00006F0C6BC07B51020012106F090F84FF4E0
:1009D0000053ADF8043001238DF8063010238DF854
:1009E00007304FF48050C4F2010001A905F012FF56
:1009F00045F2555006F09AFC032006F09DFC40F2AB
:100A0000E24006F09FFC06F0A3FC03B05DF804FB97
:100A100070B54FF40470012106F069F80120014619
:100A200006F059F840F2F461C2F2000103268E701C
:100A30000F230B800025CD704FF48050C4F20100CD
:100A400005F0E8FE4FF40070012106F050F8082090
:100A5000C4F2020006F026F940F26461C2F200011D
:100A600042F24C43C4F201030B6040F29063C2F2C5
:100A700000034B608D603223CB600D6180234B619E
:100A80004FF480738B614FF48063CB6120230B6242
:100A90004D628D620820C4F2020006F08FF9082032
:100AA000C4F20200012106F0A7F940F25061C2F23F
:100AB00000010D6001240C714C714FF460238B60B8
:100AC000CD6005250D744FF41050C4F2010006F0FE
:100AD00040F8204606F0D9F84FF41050C4F2010057
:100AE00009212246072306F085F84FF41050C4F27E
:100AF0000100102102222B4606F07CF84FF4105022
:100B0000C4F201000A213246072306F073F84FF4BD
:100B10001050C4F201000C210422072306F06AF8E9
:100B20004FF41050C4F201000D212A46072306F0AD
:100B300061F84FF41050C4F20100214606F09CF811
:100B40004FF41050C4F20100214606F026F820466A
:100B500006F09BF84FF41050C4F2010006F02FF895
:100B60004FF41050C4F2010006F02EF80028F7D11F
:100B70004FF41050C4F2010006F02AF84FF4105060
:100B8000C4F2010006F029F80028F7D14FF4105004
:100B9000C4F20100012106F009F84FF41050C4F22C
:100BA00001000121BDE8704006F01BB873B5064690
:100BB00002A840F8041D07F01DFE436903F26C73A0
:100BC0004361354604460FCC0FC50FCC0FC52368D3
:100BD0002B60304602B070BD10B5044606F0C4F973
:100BE00001462046FFF7E2FF204610BD10B504463F
:100BF000012006F096FB06F0EBF9204606F0C7F957
:100C000006F0E6F90020BDE8104006F08ABB84B08B
:100C100030B58BB00EAC84E80F0001AC0EAD0FCD3B
:100C20000FC40FCD0FC42B682360069BA3F26C7317
:100C3000069301A808F08AF8FFF7D8FF0BB0BDE8CB
:100C4000304004B0704770B586B0142006F059FBF0
:100C50004AF2A554A0424FF0C0504FF0010152D0CB
:100C600005F051FF012006F05CFB1420214606F040
:100C700039FB06F02EFB012005F0BBFE412005F0FC
:100C800054FF0028FAD04FF4807005F0C3FE012015
:100C900005F0C8FE06F09CF90120014606F042F975
:100CA00006F096F947F6FF7006F081F906F090F924
:100CB00040F2F864C2F2000440F2D9736361062383
:100CC00023610F23E3601723A3602D236360254670
:100CD00045F8103B6E460FCD0FC62B68336094E885
:100CE0000F00FFF794FF06F073F9012006F019FBDF
:100CF00014204AF2A55106F0F5FA002006B0BDE82E
:100D0000704006F00EBB05F0FEFE06F069F901200A
:100D1000014606F007F906B0BDE8704006F058B984
:100D200010B5002441F2C453C2F200031B68984777
:100D300082B2002AF6D00CB9242AF2D1631C9BB2ED
:100D400040F25071C2F2000108550A2A04D0B3F5EE
:100D5000007FE6D21C46E5E7D8B210BD0278303AF3
:100D6000D2B2092A0AD84378303BDBB2092B05D826
:100D700002EB820003EB4000C0B2704700207047D6
:100D800040F24F72C2F2000210F8013B1BB112F8A0
:100D9000011F9942F8D01846704740F25073C2F2D2
:100DA000000340B113F8012B202A06D92C2AF9D1CF
:100DB0000138C0B2F5E7184670470020704700B50B
:100DC000A1B002460B4691F90010684631B949F2CC
:100DD0001741C0F6000100F000FF05E049F21441A0
:100DE000C0F6000100F0F9FE9DF90030242B0BD174
:100DF00000231A460DEB030149782A2905D0013357
:100E0000802B02D04A40F5E7002249F21B40C0F691
:100E10000000694600F0D4FE00F0C2FD0028FBD0BF
:100E200021B05DF804FB10B540F24474C2F2000436
:100E3000204603F0C4FFE078A3785B0543EA004353
:100E4000607943EAC023A07943EA4013E07943EA9A
:100E500050032088A0F2BC7043EA406010BD10B57A
:100E600040F24C74C2F2000423685A1C226041F222
:100E7000883293420BD949F22240C0F6000049F271
:100E80002141C0F60001FFF79AFF0023236010BD47
:100E900008B540F65013C2F200031B683BB140F2A4
:100EA0001C70C2F2000002F06AF90028F7D108BDF8
:100EB0002DE9F0418EB00024ADF8324041F2C0532C
:100EC000C2F2000341F67302C0F600021A6041F25A
:100ED000C453C2F2000341F69702C0F600021A6042
:100EE00002204FF4164100F01CFC49F22B40C0F6E2
:100EF000000049F23441C0F60001FFF760FF6420B2
:100F0000FFF741FB02204FF4E13100F00AFC49F207
:100F10002B40C0F6000049F23441C0F60001FFF753
:100F20004EFF6420FFF72FFB02204FF4165100F014
:100F3000F8FB49F23940C0F6000049F27341C0F6AF
:100F40000001FFF73CFF49F24240C0F6000049F2C1
:100F50007341C0F60001FFF732FF49F24B40C0F683
:100F6000000049F25441C0F60001FFF728FF49F2A2
:100F70005640C0F6000049F6F561C0F60001FFF7E3
:100F80001EFF49F25F40C0F6000049F27341C0F60F
:100F90000001FFF714FF49F26840C0F6000049F273
:100FA0007141C0F60001FFF70AFF40F65410C2F28B
:100FB000000049F22141C0F60001224601F041FF44
:100FC00000F0DAFC40F65015C2F2000500232B6059
:100FD0004FF4C050C4F20100022105F069FC30BF9B
:100FE000FFF79EFE0028FBD04FF4C050C4F2010072
:100FF000022105F05FFC4FF4C050C4F20100012152
:1010000005F056FC49F27540C0F60000FFF7B8FE47
:1010100030B149F27C40C0F60000FFF7B1FE50B994
:101020000220FFF7BAFE04464FF4C050C4F201009C
:10103000012105F03FFC40F24C78C2F20008002389
:10104000C8F80030002CCAD02378412BC7D1012426
:101050002C604FF4C050C4F20100022105F02AFCBC
:101060004FF4C050C4F20100214605F023FC204695
:10107000FFF793FE0446FFF771FE40F2F866C2F2F6
:101080000006B060A01CFFF769FE7060201DFFF72E
:1010900065FE30600920FFF780FE0446FFF75EFE24
:1010A000F060A01CFFF75AFE01383061201DFFF7E9
:1010B00055FE64307061304607F048FE00F5FD4093
:1010C0001030FFF793FD02A8FFF786FD374602AD0B
:1010D0000FCD0FC70FCD0FC72B683B60726964251A
:1010E00092FBF5F70346F168009140F25070C2F2AE
:1010F000000049F28341C0F6000105FB17220133CD
:1011000000F06BFD40F21C75C2F20005284640F26B
:101110005071C2F20001122201F0BCFE002840F022
:101120009B802846E96802F035F8002840F094805A
:10113000FFF7F6FD054600283FF444AF49F294401E
:10114000C0F60000FFF71CFE38B90620FFF725FEA9
:1011500004460378302B0ED125E049F27540C0F6E5
:101160000000FFF70DFEF0B90220FFF716FE04465F
:101170000378412B17D14FF4C050C4F20100022173
:1011800005F096FB40F21C70C2F2000040F2507174
:10119000C2F200012A460DAB01F004FF00285BD12A
:1011A0000D9B9D4258D149F29B40C0F60000FFF7CD
:1011B000E7FD38B90620FFF7F0FD04460378302B31
:1011C0000ED124E049F27C40C0F60000FFF7D8FDC4
:1011D000E8B90220FFF7E1FD04460378412B16D160
:1011E0004FF4C050C4F20100022105F061FB40F24F
:1011F0001C70C2F2000040F25071C2F200012A4697
:101200000DAB01F0CFFE38BB0D9B9D4224D1BDF844
:10121000323001339BB2ADF832305A2B10D94FF433
:10122000C050C4F20100022105F042FB0023ADF8DA
:10123000323040F21C70C2F2000001F075FF58B964
:101240004FF4C050C4F20100022105F033FB00232B
:10125000C8F8003030BF6BE74FF4C050C4F2010053
:10126000022105F025FB40F21C70C2F2000001F0E3
:1012700086FF0028F0D1A5E6F7B541F2AC54C2F2E2
:1012800000044FF4165323600023A380E3802381DE
:10129000A3810C2363810520012105F028FC4FF474
:1012A0000030012105F02FFC0426ADF8046003276F
:1012B0008DF8067018238DF807304FF40065C4F2DE
:1012C000010528460DEB060105F0A4FA0823ADF848
:1012D00004308DF806708DF8076028460DEB060186
:1012E00005F098FA4FF48845C4F2000528462146D7
:1012F00005F03BFF2846012105F09AFF284640F201
:101300002551012205F0A0FF03B0F0BD73B540F2F6
:101310000013C2F20003197901291A4611D04FF0C7
:10132000000408D3022947D141F2AC53C2F20003B2
:101330004FF400510BE041F2AC53C2F20003DC80E9
:1013400006E041F2AC53C2F200034FF44051D980A1
:101350005379012B11D04FF0000408D3022B2BD16D
:1013600041F2AC53C2F200034FF4C0610BE041F212
:10137000AC53C2F200031C8106E041F2AC53C2F24E
:1013800000034FF4806119819379072B4FF000041B
:1013900002D0082B06D00FE041F2AC53C2F200039A
:1013A0009C800DE041F2AC53C2F20003198909B1EF
:1013B0004FF48051998003E0FFF75EFF204641E043
:1013C00041F2AC54C2F20004136823600023A381ED
:1013D0000C2363810520012105F089FB4FF40030C7
:1013E000012105F090FB0425ADF8045003268DF88B
:1013F000066018238DF807304FF40060C4F2010036
:101400000DEB050105F006FA0823ADF804308DF860
:1014100006608DF807504FF40060C4F201000DEB38
:10142000050105F0F7F94FF48840C4F200002146A9
:1014300005F09BFE4FF48840C4F20000012105F046
:10144000F7FE012002B070BD70B505460E46044699
:10145000631BB34211D24FF48840C4F2000014F869
:10146000011B05F009FF4FF48840C4F20000802101
:1014700005F00AFF0028F6D0EAE770BDF8B540F69F
:101480008833C2F2000300221A7041F28933C2F29B
:101490000003197801291E4646D041F29031C2F26C
:1014A00000010B68B3F5006F08BF0A600B6841F2DA
:1014B0008C32C2F200021068834202D100233370E2
:1014C000F8BD41F29432C2F200028CBFC3F5006055
:1014D000C01A106041F29435C2F200051468402C25
:1014E00098B281BF03F140020A60A4F140032B606F
:1014F0008FBF4027A7B21B190B609CBF00232B6036
:101500000124347040F68933C2F200031844C0212C
:101510003A4606F0BEFC2046394606F039FF204622
:10152000BDE8F84006F099BDF8BD38B540F20013AB
:10153000C2F200039B79072B41F28C34C2F2000403
:101540000DD125684FF48840C4F2000005F098FEE4
:1015500040F68933C2F2000300F07F000CE0082B54
:101560000BD125684FF48840C4F2000005F088FED6
:1015700040F68933C2F20003585541F28C33C2F26F
:10158000000322680132B2F5006F08BF00221A6022
:1015900038BD08B54FF48840C4F2000040F2255130
:1015A00005F078FE08B1FFF7C0FF4FF48840C4F2A1
:1015B0000000082105F068FE38B14FF48840C4F2FD
:1015C0000000BDE8084005F05BBE08BD07B5FFF7A9
:1015D000BEF84FF47A70FEF78AFF00F0AFFD41F2DB
:1015E000C850C2F2000049F2C841C0F6000100F044
:1015F0007FFE41F2C850C2F2000000F088FE00F009
:1016000082FD0020014649F2A242C0F600020123F9
:1016100000F0E9FCFFF7CDF80020FFF7EDF8FFF749
:10162000E0F84FF4C06005F099F814238DF8043009
:1016300001248DF8054000258DF806508DF80740EF
:1016400001A805F095F826238DF804308DF8055093
:1016500001A805F08DF806F0FCFA2046FFF7CCF85B
:1016600041F2E063C2F200031B68052BF8D1FEE7EC
:1016700007B5FFF76CF84FF47A70FEF738FF00F00B
:101680005DFD41F2C850C2F2000049F2C841C0F607
:10169000000100F02DFE41F2C850C2F2000000F03F
:1016A00036FE00F030FD0020014649F2B442C0F69B
:1016B0000002012300F097FCFFF77BF80020FFF702
:1016C0009BF8002004F0C2F8FFF78BF84FF4C060DD
:1016D00005F044F814238DF8043001248DF80540FA
:1016E0008DF806408DF8074001A805F041F8132356
:1016F0008DF804308DF8054000238DF806308DF804
:10170000074001A805F034F806F0A3FA2046FFF7D9
:1017100073F841F2E063C2F200031B68052BF8D1B5
:10172000FEE72DE9F34105468846022869D141F2DA
:101730009C34C2F200044FF48843C4F200032360D7
:101740000520012105F0D3F94FF40030012105F007
:10175000DAF90426ADF8006003278DF8027018232B
:101760008DF803304FF40060C4F20100694605F0C3
:1017700051F80823ADF800308DF802708DF8036041
:101780004FF40060C4F20100694605F043F84FF4DD
:10179000C06004F0E3FF26238DF8043001268DF8A5
:1017A00005608DF806508DF8076001A804F0E0FF91
:1017B00041F2AC55C2F20005284605F02EFDC5F8F1
:1017C00000802068294605F0D0FC41F29832C2F230
:1017D000000241F2A433C2F2000313600022A3F816
:1017E0000222A3F80022A3F80622A3F8042220680C
:1017F00040F22551324605F027FD2068314605F0BC
:1018000017FD02B0BDE8F08110B5B0F80432B0F8B1
:101810000642013303F0FF03E4B21C1B18BF01248E
:10182000B4B1B0F804329BB272B6DBB2C21882F81F
:1018300000110133DBB2A0F8043262B641F29C33EE
:10184000C2F20003186840F22771012205F0FCFC87
:10185000204610BD024672B6B0F802329BB2C05CA0
:10186000C0B2B2F802320133DBB2A2F8023262B681
:101870007047014641F29833C2F200031868B0F88D
:101880000432B0F80622013303F0FF03D2B29342D0
:10189000F5D0FFF7B9BF41F29833C2F200031868E0
:1018A000B0F80022B0F80232D2B2DBB29A4201D0D4
:1018B000FFF7D0BF0020704770B54FF48840C4F2E6
:1018C000000040F2255105F0E5FC18B341F2A434C4
:1018D000C2F20004B4F800520135EDB2B4F802626D
:1018E000B6B24FF48840C4F2000005F0C9FCC0B2A3
:1018F000B54209D14FF48840C4F2000040F22551AE
:10190000002205F0A1FC05E0B4F800329BB2E054DF
:10191000A4F800524FF48844C4F20004204640F278
:10192000277105F0B7FC00B341F2A433C2F2000303
:10193000B3F8062292B2B3F8041289B2914207D1E9
:10194000204640F227710022BDE8704005F07CBCC3
:10195000B3F8062292B21A4492F80021A280B3F89A
:1019600006220132D2B2A3F8062270BD41F2A033A2
:10197000C2F200031B68184741F29833C2F2000319
:101980001B680022A3F80222A3F8002241F29C3334
:10199000C2F20003186840F22551012205F054BC40
:1019A00041F29833C2F200031A68B2F806329BB2D1
:1019B000B2F8040280B2C31A58425841704710B5B9
:1019C00004460A2802D10D20FFF7F9FF41F2BC536B
:1019D000C2F200031A681AB1511C1960147010BDCC
:1019E00041F2C053C2F200031B681BB1E0B2BDE874
:1019F0001040184710BD10B5441E14F8010F18B15F
:101A000040B2FFF7DCFFF8E710BD2DE9F04F85B0DD
:101A100002460E461078002800F0CF8040B22528FC
:101A200001D0541C70E0537859B2302903D1D41C32
:101A30009378012707E02D2919BF941C0027D41C97
:101A4000937808BF02270025A3F13002092A08D89D
:101A50005BB20A2202FB0533A3F1300514F8013B07
:101A6000F2E7214623F0200252B24C2A02BF47F08F
:101A7000040701340B78002B00F09F8058B26028D7
:101A8000C4BF203BDBB25BB24F2B13D006DC432B31
:101A900031D0442B3ED0422B3AD035E0552B39D0B3
:101AA000582B2FD0532B2FD106F10408D6F80090D5
:101AB0004B4601E008222EE0C9EB030613F8012B88
:101AC000002AF9D1B90709D406F1010AAE4204D2BD
:101AD0002020FFF774FF5646F4E756464846FFF7C6
:101AE0008AFFAE4202D34646224693E72020FFF704
:101AF00066FF0136F5E706F1040896F90000FFF7E6
:101B00005EFFF0E7102206E0FFF759FFB046EAE774
:101B1000022200E00A22316806F10408442B04D1B5
:101B20000029BCBF494247F008070026B1FBF2FE7E
:101B300002FB1E137146092BDBB207D978280CBFB4
:101B40004FF0270C4FF0070C6344DBB201360DEB6E
:101B5000060C30330CF8013CBEF1000F01D0102E02
:101B6000E4D13A0741BF04AB9B192D2203F8102C96
:101B700048BF013617F0010F14BF4FF0300B4FF084
:101B8000200BB146BB0709D409F1010AA94504D2CB
:101B90005846FFF714FFD146F4E7D146013E1DF940
:101BA0000600FFF70CFF002EF8D1A9459BD220209C
:101BB000FFF705FF09F10109F7E705B0BDE8F08F70
:101BC0000FB407B504A951F8040B0191FFF71DFFED
:101BD00003B05DF804EB04B070470EB417B505A967
:101BE00051F8043B41F2BC54C2F200042060019160
:101BF0001846FFF70AFF226800231370236003B022
:101C0000BDE8104003B0704770B596B04FF48070D7
:101C1000012104F060FF40F2E110012104F067FFB0
:101C20004FF4FF43ADF81C3018238DF81F30032309
:101C30008DF81E304FF4C050C4F2010007A904F023
:101C4000E9FD1025ADF81C504FF4A054C4F2010476
:101C5000204607A904F0DEFD2023ADF81C30204605
:101C600007A904F0D7FD4FF40063ADF81C302046FF
:101C700007A904F0CFFD4023ADF81C308DF81F50AC
:101C8000204607A904F0C6FD8023ADF81C3020468D
:101C900007A904F0BFFD4FF48076ADF81C604FF447
:101CA0004064C4F20104204607A904F0B3FD2046B5
:101CB000314604F0FDFD02230093019302930523B6
:101CC0000393049305930023069304240794089335
:101CD00009930A950B930C930D930E930F934FF466
:101CE00080521092119312931393CDF850D0CDF8E7
:101CF00054D007A804F0E0FD2046012104F042FE84
:101D000016B070BD0A460146134600F0DBB92DE956
:101D1000F04F85B081468A469B4641F2D454C2F2C8
:101D2000000423685F7A4FEAD70807F007071078A6
:101D3000537843EA002000F0FBFA054609EBC8039C
:101D40009BB20093002623689B7A9E423EDA0022D3
:101D5000424520DA09EBC20C1FFA8CFC0023A95C77
:101D60009940090612D503920CEB03000293CDF8BB
:101D700004C00AEB060180B289B2FFF7C3FF5846E0
:101D800000F097F9039A029BDDF804C00133082B99
:101D9000E5D10132DCE745440023BB4212DA2A7860
:101DA0009A4012060CD5009AD01801930AEB06014E
:101DB00080B289B2FFF7A6FF584600F07AF9019B7E
:101DC0000133EAE707B101350136BCE705B0BDE8EC
:101DD000F08F2DE9F04F85B081468A469B4641F24F
:101DE000D054C2F2000423685F794FEAD70807F0A5
:101DF0000707104600F091FA054609EBC8039BB2AD
:101E00000093002623689B799E423EDA00224245D9
:101E100020DA09EBC20C1FFA8CFC0023A95C994064
:101E2000090612D503920CEB03000293CDF804C00F
:101E30000AEB060180B289B2FFF764FF584600F052
:101E400038F9039A029BDDF804C00133082BE5D171
:101E50000132DCE745440023BB4212DA2A789A407B
:101E600012060CD5009AD01801930AEB060180B235
:101E700089B2FFF747FF584600F01BF9019B013379
:101E8000EAE707B101350136BCE705B0BDE8F08FE0
:101E90002DE9F74F83460F469946BDF830A041F231
:101EA000D455C2F200052B685E7A4FEAD60806F0D8
:101EB000070301931078537843EA002000F038FAC2
:101EC00004462B68597A59449B7A3B445846013959
:101ED0003A46013B00F0F6F800262A68927A9642CC
:101EE0002ADA27463A1B424512DA4FF0000B3A78BD
:101EF00002FA0BF212F0800F14BF4846504600F071
:101F0000D8F80BF1010BBBF1080FF0D10137E9E76D
:101F100044440027019B9F420ADA2278BA4012F01B
:101F2000800F14BF4846504600F0C3F80137F1E770
:101F300003B101340136D0E703B0BDE8F08F2DE9DD
:101F4000F74F83460F469946BDF830A041F2D05571
:101F5000C2F200052B685E794FEAD60806F0070347
:101F60000193107800F0D9F904462B685979594447
:101F70009B793B44584601393A46013B00F0A2F8B0
:101F800000262A68927996422ADA27463A1B424569
:101F900012DA4FF0000B3A7802FA0BF212F0800FCF
:101FA00014BF4846504600F084F80BF1010BBBF11A
:101FB000080FF0D10137E9E744440027019B9F4215
:101FC0000ADA2278BA4012F0800F14BF4846504611
:101FD00000F06FF80137F1E703B101340136D0E7C3
:101FE00003B0BDE8F08FF7B504460E4615461F4610
:101FF0002A78002A42D07F2C42D89F2E40D882F0E7
:1020000080031F2B40F21C03C2F2000301D9DF2A18
:1020100019D93FB91B68204631462A461B88FFF76D
:1020200076FE08E01A6813885288009220463146EE
:102030002A46FFF72DFF023541F2D453C2F20003C6
:102040001B685B7A17E037B91B68204631461B884E
:10205000FFF7BFFE08E01A681388528800922046F6
:1020600031462A46FFF76BFF013541F2D053C2F2E9
:1020700000031B685B791C44A4B2B9E7012000E0AF
:10208000002003B0F0BD38B54FF4A054C4F20104F1
:10209000402525616420FEF776FA6561802363613F
:1020A0006420FEF770FA25616420BDE83840FEF731
:1020B0006ABA02090023C6F602031A80000180B240
:1020C0001880704770B54FF0D0464FF428743480B4
:1020D0000024C6F6020400252580C0B2000120803D
:1020E0002580C9B2090121804FF42C7131802580EF
:1020F000D2B2120122802580DBB21B0123804FF473
:102100003073338070BD07B500207F2102469F23C6
:10211000FFF7D8FF4FF4A04301930023C6F6020354
:1021200040F6FF721A804FF6F0721A80019B013B55
:102130000193002BF1D103B05DF804FB2DE9F843C6
:10214000FFF762FDFFF79FFF4FF0D0441025258079
:10215000B420FEF718FA4FF4807323806420FEF752
:1021600012FA4FF4887323809620FEF70CFA4FF48E
:10217000316323800023C6F6020360261E803020D0
:10218000188020221A804FF43461218018804FF487
:10219000366121801A804FF0E00CA3F800C04FF4A4
:1021A000756121804FF4D07119804FF4406EA4F80E
:1021B00000E01A80002119804FF4416727805027E2
:1021C0001F804FF4426727801A801A804FF44367BC
:1021D00027801D801A804FF4446727801D801A8055
:1021E0004FF4456727804FF48E671F804FF4687760
:1021F0001F804FF47268A4F800801A804FF476684C
:10220000A4F800804FF49868A3F800804FF4786831
:10221000A4F800801E804FF46068A4F800801E803F
:102220004FF4E078A3F800804FF4F878A3F800802A
:10223000A3F800804FF4C078A3F800804FF4987999
:10224000A3F800901E80188018804020188070200D
:102250001880188019804FF461662680A0261E80A1
:102260004FF4A0761E804FF4D8761E80A3F800802D
:102270004FF490761E80A3F800C01A801D8019804C
:102280001D8080221A80188019804FF45872228095
:10229000A3F800E027804FF4AA621A804FF454722A
:1022A00022801980FFF72FFF4FF42473238014201E
:1022B000BDE8F843FEF767B970B541F2D453C2F2F6
:1022C00000031968CD7A14220023AB420BDA0C68A4
:1022D000A61836F8026C864202D8A45A844205D267
:1022E00001330432F1E74FF0FF3070BD184670BD86
:1022F00001608B7B4371CA7B827113F0070F4FEA39
:10230000D30314BF03FB022353430371704741F20D
:10231000D053C2F200031860704741F2D053C2F2AA
:1023200000031A6813795843113013681844704732
:1023300010B50446FFF7C0FF431C05D148F2A010BA
:10234000FFF7BAFF48F2A01441F2D453C2F20003DF
:102350001B6803EB400291891A6802EB8000408AF7
:10236000241A0C44187A5B6800FB043010BD30B5A9
:102370000D1F0446131B0344032B04D955F8043FD7
:1023800044F8043BF6E722F003031944013B1844E8
:1023900002F003020A44914204D011F8013B00F814
:1023A000013FF8E730BD0244904202D000F8011B23
:1023B000FAE77047436A0433490A02689078B1FB30
:1023C000F0F1186830B1814202D3091A0833F8E7F6
:1023D0005B68C818704710B5036893B11A46144675
:1023E00012F8011B20290AD93A29F8D11A4612F805
:1023F000011B944205D1302903D102330360002030
:1024000010BD4FF0FF3010BD08B580B1036873B147
:102410001A7862B1D9888288914208D1587802F03E
:102420002CFC10F0010F14BF0320002008BD092070
:1024300008BDF8B5044603790BB90020F8BD056B5B
:1024400000F13407407839462A46012302F044FC63
:1024500090B92071636AEB1AE2699342EDD2E67893
:10246000012EEAD9E3691D44607839462A460123E2
:1024700002F032FC013EF3E70120F8BDF8B5044656
:10248000FFF7D7FF05469DBB2378032B28D166793C
:10249000012E25D104F13407384629464FF4007245
:1024A000FFF781FF4AF65523A4F8323245F2522352
:1024B000C4F26113636347F27223C6F24113C4F896
:1024C00018322369C4F81C32E368C4F82032226A47
:1024D0000132226360783946334602F0FDFB6571B4
:1024E000607800210A4602F012FC003018BF01207B
:1024F000F8BD70B506460D46036B994211D0FFF743
:1025000098FF044670B9707806F134012A46012319
:1025100002F0C7FB00281CBF01244FF0FF353563D4
:1025200000E00024204670BD10B50446002303716E
:102530004FF0FF330363FFF7DCFFB8B9B4F8322282
:102540004AF655239A4213D1D4F86A3023F07F42D9
:1025500044F24613C0F254039A420AD0D4F88600DB
:1025600020F07F40C01A18BF012010BD032010BD0D
:10257000022010BDF0B585B0074615460023036064
:102580000846FFF728FF061EC0F2F18041F2DC5337
:10259000C2F2000353F82640002C00F0EA803C60B1
:1025A000237883B1607802F068FBC1070BD4002D5B
:1025B00000F0E18000F0040303F0FF00002B00F0C6
:1025C000DF800A20DCE000232370F0B2607002F0AC
:1025D00044FBC20700F1D1800DB14307F1D420467E
:1025E0000021FFF7A1FF01281BD12146002291F80D
:1025F000F6310BB1D1F8FA314DF8223001321031F9
:10260000042AF4D100265DF826502DB12046294633
:10261000FFF78AFF08B90BE002200136042EF2D141
:1026200000E00025032800F0AA8008B10D20A7E0F3
:10263000B4F83F30B3F5007FF8D1B4F84A0000B9E0
:10264000A06DE06194F844E084F803E00EF1FF33FC
:10265000012BEBD894F84130A370002BE6D05A1E22
:102660001A42E3D1B4F845C0A4F808C01CF00F0F1B
:10267000DCD1B4F8472002B9626DB4F842100029E9
:10268000D4D00EFB00FE01EB1C177744BA42CDD329
:10269000D21BB2FBF3F3002BC8D040F6F572934285
:1026A00006D94FF6F576B3428CBF0326022600E02A
:1026B00001260233A3612562294461622F44E76247
:1026C000032E06D1BCF1000FB0D1226EA2629B0096
:1026D0000EE0BCF1000FA9D07144A162022E4FEAB6
:1026E00043020FBF1346D21803F0010303EB52035A
:1026F00003F2FF13B0EB532F98D34FF0FF33236156
:10270000E36080236371032E24D1B4F86430012B7D
:1027100020D12046691CFFF7ECFED8B96071B4F8EF
:1027200032224AF655239A4214D145F25223C4F27A
:102730006113626B9A420DD147F27223C6F24113C4
:10274000D4F818229A4201BFD4F81C322361D4F87D
:102750002032E360267041F2D852C2F200021388A0
:1027600001339BB21380E3800020606108E00B20FE
:1027700006E00C2004E0284602E0032000E00120EF
:1027800005B0F0BD02398369023B99423DBF8278B2
:10279000C36A02FB013000207047F8B507460C46BB
:1027A00001294BD98369994248D20378022B29D059
:1027B000032B34D0012B41D101EB5105416A01EBD0
:1027C0005521FFF796FE10B14FF0FF30F8BD6E1C9B
:1027D000C5F308053D4495F83450796A384601EB55
:1027E0005621FFF786FE0028EED1C6F308063E44C8
:1027F00096F8340045EA0020E3074CBF0009C0F317
:102800000B00F8BD416A01EB1421FFF772FE0028AE
:10281000DAD1640004F4FF73FC18A08EF8BD416A9D
:1028200001EBD411FFF765FE0028CDD1A40004F41C
:10283000FE743C44606B20F07040F8BD0120F8BD90
:10284000F8B505460E46E9808468012C01D10220C6
:10285000F8BD03689A699442F9D254B91A78032AE8
:1028600001D19A6A22B91A899642F0D2986A17E081
:1028700014469F783F012146BE420DD32868FFF7DA
:102880008CFF0146431C1AD00128E0D92B689B69B4
:102890009842DCD2F61BEFE70C462868FFF772FF80
:1028A000EC600028D3D000EB1610286106F00F066C
:1028B0002B6803EB461634366E610020F8BD01200C
:1028C000F8BD2DE9F04105460C46164601295ED9B2
:1028D000836999425BD20378022B38D0032B42D014
:1028E000012B54D101EB5107416A01EB5721FFF74E
:1028F00000FE00284CD107F10108C7F3080714F0C7
:1029000001042F44F3B21FBF97F8342002F00F02E6
:1029100042EA0313DBB287F8343001232B71696A72
:10292000284601EB5821FFF7E4FD88BBC8F30803F4
:102930002B4414B1C6F3071606E093F8342022F0B6
:102940000F02C6F30326164383F834601BE0416A86
:1029500001EB1421FFF7CDFDD0B9640004F4FF743E
:102960002C44A6860FE0416A01EBD411FFF7C1FDAC
:1029700070B9A40004F4FE7430342C44636803F08E
:1029800070431E43666001232B71BDE8F081022075
:10299000BDE8F081F8B505460F4631B9C66896B175
:1029A00083699E4228BF01260EE0FFF7F6FE01284C
:1029B0003FD9441C02D14FF0FF30F8BDAB699842BB
:1029C00038D33E4600E0012634460134AB699C42D0
:1029D00004D3012E01D80020F8BD02242846214648
:1029E000FFF7DBFE30B1411C24D0012822D0B442D5
:1029F000EBD1F0E7284621466FF07042FFF761FF08
:102A0000A8B957B9EC602B695A1C0ED0013B2B6159
:102A10006B7943F001036B7107E028463946224683
:102A2000FFF74FFF0028EDD001E02046F8BD012858
:102A3000C1D00120F8BD2DE9F84304460F46C688F1
:102A40000136B3B213B90420BDE8F8830369002B43
:102A5000F9D016F00F0859D101330361C16800683D
:102A600019B903899E42EED250E08378013B13EA04
:102A700016134BD1FFF791FE0546012802D802201C
:102A8000BDE8F883421C02D10120BDE8F88320682C
:102A900083699D4234D3002FD5D0E168FFF77AFFD8
:102AA000054600283BD00128E9D0431CECD0206823
:102AB000FFF7BFFC07460028E6D1206834303946CE
:102AC0004FF40072FFF76FFCD4F800904846294697
:102AD000FFF758FEC9F8300023689A7897420CD265
:102AE00001221A712068FFF7A4FC0028CCD12268CB
:102AF000136B013313630137EEE71A6BD71B1F63A8
:102B0000E56020682946FFF73DFE2061E6802368E6
:102B100003EB4813343363610020BDE8F8830720DA
:102B2000BDE8F883F8B505460C4691F900302F2B27
:102B300001D05C2B02D10134002301E003685B6902
:102B4000AB6023781F2B08D828460021FFF778FEBA
:102B500000236B61F8BD5C2B06D127462378013436
:102B60005BB22F2BF7D1F8E7AE69304620210B225C
:102B7000FFF719FC97F900302E2B1BD1791E721E1E
:102B80000024013411F8013F2E2B05D1032C00F055
:102B9000C38002F8013FF4E72F2B04D05C2B02D056
:102BA000202B00F2B9803C44212B34BF2423202366
:102BB000F37267E0002422464FF0080E2146531CB2
:102BC00017F802C05FFA8CF0202840F2C2802F284C
:102BD0003DD05C283BD02E2800F0A080744580F0CA
:102BE0009B801CF0800F18BF41F0030100F17F0CA7
:102BF0005FFA8CFCBCF11E0F06D900F1200C5FFAC5
:102C00008CFCBCF11C0F16D8023217F803C0ACF1D3
:102C100040033E2B03D98CF080037C2B7CD80EF133
:102C2000FF339C4278D2631C305506F803C002344F
:102C300013461A46C3E749F6DB6CC0F6000C1CF8D5
:102C4000012F002A73D052B28242F8D164E00022F0
:102C5000002C61D03078E52804BF05203070BEF12B
:102C6000080F04BF8900C9B201F00300012808BFA2
:102C700042F0100201F00C01042908BF42F00802E2
:102C8000FC18F27228460021FFF7DAFDD8B928684F
:102C90002969FFF72EFCB0B96B691A7892B1DA7A1C
:102CA00011070AD4AA6903F10B07BB420BD013F832
:102CB000016B12F8011B8E42F7D028460021FFF766
:102CC000BAFEE3E70420AB69DB7A98B1042842D16D
:102CD00013F0200F03F0040307D00022AA606A61FA
:102CE000002B3FF43AAF0020F8BD002B14BF0420A6
:102CF0000520F8BD5A07F6D46A69D37ADB0609D5F0
:102D0000538B29680978032904BF928A43EA024356
:102D1000AB6022E70520F8BD0620F8BDBEF1080F24
:102D2000FAD18900C9B274464FF00B0E81E7A0F1C9
:102D30004102192A02D841F0020107E0A0F1610224
:102D4000192A9EBF41F001012038C0B2305501342C
:102D50006FE704227CE7F8BD38B505460021FFF790
:102D60006FFD044678B928682969FFF7C2FB04465D
:102D700048B96B691B78E52B09D043B1284601217E
:102D8000FFF759FEEDE7042C08BF072412E028687E
:102D90002969FFF7AEFB044660B968692146202225
:102DA000FFF701FB6869A9690B22FFF7E0FA2B68BE
:102DB00001221A71204638BDF7B504460F46012995
:102DC0003CD98369994239D20D46A3699D4205D207
:102DD00020462946FFF7E1FC064608B900202EE010
:102DE00001282BD0411C27D0204629460022FFF77E
:102DF00068FD20BB23695A1C1FBF0133236163791F
:102E000043F0010318BF63716B1CB34212D020461C
:102E10003946FFF7B7FC009020462946FFF7B2FC81
:102E2000A378013B18440190607804216A4601F0C0
:102E30006EFF37463546C8E7012000E0022003B0A8
:102E4000F0BD1FB501900091144604A840F8041D80
:102E5000FFF7C1FA011E18DB41F2DC53C2F2000396
:102E600053F8210008B100220270019808B1002235
:102E70000270019843F8210050B1012C07D101A83C
:102E800069460022FFF776FB02E00B2000E00020FD
:102E900004B010BD2DE9F0418CB0019117460546F4
:102EA000002875D00023036005A801A902F01E02C6
:102EB000FFF760FB002872D102AB0B9305A80199C4
:102EC000FFF730FE0A9C10B9002C08BF062007F05F
:102ED0001F0617F01C0F35D048B1042802D105A8F1
:102EE000FFF73AFF46F008060A9C30B157E0E37A54
:102EF00013F0110F52D17B074CD437072BD5FDF7B8
:102F000092FFC4F80E000023E372E3610598678B1B
:102F10000278032A04BFA28A47EA02476383A38296
:102F200001230371BFB1D0F830803946FFF744FF69
:102F3000002834D10598013FC7604146FFF7D9FA10
:102F400048B12CE000282AD1E37AD80624D4B90766
:102F500001D5DA0722D4330748BF46F02006059B87
:102F60001A6BEA612C62AE710022EA71628B1978E9
:102F7000032904BFA18A42EA01422A61E269EA60A8
:102F80000020A860A86168622B60DB88AB8006E047
:102F9000092004E0082002E0042000E007200CB033
:102FA000BDE8F0812DE9F84F04460F4616469846D5
:102FB0000023C8F80030FFF727FA002840F0B2805D
:102FC000E079002840F0AE80A3799A0740F1A9800B
:102FD000A368DE4228BF0026DEB1A168C1F3080362
:102FE000002B71D120688378013B03EA512313F051
:102FF000FF0A22D111B9216989B906E0636A1BB1C0
:103000002046FFF7D7F902E06169FFF7C3FC0146EC
:1030100028B9A368E26893427CD9E3607AE0012989
:1030200001D1022002E04B1C03D10120E071BDE878
:10303000F88F6161236903B921612068026BA3697C
:103040009A4203D1FFF7F5F90028EED1D4F800B089
:1030500058466169FFF796FB0028E2D000EB0A09A9
:10306000750A23D09BF8023005EB0A029A4288BF0A
:10307000CAEB03059BF8010039464A462B4601F08E
:103080002BFE82460028D0D12068016BC9EB0101DC
:10309000A94209D2343007EB41214FF40072FFF707
:1030A00066F9236883F804A06D0228E0A268E3684B
:1030B0009A4207D35846FFF7BCF90028B5D12368D8
:1030C000C3F83090C4F81890A568C5F30805C5F595
:1030D0000075B54228BF35462068A169FFF709FA97
:1030E0000028A2D1A068C0F3080023681844343037
:1030F00039462A46FFF73BF9236801221A712F440B
:10310000A3682B44A360D8F800302B44C8F80030E3
:10311000761B61E7A37943F02003A3710020BDE88B
:10312000F88F0720BDE8F88F70B50446FFF76CF9FB
:1031300020BBA3799B0621D52068E169FFF7D9F967
:103140000646DEB9256AEB7A43F02003EB72E368AA
:10315000EB6123696B831B0CAB82FDF764FEC5F842
:1031600016006E82A37923F02003A3712368012245
:103170001A712068BDE87040FFF780B970BD10B5C6
:103180000446FFF7D1FF20B92046FFF73DF900B90B
:10319000206010BD2DE9F04704460E46FFF734F9D4
:1031A000002840F0D680E579002D40F0CE80636A9B
:1031B000002B5BD0721C34D11E1DD3F800A02769F0
:1031C00002252FB3B8464FF0000909F10109206824
:1031D0004146FFF7E2FA012801D8022002E0431C31
:1031E00003D10120E071BDE8F08708F101038046BA
:1031F0009842EAD0023555459FBF334643F8089BB5
:1032000077601E4623689B69984201D20746D9E73A
:10321000636A1D60554500F29B8000203060BDE868
:10322000F087E068864228BF0646A660002E00F0C0
:103230008980771E20463946FFF7BCF80146606159
:10324000D4F800804046FFF79DFA0028C5D098F8D2
:103250000210C6F30806002E74D0013901EA572186
:103260000844A36998426DD0A0616BE0E3689E4278
:1032700004D9A27912F0020F08BF1E46A3680022EB
:10328000A2600EB900264DE0206885786D026BB112
:10329000013B721EB2FBF5F2B3FBF5F18A4205D396
:1032A0006A421340A360F61A61690AE0216939B9DC
:1032B000FFF770FB014601288FD0013091D02161CA
:1032C00061610029DED0AE421DD9A37920689A073A
:1032D00004D5FFF75FFB014618B913E0FFF75DFA6D
:1032E00001464B1C3FF47DAF01297FF676AF236882
:1032F0009B699942BFF471AF6161A3682B44A360DD
:10330000761BE0E72E46A3683344A360C6F30803A8
:10331000002BB7D02068FFF735FA00283FF45DAFE7
:1033200000EB5626A368C3F308021AB1A2699642BD
:1033300018BFA661E268934281BFE360A37943F0BE
:103340002003A3710020BDE8F0872846BDE8F08780
:103350001120BDE8F08708B54FF40043C4F2010323
:103360005A6B12F0450FFBD0510704D5042003F02F
:10337000E6FE032008BDD30704D5012003F0DFFEDD
:10338000012008BD40F2FF5003F0D9FE2A2008BDFD
:1033900037B5054600230093019341F2B460C2F2B1
:1033A000000041F2AC62C2F2000212681204026034
:1033B0000D22426040228260C3604FF4806303614B
:1033C00003F06CFE4FF40043C4F201035A6B019208
:1033D000019A12F0450FF9D0019B590704D504203A
:1033E00003F0ADFE032084E0019810F0010404D046
:1033F000012003F0A4FE01207BE003F065FE0190B4
:10340000019B0D2B01D0102073E040F2FF5003F020
:1034100096FE204603F05FFE0090009BC3F343231B
:103420002B70009A4EF20803CFF6FF531340002B87
:103430003CD0009B002B3BDB009B5A003AD4009B06
:103440009B0039D4009BDD0038D4009B1C0137D48D
:10345000009B590136D4009BDA0135D4009B1B0236
:1034600034D4009B5D02CED4009B9C0230D4009BE0
:10347000D9022FD4009B1A032ED4009B5B032DD4BA
:10348000009B9D032CD4009BDC032BD4009B1904D0
:103490002AD4009B5A0429D4009B9B0428D4009B67
:1034A00013F0080F14BF1A202A2022E02A2020E05F
:1034B0001C201EE009201CE00A201AE00B2018E066
:1034C0000C2016E00D2014E00E2012E00F2010E07A
:1034D00011200EE012200CE013200AE0142008E076
:1034E000152006E0162004E0172002E0182000E076
:1034F000192003B030BD70B58CB006460D464FF4B0
:103500007040C1F2000003F08FFC40F24444C4F26A
:1035100002042046002103F06FFC48F28003C4F24D
:1035200001030193029600230393AD0804950593CC
:10353000802206924FF4007207924FF400620892C4
:1035400009934FF400520A920B93204601A903F00D
:1035500035FC2046012103F04FFC0CB070BD70B566
:103560008CB006460D464FF47040C1F2000003F0E7
:103570005BFC40F24444C4F202042046002103F004
:103580003BFC48F28003C4F201030193029610232E
:103590000393AD08049500230593802206924FF40F
:1035A000007207924FF40062089209934FF40052A0
:1035B0000A920B93204601A903F000FC204601214A
:1035C00003F01AFC0CB070BD38B505464FF400434B
:1035D000C4F20103586B10F0450FFBD0410704D52E
:1035E000042003F0ACFD032038BD10F0010404D02A
:1035F000012003F0A4FD012038BD03F065FDA842C1
:1036000001D0102038BD40F2FF5003F098FD204655
:1036100003F061FD4EF20803CFF6FF5303404BB3B6
:10362000002829DB420029D4830029D4C50029D4ED
:10363000040129D4410129D4C20129D4030229D487
:103640004502DED4840227D4C10227D4020327D442
:10365000430327D4850327D4C40327D4010427D4E4
:10366000420427D4830427D410F0080F14BF1A2073
:103670002A2038BD2A2038BD1C2038BD092038BD7D
:103680000A2038BD0B2038BD0C2038BD0D2038BDB8
:103690000E2038BD0F2038BD112038BD122038BD96
:1036A000132038BD142038BD152038BD162038BD74
:1036B000172038BD182038BD192038BD2DE9F34733
:1036C00007464FF00009CDF80090CDF8049041F284
:1036D000B464C2F200044FF008084FF0100A84E806
:1036E00000054026A660C4F80C904FF48065256163
:1036F000204603F0D3FC5046FFF766FF2A2840F02F
:10370000858041F2AC63C2F200031B6803FA0AF33E
:1037100023604FF0370AC4F804A0A660C4F80C90E8
:103720002561204603F0BAFC5046FFF74DFF2A28DA
:103730006CD141F2E050C2F200004FF6FF73C0F2CC
:103740000F0380E80801302383600223C360C0F8C0
:1037500010900123436103F0CBFCC4F800904FF0BC
:103760003308C4F80480A660C4F80C902561204694
:1037700003F094FC4046FFF727FF2A2846D1ADF11D
:1037800004044FF40043C4F201035A6B40F22A636D
:10379000134053B94FF4001003F0C7FC0028F0D0D9
:1037A00003F0BCFC44F8040FEBE7082003F0BDFC79
:1037B00020B1082003F0C3FC042027E0022003F01E
:1037C000B4FC20B1022003F0BAFC02201EE020204D
:1037D00003F0ABFC20B1202003F0B1FC062015E083
:1037E0004FF4007003F0A1FC28B14FF4007003F017
:1037F000A6FC07200AE040F2FF5003F0A0FC009B6B
:103800001BBA7B60019B1BBA3B602A2002B0BDE85B
:10381000F0872DE9F341044600200090019003F069
:103820005AFC10F0007556D16846FFF747FF2A286A
:1038300054D1012C019B21D15A034ED541F2B464DD
:10384000C2F2000441F2AC63C2F200031B681B0425
:103850002360372666604FF04008C4F80880E560B2
:103860004FF480672761204603F018FC3046FFF7CD
:10387000ABFE2A2832D1022323601FE0DB032CD5C4
:1038800041F2B464C2F2000441F2AC63C2F200033C
:103890001B681B042360372666604FF04008C4F89D
:1038A0000880E5604FF480672761204603F0F6FB4F
:1038B0003046FFF789FE2A2810D12560062666606B
:1038C000C4F80880E5602761204603F0E7FB304636
:1038D000FFF77AFE02E00E2000E0252002B0BDE8EE
:1038E000F0812DE9F84F41F29060C2F20000B2235E
:1038F00003750025056045608560C560056103F0BE
:1039000090FB032003F0AAFB012003F0A2FB41F28D
:10391000B464C2F2000425606560A560E5604FF400
:1039200080632361204603F0B9FB4FF4803580208B
:1039300003F0FBFB002878D1013DF8D172E05BB1C8
:10394000013B4FF40042C4F20102526B12F0450FEA
:10395000F5D0002B40F08580042003F0F0FB002719
:103960002760372565604023A360E7604FF48063DC
:10397000236141F2B460C2F2000003F08FFB2846DD
:10398000FFF722FE00262660372565604023A360EE
:10399000E6604FF48063236141F2B460C2F200003C
:1039A00003F07CFB2846FFF70FFE2A2840F08B80AF
:1039B00041F2B465C2F200054FF000084FF0370B3A
:1039C00084E800094FF0400AC4F808A0C4F80C804D
:1039D0004FF48069C4F81090284603F05FFB584606
:1039E000FFF7F2FD2A286ED147F0104343F480130D
:1039F0002B6029236B60C5F808A0C5F80C80C5F8BA
:103A00001090284603F04AFB4FF40043C4F2010330
:103A1000586B10F0450FFBD010F004052AD004209D
:103A200003F08DFB0320BDE8F88F40F2FF5003F058
:103A300086FB4FF4D57008214022002384E80F0054
:103A40004FF48063236141F2B460C2F2000003F0DE
:103A500025FB4FF40043C4F201035A6B4FF480334B
:103A600074E756073FF578AF550623D5402003F09D
:103A700066FB1FE040F2FF5003F061FB284603F0B5
:103A80002AFB013600284FF6FF7302DB9E428FD1DE
:103A90000AE09E4208D0440009D541F27463C2F2A4
:103AA000000302221A6002E01B20BDE8F88F2A20E2
:103AB000BDE8F88F41F27463C2F2000301221A607C
:103AC0004FF080475EE7BDE8F88F38B503F0CCFAD9
:103AD000002800F0A68041F27464C2F2000423685A
:103AE000042B28D041F2B460C2F20000002505602A
:103AF00002234360C0238360C5604FF48063036189
:103B000003F0CCFAFFF727FC2A2840F095802846DE
:103B100003F0E1FA41F27865C2F200052860042062
:103B200003F0D9FA6860082003F0D5FAA8600C20E9
:103B300003F0D1FAE8602368022B01D9062B3CD1AF
:103B400041F2B460C2F2000000230360032242602D
:103B500040228260C3604FF48063036103F09EFAE9
:103B60004FF40043C4F20103586B10F0450FFBD033
:103B7000450704D5042003F0E2FA032038BD10F015
:103B8000010504D0012003F0DAFA012038BD03F06A
:103B90009BFA03284BD140F2FF5003F0D0FA28469D
:103BA00003F099FA10F4604F01D1030C06E0810490
:103BB0003FD442043BD403043DD401232268042AA9
:103BC00031D041F2AC62C2F20002136041F2B46043
:103BD000C2F200001B04036009234360C02383601A
:103BE0000025C5604FF48063036103F057FAFFF7C7
:103BF000B2FB04462A2818D1284603F06CFA41F299
:103C0000F855C2F200052860042003F064FA6860E9
:103C1000082003F060FAA8600C2003F05CFAE8606A
:103C200003E0252038BD2A2038BD204638BD1020AD
:103C300038BD132038BD0F2038BDF0B541F2746394
:103C4000C2F200031D6880F8565041F2AC63C2F224
:103C500000031B68A0F8543041F2F851C2F2000191
:103C60000B681C0EE2B296090670C4F3830444701C
:103C700002F003028270C3F30742C270C3F307224B
:103C80000271DBB243714A68130E1B01C380C2F399
:103C90000744C3889BB243EA1413C38004F00F04A3
:103CA0000472C2F30724E3B2DE094672C4F380163D
:103CB0008672C4F34016C672C4F30016067300265B
:103CC0004673012D3ED804F00304A4020461036985
:103CD000D2B243EA820202618B681C0EE2B205692D
:103CE00045EA92150561C4F3C204047502F00702A7
:103CF0004275C3F30744E2B255098575C4F38204E3
:103D0000C47502F0030252000276C3F30723027E59
:103D100042EAD31202760269057E067A012404FA89
:103D200006FEC0F850E00235AC40E717A4FB0E4594
:103D30000EFB07550132A4FB026702FB0577C0E9C1
:103D4000126720E0022D1ED102F03F021204026130
:103D50008B6802691C0E42EA042202610269C3F305
:103D6000074422430261C3F3072304690025013499
:103D700045F10005EA0442EA5432C264E404846472
:103D80004FF400720265C3F38012427603F03F03E2
:103D90005B0083760B7A827E42EAD312827603F04E
:103DA0007F03C376CC68210ECAB2D3090377C1F36F
:103DB00041134377C1F38201817702F0030292003D
:103DC000C277C4F30742D3B2C17F41EA9311C177EE
:103DD000C2F3401280F82020002280F8212003F056
:103DE000010380F82230C4F30723DAB2D10980F846
:103DF0002310C3F3801180F82410C3F3401180F81E
:103E00002510C3F3001180F82610C3F3810380F856
:103E1000273002F0030280F82820C4F3460380F81C
:103E20002930012180F82A1041F27862C2F20002A2
:103E300013681C0E80F82C40C3F307442402C48589
:103E4000C48DA5B2C3F307242C43C4851B060363AA
:103E50005368046B1D0E44EA05440463046BC3F30A
:103E6000074544EA05240463046BC3F307252C4388
:103E70000463DBB280F8343093681C0E80F8354060
:103E8000C3F3074424068463846BC3F3072544EA21
:103E900005448463846BDBB244EA03238363D36801
:103EA000826B42EA13628263C3F3074290F83C409C
:103EB00044EA121480F83C4002F00F021202C2875A
:103EC000C28F94B2C3F307222243C287C3F34603CF
:103ED00080F8403080F841102A20F0BD38B5054602
:103EE00041F27463C2F200031B68032B30D0022B33
:103EF0002CD8B0F5805F2BD0B0F5006F11D1012028
:103F0000FFF787FC04462A2824D141F29060C2F2D0
:103F10000000062303750023036043608360C560CF
:103F200010E00020FFF775FC04462A2812D141F268
:103F30009060C2F200000623037500230360436013
:103F40008360C360036103F06CF803E02A2038BD8E
:103F5000272038BD204638BD10B541F2B463C2F207
:103F60000003186007245C6040229A600022DA6037
:103F70004FF480621A61184603F090F82046BDE8BD
:103F80001040FFF721BB37B5B020012102F0AFFD93
:103F90004FF4F853ADF8003003238DF802301823A6
:103FA0008DF803304FF48050C4F20100694602F0EE
:103FB00031FC0423ADF800304FF4A050C4F20100EE
:103FC000694602F027FC4FF48060012102F083FD76
:103FD0000220012102F07FFD03F010F8FFF781FCC1
:103FE0002A2833D1FFF771FD2A282FD141F29060A2
:103FF000C2F200000623037500240460446084605C
:10400000C460046103F00DF831238DF804308DF89D
:1040100005408DF8064001238DF8073001A802F015
:10402000A7FB41F21865C2F200052846FFF705FE1E
:104030002A280BD1B5F8540000042146FFF78CFF65
:104040002A2803D14FF40060FFF748FF03B030BDCA
:104050002DE9F04F87B001929B46BDF84070814634
:1040600008B92620C8E040F22506C2F200062A233D
:10407000337041F2886AC2F2000A0025CAF8005083
:1040800041F2B068C2F20008C8F8005041F2E054B2
:10409000C2F200044FF6FF73C0F20F0384E8280059
:1040A000A560E56025616561204603F021F828469A
:1040B00002F0EEFF284603F00EF810F0007FCDF876
:1040C00008A0CDF80C8040F0968041F27463C2F2F3
:1040D00000031B68022B01BF019B5F0A47EACB5319
:1040E000019308BF4FF40077781E83B2B3F5006FD9
:1040F000B7D23840B5D1BA46C1B20130BAF1010FDA
:1041000002D0CAF34F0AF7E7059141F2B465C2F253
:1041100000052F6010236B6004934FF0400BC5F82F
:1041200008B04FF00008C5F80C804FF480632B6195
:10413000284602F0B3FF049B1846FFF745FA2A28E9
:10414000059959D14FF6FF70C0F20F0084E8810045
:104150000901A1600221E160C4F81080C4F814A034
:1041600041F2E050C2F2000002F0C2FF039B1F6068
:1041700041F2D861C2F20001C1F8008041F28C61C5
:10418000C2F20001C1F8009040F22A30514602F01C
:1041900073FF504602F07CFF48463946FFF7ABF903
:1041A000019B2B6011246C60C5F808B0C5F80C8029
:1041B0004FF480632B61284602F070FF2046FFF722
:1041C00003FA2A2818D14FF40050C1F2000002F07F
:1041D0001EFE28B9029B1B6813B933782A2BF2D034
:1041E00040F22503C2F200033078C0B22A2803D07F
:1041F0001878C0B200E00E2007B0BDE8F08F2DE9BE
:10420000F04F87B090469B46BDF84070814608B994
:104210002620C5E040F22505C2F200052A232B70B6
:1042200041F2886AC2F2000A0024CAF8004041F252
:10423000B066C2F20006346041F2E050C2F2000003
:104240004FF6FF73C0F20F0380E818008460C4606B
:104250000461446102F04CFF204602F019FF204641
:1042600002F039FF10F0007F0195CDF808A032462A
:1042700040F0958041F27463C2F200031B68022B88
:1042800002BF4FEA582848EACB584FF400777B1E0C
:1042900099B2B1F5006FBBD23B40B9D13E46D9B21D
:1042A0000133012E02D0C6F34F06F8E705920491C0
:1042B00041F2B464C2F200042760102363600393E8
:1042C0004FF0400BC4F808B00025E5604FF4806A59
:1042D000C4F810A0204602F0E1FE039B1846FFF749
:1042E00073F92A280499059A5AD111984743B7F1CE
:1042F000007F8DD2176041F2D862C2F200021660D0
:1043000041F28C62C2F20002C2F8009041F2E05029
:10431000C2F200004FF6FF72C0F20F0280E8840084
:10432000090181600222C2600561466102F0E0FE7F
:1043300040F22A30314602F09FFE304602F0A8FEDD
:1043400048463946FFF7D7F8C4F800801226666061
:10435000C4F808B0E560C4F810A0204602F09EFE44
:104360003046FFF731F92A281AD14FF40050C1F234
:10437000000002F04CFD30B9029B1B681BB9019B89
:104380001B782A2BF1D040F22503C2F20003019AD8
:104390001078C0B22A2803D01878C0B200E00E20EE
:1043A00007B0BDE8F08F2DE9F04F89B09246BDF817
:1043B000486000248DF81F40834608B926202CE170
:1043C000019340F22507C2F200072A223A7041F217
:1043D0008869C2F20009C9F8004041F2B068C2F22F
:1043E0000008C8F8004041F2E055C2F200054FF65F
:1043F000FF72C0F20F0285E81400AC60EC602C6123
:104400006C61284602F074FE204602F041FE204610
:1044100002F061FE10F0007FCDF80890CDF80C801E
:10442000019B40F0F78041F27462C2F20002126810
:10443000022A02BF4FEA5A2A4AEAC35A4FF40076C8
:10444000731E9AB2B2F5006FB8D23340B6D132467D
:10445000D9B201910133012A02D0C2F34F02F7E72A
:1044600041F2B464C2F2000426604FF01009C4F8AF
:1044700004904023A36005934FF00008C4F80C801B
:104480004FF4806121610491204602F007FE484606
:10449000FFF79AF82A280499059B40F0BE8041F264
:1044A000AC69C2F20009D9F80020120422600D2282
:1044B00062600492A360C4F80C802161204602F07F
:1044C000EDFD049A1046FFF77FF82A2840F0A580FA
:1044D000404602F000FE4FF6FF78C0F20F0810F4DD
:1044E000807224D1B8F1000F00F0968008F1FF38F7
:1044F000D9F80010090421600D2161600591402068
:10450000A060E26004924FF48060206141F2B460E8
:10451000C2F2000002F0C2FD05990846FFF754F808
:104520002A287AD1049A104602F0D5FDD7E7B8F1CF
:10453000000F71D0C4F800A04FF0180AC4F804A00E
:104540004023A3604FF00009C4F80C904FF480633F
:10455000236141F2B460C2F2000002F09FFD5046B8
:10456000FFF732F82A2858D1039B1E6041F2D86326
:10457000C2F20003C3F8009041F2A863C2F2000344
:10458000C3F800B04FF6FF73C0F20F0385E8480090
:10459000019B1B01AB60C5F80C90C5F8109001247D
:1045A0006C6141F2E050C2F2000002F0A1FD40F265
:1045B0001A30214602F060FD58463146FEF7CFFF23
:1045C000204602F065FD4FF40050C1F2000002F0F9
:1045D0001EFC28B9029B1B6813B93B782A2BF2D02A
:1045E00040F22503C2F200033A782A2A02D0187852
:1045F000C0B212E040F2FF5002F0A1FD0DF11F0029
:10460000FEF7C6FE2A2808D19DF81F30063B012B75
:10461000F4D902E00E2000E0292009B0BDE8F08FB7
:104620002DE9F04F8BB017469A46BDF85050002444
:104630008DF823400994019008B9262046E140F204
:104640002506C2F200062A23337041F2886BC2F2BB
:10465000000BCBF8004041F2B069C2F20009C9F882
:10466000004041F2E058C2F200084FF6FF72C0F27B
:104670000F0288E81400C8F80840C8F80C40C8F8D1
:104680001040C8F81440404602F032FD204602F0C7
:10469000FFFC204602F01FFD10F0007F0296CDF8CF
:1046A00010B0CDF81490444640F00F8141F274638D
:1046B000C2F200031B68022B02BF7F0A47EACA57F7
:1046C0004FF400756B1E9AB2B2F5006FB5D22B4055
:1046D000B3D12A46D9B203910133012A02D0C2F3E1
:1046E0004F02F7E741F2B46BC2F2000BCBF8005077
:1046F0001026CBF804604FF0400ACBF808A04FF02A
:104700000009CBF80C904FF48068CBF81080584625
:1047100002F0C4FC3046FEF757FF2A285E4640F000
:10472000D58041F2AC61C2F2000108680791000433
:10473000CBF800000D23CBF804300693CBF808A08B
:10474000CBF80C90CBF81080584602F0A7FC069BE3
:104750001846FEF739FF2A28079940F0B780159BC5
:104760005D43B5F1007FBFF468AF41F27460C2F2FF
:1047700000000068022846D9376019277760402377
:10478000B3604FF00008C6F80C804FF480633361CB
:1047900041F2B460C2F2000002F080FC3846FEF73D
:1047A00013FF2A2840F09280059B1D6041F2D863D8
:1047B000C2F2000301271F6041F2A863C2F20003A6
:1047C000019A1A604FF6FF73C0F20F0384E82800C5
:1047D000039B1B01A360C4F80C80C4F810806761C0
:1047E00041F2E050C2F2000002F082FC40F21A30C6
:1047F000394602F041FC384602F04AFC019829464D
:10480000FEF7ADFE34E009680904CBF8001037214B
:10481000CBF804100691CBF808A0CBF80C90CBF89D
:104820001080584602F03AFC06990846FEF7CCFE86
:104830002A284BD1159BCBF800301721CBF8041058
:104840000691CBF808A0CBF80C90CBF81080584616
:1048500002F024FC06990846FEF7B6FE2A2835D158
:104860008AE7049B1B685BB9029B1B782A2B07D144
:104870004FF40050C1F2000002F0C9FA0028F0D055
:1048800040F22503C2F20003029A12782A2A02D0CB
:104890001878C0B21AE040F2FF5002F050FC00233A
:1048A0000993099A4FF6FE739A4207D8099B013380
:1048B000F6E79DF82330063B012B07D80DF12300C6
:1048C000FEF766FD2A28F4D000E00E200BB0BDE80C
:1048D000F08F10B541F2B460C2F2000000230C2446
:1048E00080E8180040228260C3604FF48063036157
:1048F00002F0D4FB2046BDE81040FEF765BE2DE96E
:10490000F8430546002002F0E6FB10F0007640F088
:10491000B28041F2B464C2F2000440274FF01009A3
:1049200084E88002A760E6604FF48068C4F81080D5
:10493000204602F0B3FB4846FEF746FE2A2840F028
:104940009B8041F2AC63C2F200031B6803FA09F3D7
:1049500023604FF03709C4F80490A760E660C4F8FC
:104960001080204602F09AFB4846FEF72DFE2A28CA
:1049700040F0828041F2E050C2F200004FF6FF7337
:10498000C0F20F0380E88800602383600223C360C5
:1049900006610123436102F0ABFB26604FF00D0975
:1049A000C4F80490A760E660C4F81080204602F0C6
:1049B00075FB4846FEF708FE2A285DD14FF40043F8
:1049C000C4F201035A6B40F22A63134083B94FF4D7
:1049D000004002F0AAFB0028F0D02C1F05F11C06B5
:1049E00002F09CFB44F8040FB442F9D12035E5E70E
:1049F000082002F09AFB28B1082002F0A0FB042056
:104A0000BDE8F883022002F090FB28B1022002F0FA
:104A100096FB0220BDE8F883202002F086FB28B137
:104A2000202002F08CFB0620BDE8F8834FF40070D4
:104A300002F07BFB30B14FF4007002F080FB0720E6
:104A4000BDE8F8834FF4001002F06FFB20B102F0D4
:104A500065FB45F8040BF5E740F2FF5002F06FFBF1
:104A6000A5F140031A6812BA43F8042BAB42F9D1FE
:104A70002A20BDE8F8830E20BDE8F88338B54FF44E
:104A8000807002F062FB044640B341F2D863C2F288
:104A900000031B68012B40F22504C2F2000403D17D
:104AA000FFF717FF207001E02A2323704FF4807076
:104AB00002F055FB4CF23A30002102F0DDFA41F2EF
:104AC0008863C2F2000301221A6041F27063C2F2ED
:104AD000000300221A602078C0B238BD022002F024
:104AE00034FB054690B1022002F039FB4CF23A301B
:104AF000214602F0C1FA41F27063C2F200031C6069
:104B000040F22503C2F2000302205FE0082002F019
:104B10001CFB044690B1082002F021FB4CF23A3015
:104B2000294602F0A9FA41F27063C2F200031D6047
:104B300040F22503C2F20003042047E0202002F0E7
:104B400004FB054690B1202002F009FB4CF23A30FC
:104B5000214602F091FA41F27063C2F200031C6038
:104B600040F22503C2F2000306202FE0102002F0DD
:104B7000ECFA044690B1102002F0F1FA4CF23A300F
:104B8000294602F079FA41F27063C2F200031D6017
:104B900040F22503C2F20003052017E04FF4007035
:104BA00002F0D3FAA0B14FF4007002F0D8FA4CF240
:104BB0003A30214602F060FA41F27063C2F200031B
:104BC0001C6040F22503C2F200030720187038BDB4
:104BD0002A2038BDFFF752BF38B5044641F2C865F8
:104BE000C2F200052846FFF78AFE2A2834D12B7826
:104BF0009B0923702B78C3F340136370AB781B02BF
:104C0000638063889AB2EB78134363802B791B0629
:104C1000636063686A7943EA024363606368AA7900
:104C200043EA022363606368EA79134363602B7A83
:104C300023726B7A6372AB7A1B09A372EB7A1B0245
:104C4000A381A3899AB22B7B1343A3816B7B9A0820
:104C5000A27303F00303E37338BD08B558B9FFF737
:104C600092F940F22403C2F20003187018782A382F
:104C700018BF012008BD012008BD08B578B941F270
:104C80001860C2F20000FEF7D8FF40F22403C2F21F
:104C90000003187018782A3818BF012008BD0120B9
:104CA00008BD13B51C46A0B9012B4FEAD2534FEAF9
:104CB00042224FF40070009003D10846FFF7C8F974
:104CC00003E001940846FFF79AFA2A3818BF01203A
:104CD00000E0042002B010BD13B51C46A0B9012BA2
:104CE0004FEAD2534FEA42224FF40070009003D1B2
:104CF0000846FFF758FB03E001940846FFF790FCD5
:104D00002A3818BF012000E0042002B010BD38B5D9
:104D1000154600284FD132292ED00FD8022921D094
:104D2000032923D0012948D141F21863C2F20003BC
:104D3000DA6C9B6C5B0A43EAC25337E0342929D012
:104D400022D335292DD0362937D141F20860C2F25D
:104D50000000FFF741FF284641F20861C2F200015E
:104D6000402225E04FF40073138026E041F21863DF
:104D7000C2F200031B6D19E041F21863C2F2000396
:104D800093F85630137018E0104641F21861C2F2E1
:104D9000000104E0104641F24461C2F20001102219
:104DA00006E041F21863C2F200031B7D2B6004E0B1
:104DB00003F052FE01E0042038BD002038BDF0B5FC
:104DC0008BB0074640F2F866C2F200066846FBF771
:104DD00003FF35466C460FCC0FC50FCC0FC52368BB
:104DE0002B603368FB717368BB71B3687B71F368C8
:104DF000FB7033690133BB7073693B8001200BB0DA
:104E0000F0BD08B50120FBF7F7FC45F64043C4F2BE
:104E1000000301221A6041F6B022C2F20002002013
:104E2000186045F64441C4F2000108604FF4E051B7
:104E30001180196008BD73B50021019145F640430A
:104E4000C4F200031A6892B201F1805000F5B85024
:104E500080000468A4B241F2E460C2F2000040F8AD
:104E60002140013108290546EED142F480611960E4
:104E700041F00101196022F0010292B242F4806116
:104E8000196045F64441C4F2000108684605F8D5AA
:104E90004FF6FF300860002000F1805404F5B8544C
:104EA000A40055F82060B6B2266001300828F3D17E
:104EB00042F481621A601A6892B242F004021A60E7
:104EC0004FF4E040C4F2000002680192026822F050
:104ED000030242F0010202604FF46D42CEF2000282
:104EE000146944F0040414610C68E40401D430BF74
:104EF00009E04EF6FF740C601C684FF6F771214014
:104F00001960019B0360136923F00403136102B06D
:104F100070BD10B545F64044C4F2000422684FF657
:104F2000FB7313402360FBF776FC4FF406432360CA
:104F300010BD10B5072841F2DC64C2F2000418BFAE
:104F400020702378052B56D8DFE803F0030E191DD7
:104F50002A3841F20473C2F200031B6813B9FFF749
:104F6000D8FF48E0052347E0FFF7D3FF0423237071
:104F700041F20473C2F2000301221A6010BD022341
:104F80006370032338E041F2DC62C2F2000263780E
:104F9000013BDBB2637063787BBB0423137010BDED
:104FA00045F64042C4F2000213689BB243F010037E
:104FB0001360052323700A23637010BD41F2DC6285
:104FC000C2F200026378013BDBB26370637803F0E6
:104FD000FF0093B945F64043C4F200031C684FF646
:104FE000EF71214019600623137041F20473C2F27D
:104FF0000003186010BD0623237010BD80B500AFFC
:1050000041F20873C2F200031B68984780BD70B577
:1050100088B045F64444C4F2000423689BB241F2D0
:105020001275C2F200052B802A8841F6B026C2F222
:1050300000063388134098050CD54FF6FF532360C4
:1050400041F21072C2F2000213780133DBB2137026
:1050500000F0DDF82A8833881340190401D502F0E6
:1050600017FE2A88338813405A0508D54FF6FF33B8
:10507000236040F28403C2F200035B6898472A88E9
:10508000338813409B0444BF4DF6FF7323602A8886
:1050900033881340D80405D54EF6FF7323600020F3
:1050A000FFF747FF2A883388134019050ED540F2D1
:1050B0002603C2F200031B7813B1FFF7BCFE02E027
:1050C0000220FFF736FF4FF2FF7323602A883388F0
:1050D0001340DA055BD54FF6FF63236045F648437E
:1050E000C4F200031B6813F4004F41F21470C2F2C3
:1050F000000047D00368013303600368032B43D9E2
:1051000045F64045C4F200052B6813F008033BD177
:105110002A6892B241F20C71C2F200010A6003F1F6
:10512000805202F5B8529200126892B208AE06EBB5
:10513000830646F8202C0133082BF0D10B6843F08E
:1051400001030B600B689BB22B600B6823F001031B
:105150000B600B689BB22B6023685B05FCD54FF698
:10516000FF332360002303F1805202F5B85292000E
:1051700008A901EB830151F8201C89B211600133A9
:10518000082BF0D1002303600720FFF7D2FE08B000
:1051900070BD70B545F64441C4F200010A6892B290
:1051A00041F21273C2F200031A801C8841F6B02249
:1051B000C2F200021088204010F4004F0E461C4638
:1051C000154601D002F064FD22882B8813405B0550
:1051D0000AD54FF6FF33336040F28403C2F2000376
:1051E0005B68BDE87040184770BD41F21C73C2F2A5
:1051F00000031B68184741F22073C2F200031B68CA
:10520000184741F21873C2F200031B68184741F2B5
:105210002473C2F200031B68184741F26C73C2F298
:1052200000031B68184741F23073C2F200031B6889
:10523000184741F26073C2F200031B68184741F23D
:105240007073C2F200031B68184741F24C73C2F23C
:1052500000031B68184741F23873C2F200031B6851
:10526000184741F22873C2F200031B68184741F245
:105270004073C2F200031B68184741F24473C2F244
:1052800000031B68184741F24873C2F200031B6811
:10529000184741F23C73C2F200031B68184741F201
:1052A0005C73C2F200031B68184741F22C73C2F210
:1052B00000031B68184741F26873C2F200031B68C1
:1052C000184741F23473C2F200031B68184741F2D9
:1052D0005873C2F200031B68184741F26473C2F2AC
:1052E00000031B68184741F25473C2F200031B68A5
:1052F000184741F25473C2F200031B68184741F685
:105300008823C2F200039B7A2BB141F2E063C2F220
:10531000000305221A60704741F2E063C2F2000305
:1053200004221A607047704710B521280BD141F64E
:10533000A823C2F200031B681B7803F07F03212B14
:1053400019D0022010BD2028FBD141F6A823C2F2BB
:1053500000031B681A7802F07F0245F2EF33C0F6B3
:105360000003212A18BF002341F27472C2F2000226
:10537000107023B9E5E745F2D333C0F6000341F6D8
:10538000A822C2F2000212689361002454822046CF
:105390009847204610BD41F6A823C2F200031B68BF
:1053A0001B7803F07F03212B07D1022807D0223876
:1053B00001288CBF02200020704702207047002087
:1053C000704721B901288CBF0220002070470220BD
:1053D000704738B941F6A823C2F200031B680822BF
:1053E0001A82704740F20010C2F20000704738B9CC
:1053F00041F6A823C2F200031B6808221A827047F4
:1054000040F20010C2F20000704710B540F2B80040
:10541000C2F2000000F11001FBF70CFA41F6A823DC
:10542000C2F200031B6800249C72FFF7EAFC03F041
:1054300096F9FBF721FF41F2E063C2F200031C6022
:1054400010BD10B541F6A823C2F200031B6800246A
:105450009C7249F68D72C0F60002D2795A72DC72E3
:10546000204602F03FFD20464FF4007102F060FD3F
:105470002046102102F081FD2046402102F02CFF41
:105480002046802102F006FF204602F038FE40F25E
:105490008403C2F20003204693F82C1002F098FF18
:1054A000204602F003FE0120214602F041FD0120CA
:1054B000C02102F0EFFE0120202102F05EFD01205C
:1054C000214602F092FD02204FF4C06102F030FD4F
:1054D00002204FF4807102F0DDFE0220214602F02E
:1054E00084FD0220202102F048FD0320214602F025
:1054F0001FFD032002F02BFE03204FF488714FF4B0
:10550000B07202F0A9FF03200121402202F0DDFF6A
:10551000032002F065FE032002F08FFE032002F05C
:105520003EFE03204FF4405102F05FFD0320214670
:1055300002F023FD204602F038FB41F2E063C2F2A4
:10554000000301221A6010BD10B541F27474C2F25A
:1055500000042378202B03D1FBF7D8FE002323700F
:1055600010BD40F2D001C2F2000102F0E3B840F2F7
:10557000F801C2F2000102F0DDB841F6A823C2F240
:1055800000031B68D978042907D840F2D803C2F277
:10559000000303EBC10102F0CDB80020704740F2D8
:1055A000B403C2F2000304221A7041F26C73C2F217
:1055B000000345F20B42C0F600021A6041F230735C
:1055C000C2F2000345F24342C0F600021A6041F203
:1055D0006073C2F2000345F24952C0F600021A603D
:1055E00041F27073C2F2000345F22732C0F60002A6
:1055F0001A6041F24C73C2F2000345F22932C0F640
:1056000000021A6041F23873C2F2000345F2973289
:10561000C0F600021A6041F22873C2F2000345F29C
:10562000C332C0F600021A6041F24073C2F20003B6
:1056300045F26352C0F600021A6041F24473C2F2AE
:10564000000345F26F52C0F600021A6041F248733F
:10565000C2F2000345F27B52C0F600021A6041F22A
:105660003C72C2F2000247F65143C0F600031360D9
:1056700041F25C72C2F2000245F2FF21C0F6000165
:10568000116041F22C72C2F20002136041F26872A2
:10569000C2F20002136041F23472C2F200021360DF
:1056A00041F25872C2F20002136041F26472C2F217
:1056B0000002136041F25472C2F20002136041F220
:1056C0005073C2F2000345F21932C0F600021A60AC
:1056D000704738B541F28932C2F2000210780128D1
:1056E0006AD141F29431C2F200010B680C4633B921
:1056F000137040F68833C2F20003187023E0402B89
:1057000041F29032C2F20002116888B281BF40318A
:105710001160403B23608FBF40259DB25B18136032
:105720009CBF0023236040F68933C2F20003184473
:10573000C0212A4602F0ADFB0120294602F028FED6
:10574000012002F08AFC41F28C33C2F200031B6894
:1057500093B340F68833C2F200031B78012B2BD1A0
:1057600041F29431C2F200012368402B41F29032A1
:10577000C2F2000207D91468A0B240341460403B62
:105780000B60402406E01568A8B29CB22B4413605D
:1057900000230B6040F68933C2F200031844C02195
:1057A000224602F076FB0120214602F0F1FD0120A5
:1057B000BDE8384002F051BC38BD10B5032002F0FE
:1057C000A4FB10F0400F4FF003004FF001010CD08C
:1057D00002F06BFF032002F028FF044641F27570CF
:1057E000C2F200004FF488710BE002F05EFF03206C
:1057F00002F03BFF044641F27570C2F200004FF424
:10580000B071224602F05CFB41F27570C2F20000FA
:10581000E1B2FBF719FE0320BDE8104002F046BCE0
:1058200041F2E063C2F200031B68052B0DD141F287
:10583000B873C2F200031A68511C052A01D019601E
:10584000704700221A60FBF719BE704710B5044676
:1058500040B9FEF798FB40F22403C2F2000318702F
:10586000204610BD012010BD07B578B9BDF8141051
:1058700000910498FEF797FD40F22403C2F2000362
:10588000187018782A3818BF012000E0012003B0F2
:105890005DF804FB07B578B9BDF8141000910498C1
:1058A000FEF7D6FB40F22403C2F20003187018780A
:1058B0002A3818BF012000E0012003B05DF804FB86
:1058C00070B5054608B1012070BDFEF75CFB2A28C3
:1058D000F9D141F21864C2F200042046FEF7ADF996
:1058E000B4F8540000042946FEF736FB227ED2B2FB
:1058F00094F85630022B41F2CC75C2F200050ED15D
:10590000216901314FF0FF324FF0FF334FF4002097
:10591000E0FB0123520A42EAC3522A600DE0217AD9
:10592000236901330232934001228A404FF400710F
:1059300092FBF1F2520893402B6041F2BC76C2F226
:1059400000064FF400733360B4F8540000040021E3
:10595000FEF702FB40F22404C2F2000420704FF470
:105960000060FEF7BBFA207023782A2BABD141F2FE
:10597000C473C2F2000331682A684A431A600020E7
:1059800070BD2DE9F74F834641F6F414C2F20004CE
:10599000237841F2E075C2F200057BB941F2BC7395
:1059A000C2F2000353F8200041F6E413C2F20003F0
:1059B0004143196042432A60012323702378012B5D
:1059C00054D141F2D877C2F200073B6841F6E4189F
:1059D000C2F2000841F2E479C2F2000941F2D47641
:1059E000C2F20006C3B9CDF8009041F2BC7AC2F20F
:1059F000000A3AF82B2001925846D8F80020FFF709
:105A000049FF81204946402202F0BCFE5AF82B3063
:105A1000403B3B6040230AE03168812049444022FA
:105A200002F0B0FE3B68403B3B603368403333607C
:105A30000120402102F0ACFC0120302102F09DFA4F
:105A4000D8F800304033C8F800302B68403B2B605A
:105A500041F67023C2F200039A68403A9A604FF40C
:105A6000C050C4F20100012100F022FF2B68FBB9F5
:105A700041F2D872C2F20002136041F2D472C2F253
:105A80000002136041F6E412C2F20002136041F614
:105A90002422C2F200020321117023704FF4C0507F
:105AA000C4F20100012103B0BDE8F04F00F002BFD5
:105AB00003B0BDE8F08F2DE9F34141F2DC75C2F28D
:105AC0000005D5F800E041F6F414C2F20004237892
:105AD0009BB941F2BC73C2F2000353F8206041F657
