:020000040800F2
:1000000000000120BD7C0008590500085B050008C0
:100010005D0500085F05000861050008000000009C
:100020000000000000000000000000006305000860
:100030006505000800000000670500086905000864
:10004000097D0008097D0008097D00089D0500085C
:10005000097D0008097D0008097D0008097D000868
:10006000097D0008097D0008097D0008097D000858
:10007000097D0008097D0008097D0008097D000848
:10008000097D0008097D0008097D00089505000824
:1000900099050008097D0008097D0008097D000810
:1000A000097D0008097D0008097D0008097D000818
:1000B000097D0008097D0008097D0008097D000808
:1000C000097D0008097D0008097D0008097D0008F8
:1000D000097D0008097D000859160008097D0008FF
:1000E000097D0008097D0008097D0008097D0008D8
:1000F000097D0008097D0008097D0008097D0008C8
:10010000097D00089D4B0008097D0008097D000855
:10011000097D0008097D0008097D0008097D0008A7
:10012000097D0008097D0008097D0008097D000897
:1001300000000000000000000000000000000000BF
:1001400000000000000000000000000000000000AF
:10015000000000000000000000000000000000009F
:10016000000000000000000000000000000000008F
:10017000000000000000000000000000000000007F
:10018000000000000000000000000000000000006F
:10019000000000000000000000000000000000005F
:1001A000000000000000000000000000000000004F
:1001B000000000000000000000000000000000003F
:1001C000000000000000000000000000000000002F
:1001D000000000000000000000000000000000001F
:1001E0005FF8E0F113B500230093019300F073FA78
:1001F0004FF47A7000F046F90198022817DC4FF4AA
:100200007A7000F083F93048202106F0ADF80446FA
:100210002D48402106F0A8F8204310F0FF0F02D12E
:100220000123009303E001994A1C0192E4E700983E
:1002300028B12648264A1060264A274B3FE022482C
:10024000402106F091F8224CC8B10220234B1860DF
:10025000234A2260234C20490C602348234B18601A
:10026000234A244C2260244924480160244A254B17
:100270001A60254C25490C6004F0FAFF20E0124872
:10028000202106F071F8144B124AB0B10120134935
:1002900008601F4820601A601E4C144B1C601E4AE8
:1002A00014490A601248154C2060164B18601B4A0E
:1002B00016490A6005F03CFF02E0044921601A601B
:1002C000034B1C68A047FBE700180140550D0008D0
:1002D00070020020C1150008EC0F002074020020FD
:1002E0000D130008E1120008655300083C130020BC
:1002F000157600083813002025540008401300200C
:100300008154000844130020C54D0008301300201C
:10031000A1130008B95B0008095E0008414E0008FF
:1003200082B0384B1A6842F0010018605968364AAA
:100330000A405A60186820F0847121F480321A60F3
:10034000186820F4802119605A6822F4FE00586071
:100350004FF41F019960002200920192186840F446
:1003600080311960274B1A6802F40030019000991F
:100370004A1C0092019818B90099B1F5A06FF1D10B
:100380001B6813F4003218BF012201920198012862
:1003900005D04FF000601D4A906002B070471C49C4
:1003A0000B6843F010020A60086820F003030B603A
:1003B0000A680A60A1F58050416841604368436063
:1003C00042684260416821F47C134360426842F411
:1003D00030214160036843F080720260094A01687D
:1003E0008901FBD5506820F003035360516841F048
:1003F00002005060034A536803F00C010829F9D148
:10040000C7E700BF001002400000FFF800ED00E069
:1004100000200240144A516801F00C000428134BDC
:1004200003D0082804D0124800E0124818600FE0FA
:1004300051685068C1F383410231C00301D40E4AB0
:1004400004E0526890034CBF0C4A0A4A51431960B9
:10045000054B5968C1F30310094A115C034B186836
:1004600020FA01F0186070470010024010000020D0
:1004700000127A00001BB70000093D00808D5B0070
:100480000000002030B587B00190042005F014FF73
:10049000019A194D2B68B3FBF2F0B0F1807F2AD29C
:1004A000411E164B5960F024154A82F8234000245F
:1004B0009C60072018600820012106F07BF803A843
:1004C00006F058FA29680F4BB1FBF3F2501EADF855
:1004D0000C004FF6FF71ADF81010ADF81240ADF8FA
:1004E0000E40094803A906F0FBF90748012106F070
:1004F0004AFA07B030BDFEE71000002010E000E02F
:1005000000ED00E040420F00000C004082B001907E
:10051000019A034B1A6018680028FCD102B070479A
:100520007802002008B50A4B1A680AB90948186011
:10053000186841186B46994206D907F0E7FB0C2171
:1005400001604FF0FF3008BD014A116008BD00BFD7
:100550007C020020E41600207047FEE7FEE7FEE77D
:10056000FEE770477047704708B5084B1A6812B12C
:100570001868411E196000F05FF9054B1A681AB936
:10058000BDE8084000F0C2BB08BD00BF78020020F3
:100590007402002007F024B904F00CBC704710B5B9
:1005A0000131002393420ED0040F092C01D83034BE
:1005B00000E0373401F8014C0001002401F8024B3F
:1005C0000133DBB2EEE710BDF7B57D20012105F068
:1005D000E5FF4FF6FF73ADF8043003268DF8066093
:1005E00000278DF807701F4801A905F071FE1E4D08
:1005F000284601A905F06CFE1C4801A905F068FE1B
:100600001B4801A905F064FE1A4C204601A905F01B
:100610005FFE7D20394605F0C1FF4820012105F02D
:10062000BDFFADF804608DF8066010208DF807005E
:10063000204601A905F04CFE4FF48076ADF8046029
:10064000284601A905F044FE2846314605F094FEEF
:100650002046012105F090FE2046022105F08CFE87
:10066000FEBD00BF00080140000C01400010014029
:10067000001401400018014013B54020012105F08D
:100680008DFF7823ADF8043003248DF80640282030
:100690008DF807000B4801A905F01AFE042001217E
:1006A00005F07CFF4FF48071ADF804108DF8064022
:1006B00004228DF8072004480DEB020105F008FE26
:1006C0001CBD00BF00180140000801404FF0006051
:1006D000002105F0E7BD08B5FFF79CFEFFF7F6FF28
:1006E000FFF772FFFFF7C8FF00F010F900F00CFAF7
:1006F000BDE8084000F020B97FB5002005F0BEFE3F
:10070000002005F0B5FE4FF480304FF4801105F065
:10071000A5FE012005F0ACFE392005F05DFF0028A4
:10072000FAD00C4B1A6842F010001860196821F0DA
:1007300003021A60186840F002011960022005F0F7
:100740009DFE05F0A5FE0828FBD101A805F0CCFE12
:1007500007B000BD0020024007B52020012105F0B0
:100760001DFF0823ADF8043003208DF80600142186
:100770008DF80710024801A905F0AAFD0EBD00BFC3
:100780000014014008B5002005F08AFE4FF4000077
:100790000121BDE8084005F00DBF000018B1044874
:1007A000082105F0E9BD0248082105F0E3BD00BFBE
:1007B0000014014070B506460D460A4B18680A4AF7
:1007C0001468111D0B6818180AD031460822FFF76B
:1007D000E6FE204629460422BDE87040FFF7DFBE52
:1007E00070BD00BFE8F7FF1FECF7FF1F00231A469C
:1007F0000F4931F81300121892B20533322BF7D19A
:100800000A21B2FBF1F00205110D40F6C62359434F
:10081000C1F30F30420092B2064BB3F90010481CEE
:1008200002D0481000EB52021A80B3F90000704762
:10083000D80200209002002070B52C484FF480713F
:1008400005F092FD01282A4B0ED11868411C196051
:1008500040F6B834A14209D900F06EFA25484FF4A9
:10086000005105F087FDFEE700221A60224C256842
:100870002DB1FFF7BBFF214B1860013D25602048DB
:100880000268511C0160B1F57A7F2ED90024046002
:100890001A4D2B6803265E43FFF7A8FF80198008D6
:1008A000286040F6B8329042164B1DD9B0F5616F02
:1008B000154A06D20221116040F62E52904203D909
:1008C0000FE0012111600CE019684A1C1A600C2A23
:1008D0000BD900F031FA07484FF4005105F04AFDFA
:1008E000FEE70020186070BD1C6070BD000801406C
:1008F0008402002000100140140000209402002017
:100900008C020020880200201800002007B510206B
:10091000012105F043FE4FF40053ADF804300120EF
:100920008DF8060010218DF80710024801A905F086
:10093000CFFC0EBD0010014070B54FF404700121D2
:1009400005F02CFE0120014605F01CFE404903265F
:100950008E700F230B800025CD703E4805F0B8FC4B
:100960004FF40070012105F019FE3B4805F0FCFE34
:100970003A493B4808603B4A4A608D603224CC606B
:100980000D6180234B614FF4807088614FF4806269
:10099000CA6120240C624D628D622F4805F05CFF15
:1009A0002D48012105F078FF2F490D6001240C71BD
:1009B0004C714FF460238B60CD6005250D742B487E
:1009C00005F01EFE204605F0C3FE284809212246F8
:1009D000072305F066FE2548102102222B4605F06C
:1009E00060FE22480A213246072305F05AFE1F48BE
:1009F0000C210422072305F054FE1C480D212A4631
:100A0000072305F04EFE1948214605F097FE1748CA
:100A1000214605F019FE204605F09AFE134805F020
:100A200025FE124805F027FE0028FAD10F4805F0F0
:100A300026FE0E4805F028FE0028FAD10B480121B9
:100A400005F00BFE09480121BDE8704005F020BE0D
:100A50003C0300200010014008000240AC020020CE
:100A60004C240140D80200209802002000240140BC
:100A700073B5064602A840F8041D07F04DF9436916
:100A800003F26C714161344605460FCD0FC40FCDA2
:100A90000FC42868206030467CBD10B5044605F0C0
:100AA0009FFF01462046FFF7E3FF204610BD10B52B
:100AB0000446012006F07CF905F0C6FF204605F04B
:100AC000A3FF05F0C1FF0020BDE8104006F070B99B
:100AD00084B030B58BB00EAC84E80F0001AC0EAD25
:100AE0000FCD0FC40FCD0FC42B6823600698A0F262
:100AF0006C71069101A807F04BFAFFF7D8FF0BB015
:100B0000BDE8304004B0704770B586B0142006F0E0
:100B10003FF94AF2A554A0424FF0C0504FF00101F6
:100B20004FD005F047FD012006F042F91420214680
:100B300006F020F906F015F9012005F0B7FC412078
:100B400005F04AFD0028FAD04FF4807005F0BEFC95
:100B5000012005F0C3FC05F077FF0120014605F0F8
:100B60001FFF05F071FF47F6FF7005F05DFF05F010
:100B70006BFF1A4C40F2D9736361062020610F218C
:100B8000E1601722A2602D266660254645F8106BAD
:100B90006E460FCD0FC62B68336094E80F00FFF749
:100BA00097FF05F051FF012006F002F914204AF2E8
:100BB000A55106F0DFF8002006B0BDE8704006F051
:100BC000F7B805F0F7FC05F049FF0120014605F0F4
:100BD000E7FE06B0BDE8704005F036BF40030020D8
:100BE00010B50024094B186880470028FAD00CB9CA
:100BF0002428F6D1064908550134A4B20A2803D0A6
:100C0000B4F5007FEDD2EDE7E0B210BD1012002088
:100C1000D00500200278303AD1B2092909D84378AA
:100C2000303BDAB2092A04D80A2000FB0121C8B2FD
:100C300070470020704700000023C25C22B10349C6
:100C4000595C01338A42F8D010467047D005002025
:100C5000074B58B11A4612F8011B1346202904D934
:100C60002C29F8D10138C0B2F3E7002318467047A9
:100C7000D005002000B5A1B002460B4691F9001046
:100C8000684619B9104900F041FE02E00F4900F032
:100C90003DFE9DF90030242B0AD16B4620A800228E
:100CA00013F8011F2A2904D0834202D04A40F7E7F3
:100CB00000220748694600F01DFE00F0E7FC00280E
:100CC000FBD021B000BD00BF8B85000888850008DF
:100CD0008F85000810B50C4C204604F031F8E278FE
:100CE000A378580540EA0241627941EAC223A0791B
:100CF00043EA4011E27941EA52032088A0F2BC7134
:100D000043EA416010BD00BFC405002010B5074C88
:100D100023685A1C226041F28830834205D9044876
:100D20000449FFF7A7FF0021216010BDCC0500207A
:100D3000968500089585000808B5044B186820B111
:100D4000034802F0ABF80028FAD108BDD007002014
:100D500064030020F0B58FB00024ADF83240A04A03
:100D6000A04B1A60A048A149086002204FF4164128
:100D700000F066FB9E489F49FFF77CFF6420FFF769
:100D8000C5FB02204FF4E13100F05AFB9848994925
:100D9000FFF770FF6420FFF7B9FB02204FF41651F4
:100DA00000F04EFB94489549FFF764FF944893493F
:100DB000FFF760FF93489449FFF75CFF934894491D
:100DC000FFF758FF93488D49FFF754FF9248934926
:100DD000FFF750FF2046924901F0C2FE00F044FCAC
:100DE0000025904E35609048022105F0C3FA30BFCF
:100DF000FFF7F6FE0028FBD08B48022105F0BCFA75
:100E00008948012105F0B6FA8848FFF715FF18B1A7
:100E10008748FFF711FF38B90220FFF719FF044692
:100E20008148012105F0A8FA0027824A1760002CAA
:100E3000DDD02378412BDAD101247A4804607A4846
:100E4000022105F099FA7848214605F095FA2046E6
:100E5000FFF7FEFE0546FFF7DDFE774FB860A81CE2
:100E6000FFF7D8FE7860281DFFF7D4FE3860092010
:100E7000FFF7EEFE0446FFF7CDFEF860A01CFFF77B
:100E8000C9FE411E3961201DFFF7C4FE6430786140
:100E9000384607F07DF800F5FD401030FFF707FEFB
:100EA00002A8FFF7FAFD3D4602AE0FCE0FC50FCEEA
:100EB0000FC532682A607A69642592FBF5F603460D
:100EC000F86800905D485E4905FB1622013300F08A
:100ED0001DFD5C4F38465949122201F051FE002891
:100EE00073D13846F96801F0E0FF00286DD1FFF7B3
:100EF00077FE054600283FF473AF5348FFF79CFE8A
:100F000038B90620FFF7A4FE04460278302A0BD138
:100F100019E04648FFF790FEA8B90220FFF798FEB7
:100F20000446017841290ED13F48022105F022FAFA
:100F3000444842492A460DAB01F0BAFE002844D18C
:100F40000D9EB54241D14148FFF776FE38B90620E3
:100F5000FFF77EFE0446007830280BD118E03448B5
:100F6000FFF76AFEA0B90220FFF772FE044603787D
:100F7000412B0DD12C48022105F0FCF931482F49B5
:100F80002A460DAB01F094FEF8B90D9FBD421CD16D
:100F9000BDF83250691C8AB2ADF832205A2A08D8FE
:100FA0002148022105F0E8F90020224B186030BFEB
:100FB0009DE71D48022105F0DDF90026ADF83260FD
:100FC000204801F03CFF0028EAD01748022105F034
:100FD000D1F91C4801F062FF0028F6D100E700BFFC
:100FE0007D1500080C120020E916000810120020E0
:100FF0009F850008A8850008AD850008E7850008E2
:10100000B6850008BF850008C8850008CA850008A5
:1010100075900008D3850008DC850008E585000888
:101020008C030020D007002000180140E98500084B
:10103000F0850008CC05002040030020D0050020EA
:10104000F785000864030020088600080F86000862
:10105000F7B51F4C4FF4165323600020A080E080AA
:101060002081A0810C2161810520012105F096FAE3
:101070004FF40030012105F09DFA04221746ADF827
:10108000042003268DF8066018258DF80750114DB1
:10109000284601A905F01CF90823ADF804308DF8A5
:1010A00006608DF80770284601A905F011F9A5F52D
:1010B00044452846214605F09DFD2846012105F0BE
:1010C000FCFD284640F22551012205F002FEFEBD3E
:1010D000F81100200008014073B5384A1379012B3C
:1010E0000AD04FF0000404D3022B2ED14FF400514C
:1010F00004E03348C48003E04FF44051304CE180B9
:101100005279012A0AD04FF0000404D3022A1CD1DC
:101110004FF4C06104E02A4B1C8103E04FF480616E
:1011200027480181254CA279072A4FF0000402D0FC
:10113000082A0AD102E022498C800AE0204D2E893B
:101140000EB14FF48056AE8003E0FFF781FF2046DA
:1011500032E01B4C194B186820600022A2810C253C
:1011600065810520012105F019FA4FF400300121B5
:1011700005F020FA04210E46ADF8041003258DF881
:10118000065018238DF807300E4801A905F0A0F885
:101190000820ADF804008DF806508DF80760094866
:1011A00001A905F095F80848214605F023FD0648F9
:1011B000012105F082FD01207CBD00BF0801002057
:1011C000F8110020000801400044004070B50646B8
:1011D0000D460024AC420BD20648315D05F093FD6C
:1011E0000448802105F097FD0028F9D00134F1E78B
:1011F00070BD00BF0044004038B500221F4B1A707C
:101200001F480178012938D01E4B1868B0F5006FCF
:1012100008BF1A601B681C4A11688B4203D100206A
:10122000174B187038BD194C8CBFC3F50061C3EB68
:101230000101216015492468402C124A98B205D951
:1012400040331360403C0C60402504E0A5B2E31835
:10125000136000240C60012409490C700C4A10181A
:10126000C0212A4606F0F6FA2046294606F022FC5E
:101270002046BDE8384006F06DBB38BDD4070020DD
:10128000D50F0020DC0F0020D80F0020E00F002039
:10129000D507002010B50E4B9A79072A0D4806D1C4
:1012A00004680D4805F033FD00F07F0005E0082AD2
:1012B00005D10468084805F02AFD08490855054B82
:1012C0001A68501CB0F5006F08BF0020186010BDF0
:1012D00008010020D80F002000440040D50700205E
:1012E00008B5094840F2255105F01BFD08B1FFF78C
:1012F000D1FF0548082105F00EFD20B10248BDE8E8
:10130000084005F004BD08BD0044004037B5FFF7B4
:10131000F3F9FFF77FF800F0ADFD1D481D4900F01F
:1013200081FE1B4800F090FE00F08AFD002001467F
:10133000194A012300F0F6FCFFF70EFA0020FFF730
:101340002DFAFFF71FFA4FF4C06004F06DFF14236D
:101350008DF8043001248DF8054000258DF80650E5
:101360008DF8074001A804F069FF26208DF80400DD
:101370008DF8055001A804F061FF06F04DF92046F4
:10138000FFF70CFA05490A68052AFBD1FEE700BF02
:10139000141200203B860008168600082C1300203B
:1013A00013B5FFF7A9F9FFF735F800F063FD204802
:1013B000204900F037FE1E4800F046FE00F040FDD8
:1013C000002001461C4A012300F0ACFCFFF7C4F9E1
:1013D0000020FFF7E3F9002004F066F8FFF7D2F9E8
:1013E0004FF4C06004F020FF14238DF80430012472
:1013F0008DF805408DF806408DF8074001A804F0EF
:101400001DFF13208DF804008DF8054000218DF894
:1014100006108DF8074001A804F010FF06F0FCF854
:101420002046FFF7BBF9054A1368052BFBD1FEE701
:10143000141200203B860008288600082C13002088
:101440002DE9F34104468846022855D12B4D2C4BFB
:101450002B600520012105F0A1F84FF40030012197
:1014600005F0A8F804200746ADF8000003268DF823
:10147000026018218DF803102248694604F028FF05
:101480000822ADF800208DF802608DF803701D4829
:10149000694604F01DFF4FF4C06004F0C5FE26232A
:1014A0008DF804308DF8054000248DF806400126A3
:1014B0008DF8076001A804F0C1FE134F384605F00F
:1014C000F1FBC7F800802868394605F093FB0F4808
:1014D0000F490860A0F80242A0F80042A0F80642B6
:1014E000A0F80442286840F22551324605F0F1FB8D
:1014F0002868314605F0E1FBBDE8FC81E80F0020DB
:101500000044004000080140F8110020F00F0020C6
:10151000E40F002010B50346B0F80442B0F80622EC
:10152000601C00F0FF04D2B2A41A18BF01249CB1C1
:10153000B3F8040282B272B6D2B2981880F80011E1
:10154000511CCAB2A3F8042262B6044B186840F2D8
:101550002771012205F0BDFB204610BDE80F0020D9
:10156000034672B6B0F8022290B2185CB3F80212C9
:101570004A1CD1B2A3F8021262B670470146074B6B
:101580001B68B3F80402B3F80622013000F0FF0034
:10159000D2B29042F5D01846FFF7BCBFE40F00204E
:1015A000064B1868B0F80022B0F80212D2B2CBB2E3
:1015B0009A4201D0FFF7D4BF00207047E40F00200B
:1015C00070B5234840F2255105F0ABFBD0B1214C5A
:1015D000B4F80052681CC5B2B4F80262B6B21C4836
:1015E00005F095FBC1B2B54206D1194840F225512C
:1015F000002205F06EFB05E0B4F800329AB2A15467
:10160000A4F80052124C204640F2277105F089FBE5
:10161000E8B11048B0F806128BB2B0F8042291B2CB
:10162000994207D1204640F227710022BDE8704060
:1016300005F04FBBB0F806329AB2811891F800312C
:10164000A380B0F80622511CCBB2A0F8063270BDC0
:1016500000440040F00F002008B5024B1868804796
:1016600008BD00BFEC0F0020064B18680022A0F850
:101670000222A0F800220449086840F22551012204
:1016800005F027BBE40F0020E80F0020064B186888
:10169000B0F8062291B2B0F8043298B2421A514220
:1016A00051EB0200704700BFE40F002008B5FFF7C0
:1016B00077FFA8B90B4A138899B2108010290ED071
:1016C00004D808290CBF0520002009E0202904D0F7
:1016D00040290CBF1A20002002E00D2000E0182055
:1016E00040B208BD8002002008B5FFF7DFFFC0B29E
:1016F0000028FAD008BD000010B504460A2802D11F
:101700000D20FFF7F9FF064A13681BB103F8014BE0
:10171000136010BD0348016809B1E0B2884710BDED
:10172000081200200C12002010B5441E14F8010FFE
:1017300018B140B2FFF7E0FFF8E710BD2DE9F04F18
:1017400085B004460E462078002800F0D08040B2D4
:10175000252801D001346EE0607843B2302B03D1EC
:10176000A0780334012507E02D2B02D00234002598
:1017700002E0A078033402254FF00008A0F1300108
:10178000092943B207D80A2202FB0838A8F1300819
:1017900014F8010BF2E76C2B01D04C2B03D145F070
:1017A000040514F8010B002800F0A18047B2602F57
:1017B000C6BFA0F12002D2B2024651B24F2940D09A
:1017C00006DC43292ED044290DD0422932D136E0FF
:1017D000552908D058292BD053292BD1371DD6F89D
:1017E0000090002601E00A212CE019F906204AB1F8
:1017F0000136FAE706F1010A464506D22020FFF736
:101800007BFF5646A80701D4F4E756464846FFF743
:101810008BFF464501D33E4695E72020FFF76CFF3E
:101820000136F6E7371D96F90000FFF765FFF2E78E
:10183000102107E040B2FFF75FFF3746EBE70221D8
:1018400000E00821336852B2371D442A04D1002B2E
:1018500002DA5B4245F008050022B3FBF1FE01FB12
:101860001E33DEB273464FFA86FCBCF1090F07DD6A
:10187000782814BF4FF007094FF027094E44F6B2FD
:1018800030360DF80260561CBEF1000F04D0102E49
:1018900001D03246E1E70F22290705D504A88119B6
:1018A0002D2301F8103C961C15F0010F0CBF4FF0D2
:1018B000200B4FF0300BB146AB0709D409F1010AF8
:1018C000C14504D25846FFF717FFD146F4E7D14689
:1018D000013E1DF90600FFF70FFF002EF8D1C145AC
:1018E00099D22020FFF708FF09F10109F7E705B0B9
:1018F000BDE8F08F0FB407B504A951F8040B0191AE
:10190000FFF71CFFBDE80E4004B070470EB417B5DA
:1019100005A951F8043B074C206001911846FFF7D8
:101920000DFF2268002010702060BDE81E4003B04B
:10193000704700BF0812002070B596B04FF4807059
:10194000012104F01FFE40F2E110012104F026FE07
:101950004FF4FF43ADF81C3018208DF81F00032111
:101960008DF81E102F4807A904F0B2FC1025ADF821
:101970001C502D4C204607A904F0AAFC2022ADF8EB
:101980001C20204607A904F0A3FC4FF40063ADF827
:101990001C30204607A904F09BFC4020ADF81C0039
:1019A0008DF81F50204607A904F092FC8021ADF865
:1019B0001C10204607A904F08BFC4FF48074ADF88E
:1019C0001C401A4E304607A904F082FC30462146DE
:1019D00004F0D0FC022200920192029205230393AC
:1019E000049305930020069004240794089009901E
:1019F0000A950B900C900D900E900F904FF4805123
:101A000010911190129013900DEB00021492159208
:101A100007A804F0B3FC2046012104F00DFD16B028
:101A200070BD00BF0018014000140140000C0140CF
:101A30000A460146134600F0E1B900002DE9F04FD7
:101A400085B0804689469A462D4B1868477AFE082D
:101A500007F007071178527842EA012000F006FBF0
:101A6000044608EBC60B1FFA8BFB0025244B1868B5
:101A7000817A8D4240DA0022B24221DA08EBC20CB0
:101A80001FFA8CFC0023A05C00FA03F0010612D5BB
:101A90000CEB030009EB050180B289B203920193BC
:101AA000CDF808C0FFF7C4FF504600F09DF9DDF8FF
:101AB00008C0019B039A0133082BE4D10132DBE714
:101AC000A4190023BB4213DA207800FA03F00206BF
:101AD0000CD50BEB030209EB050190B289B201931F
:101AE000FFF7A6FF504600F07FF9019B0133E9E7BD
:101AF00007B101340135B9E705B0BDE8F08F00BF8B
:101B0000201200202DE9F04F85B0804689469A4684
:101B10002B4B18684779FE0807F00707104600F0BE
:101B200099FA044608EBC60B1FFA8BFB00252449E3
:101B30000A6893799D4240DA0022B24221DA08EB2A
:101B4000C20C1FFA8CFC0023A05C00FA03F0010613
:101B500012D50CEB030009EB050180B289B20392A8
:101B60000193CDF808C0FFF763FF504600F03CF941
:101B7000DDF808C0019B039A0133082BE4D1013240
:101B8000DBE7A4190023BB4213DA207800FA03F044
:101B900000060CD50BEB030209EB050190B289B2EC
:101BA0000193FFF745FF504600F01EF9019B0133FA
:101BB000E9E707B101340135B9E705B0BDE8F08FB9
:101BC0001C1200202DE9F84F06460D469946BDF837
:101BD00028A0DFF8A0B0DBF8003093F809804FEAC6
:101BE000D80708F007081078517841EA002000F083
:101BF0003DFA0446DBF80020537AF118907A2B184E
:101C0000304601392A46013B00F0F8F84FF0000B4E
:101C1000184A1168887A834529DA0025BD420FDA0F
:101C20000026625D02FA06F212F0800F0CBF5046E9
:101C3000484600F0D9F80136082EF2D10135EDE71B
:101C4000E419002545450BDA237803FA05F313F070
:101C5000800F0CBF5046484600F0C6F80135F1E74A
:101C6000B8F1000F00D001340BF1010BD0E7BDE853
:101C7000F88F00BF201200202DE9F84F06460D46D0
:101C80009946BDF828A0DFF898B0DBF8003093F84B
:101C900005804FEAD80708F00708107800F0DAF955
:101CA0000446DBF80000417972188379EB1830465E
:101CB000511E2A46013B00F0A1F84FF0000B1848D6
:101CC00001688A79934529DA0025BD420FDA00269A
:101CD000605D00FA06F010F0800F0CBF50464846D9
:101CE00000F082F80136082EF2D10135EDE7E41953
:101CF000002545450BDA237803FA05F313F0800F2E
:101D00000CBF5046484600F06FF80135F1E7B8F1D6
:101D1000000F00D001340BF1010BD0E7BDE8F88FC4
:101D20001C120020F7B504460E4615461F462A78B9
:101D3000002A39D07F2C39D89F2E37D882F08003E3
:101D40001F2B1B4901D9DF2A16D93FB90B68204642
:101D500031462A461B88FFF771FE08E009680B88A8
:101D60004A880092204631462A46FFF72BFF02356B
:101D700010480168487A14E037B90B6820463146AC
:101D80001B88FFF7BFFE08E00A68138850880090A0
:101D9000204631462A46FFF76FFF013506490A689B
:101DA00050792418A4B2C2E7012000E00020FEBD53
:101DB0001C000020201200201C12002038B5094C05
:101DC000402525616420FEF7A1FB656180236361E6
:101DD0006420FEF79BFB25616420BDE83840FEF7D8
:101DE00095BB00BF001401400209034B1A8000019B
:101DF00081B21980704700BF0000026870B54FF0D3
:101E0000D0464FF4287434800C4C00252580C0B295
:101E1000000120802580C9B2080120804FF42C7178
:101E200031802580D2B2100120802580DBB21901DB
:101E300021804FF43072328070BD00BF0000026814
:101E400007B500207F2102469F23FFF7D7FF4FF4FD
:101E5000A0430193064840F6FF7202804FF6F071EE
:101E60000180019B581E01900028F3D10EBD00BFD8
:101E7000000002682DE9F843FFF75EFDFFF79EFFC3
:101E80004FF0D04410252580B420FEF73FFB4FF4DF
:101E9000807323806420FEF739FB4FF48870208024
:101EA0009620FEF733FB4FF4316121804F4B6026C3
:101EB0001E803020188020221A804FF4346727803B
:101EC00018804FF4366121801A804FF0E00CA3F89F
:101ED00000C04FF4756727804FF4D07119804FF41C
:101EE000406EA4F800E01A80002119804FF4416789
:101EF000278050271F804FF4426727801A801A805E
:101F00004FF4436727801D801A804FF44467278071
:101F10001D801A804FF4456727804FF48E671F801D
:101F20004FF468771F804FF47268A4F800801A801D
:101F30004FF47669A4F800904FF49868A3F80080F5
:101F40004FF47869A4F800901E804FF46068A4F8FC
:101F500000801E804FF4E079A3F800904FF4F878E9
:101F6000A3F80080A3F800804FF4C078A3F80080A5
:101F70004FF49879A3F800901E80188018804026AE
:101F80001E8070201880188019804FF461662680AA
:101F9000A0261E804FF4A0761E804FF4D8761E80B7
:101FA000A3F800804FF490761E80A3F800C01A803A
:101FB0001D8019801D8080221A80188019804FF49E
:101FC00058702080A3F800E027804FF4AA621A809E
:101FD0004FF4547020801980FFF732FF4FF42473C0
:101FE00023801420BDE8F843FEF790BA0000026891
:101FF00070B50B4B1968CD7A14220023AB420BDA73
:102000000C68A61836F8026C864202D8A45A84429C
:1020100004D201330432F1E74FF0FF33184670BDAC
:102020002012002010B50160D1F80E40E2B24271DA
:10203000CB7B837114F0070F4FEAD20118BF013137
:102040004B43037110BD0000014B1860704700BF87
:102050001C120020044B19680A79504300F1110347
:102060000868C018704700BF1C12002010B5044655
:10207000FFF7BEFF431C05D148F2A010FFF7B8FFE1
:1020800048F2A014074B1B6803EB400291891A68C1
:1020900002EB8000428AA41A0C19197A5B6801FBD2
:1020A000043010BD2012002010B50023D41A032CD8
:1020B00003D9CC58C4500433F8E702F0030422F0EB
:1020C000030280188A180023A34203D0D15CC154B4
:1020D0000133F9E710BD8218904202D000F8011BCD
:1020E000FAE77047436A0433490A02689078B1FB03
:1020F000F0F1186830B1814202D3091A0833F8E7C9
:102100005B68C818704708B580B1036873B11A7866
:1021100062B1D9888088814208D1587802F092FD56
:1021200010F0010F0CBF0020032008BD092008BDDE
:10213000F8B50446007908B3656B04F13807607898
:1021400039462A46012302F0A4FDB0B92071A36AE2
:102150009D4201D20020F8BD226A98188542F9D22A
:10216000E678012EF6D9216A6D18607839462A463C
:10217000012302F08EFD013EF3E70120F8BD0000CF
:1021800070B50446FFF7D4FF05465DBB2378032BEB
:1021900020D16079F0B1656304F1380630462946F4
:1021A0004FF40072FFF797FF4AF65521A4F8361254
:1021B0000D4AA2630D4BC4F81C322069C4F82002FA
:1021C000E168C4F82412607831466269012302F0A4
:1021D00060FD6571607800210A4602F06FFD0030F5
:1021E00018BF012070BD00BF52526141727241613F
:1021F00038B504460D46436B99420CD0FFF798FF63
:1022000058B9607804F138012A46012302F02CFD08
:1022100018B9656338BD002038BD012038BD000005
:1022200010B504460A46407804F13801012302F053
:102230001BFDA0B9B4F836224AF655239A4210D1B4
:10224000D4F86E1021F07F42074B9A420AD0D4F89E
:102250008A0020F07F41C81A18BF012010BD03205A
:1022600010BD022010BD00BF464154002DE9F041D1
:102270001546026892F90030303B092B06D892F9D6
:1022800001403A2C02D10232026001E0784B1B7807
:1022900000200860002B40F0D880764C2468002C89
:1022A00000F0D6800C60217881B1607802F0CAFC21
:1022B000C3070BD4002D00F0CE8000F00402D3B28F
:1022C000002B14BF0A200020BDE8F0810020207000
:1022D000607002F0A7FCC10700F1C0802DB100F0D2
:1022E0000403DAB2002A40F0BC8020460021FFF748
:1022F00097FF01280CD194F8FA0110B90D20BDE820
:10230000F081D4F8FE5120462946FFF789FF00E00E
:102310000025032800F0A8800028EFD1B4F843106E
:10232000B1F5007FEAD1B4F84E3003B9E36D236212
:1023300094F84860E670721E012ADFD894F84500D0
:10234000A0700028DAD0411E0142D7D1B4F849105C
:1023500021810A07D2D1B4F84B2002B9A26DB4F89A
:1023600046C0BCF1000FC9D006FB03F80CEB1117F7
:102370004744BA42C2D3D21BB2FBF0F2002ABDD00E
:1023800040F6F576B24206D94FF6F57082428CBF20
:102390000326022600E001260232E261656205EBB7
:1023A0000C00A0627F192763032E05D10029A5D157
:1023B000606EE06291000EE000299FD008EB000102
:1023C000E162022E01D1510005E00320504302F0EA
:1023D000010202EB500101F2FF12B3EB522F8DD339
:1023E0004FF0FF3323610021E160032E20D16171A2
:1023F000B4F868002A186261607804F1380101239A
:1024000002F032FCA0B9B4F836224AF655239A42BB
:102410000ED1A16B184881420AD1D4F81C32174A58
:10242000934205D1D4F82412E160D4F8200220614F
:102430002670134A1388591C88B21080E08000204F
:1024400060632071A061BDE8F0810B20BDE8F081E0
:102450000C20BDE8F0812846BDE8F0810320BDE8EE
:10246000F0810A20BDE8F0810120BDE8F08100BFC5
:1024700024120020281200205252614172724161E0
:10248000261200200239C3699A1E914204D2827832
:10249000006B02FB0100704700207047F8B504464E
:1024A0000D46012948D9C369994245D201780229CC
:1024B00027D0032930D001293BD105EB5506826A8C
:1024C00002EB5621FFF794FE002832D1F00504EB11
:1024D000D05797F838700136A36A204603EB56218F
:1024E000FFF786FE28BBF60504EBD65494F83810A7
:1024F00047EA0120EA0701D50009F8BD0205100DE1
:10250000F8BD826A02EB1521FFF772FE88B92D062D
:1025100004EBD554208FF8BD836A03EBD511FFF788
:1025200067FE30B96D0604EBD554A16B21F0704005
:10253000F8BD4FF0FF30F8BD0120F8BD70B504467E
:102540000D46E1808168012901D1022070BD036838
:10255000DA699142F9D271B91878032801D1D96AA0
:1025600049B90020E0601989A942EED9DB6A03EB82
:102570001512226119E09E783601B5420ED320680B
:10258000FFF78CFF0146013018D00129DDD92368FF
:10259000DA699142D9D2AD1BADB2EEE7E1602068B5
:1025A000FFF770FF00EB1511216105F00F056D01BC
:1025B0003835206841196161002070BD012070BD6F
:1025C000F8B504460D46164601295DD9C3699942FE
:1025D0005AD20178022939D0032942D001294FD19A
:1025E00005EB5507826A02EB5721FFF701FE002831
:1025F00047D1F805C20D15F00105F3B207D0A118B7
:1026000091F8380000F00F0141EA0313DBB2A21881
:1026100082F83830013701202071A16A204601EB91
:102620005721FFF7E5FD60BBFF05FA0D15B1C6F3B5
:10263000071607E0A31893F8381021F00F07C6F328
:1026400003263E43A71887F838601AE0826A02EB37
:102650001521FFF7CDFDA0B92D0604EBD5552E872A
:102660000FE0826A02EBD511FFF7C2FD48B96D0693
:10267000ED0D3835635903F070410E43665100E0AB
:10268000022001232371F8BD0220F8BDF8B50546EC
:102690000F4631B9C6686EB1C069864228BF0126AF
:1026A00009E0FFF7FBFE01283BD9EB69984239D3DB
:1026B0003E4600E0012634460134E9698C4204D3E9
:1026C000012E01D80020F8BD022428462146FFF73C
:1026D000E5FE48B1411C02D14FF0FF30F8BD0128A2
:1026E0001FD0B442E8D1EDE7284621466FF0704292
:1026F000FFF766FF98B947B9EC602B695A1C0CD0FC
:102700005A1E2A610120687107E028463946224690
:10271000FFF756FF0028EFD001E02046F8BD012862
:10272000DAD00120F8BD2DE9F84304460F46C688EB
:10273000701C86B216B90420BDE8F8832369002B0B
:10274000F9D016F00F085AD1591C2161E1682068B0
:1027500019B90189B142EED951E08278531E13EACA
:1027600016124CD1FFF79AFE0546012802D8022026
:10277000BDE8F883431C02D10120BDE8F88320683E
:10278000C1698D4235D3002FD5D0E168FFF77EFFB8
:10279000054600283FD00128E9D00130ECD0206860
:1027A000FFF7C6FC07460028E6D1206838303946D6
:1027B0004FF40072FFF78FFCD4F80090484629468A
:1027C000FFF760FEC9F8340020688278BA420DD95C
:1027D000012101712068FFF7ABFC0028CCD12068F3
:1027E000426B531C43630137FFB2EDE7436BDF1BC2
:1027F0004763E56020682946FFF744FE2061E680D4
:102800004FEA481808F13808206800EB08026261B6
:102810000020BDE8F8830720BDE8F8832DE9F041EA
:1028200004460F4691F900302F2B01D05C2B02D1CA
:102830000137002101E000688169A1603A781F2A10
:102840004AD820460021FFF779FE00226261BDE8E8
:10285000F08107460678013073B22F2BF9D05C2B3C
:10286000F7D0A669304620210B22FFF734FC97F9F8
:1028700000102E293AD1317078782E282ED1707020
:10288000B87803232F282BD1FF1820288CBF2023B2
:102890002423F37220460021FFF750FE30B9206850
:1028A0002169FFF7A5FC002800F0A680A169CB7A7A
:1028B000002800F0BA80042840F0D88003F02002FD
:1028C000D1B203F00400002900F0B6800023A36019
:1028D0006361002840F0AD803846BAE70223D1E7B3
:1028E0005C28D1D0202800F2C080CDE70022944699
:1028F0000821154617F80C805FFA88F30CF10100E7
:10290000202B42D92F2B42D05C2B40D02E2B6CD0C9
:102910008A4280F0AA8018F0800F18BF45F00305A6
:1029200003F17F085FFA88FEBEF11E0F06D903F19E
:1029300020085FFA88FEBEF11C0F1AD817F8008035
:102940000CF10200A8F1400EBEF13E0F05D988F04F
:10295000800CBCF17C0F00F2888001F1FF3E7245D3
:1029600080F08380B354B31883F801800232844628
:10297000C0E7DFF8FC8018F801CFBCF1000F20D0D1
:102980004FFA8CFC9C45F6D16FE0042300E0002355
:10299000002A6AD03278E52A01D10522327008294E
:1029A00001D1A900CDB205F00302012A08BF43F00E
:1029B000100305F00C05042D08BF43F008033F1871
:1029C00067E7A3F14108B8F1190F02D845F00205F5
:1029D00008E0A3F1610EBEF1190F03D845F001051F
:1029E000203BDBB2B3540132C1E708293DD1AD0031
:1029F000EDB20A460B21BAE76269117899B1D37A30
:102A000003F00801CBB24BB9A6690346D55CF15C73
:102A100001338D4202D10B2BF8D147E7204600212C
:102A2000FFF781FE3AE7042040E703F00400C2B25A
:102A300042B10020BDE8F081002814BF0420052029
:102A4000BDE8F0816369D97A01F01000C2B24AB1E1
:102A50005E8B21680878032804BF9B8A46EA0346F8
:102A6000A66039E70520BDE8F0810620BDE8F081C9
:102A70004B90000810B5044620682169FFF7B8FBA9
:102A800050B963691978E52906D029B1204601219A
:102A9000FFF749FE0028EFD010BD38B504460021ED
:102AA000FFF74CFD0546B8B92046FFF7E3FF0546A2
:102AB00090B920682169FFF79BFB054660B9606902
:102AC00029462022FFF707FB6069A1690B22FFF767
:102AD000EBFA236801221A71284638BDF7B504467F
:102AE0000F46012939D9C369994236D20D46E069AA
:102AF000854205D220462946FFF7D0FC064608B994
:102B000000202BE0012828D0013024D0204629467F
:102B10000022FFF755FD08BB2269511C03D0511C50
:102B2000216101236371681CB04212D020463946EE
:102B3000FFF7A8FC009020462946FFF7A3FCA578E4
:102B40006F1E3A180192607804216A4602F0B6F8C6
:102B500037463546CBE7012000E00220FEBD0000ED
:102B600048B9064A136803B1187009B1002008700B
:102B70001160002070470B20704700BF2812002012
:102B80002DE9F0438DB0019117460546002800F06D
:102B900082800023036001A805A902F01E02FFF74E
:102BA00065FB804600287FD102A80B9005A80199FB
:102BB000FFF734FE0A9C18B9002C0CBF0620002039
:102BC00007F01F0617F01C0F3BD048B1042802D1B4
:102BD00005A8FFF762FF46F008060A9C48B162E0CC
:102BE000E07A10F0110F5DD107F00401CFB2002F91
:102BF00054D106F00802D3B2002B2FD0FEF76AF8AA
:102C0000C4F80E000021E172E1610598678B02783B
:102C1000032A04BFA28A47EA02476183A1820123F3
:102C20000371DFB1D0F834903946FFF757FF002821
:102C300039D10598013FC7604946FFF7D9FA68B115
:102C400031E000282FD1E17A01F01002D3B23BBB72
:102C500007F00207FFB20FB1CB0723D406F008003C
:102C6000C1B209B146F02006059B5A6BEA612C629D
:102C7000AE71608B1978032904BFA18A40EA014034
:102C80002861E269EA600020A860A86168622B60A0
:102C9000DB88AB8008E04FF0090805E0082002E07F
:102CA000042000E00720804640460DB0BDE8F083D8
:102CB0002DE9F74F04468846174699460023C9F880
:102CC0000030FFF720FA0546002840F0B580A079D3
:102CD000020600F1AE8000F00201CAB2002A00F044
:102CE000AA80E368DF4228BF0027FFB1A168CB05B7
:102CF0006FD1206890F802A00AF1FF3202EA512356
:102D000013F0FF0A1DD131B92169A9B9FFF7BEFC43
:102D10000146206109E0626A1AB12046FFF7E2F934
:102D200002E06169FFF7B2FC014629B9A068E168D9
:102D3000884279D9E06077E0012913D04B1C55D047
:102D400061612068416BA369994203D1FFF7F0F9F3
:102D500000284BD12268104661690192FFF792FB6F
:102D6000019B20B9A37963F07F02A27161E000EBBF
:102D70000A0B7E0A20D0987806EB0A01814288BFB0
:102D8000CAEB0006587841465A46F3B201F081FF7B
:102D9000824658BB2068436BCBEB0302B24209D298
:102DA000383008EB42214FF40072FFF77DF92068BC
:102DB00080F804A076022CE0A068E168884206D37F
:102DC0001846FFF7B5F988B92668C6F834B0C4F8D4
:102DD00018B0A268D305D80DC0F50076B74238BF49
:102DE0003E462068A169FFF703FA28B1A57965F08E
:102DF0007F01A17101251FE0A168CA05D00D3830FF
:102E00002368181841463246FFF74EF9216801221F
:102E10000A71B044A1688B19A360D9F800209019F9
:102E2000C9F80000BF1B60E7A37943F02002A2713C
:102E300002E0022500E007252846BDE8FE8F70B5B8
:102E40000446FFF760F9002827D1A37903F0200199
:102E5000CAB2002A21D02068E169FFF7C9F9064605
:102E6000DEB9256AE87A40F02003EB72E168E96197
:102E700022696A83100CA882FDF72CFFC5F81600A2
:102E80006E82A37923F02001A171206801220271D2
:102E90002068BDE87040FFF773B970BD10B50446F7
:102EA000FFF7CDFF00B9206010BD2DE9F84F0446B3
:102EB0000D46FFF728F90646002840F0DA80A7798A
:102EC000380600F1D380636A002B5CD0691C32D1D4
:102ED0001D4655F804BBD4F810800227B8F1000F46
:102EE00021D0C1464FF0000A0AF1010A2068494684
:102EF000FFF7D4FA012840F2A280421C00F08B8038
:102F000009F1010281469042EED002375F4504D8B4
:102F1000C5F800A0C5F8048008352168CB6998423F
:102F200001D28046DDE7606A07605F4500F2A0805D
:102F300000222A609DE0E068854228BF0546A56022
:102F4000002D00F0968005F1FF3820464146FFF73E
:102F5000C9F801466061D4F800904846FFF792FA3C
:102F600018B967F07F07A77180E099F80220ED0596
:102F70007FD0551E05EA582800EB0801A369994245
:102F800077D0A16175E0E068854205D907F00207B6
:102F9000FFB2002F08BF0546A1680022A2600DB94C
:102FA000002553E0206883785F0269B14B1E691EDB
:102FB000B1FBF7F1B3FBF7F2914205D3784203403E
:102FC000A360ED1A61690AE0216939B9FFF75EFB78
:102FD0000146012833D0431C1DD0206161610029C6
:102FE000DED00AE001292AD92068C269914226D29E
:102FF0006161A368D819A060ED1BBD4216D9A37901
:1030000003F00202D3B220685BB1FFF73FFB014639
:1030100058B1481CE6D1A67966F07F01A17101265E
:1030200027E0FFF73BFA0146F3E73D46A268531954
:10303000A360EA05B4D02068FFF724FA20B9A37989
:1030400063F07F00A07111E000EB5525A168CA056F
:1030500003D0A069854218BFA561E268914208D9F2
:10306000E160A37943F02001A17102E0022600E0B3
:1030700011263046BDE8F88F08B50C4A536B13F0A3
:10308000450FFBD05A0704D5042003F09DFD032013
:1030900008BDDB0704D5012003F096FD012008BD23
:1030A00040F2FF5003F090FD2A2008BD008001404F
:1030B00037B50446002200920192504850490B68EF
:1030C000190401600D23436040218160C2604FF408
:1030D0008062026103F024FD4A48436B0193019929
:1030E00011F0450FF9D0019A500704D5042003F0E0
:1030F0006BFD032081E0019D15F0010504D0012046
:1031000003F062FD012078E003F020FD01900198BA
:103110000D2801D0102070E040F2FF5003F054FD64
:10312000284603F019FD0090009BC3F34321217052
:10313000009A3548104000283CD0009B002B3BDB18
:10314000009949003AD4009A920039D40098C300FB
:1031500038D4009B180137D40099490136D4009A1D
:10316000D20135D40098030234D4009B5802D1D444
:103170000099890230D4009AD2022FD40098030318
:103180002ED4009B58032DD4009989032CD4009A87
:10319000D2032BD4009803042AD4009B580429D4CA
:1031A0000099890428D4009A12F0080F0CBF2A2035
:1031B0001A2022E02A2020E01C201EE009201CE02A
:1031C0000A201AE00B2018E00C2016E00D2014E075
:1031D0000E2012E00F2010E011200EE012200CE073
:1031E00013200AE0142008E0152006E0162004E071
:1031F000172002E0182000E019203EBD0413002033
:10320000FC1200200080014008E0FFFD70B58CB08A
:1032100005460E46134803F059FB134C2046002187
:1032200003F03AFB114B0193029510200390B6086E
:10323000049600210591802206924FF400730793B3
:103240004FF40060089009914FF400520A920B91DC
:10325000204601A903F000FB2046012103F01CFBDE
:103260000CB070BD00F000104404024080800140AA
:1032700070B58CB005460E46134803F027FB134C7F
:103280002046002103F008FB114B0193029500201A
:103290000390B60804960590802206924FF40071C0
:1032A00007914FF40063089309904FF400520A927B
:1032B0000B90204601A903F0CFFA2046012103F02C
:1032C000EBFA0CB070BD00BF00F0001044040240E7
:1032D0008080014038B50546394A536B13F0450FDD
:1032E000FBD0590704D5042003F06EFC032038BD41
:1032F00013F0010404D0012003F066FC012038BD66
:1033000003F024FCA84258D140F2FF5003F05CFCCB
:10331000204603F021FC2B490140002929D0002838
:1033200029DB420029D4830029D4C10029D4020119
:1033300029D4430129D4C10129D4020229D443024A
:103340003BD4810227D4C20227D4030327D44103EC
:1033500027D4820327D4C30327D4010427D44204EB
:1033600027D4830427D410F0080F0CBF2A201A207A
:1033700038BD2A2038BD1C2038BD092038BD0A20A0
:1033800038BD0B2038BD0C2038BD0D2038BD0E20B7
:1033900038BD0F2038BD112038BD122038BD132094
:1033A00038BD142038BD152038BD162038BD172073
:1033B00038BD182038BD192038BD102038BD00BFD9
:1033C0000080014008E0FFFD2DE9F3478046002022
:1033D00003F0C2FB10F0007540F0DE80009501950F
:1033E000704C4FF008094FF0100A84E8000640279F
:1033F000A760E5604FF480662661204603F090FBED
:103400005046FFF767FF2A2870D1674B186800FA0B
:103410000AF121604FF0370AC4F804A0A760E56004
:103420002661204603F07CFB5046FFF753FF2A2815
:103430005CD15E485E4A80E804023022826002234A
:10344000C36005610121416103F092FB25604FF0EB
:103450003309C4F80490A760E5602661204603F0B4
:103460005FFB4846FFF736FF2A283FD1ADF1040441
:103470005048426B40F22A63134053B94FF4001096
:1034800003F098FB0028F3D003F088FB44F8040F06
:10349000EEE7082003F08EFB20B1082003F094FB38
:1034A00004207CE0022003F085FB20B1022003F021
:1034B0008BFB022073E0202003F07CFB20B1202056
:1034C00003F082FB06206AE04FF4007003F072FB09
:1034D00028B14FF4007003F077FB07205FE040F263
:1034E000FF5003F071FB009D2DBA01E02A2856D150
:1034F000B8F1010F26D16B0350D52A4C2A48026837
:1035000013042360372565604FF04008C4F8088035
:103510000027E7604FF480662661204603F000FB39
:103520002846FFF7D7FE2A2839D10223062584E84A
:103530002800C4F80880E7602661204603F0F0FA0E
:10354000284624E0E80329D5164C174E376839047D
:103550002160372666604FF04008C4F808800025D7
:10356000E5604FF480672761204603F0D9FA3046C2
:10357000FFF7B0FE2A2812D1256006266660C4F83F
:103580000880E5602761204603F0CAFA304602B0A1
:10359000BDE8F047FFF79EBE0E2000E0252002B0F8
:1035A000BDE8F08704130020FC1200202C1200203C
:1035B000FFFF0F00008001402DE9F84F6548B2235E
:1035C00003750024046044608460C460046103F0F7
:1035D00069FA032003F084FA012003F07BFA5E48C5
:1035E000046044608460C4604FF48061016103F052
:1035F00097FA4FF48034802003F0DCFA002846D19B
:10360000013CF8D141E040F2FF5003F0DDFA2046E2
:1036100003F0A2FAC60F01374FF6FF71002E40F0FB
:103620008B808F4200F092804B4C26604FF0370B1E
:10363000C4F804B04FF0400AC4F808A0E6604FF4A4
:103640008069C4F81090204603F06AFA5846FFF7E4
:1036500041FE2A2878D148F0004343F480112160CC
:1036600029206060C4F808A0E660C4F810902046E5
:1036700003F056FA394C626B12F0450FFBD012F092
:103680000404C0D0042003F09FFA03255FE040F259
:10369000FF5003F099FA30484FF4D57108224023C7
:1036A000002480E81E004FF48062026103F038FAC3
:1036B0002A48456B4FF4803615F0450F04D136B1DA
:1036C000013E264D6D6BF7E70EB1690714D5042056
:1036D00003F07AFA20480024372580E830004021A2
:1036E0008160C4604FF48062026103F019FA2846D9
:1036F000FFF7F0FDA04609E06A0602D5402003F07E
:1037000063FA0124164B1C604FF0804812480026D3
:1037100006603724446040258560C6604FF48063AE
:10372000036103F0FDF92046FFF7D4FD05462A2882
:103730000DD1374630466FE78F4207D0430006D59C
:103740000220074A106002E0054600E01B252846DB
:10375000BDE8F88FE0120020041300200080014033
:10376000C412002038B503F0C1F9002800F094809D
:103770004F4B1868042823D04E48002505600222CC
:103780004260C0218160C5604FF48064046103F031
:10379000C7F9FFF771FC04462A2840F086802846C6
:1037A00003F0DAF9444C2060042003F0D5F960609E
:1037B000082003F0D1F9A0600C2003F0CDF9E060FF
:1037C0003B4B1868012803D9062801D0022836D1BE
:1037D0003848002101600322426040248460C160B7
:1037E0004FF48063036103F09BF93449486B10F098
:1037F000450FFBD0420704D5042003F0E5F903246C
:1038000053E010F0010404D0012003F0DDF901249D
:103810004BE003F09BF9032842D140F2FF5003F044
:10382000D3F9204603F098F910F4604F01D1020C4F
:1038300006E0830436D4440432D4000434D4012294
:103840001B4B1968042929D01D4D2A60194C1004FE
:10385000206009226260C023A3600025E5604FF468
:1038600080612161204603F05BF9FFF705FC044607
:103870002A281AD1284603F06FF9124D2860042037
:1038800003F06AF96860082003F066F9A8600C206C
:1038900003F062F9E86008E0252406E02A2404E049
:1038A000102402E0132400E00F24204638BD00BF9E
:1038B000C412002004130020C81200200080014020
:1038C000FC1200204412002070B59E4B1D6880F849
:1038D00056509D490A68A0F854209C4C2668330E27
:1038E00099090170C3F38302427003F003038370EC
:1038F000C6F30741C170C6F307220271F6B24671E2
:103900006368190E0A01C280C3F30746C1888AB2F0
:1039100042EA1611C18006F00F060672C3F30722B1
:10392000D1B2CE094672C2F380168672C2F3401637
:10393000C672C2F30016067300264673012D3CD8EA
:1039400002F00306B10201610569DBB245EA8302B8
:103950000261A468260E016941EA96150561C6F365
:10396000C203037506F007024275C4F307467109E6
:103970008175C6F38205C57506F003035A00027609
:10398000C4F30721047E44EAD11606760669057E53
:10399000027A012303FA02F40465023503FA05F200
:1039A000D517A2FB042304FB05330136A2FB064511
:1039B00006FB0355C0E912451CE0022D1AD103F0A5
:1039C0003F052B040361A4680169220E41EA022528
:1039D00005610369C4F3074141EA03020261C4F3CC
:1039E00007210469651C6B0BC364EA0482644FF40D
:1039F00000740465C1F38014447601F03F014A006D
:103A00008276524DAB68847EC3F3C01144EA010252
:103A1000827603F07F03C376ED682C0EE10901770F
:103A2000C4F341124277C4F38203837704F00304A2
:103A3000A100C177C5F30742C37F43EA9214C4775C
:103A4000C2F3401180F82010002380F8213002F0EA
:103A5000010280F82220C5F30724E10980F8231031
:103A6000C4F3801380F82430C4F3401280F825207A
:103A7000C4F3001180F82610C4F3810380F82730C6
:103A800004F0030480F82840C5F3460580F8295067
:103A9000012180F82A102E4B1A68140E80F82C4051
:103AA000C2F307452C02C485C58DACB2C2F307250D
:103AB0002C43C485120602635A68046B150E44EA4F
:103AC00005440463046BC2F3074544EA0524046318
:103AD000046BC2F307252C430463D2B280F8342070
:103AE0009A68150E80F83550C2F3074425068563A1
:103AF000846BC2F3072544EA05448463846BD2B225
:103B000044EA02248463DB68826B42EA13648463C0
:103B1000C3F3074290F83C4044EA121480F83C405A
:103B200002F00F021402C487C28F92B2C3F30724BB
:103B30002243C287C3F3460380F8403080F8411027
:103B40002A2070BDC4120020FC1200204412002064
:103B5000C812002038B50546194B186803282BD029
:103B6000022827D8B5F5805F26D0B5F5006F0FD1B4
:103B70000120FFF729FC04462A281ED11148012301
:103B800003750021016041608160C56001610EE044
:103B90000020FFF719FC04462A280ED1094801210C
:103BA00001750022026042608260C260026102F020
:103BB00079FF02E02A2400E02724204638BD00BF18
:103BC000C4120020E0120020022803D8024B186023
:103BD0002A207047262070472800002010B5094B86
:103BE000186007245C6040229A600020D8604FF47F
:103BF00080611961184602F093FF2046BDE810402D
:103C0000FFF768BB0413002073B5B020012102F058
:103C1000C5FC4FF4F853ADF8003003208DF80200D6
:103C200018218DF803102A48694602F051FB04223E
:103C3000ADF800202748694602F04AFB4FF40065C2
:103C4000ADF8005048238DF803302348694602F050
:103C50003FFB4FF48060012102F094FC022001211F
:103C600002F090FC02F00CFFFFF7A6FC2A282ED1F0
:103C7000FFF778FD2A282AD1184801260675002466
:103C8000046044608460C460046102F00BFF312072
:103C90008DF804008DF805408DF806408DF807601A
:103CA00001A802F0CBFA0E4E3046FFF70DFE2A288F
:103CB0000DD1B6F854100804FFF790FF2A2806D15A
:103CC0002846FFF747FF2A2804BF064A14607CBD38
:103CD0000010014000140140001C0140E0120020CF
:103CE00058120020280000202DE9F74F894616467B
:103CF000804608B92624F2E02A227A4B1A70002462
:103D00007948046079490C6079487A4B80E818005A
:103D10008460C4600461446102F02AFF204602F01E
:103D2000F9FE204602F018FF830100F1D780724CA3
:103D30002268022A04BF4FEA59294FF40076701E08
:103D400083B2B3F5006FD5D210EA0601D2D137465F
:103D5000012F04D0C7F34F074D1CE9B2F8E7674DB8
:103D60002E6010246C604FF0400BC5F808B04FF087
:103D7000000AC5F80CA04FF480622A612846019120
:103D800002F0CEFE2046FFF7A5FA04462A28019B42
:103D900040F0A5805648574980E8420019018160EB
:103DA0000224C460C0F810A0476102F0E1FE4F4851
:103DB0000660534AC2F800A0524BC3F80080C5F811
:103DC000009011246C60C5F808B0C5F80CA04FF441
:103DD00080612961284602F0A3FE2046FFF77AFAA7
:103DE00004462A287BD148480268022A49D1454620
:103DF000464E736B40F22A661E406EB94FF4004087
:103E000002F0D8FE0028F3D002F0C8FEA851043614
:103E1000202EF9D12035EBE7082002F0CBFE20B1AF
:103E2000082002F0D1FE042459E0022002F0C2FE74
:103E300020B1022002F0C8FE022450E0202002F04F
:103E4000B9FE20B1202002F0BFFE062447E04FF467
:103E5000007002F0AFFE28B14FF4007002F0B4FE23
:103E600007243CE04FF4001002F0A4FE20B102F061
:103E700095FE45F8040BF5E740F2FF5002F0A4FE72
:103E80002DE0012A0CD148F22A30394602F036FEE4
:103E9000154B1968134BD9B918782A28F8D017E0B0
:103EA000EAB940F22A30394602F028FE384602F0DC
:103EB00031FE40463146FFF7DBF9154802F0F8FCC9
:103EC000084B28B90849086810B91A782A2AF4D08A
:103ED0001A782A2A03D0034C247800E00E242046C6
:103EE000BDE8FE8F24000020D8120020001300201F
:103EF0002C120020FFFF0F00C4120020041300202A
:103F000018130020DC12002028000020008001404F
:103F1000002000102DE9F74F884693469A46074641
:103F200008B9262424E12A21934B197000249348D0
:103F30000460934A14609348934B80E818008460AF
:103F4000C4600461446102F013FE204602F0E2FD09
:103F5000204602F001FE820100F107818B4C2168AE
:103F6000022904BF4FEA58284FF4007B0BF1FF3CB5
:103F70001FFA8CF3B3F5006FD3D21CEA0B0ED0D12D
:103F80005E46012E06D0C6F34F060EF101055FFA1C
:103F900085FEF6E77E4DC5F800B010246C60402029
:103FA000A8604FF00009C5F80C904FF480622A61B8
:103FB0002846CDF804E002F0B3FD2046FFF78AF969
:103FC00004462A28DDF804C040F0D280BAF1010F7F
:103FD00040F2CE800AFB0BFABAF1007FA1D2684909
:103FE000C1F800A06B4B1E606B4807606548664ACD
:103FF00080E804044FEA0C1282600221C160C0F81C
:104000001090466102F0B4FDC5F800804FF0120830
:10401000C5F804804023AB60C5F80C904FF4806075
:104020002861284602F07CFD4046FFF753F92A2814
:1040300040F09D80594A1168022969D1584B586B4C
:1040400040F22A3404406CB94FF4004002F0B2FD53
:104050000028F3D002F0A2FD38510434202CF9D10D
:104060002037EBE7082002F0A5FD20B1082002F080
:10407000ABFD04247CE0022002F09CFD20B1022074
:1040800002F0A2FD022473E0202002F093FD20B193
:10409000202002F099FD06246AE04FF4007002F03F
:1040A00089FD28B14FF4007002F08EFD07245FE017
:1040B0004FF4001002F07EFD20B102F06FFD47F8D2
:1040C000040BF5E74FF4807002F074FD28B940F25C
:1040D000FF5002F079FD2A244AE02C4A116819B1F8
:1040E000022901D00129F2D1294800220C2480E8BC
:1040F000140040238360C2604FF48062026102F0CA
:104100000FFD2046FFF7E6F804462A2830D1DEE707
:1041100001290CD148F22A30314602F0EFFC174B4E
:104120001868154BD8B91A782A2AF8D017E0F9B9C7
:1041300040F22A30314602F0E1FC304602F0EAFC5F
:1041400038465146FFF794F8164802F0B1FB0A4B87
:1041500028B90A48026812B919782A29F4D01978BE
:104160002A2905D0044C247802E00E2400E00446FD
:104170002046BDE8FE8F00BF24000020D81200209A
:10418000001300202C120020FFFF0F00C41200209B
:104190000413002018130020DC1200202800002047
:1041A00000800140002000102DE9F04F85B00F463F
:1041B000154600248DF80F40064608B9262050E128
:1041C0002A22A94B1A70A9480460A9490C60A94881
:1041D000A94A80E814008460C4600461446102F06C
:1041E000C7FC204602F096FC204602F0B5FC810197
:1041F00000F13481A14A1368022B02D17F0A4FF4E7
:10420000007505F1FF381FFA88F0B0F5006FD5D2C0
:1042100018EA0508D2D12C46012C06D0C4F34F046D
:1042200008F101085FFA88F8F6E7954C25604FF031
:10423000100AC4F804A04021A1604FF00009C4F89E
:104240000C904FF4806BC4F810B02046019102F03E
:1042500067FC5046FFF73EF82A28019B40F0018199
:10426000884A106800FA0AF121604FF00D0AC4F87C
:1042700004A0A360C4F80C90C4F810B0204602F06B
:104280004FFC5046FFF726F82A2840F0EA804846BF
:1042900002F062FC784C10F480791FD1002C00F001
:1042A000DF80013C7648774A1368190401604FF0BB
:1042B0000D0AC0F804A040228260C0F80C904FF4B0
:1042C0008063036102F02CFC5046FFF703F82A28B4
:1042D00040F0C780484602F03FFCDCE7002C00F0CD
:1042E000BF80674807601824446040278760002724
:1042F000C7604FF48063036102F012FC2046FEF7B2
:10430000E9FF2A2840F0AD80594C25605E4A1760CD
:104310005E4806605748584A80E824004FEA081172
:104320008160C76007610124446102F021FC584BA1
:104330001968022956D134463D46564E726B40F2FA
:104340001A6616403EBB4FF4804002F033FC002852
:10435000F3D047480268531B1F2B13D813F0030FE9
:104360004FEA930718BF01370026BE424FEA860185
:1043700005D054F8260002F017FC0136F5E76D1859
:104380006418DAE7A05902F00FFC0436202EF9D1A8
:1043900020342035D1E7082002F00CFC20B10820A1
:1043A00002F012FC04205CE0022002F003FC20B1C9
:1043B000022002F009FC022053E0102002F0FAFB78
:1043C00020B1102002F000FC05204AE04FF40070FC
:1043D00002F0F0FB002831D04FF4007002F0F4FB43
:1043E00007203EE001290BD144F21A3002F086FB8F
:1043F0001E490A681C49DAB908782A28F8D017E05B
:10440000E1B940F21A30214602F078FB30462946E5
:10441000FEF7FCFE204602F07DFB1F4802F048FA42
:10442000114928B9114A106810B90B782A2BF4D019
:104430000B782A2B02D00C49087812E040F2FF508A
:1044400002F0C2FB0DF10F00FEF732FE2A2808D160
:104450009DF80F30991F0129F4D902E00E2000E0E9
:10446000292005B0BDE8F08F24000020D8120020DC
:10447000001300202C120020FFFF0F00C4120020A8
:1044800004130020FC12002018130020F812002052
:104490002800002000800140002000102DE9F04F8E
:1044A00087B08A4614469B4600268DF81360059611
:1044B000039008B92620A8E12A22AB4B1A70AB481A
:1044C0000660AB490E60AB48AB4B80E848008660A5
:1044D000C6600661466102F04BFB304602F01AFBF3
:1044E000304602F039FB800100F18E81A34A136847
:1044F000022B04BF4FEA5A2A4FF4007404F1FF392B
:104500001FFA89F0B0F5006FD4D219EA0409D1D1AD
:104510002546012D06D0C5F34F0509F101095FFAC3
:1045200089F9F6E7964D2C60102169604FF040083C
:10453000C5F808800027EF604FF480662E6128469A
:10454000019102F0EDFA019A1046FEF7C3FE2A2807
:1045500040F05B818B4B1868010429600D226A6072
:10456000C5F80880EF602E6128460292019302F0A0
:10457000D7FA029B1846FEF7ADFE2A28019A40F0B2
:104580004481BBF1010F40F225810BFB04F4B4F12F
:10459000007F8FD279480168022914D97848C0F881
:1045A00000A019274760402686600026C6604FF4A9
:1045B0008063036102F0B4FA3846FEF78BFE2A28C6
:1045C00040F0238126E013681A042A6037216960CD
:1045D000C5F80880EF602E612846019102F0A0FA2C
:1045E0000198FEF777FE2A2840F00F81C5F800B049
:1045F0004FF0170BC5F804B0C5F80880EF602E61C6
:10460000284602F08DFA5846FEF764FE2A2840F04C
:10461000FC80C3E7564F3C6001275B4A17605B494B
:10462000039808605348544A80E814004FEA09137D
:104630008360C6600661476102F09AFA544A1168C5
:10464000022940F08180039D524C606B40F21A3485
:104650000440002C35D14FF4804002F0ABFA002822
:10466000F2D043490B68981B1F2811D9059405996E
:10467000072908D8059B55F8230002F095FA059CF8
:10468000601C0590F3E705F1200406F1200115E018
:1046900010F0030F4FEA900718BF0137002405946C
:1046A0002C46721BA118059BBB4207D254F8040B81
:1046B00002F07AFA0598421C0592F2E725460E466A
:1046C000C2E7082002F076FA20B1082002F07CFA56
:1046D00004209AE0022002F06DFA20B1022002F0DC
:1046E00073FA022091E0102002F064FA20B1102049
:1046F00002F06AFA052088E04FF4007002F05AFADE
:10470000044628B14FF4007002F05EFA07207CE006
:104710004FF4807002F04EFA00285BD0174B1A68F5
:10472000022A57D8164804600C2545604021816054
:10473000C4604FF48063036102F0F2F92846FEF78B
:10474000C9FD2A2861D145E0012925D144F21A305A
:1047500002F0D4F9054908680349002834D10B78E0
:104760002A2BF7D030E000BF24000020D812002010
:10477000001300202C120020FFFF0F00C4120020A5
:1047800004130020FC12002018130020F81200204F
:104790002800002000800140E1B940F21A3039467B
:1047A00002F0ACF9384602F0B5F903982146FEF75D
:1047B0002DFD174802F07CF8164928B91648036801
:1047C00013B90A782A2AF4D00A782A2A02D0114981
:1047D00008781AE040F2FF5002F0F6F90022059244
:1047E00005984FF6FE72904207D80598421CF6E7EE
:1047F0009DF813108B1F012B07D80DF11300FEF746
:1048000057FC2A28F4D000E00E2007B0BDE8F08F56
:104810000020001024000020D812002010B5094804
:1048200000220C2480E8140040218160C2604FF413
:104830008062026102F074F92046BDE81040FEF784
:1048400049BD00BF041300202DE9F84306460020AF
:1048500002F082F910F0007740F09B804F4C4FF04F
:104860004008C4F8008010256560C4F80880E7603F
:104870004FF48069C4F81090204602F051F92846A0
:10488000FEF728FD05462A2840F08480444B18682E
:104890000104216037256560C4F80880E760C4F82A
:1048A0001090204602F03CF92846FEF713FD05461D
:1048B0002A286FD13B483C4B80E808016022826087
:1048C0000223C36007610121416102F051F92760B1
:1048D0000D256560C4F80880E760C4F81090204694
:1048E00002F01EF92846FEF7F5FC05462A2851D1AC
:1048F0002E4C606B40F22A6404406CB94FF40040C7
:1049000002F058F90028F3D002F048F9305104348D
:10491000202CF9D12036EBE7082002F04BF920B12A
:10492000082002F051F9042534E0022002F042F997
:1049300020B1022002F048F902252BE0202002F0ED
:1049400039F920B1202002F03FF9062522E04FF48A
:10495000007002F02FF928B14FF4007002F034F922
:10496000072517E04FF4001002F024F920B102F0FF
:1049700015F946F8040BF5E740F2FF5002F024F970
:10498000A6F140031A6811BA43F8041BB342F9D1E7
:1049900000E00E252846BDE8F88300BF0413002080
:1049A000FC1200202C120020FFFF0F0000800140AD
:1049B00070B5724B1868012847D14FF4004002F0DF
:1049C00009F9044648B100246D4D2E6802F0E6F85E
:1049D00030510434202CF7D130E04FF4804002F005
:1049E000F9F8002831D067490B68674A1068191A2E
:1049F0001F291BD81668981B1268810702D19C1AC0
:104A0000A60802E0991A8B085E1C0024B4421CD050
:104A10005E4D2868006802F0C7F801342A68111D4D
:104A20002960594B1868021D1A60EFE7574D2B6833
:104A3000185902F0B9F80434202CF7D12968203134
:104A40002960514B1868203018604FF4807002F0D4
:104A5000C1F80446002837D0484C2368CBB94C4BEA
:104A60001C68012C4B4C1BD1FFF7D8FE207019E0BD
:104A7000454C2068434A11688842F0D2404D2E6868
:104A800002F08CF830602968081D286023681A1D20
:104A900022604FF4001002F08DF80028E8D1DEE724
:104AA0002A2020704FF4807002F09EF84CF23A30C9
:104AB000002102F023F8012237490A600020324B1E
:104AC0001860344A107870BD022002F083F8054661
:104AD00058B1022002F088F84CF23A30214602F038
:104AE0000DF8294A1460022043E0082002F072F811
:104AF000044658B1082002F077F84CF23A302946C3
:104B000001F0FCFF20480560042032E0202002F084
:104B100061F8054658B1202002F066F84CF23A30B0
:104B2000214601F0EBFF184B1C60062021E010200D
:104B300002F050F8044658B1102002F055F84CF23B
:104B40003A30294601F0DAFF0F490D60052010E0E8
:104B50004FF4007002F03EF870B14FF4007002F0B4
:104B600043F84CF23A30214601F0C8FF064A14607F
:104B700007200849087070BD2A2070BD2800002059
:104B8000DC12002000130020B0120020F8120020D8
:104B90001813002024000020D8120020FFF708BFBF
:104BA00038B504461E4D2846FFF74EFE2A2835D15B
:104BB0002B78990921702A78C2F340136370A97881
:104BC0000A026280638899B2EA78114361802B7986
:104BD0001906616063686A7943EA0241616063684B
:104BE000AA7943EA022161606368EA7942EA030133
:104BF00061602B7A23726A7A6272A97A0B09A372B6
:104C0000EA7A1102A181A38999B22A7B1143A18179
:104C10006B7B9908A17303F00302E27338BD00BFF8
:104C2000B412002008B540B9FEF7EEFF044B18702F
:104C300018782A3818BF012008BD012008BD00BF20
:104C40002C00002008B548B90548FEF73DFE054B8D
:104C5000187018782A3818BF012008BD012008BD37
:104C6000581200202C00002010B50C4678B92046C0
:104C7000012B4FEA42214FF4007202D1FFF734F8C2
:104C800001E0FFF747F92A3818BF012010BD0420C2
:104C900010BD10B50C4678B92046012B4FEA4221D1
:104CA0004FF4007202D1FFF77FFA01E0FFF7F6FB45
:104CB0002A3818BF012010BD042010BD10B51446BD
:104CC000002832D101390D2931D8DFE801F00B0776
:104CD00012303030303030151A1D21254FF400705D
:104CE000108024E01349CA6C8B6C580A40EAC25009
:104CF00010E0104B186D0DE00E4A92F8561021701E
:104D000015E010460B4901E010460B49102209E05E
:104D1000084B187D20600AE00848FFF741FF204655
:104D20000649402203F062F801E0042010BD002093
:104D300010BD00BF58120020841200201C13002058
:104D4000F0B58BB007460E4E6846FBF7A6FE34461C
:104D50006D460FCD0FC40FCD0FC42B682360306894
:104D6000F8717168B971B2687A71F368FB70306973
:104D7000411CB97072693A8001200BB0F0BD00BFD0
:104D80004003002008B50120FBF708FD064B012277
:104D90001A6000201860054908604FF4E052044989
:104DA0000A801A6008BD00BF405C0040445C0040BF
:104DB000D016002008B5024B1868804708BD00BF18
:104DC0003013002038B5194B196888B2184A108082
:104DD0001488184D2988214001F4007082B24AB12C
:104DE0004FF6FF541C60144B1D78691CC8B2187034
:104DF00000F068F80E4A14880E4B1D88254005F413
:104E0000004188B215461C4608B102F021FC2A88F0
:104E10002388134003F4806188B230B14FF6FF322B
:104E2000024B1A6005494868804738BD445C004021
:104E300036130020D0160020341300208C000020F0
:104E400038B5104B1A6890B20F4C208025880F4B54
:104E50001988294001F4004290B225461C4608B149
:104E600002F0F6FB298823880B4003F4806290B29D
:104E700030B14FF6FF31034B1960054A5068804747
:104E800038BD00BF445C004036130020D01600201F
:104E90008C00002008B5024B1868804708BD00BF91
:104EA0003C13002008B5024B1868804708BD00BFBE
:104EB0004013002008B5024B1868804708BD00BFAA
:104EC0003813002008B5024B1868804708BD00BFA2
:104ED0004413002008B5024B1868804708BD00BF86
:104EE0008C13002008B5024B1868804708BD00BF2E
:104EF0005013002008B5024B1868804708BD00BF5A
:104F00008013002008B5024B1868804708BD00BF19
:104F10009013002008B5024B1968884708BD00BFF0
:104F20006C13002008B5024B1968884708BD00BF04
:104F30005813002008B5024B1A68904708BD00BFFF
:104F40004813002008B5024B1968884708BD00BF08
:104F50006013002008B5024B1968884708BD00BFE0
:104F60006413002008B5024B1968884708BD00BFCC
:104F70006813002008B5024B1868804708BD00BFC1
:104F80005C13002008B5024B1868804708BD00BFBD
:104F90007C13002008B5024B1868804708BD00BF8D
:104FA0004C13002008B5024B1868804708BD00BFAD
:104FB0008813002008B5024B1868804708BD00BF61
:104FC0005413002008B5024B1868804708BD00BF85
:104FD0007813002008B5024B1868804708BD00BF51
:104FE0008413002008B5024B1868804708BD00BF35
:104FF0007413002008B5024B1868804708BD00BF35
:1050000074130020034B987A10B1052202490A60FC
:10501000704700BFA81600202C1300200422014B6B
:105020001A6070472C1300207047000010B521282B
:1050300008D111480368197801F07F02212A11D0A4
:10504000022010BD2028FBD10B4B19680A7802F012
:105050007F030A49212B0CBF0B460023084A10701E
:105060000BB9EDE7074B044C2068836100244482B0
:1050700020469847204610BDC8160020D55000088D
:1050800094130020BD500008074B19680A7802F0FD
:105090007F03212B05D1022801D10020704722284F
:1050A000FBD00220704700BFC816002009B10220C3
:1050B00070470128FBD808467047000020B9034B11
:1050C000196808220A82704701487047C8160020F4
:1050D0000801002020B9034B196808220A82704792
:1050E00001487047C816002008010020054B1968C8
:1050F000CA78042A04D8044B03EBC20102F026B894
:1051000000207047C8160020E0000020014902F08E
:105110001DB800BF00010020014902F017B800BF10
:10512000D800002010B5044C2378202B03D1FBF7C6
:10513000D3FF0020207010BD9413002010B53B4B0E
:105140001868002484723A4AD1794172C4722046A8
:1051500002F0AAFB20464FF4007102F0B5FB204696
:10516000102102F0BDFB2046402102F077FC2046D2
:10517000802102F063FC204602F00EFC20462D4BFD
:1051800093F82C1002F0A4FC204602F0F4FB01205E
:10519000214602F099FB0120C02102F04FFC0120C2
:1051A000202102F09DFB0120214602F0B6FB0220E7
:1051B0004FF4C06102F088FB02204FF4807102F0CE
:1051C0003DFC0220214602F0A8FB0220202102F033
:1051D00087FB0320214602F077FB032002F0EBFB64
:1051E00003204FF488714FF4B07202F08FFC03205B
:1051F0000121402202F0A6FC032002F0FAFB03206A
:1052000002F009FC032002F0E5FB03204FF44051BB
:1052100002F083FB0320214602F062FB204602F0ED
:10522000A9F90120044A106010BD00BFC816002073
:105230000D9100088C0000202C13002010B50948A7
:1052400000F11001FBF7B6FA074B186800248472CE
:10525000FFF798FD02F00EFDFBF7FAFE03490C6024
:1052600010BD00BFC0000020C81600202C13002075
:1052700004221B4B1A701B481B4908601B4A1C4B1D
:105280001A601C481C4908601C4A1D4B1A601D48C6
:105290001D4908601D4A1E4B1A601E481E490860C1
:1052A0001E4A1F4B1A601F481F4908601F4A204BA7
:1052B0001A60204820490860204B214A1360214988
:1052C0000860214B1860214A106021490860214B79
:1052D0001860214A1060214821490860704700BFCA
:1052E000BC0000203D5200088C1300203D510008F6
:1052F0005013002025510008801300202950000879
:10530000901300202D5000086C13002089500008D5
:1053100058130020AD500008481300201951000810
:10532000601300200D51000864130020ED500008A8
:1053300068130020157600085C1300200550000853
:105340007C1300204C1300208813002054130020ED
:105350007813002084130020741300201D500008CF
:105360007013002038B52948017801294CD1284A0A
:1053700013681BB90370274B19701CE0402B264C97
:10538000206881B205D940302060403B1360402541
:1053900004E09DB2C3182360002010601F4A50181B
:1053A000C0212A4602F056FA0120294602F082FB6B
:1053B000012002F0CFFA1A490868002824D0154AC3
:1053C0001378012B20D1124A1468402C124B186814
:1053D00081B205D940301860403C1460402504E09B
:1053E000A5B204191C60002313600C4A5018C02198
:1053F0002A4602F02FFA0120294602F05BFB012029
:10540000BDE8384002F0A6BA38BD00BFD50F002075
:10541000E00F0020D4070020DC0F0020D50700207B
:10542000D80F002010B5032002F046FA00F040002B
:1054300081B259B10320012102F0F6FB032002F0F2
:10544000D3FB04460D484FF488710AE00320012184
:1054500002F0EAFB032002F0D7FB044607484FF4B2
:10546000B071224602F00DFA0448E1B2FBF7AEFE3D
:105470000320BDE8104002F07EBA00BF9513002063
:10548000074B1868052809D1064B1A68511C19608A
:10549000052A03D100201860FBF7AEBE704700BF9D
:1054A0002C130020D813002010B5044628B9FEF7AD
:1054B000ABFB034B1870204610BD012010BD00BF90
:1054C0002C00002008B550B910461A46FEF76CFEB5
:1054D000044B187018782A3818BF012008BD012025
:1054E00008BD00BF2C00002008B550B910461A4670
:1054F000FEF7FAFB044B187018782A3818BF012001
:1055000008BD012008BD00BF2C00002038B508B13F
:10551000012038BDFEF778FB2A28F9D1284C204617
:10552000FEF7D2F9B4F854000004FEF757FB237ECF
:1055300094F85620022A23490DD12469651C4FF0A6
:10554000FF324FF0FF334FF40020E0FB0523520AF7
:1055500042EAC3540FE0257A2469601C023300FA42
:1055600003F4012202FA05F54FF4007095FBF0F305
:105570005A0804FA02F40C60134D4FF400712960CC
:105580000F4BB3F854402004FEF728FB0F4C20705B
:105590004FF40060FEF7DEFA207020782A28B7D199
:1055A0000020FEF711FB207022782A2AB0D129684A
:1055B000044B18684843064A1060002038BD00BFFD
:1055C00058120020EC130020DC1300202C000020D7
:1055D000E413002070B50546324B187850B9324CB0
:1055E00054F825004143314C216050433049086054
:1055F00001221A702B4B187801283ED12D4C2168BE
:10560000A9B9294E2846294A11682B4A36F825306F
:10561000FFF76AFF81202849402202F03BFB56F841
:105620002530403B23604020244908600DE0234D95
:105630002A688120204B9918402202F02BFB206819
:10564000403820602968403129600120402102F063
:1056500031FA0120302102F043F9144B1A6840322C
:105660001A601348016840390160154B9A68403A46
:105670009A601448012100F07DFE0D48036883B94B
:105680000C490B600D4A13600848036003210E4A61
:105690001170044803700B480121BDE8704000F010
:1056A0006BBE70BD14160020DC1300201016002005
:1056B0000C160020F813002004140020F41300201E
:1056C00090160020001801404416002070B5334B9E
:1056D0001D68334B1C7854B9324C54F82040614358
:1056E000314E3160544331490C6001221A702C4B09
:1056F000197801293BD100232D4C2360274A1468D7
:1057000005F140018C4209D211682A4E9E5D2A4C57
:105710006654013311684C1C1460EFE7244D2B6074
:10572000264B1C88204D2968611829601F4B1D6875
:105730002C1B1C601B4B53F82030B4FBF3F503FB10
:1057400015442CB91460C91A1B4A9BB2FFF7BAFE64
:105750001B481A4A118883685A1A826002204FF443
:10576000405102F0DAF81748012100F003FE0F481B
:10577000016819B1144B1A78042A0ED10024074885
:1057800004602046012100F0F9F905490C700D482C
:105790000121BDE8704000F0EFBD70BDFC1300209A
:1057A00014160020DC130020041600200014002032
:1057B000081600204C160020041400202216002099
:1057C000901600200018014044160020064B1A7C59
:1057D000D20705D4D97C242928BF2421034801E01D
:1057E0000521034800F0B0B9241600203A0100203A
:1057F0001D16002010B50446FFF788FE68B1134857
:10580000022383703A2202730120014600F0B6F9A8
:105810000020BDE8104000F0E5BA0D4B53F824100D
:105820000C480A0E02710B0C43710A0A8271C17195
:10583000094951F824301A0C4272190A8172C37254
:105840000C21BDE8104000F07FB900BF1801002016
:10585000EC1300202E010020DC13002010B50446BC
:10586000FFF754FE68B11448022383703A21017394
:105870000120014600F082F90020BDE8104000F050
:10588000B1BA0E4B53F82400411E0D480A0E0270A7
:105890000B0C43700A0A8270C1700A4951F8243017
:1058A0001A0E0271190C41711A0A8271C371082112
:1058B000BDE8104000F048B918010020EC130020AA
:1058C00015160020DC1300200148042100F03CB92B
:1058D0002A0100200148082100F036B910010020FB
:1058E000034BD97C0348122928BF122100F02CB9A0
:1058F0002416002018010020014B99701A7370477C
:10590000180100200020012100F038B908B50C4B27
:105910009A6832B9187C00F00401C8B208B90121B4
:1059200009E0022000F05EFA064B05229A7024205E
:10593000187301200021BDE8084000F01FB900BF26
:10594000241600201801002008B5FFF7DFFD68B11C
:10595000094B02229A703A2018730120014600F088
:105960000DF90020BDE8084000F03CBA0121BDE877
:10597000084000F003B900BF1801002008B5FFF788
:10598000C5FD68B1074B02229A703A2018730120B6
:10599000014600F0F3F80020BDE8084000F022BA0C
:1059A00008BD00BF1801002008B50B4B9A680AB962
:1059B000002004E093F90C000028F9DB022000F03D
:1059C00011FA064905238B7020220A730120002159
:1059D000BDE8084000F0D2B82416002018010020CD
:1059E00010B59A18164C54F82040A2420CD92A2916
:1059F00002D1022000F0F6F9002000F0F3F9114B7B
:105A000005209870212212E00F4A52F820004343EB
:105A10000E4A9068984211D02A2901D1022000E054
:105A2000002000F0DFF9074B0521997024221A733A
:105A30000120002100F0A2F8002010BD012010BDBF
:105A4000EC13002018010020DC1300202416002095
:105A5000F8B50F461346174D2C78002C22D1164E60
:105A6000707B2A213A46FFF7BBFF002820D096F929
:105A70000C30002B08DB01232B7002204FF4405127
:105A8000BDE8F84001F049BF204600F0ABF90B48F3
:105A9000052282702421017301202146BDE8F840CF
:105AA00000F06CB8012C03D1BDE8F840FFF70EBE42
:105AB000F8BD00BF44160020241600201801002065
:105AC0002DE9F04180460D461446164E337803BB4F
:105AD000154F787B28212A462346FFF781FF0028AF
