:020000040800F2
:10000000000001207D8F0008FF05000801060008A0
:1000100003060008050600080706000800000000A7
:1000200000000000000000000000000009060008B9
:100030000B060008000000000D0600080F0600086F
:10004000C18F0008C18F0008C18F00084506000855
:10005000C18F0008C18F0008C18F0008C18F000840
:10006000C18F0008C18F0008C18F0008C18F000830
:10007000C18F0008C18F0008C18F0008C18F000820
:10008000C18F0008C18F0008C18F00083D0600081D
:1000900041060008C18F0008C18F0008C18F000809
:1000A000C18F0008C18F0008C18F0008C18F0008F0
:1000B000C18F0008C18F0008C18F0008C18F0008E0
:1000C000C18F0008C18F0008C18F0008C18F0008D0
:1000D000C18F0008C18F000849190008C18F0008AE
:1000E000C18F0008C18F0008C18F0008C18F0008B0
:1000F000C18F0008C18F0008C18F0008C18F0008A0
:10010000C18F0008D5510008C18F0008C18F0008B9
:10011000C18F0008C18F0008C18F0008C18F00087F
:10012000C18F0008C18F0008C18F0008C18F00086F
:1001300000000000000000000000000000000000BF
:1001400000000000000000000000000000000000AF
:10015000000000000000000000000000000000009F
:10016000000000000000000000000000000000008F
:10017000000000000000000000000000000000007F
:10018000000000000000000000000000000000006F
:10019000000000000000000000000000000000005F
:1001A000000000000000000000000000000000004F
:1001B000000000000000000000000000000000003F
:1001C000000000000000000000000000000000002F
:1001D000000000000000000000000000000000001F
:1001E0005FF8E0F12DE9874800230093019300F0C8
:1001F000CCFA4FF47A7000F077F94FF4C054C4F29F
:100200000104019B022B12DC4FF47A7000F0B8F964
:100210002021204606F00BFF05464021204606F02F
:1002200006FF284310F0FF0F39D10123009307F098
:1002300058FC009B40F6BC35C2F2000541F64C5B11
:10024000C2F2000B42F2201AC2F2000A48F2A734AE
:10025000C0F6000442F22419C2F2000942F2281842
:10026000C2F2000842F22C17C2F2000742F21C163A
:10027000C2F20006BBB140F61B73C0F600032B6050
:1002800041F69B03C0F60003CBF80030CAF80040EB
:10029000C9F80040C8F800403C60346036E0019B7B
:1002A00001330193ADE740214FF4C050C4F2010087
:1002B00006F0BDFE68B340F6B833C2F20003022276
:1002C0001A6041F2AF53C0F600032B6041F2755340
:1002D000C0F60003CBF8003045F67963C0F60003A2
:1002E000CAF80030C9F8004045F65373C0F6000361
:1002F000C8F8003045F6B173C0F600033B6045F224
:10030000D173C0F60003336005F01CFD2B689847DD
:10031000FCE720214FF4C050C4F2010006F087FE34
:1003200041F69B03C0F6000318B340F6B832C2F2A0
:1003300000020121116041F25362C0F600022A60FE
:10034000CBF8003046F2F773C0F60003CAF800306D
:1003500046F64923C0F60003C9F80030C8F800404B
:100360003C6045F65713C0F60003336006F01AFDF3
:10037000CCE740F61B72C0F600022A6084E782B028
:100380004FF48053C4F202031A6842F001021A606B
:1003900059680022CFF6FF020A405A601A6822F01C
:1003A000847222F480321A601A6822F480221A6061
:1003B0005A6822F4FE025A604FF41F029A6000222B
:1003C000009201921A6842F480321A601A6802F4AC
:1003D00000320192009A01320092019A1AB9009AF1
:1003E000B2F5A06FF2D11A6812F4003218BF0122E0
:1003F0000192019A012A08D04FF46D43CEF2000316
:100400004FF000629A6002B070474FF40052C4F29D
:100410000202116841F010011160116821F003011E
:100420001160116811605A685A605A685A605A68B7
:100430005A605A6822F47C125A605A6842F4302298
:100440005A601A6842F080721A601A689201FCD5EC
:100450005A6822F003025A605A6842F002025A6057
:100460005A6802F00C02082AFAD1C5E74FF480520C
:10047000C4F20202516801F00C01042940F2100399
:10048000C2F2000312D0082915D04FF49051C0F2E7
:100490007A0119605268C2F3031240F20001C2F2FD
:1004A0000001895C1A68CA401A6070474FF4D8513D
:1004B000C0F2B701EDE751685068C1F383410231E2
:1004C000C00305D44FF41060C0F23D004143E0E7A3
:1004D0005068800347BF48F68050C0F25B004FF47D
:1004E000D850C0F2B700F1E730B587B001900420D2
:1004F00006F042FD019A40F21004C2F200042368A3
:10050000B3FBF2F3013BB3F1807F38D24EF210021D
:10051000CEF2000253604FF46D43CEF20003F0219F
:1005200083F823100025956007231360012108201C
:1005300006F0ADFE03A807F0ADF8236844F24022B0
:10054000C0F20F02B3FBF2F3013BADF80C304FF6F3
:10055000FF73ADF81030ADF81250ADF80E5003A98E
:100560004FF44060C4F2000007F034F801214FF46A
:100570004060C4F2000007F096F807B030BDFEE717
:1005800082B00190019A40F6C033C2F200031A60B3
:100590001A68002AFCD102B0704782B0ADF806009C
:1005A0004FF44063C4F20003988C80B21A46938CD7
:1005B000BDF8061089B21B1A9BB28B42F7D902B064
:1005C0007047704708B540F6C433C2F200031A689A
:1005D00022B942F25052C2F200021A601868014475
:1005E0006A46914206D908F0EDFC0C2303604FF0F7
:1005F000FF3008BD196008BD4FF0FF3070477047ED
:10060000FEE7FEE7FEE7FEE770477047704708B574
:1006100040F6C033C2F200031A6812B11A68013AF8
:100620001A6000F07DF940F6B833C2F200031B688F
:100630001BB9BDE8084000F046BC08BD07F09FBFED
:1006400005F0BCB8704730B500231D46DCB2A242AD
:1006500000D830BD040F092C94BF3034373401F872
:100660001340000101EB430465700133EEE7F7B579
:1006700001217D2006F0FFFD4FF6FF73ADF8043039
:1006800003268DF8066000278DF8077001A94FF446
:100690000060C4F2010006F07CFC4FF44065C4F237
:1006A000010501A9284606F074FC01A94FF4805009
:1006B000C4F2010006F06DFC01A94FF4A050C4F291
:1006C000010006F066FC4FF4C054C4F2010401A915
:1006D000204606F05EFC39467D2006F0CCFD012167
:1006E000482006F0C8FDADF804608DF806601023C0
:1006F0008DF8073001A9204606F04BFC4FF48076B8
:10070000ADF8046001A9284606F043FC31462846AE
:1007100006F095FC0121204606F091FC02212046BE
:1007200006F08DFC03B0F0BD13B50121402006F0AA
:10073000A2FD7823ADF8043003248DF80640282369
:100740008DF8073001A94FF4C050C4F2010006F043
:1007500020FC0121042006F08EFD4FF48073ADF8DB
:1007600004308DF8064004238DF807300DEB0301AB
:100770004FF40060C4F2010006F00BFC02B010BDA3
:1007800000214FF0006006F0ECBB08B5FFF76EFEED
:10079000FFF7F6FFFFF76BFFFFF7C6FF00F040F92A
:1007A00000F081FABDE8084000F060B97FB5002094
:1007B00006F0CCFC002006F0C4FC4FF480114FF48E
:1007C000803006F0B3FC012006F0BBFC392006F0B7
:1007D00070FD0028FAD04FF40053C4F202031A68E7
:1007E00042F010021A601A6822F003021A601A68B6
:1007F00042F002021A60022006F0A8FC06F0B0FCEB
:100800000828FBD101A806F0D7FC07B05DF804FB6F
:1008100007B50121202006F02EFD0823ADF8043095
:1008200003238DF8063014238DF8073001A94FF407
:10083000A050C4F2010006F0ACFB03B05DF804FB6D
:1008400008B5002006F094FC01214FF40000BDE83B
:10085000084006F01CBD082128B14FF4A050C4F296
:10086000010006F0ECBB4FF4A050C4F2010006F00A
:10087000E4BB42F29C43C2F200039A7A42F20413B0
:10088000C2F2000312B105221A6070470122FBE791
:1008900038B50D464FF2E873C1F6FF731B684FF28F
:1008A000EC72C1F6FF7214684FF2F072C1F6FF727B
:1008B00012689B180BD0082201461846FFF7C3FEAA
:1008C000042229462046BDE83840FFF7BCBE38BDAB
:1008D0000022134640F6F031C2F2000131F8120056
:1008E00003449BB20532322AF8D10A22B3FBF2F359
:1008F000C3F30B0240F6C6235343C3F30F335B002D
:100900009BB240F6CC32C2F20002B2F90010481C91
:100910001CBF5B0803EB61031380B2F90000704752
:1009200038B54FF480714FF40060C4F2010006F056
:100930007EFB012840F6D033C2F2000315D11A68BD
:1009400001321A6040F6B8339A4210D907F0C1F864
:1009500000F0D2FA4FF400514FF48050C4F201007D
:1009600006F06BFB07F0B5F8FCE700221A6040F2D6
:100970001804C2F20004256845B1FFF7A9FF40F64C
:10098000C833C2F200031860013D256040F6D4333D
:10099000C2F200031A680132B2F57A7F04D81A60F5
:1009A000BDE8384007F095B800221A6040F6C83517
:1009B000C2F200052C6804EB4404FFF789FF2044D1
:1009C0008008286040F6B833984240F6D833C2F227
:1009D00000030CD9B0F5616F40F21402C2F20002BC
:1009E00007D20221116040F62E52904204D9002213
:1009F000D5E701211160FAE71A6801321A600C2A62
:100A0000CED907F066F800F077FA4FF400514FF4B2
:100A10008050C4F2010006F010FB07F05AF8FCE722
:100A200007B50121102006F026FC4FF40053ADF865
:100A3000043001238DF8063010238DF8073001A90A
:100A40004FF48050C4F2010006F0A3FA45F255506D
:100A500007F02DF8032007F030F840F2E24007F0ED
:100A600032F807F036F803B05DF804FB70B50121E9
:100A70004FF4047006F0FFFB0121084606F0EFFB7F
:100A800040F68041C2F2000103268E700F230B80D6
:100A90000025CD704FF48050C4F2010006F079FAC1
:100AA00001214FF4007006F0E6FB0820C4F20200BA
:100AB00006F0C0FC40F65441C2F2000142F24C4341
:100AC000C4F201030B6040F6F033C2F200034B6046
:100AD0008D603223CB600D6180234B614FF48073B6
:100AE0008B614FF48063CB6120230B624D628D627A
:100AF0000820C4F2020006F02AFD01210820C4F2F9
:100B0000020006F042FD40F6DC31C2F200010D6049
:100B100001240C714C714FF460238B60CD6005256E
:100B20000D744FF41050C4F2010006F0D6FB2046BD
:100B300006F073FC0723224609214FF41050C4F23B
:100B4000010006F01BFC2B46022210214FF410502E
:100B5000C4F2010006F012FC072332460A214FF4CA
:100B60001050C4F2010006F009FC072304220C21F6
:100B70004FF41050C4F2010006F000FC07232A468F
:100B80000D214FF41050C4F2010006F0F7FB21468E
:100B90004FF41050C4F2010006F036FC21464FF429
:100BA0001050C4F2010006F0BCFB204606F035FCF4
:100BB0004FF41050C4F2010006F0C5FB4FF410547E
:100BC000C4F20104204606F0C3FB0028FAD14FF41A
:100BD0001050C4F2010006F0BFFB4FF41054C4F2F1
:100BE0000104204606F0BDFB0028FAD101214FF494
:100BF0001050C4F2010006F09DFB01214FF410508B
:100C0000C4F20100BDE8704006F0AFBB73B5064604
:100C100002A840F8041D08F0DBF9436903F26C7385
:100C20004361354604460FCC0FC50FCC0FC5236872
:100C30002B60304602B070BD10B5044606F061FD71
:100C400001462046FFF7E2FF204610BD10B50446DE
:100C5000012006F027FF06F086FD204606F064FD21
:100C600006F081FD0020BDE8104006F01BBF84B0F7
:100C700030B58BB00EAC84E80F0001AC0EAD0FCDDB
:100C80000FC40FCD0FC42B682360069BA3F26C73B7
:100C9000069301A808F086FCFFF7D8FF0BB0BDE86B
:100CA000304004B0704770B586B0142006F0EAFEFC
:100CB0004AF2A5540121A0424FF0C05052D006F094
:100CC000E6FA012006F0EEFE2146142006F0CBFEE7
:100CD00006F0C0FE012006F050FA412006F0E9FAC5
:100CE0000028FAD04FF4807006F058FA012006F080
:100CF0005DFA06F038FD0121084606F0E0FC06F03A
:100D000032FD47F6FF7006F01EFD06F02CFD40F6A2
:100D10008444C2F2000440F2D97363610623236164
:100D20000F23E3601723A3602D236360254645F856
:100D3000103B6E460FCD0FC62B68336094E80F0052
:100D4000FFF795FF06F00FFD012006F0ABFE4AF21B
:100D5000A551142006F087FE002006B0BDE87040C3
:100D600006F0A0BE06F093FA06F005FD0121084644
:100D700006F0A5FC06B0BDE8704006F0F4BC70B506
:100D8000002441F65455C2F2000540F6A846C2F2CE
:100D900000062B68984782B2002AFAD01CB9242A90
:100DA00001D00024F5E7631C9BB230550A2A04D019
:100DB000B3F5007FF5D21C46EBE7D8B270BD0378DF
:100DC000303BDBB2092B0AD840783038C0B2092852
:100DD00005D803EB830300EB4300C0B2704700204B
:100DE000704740F6A742C2F2000210F8013B1BB167
:100DF00012F8011F9942F8D01846704740F6A843F0
:100E0000C2F2000308B91846704713F8012B202AD4
:100E100004D92C2AF9D10138C0B2F3E70020704779
:100E200000B5A1B002460B4691F90010C1B94CF2D1
:100E3000B371C0F60001684600F0B8FE9DF90030BD
:100E4000242B15D100231A460DEB030191F9011053
:100E50002A290ED00133802B0BD04A40D2B2F3E7BF
:100E60004CF2B071C0F60001684600F09FFEE5E765
:100E7000002269464CF2B770C0F6000000F089FE0F
:100E800000F07CFD0028FBD021B05DF804FB10B51C
:100E900041F20814C2F20004204604F077FBA07867
:100EA000E3781B0443EA4053607943EAC023A07906
:100EB00043EA4013E07943EA50032088A0F2BC7073
:100EC00043EA406010BD10B541F20414C2F20004C0
:100ED00023685A1C226041F2883293420BD94CF2AB
:100EE000BD71C0F600014CF23070C0F60000FFF793
:100EF00097FF0023236010BD10B541F21013C2F21A
:100F000000031B6843B141F2DC04C2F20004204636
:100F100002F019FA0028FAD110BD2DE9F04F8FB078
:100F20000024ADF8324041F65853C2F2000341F6B6
:100F30005B02C0F600021A6041F65453C2F200038D
:100F400041F67D02C0F600021A604FF416410220FD
:100F500000F0D8FB4CF23971C0F600014CF23E7043
:100F6000C0F60000FFF75CFF6420FFF709FB4FF4B9
:100F7000E131022000F0C6FB4CF23971C0F60001ED
:100F80004CF23E70C0F60000FFF74AFF6420FFF706
:100F9000F7FA4FF41651022000F0B4FB4CF27871CE
:100FA000C0F600014CF24770C0F60000FFF738FFB2
:100FB0004CF27871C0F600014CF25070C0F600009F
:100FC000FFF72EFF4CF25971C0F600014CF25B7036
:100FD000C0F60000FFF724FF4CF23771C0F60001A5
:100FE0004CF26470C0F60000FFF71AFF4CF2787103
:100FF000C0F600014CF26D70C0F60000FFF710FF64
:101000004CF27671C0F600014CF27A70C0F6000026
:10101000FFF706FF22464CF2BD71C0F6000140F614
:10102000A860C2F2000001F099FF00F093FC41F2C9
:101030001017C2F20007A1464FF4C055C4F20105D3
:1010400000233B600221284605F0F7FF41F2041619
:10105000C2F20006B34630BFFFF791FE0028FBD076
:101060000221284605F0EBFF0121284605F0E5FFA7
:101070004CF28370C0F60000FFF7B3FE30B14CF2C3
:101080008A70C0F60000FFF7ACFE38B90220FFF707
:10109000B5FE04460121284605F0D1FFC6F80090B0
:1010A000002CD8D02378412BD5D101243C600221DB
:1010B000284605F0C4FF2146284605F0C0FF20461B
:1010C000FFF79CFE0246FFF77AFE40F68448C2F224
:1010D0000008C8F80800901CFFF771FEC8F804006B
:1010E000101DFFF76CFEC8F800000920FFF786FE10
:1010F0000446FFF764FEC8F80C00A01CFFF75FFE73
:101100000138C8F81000201DFFF759FE6430C8F8F8
:101110001400404608F046FA00F5FD401030FFF795
:1011200095FD02A8FFF788FDC64602AE0FCEAEE8D9
:101130000F000FCEAEE80F003368CEF80030034644
:10114000D8F81420642192FBF1F0D8F80C600096D6
:10115000013301FB10224CF29171C0F6000140F600
:10116000A840C2F2000000F021FD41F2DC06C2F20C
:101170000006122240F6A841C2F20001304601F0FA
:1011800016FFA8BBF168304602F0EAF880BB4CF2CB
:10119000A27AC0F6000A40F6A848C2F20008FFF79B
:1011A000EEFD064600283FF44BAF5046FFF719FE10
:1011B00030B14CF2A970C0F60000FFF712FE28BB58
:1011C0000620FFF71BFE04460378302B33D00221A4
:1011D000284605F032FF0DAB3246414641F2DC00B5
:1011E000C2F2000001F0BDFF10B90D9B9E4222D05B
:1011F00041F2DC06C2F200060221284605F01DFF7E
:10120000304602F0A0F80028F6D119E74CF28370BE
:10121000C0F60000FFF7E5FD30B14CF28A70C0F671
:101220000000FFF7DEFD30B90220FFF7E7FD0446BE
:101230000378412BCBD0BDF8323001339BB2ADF8EF
:1012400032305A2B07D80221284605F0F8FECBF899
:10125000009030BFA3E70221284605F0EEFEADF86E
:10126000329041F2DC00C2F2000002F035F80028B2
:10127000E9D0BDE7F7B541F63854C2F200044FF4A7
:10128000165323600023A380E3802381A3810C23D2
:1012900063810121052005F0EEFF01214FF40030AC
:1012A00005F0F5FF0426ADF8046003278DF80670FD
:1012B00018238DF807304FF40065C4F201050DEBDB
:1012C0000601284605F065FE0823ADF804308DF8C8
:1012D00006708DF807600DEB0601284605F059FEF3
:1012E0004FF48845C4F200052146284606F000FB6D
:1012F0000121284606F05EFB012240F225512846D6
:1013000006F064FB03B0F0BD73B540F20413C2F203
:101310000003197901291A461DD04FF0000406D3A5
:10132000022920D0FFF7A6FF204602B070BD41F68B
:101330003853C2F20003DC805379012B2FD04FF0D9
:10134000000417D3022BEDD141F63853C2F200034B
:101350004FF4C06129E041F63853C2F200034FF464
:101360004051D980E8E741F63853C2F200034FF408
:101370000051F6E741F63853C2F200031C8193791D
:10138000072B4FF0000412D0082BCBD141F6385375
:10139000C2F200031989002951D199800CE041F66D
:1013A0003853C2F200034FF480611981E7E741F638
:1013B0003853C2F200039C8041F63854C2F2000454
:1013C000136823600023A3810C236381012105207E
:1013D00005F051FF01214FF4003005F058FF0425BE
:1013E000ADF8045003268DF8066018238DF80730F9
:1013F0000DEB05014FF40060C4F2010005F0C9FDDA
:101400000823ADF804308DF806608DF807500DEB19
:1014100005014FF40060C4F2010005F0BAFD214659
:101420004FF48840C4F2000006F062FA01214FF444
:101430008840C4F2000006F0BDFA012474E74FF4BE
:101440008051AAE7F8B506460F4604464FF4884592
:10145000C4F20005A31B9F4200D8F8BD14F8011B7D
:10146000284606F0CAFA8021284606F0CEFA00285F
:10147000F9D0EFE770B541F62113C2F20003002165
:10148000197041F62013C2F200031A78012A1D4692
:101490003FD041F61C12C2F200021368B3F5006F90
:1014A00008BF1160136841F61811C2F20001086804
:1014B000834202D100232B7070BD41F61411C2F299
:1014C00000018CBFC3F50060C01A08600C68402C96
:1014D00098B218D940331360403C0C604026012478
:1014E0002C7041F21413C2F200033246C02118449A
:1014F00007F086F83146204607F0CBFA2046BDE8D3
:10150000704007F061B9A6B22344136000230B605A
:10151000E5E770BD38B540F20413C2F200039B79D1
:10152000072B41F61814C2F2000415D125684FF4B8
:101530008840C4F2000006F064FA41F21413C2F2CB
:10154000000300F07F00585523680133B3F5006FA6
:1015500008BF0023236038BD082BF5D125684FF460
:101560008840C4F2000006F04CFA41F21413C2F2B3
:101570000003E8E708B540F225514FF48840C4F273
:10158000000006F048FA08B1FFF7C4FF08214FF445
:101590008840C4F2000006F038FA38B14FF48840B1
:1015A000C4F20000BDE8084006F02BBA08BD07B53C
:1015B000FFF7FCF84FF47A70FEF796FF00F0B2FDEB
:1015C0004CF2E471C0F6000141F65C50C2F200003A
:1015D00000F081FE41F65C50C2F2000000F08AFE8D
:1015E00000F085FD01234CF2BE72C0F6000200211E
:1015F000084600F0E5FCFFF70BF90020FFF72BF998
:10160000FFF71EF94FF4C06005F06AFC14238DF853
:10161000043001248DF8054000258DF806508DF822
:10162000074001A805F066FC26238DF804308DF8EC
:10163000055001A805F05EFC06F0B6FE2046FFF757
:101640000AF942F20413C2F200031A68052AFCD117
:10165000FEE707B5FFF7AAF84FF47A70FEF744FFEC
:1016600000F060FD4CF2E471C0F6000141F65C5000
:10167000C2F2000000F02FFE41F65C50C2F2000002
:1016800000F038FE00F033FD01234CF2D072C0F6BA
:1016900000020021084600F093FCFFF7B9F8002093
:1016A000FFF7D9F8002004F099FCFFF7C9F84FF4D0
:1016B000C06005F015FC14238DF8043001248DF86A
:1016C00005408DF806408DF8074001A805F012FC92
:1016D00013238DF804308DF8054000238DF8063073
:1016E0008DF8074001A805F005FC06F05DFE2046D8
:1016F000FFF7B1F842F20413C2F200031A68052A98
:10170000FCD1FEE72DE9F34105468846022869D160
:1017100041F62414C2F200044FF48843C4F20003DB
:1017200023600121052005F0A6FD01214FF40030C2
:1017300005F0ADFD0426ADF8006003278DF80270BA
:1017400018238DF8033069464FF40060C4F201009D
:1017500005F01FFC0823ADF800308DF802708DF8FD
:10176000036069464FF40060C4F2010005F011FC0B
:101770004FF4C06005F0B4FB26238DF80430012639
:101780008DF805608DF806508DF8076001A805F00A
:10179000B1FB41F63855C2F20005284606F0FFF8C5
:1017A000C5F800802946206806F0A2F841F64852A4
:1017B000C2F2000241F62813C2F2000313600022B5
:1017C000C3F80424C3F80024C3F80C24C3F8082485
:1017D000324640F22551206806F0F8F8314620687C
:1017E00006F0E8F802B0BDE8F081D0F80834D0F88F
:1017F0000C040133C3F30803181A18BF0120704703
:1018000010B50246FFF7F1FF0446A8B1D2F808343C
:1018100072B6D01880F800120133C3F30803C2F87F
:10182000083462B641F62413C2F20003012240F2EA
:101830002771186806F0CAF8204610BD024672B635
:10184000D0F80434C05CC0B2D2F804340133C3F31E
:101850000803C2F8043462B6704710B5014641F679
:101860004852C2F2000214682046FFF7BEFF00286B
:10187000F9D02046BDE81040FFF7C2BF41F64853FB
:10188000C2F200031868D0F80024D0F804349A4259
:1018900001D0FFF7D3BF0020704770B540F225514B
:1018A0004FF48840C4F2000006F0B5F8E0B141F60C
:1018B0002814C2F20004D4F800540135C5F3080519
:1018C000D4F804644FF48840C4F2000006F099F89C
:1018D000C0B2B54224D1002240F225514FF48840D5
:1018E000C4F2000006F072F84FF48844C4F2000419
:1018F00040F22771204606F08EF820B341F62813F7
:10190000C2F20003D3F80C14D3F8082491420DD18D
:10191000002240F227712046BDE8704006F056B81C
:10192000D4F80034E054C4F80054DDE7D3F80C24B4
:101930001A4492F80022A280D3F80C240132C2F398
:101940000802C3F80C2470BD41F64C53C2F20003E8
:101950001B68184741F64853C2F200031B68002277
:10196000C3F80424C3F8002441F62413C2F2000390
:10197000012240F22551186806F028B841F6485374
:10198000C2F200031B68D3F80C04D3F80834C31A5E
:1019900058425841704710B504460A2802D10D201C
:1019A000FFF7F9FF41F65053C2F200031A681AB16B
:1019B000511C1960147010BD41F65853C2F2000357
:1019C0001B681BB1E0B2BDE81040184710BD10B550
:1019D000441E14F9010F00B910BDFFF7DCFFF8E752
:1019E0002DE9FF4702460D4692F90000002800F05D
:1019F000CD80252804D0571CFFF7CDFF2C4657E09B
:101A000092F90130302B2BD1D71C92F902300126EC
:101A10004FF000080A21A3F13002D2B2092A29D9D5
:101A200023F020024C2A02BF46F0040697F900304A
:101A30000137002B00F0AA80602BC6BFA3F1200263
:101A400052B21A464F2A36D01BDC432A00F0868059
:101A5000442A00F08D80422A00F088801846CBE7A7
:101A60002D2B19BF971C0026D71C92F9023008BFF6
:101A70000226CDE701FB0838A8F1300817F9013B31
:101A8000C9E7552A74D0582A6ED0532AE6D12C1DA6
:101A9000D5F800904B46A3EB090513F9012B002A5A
:101AA000F9D1B00750D54846FFF791FFA84550D867
:101AB00025463A4698E7082029682C1D442A04D177
:101AC0000029BCBF494246F00806782B0CBF4FF0F6
:101AD000270C4FF0070C0022B1FBF0FE00FB1E1399
:101AE0007146092B88BF63445BB2551C30330DF837
:101AF0000230BEF1000F02D0102D3BD10F22310772
:101B000005D504AB1D442D2305F8103C951C16F09B
:101B1000010F14BF4FF0300A4FF0200AA946B30757
:101B20002ED5013D1DF90500FFF735FF002DF8D139
:101B3000C845BDD92020FFF72EFF09F10109F7E7BD
:101B40002020FFF728FF35466E1C4545F8D3354663
:101B5000A9E72020FFF71FFF0135A7E72C1D95F906
:101B60000000FFF718FFA3E71020A5E70220A3E776
:101B70000A20A1E72A46AFE75046FFF70CFFB1461F
:101B800009F10106C145F7D3B146CAE704B0BDE883
:101B9000F0870FB407B504A951F8040B0191FFF7C2
:101BA0001FFF03B05DF804EB04B070470EB417B527
:101BB00005A951F8043B41F65054C2F200042060DC
:101BC00001911846FFF70CFF226800231370236071
:101BD00003B0BDE8104003B0704770B596B0012166
:101BE0004FF4807005F03BFB012140F2E11005F05D
:101BF00042FB4FF4FF43ADF81C3018238DF81F3023
:101C000003238DF81E3007A94FF4C050C4F2010021
:101C100005F0BFF91025ADF81C504FF4A054C4F2E4
:101C2000010407A9204605F0B4F92023ADF81C30C3
:101C300007A9204605F0ADF94FF40063ADF81C305C
:101C400007A9204605F0A5F94023ADF81C308DF812
:101C50001F5007A9204605F09CF98023ADF81C30E1
:101C600007A9204605F095F94FF48076ADF81C6081
:101C70004FF44064C4F2010407A9204605F089F935
:101C80003146204605F0D9F90223009301930293CF
:101C900005230393049305930023069304240794D8
:101CA000089309930A950B930C930D930E930F933E
:101CB0004FF480521092119312931393CDF850D099
:101CC000CDF854D007A805F0BCF90121204605F055
:101CD0001DFA16B070BD0B460A46014600F0E6B983
:101CE0002DE9F04F87B0824689469B4641F66855FC
:101CF000C2F200052B685F7A4FEAD70807F00707A2
:101D00001078537843EA002000F005FB04460AEB04
:101D1000C8039BB2029300262B689B7A9E423FDA4F
:101D2000002309EB060292B2039219E00AEBC30208
:101D300092B201920022E15C914008060CD5059315
:101D4000019B98180492039980B2FFF7C4FF58468C
:101D500000F0A3F9059B049A0132082AEBD1013364
:101D60004345E3DB4444002309EB060292B2BB4245
:101D700003DB07B101340136CEE72178994009062B
:101D80000CD50299C81803931146019280B2FFF74F
:101D9000A2FF584600F081F9039B019A0133E6E760
:101DA00007B0BDE8F08F2DE9F04F87B08246894635
:101DB0009B4641F66455C2F200052B685F794FEAF5
:101DC000D70807F00707104600F09AFA04460AEB16
:101DD000C8039BB2029300262B689B799E423FDA90
:101DE000002309EB060292B2039219E00AEBC30248
:101DF00092B201920022E15C914008060CD5059355
:101E0000019B98180492039980B2FFF764FF58462B
:101E100000F043F9059B049A0132082AEBD1013303
:101E20009845E3DC4444002309EB060292B29F424A
:101E300003DC07B101340136CEE721789940090669
:101E40000CD50299C81803931146019280B2FFF78E
:101E500042FF584600F021F9039B019A0133E6E75F
:101E600007B0BDE8F08F2DE9F74F07468B4699463E
:101E7000BDF830A041F66855C2F200052B685E7AC5
:101E8000F308019306F007061078537843EA002020
:101E900000F041FA04462A68937A5B44507A384449
:101EA000013B5A46411E384600F000F94FF0000849
:101EB0002A68927A90452BDA274611E04FF0000B02
:101EC0003A7802FA0BF212F0800F14BF48465046DF
:101ED00000F0E3F80BF1010BBBF1080FF0D1013773
:101EE0003A1B019B9342E9DC1C440027B74204DB08
:101EF00006B1013408F10108DAE72278BA4012F09D
:101F0000800F14BF4846504600F0C7F80137EDE790
:101F100003B0BDE8F08F2DE9F74F07468B46994691
:101F2000BDF830A041F66455C2F200052B685E7919
:101F3000F308019306F00706107800F0E1F9044673
:101F40002A6893795B4450793844013B5A46411ED4
:101F5000384600F0ABF84FF000082A6892799045B7
:101F60002BDA274611E04FF0000B3A7802FA0BF219
:101F700012F0800F14BF4846504600F08EF80BF167
:101F8000010BBBF1080FF0D101373A1B019B9342C3
:101F9000E9DC1C440027B74204DB06B1013408F138
:101FA0000108DAE72278BA4012F0800F14BF4846E1
:101FB000504600F072F80137EDE703B0BDE8F08F4E
:101FC0002DE9F34704460F4615469A4640F220068F
:101FD000C2F2000641F66858C2F2000841F66459A0
:101FE000C2F200092A781AB9012002B0BDE8F087D0
:101FF0007F2C3AD89F2F38D882F080031F2B01D92D
:10200000DF2A1AD9BAF1000F0DD133681B882A468E
:1020100039462046FFF764FE0235D8F800305B7A77
:102020001C44A4B2DEE732681388528800922A4624
:1020300039462046FFF717FFEEE7BAF1000F0AD145
:1020400033681B8839462046FFF7ADFE0135D9F8C5
:1020500000305B79E4E732681388528800922A46A0
:1020600039462046FFF757FFF0E70020BDE738B5B7
:102070004FF4A054C4F20104402525616420FEF70A
:102080007FFA6561802363616420FEF779FA256138
:102090006420BDE83840FEF773BA02090023C6F693
:1020A00002031A80000180B21880704770B54FF0AB
:1020B000D0464FF4287434800024C6F6020400256C
:1020C0002580C0B2000120802580C9B2090121808D
:1020D0004FF42C7131802580D2B2120122802580EC
:1020E000DBB21B0123804FF43073338070BD07B522
:1020F0009F2300227F211046FFF7D8FF4FF4A04313
:1021000001930022C6F6020240F6FF704FF6F0710E
:1021100010801180019B013B0193002BF8D103B08B
:102120005DF804FB2DE9F843FFF757FDFFF79FFF2C
:102130004FF0D04410252580B420FEF721FA4FF44B
:10214000807323806420FEF71BFA4FF4887323808A
:102150009620FEF715FA4FF4316323800023C6F66C
:10216000020360261E803020188020221A804FF43F
:102170003461218018804FF4366121801A804FF03D
:10218000E00CA3F800C04FF4756121804FF4D071CA
:1021900019804FF4406EA4F800E01A8000211980E5
:1021A0004FF44167278050271F804FF442672780F4
:1021B0001A801A804FF4436727801D801A804FF4DD
:1021C000446727801D801A804FF4456727804FF4AD
:1021D0008E671F804FF468771F804FF47268A4F8F1
:1021E00000801A804FF47668A4F800804FF4986855
:1021F000A3F800804FF47868A4F800801E804FF4A4
:102200006068A4F800801E804FF4E078A3F8008096
:102210004FF4F878A3F80080A3F800804FF4C0785A
:10222000A3F800804FF49879A3F800901E801880DE
:1022300018804020188070201880188019804FF472
:1022400061662680A0261E804FF4A0761E804FF483
:10225000D8761E80A3F800804FF490761E80A3F8F5
:1022600000C01A801D8019801D8080221A8018806D
:1022700019804FF458722280A3F800E027804FF4B1
:10228000AA621A804FF4547222801980FFF72FFF40
:102290004FF4247323801420BDE8F843FEF770B98F
:1022A00070B541F66853C2F200031968CD7A142262
:1022B0000023AB4203DB4FF0FF33184670BD0C68C0
:1022C000A61836F8026C864202D8A45A8442F4D288
:1022D00001330432EDE701608B7B4371CA7B82716D
:1022E00013F0070F4FEAD30314BF03FB022353433A
:1022F0000371704741F66453C2F2000318607047DF
:1023000041F66453C2F200031A681379584311303E
:1023100013681844704710B50446FFF7C1FF431C0B
:1023200005D148F2A010FFF7BBFF48F2A01441F618
:102330006853C2F200031B681A6802EB8002528ADB
:10234000A41A03EB400080890444187A5B6800FB00
:10235000043010BD8378C27843EA0222437843EA0E
:102360000223007840EA0320704701700B0A437093
:102370000B0C8370090EC1707047024400F8011BFA
:102380009042FBD1704702398369023B99423DBFBD
:102390004389C06A01FB03000020704730B5026822
:1023A0005AB111460B4611F9014BE5B2202D0DD95A
:1023B0003A2CF7D1511C8B4202D04FF0FF3030BD88
:1023C00092F90020302AF8D101330360002030BD9B
:1023D00038B50D46044618B900232B60092038BDD6
:1023E0000368002BF8D01A78002AF5D0D9888288A3
:1023F0009142F1D1587802F040FF10F00100EBD18A
:1024000023682B6038BD01380A4411F8013B00F8FD
:10241000013F9142F9D17047CA7E8B7E43EA022385
:10242000032801BF487D0A7D42EA002243EA0243B5
:10243000184670478A76C2F30723CB760378032BBE
:1024400001BF120C0A75120A4A757047F8B50446A6
:10245000056B00F1340701232A463946407802F023
:1024600067FFA0B9E070636AEB1AE269934201D397
:102470000020F8BDA678012EFAD9E3691D44012396
:102480002A463946607802F053FF013EF3E7012007
:10249000F8BDC3780BB1FFF7D9BF18467047F8B540
:1024A0000446FFF7F6FF0546002842D12378032BA8
:1024B00037D12779012F34D104F134064FF400725B
:1024C00001463046FFF759FF552384F83232AA23DC
:1024D00084F83332522384F8343084F83530612361
:1024E00084F83630412284F83720722184F818129B
:1024F00084F8191284F81A2284F81B32216904F531
:102500000770FFF732FFE16804F50870FFF72DFF51
:10251000226A013222633B463146607802F008FFAE
:10252000257100221146607802F04AFF003018BF82
:102530000120F8BD70B506460D46036B8B4212D0E4
:10254000FFF7A7FF044660B901232A4606F13401CC
:10255000707802F0A6FE00281CBF01244FF0FF3562
:102560003563204670BD0024FBE710B50446002308
:10257000C3704FF0FF330363FFF7DCFF70BB94F8C9
:10258000332294F8323243EA02234AF65522934228
:1025900026D194F83430E92B07D0636B03F0FF1396
:1025A000EB22C0F2900293421CD104F16A00FFF7C3
:1025B000D1FE20F07F4044F24613C0F2540398420B
:1025C00012D004F18600FFF7C5FE44F24613C3F2B1
:1025D0005433984214BF0220002010BD042010BDC7
:1025E000032010BD022010BD002010BD2DE9F043D6
:1025F00085B00F46154600230B60FFF7CFFE061E81
:10260000C0F23D8141F66C53C2F2000353F82640FC
:10261000002C00F036813C6005F0FE05237873B194
:10262000607802F02AFEC10709D4002D00F02B814A
:1026300010F0040000D00A2005B0BDE8F0830023AC
:102640002370F0B2607002F008FEC20700F11D8135
:102650000DB14307EFD400212046FFF786FF022883
:1026600040F0F38004F5FD75002115F8040C10B15D
:102670002846FFF76FFE4DF821000131103504297F
:10268000F3D100255DF82560002E00F0D58031469D
:102690002046FFF76AFF012800F2CF8094F840201F
:1026A00094F83F3043EA0223B3F5007F40F0D18035
:1026B00094F84B3094F84A5055EA032504D104F1BC
:1026C0005800FFF747FE0546E56194F8449084F80A
:1026D000029009F1FF33012B00F2BB8094F84170A6
:1026E000BBB26381002B00F0B4807B1E3B4240F004
:1026F000B08094F8463094F8458048EA0328A4F85E
:10270000088018F00F0F40F0A48094F8481094F857
:10271000470050EA012003D104F15400FFF71AFEEC
:1027200094F8433094F8422052EA032200F091805A
:1027300005FB09F302EB181E9E447045C0F089802A
:10274000A0EB0E01B1FBF7F1002900F082804FF6FB
:10275000F570814200F2818040F6F577B9428CBF76
:10276000022701270231A16126623244626206EB30
:102770000E00E062032F72D194F85F2094F85E306F
:1027800053EA022365D1B8F1000F62D104F1600071
:10279000FFF7E0FDA062890001F2FF11B5EB512FB8
:1027A00057D34FF0FF332361E36080232371032F5E
:1027B00035D194F8652094F8643043EA0223012B64
:1027C0002DD1711C2046FFF7B5FE40BB207194F857
:1027D000332294F8323243EA02234AF655229342D6
:1027E0001DD104F13400FFF7B5FD45F25223C4F2C8
:1027F0006113984213D104F50670FFF7ABFD47F261
:102800007223C6F24113984209D104F50770FFF70D
:10281000A1FD206104F50870FFF79CFDE0602770C2
:1028200041F67052C2F20002138801339BB213804A
:10283000E38000206061FFE603200135042D7FF472
:1028400021AF042805D10120F6E60428FBD0012899
:1028500001D90D20F0E6002620E7032782E7B8F132
:10286000000FF6D01344A362022F4FEA41000FBFBE
:102870000146401801F0010101EB50018CE70B20EB
:10288000DAE60C20D8E62846D6E60320D4E62DE981
:10289000F04705460C461746012972D983699942CB
:1028A0006FD20378022B3FD0032B50D0012B68D17D
:1028B00001EB5108416A01EB5821FFF73BFE064648
:1028C00038BB05F1340908F1010AC8F3080814F00F
:1028D00001041FBF19F8083003F00F023B0103F099
:1028E000F00314BF1343FBB209F808300123EB7067
:1028F000696A01EB5A212846FFF71CFE064640B9DB
:10290000CAF3080A44B1C7F3071709F80A7001238C
:10291000EB703046BDE8F08719F80A3023F00F035A
:10292000C7F303271F43F0E7416A01EB1421FFF7C8
:1029300001FE06460028ECD105F13403640004F4DE
:10294000FF741A191F55C7F307275770DFE7416A4D
:1029500001EBD411FFF7EEFD06460028D9D105F1B1
:102960003403A40004F4FE741C442046FFF7F2FC78
:1029700027F0704700F0704139432046FFF7F5FC1F
:10298000C5E70226C5E7F8B505460C46012952D928
:10299000836999424FD20378022B29D0032B38D078
:1029A000012B48D101EB5106416A01EB5621FFF79B
:1029B000C1FD10B14FF0FF30F8BD771CC6F308061B
:1029C0002E4496F83460696A01EB57212846FFF7D8
:1029D000B1FD0028EED1C7F308073D4495F8340057
:1029E00046EA0020E3074CBF0009C0F30B00F8BD26
:1029F000416A01EB1421FFF79DFD0028DAD134353F
:102A0000640004F4FF742B195B78285D40EA03200E
:102A1000F8BD416A01EBD411FFF78CFD0028C9D144
:102A200005F13400A40004F4FE742044FFF792FC86
:102A300020F07040F8BD0120F8BDF8B506460D46FF
:102A4000B1F5001F01D30220F8BDCA06FBD104680E
:102A500031618268C2B92378022B01D9A36AA3B974
:102A60002389B3EB551FEED9A36AB3617261B369D1
:102A7000002BE8D003EB5523B3613434C5F30805CC
:102A80002C44F4610020F8BD134667897F021A4682
:102A90001146BD4204D22046FFF775FCB061E5E760
:102AA0003068FFF770FF0246431C06D00128CAD9E0
:102AB000A3699842C7D2ED1BEAE70120F8BD2DE9D2
:102AC000F041804605680F4671B9EE68F6B1AB6912
:102AD0009E4228BF012634460134AB699C4218D37C
:102AE000012E15D8002409E02846FFF74CFF0446C4
:102AF000012837D9431C04D14FF0FF342046BDE8EC
:102B0000F081AB699842F9D33E46E4E70126E2E75B
:102B100002242146D8F80000FFF735FF30B1012824
:102B200020D00130E8D0B442D6D1DBE74FF0FF32FD
:102B300021462846FFF7ABFE90B957B9EC602B69E8
:102B4000AA69023A93420FD92B7943F001032B7102
:102B5000D4E7224639462846FFF799FE0028EDD0F3
:102B60000128C9D00124C9E7013B2B61ECE7F8B586
:102B700007460D461146012D01D80220F8BD046814
:102B8000A3699D42F9D22AB14FF0FF322046FFF7E8
:102B90007EFE08BB29463868FFF7F5FE064608B9F1
:102BA0000020F8BD0128E8D0431C14D0002229469B
:102BB0002046FFF76CFE78B92369A269911E8B420B
:102BC00005D201332361237943F001032371354694
:102BD0009642DFD3E4E70120F8BD2DE9F047054632
:102BE0000F468369ABB1026902F12008B8F5001FF6
:102BF0000FD20468C8F30809B9F1000F4FD10133AF
:102C00008361416941B92389B3EB581F47D8002339
:102C1000AB610420BDE8F0876389013B13EA5823C8
:102C20003DD12046FFF7AFFE0646012802D802201C
:102C3000BDE8F087421C02D10120BDE8F087A369FE
:102C4000984226D3002FE2D069692846FFF737FF64
:102C50000646002837D00128E9D0431CECD0204696
:102C6000FFF717FC07460028E6D14FF40072014633
:102C700004F13400FFF781FB31462046FFF783FB68
:102C800020634FF0010A63899F4210D3236BDF1B3F
:102C900027636E6131462046FFF775FBA861C5F8D2
:102CA000108034344C44EC610020BDE8F08784F897
:102CB00003A02046FFF7CAFB0028BDD10137236BD4
:102CC00001332363DFE70720BDE8F0872DE9F041FA
:102CD00004460D46076891F900302F2B01D05C2B7C
:102CE0000AD12A46154692F9003001322F2BF9D02D
:102CF0005C2BF7D0002300E07B69A3602B781F2BAF
:102D00002ED904F120060B2220213046FFF735FB97
:102D100095F900302E2B2CD0002210464FF0080ED3
:102D2000411C2B5C202B0BD92F2B68D16818411B21
:102D300010F901EBBEF12F0FF9D0BEF15C0FF6D008
:102D4000002A00F0918094F82020E52A04BF052293
:102D500084F82020202B8CBF002304230D4421E085
:102D6000802384F82B3000212046BDE8F041FFF796
:102D700064BE681E04F11F010022013210F8013FF9
:102D80002E2B04D1032A6FD001F8013FF5E72F2B3A
:102D900003D05C2B01D0202B66D81544202B8CBF90
:102DA0002023242384F82B30D4F8008000212046EF
:102DB000FFF743FE00285CD1A1694046FFF7BAFB4C
:102DC000002856D1E3691A78002A65D0DA7A02F031
:102DD0003F02A271DA7A11070CD403F10B0E3146CF
:102DE00013F8012B11F801CBA2EB0C029E453ED04B
:102DF000002AF5D000212046FFF7EFFEDAE75C2B32
:102E000094D02E2B62D096452ED903F17F0C5FFA19
:102E10008CFCBCF11E0F06D903F1200C5FFA8CFC70
:102E2000BCF11C0F16D8023015F801C0ACF14001FE
:102E30003E2903D98CF080017C2915D80EF1FF3191
:102E40008A4211D2511CB35406F801C00232014625
:102E5000084665E74DF2F71CC0F6000C1CF9010F9F
:102E600000283AD08342F9D10620BDE8F081002A3B
:102E7000C0D194F82B30B0B1042837D113F0200F13
:102E800003F004030AD0002B3FF43DAF802384F805
:102E90002B300020BDE8F0810420EAE7002B08BFBA
:102EA0000520BDE8F0815A0720D4A379DB060AD5B6
:102EB00007F134012369C3F3080319443878FFF795
:102EC000ABFAA0601FE70520BDE8F081BEF10B0F53
:102ED000CAD008224FF00B0EBAE7A3F161001928FF
:102EE00001D8203BDBB2B3540132B1E7BDE8F08139
:102EF00038B5044605680021FFF79FFD70B9A16948
:102F00002846FFF717FB48B9E3691B78E52B08D083
:102F10003BB101212046FFF760FEEFE7042808BF20
:102F2000072038BD70B505460668FFF7E1FF044687
:102F300090B9A9693046FFF7FDFA044660B920222E
:102F40000146E869FFF719FA0B2205F12001E8694B
:102F5000FFF759FA0123F370204670BD1FB50190A9
:102F60000091144604A840F8041DFFF717FA011E4B
:102F700019DB41F66C53C2F2000353F8210008B18B
:102F800000220270019808B100220270019843F8F3
:102F9000210030B1012C08D1002201A96846FFF7B9
:102FA00025FB04B010BD0B20FBE70020F9E72DE95D
:102FB000F04391B0019116460446002800F0C78006
:102FC00002F03F052A4603A901A8FFF70FFB0028DE
:102FD00040F0BF8010AF039B47F8303D0199384661
:102FE000FFF774FE024620B99DF93B30002BB8BFB5
:102FF000062216F01C0F77D05AB1042A03D13846A6
:10300000FFF790FF024645F0080552B10023236008
:1030100066E09DF8163013F0110F6FD1720700F1C2
:103020009A802B073CD5FDF732FF024601460B98EC
:103030000E30FFF79AF911460B981630FFF795F905
:1030400020220B9BDA72DDF80C80DDF82C904946CB
:1030500098F80000FFF7E0F906460022494640468E
:10306000FFF7E8F90B9B00221A775A779A77DA77FD
:103070000121039BD9709EB1039BD3F83080314668
:103080003846FFF774FD02460028BFD14146039839
:10309000FFF750FA013E039BDE6002460028B5D1DF
:1030A000290748BF45F04005039F3B6B23620B9EF9
:1030B000666231463878FFF7AFF90146A06006F145
:1030C0001C00FFF747F90646E0602760FB88A380F5
:1030D000257400236374E3616361AA0610D400229F
:1030E000104611B0BDE8F083002A8FD19DF816304C
:1030F000DF0632D4B607D3D5D807D1D5072285E766
:103100000028ECD060617D896D02B54201D30022B8
:103110000BE02068FFF737FC0146012815D9431C56
:103120005A425A41761B002AEFD0A161002A7FF44F
:103130006DAFC6F30803002BD1D00398FFF723F936
:1031400068B100EB5620E061CAE70222EAE70922F3
:10315000C6E702465AE7082258E7042256E7022249
:1031600054E72DE9F04F85B00446884617469B4644
:103170000023CBF8003003A9FFF72AF9064610BB5D
:10318000667C06BB237C9A0740F1A4806369FB42FE
:1031900000D3DF439FB16369C3F30802002A7CD1E7
:1031A000039A5289013A12EA532201921ED173B94D
:1031B000A06870B901462046FFF781FC48B9237C1E
:1031C00043F040032374304605B0BDE8F08FA16999
:1031D000F1E7012802D102266674F4E7431C01D10D
:1031E0000126F9E7A061A36803B9A0600398026B08
:1031F000E3699A4203D1FFF74CF90028F0D1DDF8DA
:103200000CA0A1695046FFF7BEF80028E3D0019B4F
:1032100003EB00097D0A32D0BAF80A30019A2A4439
:103220009A4284BF019A9D1A2B464A4641469AF813
:10323000010002F07DF882460028D1D10398016B8D
:10324000A1EB09018D4209D94FF4007208EB41212D
:103250003430FFF7D8F8039B83F803A06D02A8442D
:1032600063692B446361E2689A422CBFE260E360C9
:10327000DBF800302B44CBF800307F1B8AE7626913
:10328000E3689A4207D35046FFF703F90028A7D115
:10329000039BC3F83090C4F81C906569C5F308051A
:1032A000C5F50075BD4228BF3D46E1690398FFF7AB
:1032B00041F9002894D1039834306369C3F30803BB
:1032C0002A4641461844FFF79EF8039B4FF001023F
:1032D000DA70C4E7072676E7F7B5044601A9FFF7D9
:1032E00077F8054660BB237C5B0629D5FDF7CFFD4B
:1032F0000746216A0198FFF71DF9054600BB666A7B
:10330000F37A43F02003F372A26831462068FFF796
:1033100091F8E16806F11C00FFF727F8394606F13D
:103320001600FFF722F8B574F5740122019BDA70DC
:103330000198FFF7B4F80546237C23F0400323747B
:10334000284603B0F0BD13B50446FFF7C5FF28B902
:1033500001A92046FFF73CF800B9206002B010BD7B
:10336000F7B504460D4601A9FFF732F806460028D6
:103370004FD1667C002E4CD1E368AB4204D2227C54
:1033800012F0020F08BF1D466369002262619DB9F9
:10339000284609E000206569E3689D4281BFE56039
:1033A000237C43F040032374C5F308058DB3E36920
:1033B00083422ED0E0612CE0019A57897F02F3B15D
:1033C000013B6A1EB2FBF7F2B3FBF7F18A4216D358
:1033D0007A4213406361ED1AA1690029DAD0BD4237
:1033E00021D863692B446361C5F30803002BD1D056
:1033F0000198FEF7C8FF50B100EB5520CBE7A1685C
:1034000079B92046FFF75BFB0146012804D102266B
:103410006674304603B0F0BD013001D10126F7E7F4
:10342000A160A161D9E7ED1B63693B446361237C23
:103430009A0706D52046FFF742FB014628B9054604
:10344000CFE72068FFF79FFA01464B1CE6D0012921
:10345000DDD9019B9B699942D9D2A161BFE710B523
:103460004FF48034802004F03BFA28B140F2FF5042
:1034700004F026FA002010BD013CF3D1032010BD5A
:1034800010B54FF40043C4F201035C6B14F0450F18
:10349000FBD014F0040404D0042004F011FA03203B
:1034A00010BD40F2FF5004F00BFA204610BD10B5DD
:1034B0004FF40043C4F201035C6B14F0450FFBD0E2
:1034C000630704D5042004F0FBF9032010BD14F0B9
:1034D000010404D0012004F0F3F9012010BD40F2F2
:1034E000FF5004F0EDF9204610BD37B50546002326
:1034F0000093019341F64460C2F2000041F6A452E9
:10350000C2F200021268120402600D2242604022E0
:103510008260C3604FF48063036104F08AF94FF462
:103520000043C4F201035A6B0192019A12F0450F55
:10353000F9D0019B590705D5042004F0C1F90320F7
:1035400003B030BD019C14F0010404D0012004F04C
:10355000B7F90120F4E704F082F90190019B0D2BEB
:1035600001D01020ECE740F2FF5004F0A9F920460A
:1035700004F07CF90090009BC3F343232B70009B65
:103580004EF20800CFF6FF5018400028D8D0009B1C
:10359000002B39DB009B5A0038D4009B9B0037D4AA
:1035A000009BDD0036D4009B1C0135D4009B5901E3
:1035B00034D4009BDA0133D4009B1B0232D4009B2D
:1035C0005D02CED4009B9C022ED4009BD9022DD448
:1035D000009B1A032CD4009B5B032BD4009B9D0300
:1035E0002AD4009BDC0329D4009B190428D4009B17
:1035F0005A0427D4009B9B0426D4009B13F0080F89
:103600000CBF00201A209BE71C2099E7092097E7B0
:103610000A2095E70B2093E70C2091E70D208FE718
:103620000E208DE70F208BE7112089E7122087E716
:10363000132085E7142083E7152081E716207FE714
:1036400017207DE718207BE7192079E770B506463B
:103650000D464FF47040C1F2000003F0B9FF40F294
:103660004444C4F202040021204603F08EFF41F6D8
:103670001861C2F200014E6000238B60AD08CD607E
:10368000204603F064FF01212046BDE8704003F0AE
:103690007CBF70B506460D464FF47040C1F2000085
:1036A00003F096FF40F24444C4F202040021204695
:1036B00003F06BFF41F61861C2F200014E60102367
:1036C0008B60AD08CD60204603F041FF012120460C
:1036D000BDE8704003F059BF38B505464FF40043CC
:1036E000C4F201035C6B14F0450FFBD0610704D5F5
:1036F000042004F0E5F8032038BD14F0010404D0E0
:10370000012004F0DDF8012038BD04F0A8F8A8423B
:1037100001D0102038BD40F2FF5004F0D1F820460F
:1037200004F0A4F84EF20803CFF6FF5303404BB366
:10373000002829DB420029D4830029D4C50029D4DC
:10374000040129D4410129D4C20129D4030229D476
:103750004502DED4840227D4C10227D4020327D431
:10376000430327D4850327D4C40327D4010427D4D3
:10377000420427D4830427D410F0080F0CBF002084
:103780001A2038BD184638BD1C2038BD092038BD68
:103790000A2038BD0B2038BD0C2038BD0D2038BDA7
:1037A0000E2038BD0F2038BD112038BD122038BD85
:1037B000132038BD142038BD152038BD162038BD63
:1037C000172038BD182038BD192038BD2DE9F34722
:1037D000064600230093019341F64464C2F20004BC
:1037E0004FF00809C4F80090102565604FF04008BC
:1037F000C4F80880E3604FF480672761204604F036
:1038000018F82846FFF768FF054600284CD141F616
:10381000A453C2F200031B681B0423604FF0370A55
:10382000C4F804A0C4F80880E0602761204604F0D2
:1038300000F85046FFF750FF0546A8BB41F6586018
:10384000C2F200006FF07F4380E8080230238360FB
:103850000223C36005610123436104F014F825606D
:103860004FF03309C4F80490C4F80880E56027617C
:10387000204603F0DEFF4846FFF72EFF054698B9C5
:10388000ADF104074FF40044C4F2010440F22A6889
:10389000636B13EA080F0BD0082004F021F890B1F5
:1038A000082004F00DF80425284602B0BDE8F08792
:1038B0004FF4001004F014F80028E9D003F0F9FFE9
:1038C00047F8040FE4E7022004F00AF820B10220D0
:1038D00003F0F6FF0225E7E7202004F001F820B10D
:1038E000202003F0EDFF0625DEE74FF4007003F023
:1038F000F7FF28B14FF4007003F0E2FF0725D3E78C
:1039000040F2FF5003F0DCFF009B1BBA7360019B89
:103910001BBA3360C8E7F7B5044600200090019059
:1039200003F0A4FF810157D46846FFF74FFF41F62B
:10393000A853C2F20003009A1A60019A5A6050BB61
:10394000012C2AD1520349D541F64464C2F2000445
:1039500041F6A453C2F200031B681B042360372501
:1039600065604027A760E0604FF4806626612046CE
:1039700003F05FFF2846FFF7AFFE60B90223236024
:1039800006256560A760E0602661204603F051FFD0
:103990002846FFF7A1FE03B0F0BDD3031ED541F6C4
:1039A0004464C2F2000441F6A453C2F200031B684F
:1039B0001B042360372565604027A760E0604FF453
:1039C00080662661204603F034FF2846FFF784FE18
:1039D0000028E0D12060D3E70E20DCE72520DAE7DD
:1039E00038B5054641F64460C2F2000041F6A453E2
:1039F000C2F200031B681B0403600D2444604023D3
:103A000083600023C3604FF48063036103F011FF00
:103A10002046FFF761FE044610B903F027FF286037
:103A2000204638BD07B50023019301238DF80330EC
:103A30009DF80330012B03D0FF2003B05DF804FB99
:103A400001A8FFF7CDFF0028F6D10198C0F343206D
:103A5000F3E708B5FFF7E6FF042804D0FF280CBF02
:103A60000220012008BD002008BD2DE9F3470025F4
:103A70008DF8075041F67060C2F20000B223037562
:103A8000056045608560C560056103F095FE032013
:103A900003F0AFFE012003F0A7FE4FF4FA60FCF73D
:103AA0007CFD41F64464C2F2000425606560A560B7
:103AB000E5604FF480652561204603F0BAFEFFF70C
:103AC000CEFC8DF807009DF8073003F0FF022BB104
:103AD0009DF80700C0B202B0BDE8F0874FF4D57082
:103AE0000821402384E80B00E2602561204603F0B2
:103AF000A0FE4FF40042C4F20102536B4FF4803138
:103B000013F0450F40F0828000297CD1042003F09F
:103B1000D7FE03238DF807309DF80730002B40F0C7
:103B2000858041F69453C2F2000301221A604FF0DF
:103B3000804600254FF0370884E820014023A36029
:103B4000E5604FF48067276141F64460C2F20000EF
:103B500003F06FFE4046FFF7BFFD8DF807009DF8AC
:103B6000073003F0FF02002B40F08680154641F637
:103B70004467C2F2000746F0114646F4801600235F
:103B80004FF0370A84E808044FF04009C4F8089061
:103B9000E3604FF48068C4F81080384603F049FEB3
:103BA0005046FFF799FD8DF807009DF8073003F0A8
:103BB000FF02002B8CD1266029236360C4F8089093
:103BC000E260C4F81080384603F033FEFFF758FC7B
:103BD0008DF807009DF8073003F0FF00002B7FF4FD
:103BE00077AF03F043FE41F6A053C2F20003186022
:103BF000013500284FF6FF7332DB9D42BFD11B23F6
:103C00008DF8073064E70139536B79E700293FF4F9
:103C10007DAF13F004057FF479AF13F040033FF458
:103C200079AF402003F04CFE2B4673E7002323605E
:103C30006360A360E3604FF48063236141F64460F6
:103C4000C2F2000003F0F5FDFFF709FC8DF8070054
:103C50009DF8073003F0FF06002B3FF46AAF37E70B
:103C60009D42CCD043007FF533AF41F69453C2F26E
:103C7000000302221A602BE74FF0F03384E828009B
:103C8000A560E560276141F64460C2F2000003F0E0
:103C9000D0FDFFF7E4FB8DF807009DF8072002F048
:103CA000FF03002A7FF414AF23606360A360E36026
:103CB000276141F64460C2F2000003F0BAFDFFF74D
:103CC000CEFB8DF807009DF8073003F0FF07002BAF
:103CD0007FF4FEAE4FF40049CCF2FF0941F6A05844
:103CE000C2F20008C4F80090012363604023A3607F
:103CF0000023E3604FF48063236141F64460C2F225
:103D0000000003F096FDFFF7BBFB8DF807009DF860
:103D1000073003F0FF06002B7FF4DAAE304603F0E5
:103D2000A5FD0546C8F80000013741F28830FCF7D0
:103D300034FCEA0F4FF6FF7336D19F42D2D11646BC
:103D40004FF4004AC8F2FF0A4FF0010941F64467F8
:103D5000C2F20007C4F800A0C4F804904023A36096
:103D60000023E3604FF480632361384603F061FD74
:103D7000FFF786FB8DF807009DF8073003F0FF0082
:103D8000002B7FF4A5AE03F071FD0546C8F80000D6
:103D9000013641F28830FCF700FC002D4FF6FF732E
:103DA00010DB9E42D6D12AE79F42C9D005F0C0451C
:103DB000B5F1804F41F69453C2F200030CBF0722C5
:103DC000032257E79E42F1D119E738B503F017FDFA
:103DD000002800F0A98041F69455C2F200052B6836
:103DE000042B27D041F64460C2F200000023036098
:103DF00002224260C0228260C3604FF4806303618C
:103E000003F017FDFFF753FB0446002868D103F0C9
:103E10002DFD41F67454C2F200042060042003F02A
:103E200025FD6060082003F021FDA0600C2003F058
:103E30001DFDE0602B68032B34D9053B022B31D9E3
:103E400001232A68042A73D041F6A452C2F2000268
:103E5000136041F64460C2F200001B0403600923B2
:103E60004360C02383600023C3604FF48063036119
:103E700003F0DFFCFFF71BFB044688BB03F0F6FCF6
:103E800041F68455C2F200052860042003F0EEFCE0
:103E90006860082003F0EAFCA8600C2003F0E6FC50
:103EA000E8601DE041F64460C2F2000000230360B8
:103EB0000322426040228260C3604FF4806303614A
:103EC00003F0B7FC4FF40043C4F201035C6B14F041
:103ED000450FFBD0600705D5042003F0F1FC032457
:103EE000204638BD14F0010404D0012003F0E8FCA2
:103EF0000124F5E703F0B3FC032801D01024EFE719
:103F000040F2FF5003F0DCFC204603F0AFFC10F45D
:103F1000604F01D1030C94E7810407D44204EDD42F
:103F200003048DD50F24DBE72524D9E71324D7E735
:103F30000024D5E72DE9F04341F69453C2F2000383
:103F40001D6880F8565041F6A453C2F200031B6866
:103F5000A0F8543041F68454C2F200042368190ECC
:103F6000CAB296090670C1F38301417002F00302E0
:103F70008270C3F30742C270C3F307220271DBB23F
:103F800043716268130E1B01C380C2F30741C388EB
:103F90009BB243EA1113C38001F00F010172110AB1
:103FA000CBB2DE094672C1F380168672C1F34016A9
:103FB000C672C1F30016067300264673012D3ED863
:103FC000890201F4406101610369920002F47F7289
:103FD0001A430261A368190ECAB2066946EA92162C
:103FE0000661C1F3C201017502F0070242751A0CA5
:103FF000C2F342118175C2F38201C175520002F011
:1040000006020276C3F30723027E42EAD312027647
:104010000169077E027A012606FA02F2026502377A
:10402000BE404FEAE679A6FB026702FB09774A1C0D
:10403000A6FB028902FB0799C0E9128921E0022D43
:1040400040F0CA80120402F47C120261A368026983
:10405000190E42EA012202610169C3F307420A43D1
:104060000261C3F3072306690027013647F1000701
:10407000FA0442EA5632C264F60486644FF40072CF
:104080000265C3F3801242765B0003F07E03837601
:10409000237A827E42EAD312827603F07F03C376CC
:1040A000E268130ED9090177C3F341114177C3F3D5
:1040B000820181779B0003F00C03C377110CCBB214
:1040C000C47F44EA9314C477C1F3401180F82010F0
:1040D000002480F8214003F0010380F82230130A05
:1040E000D9B2CE0980F82360C3F3801680F824602B
:1040F000C3F3401680F82560C3F3001680F82660ED
:10410000C3F3810380F8273001F0030180F8281001
:10411000C2F3460280F82920012280F82A20022DCD
:1041200000F2898041F67451C2F200010B681C0E46
:1041300080F82C40C3F307442402C485C48DA4B284
:10414000C3F307252C43C4851B0603634B68046B2C
:104150001D0E44EA05440463056B1C0A04F47F4405
:104160002C430463056BC3F307242C430463DBB2C5
:1041700080F834308B681C0E80F835401C0C240607
:104180008463856B1C0204F47F042C438463846B7A
:104190001B029BB223438363CB68816B41EA1361AB
:1041A0008163190C90F83C40C1F303152C4380F84F
:1041B0003C40090201F47061C187C18F89B2C3F329
:1041C00007242143C187C3F3460380F8403080F8B9
:1041D00041200020BDE8F083032D3FF4F1AE072D10
:1041E0007FF44FAF890201F44061016103699200DD
:1041F00002F47F721A430261A368190ECAB20669FB
:1042000046EA92160661C1F3C201017502F0070287
:1042100042751A0CC2F342118175C2F38201C17555
:10422000520002F006020276C3F30723027E42EA3E
:10423000D312027625E725F00405032DC9D141F6F6
:104240007451C2F200010B681D0E80F82C50C3F3AC
:1042500007452D02C585C58DADB2C3F3072635438D
:10426000C5851B0603634B68056B1E0E45EA0645B4
:104270000563066B1D0A05F47F4535430563056B31
:10428000C3F307232B43036380F834408B6890F813
:10429000344044EA136480F83440C3F3074480F8A0
:1042A00035401C0A24068463846B1B0403F47F03DB
:1042B00023438363CB68816B1C0E41EA0421816335
:1042C000846BC3F30741214381631C0A210101F080
:1042D000F001C187C18F89B2C4F3031471E72DE9DE
:1042E000F843064641F69453C2F200031B6823F0DC
:1042F0000402032A02D0052B40F09180B6F5805FBE
:1043000000F0A880B6F5006F77D141F6B053C2F245
:1043100000035B78032B64D9002003F0A7FA10F0A8
:10432000007003D00E242046BDE8F88341F64465B2
:10433000C2F200054FF40063C0F2BB332B600627C6
:104340006F604FF04009C5F80890E8604FF480684E
:10435000C5F81080284603F06CFA41F28830FCF76B
:104360001CF93846FFF7B8F904460028DBD14FF4B2
:104370008073C0F2B93385E88802E860C5F8108020
:10438000284603F056FA41F28830FCF706F9384621
:10439000FFF7A2F904460028C5D14FF48073C0F29C
:1043A000B73385E88802E860C5F81080284603F036
:1043B00040FA41F28830FCF7F0F83846FFF78CF904
:1043C00004460028AFD141F67060C2F2000001231C
:1043D0000375046044608460C660046103F0ECF916
:1043E000A1E741F67060C2F20000022303750024C9
:1043F000046044608460C460EFE7002003F036FA94
:1044000083018FD43720FFF767F9044600288AD14B
:1044100041F67060C2F2000002230375E8E7022B48
:1044200016D8B0F5805F15D0B0F5006F03D101202C
:10443000FFF771FAC4E70020FFF76DFA0446002881
:104440007FF471AF41F67060C2F200000123E4E72F
:10445000002468E7272466E710B541F64463C2F2FA
:104460000003186007245C6040229A600022DA6032
:104470004FF480621A61184603F0DBF92046BDE86C
:104480001040FFF729B92DE9F047ADF5067DFFF79C
:104490009CFC0446002840F0908041F67060C2F217
:1044A000000001250575046044608460C4600461F7
:1044B00003F082F931238DF804308DF805408DF832
:1044C00006408DF8075001A802F014FD41F6B055E2
:1044D000C2F200052846FFF72DFD044630B9B5F8B5
:1044E000540000042146FFF7B7FF044641F69453F9
:1044F000C2F200031B68072B59D16B78032B56D9E6
:1045000041F65860C2F200006FF07F414FF4007234
:104510009023022680E84E000026066101234361B5
:1045200003F0B1F941F64460C2F2000006600827CA
:10453000476040238360C6604FF48063036103F0EB
:1045400078F93846FFF7C8F8A0B90DEB07064FF425
:104550000048C4F2010840F22A69D8F8343013EA5E
:10456000090F2FD0082003F0BBF900283BD008200A
:1045700003F0A6F92A7A012393402B659DF8DF000A
:104580009DF8DE309DF8DD209DF8DC101B0443EA29
:1045900000630B4343EA0223DA0DEA645B02AB6477
:1045A0009DF8C82041F69853C2F200031A7024B94E
:1045B0004FF40060FFF793FE044620460DF5067D9C
:1045C000BDE8F0874FF4004003F08AF90028C4D01A
:1045D000371F06F11C0A03F06CF947F8040F574522
:1045E000F9D12036B9E7022003F07AF908B10220A8
:1045F000BEE7202003F074F908B12020B8E74FF49B
:10460000007003F06DF960B906F18067043F4FF464
:10461000001003F065F908B1B74205D140F2FF5030
:10462000A6E74FF40070A3E703F043F946F8040B44
:10463000EDE707B50121B02002F01DFE4FF4F8535D
:10464000ADF8043003238DF8063018238DF80730B9
:1046500001A94FF48050C4F2010002F09AFC042337
:10466000ADF804300DEB03014FF4A050C4F201008B
:1046700002F08FFC01214FF4806002F0F0FD012177
:10468000022002F0ECFD41F61863C2F2000348F28A
:104690008002C4F201021A6000225A609A60DA6055
:1046A0001A61802159614FF4007199614FF40061E2
:1046B000D9611A624FF4005159629A6203F069F8A5
:1046C000FFF7D3F908B9FFF7DEFE03B05DF804FB8E
:1046D0002DE9F04F85B0009090469946BDF838B06E
:1046E00041F6D067C2F2000700200021C7E90001AF
:1046F00041F6DC66C2F200060024347041F6D8654B
:10470000C2F200052C604FF40043C4F20103DC62E6
:10471000204603F088F8204603F0A8F810F0007F48
:104720000197029540F08D8041F69453C2F2000348
:104730001B68022B01D0072B05D14FEA582848EA05
:10474000C9584FF4007B0BF1FF318BB2B3F5006F0A
:1047500079D211EA0B0176D15F46481C012F6CD14A
:10476000039141F64464C2F20004C4F800B010257D
:1047700065604FF0400AC4F808A00020E0604FF4E4
:104780008069C4F81090204603F053F82846FEF7DD
:10479000A3FF0546039900284BD141F65860C2F2A9
:1047A00000006FF07F4380E80808090101F47F6191
:1047B00081600221C1600561476103F064F81FFA5E
:1047C0008BF00021019BC3E9000141F6CC61C2F2EC
:1047D00000010D60394640F22A3003F018F83846DF
:1047E00003F021F859460098FEF730FFC4F8008026
:1047F00011276760C4F808A0E560C4F8109020464F
:1048000003F017F83846FEF767FF054688B94FF4FE
:104810000054C1F20004204602F0CFFE28B9029BEA
:104820001B6813B93378002BF5D033780BB135788A
:10483000EDB2284605B0BDE8F08FC7F34F0701463B
:104840008BE70E25F5E72625F3E72DE9F74F0090D6
:1048500090469946BDF8306041F6D065C2F2000539
:1048600000220023C5E9002341F6DC67C2F20007FD
:1048700000243C7041F6D862C2F2000214604FF48A
:104880000043C4F20103DC62204602F0CCFF204664
:1048900002F0ECFF10F0007F294640F09D8041F6C9
:1048A0009452C2F200021368022B01D0072B05D1EB
:1048B0004FEA582848EAC9584FF40076751EABB243
:1048C000B3F5006F05D34FF0260B584603B0BDE893
:1048D000F08F3540F7D1B1466B1CB9F1010F77D19C
:1048E000019141F64464C2F2000426604FF0100BBF
:1048F000C4F804B04FF0400AC4F808A00020E060FB
:104900004FF480632361204602F093FF5846FEF780
:10491000E3FE83460028D8D10D984643B6F1007FC8
:104920000199D0D232460023C1E9002341F65860F4
:10493000C2F200006FF07F4180E842002D0105F4D3
:104940007F6585600221C160C0F810B0C0F8149086
:1049500002F099FF41F6CC61C2F20001C1F800906B
:10496000494640F22A3002F052FF484602F05BFF0F
:1049700031460098FEF76AFEC4F800801225656093
:10498000C4F808A0C4F80CB04FF48063236120463B
:1049900002F04FFF2846FEF79FFE8346002894D181
:1049A0004FF40055C1F2000541F6D864C2F200048C
:1049B000284602F002FE20B9226812B93A78002A8D
:1049C000F6D03A78002A80D03B785FFA83FB7CE708
:1049D000C9F34F091D467FE74FF00E0B75E72DE930
:1049E000F04F89B0029091469A46BDF84860002584
:1049F0008DF81B50079541F6DC67C2F200073D7049
:104A000041F6D86BC2F2000BCBF8005041F6D068EB
:104A1000C2F2000800220023C8E9002341F65864CE
:104A2000C2F200046FF07F4384E82800A560E560CF
:104A300025616561204602F026FF284602F0F3FE5C
:104A4000284602F013FF10F0007F0197CDF80CB05C
:104A5000CDF8108040F0F28041F69453C2F200038A
:104A60001B68022B01D0072B05D14FEA592949EACF
:104A7000CA594FF40076751EABB2B3F5006F80F0E3
:104A8000DF80354040F0DC8033466A1C012B40F06B
:104A9000A68041F64467C2F200073E604FF0100B5B
:104AA000C7F804B04FF0400AC7F808A00023FB6025
:104AB0004FF480623A610592384602F0BAFE5846D9
:104AC000FEF70AFE0146059A002840F0848041F670
:104AD000A458C2F20008D8F8001001FA0BF13960AE
:104AE0004FF00D0BC7F804B0C7F808A0F8603A61A2
:104AF000384602F09EFE5846FEF7EEFD01460028BD
:104B000069D102F0B3FE6FF07F420792CDF814A096
:104B1000BA4610F4807002D1079A002A63D1079A2E
:104B2000002A00F08F8041F6CC62C2F200024FF002
:104B30000008C2F80080012140F21A3002F067FE3E
:104B4000012002F070FE31460298FEF7A2FDC7F880
:104B500000904FF01809C7F804904022BA60C7F8D7
:104B60000C804FF480623A6141F64460C2F200006A
:104B700002F05FFE4846FEF7AFFD014658BBB2B2F9
:104B800000230499C1E900236FF07F4384E84800C3
:104B90002D0105F47F65A560E0602061012363615C
:104BA00041F65860C2F2000002F06DFE4FF400546E
:104BB000C1F20004204602F000FD30B9039B1B68DF
:104BC0001BB9019B1B78002BF4D0019B1B7823B3EE
:104BD000019B1978C9B2084609B0BDE8F08FC3F34C
:104BE0004F03154651E7079A013A0792D8F800207B
:104BF000120487E80408059BBB60F8604FF48062EC
:104C00003A61504602F015FE0D20FEF765FD0146A3
:104C10000028E0D102F02AFE7BE740F2FF5002F0CC
:104C20004FFE0DF11B00FEF760FC01460028D2D1BB
:104C30009DF81B30063B012BF3D9CCE70E21CAE7C8
:104C40002621C8E72921C6E72DE9F04F87B000905B
:104C500090469946BDF8405000248DF813400594C5
:104C600041F6DC66C2F20006347041F6D86AC2F240
:104C7000000ACAF8004041F6D067C2F200070022DD
:104C80000023C7E9002341F65860C2F200006FF02C
:104C90007F4380E818008460C4600461446102F0CE
:104CA000F2FD204602F0BFFD204602F0DFFD10F0CD
:104CB000007FCDF804A040F00F8141F69453C2F27A
:104CC00000031B68022B01D0072B05D14FEA58289F
:104CD00048EAC9584FF400756C1EA3B2B3F5006FD3
:104CE00003D3262007B0BDE8F08F2C40F9D12B4626
:104CF000621C012B40F0A18041F6446BC2F2000B14
:104D0000CBF800501022CBF8042002924FF0400A5A
:104D1000CBF808A00021CBF80C104FF48069CBF839
:104D20001090584602F085FD029A1046FEF7D4FC1A
:104D30000028D7D141F6A452C2F2000211680392B2
:104D40000904CBF800100D21CBF804100291CBF828
:104D500008A0CBF80C00CBF81090584602F069FD83
:104D600002990846FEF7B8FC0028BBD1119B5D43B1
:104D7000B5F1007F039AB4D241F69451C2F200011A
:104D8000096802295DD928460021C7E9000141F6DA
:104D9000CC62C2F2000201271760394640F21A3095
:104DA00002F035FD384602F03EFD29460098FEF738
:104DB00070FCCBF800804FF01908CBF8048040223B
:104DC000CBF808200022CBF80C204FF48062CBF8FF
:104DD000102041F64460C2F2000002F02AFD404675
:104DE000FEF77AFC024600287FF47CAF41F658605B
:104DF000C2F200006FF07F4180E82200240104F439
:104E00007F648460C2600261476102F03CFD4FF440
:104E10000054C1F20004204602F0CFFB28B9019BE8
:104E20001B6813B93378002BF5D0337803F0FF04F7
:104E3000002B36D03078C0B254E7C3F34F0314468A
:104E400056E712681204CBF800203722CBF8042072
:104E50000292CBF808A0CBF80C00CBF81090584683
:104E600002F0E7FC029A1046FEF736FC00287FF4B9
:104E700039AF119BCBF800301722CBF804200292F7
:104E8000CBF808A0CBF80C00CBF81090584602F0F5
:104E9000D0FC029A1046FEF71FFC00283FF473AFC7
:104EA00020E740F2FF5002F00BFD05944FF6FE7232
:104EB000059B93420CD90DF11300FEF716FB002859
:104EC0007FF410AF9DF81330063B012BF3D909E7AF
:104ED000059B01330593EBE70E2003E710B541F680
:104EE0004460C2F2000000230C2480E81800402235
:104EF0008260C3604FF48063036102F09AFC204635
:104F0000BDE81040FEF7E8BB2DE9F8430646002057
:104F100002F0ACFC10F0007040F0AF8041F6446449
:104F2000C2F200044027276010256560A760E0609A
:104F30004FF48068C4F81080204602F07AFC2846BE
:104F4000FEF7CAFB054600284AD141F6A453C2F237
:104F500000031B681B0423604FF03709C4F804905A
:104F6000A760E060C4F81080204602F062FC48466A
:104F7000FEF7B2FB054698BB41F65860C2F200004E
:104F80006FF07F4380E88800602383600223C36062
:104F900005610123436102F076FC25604FF00D09A5
:104FA000C4F80490A760E560C4F81080204602F0C1
:104FB00040FC4846FEF790FB054688B94FF4004791
:104FC000C4F2010740F22A687B6B13EA080F0AD08B
:104FD000082002F085FCB8B1082002F071FC04251D
:104FE0002846BDE8F8834FF4004002F079FC002821
:104FF000EAD0341F06F11C0902F05BFC44F8040FF0
:105000004C45F9D12036DFE7022002F069FC20B1DF
:10501000022002F055FC0225E2E7202002F060FCAD
:1050200020B1202002F04CFC0625D9E74FF4007097
:1050300002F056FCB0B906F18064043C4FF4001055
:1050400002F04EFC08B1A64212D140F2FF5002F02D
:1050500037FCA6F140031A6812BA43F8042BB34296
:10506000F9D1BDE74FF4007002F02AFC0725B7E73D
:1050700002F01FFC46F8040BE0E70E25B0E738B558
:105080004FF4807002F022FC044640B341F6CC633A
:10509000C2F200031B68012B41F6DC64C2F200047B
:1050A0001AD1FFF71BFF20704FF4807002F01AFC3A
:1050B00000214CF23A3002F0AAFB41F6D863C2F26A
:1050C000000301221A6041F69C53C2F20003002241
:1050D0001A602078C0B238BD00232370E4E70220B4
:1050E00002F0F4FB054698B1022002F0FBFB2146DA
:1050F0004CF23A3002F08BFB41F69C53C2F20003B3
:105100001C6041F6DC63C2F200030220187038BD57
:10511000082002F0DBFB044690B1082002F0E2FB1D
:1051200029464CF23A3002F072FB41F69C53C2F22F
:1051300000031D6041F6DC63C2F200030420E5E7D2
:10514000202002F0C3FB054690B1202002F0CAFBEC
:1051500021464CF23A3002F05AFB41F69C53C2F21F
:1051600000031C6041F6DC63C2F200030620CDE7B9
:10517000102002F0ABFB044690B1102002F0B2FB0D
:1051800029464CF23A3002F042FB41F69C53C2F2FF
:1051900000031D6041F6DC63C2F200030520B5E7A1
:1051A0004FF4007002F092FB0028B0D04FF4007072
:1051B00002F098FB21464CF23A3002F028FB41F60F
:1051C0009C53C2F200031C6041F6DC63C2F2000390
:1051D00007209BE7FFF753BF38B5044641F68865C3
:1051E000C2F200052846FFF78FFE002834D12B7845
:1051F0009B0923702B78C3F340136370AB781B02B9
:10520000638063889BB2EA78134363802B791B0623
:10521000636063686A7943EA024363606368AA79FA
:1052200043EA022363606268EB79134363602B7A7D
:1052300023726B7A6372AB7A1B09A372EB7A1B023F
:10524000A381A3899BB22A7B1343A3816B7B9A081A
:10525000A27303F00303E37338BD08B558B9FFF731
:10526000E8F941F6C863C2F20003187018780030FC
:1052700018BF012008BD012008BD10B5012370B979
:1052800040F22404C2F200042370FEF7E2FB18B9D6
:10529000237803F0FE0323702078C0B210BD1846B7
:1052A00010BD2DE9F34114461F4600283ED141F6BA
:1052B000C865C2F2000528708B0723D017440E463C
:1052C00041F6E068C2F20008BC4203D02B7803F03C
:1052D000FF0233B12878003018BF012002B0BDE8CA
:1052E000F08100926202E30D4046FFF7F1F9287069
:1052F0004FF400724146304603F08EFF013406F54C
:105300000076E1E7012F4FEAD2534FEA42224FF4F1
:10531000007005D100900846FFF7DAF92870D9E748
:105320008DE881000846FFF790FAF7E70420D5E7FB
:105330002DE9F74314461F4600283FD141F6C865C2
:10534000C2F2000528708B0724D017440E4641F6A0
:10535000E068C2F20008BC4203D02B7803F0FF09DA
:1053600033B12878003018BF012003B0BDE8F083C6
:105370004FF400723146404603F04EFFCDF80090E6
:105380006202E30D4046FFF72AFB287006F500761F
:105390000134E0E7012F4FEAD2534FEA42224FF4A3
:1053A000007005D100900846FFF719FB2870D8E778
:1053B0008DE881000846FFF747FCF7E70420D4E7B3
:1053C00038B50C461546B8B941F69453C2F20003FD
:1053D0001B68022B05D841F60860C2F20000FFF7F7
:1053E000FBFE332C00F0A8801BD8022C40D005D83F
:1053F000002C3BD0012C2FD0042038BD032C3ED0F4
:10540000322CF9D141F6B053C2F2000393F8563072
:10541000072B00F28D80DFE803F0808385878B8780
:105420008B89362C00F0A0800BD8342C00F09780AC
:10543000352CE1D141F6A053C2F200031B681BBA20
:1054400013E0372C00F09780382CD5D141F69853D3
:10545000C2F200031B7861E041F6B053C2F20003D0
:10546000DA6C9B6C5B0A43EAC2532B60002038BDA8
:1054700041F6B053C2F200031B6D2B80F6E741F6F4
:10548000B053C2F2000393F85600431E012B28D8F4
:1054900041F60862C2F20002937A0A2B134603D83F
:1054A000927A10239340E0E7927A0B2A02D09A7AFC
:1054B0000C2A06D19B7A03F5FF2303F5FF635B03F8
:1054C000D3E79A7A0D2A02D09A7A0E2A06D19B7ACD
:1054D00003F57F3303F2F6339B03C6E74FF4003343
:1054E000C3E741F68452C2F20002936848B9C3F39D
:1054F000C6130133D268C2F38152013A93402B6044
:1055000038BDDA0002F01802C3F342110A43C3F3B4
:105510008423013302FB0333A7E702232B70A5E7A3
:105520000423FBE70C23F9E70123F7E70923F5E759
:1055300000232B70184638BD41F68453C2F2000395
:105540001A6812BA2A605A6812BA6A609A6812BA5D
:10555000AA60DB6843F001031BBAEB6086E741F603
:105560007453C2F20003EBE72846FFF7CDFC00308E
:1055700018BF012038BD41F6A853C2F200035A6893
:1055800012BA2A601B681BBA6B606FE7F0B58BB06C
:10559000074640F68446C2F200066846FBF74CFB1D
:1055A00035466C460FCC0FC50FCC0FC523682B605A
:1055B0003368FB717368BB71B3687B71F368FB7010
:1055C00033690133BB7073693B8001200BB0F0BDC0
:1055D00008B50120FBF73FF945F64043C4F200034C
:1055E00001221A600020186045F64442C4F200020D
:1055F000106042F2C842C2F200024FF4E051118042
:10560000196008BD73B50021019145F64043C4F20D
:1056100000031A6892B242F2E004C2F20004254686
:1056200001F1805000F5B8508000006880B244F865
:10563000210001310829F3D142F48061196041F061
:105640000101196022F0010292B242F480611960F6
:1056500045F64441C4F200010C4608684605FCD5F5
:105660004FF6FF300860002101F1805000F5B8507E
:10567000800055F82160B6B2066001310829F3D1E7
:1056800042F481621A601A6892B242F004021A600F
:105690004FF4E041C4F200010A6801920A6822F066
:1056A000030242F001020A604FF46D42CEF20002A2
:1056B000106940F0040010612068C00406D430BFB7
:1056C000136923F00403136102B070BD4EF6FF703E
:1056D00020601C684FF6F77020401860019B0B603B
:1056E000EEE710B545F64044C4F2000422684FF6D8
:1056F000FB7313402360FBF7BCF84FF406432360B1
:1057000010BD10B5072842F20014C2F2000418BF01
:1057100020702378052B0CD8DFE803F003101B1F43
:10572000283642F20813C2F200031B681BB9FFF7C8
:10573000D8FF062300E00523237010BDFFF7D1FF3B
:105740000423237042F20813C2F2000301221A60FC
:1057500010BD022363700323EEE76378013BDBB2E5
:1057600063706378002BE8D10423E5E745F64042F7
:10577000C4F2000213689BB243F0100313600523C8
:1057800023700A23637010BD6378013BDBB2637042
:10579000637803F0FF01002BCFD145F64043C4F2FC
:1057A000000318684FF6EF7202401A600623237058
:1057B00042F20813C2F20003196010BD80B500AFB9
:1057C00042F21C13C2F200031B68984700BF80BD61
:1057D00070B588B045F64444C4F2000423689BB217
:1057E00042F21815C2F200052B802B8842F2C846FF
:1057F000C2F200063288134098050CD54FF6FF53CD
:10580000236042F20C12C2F2000213780133DBB2C1
:10581000137000F0DEF82B8832881340190401D58C
:1058200002F0E1FD2B88328813405A0508D54FF667
:10583000FF33236040F26003C2F200035B689847C5
:105840002B88328813409B0444BF4DF6FF732360BE
:105850002B8832881340D80405D54EF6FF73236099
:105860000020FFF74EFF2B883288134019050BD517
:1058700040F22503C2F200031B78002B67D0FFF72C
:10588000C1FE4FF2FF7323602B8832881340DA0584
:105890005BD54FF6FF63236045F64843C4F200032F
:1058A0001B6813F4004F42F21010C2F2000047D000
:1058B0000368013303600368032B43D945F6404571
:1058C000C4F200052A6812F008023BD1296889B2A7
:1058D00042F21413C2F20003196002F1805101F583
:1058E000B8518900096889B208AE06EB820646F80D
:1058F000201C0132082AF0D11A6842F001021A6015
:105900001A6892B22A601A6822F001021A601B68B3
:105910009BB22B6023685B05FCD54FF6FF332360F9
:10592000002303F1805202F5B852920008A901EB5E
:10593000830151F8201C89B211600133082BF0D18A
:10594000002303600720FFF7DCFE08B070BD0220D3
:10595000FFF7D7FE95E770B545F64441C4F2000164
:105960000A6892B242F21813C2F200031A80188831
:1059700042F2C842C2F200021488204010F4004FE4
:105980000E461C46154601D002F02DFD23882A88BC
:1059900013405B050AD54FF6FF33336040F26003D6
:1059A000C2F200035B68BDE87040184770BD42F268
:1059B0002013C2F200031B68184742F22813C2F2F8
:1059C00000031B68184742F22413C2F200031B684D
:1059D000184742F22C13C2F200031B68184742F228
:1059E0007813C2F200031B68184742F25813C2F240
:1059F00000031B68184742F27013C2F200031B68D1
:105A0000184742F27413C2F200031B68184742F2AF
:105A10003413C2F200031B68184742F25413C2F257
:105A200000031B68184742F25013C2F200031B68C0
:105A3000184742F24013C2F200031B68184742F2B3
:105A40003813C2F200031B68184742F24C13C2F22B
:105A500000031B68184742F23C13C2F200031B68A4
:105A6000184742F25C13C2F200031B68184742F267
:105A70004413C2F200031B68184742F26C13C2F2CF
:105A800000031B68184742F24813C2F200031B6868
:105A9000184742F23013C2F200031B68184742F263
:105AA0006813C2F200031B68184742F26413C2F283
:105AB00000031B681847FFF7F8BF42F29C43C2F28D
:105AC00000039B7A2BB142F20413C2F200030522B9
:105AD0001A60704742F20413C2F2000304221A60F3
